{
  "address": "0xA8CB123000775de926C69B3aC5AB17432CAB1680",
  "abi": [
    {
      "inputs": [
        {
          "internalType": "address",
          "name": "_alloyxDURAAddress",
          "type": "address"
        },
        {
          "internalType": "address",
          "name": "_alloyxCRWNAddress",
          "type": "address"
        },
        {
          "internalType": "address",
          "name": "_usdcCoinAddress",
          "type": "address"
        },
        {
          "internalType": "address",
          "name": "_goldfinchDelegacy",
          "type": "address"
        },
        {
          "internalType": "address",
          "name": "_uidAddress",
          "type": "address"
        }
      ],
      "stateMutability": "nonpayable",
      "type": "constructor"
    },
    {
      "anonymous": false,
      "inputs": [
        {
          "indexed": false,
          "internalType": "address",
          "name": "_tokenReceiver",
          "type": "address"
        },
        {
          "indexed": false,
          "internalType": "uint256",
          "name": "_tokenAmount",
          "type": "uint256"
        }
      ],
      "name": "Burn",
      "type": "event"
    },
    {
      "anonymous": false,
      "inputs": [
        {
          "indexed": false,
          "internalType": "string",
          "name": "_field",
          "type": "string"
        },
        {
          "indexed": false,
          "internalType": "address",
          "name": "_address",
          "type": "address"
        }
      ],
      "name": "ChangeAddress",
      "type": "event"
    },
    {
      "anonymous": false,
      "inputs": [
        {
          "indexed": false,
          "internalType": "address",
          "name": "_tokenReceiver",
          "type": "address"
        },
        {
          "indexed": false,
          "internalType": "uint256",
          "name": "_tokenAmount",
          "type": "uint256"
        }
      ],
      "name": "Claim",
      "type": "event"
    },
    {
      "anonymous": false,
      "inputs": [
        {
          "indexed": false,
          "internalType": "address",
          "name": "_tokenAddress",
          "type": "address"
        },
        {
          "indexed": false,
          "internalType": "address",
          "name": "_tokenSender",
          "type": "address"
        },
        {
          "indexed": false,
          "internalType": "uint256",
          "name": "_tokenAmount",
          "type": "uint256"
        }
      ],
      "name": "DepositAlloyx",
      "type": "event"
    },
    {
      "anonymous": false,
      "inputs": [
        {
          "indexed": false,
          "internalType": "address",
          "name": "_tokenAddress",
          "type": "address"
        },
        {
          "indexed": false,
          "internalType": "address",
          "name": "_tokenSender",
          "type": "address"
        },
        {
          "indexed": false,
          "internalType": "uint256",
          "name": "_tokenID",
          "type": "uint256"
        }
      ],
      "name": "DepositNftForDura",
      "type": "event"
    },
    {
      "anonymous": false,
      "inputs": [
        {
          "indexed": false,
          "internalType": "address",
          "name": "_tokenAddress",
          "type": "address"
        },
        {
          "indexed": false,
          "internalType": "address",
          "name": "_tokenSender",
          "type": "address"
        },
        {
          "indexed": false,
          "internalType": "uint256",
          "name": "_tokenID",
          "type": "uint256"
        }
      ],
      "name": "DepositNftForUsdc",
      "type": "event"
    },
    {
      "anonymous": false,
      "inputs": [
        {
          "indexed": false,
          "internalType": "address",
          "name": "_tokenAddress",
          "type": "address"
        },
        {
          "indexed": false,
          "internalType": "address",
          "name": "_tokenSender",
          "type": "address"
        },
        {
          "indexed": false,
          "internalType": "uint256",
          "name": "_tokenAmount",
          "type": "uint256"
        }
      ],
      "name": "DepositStable",
      "type": "event"
    },
    {
      "anonymous": false,
      "inputs": [
        {
          "indexed": false,
          "internalType": "address",
          "name": "_tokenReceiver",
          "type": "address"
        },
        {
          "indexed": false,
          "internalType": "uint256",
          "name": "_tokenAmount",
          "type": "uint256"
        }
      ],
      "name": "Mint",
      "type": "event"
    },
    {
      "anonymous": false,
      "inputs": [
        {
          "indexed": true,
          "internalType": "address",
          "name": "previousOwner",
          "type": "address"
        },
        {
          "indexed": true,
          "internalType": "address",
          "name": "newOwner",
          "type": "address"
        }
      ],
      "name": "OwnershipTransferred",
      "type": "event"
    },
    {
      "anonymous": false,
      "inputs": [
        {
          "indexed": false,
          "internalType": "address",
          "name": "account",
          "type": "address"
        }
      ],
      "name": "Paused",
      "type": "event"
    },
    {
      "anonymous": false,
      "inputs": [
        {
          "indexed": false,
          "internalType": "uint256",
          "name": "amount",
          "type": "uint256"
        }
      ],
      "name": "PurchaseJunior",
      "type": "event"
    },
    {
      "anonymous": false,
      "inputs": [
        {
          "indexed": false,
          "internalType": "uint256",
          "name": "amount",
          "type": "uint256"
        }
      ],
      "name": "PurchaseSenior",
      "type": "event"
    },
    {
      "anonymous": false,
      "inputs": [
        {
          "indexed": false,
          "internalType": "address",
          "name": "_tokenReceiver",
          "type": "address"
        },
        {
          "indexed": false,
          "internalType": "uint256",
          "name": "_tokenAmount",
          "type": "uint256"
        }
      ],
      "name": "Reward",
      "type": "event"
    },
    {
      "anonymous": false,
      "inputs": [
        {
          "indexed": false,
          "internalType": "uint256",
          "name": "amount",
          "type": "uint256"
        }
      ],
      "name": "SellJunior",
      "type": "event"
    },
    {
      "anonymous": false,
      "inputs": [
        {
          "indexed": false,
          "internalType": "uint256",
          "name": "amount",
          "type": "uint256"
        }
      ],
      "name": "SellSenior",
      "type": "event"
    },
    {
      "anonymous": false,
      "inputs": [
        {
          "indexed": false,
          "internalType": "string",
          "name": "_field",
          "type": "string"
        },
        {
          "indexed": false,
          "internalType": "uint256",
          "name": "_value",
          "type": "uint256"
        }
      ],
      "name": "SetField",
      "type": "event"
    },
    {
      "anonymous": false,
      "inputs": [
        {
          "indexed": false,
          "internalType": "address",
          "name": "_staker",
          "type": "address"
        },
        {
          "indexed": false,
          "internalType": "uint256",
          "name": "_amount",
          "type": "uint256"
        }
      ],
      "name": "Stake",
      "type": "event"
    },
    {
      "anonymous": false,
      "inputs": [
        {
          "indexed": false,
          "internalType": "address",
          "name": "account",
          "type": "address"
        }
      ],
      "name": "Unpaused",
      "type": "event"
    },
    {
      "anonymous": false,
      "inputs": [
        {
          "indexed": false,
          "internalType": "address",
          "name": "_unstaker",
          "type": "address"
        },
        {
          "indexed": false,
          "internalType": "uint256",
          "name": "_amount",
          "type": "uint256"
        }
      ],
      "name": "Unstake",
      "type": "event"
    },
    {
      "inputs": [],
      "name": "ID_VERSION_0",
      "outputs": [
        {
          "internalType": "uint256",
          "name": "",
          "type": "uint256"
        }
      ],
      "stateMutability": "view",
      "type": "function"
    },
    {
      "inputs": [
        {
          "internalType": "address",
          "name": "_addressToWhitelist",
          "type": "address"
        }
      ],
      "name": "addWhitelistedUser",
      "outputs": [],
      "stateMutability": "nonpayable",
      "type": "function"
    },
    {
      "inputs": [
        {
          "internalType": "uint256",
          "name": "_amount",
          "type": "uint256"
        }
      ],
      "name": "alloyxDURAToUSDC",
      "outputs": [
        {
          "internalType": "uint256",
          "name": "",
          "type": "uint256"
        }
      ],
      "stateMutability": "view",
      "type": "function"
    },
    {
      "inputs": [
        {
          "internalType": "address",
          "name": "_tokenAddress",
          "type": "address"
        },
        {
          "internalType": "address",
          "name": "_account",
          "type": "address"
        },
        {
          "internalType": "uint256",
          "name": "_amount",
          "type": "uint256"
        }
      ],
      "name": "approveDelegacy",
      "outputs": [],
      "stateMutability": "nonpayable",
      "type": "function"
    },
    {
      "inputs": [
        {
          "internalType": "address",
          "name": "_alloyxAddress",
          "type": "address"
        }
      ],
      "name": "changeAlloyxCRWNAddress",
      "outputs": [],
      "stateMutability": "nonpayable",
      "type": "function"
    },
    {
      "inputs": [
        {
          "internalType": "address",
          "name": "_alloyxAddress",
          "type": "address"
        }
      ],
      "name": "changeAlloyxDURAAddress",
      "outputs": [],
      "stateMutability": "nonpayable",
      "type": "function"
    },
    {
      "inputs": [
        {
          "internalType": "address",
          "name": "_goldfinchDelegacy",
          "type": "address"
        }
      ],
      "name": "changeGoldfinchDelegacyAddress",
      "outputs": [],
      "stateMutability": "nonpayable",
      "type": "function"
    },
    {
      "inputs": [
        {
          "internalType": "address",
          "name": "_uidAddress",
          "type": "address"
        }
      ],
      "name": "changeUIDAddress",
      "outputs": [],
      "stateMutability": "nonpayable",
      "type": "function"
    },
    {
      "inputs": [
        {
          "internalType": "address",
          "name": "_usdcAddress",
          "type": "address"
        }
      ],
      "name": "changeUSDCAddress",
      "outputs": [],
      "stateMutability": "nonpayable",
      "type": "function"
    },
    {
      "inputs": [],
      "name": "claimAllAlloyxCRWN",
      "outputs": [
        {
          "internalType": "bool",
          "name": "",
          "type": "bool"
        }
      ],
      "stateMutability": "nonpayable",
      "type": "function"
    },
    {
      "inputs": [
        {
          "internalType": "uint256",
          "name": "_amount",
          "type": "uint256"
        }
      ],
      "name": "claimAlloyxCRWN",
      "outputs": [
        {
          "internalType": "bool",
          "name": "",
          "type": "bool"
        }
      ],
      "stateMutability": "nonpayable",
      "type": "function"
    },
    {
      "inputs": [
        {
          "internalType": "uint256",
          "name": "_amount",
          "type": "uint256"
        }
      ],
      "name": "claimReward",
      "outputs": [
        {
          "internalType": "bool",
          "name": "",
          "type": "bool"
        }
      ],
      "stateMutability": "nonpayable",
      "type": "function"
    },
    {
      "inputs": [
        {
          "internalType": "address",
          "name": "_receiver",
          "type": "address"
        }
      ],
      "name": "claimableCRWNToken",
      "outputs": [
        {
          "internalType": "uint256",
          "name": "",
          "type": "uint256"
        }
      ],
      "stateMutability": "view",
      "type": "function"
    },
    {
      "inputs": [
        {
          "internalType": "uint256",
          "name": "_tokenAmount",
          "type": "uint256"
        }
      ],
      "name": "depositAlloyxDURATokens",
      "outputs": [
        {
          "internalType": "bool",
          "name": "",
          "type": "bool"
        }
      ],
      "stateMutability": "nonpayable",
      "type": "function"
    },
    {
      "inputs": [
        {
          "internalType": "uint256",
          "name": "_tokenAmount",
          "type": "uint256"
        }
      ],
      "name": "depositAlloyxDURATokensForFIDU",
      "outputs": [
        {
          "internalType": "bool",
          "name": "",
          "type": "bool"
        }
      ],
      "stateMutability": "nonpayable",
      "type": "function"
    },
    {
      "inputs": [
        {
          "internalType": "address",
          "name": "_tokenAddress",
          "type": "address"
        },
        {
          "internalType": "uint256",
          "name": "_tokenID",
          "type": "uint256"
        }
      ],
      "name": "depositNFTTokenForDura",
      "outputs": [
        {
          "internalType": "bool",
          "name": "",
          "type": "bool"
        }
      ],
      "stateMutability": "nonpayable",
      "type": "function"
    },
    {
      "inputs": [
        {
          "internalType": "address",
          "name": "_tokenAddress",
          "type": "address"
        },
        {
          "internalType": "uint256",
          "name": "_tokenID",
          "type": "uint256"
        }
      ],
      "name": "depositNFTTokenForDuraWithStake",
      "outputs": [
        {
          "internalType": "bool",
          "name": "",
          "type": "bool"
        }
      ],
      "stateMutability": "nonpayable",
      "type": "function"
    },
    {
      "inputs": [
        {
          "internalType": "address",
          "name": "_tokenAddress",
          "type": "address"
        },
        {
          "internalType": "uint256",
          "name": "_tokenID",
          "type": "uint256"
        }
      ],
      "name": "depositNFTTokenForUsdc",
      "outputs": [
        {
          "internalType": "bool",
          "name": "",
          "type": "bool"
        }
      ],
      "stateMutability": "nonpayable",
      "type": "function"
    },
    {
      "inputs": [
        {
          "internalType": "uint256",
          "name": "_tokenAmount",
          "type": "uint256"
        }
      ],
      "name": "depositUSDCCoin",
      "outputs": [
        {
          "internalType": "bool",
          "name": "",
          "type": "bool"
        }
      ],
      "stateMutability": "nonpayable",
      "type": "function"
    },
    {
      "inputs": [
        {
          "internalType": "uint256",
          "name": "_tokenAmount",
          "type": "uint256"
        }
      ],
      "name": "depositUSDCCoinWithStake",
      "outputs": [
        {
          "internalType": "bool",
          "name": "",
          "type": "bool"
        }
      ],
      "stateMutability": "nonpayable",
      "type": "function"
    },
    {
      "inputs": [],
      "name": "duraToFiduFee",
      "outputs": [
        {
          "internalType": "uint256",
          "name": "",
          "type": "uint256"
        }
      ],
      "stateMutability": "view",
      "type": "function"
    },
    {
      "inputs": [],
      "name": "getAlloyxDURATokenBalanceInUSDC",
      "outputs": [
        {
          "internalType": "uint256",
          "name": "",
          "type": "uint256"
        }
      ],
      "stateMutability": "view",
      "type": "function"
    },
    {
      "inputs": [
        {
          "internalType": "uint256",
          "name": "_amount",
          "type": "uint256"
        }
      ],
      "name": "getRewardTokenCount",
      "outputs": [
        {
          "internalType": "uint256",
          "name": "",
          "type": "uint256"
        }
      ],
      "stateMutability": "view",
      "type": "function"
    },
    {
      "inputs": [
        {
          "internalType": "address",
          "name": "_userAddress",
          "type": "address"
        }
      ],
      "name": "hasWhitelistedUID",
      "outputs": [
        {
          "internalType": "bool",
          "name": "",
          "type": "bool"
        }
      ],
      "stateMutability": "view",
      "type": "function"
    },
    {
      "inputs": [
        {
          "internalType": "address",
          "name": "_address",
          "type": "address"
        }
      ],
      "name": "isStakeholder",
      "outputs": [
        {
          "internalType": "bool",
          "name": "",
          "type": "bool"
        }
      ],
      "stateMutability": "view",
      "type": "function"
    },
    {
      "inputs": [
        {
          "internalType": "address",
          "name": "_whitelistedAddress",
          "type": "address"
        }
      ],
      "name": "isUserWhitelisted",
      "outputs": [
        {
          "internalType": "bool",
          "name": "",
          "type": "bool"
        }
      ],
      "stateMutability": "view",
      "type": "function"
    },
    {
      "inputs": [
        {
          "internalType": "address",
          "name": "_tokenAddress",
          "type": "address"
        },
        {
          "internalType": "address",
          "name": "_to",
          "type": "address"
        }
      ],
      "name": "migrateERC20",
      "outputs": [],
      "stateMutability": "nonpayable",
      "type": "function"
    },
    {
      "inputs": [
        {
          "internalType": "address",
          "name": "_tokenAddress",
          "type": "address"
        },
        {
          "internalType": "address",
          "name": "_toAddress",
          "type": "address"
        },
        {
          "internalType": "uint256",
          "name": "_tokenId",
          "type": "uint256"
        }
      ],
      "name": "migrateERC721",
      "outputs": [],
      "stateMutability": "nonpayable",
      "type": "function"
    },
    {
      "inputs": [
        {
          "internalType": "address",
          "name": "",
          "type": "address"
        },
        {
          "internalType": "address",
          "name": "",
          "type": "address"
        },
        {
          "internalType": "uint256",
          "name": "",
          "type": "uint256"
        },
        {
          "internalType": "bytes",
          "name": "",
          "type": "bytes"
        }
      ],
      "name": "onERC721Received",
      "outputs": [
        {
          "internalType": "bytes4",
          "name": "",
          "type": "bytes4"
        }
      ],
      "stateMutability": "nonpayable",
      "type": "function"
    },
    {
      "inputs": [],
      "name": "owner",
      "outputs": [
        {
          "internalType": "address",
          "name": "",
          "type": "address"
        }
      ],
      "stateMutability": "view",
      "type": "function"
    },
    {
      "inputs": [],
      "name": "pause",
      "outputs": [],
      "stateMutability": "nonpayable",
      "type": "function"
    },
    {
      "inputs": [],
      "name": "paused",
      "outputs": [
        {
          "internalType": "bool",
          "name": "",
          "type": "bool"
        }
      ],
      "stateMutability": "view",
      "type": "function"
    },
    {
      "inputs": [],
      "name": "percentageCRWNEarning",
      "outputs": [
        {
          "internalType": "uint256",
          "name": "",
          "type": "uint256"
        }
      ],
      "stateMutability": "view",
      "type": "function"
    },
    {
      "inputs": [],
      "name": "percentageDURARedemption",
      "outputs": [
        {
          "internalType": "uint256",
          "name": "",
          "type": "uint256"
        }
      ],
      "stateMutability": "view",
      "type": "function"
    },
    {
      "inputs": [],
      "name": "percentageDURARepayment",
      "outputs": [
        {
          "internalType": "uint256",
          "name": "",
          "type": "uint256"
        }
      ],
      "stateMutability": "view",
      "type": "function"
    },
    {
      "inputs": [],
      "name": "percentageDuraToFiduFee",
      "outputs": [
        {
          "internalType": "uint256",
          "name": "",
          "type": "uint256"
        }
      ],
      "stateMutability": "view",
      "type": "function"
    },
    {
      "inputs": [],
      "name": "percentageInvestJunior",
      "outputs": [
        {
          "internalType": "uint256",
          "name": "",
          "type": "uint256"
        }
      ],
      "stateMutability": "view",
      "type": "function"
    },
    {
      "inputs": [],
      "name": "percentageRewardPerYear",
      "outputs": [
        {
          "internalType": "uint256",
          "name": "",
          "type": "uint256"
        }
      ],
      "stateMutability": "view",
      "type": "function"
    },
    {
      "inputs": [
        {
          "internalType": "uint256",
          "name": "_amount",
          "type": "uint256"
        },
        {
          "internalType": "address",
          "name": "_poolAddress",
          "type": "address"
        },
        {
          "internalType": "uint256",
          "name": "_tranche",
          "type": "uint256"
        }
      ],
      "name": "purchaseJuniorToken",
      "outputs": [],
      "stateMutability": "nonpayable",
      "type": "function"
    },
    {
      "inputs": [],
      "name": "purchaseJuniorTokenBeyondUsdcThreshold",
      "outputs": [],
      "stateMutability": "nonpayable",
      "type": "function"
    },
    {
      "inputs": [
        {
          "internalType": "uint256",
          "name": "_amount",
          "type": "uint256"
        }
      ],
      "name": "purchaseSeniorTokens",
      "outputs": [],
      "stateMutability": "nonpayable",
      "type": "function"
    },
    {
      "inputs": [],
      "name": "redemptionFee",
      "outputs": [
        {
          "internalType": "uint256",
          "name": "",
          "type": "uint256"
        }
      ],
      "stateMutability": "view",
      "type": "function"
    },
    {
      "inputs": [
        {
          "internalType": "address",
          "name": "_addressToDeWhitelist",
          "type": "address"
        }
      ],
      "name": "removeWhitelistedUser",
      "outputs": [],
      "stateMutability": "nonpayable",
      "type": "function"
    },
    {
      "inputs": [],
      "name": "renounceOwnership",
      "outputs": [],
      "stateMutability": "nonpayable",
      "type": "function"
    },
    {
      "inputs": [
        {
          "internalType": "uint256",
          "name": "_tokenId",
          "type": "uint256"
        },
        {
          "internalType": "uint256",
          "name": "_amount",
          "type": "uint256"
        },
        {
          "internalType": "address",
          "name": "_poolAddress",
          "type": "address"
        }
      ],
      "name": "sellJuniorToken",
      "outputs": [],
      "stateMutability": "nonpayable",
      "type": "function"
    },
    {
      "inputs": [
        {
          "internalType": "uint256",
          "name": "_amount",
          "type": "uint256"
        }
      ],
      "name": "sellSeniorTokens",
      "outputs": [],
      "stateMutability": "nonpayable",
      "type": "function"
    },
    {
      "inputs": [
        {
          "internalType": "uint256",
          "name": "_percentageCRWNEarning",
          "type": "uint256"
        }
      ],
      "name": "setPercentageCRWNEarning",
      "outputs": [],
      "stateMutability": "nonpayable",
      "type": "function"
    },
    {
      "inputs": [
        {
          "internalType": "uint256",
          "name": "_percentageDURARedemption",
          "type": "uint256"
        }
      ],
      "name": "setPercentageDURARedemption",
      "outputs": [],
      "stateMutability": "nonpayable",
      "type": "function"
    },
    {
      "inputs": [
        {
          "internalType": "uint256",
          "name": "_percentageDURARepayment",
          "type": "uint256"
        }
      ],
      "name": "setPercentageDURARepayment",
      "outputs": [],
      "stateMutability": "nonpayable",
      "type": "function"
    },
    {
      "inputs": [
        {
          "internalType": "uint256",
          "name": "_percentageDuraToFiduFee",
          "type": "uint256"
        }
      ],
      "name": "setPercentageDuraToFiduFee",
      "outputs": [],
      "stateMutability": "nonpayable",
      "type": "function"
    },
    {
      "inputs": [
        {
          "internalType": "uint256",
          "name": "_percentageRewardPerYear",
          "type": "uint256"
        }
      ],
      "name": "setPercentageRewardPerYear",
      "outputs": [],
      "stateMutability": "nonpayable",
      "type": "function"
    },
    {
      "inputs": [
        {
          "internalType": "uint256",
          "name": "_amount",
          "type": "uint256"
        }
      ],
      "name": "stake",
      "outputs": [
        {
          "internalType": "bool",
          "name": "",
          "type": "bool"
        }
      ],
      "stateMutability": "nonpayable",
      "type": "function"
    },
    {
      "inputs": [
        {
          "internalType": "address",
          "name": "_stakeholder",
          "type": "address"
        }
      ],
      "name": "stakeOf",
      "outputs": [
        {
          "components": [
            {
              "internalType": "uint256",
              "name": "amount",
              "type": "uint256"
            },
            {
              "internalType": "uint256",
              "name": "since",
              "type": "uint256"
            }
          ],
          "internalType": "struct AlloyxVault.StakeInfo",
          "name": "",
          "type": "tuple"
        }
      ],
      "stateMutability": "view",
      "type": "function"
    },
    {
      "inputs": [],
      "name": "startVaultOperation",
      "outputs": [
        {
          "internalType": "bool",
          "name": "",
          "type": "bool"
        }
      ],
      "stateMutability": "nonpayable",
      "type": "function"
    },
    {
      "inputs": [],
      "name": "totalClaimableAndClaimedCRWNToken",
      "outputs": [
        {
          "internalType": "uint256",
          "name": "",
          "type": "uint256"
        }
      ],
      "stateMutability": "view",
      "type": "function"
    },
    {
      "inputs": [],
      "name": "totalClaimableCRWNToken",
      "outputs": [
        {
          "internalType": "uint256",
          "name": "",
          "type": "uint256"
        }
      ],
      "stateMutability": "view",
      "type": "function"
    },
    {
      "inputs": [
        {
          "internalType": "address",
          "name": "_to",
          "type": "address"
        }
      ],
      "name": "transferAlloyxOwnership",
      "outputs": [],
      "stateMutability": "nonpayable",
      "type": "function"
    },
    {
      "inputs": [
        {
          "internalType": "address",
          "name": "newOwner",
          "type": "address"
        }
      ],
      "name": "transferOwnership",
      "outputs": [],
      "stateMutability": "nonpayable",
      "type": "function"
    },
    {
      "inputs": [
        {
          "internalType": "address",
          "name": "_to",
          "type": "address"
        }
      ],
      "name": "transferRedemptionFee",
      "outputs": [],
      "stateMutability": "nonpayable",
      "type": "function"
    },
    {
      "inputs": [],
      "name": "unpause",
      "outputs": [],
      "stateMutability": "nonpayable",
      "type": "function"
    },
    {
      "inputs": [
        {
          "internalType": "uint256",
          "name": "_amount",
          "type": "uint256"
        }
      ],
      "name": "unstake",
      "outputs": [
        {
          "internalType": "bool",
          "name": "",
          "type": "bool"
        }
      ],
      "stateMutability": "nonpayable",
      "type": "function"
    },
    {
      "inputs": [
        {
          "internalType": "uint256",
          "name": "_amount",
          "type": "uint256"
        }
      ],
      "name": "usdcToAlloyxDURA",
      "outputs": [
        {
          "internalType": "uint256",
          "name": "",
          "type": "uint256"
        }
      ],
      "stateMutability": "view",
      "type": "function"
    }
  ],
  "transactionHash": "0x132fccff8ed8325234f6db0080cf08a15e54afc28421af36cd7b21d5ea52b3b5",
  "args": [
    "0x1BCCCb2DA7EB134461336AD4c168F2B9967BbD24",
    "0x807F87Bb767E7351f51761A61b40B65c049F8A0d",
    "0x39381b99E94181a064FA06B2Dd3129675Df39895",
    "0x5656bb676A145fB6A42ab000B26156cc71Cec591",
    "0x4e646535b25f93863E93D38673972FEa2CC3e643"
  ],
  "numDeployments": 1,
  "solcInputHash": "08a92db6992249edcf68c87dc376958b",
  "bytecode": "0x60806040526002600a556001600b556001600c556002600d55600a600e55603c600f55600060105560006011553480156200003957600080fd5b5060405162006132380380620061328339810160408190526200005c9162000147565b6200006733620000da565b60008054600380546001600160a01b03199081166001600160a01b03998a16179091556004805482169789169790971790965560028054871695881695909517909455600580548616938716939093179092556001805490941694169390931790915561ffff60a01b19169055620001b7565b600080546001600160a01b038381166001600160a01b0319831681178455604051919092169283917f8be0079c531659141344cd1fd0a4f28419497f9722a3daafe3b4186f6b6457e09190a35050565b80516001600160a01b03811681146200014257600080fd5b919050565b600080600080600060a086880312156200016057600080fd5b6200016b866200012a565b94506200017b602087016200012a565b93506200018b604087016200012a565b92506200019b606087016200012a565b9150620001ab608087016200012a565b90509295509295909350565b615f6b80620001c76000396000f3fe608060405234801561001057600080fd5b50600436106103ba5760003560e01c80638525f513116101f4578063c070c2bd1161011a578063e91f03e6116100ad578063f1a341f71161007c578063f1a341f71461082e578063f2bc926914610841578063f2fde38b14610854578063fb237eb21461086757600080fd5b8063e91f03e6146107df578063e93039cb146107e7578063ede7bf60146107ef578063ef037b901461080257600080fd5b8063d3130972116100e9578063d31309721461079d578063d8ec0608146107b0578063d905e9b4146107c3578063dabb98aa146107d657600080fd5b8063c070c2bd14610751578063c8977e0214610764578063cb80714b14610777578063ce3c39c11461078a57600080fd5b8063a694fc3a11610192578063b231e25d11610161578063b231e25d1461070f578063b7840d1a14610722578063b7b1b8e91461072b578063be48a19e1461073e57600080fd5b8063a694fc3a146106ce578063a98e6b62146106e1578063acb1eaf1146106f4578063ae169a50146106fc57600080fd5b80638da5cb5b116101ce5780638da5cb5b1461067a5780638f2da01d146106955780639cdad708146106a8578063a45921ff146106bb57600080fd5b80638525f5131461064c5780638668f2f31461065f5780638d6f4d211461067257600080fd5b8063388aab5b116102e45780635c975abb11610277578063715018a611610246578063715018a614610616578063816c1acd1461061e57806382633519146106315780638456cb591461064457600080fd5b80635c975abb146105e05780635ddd351d146105f257806364cdc99e146105fb5780636d9635ed1461060357600080fd5b8063506c4e69116102b3578063506c4e691461059457806351ba9724146105a7578063528accd6146105ba57806353c98f5a146105cd57600080fd5b8063388aab5b1461050b5780633f4ba83a14610513578063426233601461051b578063458f58151461058b57600080fd5b80631b61eb671161035c5780632a88ec541161032b5780632a88ec54146104bf5780632c579213146104d25780632d9411a6146104e55780632e17de78146104f857600080fd5b80631b61eb6714610487578063219f579d1461049a578063223ea9b0146104a35780632456a11d146104ac57600080fd5b80630eb9a007116103985780630eb9a00714610406578063150b7a021461041b57806315c2eb1c1461046b57806319859a6d1461047457600080fd5b806307dd2ef2146103bf5780630d518001146103db5780630d7a3c6e146103f3575b600080fd5b6103c8600e5481565b6040519081526020015b60405180910390f35b6103e361087a565b60405190151581526020016103d2565b6103c8610401366004615c67565b610a04565b610419610414366004615ab5565b610ab7565b005b610452610429366004615b3f565b7f150b7a0200000000000000000000000000000000000000000000000000000000949350505050565b6040516001600160e01b031990911681526020016103d2565b6103c8600f5481565b6103c8610482366004615c67565b610b8c565b610419610495366004615c99565b610c2e565b6103c8600c5481565b6103c8600d5481565b6104196104ba366004615c67565b610d8a565b6104196104cd366004615ab5565b610e3e565b6104196104e0366004615c67565b610ef8565b6103e36104f3366004615ab5565b611043565b6103e3610506366004615c67565b61116a565b6103c8600081565b610419611272565b610570610529366004615ab5565b6040805180820190915260008082526020820152506001600160a01b0316600090815260076020908152604091829020825180840190935280548352600101549082015290565b604080518251815260209283015192810192909252016103d2565b6103c860105481565b6103e36105a2366004615c1b565b611314565b6103e36105b5366004615c67565b6116b8565b6104196105c8366004615ab5565b6118b9565b6103e36105db366004615c67565b611987565b600054600160a01b900460ff166103e3565b6103c8600b5481565b6103c8611e18565b6103e3610611366004615c1b565b611e4e565b61041961221e565b6103c861062c366004615ab5565b612270565b61041961063f366004615c67565b6122e4565b610419612398565b6103e361065a366004615c1b565b612435565b61041961066d366004615ab5565b61280c565b6103e36128da565b6000546040516001600160a01b0390911681526020016103d2565b6104196106a3366004615c67565b612b08565b6104196106b6366004615c67565b612c48565b6104196106c9366004615b03565b612cfc565b6103e36106dc366004615c67565b612dd1565b6104196106ef366004615b03565b612ecd565b610419612fa0565b6103e361070a366004615c67565b6131c9565b61041961071d366004615ab5565b6134a6565b6103c860115481565b610419610739366004615ab5565b613590565b61041961074c366004615ab5565b613673565b61041961075f366004615ab5565b613741565b6103e3610772366004615c67565b61380f565b610419610785366004615c67565b613dad565b6103e3610798366004615c67565b613e61565b6104196107ab366004615c67565b614320565b6104196107be366004615ab5565b6143d4565b6104196107d1366004615ad0565b61452f565b6103c8600a5481565b6103c861465c565b6103c86147c4565b6103c86107fd366004615c67565b614863565b6103e3610810366004615ab5565b6001600160a01b031660009081526006602052604090205460ff1690565b61041961083c366004615cbe565b614908565b6103e361084f366004615c67565b614a61565b610419610862366004615ab5565b614fe4565b6103e3610875366004615ab5565b6150b4565b60008054600160a01b900460ff16156108cd5760405162461bcd60e51b815260206004820152601060248201526f14185d5cd8589b194e881c185d5cd95960821b60448201526064015b60405180910390fd5b600054600160a81b900460ff166109235760405162461bcd60e51b81526020600482015260266024820152600080516020615f16833981519152604482015265706f7369747360d01b60648201526084016108c4565b600061092e33612270565b600480546040516340c10f1960e01b81523392810192909252602482018390529192506001600160a01b03909116906340c10f1990604401602060405180830381600087803b15801561098057600080fd5b505af1158015610994573d6000803e3d6000fd5b505050506040513d601f19601f820116820180604052508101906109b89190615c45565b506109c360006150df565b60408051338152602081018390527f47cee97cb7acd717b3c0aa1435d004cd5b3c8c57d70dbceb4e4458bbd60e39d4910160405180910390a1600191505090565b600080600360009054906101000a90046001600160a01b03166001600160a01b03166318160ddd6040518163ffffffff1660e01b815260040160206040518083038186803b158015610a5557600080fd5b505afa158015610a69573d6000803e3d6000fd5b505050506040513d601f19601f82011682018060405250810190610a8d9190615c80565b90506000610a9961465c565b9050610aaf81610aa98685615102565b9061510e565b949350505050565b6000546001600160a01b03163314610aff5760405162461bcd60e51b81526020600482018190526024820152600080516020615ef683398151915260448201526064016108c4565b600580546001600160a01b0319166001600160a01b038316908117909155604080518181526011918101919091527f676f6c6466696e636844656c6567616379000000000000000000000000000000606082015260208101919091527f6314c89e231542c0e7379a5606c8f0bee7eadfaf9885637a8eef5fb4fe078dbc906080015b60405180910390a150565b6005546000906001600160a01b031663a2a9ccea83610ba96147c4565b600e546040516001600160e01b031960e086901b16815260048101939093526024830191909152604482015260640160206040518083038186803b158015610bf057600080fd5b505afa158015610c04573d6000803e3d6000fd5b505050506040513d601f19601f82011682018060405250810190610c289190615c80565b92915050565b6000546001600160a01b03163314610c765760405162461bcd60e51b81526020600482018190526024820152600080516020615ef683398151915260448201526064016108c4565b60008311610cc65760405162461bcd60e51b815260206004820152601b60248201527f4d757374206465706f736974206d6f7265207468616e207a65726f000000000060448201526064016108c4565b6005546040517f1b61eb67000000000000000000000000000000000000000000000000000000008152600481018590526001600160a01b0384811660248301526044820184905290911690631b61eb6790606401600060405180830381600087803b158015610d3457600080fd5b505af1158015610d48573d6000803e3d6000fd5b505050507f7a3794cf7d311106018524dfd41878138e4264f1bee18e53f1c180a1627fa2b883604051610d7d91815260200190565b60405180910390a1505050565b6000546001600160a01b03163314610dd25760405162461bcd60e51b81526020600482018190526024820152600080516020615ef683398151915260448201526064016108c4565b600a819055604080518181526017918101919091527f70657263656e74616765526577617264506572596561720000000000000000006060820152602081018290527f272c29cfb1538e15f8105c58381747783d06b2021a4fcf849c274927396e1c3790608001610b81565b6000546001600160a01b03163314610e865760405162461bcd60e51b81526020600482018190526024820152600080516020615ef683398151915260448201526064016108c4565b600054600160a01b900460ff1615610ed35760405162461bcd60e51b815260206004820152601060248201526f14185d5cd8589b194e881c185d5cd95960821b60448201526064016108c4565b601054600254610ef0916001600160a01b0390911690839061511a565b506000601055565b6000546001600160a01b03163314610f405760405162461bcd60e51b81526020600482018190526024820152600080516020615ef683398151915260448201526064016108c4565b60008111610f905760405162461bcd60e51b815260206004820152601860248201527f4d7573742073656c6c206d6f7265207468616e207a65726f000000000000000060448201526064016108c4565b600554600d546040517ff5a416270000000000000000000000000000000000000000000000000000000081526004810184905260248101919091526001600160a01b039091169063f5a4162790604401600060405180830381600087803b158015610ffa57600080fd5b505af115801561100e573d6000803e3d6000fd5b505050507fc3085fd698c0021cf2ad330617df928819e049637665217c5e7757452f991d3181604051610b8191815260200190565b600154604051627eeac760e11b81526001600160a01b03838116600483015260006024830181905292839291169062fdd58e9060440160206040518083038186803b15801561109157600080fd5b505afa1580156110a5573d6000803e3d6000fd5b505050506040513d601f19601f820116820180604052508101906110c99190615c80565b600154604051627eeac760e11b81526001600160a01b0386811660048084019190915260248301529293506000929091169062fdd58e9060440160206040518083038186803b15801561111b57600080fd5b505afa15801561112f573d6000803e3d6000fd5b505050506040513d601f19601f820116820180604052508101906111539190615c80565b905060006111618284615d42565b11949350505050565b60008054600160a01b900460ff16156111b85760405162461bcd60e51b815260206004820152601060248201526f14185d5cd8589b194e881c185d5cd95960821b60448201526064016108c4565b600054600160a81b900460ff1661120e5760405162461bcd60e51b81526020600482015260266024820152600080516020615f16833981519152604482015265706f7369747360d01b60648201526084016108c4565b61121833836151ab565b60035461122f906001600160a01b0316338461511a565b60408051338152602081018490527f85082129d87b2fe11527cb1b3b7a520aeb5aa6913f88a3d8757fe40d1db02fdd91015b60405180910390a15060015b919050565b6000546001600160a01b031633146112ba5760405162461bcd60e51b81526020600482018190526024820152600080516020615ef683398151915260448201526064016108c4565b600054600160a01b900460ff1661130a5760405162461bcd60e51b815260206004820152601460248201527314185d5cd8589b194e881b9bdd081c185d5cd95960621b60448201526064016108c4565b611312615337565b565b60008054600160a01b900460ff16156113625760405162461bcd60e51b815260206004820152601060248201526f14185d5cd8589b194e881c185d5cd95960821b60448201526064016108c4565b600054600160a81b900460ff166113b85760405162461bcd60e51b81526020600482015260266024820152600080516020615f16833981519152604482015265706f7369747360d01b60648201526084016108c4565b3360008181526009602052604090205460ff16806113da57506113da81611043565b6114265760405162461bcd60e51b815260206004820152601a60248201527f596f75206e65656420746f2062652077686974656c697374656400000000000060448201526064016108c4565b6005546040516373f4047360e11b81526001600160a01b03868116600483015233602483015260448201869052600092169063e7e808e690606401602060405180830381600087803b15801561147b57600080fd5b505af115801561148f573d6000803e3d6000fd5b505050506040513d601f19601f820116820180604052508101906114b39190615c80565b905060006114c082610a04565b9050600081116115385760405162461bcd60e51b815260206004820152603a60248201527f54686520616d6f756e74206f6620616c6c6f7978204455524120636f696e207460448201527f6f20676574206973206e6f74206c6172676572207468616e203000000000000060648201526084016108c4565b600554604051632142170760e11b81523360048201526001600160a01b03918216602482015260448101879052908716906342842e0e90606401600060405180830381600087803b15801561158c57600080fd5b505af11580156115a0573d6000803e3d6000fd5b50506003546040516340c10f1960e01b8152336004820152602481018590526001600160a01b0390911692506340c10f199150604401602060405180830381600087803b1580156115f057600080fd5b505af1158015611604573d6000803e3d6000fd5b505050506040513d601f19601f820116820180604052508101906116289190615c45565b5060408051338152602081018390527f0f6798a560793a54c3bcfe86a93cde1e73087d944c0ea20544137d4121396885910160405180910390a1604080516001600160a01b03881681523360208201529081018690527f7ea706dec78e375612714461b491c4cf6fe8be4ecc3abd8948c01e01378edd8d906060015b60405180910390a150600195945050505050565b60008054600160a01b900460ff16156117065760405162461bcd60e51b815260206004820152601060248201526f14185d5cd8589b194e881c185d5cd95960821b60448201526064016108c4565b600054600160a81b900460ff1661175c5760405162461bcd60e51b81526020600482015260266024820152600080516020615f16833981519152604482015265706f7369747360d01b60648201526084016108c4565b600061176733612270565b9050828110156117df5760405162461bcd60e51b815260206004820152602860248201527f557365722068617320636c61696d6564206d6f7265207468616e20686527732060448201527f656e7469746c656400000000000000000000000000000000000000000000000060648201526084016108c4565b600480546040516340c10f1960e01b81523392810192909252602482018590526001600160a01b0316906340c10f1990604401602060405180830381600087803b15801561182c57600080fd5b505af1158015611840573d6000803e3d6000fd5b505050506040513d601f19601f820116820180604052508101906118649190615c45565b5061187761187282856153d4565b6150df565b60408051338152602081018590527f47cee97cb7acd717b3c0aa1435d004cd5b3c8c57d70dbceb4e4458bbd60e39d4910160405180910390a150600192915050565b6000546001600160a01b031633146119015760405162461bcd60e51b81526020600482018190526024820152600080516020615ef683398151915260448201526064016108c4565b600280546001600160a01b0319166001600160a01b038316908117909155604080518181526008918101919091527f75736463436f696e000000000000000000000000000000000000000000000000606082015260208101919091527f6314c89e231542c0e7379a5606c8f0bee7eadfaf9885637a8eef5fb4fe078dbc90608001610b81565b60008054600160a01b900460ff16156119d55760405162461bcd60e51b815260206004820152601060248201526f14185d5cd8589b194e881c185d5cd95960821b60448201526064016108c4565b600054600160a81b900460ff16611a2b5760405162461bcd60e51b81526020600482015260266024820152600080516020615f16833981519152604482015265706f7369747360d01b60648201526084016108c4565b3360008181526009602052604090205460ff1680611a4d5750611a4d81611043565b611a995760405162461bcd60e51b815260206004820152601a60248201527f596f75206e65656420746f2062652077686974656c697374656400000000000060448201526064016108c4565b6002546040516370a0823160e01b815233600482015284916001600160a01b0316906370a082319060240160206040518083038186803b158015611adc57600080fd5b505afa158015611af0573d6000803e3d6000fd5b505050506040513d601f19601f82011682018060405250810190611b149190615c80565b1015611b6c5760405162461bcd60e51b815260206004820152602160248201527f557365722068617320696e73756666696369656e7420737461626c6520636f696044820152603760f91b60648201526084016108c4565b600254604051636eb1769f60e11b815233600482015230602482015284916001600160a01b03169063dd62ed3e9060440160206040518083038186803b158015611bb557600080fd5b505afa158015611bc9573d6000803e3d6000fd5b505050506040513d601f19601f82011682018060405250810190611bed9190615c80565b1015611c615760405162461bcd60e51b815260206004820152603a60248201527f5573657220686173206e6f7420617070726f76656420746865207661756c742060448201527f666f722073756666696369656e7420737461626c6520636f696e00000000000060648201526084016108c4565b6000611c6c84610a04565b905060008111611ce45760405162461bcd60e51b815260206004820152603a60248201527f54686520616d6f756e74206f6620616c6c6f7978204455524120636f696e207460448201527f6f20676574206973206e6f74206c6172676572207468616e203000000000000060648201526084016108c4565b600554600254611d03916001600160a01b0391821691339116876153e0565b6003546040516340c10f1960e01b8152336004820152602481018390526001600160a01b03909116906340c10f1990604401602060405180830381600087803b158015611d4f57600080fd5b505af1158015611d63573d6000803e3d6000fd5b505050506040513d601f19601f82011682018060405250810190611d879190615c45565b50600254604080516001600160a01b03909216825233602083015281018290527fa4f358c78f73b2049a06e0436c6728292334862a6fc2114f2de13f9cff58491f9060600160405180910390a160408051338152602081018390527f0f6798a560793a54c3bcfe86a93cde1e73087d944c0ea20544137d412139688591015b60405180910390a15060019392505050565b601454604080518082019091526012548152601354602082015260009190611e3f90615437565b611e499190615d42565b905090565b60008054600160a01b900460ff1615611e9c5760405162461bcd60e51b815260206004820152601060248201526f14185d5cd8589b194e881c185d5cd95960821b60448201526064016108c4565b600054600160a81b900460ff16611ef25760405162461bcd60e51b81526020600482015260266024820152600080516020615f16833981519152604482015265706f7369747360d01b60648201526084016108c4565b3360008181526009602052604090205460ff1680611f145750611f1481611043565b611f605760405162461bcd60e51b815260206004820152601a60248201527f596f75206e65656420746f2062652077686974656c697374656400000000000060448201526064016108c4565b6005546040516373f4047360e11b81526001600160a01b03868116600483015233602483015260448201869052600092169063e7e808e690606401602060405180830381600087803b158015611fb557600080fd5b505af1158015611fc9573d6000803e3d6000fd5b505050506040513d601f19601f82011682018060405250810190611fed9190615c80565b600554604051632142170760e11b81523360048201526001600160a01b039182166024820152604481018790529192508616906342842e0e90606401600060405180830381600087803b15801561204357600080fd5b505af1158015612057573d6000803e3d6000fd5b50506002546040516370a0823160e01b81523060048201528493506001600160a01b0390911691506370a082319060240160206040518083038186803b1580156120a057600080fd5b505afa1580156120b4573d6000803e3d6000fd5b505050506040513d601f19601f820116820180604052508101906120d89190615c80565b101561214c5760405162461bcd60e51b815260206004820152602e60248201527f546865207661756c7420646f6573206e6f74206861766520737566666963696560448201527f6e7420737461626c6520636f696e00000000000000000000000000000000000060648201526084016108c4565b6005546040517f196b5443000000000000000000000000000000000000000000000000000000008152336004820152602481018390526001600160a01b039091169063196b544390604401600060405180830381600087803b1580156121b157600080fd5b505af11580156121c5573d6000803e3d6000fd5b5050604080516001600160a01b03891681523360208201529081018790527fbd79f1f460e034518df15c5ee22bd948260e489c02fde00f9a0f423be08311e79250606001905060405180910390a1506001949350505050565b6000546001600160a01b031633146122665760405162461bcd60e51b81526020600482018190526024820152600080516020615ef683398151915260448201526064016108c4565b6113126000615474565b604080518082018252600080825260209182018190526001600160a01b0384168152600782528281208351808501909452805484526001015491830191909152906122ba81615437565b6001600160a01b0384166000908152600860205260409020546122dd9190615d42565b9392505050565b6000546001600160a01b0316331461232c5760405162461bcd60e51b81526020600482018190526024820152600080516020615ef683398151915260448201526064016108c4565b600d819055604080518181526017918101919091527f70657263656e746167654455524152657061796d656e740000000000000000006060820152602081018290527f272c29cfb1538e15f8105c58381747783d06b2021a4fcf849c274927396e1c3790608001610b81565b6000546001600160a01b031633146123e05760405162461bcd60e51b81526020600482018190526024820152600080516020615ef683398151915260448201526064016108c4565b600054600160a01b900460ff161561242d5760405162461bcd60e51b815260206004820152601060248201526f14185d5cd8589b194e881c185d5cd95960821b60448201526064016108c4565b6113126154c4565b60008054600160a01b900460ff16156124835760405162461bcd60e51b815260206004820152601060248201526f14185d5cd8589b194e881c185d5cd95960821b60448201526064016108c4565b600054600160a81b900460ff166124d95760405162461bcd60e51b81526020600482015260266024820152600080516020615f16833981519152604482015265706f7369747360d01b60648201526084016108c4565b3360008181526009602052604090205460ff16806124fb57506124fb81611043565b6125475760405162461bcd60e51b815260206004820152601a60248201527f596f75206e65656420746f2062652077686974656c697374656400000000000060448201526064016108c4565b6005546040516373f4047360e11b81526001600160a01b03868116600483015233602483015260448201869052600092169063e7e808e690606401602060405180830381600087803b15801561259c57600080fd5b505af11580156125b0573d6000803e3d6000fd5b505050506040513d601f19601f820116820180604052508101906125d49190615c80565b905060006125e182610a04565b9050600081116126595760405162461bcd60e51b815260206004820152603a60248201527f54686520616d6f756e74206f6620616c6c6f7978204455524120636f696e207460448201527f6f20676574206973206e6f74206c6172676572207468616e203000000000000060648201526084016108c4565b600554604051632142170760e11b81523360048201526001600160a01b03918216602482015260448101879052908716906342842e0e90606401600060405180830381600087803b1580156126ad57600080fd5b505af11580156126c1573d6000803e3d6000fd5b50506003546040516340c10f1960e01b8152306004820152602481018590526001600160a01b0390911692506340c10f199150604401602060405180830381600087803b15801561271157600080fd5b505af1158015612725573d6000803e3d6000fd5b505050506040513d601f19601f820116820180604052508101906127499190615c45565b50612754338261554c565b60408051308152602081018390527f0f6798a560793a54c3bcfe86a93cde1e73087d944c0ea20544137d4121396885910160405180910390a1604080516001600160a01b03881681523360208201529081018690527f7ea706dec78e375612714461b491c4cf6fe8be4ecc3abd8948c01e01378edd8d9060600160405180910390a160408051338152602081018390527febedb8b3c678666e7f36970bc8f57abf6d8fa2e828c0da91ea5b75bf68ed101a91016116a4565b6000546001600160a01b031633146128545760405162461bcd60e51b81526020600482018190526024820152600080516020615ef683398151915260448201526064016108c4565b600180546001600160a01b0319166001600160a01b038316908117909155604080518181526008918101919091527f756964546f6b656e000000000000000000000000000000000000000000000000606082015260208101919091527f6314c89e231542c0e7379a5606c8f0bee7eadfaf9885637a8eef5fb4fe078dbc90608001610b81565b600080546001600160a01b031633146129235760405162461bcd60e51b81526020600482018190526024820152600080516020615ef683398151915260448201526064016108c4565b600054600160a81b900460ff16156129a35760405162461bcd60e51b815260206004820152602a60248201527f5661756c742068617320616c726561647920737461727420616363657074696e60448201527f67206465706f736974730000000000000000000000000000000000000000000060648201526084016108c4565b60006129ad61465c565b905060008111612a255760405162461bcd60e51b815260206004820152602b60248201527f5661756c74206d757374206861766520706f7369746976652076616c7565206260448201527f65666f726520737461727400000000000000000000000000000000000000000060648201526084016108c4565b6003546001600160a01b03166340c10f1930612a54612a42615621565b610aa9612a4d61562f565b8790615102565b6040516001600160e01b031960e085901b1681526001600160a01b0390921660048301526024820152604401602060405180830381600087803b158015612a9a57600080fd5b505af1158015612aae573d6000803e3d6000fd5b505050506040513d601f19601f82011682018060405250810190612ad29190615c45565b5050600080547fffffffffffffffffffff00ffffffffffffffffffffffffffffffffffffffffff16600160a81b17905550600190565b6000546001600160a01b03163314612b505760405162461bcd60e51b81526020600482018190526024820152600080516020615ef683398151915260448201526064016108c4565b60008111612ba05760405162461bcd60e51b815260206004820152601b60248201527f4d757374206465706f736974206d6f7265207468616e207a65726f000000000060448201526064016108c4565b6005546040517f8f2da01d000000000000000000000000000000000000000000000000000000008152600481018390526001600160a01b0390911690638f2da01d90602401600060405180830381600087803b158015612bff57600080fd5b505af1158015612c13573d6000803e3d6000fd5b505050507fd483110686f79d1f5932d32add1024998649ddca927700b75bea458b4cb7cde681604051610b8191815260200190565b6000546001600160a01b03163314612c905760405162461bcd60e51b81526020600482018190526024820152600080516020615ef683398151915260448201526064016108c4565b600b819055604080518181526018918101919091527f70657263656e7461676544555241526564656d7074696f6e00000000000000006060820152602081018290527f272c29cfb1538e15f8105c58381747783d06b2021a4fcf849c274927396e1c3790608001610b81565b6000546001600160a01b03163314612d445760405162461bcd60e51b81526020600482018190526024820152600080516020615ef683398151915260448201526064016108c4565b6005546040517fe1f21c670000000000000000000000000000000000000000000000000000000081526001600160a01b0385811660048301528481166024830152604482018490529091169063e1f21c67906064015b600060405180830381600087803b158015612db457600080fd5b505af1158015612dc8573d6000803e3d6000fd5b50505050505050565b60008054600160a01b900460ff1615612e1f5760405162461bcd60e51b815260206004820152601060248201526f14185d5cd8589b194e881c185d5cd95960821b60448201526064016108c4565b600054600160a81b900460ff16612e755760405162461bcd60e51b81526020600482015260266024820152600080516020615f16833981519152604482015265706f7369747360d01b60648201526084016108c4565b612e7f338361554c565b600354612e97906001600160a01b03163330856153e0565b60408051338152602081018490527febedb8b3c678666e7f36970bc8f57abf6d8fa2e828c0da91ea5b75bf68ed101a9101611261565b6000546001600160a01b03163314612f155760405162461bcd60e51b81526020600482018190526024820152600080516020615ef683398151915260448201526064016108c4565b600054600160a01b900460ff16612f655760405162461bcd60e51b815260206004820152601460248201527314185d5cd8589b194e881b9bdd081c185d5cd95960621b60448201526064016108c4565b604051632142170760e11b81523060048201526001600160a01b038381166024830152604482018390528416906342842e0e90606401612d9a565b6000612faa61465c565b90506000612fc560115460105461563d90919063ffffffff16565b9050600061306a82613064600560009054906101000a90046001600160a01b03166001600160a01b031663b067b6256040518163ffffffff1660e01b815260040160206040518083038186803b15801561301e57600080fd5b505afa158015613032573d6000803e3d6000fd5b505050506040513d601f19601f820116820180604052508101906130569190615c80565b61305e615649565b9061563d565b906153d4565b600f5490915061307f84610aa9846064615102565b116130f25760405162461bcd60e51b815260206004820152602860248201527f7573646320746f6b656e206d757374207265616368206365727461696e20706560448201527f7263656e7461676500000000000000000000000000000000000000000000000060648201526084016108c4565b600554613121906001600160a01b031661310e84613064615649565b6002546001600160a01b0316919061511a565b6005546040517f2ded89c7000000000000000000000000000000000000000000000000000000008152600481018390526001600160a01b0390911690632ded89c790602401600060405180830381600087803b15801561318057600080fd5b505af1158015613194573d6000803e3d6000fd5b505050507f7a3794cf7d311106018524dfd41878138e4264f1bee18e53f1c180a1627fa2b881604051610d7d91815260200190565b60008054600160a01b900460ff16156132175760405162461bcd60e51b815260206004820152601060248201526f14185d5cd8589b194e881c185d5cd95960821b60448201526064016108c4565b600054600160a81b900460ff1661326d5760405162461bcd60e51b81526020600482015260266024820152600080516020615f16833981519152604482015265706f7369747360d01b60648201526084016108c4565b600480546040516370a0823160e01b8152339281019290925283916001600160a01b03909116906370a082319060240160206040518083038186803b1580156132b557600080fd5b505afa1580156132c9573d6000803e3d6000fd5b505050506040513d601f19601f820116820180604052508101906132ed9190615c80565b10156133615760405162461bcd60e51b815260206004820152603d60248201527f42616c616e6365206f662063726f776e20636f696e206d757374206265206c6160448201527f72676572207468616e2074686520616d6f756e7420746f20636c61696d00000060648201526084016108c4565b6005546001600160a01b031663d848b058338461337c6147c4565b600e546040516001600160e01b031960e087901b1681526001600160a01b039094166004850152602484019290925260448301526064820152608401600060405180830381600087803b1580156133d257600080fd5b505af11580156133e6573d6000803e3d6000fd5b505060048054604051632770a7eb60e21b81523392810192909252602482018690526001600160a01b03169250639dc29fac9150604401602060405180830381600087803b15801561343757600080fd5b505af115801561344b573d6000803e3d6000fd5b505050506040513d601f19601f8201168201806040525081019061346f9190615c45565b5060408051338152602081018490527f619caafabdd75649b302ba8419e48cccf64f37f1983ac4727cfb38b57703ffc99101611261565b6000546001600160a01b031633146134ee5760405162461bcd60e51b81526020600482018190526024820152600080516020615ef683398151915260448201526064016108c4565b6001600160a01b038116600090815260096020526040902054819060ff1615801561351f575061351d81611043565b155b61356b5760405162461bcd60e51b815260206004820152601360248201527f596f75206172652077686974656c69737465640000000000000000000000000060448201526064016108c4565b506001600160a01b03166000908152600960205260409020805460ff19166001179055565b6000546001600160a01b031633146135d85760405162461bcd60e51b81526020600482018190526024820152600080516020615ef683398151915260448201526064016108c4565b6001600160a01b038116600090815260096020526040902054819060ff1680613605575061360581611043565b6136515760405162461bcd60e51b815260206004820152601a60248201527f596f75206e65656420746f2062652077686974656c697374656400000000000060448201526064016108c4565b506001600160a01b03166000908152600960205260409020805460ff19169055565b6000546001600160a01b031633146136bb5760405162461bcd60e51b81526020600482018190526024820152600080516020615ef683398151915260448201526064016108c4565b600480546001600160a01b0319166001600160a01b03831690811790915560408051818152600f918101919091527f616c6c6f7978546f6b656e4352574e0000000000000000000000000000000000606082015260208101919091527f6314c89e231542c0e7379a5606c8f0bee7eadfaf9885637a8eef5fb4fe078dbc90608001610b81565b6000546001600160a01b031633146137895760405162461bcd60e51b81526020600482018190526024820152600080516020615ef683398151915260448201526064016108c4565b600380546001600160a01b0319166001600160a01b03831690811790915560408051818152600f918101919091527f616c6c6f7978546f6b656e445552410000000000000000000000000000000000606082015260208101919091527f6314c89e231542c0e7379a5606c8f0bee7eadfaf9885637a8eef5fb4fe078dbc90608001610b81565b60008054600160a01b900460ff161561385d5760405162461bcd60e51b815260206004820152601060248201526f14185d5cd8589b194e881c185d5cd95960821b60448201526064016108c4565b600054600160a81b900460ff166138b35760405162461bcd60e51b81526020600482015260266024820152600080516020615f16833981519152604482015265706f7369747360d01b60648201526084016108c4565b3360008181526009602052604090205460ff16806138d557506138d581611043565b6139215760405162461bcd60e51b815260206004820152601a60248201527f596f75206e65656420746f2062652077686974656c697374656400000000000060448201526064016108c4565b6003546040516370a0823160e01b815233600482015284916001600160a01b0316906370a082319060240160206040518083038186803b15801561396457600080fd5b505afa158015613978573d6000803e3d6000fd5b505050506040513d601f19601f8201168201806040525081019061399c9190615c80565b10156139f55760405162461bcd60e51b815260206004820152602260248201527f557365722068617320696e73756666696369656e7420616c6c6f797820636f69604482015261371760f11b60648201526084016108c4565b600354604051636eb1769f60e11b815233600482015230602482015284916001600160a01b03169063dd62ed3e9060440160206040518083038186803b158015613a3e57600080fd5b505afa158015613a52573d6000803e3d6000fd5b505050506040513d601f19601f82011682018060405250810190613a769190615c80565b1015613aea5760405162461bcd60e51b815260206004820152603a60248201527f5573657220686173206e6f7420617070726f76656420746865207661756c742060448201527f666f722073756666696369656e7420616c6c6f797820636f696e00000000000060648201526084016108c4565b6000613af584614863565b90506000613b136064610aa9600b548561510290919063ffffffff16565b905060008211613b8b5760405162461bcd60e51b815260206004820152603560248201527f54686520616d6f756e74206f6620737461626c6520636f696e20746f2067657460448201527f206973206e6f74206c6172676572207468616e2030000000000000000000000060648201526084016108c4565b6002546040516370a0823160e01b815230600482015283916001600160a01b0316906370a082319060240160206040518083038186803b158015613bce57600080fd5b505afa158015613be2573d6000803e3d6000fd5b505050506040513d601f19601f82011682018060405250810190613c069190615c80565b1015613c7a5760405162461bcd60e51b815260206004820152602e60248201527f546865207661756c7420646f6573206e6f74206861766520737566666963696560448201527f6e7420737461626c6520636f696e00000000000000000000000000000000000060648201526084016108c4565b600354604051632770a7eb60e21b8152336004820152602481018790526001600160a01b0390911690639dc29fac90604401602060405180830381600087803b158015613cc657600080fd5b505af1158015613cda573d6000803e3d6000fd5b505050506040513d601f19601f82011682018060405250810190613cfe9190615c45565b50613d0d3361310e84846153d4565b601054613d1a908261563d565b601055600354604080516001600160a01b03909216825233602083015281018690527f53fee901a59b4d2e659e450f8db17fc345e158fe408d2b39faf66d1f8c4a54fe9060600160405180910390a160408051338152602081018790527fcc16f5dbb4873280815c1ee09dbd06736cffcc184412cf7a71a0fdb75d397ca5910160405180910390a1506001949350505050565b6000546001600160a01b03163314613df55760405162461bcd60e51b81526020600482018190526024820152600080516020615ef683398151915260448201526064016108c4565b600e819055604080518181526015918101919091527f70657263656e746167654352574e4561726e696e6700000000000000000000006060820152602081018290527f272c29cfb1538e15f8105c58381747783d06b2021a4fcf849c274927396e1c3790608001610b81565b60008054600160a01b900460ff1615613eaf5760405162461bcd60e51b815260206004820152601060248201526f14185d5cd8589b194e881c185d5cd95960821b60448201526064016108c4565b600054600160a81b900460ff16613f055760405162461bcd60e51b81526020600482015260266024820152600080516020615f16833981519152604482015265706f7369747360d01b60648201526084016108c4565b3360008181526009602052604090205460ff1680613f275750613f2781611043565b613f735760405162461bcd60e51b815260206004820152601a60248201527f596f75206e65656420746f2062652077686974656c697374656400000000000060448201526064016108c4565b6002546040516370a0823160e01b815233600482015284916001600160a01b0316906370a082319060240160206040518083038186803b158015613fb657600080fd5b505afa158015613fca573d6000803e3d6000fd5b505050506040513d601f19601f82011682018060405250810190613fee9190615c80565b10156140465760405162461bcd60e51b815260206004820152602160248201527f557365722068617320696e73756666696369656e7420737461626c6520636f696044820152603760f91b60648201526084016108c4565b600254604051636eb1769f60e11b815233600482015230602482015284916001600160a01b03169063dd62ed3e9060440160206040518083038186803b15801561408f57600080fd5b505afa1580156140a3573d6000803e3d6000fd5b505050506040513d601f19601f820116820180604052508101906140c79190615c80565b101561413b5760405162461bcd60e51b815260206004820152603a60248201527f5573657220686173206e6f7420617070726f76656420746865207661756c742060448201527f666f722073756666696369656e7420737461626c6520636f696e00000000000060648201526084016108c4565b600061414684610a04565b9050600081116141be5760405162461bcd60e51b815260206004820152603a60248201527f54686520616d6f756e74206f6620616c6c6f7978204455524120636f696e207460448201527f6f20676574206973206e6f74206c6172676572207468616e203000000000000060648201526084016108c4565b6002546141d6906001600160a01b03163330876153e0565b6003546040516340c10f1960e01b8152306004820152602481018390526001600160a01b03909116906340c10f1990604401602060405180830381600087803b15801561422257600080fd5b505af1158015614236573d6000803e3d6000fd5b505050506040513d601f19601f8201168201806040525081019061425a9190615c45565b50614265338261554c565b600254604080516001600160a01b03909216825233602083015281018290527fa4f358c78f73b2049a06e0436c6728292334862a6fc2114f2de13f9cff58491f9060600160405180910390a160408051308152602081018390527f0f6798a560793a54c3bcfe86a93cde1e73087d944c0ea20544137d4121396885910160405180910390a160408051338152602081018390527febedb8b3c678666e7f36970bc8f57abf6d8fa2e828c0da91ea5b75bf68ed101a9101611e06565b6000546001600160a01b031633146143685760405162461bcd60e51b81526020600482018190526024820152600080516020615ef683398151915260448201526064016108c4565b600c819055604080518181526017918101919091527f70657263656e7461676544757261546f466964754665650000000000000000006060820152602081018290527f272c29cfb1538e15f8105c58381747783d06b2021a4fcf849c274927396e1c3790608001610b81565b6000546001600160a01b0316331461441c5760405162461bcd60e51b81526020600482018190526024820152600080516020615ef683398151915260448201526064016108c4565b600054600160a01b900460ff1661446c5760405162461bcd60e51b815260206004820152601460248201527314185d5cd8589b194e881b9bdd081c185d5cd95960621b60448201526064016108c4565b60035460405163f2fde38b60e01b81526001600160a01b0383811660048301529091169063f2fde38b90602401600060405180830381600087803b1580156144b357600080fd5b505af11580156144c7573d6000803e3d6000fd5b50506004805460405163f2fde38b60e01b81526001600160a01b03868116938201939093529116925063f2fde38b9150602401600060405180830381600087803b15801561451457600080fd5b505af1158015614528573d6000803e3d6000fd5b5050505050565b6000546001600160a01b031633146145775760405162461bcd60e51b81526020600482018190526024820152600080516020615ef683398151915260448201526064016108c4565b600054600160a01b900460ff166145c75760405162461bcd60e51b815260206004820152601460248201527314185d5cd8589b194e881b9bdd081c185d5cd95960621b60448201526064016108c4565b6040516370a0823160e01b81523060048201526000906001600160a01b038416906370a082319060240160206040518083038186803b15801561460957600080fd5b505afa15801561461d573d6000803e3d6000fd5b505050506040513d601f19601f820116820180604052508101906146419190615c80565b90506146576001600160a01b038416838361511a565b505050565b6000806146b0600560009054906101000a90046001600160a01b03166001600160a01b031663531d7dec6040518163ffffffff1660e01b815260040160206040518083038186803b15801561301e57600080fd5b905060006146cb60115460105461563d90919063ffffffff16565b90508082116147685760405162461bcd60e51b815260206004820152604360248201527f7468652076616c7565206f66207661756c74206973206e6f74206c617267657260448201527f207468616e20746865206665652c20736f6d657468696e672077656e7420777260648201527f6f6e670000000000000000000000000000000000000000000000000000000000608482015260a4016108c4565b6147bd81613064600560009054906101000a90046001600160a01b03166001600160a01b031663531d7dec6040518163ffffffff1660e01b815260040160206040518083038186803b15801561301e57600080fd5b9250505090565b60048054604080517f18160ddd0000000000000000000000000000000000000000000000000000000081529051600093611e49936001600160a01b0316926318160ddd9281830192602092829003018186803b15801561482357600080fd5b505afa158015614837573d6000803e3d6000fd5b505050506040513d601f19601f8201168201806040525081019061485b9190615c80565b61305e611e18565b600080600360009054906101000a90046001600160a01b03166001600160a01b03166318160ddd6040518163ffffffff1660e01b815260040160206040518083038186803b1580156148b457600080fd5b505afa1580156148c8573d6000803e3d6000fd5b505050506040513d601f19601f820116820180604052508101906148ec9190615c80565b905060006148f861465c565b9050610aaf82610aa98684615102565b6000546001600160a01b031633146149505760405162461bcd60e51b81526020600482018190526024820152600080516020615ef683398151915260448201526064016108c4565b600082116149a05760405162461bcd60e51b815260206004820152601860248201527f4d7573742073656c6c206d6f7265207468616e207a65726f000000000000000060448201526064016108c4565b600554600d546040517f93af90a900000000000000000000000000000000000000000000000000000000815260048101869052602481018590526001600160a01b03848116604483015260648201929092529116906393af90a990608401600060405180830381600087803b158015614a1857600080fd5b505af1158015614a2c573d6000803e3d6000fd5b505050507fc3085fd698c0021cf2ad330617df928819e049637665217c5e7757452f991d3182604051610d7d91815260200190565b60008054600160a01b900460ff1615614aaf5760405162461bcd60e51b815260206004820152601060248201526f14185d5cd8589b194e881c185d5cd95960821b60448201526064016108c4565b600054600160a81b900460ff16614b055760405162461bcd60e51b81526020600482015260266024820152600080516020615f16833981519152604482015265706f7369747360d01b60648201526084016108c4565b3360008181526009602052604090205460ff1680614b275750614b2781611043565b614b735760405162461bcd60e51b815260206004820152601a60248201527f596f75206e65656420746f2062652077686974656c697374656400000000000060448201526064016108c4565b6003546040516370a0823160e01b815233600482015284916001600160a01b0316906370a082319060240160206040518083038186803b158015614bb657600080fd5b505afa158015614bca573d6000803e3d6000fd5b505050506040513d601f19601f82011682018060405250810190614bee9190615c80565b1015614c475760405162461bcd60e51b815260206004820152602260248201527f557365722068617320696e73756666696369656e7420616c6c6f797820636f69604482015261371760f11b60648201526084016108c4565b600354604051636eb1769f60e11b815233600482015230602482015284916001600160a01b03169063dd62ed3e9060440160206040518083038186803b158015614c9057600080fd5b505afa158015614ca4573d6000803e3d6000fd5b505050506040513d601f19601f82011682018060405250810190614cc89190615c80565b1015614d3c5760405162461bcd60e51b815260206004820152603a60248201527f5573657220686173206e6f7420617070726f76656420746865207661756c742060448201527f666f722073756666696369656e7420616c6c6f797820636f696e00000000000060648201526084016108c4565b6000614d4784614863565b90506000614d656064610aa9600c548561510290919063ffffffff16565b90506000614d7383836153d4565b905060008111614deb5760405162461bcd60e51b815260206004820152603560248201527f54686520616d6f756e74206f6620757364632076616c7565206f66204649445560448201527f206973206e6f74206c6172676572207468616e2030000000000000000000000060648201526084016108c4565b600354604051632770a7eb60e21b8152336004820152602481018890526001600160a01b0390911690639dc29fac90604401602060405180830381600087803b158015614e3757600080fd5b505af1158015614e4b573d6000803e3d6000fd5b505050506040513d601f19601f82011682018060405250810190614e6f9190615c45565b50600554600254614e8d916001600160a01b0391821691168361511a565b601154614e9a908361563d565b6011556005546040517fd0791bbe000000000000000000000000000000000000000000000000000000008152600481018390523360248201526001600160a01b039091169063d0791bbe90604401600060405180830381600087803b158015614f0257600080fd5b505af1158015614f16573d6000803e3d6000fd5b505050507fd483110686f79d1f5932d32add1024998649ddca927700b75bea458b4cb7cde681604051614f4b91815260200190565b60405180910390a1600354604080516001600160a01b03909216825233602083015281018790527f53fee901a59b4d2e659e450f8db17fc345e158fe408d2b39faf66d1f8c4a54fe9060600160405180910390a160408051338152602081018890527fcc16f5dbb4873280815c1ee09dbd06736cffcc184412cf7a71a0fdb75d397ca5910160405180910390a150600195945050505050565b6000546001600160a01b0316331461502c5760405162461bcd60e51b81526020600482018190526024820152600080516020615ef683398151915260448201526064016108c4565b6001600160a01b0381166150a85760405162461bcd60e51b815260206004820152602660248201527f4f776e61626c653a206e6577206f776e657220697320746865207a65726f206160448201527f646472657373000000000000000000000000000000000000000000000000000060648201526084016108c4565b6150b181615474565b50565b6001600160a01b03811660009081526009602052604081205460ff1680610c285750610c2882611043565b6150e76156c5565b6150f081615752565b33600090815260086020526040902055565b60006122dd8284615e67565b60006122dd8284615d5a565b6040516001600160a01b0383166024820152604481018290526146579084907fa9059cbb00000000000000000000000000000000000000000000000000000000906064015b60408051601f198184030181529190526020810180517bffffffffffffffffffffffffffffffffffffffffffffffffffffffff166001600160e01b0319909316929092179091526157b6565b604080518082018252600080825260209182018190526001600160a01b0385168152600782528290208251808401909352805483526001015490820152819051101561525f5760405162461bcd60e51b815260206004820152602660248201527f557365722068617320696e73756666696369656e74206475726120636f696e2060448201527f7374616b6564000000000000000000000000000000000000000000000000000060648201526084016108c4565b6001600160a01b0382166000908152600760205260409020546152a4576152a4826001600160a01b03166000908152600660205260409020805460ff19166001179055565b6001600160a01b03821660009081526007602052604090206152c790839061589b565b6040805180820182526001600160a01b03841660009081526007602052919091205481906152f590846153d4565b8152426020918201526001600160a01b0384166000908152600782526040812083518155929091015160019092019190915561533390828180615906565b5050565b600054600160a01b900460ff166153875760405162461bcd60e51b815260206004820152601460248201527314185d5cd8589b194e881b9bdd081c185d5cd95960621b60448201526064016108c4565b6000805460ff60a01b191690557f5db9ee0a495bf2e6ff9c91a7834c1ba4fdd244a5e8aa4e537bd38aeae4b073aa335b6040516001600160a01b03909116815260200160405180910390a1565b60006122dd8284615e86565b6040516001600160a01b03808516602483015283166044820152606481018290526154319085907f23b872dd000000000000000000000000000000000000000000000000000000009060840161515f565b50505050565b6000610c286301e13380610aa96064610aa9600a5461546e6154668960200151426153d490919063ffffffff16565b895190615102565b90615102565b600080546001600160a01b038381166001600160a01b0319831681178455604051919092169283917f8be0079c531659141344cd1fd0a4f28419497f9722a3daafe3b4186f6b6457e09190a35050565b600054600160a01b900460ff16156155115760405162461bcd60e51b815260206004820152601060248201526f14185d5cd8589b194e881c185d5cd95960821b60448201526064016108c4565b6000805460ff60a01b1916600160a01b1790557f62e78cea01bee320cd4e420270b5ea74000d11b0c9f74754ebdbfc544b05a2586153b73390565b6001600160a01b03821660009081526007602052604090205461559157615591826001600160a01b03166000908152600660205260409020805460ff19166001179055565b6001600160a01b03821660009081526007602052604090206155b490839061589b565b6040805180820182526001600160a01b03841660009081526007602052919091205481906155e2908461563d565b8152426020918201526001600160a01b038416600090815260078252604081208351815592909101516001909201919091556153339082908080615906565b6000611e496006600a615dbf565b6000611e496012600a615dbf565b60006122dd8284615d42565b6002546040516370a0823160e01b81523060048201526000916001600160a01b0316906370a082319060240160206040518083038186803b15801561568d57600080fd5b505afa1580156156a1573d6000803e3d6000fd5b505050506040513d601f19601f82011682018060405250810190611e499190615c80565b3360009081526007602052604090205461570157615701336001600160a01b03166000908152600660205260409020805460ff19166001179055565b33600081815260076020526040902061571a919061589b565b604080518082018252336000818152600760208181529482208054855242868601908152939092529093529051825551600190910155565b336000908152600860205260408120548190831161578b573360009081526008602052604090205461578490846153d4565b90506157a9565b336000908152600860205260409020546157a69084906153d4565b91505b6146576000808484615906565b600061580b826040518060400160405280602081526020017f5361666545524332303a206c6f772d6c6576656c2063616c6c206661696c6564815250856001600160a01b031661598a9092919063ffffffff16565b80519091501561465757808060200190518101906158299190615c45565b6146575760405162461bcd60e51b815260206004820152602a60248201527f5361666545524332303a204552433230206f7065726174696f6e20646964206e60448201527f6f7420737563636565640000000000000000000000000000000000000000000060648201526084016108c4565b6040805180820190915281548152600182015460208201526000906158bf90615437565b6001600160a01b0384166000908152600860205260409020549091506158e5908261563d565b6001600160a01b039093166000908152600860205260409020929092555050565b604080518082019091526012548152601354602082015260009061592990615437565b601454909150615939908261563d565b601481905561594e908390613064908661563d565b601455604080518082019091526012548190615970908790613064908a61563d565b815242602091820152815160125501516013555050505050565b6060610aaf8484600085856001600160a01b0385163b6159ec5760405162461bcd60e51b815260206004820152601d60248201527f416464726573733a2063616c6c20746f206e6f6e2d636f6e747261637400000060448201526064016108c4565b600080866001600160a01b03168587604051615a089190615cf3565b60006040518083038185875af1925050503d8060008114615a45576040519150601f19603f3d011682016040523d82523d6000602084013e615a4a565b606091505b5091509150615a5a828286615a65565b979650505050505050565b60608315615a745750816122dd565b825115615a845782518084602001fd5b8160405162461bcd60e51b81526004016108c49190615d0f565b80356001600160a01b038116811461126d57600080fd5b600060208284031215615ac757600080fd5b6122dd82615a9e565b60008060408385031215615ae357600080fd5b615aec83615a9e565b9150615afa60208401615a9e565b90509250929050565b600080600060608486031215615b1857600080fd5b615b2184615a9e565b9250615b2f60208501615a9e565b9150604084013590509250925092565b60008060008060808587031215615b5557600080fd5b615b5e85615a9e565b9350615b6c60208601615a9e565b925060408501359150606085013567ffffffffffffffff80821115615b9057600080fd5b818701915087601f830112615ba457600080fd5b813581811115615bb657615bb6615edf565b604051601f8201601f19908116603f01168101908382118183101715615bde57615bde615edf565b816040528281528a6020848701011115615bf757600080fd5b82602086016020830137600060208483010152809550505050505092959194509250565b60008060408385031215615c2e57600080fd5b615c3783615a9e565b946020939093013593505050565b600060208284031215615c5757600080fd5b815180151581146122dd57600080fd5b600060208284031215615c7957600080fd5b5035919050565b600060208284031215615c9257600080fd5b5051919050565b600080600060608486031215615cae57600080fd5b83359250615b2f60208501615a9e565b600080600060608486031215615cd357600080fd5b8335925060208401359150615cea60408501615a9e565b90509250925092565b60008251615d05818460208701615e9d565b9190910192915050565b6020815260008251806020840152615d2e816040850160208701615e9d565b601f01601f19169190910160400192915050565b60008219821115615d5557615d55615ec9565b500190565b600082615d7757634e487b7160e01b600052601260045260246000fd5b500490565b600181815b80851115615db7578160001904821115615d9d57615d9d615ec9565b80851615615daa57918102915b93841c9390800290615d81565b509250929050565b60006122dd8383600082615dd557506001610c28565b81615de257506000610c28565b8160018114615df85760028114615e0257615e1e565b6001915050610c28565b60ff841115615e1357615e13615ec9565b50506001821b610c28565b5060208310610133831016604e8410600b8410161715615e41575081810a610c28565b615e4b8383615d7c565b8060001904821115615e5f57615e5f615ec9565b029392505050565b6000816000190483118215151615615e8157615e81615ec9565b500290565b600082821015615e9857615e98615ec9565b500390565b60005b83811015615eb8578181015183820152602001615ea0565b838111156154315750506000910152565b634e487b7160e01b600052601160045260246000fd5b634e487b7160e01b600052604160045260246000fdfe4f776e61626c653a2063616c6c6572206973206e6f7420746865206f776e65725661756c7420686173206e6f7420737461727420616363657074696e67206465a264697066735822122045e78ec366229cc2cb58a6ea54eacafd5ce9f69610ba995b167ab0aa10acb2c664736f6c63430008070033",
  "devdoc": {
    "author": "AlloyX",
    "kind": "dev",
    "methods": {
      "addWhitelistedUser(address)": {
        "params": {
          "_addressToWhitelist": "The address to whitelist."
        }
      },
      "alloyxDURAToUSDC(uint256)": {
        "params": {
          "_amount": "the amount of DURA token to convert to usdc"
        }
      },
      "approveDelegacy(address,address,uint256)": {
        "params": {
          "_account": "the account the delegacy going to approve",
          "_amount": "the amount the delegacy going to approve",
          "_tokenAddress": "the leftover reward the staker owns"
        }
      },
      "changeAlloyxCRWNAddress(address)": {
        "params": {
          "_alloyxAddress": "the address to change to"
        }
      },
      "changeAlloyxDURAAddress(address)": {
        "params": {
          "_alloyxAddress": "the address to change to"
        }
      },
      "changeGoldfinchDelegacyAddress(address)": {
        "params": {
          "_goldfinchDelegacy": "the address to change to"
        }
      },
      "changeUIDAddress(address)": {
        "params": {
          "_uidAddress": "the address to change to"
        }
      },
      "changeUSDCAddress(address)": {
        "params": {
          "_usdcAddress": "the address to change to"
        }
      },
      "claimAlloyxCRWN(uint256)": {
        "params": {
          "_amount": "the amount to claim"
        }
      },
      "claimReward(uint256)": {
        "params": {
          "_amount": "the amount to claim"
        }
      },
      "claimableCRWNToken(address)": {
        "params": {
          "_receiver": "the address of receiver"
        }
      },
      "depositAlloyxDURATokens(uint256)": {
        "params": {
          "_tokenAmount": "Number of Alloy Tokens"
        }
      },
      "depositAlloyxDURATokensForFIDU(uint256)": {
        "params": {
          "_tokenAmount": "Number of Alloy Tokens"
        }
      },
      "depositNFTTokenForDura(address,uint256)": {
        "params": {
          "_tokenAddress": "NFT Address",
          "_tokenID": "NFT ID"
        }
      },
      "depositNFTTokenForDuraWithStake(address,uint256)": {
        "params": {
          "_tokenAddress": "NFT Address",
          "_tokenID": "NFT ID"
        }
      },
      "depositNFTTokenForUsdc(address,uint256)": {
        "params": {
          "_tokenAddress": "NFT Address",
          "_tokenID": "NFT ID"
        }
      },
      "depositUSDCCoin(uint256)": {
        "params": {
          "_tokenAmount": "Number of stable coin"
        }
      },
      "depositUSDCCoinWithStake(uint256)": {
        "params": {
          "_tokenAmount": "Number of stable coin"
        }
      },
      "getRewardTokenCount(uint256)": {
        "params": {
          "_amount": "the amount to claim"
        }
      },
      "hasWhitelistedUID(address)": {
        "params": {
          "_userAddress": "The address to verify."
        }
      },
      "isStakeholder(address)": {
        "params": {
          "_address": "The address to verify."
        },
        "returns": {
          "_0": "bool Whether the address is a stakeholder, and if so its position in the stakeholders array."
        }
      },
      "isUserWhitelisted(address)": {
        "params": {
          "_whitelistedAddress": "The address to whitelist."
        }
      },
      "migrateERC20(address,address)": {
        "params": {
          "_to": "the address to transfer tokens to",
          "_tokenAddress": "the token address to migrate"
        }
      },
      "migrateERC721(address,address,uint256)": {
        "params": {
          "_toAddress": "the address to transfer tokens to",
          "_tokenAddress": "the address of ERC721 token",
          "_tokenId": "the token ID to transfer"
        }
      },
      "onERC721Received(address,address,uint256,bytes)": {
        "details": "See {IERC721Receiver-onERC721Received}. Always returns `IERC721Receiver.onERC721Received.selector`."
      },
      "owner()": {
        "details": "Returns the address of the current owner."
      },
      "paused()": {
        "details": "Returns true if the contract is paused, and false otherwise."
      },
      "purchaseJuniorToken(uint256,address,uint256)": {
        "params": {
          "_amount": "the amount of usdc to purchase by",
          "_poolAddress": "the pool address to buy from",
          "_tranche": "the tranch id"
        }
      },
      "purchaseSeniorTokens(uint256)": {
        "params": {
          "_amount": "the amount of usdc to purchase by"
        }
      },
      "removeWhitelistedUser(address)": {
        "params": {
          "_addressToDeWhitelist": "The address to de-whitelist."
        }
      },
      "renounceOwnership()": {
        "details": "Leaves the contract without owner. It will not be possible to call `onlyOwner` functions anymore. Can only be called by the current owner. NOTE: Renouncing ownership will leave the contract without an owner, thereby removing any functionality that is only available to the owner."
      },
      "sellJuniorToken(uint256,uint256,address)": {
        "params": {
          "_amount": "the amount to withdraw",
          "_poolAddress": "the pool address to withdraw from",
          "_tokenId": "the ID of token to sell"
        }
      },
      "sellSeniorTokens(uint256)": {
        "params": {
          "_amount": "the amount of fidu to sell"
        }
      },
      "setPercentageCRWNEarning(uint256)": {
        "params": {
          "_percentageCRWNEarning": "the earning fee for redeeming CRWN token in percentage in terms of gfi"
        }
      },
      "setPercentageDURARedemption(uint256)": {
        "params": {
          "_percentageDURARedemption": "the redemption fee for DURA token in percentage"
        }
      },
      "setPercentageDURARepayment(uint256)": {
        "params": {
          "_percentageDURARepayment": "the repayment fee for DURA token in percentage"
        }
      },
      "setPercentageDuraToFiduFee(uint256)": {
        "params": {
          "_percentageDuraToFiduFee": "the fee for DURA token to exchange to FIDU in percentage"
        }
      },
      "setPercentageRewardPerYear(uint256)": {
        "params": {
          "_percentageRewardPerYear": "the reward per year in percentage"
        }
      },
      "stake(uint256)": {
        "params": {
          "_amount": "the amount the message sender intending to stake in"
        }
      },
      "stakeOf(address)": {
        "params": {
          "_stakeholder": "The stakeholder to retrieve the stake for."
        },
        "returns": {
          "_0": "Stake The amount staked and the time since when it's staked."
        }
      },
      "transferAlloyxOwnership(address)": {
        "params": {
          "_to": "the address to transfer ownership to"
        }
      },
      "transferOwnership(address)": {
        "details": "Transfers ownership of the contract to a new account (`newOwner`). Can only be called by the current owner."
      },
      "transferRedemptionFee(address)": {
        "params": {
          "_to": "the address to transfer to"
        }
      },
      "unstake(uint256)": {
        "params": {
          "_amount": "the amount the message sender intending to unstake"
        }
      },
      "usdcToAlloyxDURA(uint256)": {
        "params": {
          "_amount": "the amount of usdc to convert to DURA token"
        }
      }
    },
    "title": "AlloyX Vault",
    "version": 1
  },
  "userdoc": {
    "kind": "user",
    "methods": {
      "addWhitelistedUser(address)": {
        "notice": "Add whitelist address"
      },
      "alloyxDURAToUSDC(uint256)": {
        "notice": "Convert Alloyx DURA to USDC amount"
      },
      "approveDelegacy(address,address,uint256)": {
        "notice": "Request the delegacy to approve certain tokens on certain account for certain amount, it is most used for buying the goldfinch tokens, they need to be able to transfer usdc to them"
      },
      "changeAlloyxCRWNAddress(address)": {
        "notice": "Change CRWN token address"
      },
      "changeAlloyxDURAAddress(address)": {
        "notice": "Change DURA token address"
      },
      "changeGoldfinchDelegacyAddress(address)": {
        "notice": "Change Goldfinch delegacy address"
      },
      "changeUIDAddress(address)": {
        "notice": "Change UID address"
      },
      "changeUSDCAddress(address)": {
        "notice": "Change USDC address"
      },
      "claimAllAlloyxCRWN()": {
        "notice": "Claim all alloy CRWN tokens of the message sender, the method will mint the CRWN token of the claimable amount to message sender, and clear the past rewards to zero"
      },
      "claimAlloyxCRWN(uint256)": {
        "notice": "Claim certain amount of alloy CRWN tokens of the message sender, the method will mint the CRWN token of the claimable amount to message sender, and clear the past rewards to the remainder"
      },
      "claimReward(uint256)": {
        "notice": "Claim certain amount of reward token based on alloy CRWN token, the method will burn the CRWN token of the amount of message sender, and transfer reward token to message sender"
      },
      "claimableCRWNToken(address)": {
        "notice": "Claimable CRWN token amount of an address"
      },
      "depositAlloyxDURATokens(uint256)": {
        "notice": "An Alloy token holder can deposit their tokens and redeem them for USDC"
      },
      "depositAlloyxDURATokensForFIDU(uint256)": {
        "notice": "An Alloy token holder can deposit their tokens and buy FIDU"
      },
      "depositNFTTokenForDura(address,uint256)": {
        "notice": "A Junior token holder can deposit their NFT for dura"
      },
      "depositNFTTokenForDuraWithStake(address,uint256)": {
        "notice": "A Junior token holder can deposit their NFT for dura with stake"
      },
      "depositNFTTokenForUsdc(address,uint256)": {
        "notice": "A Junior token holder can deposit their NFT for stable coin"
      },
      "depositUSDCCoin(uint256)": {
        "notice": "A Liquidity Provider can deposit supported stable coins for Alloy Tokens"
      },
      "depositUSDCCoinWithStake(uint256)": {
        "notice": "A Liquidity Provider can deposit supported stable coins for Alloy Tokens"
      },
      "getAlloyxDURATokenBalanceInUSDC()": {
        "notice": "Alloy DURA Token Value in terms of USDC"
      },
      "getRewardTokenCount(uint256)": {
        "notice": "Get reward token count if the amount of CRWN tokens are claimed"
      },
      "hasWhitelistedUID(address)": {
        "notice": "If address is not whitelisted by goldfinch(non-US entity or non-US individual)"
      },
      "isStakeholder(address)": {
        "notice": "Check if an address is a stakeholder."
      },
      "isUserWhitelisted(address)": {
        "notice": "Check whether user is whitelisted"
      },
      "migrateERC20(address,address)": {
        "notice": "Migrate certain ERC20 to an address"
      },
      "migrateERC721(address,address,uint256)": {
        "notice": "Migrate certain ERC721 of ID to an address"
      },
      "pause()": {
        "notice": "Pause all operations except migration of tokens"
      },
      "purchaseJuniorToken(uint256,address,uint256)": {
        "notice": "Purchase junior token through delegacy to get pooltoken inside the delegacy"
      },
      "purchaseJuniorTokenBeyondUsdcThreshold()": {
        "notice": "Purchase junior token through delegacy to get pooltoken inside the delegacy"
      },
      "purchaseSeniorTokens(uint256)": {
        "notice": "Purchase senior token through delegacy to get fidu inside the delegacy"
      },
      "removeWhitelistedUser(address)": {
        "notice": "Remove whitelist address"
      },
      "sellJuniorToken(uint256,uint256,address)": {
        "notice": "Sell junior token through delegacy to get repayments"
      },
      "sellSeniorTokens(uint256)": {
        "notice": "Sell senior token through delegacy to redeem fidu"
      },
      "setPercentageCRWNEarning(uint256)": {
        "notice": "Set percentageCRWNEarning which is the earning fee for redeeming CRWN token in percentage in terms of gfi"
      },
      "setPercentageDURARedemption(uint256)": {
        "notice": "Set percentageDURARedemption which is the redemption fee for DURA token in percentage"
      },
      "setPercentageDURARepayment(uint256)": {
        "notice": "Set percentageDURARepayment which is the repayment fee for DURA token in percentage"
      },
      "setPercentageDuraToFiduFee(uint256)": {
        "notice": "Set percentageDuraToFiduFee which is the fee for DURA token to exchange to FIDU in percentage"
      },
      "setPercentageRewardPerYear(uint256)": {
        "notice": "Set percentageRewardPerYear which is the reward per year in percentage"
      },
      "stake(uint256)": {
        "notice": "Stake more into the vault, which will cause the user's DURA token to transfer to vault"
      },
      "stakeOf(address)": {
        "notice": "Retrieve the stake for a stakeholder."
      },
      "startVaultOperation()": {
        "notice": "Initialize by minting the alloy brown tokens to owner"
      },
      "totalClaimableAndClaimedCRWNToken()": {
        "notice": "Total claimable and claimed CRWN tokens of all stakeholders"
      },
      "totalClaimableCRWNToken()": {
        "notice": "Total claimable CRWN tokens of all stakeholders"
      },
      "transferAlloyxOwnership(address)": {
        "notice": "Transfer the ownership of alloy CRWN and DURA token contract to some other address"
      },
      "transferRedemptionFee(address)": {
        "notice": "Transfer redemption fee to some other address"
      },
      "unpause()": {
        "notice": "Unpause all operations"
      },
      "unstake(uint256)": {
        "notice": "Unstake some from the vault, which will cause the vault to transfer DURA token back to message sender"
      },
      "usdcToAlloyxDURA(uint256)": {
        "notice": "Convert USDC Amount to Alloyx DURA"
      }
    },
    "notice": "Initial vault for AlloyX. This vault holds loan tokens generated on Goldfinch and emits AlloyTokens when a liquidity provider deposits supported stable coins.",
    "version": 1
  },
  "storageLayout": {
    "storage": [
      {
        "astId": 7,
        "contract": "contracts/alloyx/AlloyxVault.sol:AlloyxVault",
        "label": "_owner",
        "offset": 0,
        "slot": "0",
        "type": "t_address"
      },
      {
        "astId": 122,
        "contract": "contracts/alloyx/AlloyxVault.sol:AlloyxVault",
        "label": "_paused",
        "offset": 20,
        "slot": "0",
        "type": "t_bool"
      },
      {
        "astId": 5131,
        "contract": "contracts/alloyx/AlloyxVault.sol:AlloyxVault",
        "label": "vaultStarted",
        "offset": 21,
        "slot": "0",
        "type": "t_bool"
      },
      {
        "astId": 5134,
        "contract": "contracts/alloyx/AlloyxVault.sol:AlloyxVault",
        "label": "uidToken",
        "offset": 0,
        "slot": "1",
        "type": "t_contract(IERC1155)1414"
      },
      {
        "astId": 5137,
        "contract": "contracts/alloyx/AlloyxVault.sol:AlloyxVault",
        "label": "usdcCoin",
        "offset": 0,
        "slot": "2",
        "type": "t_contract(IERC20)2136"
      },
      {
        "astId": 5140,
        "contract": "contracts/alloyx/AlloyxVault.sol:AlloyxVault",
        "label": "alloyxTokenDURA",
        "offset": 0,
        "slot": "3",
        "type": "t_contract(AlloyxTokenDURA)5092"
      },
      {
        "astId": 5143,
        "contract": "contracts/alloyx/AlloyxVault.sol:AlloyxVault",
        "label": "alloyxTokenCRWN",
        "offset": 0,
        "slot": "4",
        "type": "t_contract(AlloyxTokenCRWN)5029"
      },
      {
        "astId": 5146,
        "contract": "contracts/alloyx/AlloyxVault.sol:AlloyxVault",
        "label": "goldfinchDelegacy",
        "offset": 0,
        "slot": "5",
        "type": "t_contract(IGoldfinchDelegacy)9063"
      },
      {
        "astId": 5150,
        "contract": "contracts/alloyx/AlloyxVault.sol:AlloyxVault",
        "label": "stakeholderMap",
        "offset": 0,
        "slot": "6",
        "type": "t_mapping(t_address,t_bool)"
      },
      {
        "astId": 5155,
        "contract": "contracts/alloyx/AlloyxVault.sol:AlloyxVault",
        "label": "stakesMapping",
        "offset": 0,
        "slot": "7",
        "type": "t_mapping(t_address,t_struct(StakeInfo)5129_storage)"
      },
      {
        "astId": 5159,
        "contract": "contracts/alloyx/AlloyxVault.sol:AlloyxVault",
        "label": "pastRedeemableReward",
        "offset": 0,
        "slot": "8",
        "type": "t_mapping(t_address,t_uint256)"
      },
      {
        "astId": 5163,
        "contract": "contracts/alloyx/AlloyxVault.sol:AlloyxVault",
        "label": "whitelistedAddresses",
        "offset": 0,
        "slot": "9",
        "type": "t_mapping(t_address,t_bool)"
      },
      {
        "astId": 5166,
        "contract": "contracts/alloyx/AlloyxVault.sol:AlloyxVault",
        "label": "percentageRewardPerYear",
        "offset": 0,
        "slot": "10",
        "type": "t_uint256"
      },
      {
        "astId": 5169,
        "contract": "contracts/alloyx/AlloyxVault.sol:AlloyxVault",
        "label": "percentageDURARedemption",
        "offset": 0,
        "slot": "11",
        "type": "t_uint256"
      },
      {
        "astId": 5172,
        "contract": "contracts/alloyx/AlloyxVault.sol:AlloyxVault",
        "label": "percentageDuraToFiduFee",
        "offset": 0,
        "slot": "12",
        "type": "t_uint256"
      },
      {
        "astId": 5175,
        "contract": "contracts/alloyx/AlloyxVault.sol:AlloyxVault",
        "label": "percentageDURARepayment",
        "offset": 0,
        "slot": "13",
        "type": "t_uint256"
      },
      {
        "astId": 5178,
        "contract": "contracts/alloyx/AlloyxVault.sol:AlloyxVault",
        "label": "percentageCRWNEarning",
        "offset": 0,
        "slot": "14",
        "type": "t_uint256"
      },
      {
        "astId": 5181,
        "contract": "contracts/alloyx/AlloyxVault.sol:AlloyxVault",
        "label": "percentageInvestJunior",
        "offset": 0,
        "slot": "15",
        "type": "t_uint256"
      },
      {
        "astId": 5184,
        "contract": "contracts/alloyx/AlloyxVault.sol:AlloyxVault",
        "label": "redemptionFee",
        "offset": 0,
        "slot": "16",
        "type": "t_uint256"
      },
      {
        "astId": 5187,
        "contract": "contracts/alloyx/AlloyxVault.sol:AlloyxVault",
        "label": "duraToFiduFee",
        "offset": 0,
        "slot": "17",
        "type": "t_uint256"
      },
      {
        "astId": 5190,
        "contract": "contracts/alloyx/AlloyxVault.sol:AlloyxVault",
        "label": "totalActiveStake",
        "offset": 0,
        "slot": "18",
        "type": "t_struct(StakeInfo)5129_storage"
      },
      {
        "astId": 5192,
        "contract": "contracts/alloyx/AlloyxVault.sol:AlloyxVault",
        "label": "totalPastRedeemableReward",
        "offset": 0,
        "slot": "20",
        "type": "t_uint256"
      }
    ],
    "types": {
      "t_address": {
        "encoding": "inplace",
        "label": "address",
        "numberOfBytes": "20"
      },
      "t_bool": {
        "encoding": "inplace",
        "label": "bool",
        "numberOfBytes": "1"
      },
      "t_contract(AlloyxTokenCRWN)5029": {
        "encoding": "inplace",
        "label": "contract AlloyxTokenCRWN",
        "numberOfBytes": "20"
      },
      "t_contract(AlloyxTokenDURA)5092": {
        "encoding": "inplace",
        "label": "contract AlloyxTokenDURA",
        "numberOfBytes": "20"
      },
      "t_contract(IERC1155)1414": {
        "encoding": "inplace",
        "label": "contract IERC1155",
        "numberOfBytes": "20"
      },
      "t_contract(IERC20)2136": {
        "encoding": "inplace",
        "label": "contract IERC20",
        "numberOfBytes": "20"
      },
      "t_contract(IGoldfinchDelegacy)9063": {
        "encoding": "inplace",
        "label": "contract IGoldfinchDelegacy",
        "numberOfBytes": "20"
      },
      "t_mapping(t_address,t_bool)": {
        "encoding": "mapping",
        "key": "t_address",
        "label": "mapping(address => bool)",
        "numberOfBytes": "32",
        "value": "t_bool"
      },
      "t_mapping(t_address,t_struct(StakeInfo)5129_storage)": {
        "encoding": "mapping",
        "key": "t_address",
        "label": "mapping(address => struct AlloyxVault.StakeInfo)",
        "numberOfBytes": "32",
        "value": "t_struct(StakeInfo)5129_storage"
      },
      "t_mapping(t_address,t_uint256)": {
        "encoding": "mapping",
        "key": "t_address",
        "label": "mapping(address => uint256)",
        "numberOfBytes": "32",
        "value": "t_uint256"
      },
      "t_struct(StakeInfo)5129_storage": {
        "encoding": "inplace",
        "label": "struct AlloyxVault.StakeInfo",
        "members": [
          {
            "astId": 5126,
            "contract": "contracts/alloyx/AlloyxVault.sol:AlloyxVault",
            "label": "amount",
            "offset": 0,
            "slot": "0",
            "type": "t_uint256"
          },
          {
            "astId": 5128,
            "contract": "contracts/alloyx/AlloyxVault.sol:AlloyxVault",
            "label": "since",
            "offset": 0,
            "slot": "1",
            "type": "t_uint256"
          }
        ],
        "numberOfBytes": "64"
      },
      "t_uint256": {
        "encoding": "inplace",
        "label": "uint256",
        "numberOfBytes": "32"
      }
    }
  }
}