{
  "address": "0x1eA79965052737df4Cf1600e3cEDC7Ce3225B2b3",
  "abi": [
    {
      "inputs": [
        {
          "internalType": "address",
          "name": "_alloyxBronzeAddress",
          "type": "address"
        },
        {
          "internalType": "address",
          "name": "_alloyxSilverAddress",
          "type": "address"
        },
        {
          "internalType": "address",
          "name": "_usdcCoinAddress",
          "type": "address"
        },
        {
          "internalType": "address",
          "name": "_fiduCoinAddress",
          "type": "address"
        },
        {
          "internalType": "address",
          "name": "_gfiCoinAddress",
          "type": "address"
        },
        {
          "internalType": "address",
          "name": "_goldFinchTokenAddress",
          "type": "address"
        },
        {
          "internalType": "address",
          "name": "_seniorPoolAddress",
          "type": "address"
        }
      ],
      "stateMutability": "nonpayable",
      "type": "constructor"
    },
    {
      "anonymous": false,
      "inputs": [
        {
          "indexed": false,
          "internalType": "address",
          "name": "_tokenReceiver",
          "type": "address"
        },
        {
          "indexed": false,
          "internalType": "uint256",
          "name": "_tokenAmount",
          "type": "uint256"
        }
      ],
      "name": "Burn",
      "type": "event"
    },
    {
      "anonymous": false,
      "inputs": [
        {
          "indexed": false,
          "internalType": "address",
          "name": "_tokenAddress",
          "type": "address"
        },
        {
          "indexed": false,
          "internalType": "address",
          "name": "_tokenSender",
          "type": "address"
        },
        {
          "indexed": false,
          "internalType": "uint256",
          "name": "_tokenAmount",
          "type": "uint256"
        }
      ],
      "name": "DepositAlloyx",
      "type": "event"
    },
    {
      "anonymous": false,
      "inputs": [
        {
          "indexed": false,
          "internalType": "address",
          "name": "_tokenAddress",
          "type": "address"
        },
        {
          "indexed": false,
          "internalType": "address",
          "name": "_tokenSender",
          "type": "address"
        },
        {
          "indexed": false,
          "internalType": "uint256",
          "name": "_tokenID",
          "type": "uint256"
        }
      ],
      "name": "DepositNFT",
      "type": "event"
    },
    {
      "anonymous": false,
      "inputs": [
        {
          "indexed": false,
          "internalType": "address",
          "name": "_tokenAddress",
          "type": "address"
        },
        {
          "indexed": false,
          "internalType": "address",
          "name": "_tokenSender",
          "type": "address"
        },
        {
          "indexed": false,
          "internalType": "uint256",
          "name": "_tokenAmount",
          "type": "uint256"
        }
      ],
      "name": "DepositStable",
      "type": "event"
    },
    {
      "anonymous": false,
      "inputs": [
        {
          "indexed": false,
          "internalType": "address",
          "name": "_tokenReceiver",
          "type": "address"
        },
        {
          "indexed": false,
          "internalType": "uint256",
          "name": "_tokenAmount",
          "type": "uint256"
        }
      ],
      "name": "Mint",
      "type": "event"
    },
    {
      "anonymous": false,
      "inputs": [
        {
          "indexed": true,
          "internalType": "address",
          "name": "previousOwner",
          "type": "address"
        },
        {
          "indexed": true,
          "internalType": "address",
          "name": "newOwner",
          "type": "address"
        }
      ],
      "name": "OwnershipTransferred",
      "type": "event"
    },
    {
      "anonymous": false,
      "inputs": [
        {
          "indexed": false,
          "internalType": "address",
          "name": "account",
          "type": "address"
        }
      ],
      "name": "Paused",
      "type": "event"
    },
    {
      "anonymous": false,
      "inputs": [
        {
          "indexed": false,
          "internalType": "address",
          "name": "account",
          "type": "address"
        }
      ],
      "name": "Unpaused",
      "type": "event"
    },
    {
      "inputs": [
        {
          "internalType": "address",
          "name": "_alloyxAddress",
          "type": "address"
        }
      ],
      "name": "changeAlloyxBronzeAddress",
      "outputs": [],
      "stateMutability": "nonpayable",
      "type": "function"
    },
    {
      "inputs": [
        {
          "internalType": "address",
          "name": "_alloyxAddress",
          "type": "address"
        }
      ],
      "name": "changeAlloyxSilverAddress",
      "outputs": [],
      "stateMutability": "nonpayable",
      "type": "function"
    },
    {
      "inputs": [
        {
          "internalType": "address",
          "name": "_poolToken",
          "type": "address"
        }
      ],
      "name": "changePoolTokenAddress",
      "outputs": [],
      "stateMutability": "nonpayable",
      "type": "function"
    },
    {
      "inputs": [
        {
          "internalType": "address",
          "name": "_seniorPool",
          "type": "address"
        }
      ],
      "name": "changeSeniorPoolAddress",
      "outputs": [],
      "stateMutability": "nonpayable",
      "type": "function"
    },
    {
      "inputs": [
        {
          "internalType": "uint256",
          "name": "_tokenAmount",
          "type": "uint256"
        }
      ],
      "name": "depositAlloyxBronzeTokens",
      "outputs": [
        {
          "internalType": "bool",
          "name": "",
          "type": "bool"
        }
      ],
      "stateMutability": "nonpayable",
      "type": "function"
    },
    {
      "inputs": [
        {
          "internalType": "address",
          "name": "_tokenAddress",
          "type": "address"
        },
        {
          "internalType": "uint256",
          "name": "_tokenID",
          "type": "uint256"
        }
      ],
      "name": "depositNFTToken",
      "outputs": [
        {
          "internalType": "bool",
          "name": "",
          "type": "bool"
        }
      ],
      "stateMutability": "nonpayable",
      "type": "function"
    },
    {
      "inputs": [
        {
          "internalType": "uint256",
          "name": "_tokenAmount",
          "type": "uint256"
        }
      ],
      "name": "depositUSDCCoin",
      "outputs": [
        {
          "internalType": "bool",
          "name": "",
          "type": "bool"
        }
      ],
      "stateMutability": "nonpayable",
      "type": "function"
    },
    {
      "inputs": [],
      "name": "destroy",
      "outputs": [],
      "stateMutability": "nonpayable",
      "type": "function"
    },
    {
      "inputs": [
        {
          "internalType": "address",
          "name": "_tokenAddress",
          "type": "address"
        },
        {
          "internalType": "uint256",
          "name": "_tokenID",
          "type": "uint256"
        }
      ],
      "name": "isValidPool",
      "outputs": [
        {
          "internalType": "bool",
          "name": "",
          "type": "bool"
        }
      ],
      "stateMutability": "view",
      "type": "function"
    },
    {
      "inputs": [
        {
          "internalType": "address",
          "name": "_tokenAddress",
          "type": "address"
        },
        {
          "internalType": "address payable",
          "name": "_to",
          "type": "address"
        }
      ],
      "name": "migrateERC20",
      "outputs": [],
      "stateMutability": "nonpayable",
      "type": "function"
    },
    {
      "inputs": [
        {
          "internalType": "address payable",
          "name": "_toAddress",
          "type": "address"
        }
      ],
      "name": "migrateGoldfinchPoolTokens",
      "outputs": [],
      "stateMutability": "nonpayable",
      "type": "function"
    },
    {
      "inputs": [
        {
          "internalType": "address",
          "name": "",
          "type": "address"
        },
        {
          "internalType": "address",
          "name": "",
          "type": "address"
        },
        {
          "internalType": "uint256",
          "name": "",
          "type": "uint256"
        },
        {
          "internalType": "bytes",
          "name": "",
          "type": "bytes"
        }
      ],
      "name": "onERC721Received",
      "outputs": [
        {
          "internalType": "bytes4",
          "name": "",
          "type": "bytes4"
        }
      ],
      "stateMutability": "nonpayable",
      "type": "function"
    },
    {
      "inputs": [],
      "name": "owner",
      "outputs": [
        {
          "internalType": "address",
          "name": "",
          "type": "address"
        }
      ],
      "stateMutability": "view",
      "type": "function"
    },
    {
      "inputs": [],
      "name": "pause",
      "outputs": [],
      "stateMutability": "nonpayable",
      "type": "function"
    },
    {
      "inputs": [],
      "name": "paused",
      "outputs": [
        {
          "internalType": "bool",
          "name": "",
          "type": "bool"
        }
      ],
      "stateMutability": "view",
      "type": "function"
    },
    {
      "inputs": [],
      "name": "renounceOwnership",
      "outputs": [],
      "stateMutability": "nonpayable",
      "type": "function"
    },
    {
      "inputs": [],
      "name": "startVaultOperation",
      "outputs": [
        {
          "internalType": "bool",
          "name": "",
          "type": "bool"
        }
      ],
      "stateMutability": "nonpayable",
      "type": "function"
    },
    {
      "inputs": [
        {
          "internalType": "address",
          "name": "_to",
          "type": "address"
        }
      ],
      "name": "transferAlloyxOwnership",
      "outputs": [],
      "stateMutability": "nonpayable",
      "type": "function"
    },
    {
      "inputs": [
        {
          "internalType": "address",
          "name": "newOwner",
          "type": "address"
        }
      ],
      "name": "transferOwnership",
      "outputs": [],
      "stateMutability": "nonpayable",
      "type": "function"
    },
    {
      "inputs": [],
      "name": "unpause",
      "outputs": [],
      "stateMutability": "nonpayable",
      "type": "function"
    }
  ],
  "transactionHash": "0x5c27f3535a634ad7cf348b7ecc340e63b80eb5e557d5e783f167363703f621f5",
  "args": [
    "0x1467A9a6BC61670DcD9cd00cCde98F83Ab0c8fb4",
    "0x333d1f9D9356b4C43965985C8c30f9Ab74Ed8681",
    "0xeaE3F227e370d9333a7AF82058DDfd34B1BeB627",
    "0x6A2e821CCD293f6989080370ECe62751B4DAFB8f",
    "0x94fF8A71Cd9f8EE849c8259A7a246eA2ef276D8f",
    "0x94fF8A71Cd9f8EE849c8259A7a246eA2ef276D8f",
    "0x94fF8A71Cd9f8EE849c8259A7a246eA2ef276D8f"
  ],
  "numDeployments": 2,
  "solcInputHash": "a0c7958062e8cf25bb9a5e1fdeb0921f",
  "bytecode": "0x60806040523480156200001157600080fd5b5060405162004fca38038062004fca833981810160405281019062000037919062000342565b620000576200004b6200025f60201b60201c565b6200026760201b60201c565b60008060146101000a81548160ff02191690831515021790555086600560006101000a81548173ffffffffffffffffffffffffffffffffffffffff021916908373ffffffffffffffffffffffffffffffffffffffff16021790555085600660006101000a81548173ffffffffffffffffffffffffffffffffffffffff021916908373ffffffffffffffffffffffffffffffffffffffff16021790555084600160006101000a81548173ffffffffffffffffffffffffffffffffffffffff021916908373ffffffffffffffffffffffffffffffffffffffff16021790555082600260006101000a81548173ffffffffffffffffffffffffffffffffffffffff021916908373ffffffffffffffffffffffffffffffffffffffff16021790555083600360006101000a81548173ffffffffffffffffffffffffffffffffffffffff021916908373ffffffffffffffffffffffffffffffffffffffff16021790555081600460006101000a81548173ffffffffffffffffffffffffffffffffffffffff021916908373ffffffffffffffffffffffffffffffffffffffff16021790555080600760006101000a81548173ffffffffffffffffffffffffffffffffffffffff021916908373ffffffffffffffffffffffffffffffffffffffff16021790555060008060156101000a81548160ff0219169083151502179055505050505050505062000448565b600033905090565b60008060009054906101000a900473ffffffffffffffffffffffffffffffffffffffff169050816000806101000a81548173ffffffffffffffffffffffffffffffffffffffff021916908373ffffffffffffffffffffffffffffffffffffffff1602179055508173ffffffffffffffffffffffffffffffffffffffff168173ffffffffffffffffffffffffffffffffffffffff167f8be0079c531659141344cd1fd0a4f28419497f9722a3daafe3b4186f6b6457e060405160405180910390a35050565b6000815190506200033c816200042e565b92915050565b600080600080600080600060e0888a03121562000364576200036362000429565b5b6000620003748a828b016200032b565b9750506020620003878a828b016200032b565b96505060406200039a8a828b016200032b565b9550506060620003ad8a828b016200032b565b9450506080620003c08a828b016200032b565b93505060a0620003d38a828b016200032b565b92505060c0620003e68a828b016200032b565b91505092959891949750929550565b6000620004028262000409565b9050919050565b600073ffffffffffffffffffffffffffffffffffffffff82169050919050565b600080fd5b6200043981620003f5565b81146200044557600080fd5b50565b614b7280620004586000396000f3fe608060405234801561001057600080fd5b506004361061012c5760003560e01c806383197ef0116100ad578063b338ad1611610071578063b338ad16146102cf578063bb74c058146102ff578063d8ec06081461032f578063d905e9b41461034b578063f2fde38b146103675761012c565b806383197ef0146102635780638456cb591461026d5780638682caf8146102775780638d6f4d21146102935780638da5cb5b146102b15761012c565b806346040872116100f457806346040872146101d357806353c98f5a146101ef5780635c975abb1461021f578063715018a61461023d5780637c905457146102475761012c565b806307c0cf3d14610131578063150b7a021461014d5780631a97749d1461017d578063354d3c30146101995780633f4ba83a146101c9575b600080fd5b61014b6004803603810190610146919061355c565b610383565b005b61016760048036038101906101629190613623565b610443565b6040516101749190613cc1565b60405180910390f35b6101976004803603810190610192919061355c565b610457565b005b6101b360048036038101906101ae91906136a6565b610517565b6040516101c09190613ca6565b60405180910390f35b6101d1610647565b005b6101ed60048036038101906101e8919061355c565b610714565b005b61020960048036038101906102049190613740565b6107d4565b6040516102169190613ca6565b60405180910390f35b610227610c38565b6040516102349190613ca6565b60405180910390f35b610245610c4e565b005b610261600480360381019061025c91906135b6565b610cd6565b005b61026b610fa8565b005b610275611357565b005b610291600480360381019061028c919061355c565b611425565b005b61029b6114e5565b6040516102a89190613ca6565b60405180910390f35b6102b96116c4565b6040516102c69190613bcb565b60405180910390f35b6102e960048036038101906102e491906136a6565b6116ed565b6040516102f69190613ca6565b60405180910390f35b61031960048036038101906103149190613740565b611c92565b6040516103269190613ca6565b60405180910390f35b6103496004803603810190610344919061355c565b6121e1565b005b610365600480360381019061036091906135e3565b612334565b005b610381600480360381019061037c919061355c565b6124b4565b005b61038b6125ac565b73ffffffffffffffffffffffffffffffffffffffff166103a96116c4565b73ffffffffffffffffffffffffffffffffffffffff16146103ff576040517f08c379a00000000000000000000000000000000000000000000000000000000081526004016103f690613e9e565b60405180910390fd5b80600560006101000a81548173ffffffffffffffffffffffffffffffffffffffff021916908373ffffffffffffffffffffffffffffffffffffffff16021790555050565b600063150b7a0260e01b9050949350505050565b61045f6125ac565b73ffffffffffffffffffffffffffffffffffffffff1661047d6116c4565b73ffffffffffffffffffffffffffffffffffffffff16146104d3576040517f08c379a00000000000000000000000000000000000000000000000000000000081526004016104ca90613e9e565b60405180910390fd5b80600660006101000a81548173ffffffffffffffffffffffffffffffffffffffff021916908373ffffffffffffffffffffffffffffffffffffffff16021790555050565b60008083905060008173ffffffffffffffffffffffffffffffffffffffff16638c7a63ae856040518263ffffffff1660e01b81526004016105589190613fde565b60a06040518083038186803b15801561057057600080fd5b505afa158015610584573d6000803e3d6000fd5b505050506040513d601f19601f820116820180604052508101906105a89190613713565b90506000816000015190508273ffffffffffffffffffffffffffffffffffffffff1663b5ada6d8826040518263ffffffff1660e01b81526004016105ec9190613bcb565b60206040518083038186803b15801561060457600080fd5b505afa158015610618573d6000803e3d6000fd5b505050506040513d601f19601f8201168201806040525081019061063c91906136e6565b935050505092915050565b61064f6125ac565b73ffffffffffffffffffffffffffffffffffffffff1661066d6116c4565b73ffffffffffffffffffffffffffffffffffffffff16146106c3576040517f08c379a00000000000000000000000000000000000000000000000000000000081526004016106ba90613e9e565b60405180910390fd5b6106cb610c38565b61070a576040517f08c379a000000000000000000000000000000000000000000000000000000000815260040161070190613d1e565b60405180910390fd5b6107126125b4565b565b61071c6125ac565b73ffffffffffffffffffffffffffffffffffffffff1661073a6116c4565b73ffffffffffffffffffffffffffffffffffffffff1614610790576040517f08c379a000000000000000000000000000000000000000000000000000000000815260040161078790613e9e565b60405180910390fd5b80600460006101000a81548173ffffffffffffffffffffffffffffffffffffffff021916908373ffffffffffffffffffffffffffffffffffffffff16021790555050565b60006107de610c38565b1561081e576040517f08c379a000000000000000000000000000000000000000000000000000000000815260040161081590613dde565b60405180910390fd5b600060159054906101000a900460ff1661086d576040517f08c379a000000000000000000000000000000000000000000000000000000000815260040161086490613f1e565b60405180910390fd5b81600160009054906101000a900473ffffffffffffffffffffffffffffffffffffffff1673ffffffffffffffffffffffffffffffffffffffff166370a08231336040518263ffffffff1660e01b81526004016108c99190613bcb565b60206040518083038186803b1580156108e157600080fd5b505afa1580156108f5573d6000803e3d6000fd5b505050506040513d601f19601f82011682018060405250810190610919919061376d565b101561095a576040517f08c379a000000000000000000000000000000000000000000000000000000000815260040161095190613e5e565b60405180910390fd5b81600160009054906101000a900473ffffffffffffffffffffffffffffffffffffffff1673ffffffffffffffffffffffffffffffffffffffff1663dd62ed3e33306040518363ffffffff1660e01b81526004016109b8929190613be6565b60206040518083038186803b1580156109d057600080fd5b505afa1580156109e4573d6000803e3d6000fd5b505050506040513d601f19601f82011682018060405250810190610a08919061376d565b1015610a49576040517f08c379a0000000000000000000000000000000000000000000000000000000008152600401610a4090613e3e565b60405180910390fd5b6000610a5483612655565b905060008111610a99576040517f08c379a0000000000000000000000000000000000000000000000000000000008152600401610a9090613dfe565b60405180910390fd5b610ae8333085600160009054906101000a900473ffffffffffffffffffffffffffffffffffffffff1673ffffffffffffffffffffffffffffffffffffffff16612734909392919063ffffffff16565b600560009054906101000a900473ffffffffffffffffffffffffffffffffffffffff1673ffffffffffffffffffffffffffffffffffffffff166340c10f1933836040518363ffffffff1660e01b8152600401610b45929190613c7d565b602060405180830381600087803b158015610b5f57600080fd5b505af1158015610b73573d6000803e3d6000fd5b505050506040513d601f19601f82011682018060405250810190610b9791906136e6565b507fa4f358c78f73b2049a06e0436c6728292334862a6fc2114f2de13f9cff58491f600160009054906101000a900473ffffffffffffffffffffffffffffffffffffffff163383604051610bed93929190613c46565b60405180910390a17f0f6798a560793a54c3bcfe86a93cde1e73087d944c0ea20544137d41213968853382604051610c26929190613c7d565b60405180910390a16001915050919050565b60008060149054906101000a900460ff16905090565b610c566125ac565b73ffffffffffffffffffffffffffffffffffffffff16610c746116c4565b73ffffffffffffffffffffffffffffffffffffffff1614610cca576040517f08c379a0000000000000000000000000000000000000000000000000000000008152600401610cc190613e9e565b60405180910390fd5b610cd460006127bd565b565b610cde6125ac565b73ffffffffffffffffffffffffffffffffffffffff16610cfc6116c4565b73ffffffffffffffffffffffffffffffffffffffff1614610d52576040517f08c379a0000000000000000000000000000000000000000000000000000000008152600401610d4990613e9e565b60405180910390fd5b610d5a610c38565b610d99576040517f08c379a0000000000000000000000000000000000000000000000000000000008152600401610d9090613d1e565b60405180910390fd5b6000600460009054906101000a900473ffffffffffffffffffffffffffffffffffffffff1673ffffffffffffffffffffffffffffffffffffffff166370a08231306040518263ffffffff1660e01b8152600401610df69190613bcb565b60206040518083038186803b158015610e0e57600080fd5b505afa158015610e22573d6000803e3d6000fd5b505050506040513d601f19601f82011682018060405250810190610e46919061376d565b905060005b81811015610fa357600460009054906101000a900473ffffffffffffffffffffffffffffffffffffffff1673ffffffffffffffffffffffffffffffffffffffff166342842e0e3085600460009054906101000a900473ffffffffffffffffffffffffffffffffffffffff1673ffffffffffffffffffffffffffffffffffffffff16632f745c5930876040518363ffffffff1660e01b8152600401610ef0929190613c7d565b60206040518083038186803b158015610f0857600080fd5b505afa158015610f1c573d6000803e3d6000fd5b505050506040513d601f19601f82011682018060405250810190610f40919061376d565b6040518463ffffffff1660e01b8152600401610f5e93929190613c0f565b600060405180830381600087803b158015610f7857600080fd5b505af1158015610f8c573d6000803e3d6000fd5b505050508080610f9b90614436565b915050610e4b565b505050565b610fb06125ac565b73ffffffffffffffffffffffffffffffffffffffff16610fce6116c4565b73ffffffffffffffffffffffffffffffffffffffff1614611024576040517f08c379a000000000000000000000000000000000000000000000000000000000815260040161101b90613e9e565b60405180910390fd5b61102c610c38565b61106b576040517f08c379a000000000000000000000000000000000000000000000000000000000815260040161106290613d1e565b60405180910390fd5b6000600160009054906101000a900473ffffffffffffffffffffffffffffffffffffffff1673ffffffffffffffffffffffffffffffffffffffff166370a08231306040518263ffffffff1660e01b81526004016110c89190613bcb565b60206040518083038186803b1580156110e057600080fd5b505afa1580156110f4573d6000803e3d6000fd5b505050506040513d601f19601f82011682018060405250810190611118919061376d565b14611158576040517f08c379a000000000000000000000000000000000000000000000000000000000815260040161114f90613ebe565b60405180910390fd5b6000600360009054906101000a900473ffffffffffffffffffffffffffffffffffffffff1673ffffffffffffffffffffffffffffffffffffffff166370a08231306040518263ffffffff1660e01b81526004016111b59190613bcb565b60206040518083038186803b1580156111cd57600080fd5b505afa1580156111e1573d6000803e3d6000fd5b505050506040513d601f19601f82011682018060405250810190611205919061376d565b14611245576040517f08c379a000000000000000000000000000000000000000000000000000000000815260040161123c90613f7e565b60405180910390fd5b6000600260009054906101000a900473ffffffffffffffffffffffffffffffffffffffff1673ffffffffffffffffffffffffffffffffffffffff166370a08231306040518263ffffffff1660e01b81526004016112a29190613bcb565b60206040518083038186803b1580156112ba57600080fd5b505afa1580156112ce573d6000803e3d6000fd5b505050506040513d601f19601f820116820180604052508101906112f2919061376d565b14611332576040517f08c379a000000000000000000000000000000000000000000000000000000000815260040161132990613e7e565b60405180910390fd5b600061133c6116c4565b90508073ffffffffffffffffffffffffffffffffffffffff16ff5b61135f6125ac565b73ffffffffffffffffffffffffffffffffffffffff1661137d6116c4565b73ffffffffffffffffffffffffffffffffffffffff16146113d3576040517f08c379a00000000000000000000000000000000000000000000000000000000081526004016113ca90613e9e565b60405180910390fd5b6113db610c38565b1561141b576040517f08c379a000000000000000000000000000000000000000000000000000000000815260040161141290613dde565b60405180910390fd5b611423612881565b565b61142d6125ac565b73ffffffffffffffffffffffffffffffffffffffff1661144b6116c4565b73ffffffffffffffffffffffffffffffffffffffff16146114a1576040517f08c379a000000000000000000000000000000000000000000000000000000000815260040161149890613e9e565b60405180910390fd5b80600760006101000a81548173ffffffffffffffffffffffffffffffffffffffff021916908373ffffffffffffffffffffffffffffffffffffffff16021790555050565b60006114ef6125ac565b73ffffffffffffffffffffffffffffffffffffffff1661150d6116c4565b73ffffffffffffffffffffffffffffffffffffffff1614611563576040517f08c379a000000000000000000000000000000000000000000000000000000000815260040161155a90613e9e565b60405180910390fd5b600060159054906101000a900460ff16156115b3576040517f08c379a00000000000000000000000000000000000000000000000000000000081526004016115aa90613d7e565b60405180910390fd5b60006115bd612924565b9050600560009054906101000a900473ffffffffffffffffffffffffffffffffffffffff1673ffffffffffffffffffffffffffffffffffffffff166340c10f1930611631611609612965565b61162361161461297a565b8761298f90919063ffffffff16565b6129a590919063ffffffff16565b6040518363ffffffff1660e01b815260040161164e929190613c7d565b602060405180830381600087803b15801561166857600080fd5b505af115801561167c573d6000803e3d6000fd5b505050506040513d601f19601f820116820180604052508101906116a091906136e6565b506001600060156101000a81548160ff021916908315150217905550600191505090565b60008060009054906101000a900473ffffffffffffffffffffffffffffffffffffffff16905090565b60006116f7610c38565b15611737576040517f08c379a000000000000000000000000000000000000000000000000000000000815260040161172e90613dde565b60405180910390fd5b600060159054906101000a900460ff16611786576040517f08c379a000000000000000000000000000000000000000000000000000000000815260040161177d90613f1e565b60405180910390fd5b600460009054906101000a900473ffffffffffffffffffffffffffffffffffffffff1673ffffffffffffffffffffffffffffffffffffffff168373ffffffffffffffffffffffffffffffffffffffff1614611816576040517f08c379a000000000000000000000000000000000000000000000000000000000815260040161180d90613fbe565b60405180910390fd5b600115156118248484610517565b151514611866576040517f08c379a000000000000000000000000000000000000000000000000000000000815260040161185d90613d9e565b60405180910390fd5b3373ffffffffffffffffffffffffffffffffffffffff168373ffffffffffffffffffffffffffffffffffffffff16636352211e846040518263ffffffff1660e01b81526004016118b69190613fde565b60206040518083038186803b1580156118ce57600080fd5b505afa1580156118e2573d6000803e3d6000fd5b505050506040513d601f19601f820116820180604052508101906119069190613589565b73ffffffffffffffffffffffffffffffffffffffff161461195c576040517f08c379a000000000000000000000000000000000000000000000000000000000815260040161195390613ede565b60405180910390fd5b3073ffffffffffffffffffffffffffffffffffffffff168373ffffffffffffffffffffffffffffffffffffffff1663081812fc846040518263ffffffff1660e01b81526004016119ac9190613fde565b60206040518083038186803b1580156119c457600080fd5b505afa1580156119d8573d6000803e3d6000fd5b505050506040513d601f19601f820116820180604052508101906119fc9190613589565b73ffffffffffffffffffffffffffffffffffffffff1614611a52576040517f08c379a0000000000000000000000000000000000000000000000000000000008152600401611a4990613cfe565b60405180910390fd5b6000611a5e84846129bb565b905060008111611aa3576040517f08c379a0000000000000000000000000000000000000000000000000000000008152600401611a9a90613f5e565b60405180910390fd5b80600160009054906101000a900473ffffffffffffffffffffffffffffffffffffffff1673ffffffffffffffffffffffffffffffffffffffff166370a08231306040518263ffffffff1660e01b8152600401611aff9190613bcb565b60206040518083038186803b158015611b1757600080fd5b505afa158015611b2b573d6000803e3d6000fd5b505050506040513d601f19601f82011682018060405250810190611b4f919061376d565b1015611b90576040517f08c379a0000000000000000000000000000000000000000000000000000000008152600401611b8790613e1e565b60405180910390fd5b8373ffffffffffffffffffffffffffffffffffffffff166342842e0e3330866040518463ffffffff1660e01b8152600401611bcd93929190613c46565b600060405180830381600087803b158015611be757600080fd5b505af1158015611bfb573d6000803e3d6000fd5b50505050611c4c3382600160009054906101000a900473ffffffffffffffffffffffffffffffffffffffff1673ffffffffffffffffffffffffffffffffffffffff16612b6b9092919063ffffffff16565b7fc7e8b1bdbecdc8a549557efb2a2ab715cff51630caead31610000019e61dfa4b843385604051611c7f93929190613c46565b60405180910390a1600191505092915050565b6000611c9c610c38565b15611cdc576040517f08c379a0000000000000000000000000000000000000000000000000000000008152600401611cd390613dde565b60405180910390fd5b600060159054906101000a900460ff16611d2b576040517f08c379a0000000000000000000000000000000000000000000000000000000008152600401611d2290613f1e565b60405180910390fd5b81600560009054906101000a900473ffffffffffffffffffffffffffffffffffffffff1673ffffffffffffffffffffffffffffffffffffffff166370a08231336040518263ffffffff1660e01b8152600401611d879190613bcb565b60206040518083038186803b158015611d9f57600080fd5b505afa158015611db3573d6000803e3d6000fd5b505050506040513d601f19601f82011682018060405250810190611dd7919061376d565b1015611e18576040517f08c379a0000000000000000000000000000000000000000000000000000000008152600401611e0f90613f9e565b60405180910390fd5b81600560009054906101000a900473ffffffffffffffffffffffffffffffffffffffff1673ffffffffffffffffffffffffffffffffffffffff1663dd62ed3e33306040518363ffffffff1660e01b8152600401611e76929190613be6565b60206040518083038186803b158015611e8e57600080fd5b505afa158015611ea2573d6000803e3d6000fd5b505050506040513d601f19601f82011682018060405250810190611ec6919061376d565b1015611f07576040517f08c379a0000000000000000000000000000000000000000000000000000000008152600401611efe90613d3e565b60405180910390fd5b6000611f1283612bf1565b905060008111611f57576040517f08c379a0000000000000000000000000000000000000000000000000000000008152600401611f4e90613f5e565b60405180910390fd5b80600160009054906101000a900473ffffffffffffffffffffffffffffffffffffffff1673ffffffffffffffffffffffffffffffffffffffff166370a08231306040518263ffffffff1660e01b8152600401611fb39190613bcb565b60206040518083038186803b158015611fcb57600080fd5b505afa158015611fdf573d6000803e3d6000fd5b505050506040513d601f19601f82011682018060405250810190612003919061376d565b1015612044576040517f08c379a000000000000000000000000000000000000000000000000000000000815260040161203b90613e1e565b60405180910390fd5b600560009054906101000a900473ffffffffffffffffffffffffffffffffffffffff1673ffffffffffffffffffffffffffffffffffffffff16639dc29fac33836040518363ffffffff1660e01b81526004016120a1929190613c7d565b602060405180830381600087803b1580156120bb57600080fd5b505af11580156120cf573d6000803e3d6000fd5b505050506040513d601f19601f820116820180604052508101906120f391906136e6565b506121413382600160009054906101000a900473ffffffffffffffffffffffffffffffffffffffff1673ffffffffffffffffffffffffffffffffffffffff16612b6b9092919063ffffffff16565b7f53fee901a59b4d2e659e450f8db17fc345e158fe408d2b39faf66d1f8c4a54fe600560009054906101000a900473ffffffffffffffffffffffffffffffffffffffff16338360405161219693929190613c46565b60405180910390a17fcc16f5dbb4873280815c1ee09dbd06736cffcc184412cf7a71a0fdb75d397ca533826040516121cf929190613c7d565b60405180910390a16001915050919050565b6121e96125ac565b73ffffffffffffffffffffffffffffffffffffffff166122076116c4565b73ffffffffffffffffffffffffffffffffffffffff161461225d576040517f08c379a000000000000000000000000000000000000000000000000000000000815260040161225490613e9e565b60405180910390fd5b612265610c38565b6122a4576040517f08c379a000000000000000000000000000000000000000000000000000000000815260040161229b90613d1e565b60405180910390fd5b600560009054906101000a900473ffffffffffffffffffffffffffffffffffffffff1673ffffffffffffffffffffffffffffffffffffffff1663f2fde38b826040518263ffffffff1660e01b81526004016122ff9190613bcb565b600060405180830381600087803b15801561231957600080fd5b505af115801561232d573d6000803e3d6000fd5b5050505050565b61233c6125ac565b73ffffffffffffffffffffffffffffffffffffffff1661235a6116c4565b73ffffffffffffffffffffffffffffffffffffffff16146123b0576040517f08c379a00000000000000000000000000000000000000000000000000000000081526004016123a790613e9e565b60405180910390fd5b6123b8610c38565b6123f7576040517f08c379a00000000000000000000000000000000000000000000000000000000081526004016123ee90613d1e565b60405180910390fd5b60008273ffffffffffffffffffffffffffffffffffffffff166370a08231306040518263ffffffff1660e01b81526004016124329190613bcb565b60206040518083038186803b15801561244a57600080fd5b505afa15801561245e573d6000803e3d6000fd5b505050506040513d601f19601f82011682018060405250810190612482919061376d565b90506124af82828573ffffffffffffffffffffffffffffffffffffffff16612b6b9092919063ffffffff16565b505050565b6124bc6125ac565b73ffffffffffffffffffffffffffffffffffffffff166124da6116c4565b73ffffffffffffffffffffffffffffffffffffffff1614612530576040517f08c379a000000000000000000000000000000000000000000000000000000000815260040161252790613e9e565b60405180910390fd5b600073ffffffffffffffffffffffffffffffffffffffff168173ffffffffffffffffffffffffffffffffffffffff1614156125a0576040517f08c379a000000000000000000000000000000000000000000000000000000000815260040161259790613d5e565b60405180910390fd5b6125a9816127bd565b50565b600033905090565b6125bc610c38565b6125fb576040517f08c379a00000000000000000000000000000000000000000000000000000000081526004016125f290613d1e565b60405180910390fd5b60008060146101000a81548160ff0219169083151502179055507f5db9ee0a495bf2e6ff9c91a7834c1ba4fdd244a5e8aa4e537bd38aeae4b073aa61263e6125ac565b60405161264b9190613bcb565b60405180910390a1565b600080600560009054906101000a900473ffffffffffffffffffffffffffffffffffffffff1673ffffffffffffffffffffffffffffffffffffffff166318160ddd6040518163ffffffff1660e01b815260040160206040518083038186803b1580156126c057600080fd5b505afa1580156126d4573d6000803e3d6000fd5b505050506040513d601f19601f820116820180604052508101906126f8919061376d565b90506000612704612924565b905061272b8161271d848761298f90919063ffffffff16565b6129a590919063ffffffff16565b92505050919050565b6127b7846323b872dd60e01b85858560405160240161275593929190613c46565b604051602081830303815290604052907bffffffffffffffffffffffffffffffffffffffffffffffffffffffff19166020820180517bffffffffffffffffffffffffffffffffffffffffffffffffffffffff8381831617835250505050612cd0565b50505050565b60008060009054906101000a900473ffffffffffffffffffffffffffffffffffffffff169050816000806101000a81548173ffffffffffffffffffffffffffffffffffffffff021916908373ffffffffffffffffffffffffffffffffffffffff1602179055508173ffffffffffffffffffffffffffffffffffffffff168173ffffffffffffffffffffffffffffffffffffffff167f8be0079c531659141344cd1fd0a4f28419497f9722a3daafe3b4186f6b6457e060405160405180910390a35050565b612889610c38565b156128c9576040517f08c379a00000000000000000000000000000000000000000000000000000000081526004016128c090613dde565b60405180910390fd5b6001600060146101000a81548160ff0219169083151502179055507f62e78cea01bee320cd4e420270b5ea74000d11b0c9f74754ebdbfc544b05a25861290d6125ac565b60405161291a9190613bcb565b60405180910390a1565b6000612960612931612d97565b61295261293c612f79565b61294461302b565b6131af90919063ffffffff16565b6131af90919063ffffffff16565b905090565b60006006600a612975919061415b565b905090565b60006012600a61298a919061415b565b905090565b6000818361299d9190614279565b905092915050565b600081836129b391906140d7565b905092915050565b60008083905060008173ffffffffffffffffffffffffffffffffffffffff16638c7a63ae856040518263ffffffff1660e01b81526004016129fc9190613fde565b60a06040518083038186803b158015612a1457600080fd5b505afa158015612a28573d6000803e3d6000fd5b505050506040513d601f19601f82011682018060405250810190612a4c9190613713565b90506000816040015190506000612a74836080015184606001516131af90919063ffffffff16565b905060008360000151905060008190506000808273ffffffffffffffffffffffffffffffffffffffff16634d02fe6f8b6040518263ffffffff1660e01b8152600401612ac09190613fde565b604080518083038186803b158015612ad757600080fd5b505afa158015612aeb573d6000803e3d6000fd5b505050506040513d601f19601f82011682018060405250810190612b0f919061379a565b91509150600082905086821015612b3557612b3382826131af90919063ffffffff16565b505b612b5a81612b4c888a6131c590919063ffffffff16565b6131af90919063ffffffff16565b995050505050505050505092915050565b612bec8363a9059cbb60e01b8484604051602401612b8a929190613c7d565b604051602081830303815290604052907bffffffffffffffffffffffffffffffffffffffffffffffffffffffff19166020820180517bffffffffffffffffffffffffffffffffffffffffffffffffffffffff8381831617835250505050612cd0565b505050565b600080600560009054906101000a900473ffffffffffffffffffffffffffffffffffffffff1673ffffffffffffffffffffffffffffffffffffffff166318160ddd6040518163ffffffff1660e01b815260040160206040518083038186803b158015612c5c57600080fd5b505afa158015612c70573d6000803e3d6000fd5b505050506040513d601f19601f82011682018060405250810190612c94919061376d565b90506000612ca0612924565b9050612cc782612cb9838761298f90919063ffffffff16565b6129a590919063ffffffff16565b92505050919050565b6000612d32826040518060400160405280602081526020017f5361666545524332303a206c6f772d6c6576656c2063616c6c206661696c65648152508573ffffffffffffffffffffffffffffffffffffffff166131db9092919063ffffffff16565b9050600081511115612d925780806020019051810190612d5291906136e6565b612d91576040517f08c379a0000000000000000000000000000000000000000000000000000000008152600401612d8890613f3e565b60405180910390fd5b5b505050565b600080600090506000600460009054906101000a900473ffffffffffffffffffffffffffffffffffffffff1673ffffffffffffffffffffffffffffffffffffffff166370a08231306040518263ffffffff1660e01b8152600401612dfb9190613bcb565b60206040518083038186803b158015612e1357600080fd5b505afa158015612e27573d6000803e3d6000fd5b505050506040513d601f19601f82011682018060405250810190612e4b919061376d565b905060005b81811015612f5757612f42612f33600460009054906101000a900473ffffffffffffffffffffffffffffffffffffffff16600460009054906101000a900473ffffffffffffffffffffffffffffffffffffffff1673ffffffffffffffffffffffffffffffffffffffff16632f745c5930866040518363ffffffff1660e01b8152600401612ede929190613c7d565b60206040518083038186803b158015612ef657600080fd5b505afa158015612f0a573d6000803e3d6000fd5b505050506040513d601f19601f82011682018060405250810190612f2e919061376d565b6129bb565b846131af90919063ffffffff16565b92508080612f4f90614436565b915050612e50565b50612f72612f63612965565b8361298f90919063ffffffff16565b9250505090565b6000600160009054906101000a900473ffffffffffffffffffffffffffffffffffffffff1673ffffffffffffffffffffffffffffffffffffffff166370a08231306040518263ffffffff1660e01b8152600401612fd69190613bcb565b60206040518083038186803b158015612fee57600080fd5b505afa158015613002573d6000803e3d6000fd5b505050506040513d601f19601f82011682018060405250810190613026919061376d565b905090565b60006131aa6131a561303b6131f3565b613197600760009054906101000a900473ffffffffffffffffffffffffffffffffffffffff1673ffffffffffffffffffffffffffffffffffffffff1663872697296040518163ffffffff1660e01b815260040160206040518083038186803b1580156130a657600080fd5b505afa1580156130ba573d6000803e3d6000fd5b505050506040513d601f19601f820116820180604052508101906130de919061376d565b600360009054906101000a900473ffffffffffffffffffffffffffffffffffffffff1673ffffffffffffffffffffffffffffffffffffffff166370a08231306040518263ffffffff1660e01b81526004016131399190613bcb565b60206040518083038186803b15801561315157600080fd5b505afa158015613165573d6000803e3d6000fd5b505050506040513d601f19601f82011682018060405250810190613189919061376d565b61298f90919063ffffffff16565b6129a590919063ffffffff16565b613208565b905090565b600081836131bd9190614081565b905092915050565b600081836131d391906142d3565b905092915050565b60606131ea8484600085613244565b90509392505050565b60006012600a613203919061415b565b905090565b600061323d61322e613218612965565b6132206131f3565b6129a590919063ffffffff16565b836129a590919063ffffffff16565b9050919050565b606082471015613289576040517f08c379a000000000000000000000000000000000000000000000000000000000815260040161328090613dbe565b60405180910390fd5b61329285613358565b6132d1576040517f08c379a00000000000000000000000000000000000000000000000000000000081526004016132c890613efe565b60405180910390fd5b6000808673ffffffffffffffffffffffffffffffffffffffff1685876040516132fa9190613bb4565b60006040518083038185875af1925050503d8060008114613337576040519150601f19603f3d011682016040523d82523d6000602084013e61333c565b606091505b509150915061334c82828661337b565b92505050949350505050565b6000808273ffffffffffffffffffffffffffffffffffffffff163b119050919050565b6060831561338b578290506133db565b60008351111561339e5782518084602001fd5b816040517f08c379a00000000000000000000000000000000000000000000000000000000081526004016133d29190613cdc565b60405180910390fd5b9392505050565b60006133f56133f08461401e565b613ff9565b90508281526020810184848401111561341157613410614516565b5b61341c8482856143c3565b509392505050565b60008135905061343381614ae0565b92915050565b60008151905061344881614ae0565b92915050565b60008135905061345d81614af7565b92915050565b60008151905061347281614b0e565b92915050565b600082601f83011261348d5761348c61450c565b5b813561349d8482602086016133e2565b91505092915050565b600060a082840312156134bc576134bb614511565b5b6134c660a0613ff9565b905060006134d684828501613439565b60008301525060206134ea84828501613547565b60208301525060406134fe84828501613547565b604083015250606061351284828501613547565b606083015250608061352684828501613547565b60808301525092915050565b60008135905061354181614b25565b92915050565b60008151905061355681614b25565b92915050565b60006020828403121561357257613571614520565b5b600061358084828501613424565b91505092915050565b60006020828403121561359f5761359e614520565b5b60006135ad84828501613439565b91505092915050565b6000602082840312156135cc576135cb614520565b5b60006135da8482850161344e565b91505092915050565b600080604083850312156135fa576135f9614520565b5b600061360885828601613424565b92505060206136198582860161344e565b9150509250929050565b6000806000806080858703121561363d5761363c614520565b5b600061364b87828801613424565b945050602061365c87828801613424565b935050604061366d87828801613532565b925050606085013567ffffffffffffffff81111561368e5761368d61451b565b5b61369a87828801613478565b91505092959194509250565b600080604083850312156136bd576136bc614520565b5b60006136cb85828601613424565b92505060206136dc85828601613532565b9150509250929050565b6000602082840312156136fc576136fb614520565b5b600061370a84828501613463565b91505092915050565b600060a0828403121561372957613728614520565b5b6000613737848285016134a6565b91505092915050565b60006020828403121561375657613755614520565b5b600061376484828501613532565b91505092915050565b60006020828403121561378357613782614520565b5b600061379184828501613547565b91505092915050565b600080604083850312156137b1576137b0614520565b5b60006137bf85828601613547565b92505060206137d085828601613547565b9150509250929050565b6137e38161438d565b82525050565b6137f281614307565b82525050565b6138018161432b565b82525050565b61381081614337565b82525050565b60006138218261404f565b61382b8185614065565b935061383b8185602086016143d2565b80840191505092915050565b60006138528261405a565b61385c8185614070565b935061386c8185602086016143d2565b61387581614525565b840191505092915050565b600061388d602e83614070565b915061389882614543565b604082019050919050565b60006138b0601483614070565b91506138bb82614592565b602082019050919050565b60006138d3603a83614070565b91506138de826145bb565b604082019050919050565b60006138f6602683614070565b91506139018261460a565b604082019050919050565b6000613919602a83614070565b915061392482614659565b604082019050919050565b600061393c601083614070565b9150613947826146a8565b602082019050919050565b600061395f602683614070565b915061396a826146d1565b604082019050919050565b6000613982601083614070565b915061398d82614720565b602082019050919050565b60006139a5603c83614070565b91506139b082614749565b604082019050919050565b60006139c8602e83614070565b91506139d382614798565b604082019050919050565b60006139eb603a83614070565b91506139f6826147e7565b604082019050919050565b6000613a0e602183614070565b9150613a1982614836565b604082019050919050565b6000613a31601d83614070565b9150613a3c82614885565b602082019050919050565b6000613a54602083614070565b9150613a5f826148ae565b602082019050919050565b6000613a77602083614070565b9150613a82826148d7565b602082019050919050565b6000613a9a601c83614070565b9150613aa582614900565b602082019050919050565b6000613abd601d83614070565b9150613ac882614929565b602082019050919050565b6000613ae0602683614070565b9150613aeb82614952565b604082019050919050565b6000613b03602a83614070565b9150613b0e826149a1565b604082019050919050565b6000613b26603583614070565b9150613b31826149f0565b604082019050919050565b6000613b49601e83614070565b9150613b5482614a3f565b602082019050919050565b6000613b6c602183614070565b9150613b7782614a68565b604082019050919050565b6000613b8f601883614070565b9150613b9a82614ab7565b602082019050919050565b613bae81614383565b82525050565b6000613bc08284613816565b915081905092915050565b6000602082019050613be060008301846137e9565b92915050565b6000604082019050613bfb60008301856137e9565b613c0860208301846137e9565b9392505050565b6000606082019050613c2460008301866137e9565b613c3160208301856137da565b613c3e6040830184613ba5565b949350505050565b6000606082019050613c5b60008301866137e9565b613c6860208301856137e9565b613c756040830184613ba5565b949350505050565b6000604082019050613c9260008301856137e9565b613c9f6020830184613ba5565b9392505050565b6000602082019050613cbb60008301846137f8565b92915050565b6000602082019050613cd66000830184613807565b92915050565b60006020820190508181036000830152613cf68184613847565b905092915050565b60006020820190508181036000830152613d1781613880565b9050919050565b60006020820190508181036000830152613d37816138a3565b9050919050565b60006020820190508181036000830152613d57816138c6565b9050919050565b60006020820190508181036000830152613d77816138e9565b9050919050565b60006020820190508181036000830152613d978161390c565b9050919050565b60006020820190508181036000830152613db78161392f565b9050919050565b60006020820190508181036000830152613dd781613952565b9050919050565b60006020820190508181036000830152613df781613975565b9050919050565b60006020820190508181036000830152613e1781613998565b9050919050565b60006020820190508181036000830152613e37816139bb565b9050919050565b60006020820190508181036000830152613e57816139de565b9050919050565b60006020820190508181036000830152613e7781613a01565b9050919050565b60006020820190508181036000830152613e9781613a24565b9050919050565b60006020820190508181036000830152613eb781613a47565b9050919050565b60006020820190508181036000830152613ed781613a6a565b9050919050565b60006020820190508181036000830152613ef781613a8d565b9050919050565b60006020820190508181036000830152613f1781613ab0565b9050919050565b60006020820190508181036000830152613f3781613ad3565b9050919050565b60006020820190508181036000830152613f5781613af6565b9050919050565b60006020820190508181036000830152613f7781613b19565b9050919050565b60006020820190508181036000830152613f9781613b3c565b9050919050565b60006020820190508181036000830152613fb781613b5f565b9050919050565b60006020820190508181036000830152613fd781613b82565b9050919050565b6000602082019050613ff36000830184613ba5565b92915050565b6000614003614014565b905061400f8282614405565b919050565b6000604051905090565b600067ffffffffffffffff821115614039576140386144dd565b5b61404282614525565b9050602081019050919050565b600081519050919050565b600081519050919050565b600081905092915050565b600082825260208201905092915050565b600061408c82614383565b915061409783614383565b9250827fffffffffffffffffffffffffffffffffffffffffffffffffffffffffffffffff038211156140cc576140cb61447f565b5b828201905092915050565b60006140e282614383565b91506140ed83614383565b9250826140fd576140fc6144ae565b5b828204905092915050565b6000808291508390505b60018511156141525780860481111561412e5761412d61447f565b5b600185161561413d5780820291505b808102905061414b85614536565b9450614112565b94509492505050565b600061416682614383565b915061417183614383565b925061419e7fffffffffffffffffffffffffffffffffffffffffffffffffffffffffffffffff84846141a6565b905092915050565b6000826141b65760019050614272565b816141c45760009050614272565b81600181146141da57600281146141e457614213565b6001915050614272565b60ff8411156141f6576141f561447f565b5b8360020a91508482111561420d5761420c61447f565b5b50614272565b5060208310610133831016604e8410600b84101617156142485782820a9050838111156142435761424261447f565b5b614272565b6142558484846001614108565b9250905081840481111561426c5761426b61447f565b5b81810290505b9392505050565b600061428482614383565b915061428f83614383565b9250817fffffffffffffffffffffffffffffffffffffffffffffffffffffffffffffffff04831182151516156142c8576142c761447f565b5b828202905092915050565b60006142de82614383565b91506142e983614383565b9250828210156142fc576142fb61447f565b5b828203905092915050565b600061431282614363565b9050919050565b600061432482614363565b9050919050565b60008115159050919050565b60007fffffffff0000000000000000000000000000000000000000000000000000000082169050919050565b600073ffffffffffffffffffffffffffffffffffffffff82169050919050565b6000819050919050565b60006143988261439f565b9050919050565b60006143aa826143b1565b9050919050565b60006143bc82614363565b9050919050565b82818337600083830152505050565b60005b838110156143f05780820151818401526020810190506143d5565b838111156143ff576000848401525b50505050565b61440e82614525565b810181811067ffffffffffffffff8211171561442d5761442c6144dd565b5b80604052505050565b600061444182614383565b91507fffffffffffffffffffffffffffffffffffffffffffffffffffffffffffffffff8214156144745761447361447f565b5b600182019050919050565b7f4e487b7100000000000000000000000000000000000000000000000000000000600052601160045260246000fd5b7f4e487b7100000000000000000000000000000000000000000000000000000000600052601260045260246000fd5b7f4e487b7100000000000000000000000000000000000000000000000000000000600052604160045260246000fd5b600080fd5b600080fd5b600080fd5b600080fd5b600080fd5b6000601f19601f8301169050919050565b60008160011c9050919050565b7f5573657220686173206e6f7420617070726f76656420746865207661756c742060008201527f666f72207468697320746f6b656e000000000000000000000000000000000000602082015250565b7f5061757361626c653a206e6f7420706175736564000000000000000000000000600082015250565b7f5573657220686173206e6f7420617070726f76656420746865207661756c742060008201527f666f722073756666696369656e7420616c6c6f797820636f696e000000000000602082015250565b7f4f776e61626c653a206e6577206f776e657220697320746865207a65726f206160008201527f6464726573730000000000000000000000000000000000000000000000000000602082015250565b7f5661756c742068617320616c726561647920737461727420616363657074696e60008201527f67206465706f7369747300000000000000000000000000000000000000000000602082015250565b7f4e6f7420612076616c696420706f6f6c00000000000000000000000000000000600082015250565b7f416464726573733a20696e73756666696369656e742062616c616e636520666f60008201527f722063616c6c0000000000000000000000000000000000000000000000000000602082015250565b7f5061757361626c653a2070617573656400000000000000000000000000000000600082015250565b7f54686520616d6f756e74206f6620616c6c6f79782062726f6e7a6520636f696e60008201527f20746f20676574206973206e6f74206c6172676572207468616e203000000000602082015250565b7f546865207661756c7420646f6573206e6f74206861766520737566666963696560008201527f6e7420737461626c6520636f696e000000000000000000000000000000000000602082015250565b7f5573657220686173206e6f7420617070726f76656420746865207661756c742060008201527f666f722073756666696369656e7420737461626c6520636f696e000000000000602082015250565b7f557365722068617320696e73756666696369656e7420737461626c6520636f6960008201527f6e00000000000000000000000000000000000000000000000000000000000000602082015250565b7f42616c616e6365206f662047464920636f696e206d7573742062652030000000600082015250565b7f4f776e61626c653a2063616c6c6572206973206e6f7420746865206f776e6572600082015250565b7f42616c616e6365206f6620737461626c6520636f696e206d7573742062652030600082015250565b7f5573657220646f6573206e6f74206f776e207468697320746f6b656e00000000600082015250565b7f416464726573733a2063616c6c20746f206e6f6e2d636f6e7472616374000000600082015250565b7f5661756c7420686173206e6f7420737461727420616363657074696e6720646560008201527f706f736974730000000000000000000000000000000000000000000000000000602082015250565b7f5361666545524332303a204552433230206f7065726174696f6e20646964206e60008201527f6f74207375636365656400000000000000000000000000000000000000000000602082015250565b7f54686520616d6f756e74206f6620737461626c6520636f696e20746f2067657460008201527f206973206e6f74206c6172676572207468616e20300000000000000000000000602082015250565b7f42616c616e6365206f66204669647520636f696e206d75737420626520300000600082015250565b7f557365722068617320696e73756666696369656e7420616c6c6f797820636f6960008201527f6e00000000000000000000000000000000000000000000000000000000000000602082015250565b7f4e6f7420476f6c6466696e636820506f6f6c20546f6b656e0000000000000000600082015250565b614ae981614307565b8114614af457600080fd5b50565b614b0081614319565b8114614b0b57600080fd5b50565b614b178161432b565b8114614b2257600080fd5b50565b614b2e81614383565b8114614b3957600080fd5b5056fea2646970667358221220be4f63b959b7ee630643cd2ba233baedc599cf2f9521effdec19a3c61c6faff664736f6c63430008070033",
  "devdoc": {
    "author": "AlloyX",
    "kind": "dev",
    "methods": {
      "depositAlloyxBronzeTokens(uint256)": {
        "params": {
          "_tokenAmount": "Number of Alloy Tokens"
        }
      },
      "depositNFTToken(address,uint256)": {
        "params": {
          "_tokenAddress": "NFT Address",
          "_tokenID": "NFT ID"
        }
      },
      "depositUSDCCoin(uint256)": {
        "params": {
          "_tokenAmount": "Number of stable coin"
        }
      },
      "isValidPool(address,uint256)": {
        "params": {
          "_tokenAddress": "The backer NFT address",
          "_tokenID": "The backer NFT id"
        }
      },
      "onERC721Received(address,address,uint256,bytes)": {
        "details": "See {IERC721Receiver-onERC721Received}. Always returns `IERC721Receiver.onERC721Received.selector`."
      },
      "owner()": {
        "details": "Returns the address of the current owner."
      },
      "paused()": {
        "details": "Returns true if the contract is paused, and false otherwise."
      },
      "renounceOwnership()": {
        "details": "Leaves the contract without owner. It will not be possible to call `onlyOwner` functions anymore. Can only be called by the current owner. NOTE: Renouncing ownership will leave the contract without an owner, thereby removing any functionality that is only available to the owner."
      },
      "transferOwnership(address)": {
        "details": "Transfers ownership of the contract to a new account (`newOwner`). Can only be called by the current owner."
      }
    },
    "title": "AlloyX Vault",
    "version": 1
  },
  "userdoc": {
    "kind": "user",
    "methods": {
      "depositAlloyxBronzeTokens(uint256)": {
        "notice": "An Alloy token holder can deposit their tokens and redeem them for USDC"
      },
      "depositNFTToken(address,uint256)": {
        "notice": "A Junior token holder can deposit their NFT for stable coin"
      },
      "depositUSDCCoin(uint256)": {
        "notice": "A Liquidity Provider can deposit supported stable coins for Alloy Tokens"
      },
      "isValidPool(address,uint256)": {
        "notice": "Using the PoolTokens interface, check if this is a valid pool"
      },
      "startVaultOperation()": {
        "notice": "Initialize by minting the alloy brown tokens to owner"
      }
    },
    "notice": "Initial vault for AlloyX. This vault holds loan tokens generated on Goldfinch and emits AlloyTokens when a liquidity provider deposits supported stable coins. The contract uses a pricing oracle to determine the value of the underlying assets",
    "version": 1
  },
  "storageLayout": {
    "storage": [
      {
        "astId": 2183,
        "contract": "contracts/alloyx/v2.0/AlloyVault.sol:AlloyVault",
        "label": "_owner",
        "offset": 0,
        "slot": "0",
        "type": "t_address"
      },
      {
        "astId": 2298,
        "contract": "contracts/alloyx/v2.0/AlloyVault.sol:AlloyVault",
        "label": "_paused",
        "offset": 20,
        "slot": "0",
        "type": "t_bool"
      },
      {
        "astId": 5497,
        "contract": "contracts/alloyx/v2.0/AlloyVault.sol:AlloyVault",
        "label": "vaultStarted",
        "offset": 21,
        "slot": "0",
        "type": "t_bool"
      },
      {
        "astId": 5500,
        "contract": "contracts/alloyx/v2.0/AlloyVault.sol:AlloyVault",
        "label": "usdcCoin",
        "offset": 0,
        "slot": "1",
        "type": "t_contract(IERC20)3038"
      },
      {
        "astId": 5503,
        "contract": "contracts/alloyx/v2.0/AlloyVault.sol:AlloyVault",
        "label": "gfiCoin",
        "offset": 0,
        "slot": "2",
        "type": "t_contract(IERC20)3038"
      },
      {
        "astId": 5506,
        "contract": "contracts/alloyx/v2.0/AlloyVault.sol:AlloyVault",
        "label": "fiduCoin",
        "offset": 0,
        "slot": "3",
        "type": "t_contract(IERC20)3038"
      },
      {
        "astId": 5509,
        "contract": "contracts/alloyx/v2.0/AlloyVault.sol:AlloyVault",
        "label": "goldFinchPoolToken",
        "offset": 0,
        "slot": "4",
        "type": "t_contract(IPoolTokens)6806"
      },
      {
        "astId": 5512,
        "contract": "contracts/alloyx/v2.0/AlloyVault.sol:AlloyVault",
        "label": "alloyxTokenBronze",
        "offset": 0,
        "slot": "5",
        "type": "t_contract(AlloyxTokenBronze)4271"
      },
      {
        "astId": 5515,
        "contract": "contracts/alloyx/v2.0/AlloyVault.sol:AlloyVault",
        "label": "alloyTokenSilver",
        "offset": 0,
        "slot": "6",
        "type": "t_contract(AlloyxTokenSilver)4334"
      },
      {
        "astId": 5518,
        "contract": "contracts/alloyx/v2.0/AlloyVault.sol:AlloyVault",
        "label": "seniorPool",
        "offset": 0,
        "slot": "7",
        "type": "t_contract(ISeniorPool)6902"
      }
    ],
    "types": {
      "t_address": {
        "encoding": "inplace",
        "label": "address",
        "numberOfBytes": "20"
      },
      "t_bool": {
        "encoding": "inplace",
        "label": "bool",
        "numberOfBytes": "1"
      },
      "t_contract(AlloyxTokenBronze)4271": {
        "encoding": "inplace",
        "label": "contract AlloyxTokenBronze",
        "numberOfBytes": "20"
      },
      "t_contract(AlloyxTokenSilver)4334": {
        "encoding": "inplace",
        "label": "contract AlloyxTokenSilver",
        "numberOfBytes": "20"
      },
      "t_contract(IERC20)3038": {
        "encoding": "inplace",
        "label": "contract IERC20",
        "numberOfBytes": "20"
      },
      "t_contract(IPoolTokens)6806": {
        "encoding": "inplace",
        "label": "contract IPoolTokens",
        "numberOfBytes": "20"
      },
      "t_contract(ISeniorPool)6902": {
        "encoding": "inplace",
        "label": "contract ISeniorPool",
        "numberOfBytes": "20"
      }
    }
  }
}