{
  "address": "0x08f29aA4D97a91Eb81366A295E0BB8aeeB808247",
  "abi": [
    {
      "inputs": [
        {
          "internalType": "address",
          "name": "_alloyxAddress",
          "type": "address"
        },
        {
          "internalType": "address",
          "name": "_stableCoinAddress",
          "type": "address"
        },
        {
          "internalType": "address",
          "name": "_fiduCoinAddress",
          "type": "address"
        },
        {
          "internalType": "address",
          "name": "_gfiCoinAddress",
          "type": "address"
        }
      ],
      "stateMutability": "nonpayable",
      "type": "constructor"
    },
    {
      "anonymous": false,
      "inputs": [
        {
          "indexed": false,
          "internalType": "address",
          "name": "_tokenReceiver",
          "type": "address"
        },
        {
          "indexed": false,
          "internalType": "uint256",
          "name": "_tokenAmount",
          "type": "uint256"
        }
      ],
      "name": "Burn",
      "type": "event"
    },
    {
      "anonymous": false,
      "inputs": [
        {
          "indexed": true,
          "internalType": "bytes32",
          "name": "id",
          "type": "bytes32"
        }
      ],
      "name": "ChainlinkCancelled",
      "type": "event"
    },
    {
      "anonymous": false,
      "inputs": [
        {
          "indexed": true,
          "internalType": "bytes32",
          "name": "id",
          "type": "bytes32"
        }
      ],
      "name": "ChainlinkFulfilled",
      "type": "event"
    },
    {
      "anonymous": false,
      "inputs": [
        {
          "indexed": true,
          "internalType": "bytes32",
          "name": "id",
          "type": "bytes32"
        }
      ],
      "name": "ChainlinkRequested",
      "type": "event"
    },
    {
      "anonymous": false,
      "inputs": [
        {
          "indexed": false,
          "internalType": "address",
          "name": "_tokenAddress",
          "type": "address"
        },
        {
          "indexed": false,
          "internalType": "address",
          "name": "_tokenSender",
          "type": "address"
        },
        {
          "indexed": false,
          "internalType": "uint256",
          "name": "_tokenAmount",
          "type": "uint256"
        }
      ],
      "name": "DepositAlloyx",
      "type": "event"
    },
    {
      "anonymous": false,
      "inputs": [
        {
          "indexed": false,
          "internalType": "address",
          "name": "_tokenAddress",
          "type": "address"
        },
        {
          "indexed": false,
          "internalType": "address",
          "name": "_tokenSender",
          "type": "address"
        },
        {
          "indexed": false,
          "internalType": "uint256",
          "name": "_tokenID",
          "type": "uint256"
        }
      ],
      "name": "DepositNFT",
      "type": "event"
    },
    {
      "anonymous": false,
      "inputs": [
        {
          "indexed": false,
          "internalType": "address",
          "name": "_tokenAddress",
          "type": "address"
        },
        {
          "indexed": false,
          "internalType": "address",
          "name": "_tokenSender",
          "type": "address"
        },
        {
          "indexed": false,
          "internalType": "uint256",
          "name": "_tokenAmount",
          "type": "uint256"
        }
      ],
      "name": "DepositStable",
      "type": "event"
    },
    {
      "anonymous": false,
      "inputs": [
        {
          "indexed": false,
          "internalType": "address",
          "name": "_tokenReceiver",
          "type": "address"
        },
        {
          "indexed": false,
          "internalType": "uint256",
          "name": "_tokenAmount",
          "type": "uint256"
        }
      ],
      "name": "Mint",
      "type": "event"
    },
    {
      "anonymous": false,
      "inputs": [
        {
          "indexed": true,
          "internalType": "address",
          "name": "previousOwner",
          "type": "address"
        },
        {
          "indexed": true,
          "internalType": "address",
          "name": "newOwner",
          "type": "address"
        }
      ],
      "name": "OwnershipTransferred",
      "type": "event"
    },
    {
      "anonymous": false,
      "inputs": [
        {
          "indexed": false,
          "internalType": "address",
          "name": "account",
          "type": "address"
        }
      ],
      "name": "Paused",
      "type": "event"
    },
    {
      "anonymous": false,
      "inputs": [
        {
          "indexed": false,
          "internalType": "address",
          "name": "account",
          "type": "address"
        }
      ],
      "name": "Unpaused",
      "type": "event"
    },
    {
      "inputs": [
        {
          "internalType": "address",
          "name": "_tokenAddress",
          "type": "address"
        }
      ],
      "name": "balanceOfToken",
      "outputs": [
        {
          "internalType": "uint256",
          "name": "",
          "type": "uint256"
        }
      ],
      "stateMutability": "view",
      "type": "function"
    },
    {
      "inputs": [
        {
          "internalType": "address",
          "name": "_alloyxAddress",
          "type": "address"
        }
      ],
      "name": "changeAlloyxAddress",
      "outputs": [],
      "stateMutability": "nonpayable",
      "type": "function"
    },
    {
      "inputs": [
        {
          "internalType": "uint256",
          "name": "_tokenAmount",
          "type": "uint256"
        }
      ],
      "name": "depositAlloyTokens",
      "outputs": [
        {
          "internalType": "bool",
          "name": "",
          "type": "bool"
        }
      ],
      "stateMutability": "nonpayable",
      "type": "function"
    },
    {
      "inputs": [
        {
          "internalType": "address",
          "name": "_tokenAddress",
          "type": "address"
        },
        {
          "internalType": "uint256",
          "name": "_tokenID",
          "type": "uint256"
        }
      ],
      "name": "depositNFTToken",
      "outputs": [
        {
          "internalType": "bool",
          "name": "",
          "type": "bool"
        }
      ],
      "stateMutability": "nonpayable",
      "type": "function"
    },
    {
      "inputs": [
        {
          "internalType": "uint256",
          "name": "_tokenAmount",
          "type": "uint256"
        }
      ],
      "name": "depositStableCoin",
      "outputs": [
        {
          "internalType": "bool",
          "name": "",
          "type": "bool"
        }
      ],
      "stateMutability": "nonpayable",
      "type": "function"
    },
    {
      "inputs": [],
      "name": "destroy",
      "outputs": [],
      "stateMutability": "nonpayable",
      "type": "function"
    },
    {
      "inputs": [
        {
          "internalType": "bytes32",
          "name": "_requestId",
          "type": "bytes32"
        },
        {
          "internalType": "uint256",
          "name": "_result",
          "type": "uint256"
        }
      ],
      "name": "fulfill",
      "outputs": [],
      "stateMutability": "nonpayable",
      "type": "function"
    },
    {
      "inputs": [
        {
          "internalType": "address",
          "name": "_tokenAddress",
          "type": "address"
        },
        {
          "internalType": "uint256",
          "name": "_tokenID",
          "type": "uint256"
        }
      ],
      "name": "getJuniorTokenValue",
      "outputs": [
        {
          "internalType": "uint256",
          "name": "",
          "type": "uint256"
        }
      ],
      "stateMutability": "view",
      "type": "function"
    },
    {
      "inputs": [
        {
          "internalType": "address",
          "name": "_tokenAddress",
          "type": "address"
        },
        {
          "internalType": "uint256",
          "name": "_tokenID",
          "type": "uint256"
        }
      ],
      "name": "isValidPool",
      "outputs": [
        {
          "internalType": "bool",
          "name": "",
          "type": "bool"
        }
      ],
      "stateMutability": "view",
      "type": "function"
    },
    {
      "inputs": [
        {
          "internalType": "address",
          "name": "_tokenAddress",
          "type": "address"
        },
        {
          "internalType": "address payable",
          "name": "_to",
          "type": "address"
        }
      ],
      "name": "migrateERC20",
      "outputs": [],
      "stateMutability": "nonpayable",
      "type": "function"
    },
    {
      "inputs": [
        {
          "internalType": "address",
          "name": "_tokenAddress",
          "type": "address"
        },
        {
          "internalType": "address payable",
          "name": "_toAddress",
          "type": "address"
        },
        {
          "internalType": "uint256",
          "name": "_tokenID",
          "type": "uint256"
        }
      ],
      "name": "migrateNFT",
      "outputs": [],
      "stateMutability": "nonpayable",
      "type": "function"
    },
    {
      "inputs": [
        {
          "internalType": "address",
          "name": "",
          "type": "address"
        },
        {
          "internalType": "address",
          "name": "",
          "type": "address"
        },
        {
          "internalType": "uint256",
          "name": "",
          "type": "uint256"
        },
        {
          "internalType": "bytes",
          "name": "",
          "type": "bytes"
        }
      ],
      "name": "onERC721Received",
      "outputs": [
        {
          "internalType": "bytes4",
          "name": "",
          "type": "bytes4"
        }
      ],
      "stateMutability": "nonpayable",
      "type": "function"
    },
    {
      "inputs": [],
      "name": "owner",
      "outputs": [
        {
          "internalType": "address",
          "name": "",
          "type": "address"
        }
      ],
      "stateMutability": "view",
      "type": "function"
    },
    {
      "inputs": [],
      "name": "pause",
      "outputs": [],
      "stateMutability": "nonpayable",
      "type": "function"
    },
    {
      "inputs": [],
      "name": "paused",
      "outputs": [
        {
          "internalType": "bool",
          "name": "",
          "type": "bool"
        }
      ],
      "stateMutability": "view",
      "type": "function"
    },
    {
      "inputs": [],
      "name": "renounceOwnership",
      "outputs": [],
      "stateMutability": "nonpayable",
      "type": "function"
    },
    {
      "inputs": [],
      "name": "requestAlloyUSDCExchangeRate",
      "outputs": [
        {
          "internalType": "bytes32",
          "name": "requestId",
          "type": "bytes32"
        }
      ],
      "stateMutability": "nonpayable",
      "type": "function"
    },
    {
      "inputs": [
        {
          "internalType": "address",
          "name": "_to",
          "type": "address"
        }
      ],
      "name": "transferAlloyxOwnership",
      "outputs": [],
      "stateMutability": "nonpayable",
      "type": "function"
    },
    {
      "inputs": [
        {
          "internalType": "address",
          "name": "newOwner",
          "type": "address"
        }
      ],
      "name": "transferOwnership",
      "outputs": [],
      "stateMutability": "nonpayable",
      "type": "function"
    },
    {
      "inputs": [],
      "name": "unpause",
      "outputs": [],
      "stateMutability": "nonpayable",
      "type": "function"
    }
  ],
  "transactionHash": "0x54897ff869aadc5cce74da71ebf4307a07cba402d61fce3b8889e370afc88e71",
  "args": [
    "0xb7D25244472518F10f956db778dc88b57968f7A9",
    "0xeaE3F227e370d9333a7AF82058DDfd34B1BeB627",
    "0x6A2e821CCD293f6989080370ECe62751B4DAFB8f",
    "0x94fF8A71Cd9f8EE849c8259A7a246eA2ef276D8f"
  ],
  "numDeployments": 5,
  "solcInputHash": "b7df6730a121c8a2e44e34efb438aa6e",
  "bytecode": "0x608060405260016004553480156200001657600080fd5b50604051620056773803806200567783398181016040528101906200003c919062000423565b6200005c620000506200022060201b60201c565b6200022860201b60201c565b6000600660146101000a81548160ff02191690831515021790555062000087620002ee60201b60201c565b73c57b33452b4f7bb189bb5afae9cc4aba1f7a4fd8600960006101000a81548173ffffffffffffffffffffffffffffffffffffffff021916908373ffffffffffffffffffffffffffffffffffffffff1602179055507f6435323730643163333131393431643062303862656164323166656137373437600a8190555067016345785d8a0000600b8190555083600f60006101000a81548173ffffffffffffffffffffffffffffffffffffffff021916908373ffffffffffffffffffffffffffffffffffffffff16021790555082600c60006101000a81548173ffffffffffffffffffffffffffffffffffffffff021916908373ffffffffffffffffffffffffffffffffffffffff16021790555080600d60006101000a81548173ffffffffffffffffffffffffffffffffffffffff021916908373ffffffffffffffffffffffffffffffffffffffff16021790555081600e60006101000a81548173ffffffffffffffffffffffffffffffffffffffff021916908373ffffffffffffffffffffffffffffffffffffffff16021790555050505050620004e8565b600033905090565b6000600660009054906101000a900473ffffffffffffffffffffffffffffffffffffffff16905081600660006101000a81548173ffffffffffffffffffffffffffffffffffffffff021916908373ffffffffffffffffffffffffffffffffffffffff1602179055508173ffffffffffffffffffffffffffffffffffffffff168173ffffffffffffffffffffffffffffffffffffffff167f8be0079c531659141344cd1fd0a4f28419497f9722a3daafe3b4186f6b6457e060405160405180910390a35050565b6200039473c89bd4e1632d3a43cb03aaad5262cbe4038bc57173ffffffffffffffffffffffffffffffffffffffff166338cc48316040518163ffffffff1660e01b815260040160206040518083038186803b1580156200034d57600080fd5b505afa15801562000362573d6000803e3d6000fd5b505050506040513d601f19601f82011682018060405250810190620003889190620003f1565b6200039660201b60201c565b565b80600260006101000a81548173ffffffffffffffffffffffffffffffffffffffff021916908373ffffffffffffffffffffffffffffffffffffffff16021790555050565b600081519050620003eb81620004ce565b92915050565b6000602082840312156200040a5762000409620004c9565b5b60006200041a84828501620003da565b91505092915050565b6000806000806080858703121562000440576200043f620004c9565b5b60006200045087828801620003da565b94505060206200046387828801620003da565b93505060406200047687828801620003da565b92505060606200048987828801620003da565b91505092959194509250565b6000620004a282620004a9565b9050919050565b600073ffffffffffffffffffffffffffffffffffffffff82169050919050565b600080fd5b620004d98162000495565b8114620004e557600080fd5b50565b61517f80620004f86000396000f3fe608060405234801561001057600080fd5b506004361061012c5760003560e01c806383197ef0116100ad578063b338ad1611610071578063b338ad16146102f7578063b99152d014610327578063d8ec060814610357578063d905e9b414610373578063f2fde38b1461038f5761012c565b806383197ef0146102775780638456cb59146102815780638da5cb5b1461028b578063a0725d93146102a9578063a755d092146102d95761012c565b8063472e4446116100f4578063472e4446146101d357806354bca56e146102035780635c975abb1461021f578063715018a61461023d57806371583d4c146102475761012c565b80630636f05c14610131578063150b7a021461014d578063354d3c301461017d5780633f4ba83a146101ad5780634357855e146101b7575b600080fd5b61014b600480360381019061014691906139ef565b6103ab565b005b61016760048036038101906101629190613a42565b6104e2565b604051610174919061427d565b60405180910390f35b61019760048036038101906101929190613ac5565b6104f6565b6040516101a49190614247565b60405180910390f35b6101b5610626565b005b6101d160048036038101906101cc9190613b32565b6106f3565b005b6101ed60048036038101906101e89190613ac5565b610fff565b6040516101fa919061457a565b60405180910390f35b61021d60048036038101906102189190613955565b6111af565b005b61022761126f565b6040516102349190614247565b60405180910390f35b610245611286565b005b610261600480360381019061025c9190613b9f565b61130e565b60405161026e9190614247565b60405180910390f35b61027f6116e6565b005b610289611a95565b005b610293611b63565b6040516102a091906140a9565b60405180910390f35b6102c360048036038101906102be9190613b9f565b611b8d565b6040516102d09190614247565b60405180910390f35b6102e1611f65565b6040516102ee9190614262565b60405180910390f35b610311600480360381019061030c9190613ac5565b612015565b60405161031e9190614247565b60405180910390f35b610341600480360381019061033c9190613955565b6124db565b60405161034e919061457a565b60405180910390f35b610371600480360381019061036c9190613955565b61256d565b005b61038d600480360381019061038891906139af565b6126c0565b005b6103a960048036038101906103a49190613955565b612840565b005b6103b3612938565b73ffffffffffffffffffffffffffffffffffffffff166103d1611b63565b73ffffffffffffffffffffffffffffffffffffffff1614610427576040517f08c379a000000000000000000000000000000000000000000000000000000000815260040161041e9061443a565b60405180910390fd5b61042f61126f565b61046e576040517f08c379a0000000000000000000000000000000000000000000000000000000008152600401610465906142da565b60405180910390fd5b8273ffffffffffffffffffffffffffffffffffffffff166342842e0e3084846040518463ffffffff1660e01b81526004016104ab939291906140ed565b600060405180830381600087803b1580156104c557600080fd5b505af11580156104d9573d6000803e3d6000fd5b50505050505050565b600063150b7a0260e01b9050949350505050565b60008083905060008173ffffffffffffffffffffffffffffffffffffffff16638c7a63ae856040518263ffffffff1660e01b8152600401610537919061457a565b60a06040518083038186803b15801561054f57600080fd5b505afa158015610563573d6000803e3d6000fd5b505050506040513d601f19601f820116820180604052508101906105879190613b72565b90506000816000015190508273ffffffffffffffffffffffffffffffffffffffff1663b5ada6d8826040518263ffffffff1660e01b81526004016105cb91906140a9565b60206040518083038186803b1580156105e357600080fd5b505afa1580156105f7573d6000803e3d6000fd5b505050506040513d601f19601f8201168201806040525081019061061b9190613b05565b935050505092915050565b61062e612938565b73ffffffffffffffffffffffffffffffffffffffff1661064c611b63565b73ffffffffffffffffffffffffffffffffffffffff16146106a2576040517f08c379a00000000000000000000000000000000000000000000000000000000081526004016106999061443a565b60405180910390fd5b6106aa61126f565b6106e9576040517f08c379a00000000000000000000000000000000000000000000000000000000081526004016106e0906142da565b60405180910390fd5b6106f1612940565b565b816005600082815260200190815260200160002060009054906101000a900473ffffffffffffffffffffffffffffffffffffffff1673ffffffffffffffffffffffffffffffffffffffff163373ffffffffffffffffffffffffffffffffffffffff1614610795576040517f08c379a000000000000000000000000000000000000000000000000000000000815260040161078c906144ba565b60405180910390fd5b6005600082815260200190815260200160002060006101000a81549073ffffffffffffffffffffffffffffffffffffffff0219169055807f7cc135e0cebb02c3480ae5d74d377283180a2601f8f644edf7987b009316c63a60405160405180910390a260006007600085815260200190815260200160002060010154905060006007600086815260200190815260200160002060000160009054906101000a900473ffffffffffffffffffffffffffffffffffffffff16905060006007600087815260200190815260200160002060020160009054906101000a900473ffffffffffffffffffffffffffffffffffffffff16905060006007600088815260200190815260200160002060030160009054906101000a900473ffffffffffffffffffffffffffffffffffffffff169050600c60009054906101000a900473ffffffffffffffffffffffffffffffffffffffff1673ffffffffffffffffffffffffffffffffffffffff168273ffffffffffffffffffffffffffffffffffffffff1614801561096e5750600f60009054906101000a900473ffffffffffffffffffffffffffffffffffffffff1673ffffffffffffffffffffffffffffffffffffffff168173ffffffffffffffffffffffffffffffffffffffff16145b15610beb57600061099e6305f5e100610990878a6129e290919063ffffffff16565b6129f890919063ffffffff16565b9050600081116109e3576040517f08c379a00000000000000000000000000000000000000000000000000000000081526004016109da906144fa565b60405180910390fd5b610a32843087600c60009054906101000a900473ffffffffffffffffffffffffffffffffffffffff1673ffffffffffffffffffffffffffffffffffffffff16612a0e909392919063ffffffff16565b600f60009054906101000a900473ffffffffffffffffffffffffffffffffffffffff1673ffffffffffffffffffffffffffffffffffffffff166340c10f1985836040518363ffffffff1660e01b8152600401610a8f92919061415b565b602060405180830381600087803b158015610aa957600080fd5b505af1158015610abd573d6000803e3d6000fd5b505050506040513d601f19601f82011682018060405250810190610ae19190613b05565b5060076000898152602001908152602001600020600080820160006101000a81549073ffffffffffffffffffffffffffffffffffffffff021916905560018201600090556002820160006101000a81549073ffffffffffffffffffffffffffffffffffffffff02191690556003820160006101000a81549073ffffffffffffffffffffffffffffffffffffffff021916905550507fa4f358c78f73b2049a06e0436c6728292334862a6fc2114f2de13f9cff58491f838587604051610ba893929190614124565b60405180910390a17f0f6798a560793a54c3bcfe86a93cde1e73087d944c0ea20544137d41213968858482604051610be192919061415b565b60405180910390a1505b600f60009054906101000a900473ffffffffffffffffffffffffffffffffffffffff1673ffffffffffffffffffffffffffffffffffffffff168273ffffffffffffffffffffffffffffffffffffffff16148015610c955750600c60009054906101000a900473ffffffffffffffffffffffffffffffffffffffff1673ffffffffffffffffffffffffffffffffffffffff168173ffffffffffffffffffffffffffffffffffffffff16145b15610ff657600086610cb46305f5e100876129e290919063ffffffff16565b610cbe9190614684565b905060008111610d03576040517f08c379a0000000000000000000000000000000000000000000000000000000008152600401610cfa9061451a565b60405180910390fd5b80600c60009054906101000a900473ffffffffffffffffffffffffffffffffffffffff1673ffffffffffffffffffffffffffffffffffffffff166370a08231306040518263ffffffff1660e01b8152600401610d5f91906140a9565b60206040518083038186803b158015610d7757600080fd5b505afa158015610d8b573d6000803e3d6000fd5b505050506040513d601f19601f82011682018060405250810190610daf9190613bcc565b1015610df0576040517f08c379a0000000000000000000000000000000000000000000000000000000008152600401610de7906143ba565b60405180910390fd5b600f60009054906101000a900473ffffffffffffffffffffffffffffffffffffffff1673ffffffffffffffffffffffffffffffffffffffff16639dc29fac85876040518363ffffffff1660e01b8152600401610e4d92919061415b565b602060405180830381600087803b158015610e6757600080fd5b505af1158015610e7b573d6000803e3d6000fd5b505050506040513d601f19601f82011682018060405250810190610e9f9190613b05565b50610eed8482600c60009054906101000a900473ffffffffffffffffffffffffffffffffffffffff1673ffffffffffffffffffffffffffffffffffffffff16612a979092919063ffffffff16565b60076000898152602001908152602001600020600080820160006101000a81549073ffffffffffffffffffffffffffffffffffffffff021916905560018201600090556002820160006101000a81549073ffffffffffffffffffffffffffffffffffffffff02191690556003820160006101000a81549073ffffffffffffffffffffffffffffffffffffffff021916905550507f53fee901a59b4d2e659e450f8db17fc345e158fe408d2b39faf66d1f8c4a54fe838587604051610fb393929190614124565b60405180910390a17fcc16f5dbb4873280815c1ee09dbd06736cffcc184412cf7a71a0fdb75d397ca58486604051610fec92919061415b565b60405180910390a1505b50505050505050565b60008083905060008173ffffffffffffffffffffffffffffffffffffffff16638c7a63ae856040518263ffffffff1660e01b8152600401611040919061457a565b60a06040518083038186803b15801561105857600080fd5b505afa15801561106c573d6000803e3d6000fd5b505050506040513d601f19601f820116820180604052508101906110909190613b72565b905060008160400151905060006110b883608001518460600151612b1d90919063ffffffff16565b905060008360000151905060008190506000808273ffffffffffffffffffffffffffffffffffffffff16634d02fe6f8b6040518263ffffffff1660e01b8152600401611104919061457a565b604080518083038186803b15801561111b57600080fd5b505afa15801561112f573d6000803e3d6000fd5b505050506040513d601f19601f820116820180604052508101906111539190613bf9565b91509150600082905086821015611179576111778282612b1d90919063ffffffff16565b505b61119e81611190888a612b3390919063ffffffff16565b612b1d90919063ffffffff16565b995050505050505050505092915050565b6111b7612938565b73ffffffffffffffffffffffffffffffffffffffff166111d5611b63565b73ffffffffffffffffffffffffffffffffffffffff161461122b576040517f08c379a00000000000000000000000000000000000000000000000000000000081526004016112229061443a565b60405180910390fd5b80600f60006101000a81548173ffffffffffffffffffffffffffffffffffffffff021916908373ffffffffffffffffffffffffffffffffffffffff16021790555050565b6000600660149054906101000a900460ff16905090565b61128e612938565b73ffffffffffffffffffffffffffffffffffffffff166112ac611b63565b73ffffffffffffffffffffffffffffffffffffffff1614611302576040517f08c379a00000000000000000000000000000000000000000000000000000000081526004016112f99061443a565b60405180910390fd5b61130c6000612b49565b565b600061131861126f565b15611358576040517f08c379a000000000000000000000000000000000000000000000000000000000815260040161134f9061439a565b60405180910390fd5b81600c60009054906101000a900473ffffffffffffffffffffffffffffffffffffffff1673ffffffffffffffffffffffffffffffffffffffff166370a08231336040518263ffffffff1660e01b81526004016113b491906140a9565b60206040518083038186803b1580156113cc57600080fd5b505afa1580156113e0573d6000803e3d6000fd5b505050506040513d601f19601f820116820180604052508101906114049190613bcc565b1015611445576040517f08c379a000000000000000000000000000000000000000000000000000000000815260040161143c906143fa565b60405180910390fd5b81600c60009054906101000a900473ffffffffffffffffffffffffffffffffffffffff1673ffffffffffffffffffffffffffffffffffffffff1663dd62ed3e33306040518363ffffffff1660e01b81526004016114a39291906140c4565b60206040518083038186803b1580156114bb57600080fd5b505afa1580156114cf573d6000803e3d6000fd5b505050506040513d601f19601f820116820180604052508101906114f39190613bcc565b1015611534576040517f08c379a000000000000000000000000000000000000000000000000000000000815260040161152b906143da565b60405180910390fd5b600061153e611f65565b905060405180608001604052803373ffffffffffffffffffffffffffffffffffffffff168152602001848152602001600c60009054906101000a900473ffffffffffffffffffffffffffffffffffffffff1673ffffffffffffffffffffffffffffffffffffffff168152602001600f60009054906101000a900473ffffffffffffffffffffffffffffffffffffffff1673ffffffffffffffffffffffffffffffffffffffff168152506007600083815260200190815260200160002060008201518160000160006101000a81548173ffffffffffffffffffffffffffffffffffffffff021916908373ffffffffffffffffffffffffffffffffffffffff1602179055506020820151816001015560408201518160020160006101000a81548173ffffffffffffffffffffffffffffffffffffffff021916908373ffffffffffffffffffffffffffffffffffffffff16021790555060608201518160030160006101000a81548173ffffffffffffffffffffffffffffffffffffffff021916908373ffffffffffffffffffffffffffffffffffffffff1602179055509050506001915050919050565b6116ee612938565b73ffffffffffffffffffffffffffffffffffffffff1661170c611b63565b73ffffffffffffffffffffffffffffffffffffffff1614611762576040517f08c379a00000000000000000000000000000000000000000000000000000000081526004016117599061443a565b60405180910390fd5b61176a61126f565b6117a9576040517f08c379a00000000000000000000000000000000000000000000000000000000081526004016117a0906142da565b60405180910390fd5b6000600c60009054906101000a900473ffffffffffffffffffffffffffffffffffffffff1673ffffffffffffffffffffffffffffffffffffffff166370a08231306040518263ffffffff1660e01b815260040161180691906140a9565b60206040518083038186803b15801561181e57600080fd5b505afa158015611832573d6000803e3d6000fd5b505050506040513d601f19601f820116820180604052508101906118569190613bcc565b14611896576040517f08c379a000000000000000000000000000000000000000000000000000000000815260040161188d9061445a565b60405180910390fd5b6000600e60009054906101000a900473ffffffffffffffffffffffffffffffffffffffff1673ffffffffffffffffffffffffffffffffffffffff166370a08231306040518263ffffffff1660e01b81526004016118f391906140a9565b60206040518083038186803b15801561190b57600080fd5b505afa15801561191f573d6000803e3d6000fd5b505050506040513d601f19601f820116820180604052508101906119439190613bcc565b14611983576040517f08c379a000000000000000000000000000000000000000000000000000000000815260040161197a9061453a565b60405180910390fd5b6000600d60009054906101000a900473ffffffffffffffffffffffffffffffffffffffff1673ffffffffffffffffffffffffffffffffffffffff166370a08231306040518263ffffffff1660e01b81526004016119e091906140a9565b60206040518083038186803b1580156119f857600080fd5b505afa158015611a0c573d6000803e3d6000fd5b505050506040513d601f19601f82011682018060405250810190611a309190613bcc565b14611a70576040517f08c379a0000000000000000000000000000000000000000000000000000000008152600401611a679061441a565b60405180910390fd5b6000611a7a611b63565b90508073ffffffffffffffffffffffffffffffffffffffff16ff5b611a9d612938565b73ffffffffffffffffffffffffffffffffffffffff16611abb611b63565b73ffffffffffffffffffffffffffffffffffffffff1614611b11576040517f08c379a0000000000000000000000000000000000000000000000000000000008152600401611b089061443a565b60405180910390fd5b611b1961126f565b15611b59576040517f08c379a0000000000000000000000000000000000000000000000000000000008152600401611b509061439a565b60405180910390fd5b611b61612c0f565b565b6000600660009054906101000a900473ffffffffffffffffffffffffffffffffffffffff16905090565b6000611b9761126f565b15611bd7576040517f08c379a0000000000000000000000000000000000000000000000000000000008152600401611bce9061439a565b60405180910390fd5b81600f60009054906101000a900473ffffffffffffffffffffffffffffffffffffffff1673ffffffffffffffffffffffffffffffffffffffff166370a08231336040518263ffffffff1660e01b8152600401611c3391906140a9565b60206040518083038186803b158015611c4b57600080fd5b505afa158015611c5f573d6000803e3d6000fd5b505050506040513d601f19601f82011682018060405250810190611c839190613bcc565b1015611cc4576040517f08c379a0000000000000000000000000000000000000000000000000000000008152600401611cbb9061455a565b60405180910390fd5b81600f60009054906101000a900473ffffffffffffffffffffffffffffffffffffffff1673ffffffffffffffffffffffffffffffffffffffff1663dd62ed3e33306040518363ffffffff1660e01b8152600401611d229291906140c4565b60206040518083038186803b158015611d3a57600080fd5b505afa158015611d4e573d6000803e3d6000fd5b505050506040513d601f19601f82011682018060405250810190611d729190613bcc565b1015611db3576040517f08c379a0000000000000000000000000000000000000000000000000000000008152600401611daa906142fa565b60405180910390fd5b6000611dbd611f65565b905060405180608001604052803373ffffffffffffffffffffffffffffffffffffffff168152602001848152602001600f60009054906101000a900473ffffffffffffffffffffffffffffffffffffffff1673ffffffffffffffffffffffffffffffffffffffff168152602001600c60009054906101000a900473ffffffffffffffffffffffffffffffffffffffff1673ffffffffffffffffffffffffffffffffffffffff168152506007600083815260200190815260200160002060008201518160000160006101000a81548173ffffffffffffffffffffffffffffffffffffffff021916908373ffffffffffffffffffffffffffffffffffffffff1602179055506020820151816001015560408201518160020160006101000a81548173ffffffffffffffffffffffffffffffffffffffff021916908373ffffffffffffffffffffffffffffffffffffffff16021790555060608201518160030160006101000a81548173ffffffffffffffffffffffffffffffffffffffff021916908373ffffffffffffffffffffffffffffffffffffffff1602179055509050506001915050919050565b600080611f7c600a5430634357855e60e01b612cb2565b9050611fe06040518060400160405280600381526020017f67657400000000000000000000000000000000000000000000000000000000008152506040518060600160405280603381526020016151176033913983612ce39092919063ffffffff16565b61200f600960009054906101000a900473ffffffffffffffffffffffffffffffffffffffff1682600b54612d16565b91505090565b600061201f61126f565b1561205f576040517f08c379a00000000000000000000000000000000000000000000000000000000081526004016120569061439a565b60405180910390fd5b6001151561206d84846104f6565b1515146120af576040517f08c379a00000000000000000000000000000000000000000000000000000000081526004016120a69061433a565b60405180910390fd5b3373ffffffffffffffffffffffffffffffffffffffff168373ffffffffffffffffffffffffffffffffffffffff16636352211e846040518263ffffffff1660e01b81526004016120ff919061457a565b60206040518083038186803b15801561211757600080fd5b505afa15801561212b573d6000803e3d6000fd5b505050506040513d601f19601f8201168201806040525081019061214f9190613982565b73ffffffffffffffffffffffffffffffffffffffff16146121a5576040517f08c379a000000000000000000000000000000000000000000000000000000000815260040161219c9061447a565b60405180910390fd5b3073ffffffffffffffffffffffffffffffffffffffff168373ffffffffffffffffffffffffffffffffffffffff1663081812fc846040518263ffffffff1660e01b81526004016121f5919061457a565b60206040518083038186803b15801561220d57600080fd5b505afa158015612221573d6000803e3d6000fd5b505050506040513d601f19601f820116820180604052508101906122459190613982565b73ffffffffffffffffffffffffffffffffffffffff161461229b576040517f08c379a0000000000000000000000000000000000000000000000000000000008152600401612292906142ba565b60405180910390fd5b60006122a78484610fff565b9050600081116122ec576040517f08c379a00000000000000000000000000000000000000000000000000000000081526004016122e39061451a565b60405180910390fd5b80600c60009054906101000a900473ffffffffffffffffffffffffffffffffffffffff1673ffffffffffffffffffffffffffffffffffffffff166370a08231306040518263ffffffff1660e01b815260040161234891906140a9565b60206040518083038186803b15801561236057600080fd5b505afa158015612374573d6000803e3d6000fd5b505050506040513d601f19601f820116820180604052508101906123989190613bcc565b10156123d9576040517f08c379a00000000000000000000000000000000000000000000000000000000081526004016123d0906143ba565b60405180910390fd5b8373ffffffffffffffffffffffffffffffffffffffff166342842e0e3330866040518463ffffffff1660e01b815260040161241693929190614124565b600060405180830381600087803b15801561243057600080fd5b505af1158015612444573d6000803e3d6000fd5b505050506124953382600c60009054906101000a900473ffffffffffffffffffffffffffffffffffffffff1673ffffffffffffffffffffffffffffffffffffffff16612a979092919063ffffffff16565b7fc7e8b1bdbecdc8a549557efb2a2ab715cff51630caead31610000019e61dfa4b8433856040516124c893929190614124565b60405180910390a1600191505092915050565b60008173ffffffffffffffffffffffffffffffffffffffff166370a08231306040518263ffffffff1660e01b815260040161251691906140a9565b60206040518083038186803b15801561252e57600080fd5b505afa158015612542573d6000803e3d6000fd5b505050506040513d601f19601f820116820180604052508101906125669190613bcc565b9050919050565b612575612938565b73ffffffffffffffffffffffffffffffffffffffff16612593611b63565b73ffffffffffffffffffffffffffffffffffffffff16146125e9576040517f08c379a00000000000000000000000000000000000000000000000000000000081526004016125e09061443a565b60405180910390fd5b6125f161126f565b612630576040517f08c379a0000000000000000000000000000000000000000000000000000000008152600401612627906142da565b60405180910390fd5b600f60009054906101000a900473ffffffffffffffffffffffffffffffffffffffff1673ffffffffffffffffffffffffffffffffffffffff1663f2fde38b826040518263ffffffff1660e01b815260040161268b91906140a9565b600060405180830381600087803b1580156126a557600080fd5b505af11580156126b9573d6000803e3d6000fd5b5050505050565b6126c8612938565b73ffffffffffffffffffffffffffffffffffffffff166126e6611b63565b73ffffffffffffffffffffffffffffffffffffffff161461273c576040517f08c379a00000000000000000000000000000000000000000000000000000000081526004016127339061443a565b60405180910390fd5b61274461126f565b612783576040517f08c379a000000000000000000000000000000000000000000000000000000000815260040161277a906142da565b60405180910390fd5b60008273ffffffffffffffffffffffffffffffffffffffff166370a08231306040518263ffffffff1660e01b81526004016127be91906140a9565b60206040518083038186803b1580156127d657600080fd5b505afa1580156127ea573d6000803e3d6000fd5b505050506040513d601f19601f8201168201806040525081019061280e9190613bcc565b905061283b82828573ffffffffffffffffffffffffffffffffffffffff16612a979092919063ffffffff16565b505050565b612848612938565b73ffffffffffffffffffffffffffffffffffffffff16612866611b63565b73ffffffffffffffffffffffffffffffffffffffff16146128bc576040517f08c379a00000000000000000000000000000000000000000000000000000000081526004016128b39061443a565b60405180910390fd5b600073ffffffffffffffffffffffffffffffffffffffff168173ffffffffffffffffffffffffffffffffffffffff16141561292c576040517f08c379a00000000000000000000000000000000000000000000000000000000081526004016129239061431a565b60405180910390fd5b61293581612b49565b50565b600033905090565b61294861126f565b612987576040517f08c379a000000000000000000000000000000000000000000000000000000000815260040161297e906142da565b60405180910390fd5b6000600660146101000a81548160ff0219169083151502179055507f5db9ee0a495bf2e6ff9c91a7834c1ba4fdd244a5e8aa4e537bd38aeae4b073aa6129cb612938565b6040516129d891906140a9565b60405180910390a1565b600081836129f09190614826565b905092915050565b60008183612a069190614684565b905092915050565b612a91846323b872dd60e01b858585604051602401612a2f93929190614124565b604051602081830303815290604052907bffffffffffffffffffffffffffffffffffffffffffffffffffffffff19166020820180517bffffffffffffffffffffffffffffffffffffffffffffffffffffffff8381831617835250505050612de2565b50505050565b612b188363a9059cbb60e01b8484604051602401612ab692919061415b565b604051602081830303815290604052907bffffffffffffffffffffffffffffffffffffffffffffffffffffffff19166020820180517bffffffffffffffffffffffffffffffffffffffffffffffffffffffff8381831617835250505050612de2565b505050565b60008183612b2b919061462e565b905092915050565b60008183612b419190614880565b905092915050565b6000600660009054906101000a900473ffffffffffffffffffffffffffffffffffffffff16905081600660006101000a81548173ffffffffffffffffffffffffffffffffffffffff021916908373ffffffffffffffffffffffffffffffffffffffff1602179055508173ffffffffffffffffffffffffffffffffffffffff168173ffffffffffffffffffffffffffffffffffffffff167f8be0079c531659141344cd1fd0a4f28419497f9722a3daafe3b4186f6b6457e060405160405180910390a35050565b612c1761126f565b15612c57576040517f08c379a0000000000000000000000000000000000000000000000000000000008152600401612c4e9061439a565b60405180910390fd5b6001600660146101000a81548160ff0219169083151502179055507f62e78cea01bee320cd4e420270b5ea74000d11b0c9f74754ebdbfc544b05a258612c9b612938565b604051612ca891906140a9565b60405180910390a1565b612cba61373f565b612cc261373f565b612cd985858584612ea9909392919063ffffffff16565b9150509392505050565b612cfa828460800151612f5990919063ffffffff16565b612d11818460800151612f5990919063ffffffff16565b505050565b6000806004549050600181612d2b919061462e565b6004819055506000634042994660e01b60008087600001513089604001518760018c6080015160000151604051602401612d6c989796959493929190614184565b604051602081830303815290604052907bffffffffffffffffffffffffffffffffffffffffffffffffffffffff19166020820180517bffffffffffffffffffffffffffffffffffffffffffffffffffffffff83818316178352505050509050612dd786838684612f7e565b925050509392505050565b6000612e44826040518060400160405280602081526020017f5361666545524332303a206c6f772d6c6576656c2063616c6c206661696c65648152508573ffffffffffffffffffffffffffffffffffffffff166131229092919063ffffffff16565b9050600081511115612ea45780806020019051810190612e649190613b05565b612ea3576040517f08c379a0000000000000000000000000000000000000000000000000000000008152600401612e9a906144da565b60405180910390fd5b5b505050565b612eb161373f565b612ec1856080015161010061313a565b508385600001818152505082856020019073ffffffffffffffffffffffffffffffffffffffff16908173ffffffffffffffffffffffffffffffffffffffff16815250508185604001907bffffffffffffffffffffffffffffffffffffffffffffffffffffffff191690817bffffffffffffffffffffffffffffffffffffffffffffffffffffffff191681525050849050949350505050565b612f6682600383516131a4565b612f79818361332990919063ffffffff16565b505050565b60003084604051602001612f9392919061407d565b604051602081830303815290604052805190602001209050846005600083815260200190815260200160002060006101000a81548173ffffffffffffffffffffffffffffffffffffffff021916908373ffffffffffffffffffffffffffffffffffffffff160217905550807fb5e6e01e79f91267dc17b4e6314d5d4d03593d2ceee0fbb452b750bd70ea5af960405160405180910390a2600260009054906101000a900473ffffffffffffffffffffffffffffffffffffffff1673ffffffffffffffffffffffffffffffffffffffff16634000aea08685856040518463ffffffff1660e01b815260040161308993929190614209565b602060405180830381600087803b1580156130a357600080fd5b505af11580156130b7573d6000803e3d6000fd5b505050506040513d601f19601f820116820180604052508101906130db9190613b05565b61311a576040517f08c379a00000000000000000000000000000000000000000000000000000000081526004016131119061435a565b60405180910390fd5b949350505050565b6060613131848460008561334b565b90509392505050565b6131426137ac565b60006020836131519190614a2d565b1461317d576020826131639190614a2d565b602061316f9190614880565b8261317a919061462e565b91505b81836020018181525050604051808452600081528281016020016040525082905092915050565b60178167ffffffffffffffff16116131db576131d58160058460ff16901b60ff16178461345f90919063ffffffff16565b50613324565b60ff8167ffffffffffffffff16116132315761320a601860058460ff16901b178461345f90919063ffffffff16565b5061322b8167ffffffffffffffff1660018561347f9092919063ffffffff16565b50613323565b61ffff8167ffffffffffffffff161161328857613261601960058460ff16901b178461345f90919063ffffffff16565b506132828167ffffffffffffffff1660028561347f9092919063ffffffff16565b50613322565b63ffffffff8167ffffffffffffffff16116132e1576132ba601a60058460ff16901b178461345f90919063ffffffff16565b506132db8167ffffffffffffffff1660048561347f9092919063ffffffff16565b50613321565b6132fe601b60058460ff16901b178461345f90919063ffffffff16565b5061331f8167ffffffffffffffff1660088561347f9092919063ffffffff16565b505b5b5b5b505050565b6133316137ac565b613343838460000151518485516134a1565b905092915050565b606082471015613390576040517f08c379a00000000000000000000000000000000000000000000000000000000081526004016133879061437a565b60405180910390fd5b61339985613590565b6133d8576040517f08c379a00000000000000000000000000000000000000000000000000000000081526004016133cf9061449a565b60405180910390fd5b6000808673ffffffffffffffffffffffffffffffffffffffff1685876040516134019190614066565b60006040518083038185875af1925050503d806000811461343e576040519150601f19603f3d011682016040523d82523d6000602084013e613443565b606091505b50915091506134538282866135b3565b92505050949350505050565b6134676137ac565b613477838460000151518461361a565b905092915050565b6134876137ac565b613498848560000151518585613671565b90509392505050565b6134a96137ac565b82518211156134b757600080fd5b846020015182856134c8919061462e565b11156134fd576134fc8560026134ed886020015188876134e8919061462e565b6136ff565b6134f79190614826565b61371b565b5b60008086518051876020830101935080888701111561351c5787860182525b60208701925050505b60208410613563578051825260208261353e919061462e565b915060208161354d919061462e565b905060208461355c9190614880565b9350613525565b60006001856020036101000a03905080198251168184511681811785525050508692505050949350505050565b6000808273ffffffffffffffffffffffffffffffffffffffff163b119050919050565b606083156135c357829050613613565b6000835111156135d65782518084602001fd5b816040517f08c379a000000000000000000000000000000000000000000000000000000000815260040161360a9190614298565b60405180910390fd5b9392505050565b6136226137ac565b836020015183106136485761364784600286602001516136429190614826565b61371b565b5b8351805160208583010184815381861415613664576001820183525b5050508390509392505050565b6136796137ac565b8460200151848361368a919061462e565b11156136b2576136b185600286856136a2919061462e565b6136ac9190614826565b61371b565b5b60006001836101006136c49190614708565b6136ce9190614880565b905085518386820101858319825116178152815185880111156136f15784870182525b505085915050949350505050565b60008183111561371157829050613715565b8190505b92915050565b60008260000151905061372e838361313a565b506137398382613329565b50505050565b6040518060a0016040528060008019168152602001600073ffffffffffffffffffffffffffffffffffffffff16815260200160007bffffffffffffffffffffffffffffffffffffffffffffffffffffffff19168152602001600081526020016137a66137ac565b81525090565b604051806040016040528060608152602001600081525090565b60006137d96137d4846145ba565b614595565b9050828152602081018484840111156137f5576137f4614af5565b5b61380084828561498c565b509392505050565b600081359050613817816150a3565b92915050565b60008151905061382c816150a3565b92915050565b600081359050613841816150ba565b92915050565b600081519050613856816150d1565b92915050565b60008135905061386b816150e8565b92915050565b600082601f83011261388657613885614aeb565b5b81356138968482602086016137c6565b91505092915050565b600060a082840312156138b5576138b4614af0565b5b6138bf60a0614595565b905060006138cf8482850161381d565b60008301525060206138e384828501613940565b60208301525060406138f784828501613940565b604083015250606061390b84828501613940565b606083015250608061391f84828501613940565b60808301525092915050565b60008135905061393a816150ff565b92915050565b60008151905061394f816150ff565b92915050565b60006020828403121561396b5761396a614aff565b5b600061397984828501613808565b91505092915050565b60006020828403121561399857613997614aff565b5b60006139a68482850161381d565b91505092915050565b600080604083850312156139c6576139c5614aff565b5b60006139d485828601613808565b92505060206139e585828601613832565b9150509250929050565b600080600060608486031215613a0857613a07614aff565b5b6000613a1686828701613808565b9350506020613a2786828701613832565b9250506040613a388682870161392b565b9150509250925092565b60008060008060808587031215613a5c57613a5b614aff565b5b6000613a6a87828801613808565b9450506020613a7b87828801613808565b9350506040613a8c8782880161392b565b925050606085013567ffffffffffffffff811115613aad57613aac614afa565b5b613ab987828801613871565b91505092959194509250565b60008060408385031215613adc57613adb614aff565b5b6000613aea85828601613808565b9250506020613afb8582860161392b565b9150509250929050565b600060208284031215613b1b57613b1a614aff565b5b6000613b2984828501613847565b91505092915050565b60008060408385031215613b4957613b48614aff565b5b6000613b578582860161385c565b9250506020613b688582860161392b565b9150509250929050565b600060a08284031215613b8857613b87614aff565b5b6000613b968482850161389f565b91505092915050565b600060208284031215613bb557613bb4614aff565b5b6000613bc38482850161392b565b91505092915050565b600060208284031215613be257613be1614aff565b5b6000613bf084828501613940565b91505092915050565b60008060408385031215613c1057613c0f614aff565b5b6000613c1e85828601613940565b9250506020613c2f85828601613940565b9150509250929050565b613c4281614944565b82525050565b613c51816148b4565b82525050565b613c60816148d8565b82525050565b613c6f816148e4565b82525050565b613c7e816148ee565b82525050565b6000613c8f826145eb565b613c998185614601565b9350613ca981856020860161499b565b613cb281614b04565b840191505092915050565b6000613cc8826145eb565b613cd28185614612565b9350613ce281856020860161499b565b80840191505092915050565b613cff613cfa82614956565b6149ff565b82525050565b6000613d10826145f6565b613d1a818561461d565b9350613d2a81856020860161499b565b613d3381614b04565b840191505092915050565b6000613d4b602e8361461d565b9150613d5682614b2f565b604082019050919050565b6000613d6e60148361461d565b9150613d7982614b7e565b602082019050919050565b6000613d91603a8361461d565b9150613d9c82614ba7565b604082019050919050565b6000613db460268361461d565b9150613dbf82614bf6565b604082019050919050565b6000613dd760108361461d565b9150613de282614c45565b602082019050919050565b6000613dfa60238361461d565b9150613e0582614c6e565b604082019050919050565b6000613e1d60268361461d565b9150613e2882614cbd565b604082019050919050565b6000613e4060108361461d565b9150613e4b82614d0c565b602082019050919050565b6000613e63602e8361461d565b9150613e6e82614d35565b604082019050919050565b6000613e86603a8361461d565b9150613e9182614d84565b604082019050919050565b6000613ea960218361461d565b9150613eb482614dd3565b604082019050919050565b6000613ecc601d8361461d565b9150613ed782614e22565b602082019050919050565b6000613eef60208361461d565b9150613efa82614e4b565b602082019050919050565b6000613f1260208361461d565b9150613f1d82614e74565b602082019050919050565b6000613f35601c8361461d565b9150613f4082614e9d565b602082019050919050565b6000613f58601d8361461d565b9150613f6382614ec6565b602082019050919050565b6000613f7b60288361461d565b9150613f8682614eef565b604082019050919050565b6000613f9e602a8361461d565b9150613fa982614f3e565b604082019050919050565b6000613fc160358361461d565b9150613fcc82614f8d565b604082019050919050565b6000613fe460358361461d565b9150613fef82614fdc565b604082019050919050565b6000614007601e8361461d565b91506140128261502b565b602082019050919050565b600061402a60218361461d565b915061403582615054565b604082019050919050565b6140498161493a565b82525050565b61406061405b8261493a565b614a23565b82525050565b60006140728284613cbd565b915081905092915050565b60006140898285613cee565b601482019150614099828461404f565b6020820191508190509392505050565b60006020820190506140be6000830184613c48565b92915050565b60006040820190506140d96000830185613c48565b6140e66020830184613c48565b9392505050565b60006060820190506141026000830186613c48565b61410f6020830185613c39565b61411c6040830184614040565b949350505050565b60006060820190506141396000830186613c48565b6141466020830185613c48565b6141536040830184614040565b949350505050565b60006040820190506141706000830185613c48565b61417d6020830184614040565b9392505050565b60006101008201905061419a600083018b613c48565b6141a7602083018a614040565b6141b46040830189613c66565b6141c16060830188613c48565b6141ce6080830187613c75565b6141db60a0830186614040565b6141e860c0830185614040565b81810360e08301526141fa8184613c84565b90509998505050505050505050565b600060608201905061421e6000830186613c48565b61422b6020830185614040565b818103604083015261423d8184613c84565b9050949350505050565b600060208201905061425c6000830184613c57565b92915050565b60006020820190506142776000830184613c66565b92915050565b60006020820190506142926000830184613c75565b92915050565b600060208201905081810360008301526142b28184613d05565b905092915050565b600060208201905081810360008301526142d381613d3e565b9050919050565b600060208201905081810360008301526142f381613d61565b9050919050565b6000602082019050818103600083015261431381613d84565b9050919050565b6000602082019050818103600083015261433381613da7565b9050919050565b6000602082019050818103600083015261435381613dca565b9050919050565b6000602082019050818103600083015261437381613ded565b9050919050565b6000602082019050818103600083015261439381613e10565b9050919050565b600060208201905081810360008301526143b381613e33565b9050919050565b600060208201905081810360008301526143d381613e56565b9050919050565b600060208201905081810360008301526143f381613e79565b9050919050565b6000602082019050818103600083015261441381613e9c565b9050919050565b6000602082019050818103600083015261443381613ebf565b9050919050565b6000602082019050818103600083015261445381613ee2565b9050919050565b6000602082019050818103600083015261447381613f05565b9050919050565b6000602082019050818103600083015261449381613f28565b9050919050565b600060208201905081810360008301526144b381613f4b565b9050919050565b600060208201905081810360008301526144d381613f6e565b9050919050565b600060208201905081810360008301526144f381613f91565b9050919050565b6000602082019050818103600083015261451381613fb4565b9050919050565b6000602082019050818103600083015261453381613fd7565b9050919050565b6000602082019050818103600083015261455381613ffa565b9050919050565b600060208201905081810360008301526145738161401d565b9050919050565b600060208201905061458f6000830184614040565b92915050565b600061459f6145b0565b90506145ab82826149ce565b919050565b6000604051905090565b600067ffffffffffffffff8211156145d5576145d4614abc565b5b6145de82614b04565b9050602081019050919050565b600081519050919050565b600081519050919050565b600082825260208201905092915050565b600081905092915050565b600082825260208201905092915050565b60006146398261493a565b91506146448361493a565b9250827fffffffffffffffffffffffffffffffffffffffffffffffffffffffffffffffff0382111561467957614678614a5e565b5b828201905092915050565b600061468f8261493a565b915061469a8361493a565b9250826146aa576146a9614a8d565b5b828204905092915050565b6000808291508390505b60018511156146ff578086048111156146db576146da614a5e565b5b60018516156146ea5780820291505b80810290506146f885614b22565b94506146bf565b94509492505050565b60006147138261493a565b915061471e8361493a565b925061474b7fffffffffffffffffffffffffffffffffffffffffffffffffffffffffffffffff8484614753565b905092915050565b600082614763576001905061481f565b81614771576000905061481f565b81600181146147875760028114614791576147c0565b600191505061481f565b60ff8411156147a3576147a2614a5e565b5b8360020a9150848211156147ba576147b9614a5e565b5b5061481f565b5060208310610133831016604e8410600b84101617156147f55782820a9050838111156147f0576147ef614a5e565b5b61481f565b61480284848460016146b5565b9250905081840481111561481957614818614a5e565b5b81810290505b9392505050565b60006148318261493a565b915061483c8361493a565b9250817fffffffffffffffffffffffffffffffffffffffffffffffffffffffffffffffff048311821515161561487557614874614a5e565b5b828202905092915050565b600061488b8261493a565b91506148968361493a565b9250828210156148a9576148a8614a5e565b5b828203905092915050565b60006148bf8261491a565b9050919050565b60006148d18261491a565b9050919050565b60008115159050919050565b6000819050919050565b60007fffffffff0000000000000000000000000000000000000000000000000000000082169050919050565b600073ffffffffffffffffffffffffffffffffffffffff82169050919050565b6000819050919050565b600061494f82614968565b9050919050565b600061496182614968565b9050919050565b60006149738261497a565b9050919050565b60006149858261491a565b9050919050565b82818337600083830152505050565b60005b838110156149b957808201518184015260208101905061499e565b838111156149c8576000848401525b50505050565b6149d782614b04565b810181811067ffffffffffffffff821117156149f6576149f5614abc565b5b80604052505050565b6000614a0a82614a11565b9050919050565b6000614a1c82614b15565b9050919050565b6000819050919050565b6000614a388261493a565b9150614a438361493a565b925082614a5357614a52614a8d565b5b828206905092915050565b7f4e487b7100000000000000000000000000000000000000000000000000000000600052601160045260246000fd5b7f4e487b7100000000000000000000000000000000000000000000000000000000600052601260045260246000fd5b7f4e487b7100000000000000000000000000000000000000000000000000000000600052604160045260246000fd5b600080fd5b600080fd5b600080fd5b600080fd5b600080fd5b6000601f19601f8301169050919050565b60008160601b9050919050565b60008160011c9050919050565b7f5573657220686173206e6f7420617070726f76656420746865207661756c742060008201527f666f72207468697320746f6b656e000000000000000000000000000000000000602082015250565b7f5061757361626c653a206e6f7420706175736564000000000000000000000000600082015250565b7f5573657220686173206e6f7420617070726f76656420746865207661756c742060008201527f666f722073756666696369656e7420616c6c6f797820636f696e000000000000602082015250565b7f4f776e61626c653a206e6577206f776e657220697320746865207a65726f206160008201527f6464726573730000000000000000000000000000000000000000000000000000602082015250565b7f4e6f7420612076616c696420706f6f6c00000000000000000000000000000000600082015250565b7f756e61626c6520746f207472616e73666572416e6443616c6c20746f206f726160008201527f636c650000000000000000000000000000000000000000000000000000000000602082015250565b7f416464726573733a20696e73756666696369656e742062616c616e636520666f60008201527f722063616c6c0000000000000000000000000000000000000000000000000000602082015250565b7f5061757361626c653a2070617573656400000000000000000000000000000000600082015250565b7f546865207661756c7420646f6573206e6f74206861766520737566666963696560008201527f6e7420737461626c6520636f696e000000000000000000000000000000000000602082015250565b7f5573657220686173206e6f7420617070726f76656420746865207661756c742060008201527f666f722073756666696369656e7420737461626c6520636f696e000000000000602082015250565b7f557365722068617320696e73756666696369656e7420737461626c6520636f6960008201527f6e00000000000000000000000000000000000000000000000000000000000000602082015250565b7f42616c616e6365206f662047464920636f696e206d7573742062652030000000600082015250565b7f4f776e61626c653a2063616c6c6572206973206e6f7420746865206f776e6572600082015250565b7f42616c616e6365206f6620737461626c6520636f696e206d7573742062652030600082015250565b7f5573657220646f6573206e6f74206f776e207468697320746f6b656e00000000600082015250565b7f416464726573733a2063616c6c20746f206e6f6e2d636f6e7472616374000000600082015250565b7f536f75726365206d75737420626520746865206f7261636c65206f662074686560008201527f2072657175657374000000000000000000000000000000000000000000000000602082015250565b7f5361666545524332303a204552433230206f7065726174696f6e20646964206e60008201527f6f74207375636365656400000000000000000000000000000000000000000000602082015250565b7f54686520616d6f756e74206f6620616c6c6f797820636f696e20746f2067657460008201527f206973206e6f74206c6172676572207468616e20300000000000000000000000602082015250565b7f54686520616d6f756e74206f6620737461626c6520636f696e20746f2067657460008201527f206973206e6f74206c6172676572207468616e20300000000000000000000000602082015250565b7f42616c616e6365206f66204669647520636f696e206d75737420626520300000600082015250565b7f557365722068617320696e73756666696369656e7420616c6c6f797820636f6960008201527f6e00000000000000000000000000000000000000000000000000000000000000602082015250565b6150ac816148b4565b81146150b757600080fd5b50565b6150c3816148c6565b81146150ce57600080fd5b50565b6150da816148d8565b81146150e557600080fd5b50565b6150f1816148e4565b81146150fc57600080fd5b50565b6151088161493a565b811461511357600080fd5b5056fe68747470733a2f2f616c6c6f79786261636b656e642e75772e722e61707073706f742e636f6d2f616d6f756e74546f4d696e74a2646970667358221220f5c7470635e2f531ec4bf6e15620792dc24923e87e2e88fe5da68dddb42314b164736f6c63430008070033",
  "devdoc": {
    "author": "AlloyX",
    "kind": "dev",
    "methods": {
      "depositAlloyTokens(uint256)": {
        "params": {
          "_tokenAmount": "Number of Alloy Tokens"
        }
      },
      "depositNFTToken(address,uint256)": {
        "params": {
          "_tokenAddress": "NFT Address",
          "_tokenID": "NFT ID"
        }
      },
      "depositStableCoin(uint256)": {
        "params": {
          "_tokenAmount": "Number of stable coin"
        }
      },
      "fulfill(bytes32,uint256)": {
        "params": {
          "_requestId": "Unique identifier for the request",
          "_result": "The API response"
        }
      },
      "getJuniorTokenValue(address,uint256)": {
        "params": {
          "_tokenAddress": "The backer NFT address",
          "_tokenID": "The backer NFT id"
        }
      },
      "isValidPool(address,uint256)": {
        "params": {
          "_tokenAddress": "The backer NFT address",
          "_tokenID": "The backer NFT id"
        }
      },
      "onERC721Received(address,address,uint256,bytes)": {
        "details": "See {IERC721Receiver-onERC721Received}. Always returns `IERC721Receiver.onERC721Received.selector`."
      },
      "owner()": {
        "details": "Returns the address of the current owner."
      },
      "paused()": {
        "details": "Returns true if the contract is paused, and false otherwise."
      },
      "renounceOwnership()": {
        "details": "Leaves the contract without owner. It will not be possible to call `onlyOwner` functions anymore. Can only be called by the current owner. NOTE: Renouncing ownership will leave the contract without an owner, thereby removing any functionality that is only available to the owner."
      },
      "transferOwnership(address)": {
        "details": "Transfers ownership of the contract to a new account (`newOwner`). Can only be called by the current owner."
      }
    },
    "title": "AlloyX Vault",
    "version": 1
  },
  "userdoc": {
    "kind": "user",
    "methods": {
      "constructor": {
        "notice": "Network: Kovan Oracle: 0xc57B33452b4F7BB189bB5AfaE9cc4aBa1f7a4FD8 (Chainlink Devrel Node) Job ID: d5270d1c311941d0b08bead21fea7747 Fee: 0.1 LINK"
      },
      "depositAlloyTokens(uint256)": {
        "notice": "An Alloy token holder can deposit their tokens and redeem them for USDC"
      },
      "depositNFTToken(address,uint256)": {
        "notice": "A Junior token holder can deposit their NFT for stable coin"
      },
      "depositStableCoin(uint256)": {
        "notice": "A Liquidity Provider can deposit supported stable coins for Alloy Tokens"
      },
      "fulfill(bytes32,uint256)": {
        "notice": "The response we get from the Chainlink request"
      },
      "getJuniorTokenValue(address,uint256)": {
        "notice": "Using the Goldfinch contracts, read the principal, redeemed and redeemable values"
      },
      "isValidPool(address,uint256)": {
        "notice": "Using the PoolTokens interface, check if this is a valid pool"
      },
      "requestAlloyUSDCExchangeRate()": {
        "notice": "The pricing oracle that gets stable coin exchange rate for the Alloy token"
      }
    },
    "notice": "Initial vault for AlloyX. This vault holds loan tokens generated on Goldfinch and emits AlloyTokens when a liquidity provider deposits supported stable coins. The contract uses a pricing oracle to determine the value of the underlying assets",
    "version": 1
  },
  "storageLayout": {
    "storage": [
      {
        "astId": 319,
        "contract": "contracts/alloyx/v1.0/AlloyxVault.sol:AlloyxVault",
        "label": "s_ens",
        "offset": 0,
        "slot": "0",
        "type": "t_contract(ENSInterface)974"
      },
      {
        "astId": 321,
        "contract": "contracts/alloyx/v1.0/AlloyxVault.sol:AlloyxVault",
        "label": "s_ensNode",
        "offset": 0,
        "slot": "1",
        "type": "t_bytes32"
      },
      {
        "astId": 324,
        "contract": "contracts/alloyx/v1.0/AlloyxVault.sol:AlloyxVault",
        "label": "s_link",
        "offset": 0,
        "slot": "2",
        "type": "t_contract(LinkTokenInterface)1069"
      },
      {
        "astId": 327,
        "contract": "contracts/alloyx/v1.0/AlloyxVault.sol:AlloyxVault",
        "label": "s_oracle",
        "offset": 0,
        "slot": "3",
        "type": "t_contract(OperatorInterface)1149"
      },
      {
        "astId": 330,
        "contract": "contracts/alloyx/v1.0/AlloyxVault.sol:AlloyxVault",
        "label": "s_requestCount",
        "offset": 0,
        "slot": "4",
        "type": "t_uint256"
      },
      {
        "astId": 334,
        "contract": "contracts/alloyx/v1.0/AlloyxVault.sol:AlloyxVault",
        "label": "s_pendingRequests",
        "offset": 0,
        "slot": "5",
        "type": "t_mapping(t_bytes32,t_address)"
      },
      {
        "astId": 2183,
        "contract": "contracts/alloyx/v1.0/AlloyxVault.sol:AlloyxVault",
        "label": "_owner",
        "offset": 0,
        "slot": "6",
        "type": "t_address"
      },
      {
        "astId": 2298,
        "contract": "contracts/alloyx/v1.0/AlloyxVault.sol:AlloyxVault",
        "label": "_paused",
        "offset": 20,
        "slot": "6",
        "type": "t_bool"
      },
      {
        "astId": 4583,
        "contract": "contracts/alloyx/v1.0/AlloyxVault.sol:AlloyxVault",
        "label": "tokenToProcessMap",
        "offset": 0,
        "slot": "7",
        "type": "t_mapping(t_bytes32,t_struct(TokenMeta)4578_storage)"
      },
      {
        "astId": 4585,
        "contract": "contracts/alloyx/v1.0/AlloyxVault.sol:AlloyxVault",
        "label": "result",
        "offset": 0,
        "slot": "8",
        "type": "t_uint256"
      },
      {
        "astId": 4587,
        "contract": "contracts/alloyx/v1.0/AlloyxVault.sol:AlloyxVault",
        "label": "oracle",
        "offset": 0,
        "slot": "9",
        "type": "t_address"
      },
      {
        "astId": 4589,
        "contract": "contracts/alloyx/v1.0/AlloyxVault.sol:AlloyxVault",
        "label": "jobId",
        "offset": 0,
        "slot": "10",
        "type": "t_bytes32"
      },
      {
        "astId": 4591,
        "contract": "contracts/alloyx/v1.0/AlloyxVault.sol:AlloyxVault",
        "label": "fee",
        "offset": 0,
        "slot": "11",
        "type": "t_uint256"
      },
      {
        "astId": 4594,
        "contract": "contracts/alloyx/v1.0/AlloyxVault.sol:AlloyxVault",
        "label": "stableCoin",
        "offset": 0,
        "slot": "12",
        "type": "t_contract(IERC20)3038"
      },
      {
        "astId": 4597,
        "contract": "contracts/alloyx/v1.0/AlloyxVault.sol:AlloyxVault",
        "label": "gfiCoin",
        "offset": 0,
        "slot": "13",
        "type": "t_contract(IERC20)3038"
      },
      {
        "astId": 4600,
        "contract": "contracts/alloyx/v1.0/AlloyxVault.sol:AlloyxVault",
        "label": "fiduCoin",
        "offset": 0,
        "slot": "14",
        "type": "t_contract(IERC20)3038"
      },
      {
        "astId": 4603,
        "contract": "contracts/alloyx/v1.0/AlloyxVault.sol:AlloyxVault",
        "label": "alloyToken",
        "offset": 0,
        "slot": "15",
        "type": "t_contract(AlloyxTokenBronze)4271"
      }
    ],
    "types": {
      "t_address": {
        "encoding": "inplace",
        "label": "address",
        "numberOfBytes": "20"
      },
      "t_bool": {
        "encoding": "inplace",
        "label": "bool",
        "numberOfBytes": "1"
      },
      "t_bytes32": {
        "encoding": "inplace",
        "label": "bytes32",
        "numberOfBytes": "32"
      },
      "t_contract(AlloyxTokenBronze)4271": {
        "encoding": "inplace",
        "label": "contract AlloyxTokenBronze",
        "numberOfBytes": "20"
      },
      "t_contract(ENSInterface)974": {
        "encoding": "inplace",
        "label": "contract ENSInterface",
        "numberOfBytes": "20"
      },
      "t_contract(IERC20)3038": {
        "encoding": "inplace",
        "label": "contract IERC20",
        "numberOfBytes": "20"
      },
      "t_contract(LinkTokenInterface)1069": {
        "encoding": "inplace",
        "label": "contract LinkTokenInterface",
        "numberOfBytes": "20"
      },
      "t_contract(OperatorInterface)1149": {
        "encoding": "inplace",
        "label": "contract OperatorInterface",
        "numberOfBytes": "20"
      },
      "t_mapping(t_bytes32,t_address)": {
        "encoding": "mapping",
        "key": "t_bytes32",
        "label": "mapping(bytes32 => address)",
        "numberOfBytes": "32",
        "value": "t_address"
      },
      "t_mapping(t_bytes32,t_struct(TokenMeta)4578_storage)": {
        "encoding": "mapping",
        "key": "t_bytes32",
        "label": "mapping(bytes32 => struct AlloyxVault.TokenMeta)",
        "numberOfBytes": "32",
        "value": "t_struct(TokenMeta)4578_storage"
      },
      "t_struct(TokenMeta)4578_storage": {
        "encoding": "inplace",
        "label": "struct AlloyxVault.TokenMeta",
        "members": [
          {
            "astId": 4571,
            "contract": "contracts/alloyx/v1.0/AlloyxVault.sol:AlloyxVault",
            "label": "receiver",
            "offset": 0,
            "slot": "0",
            "type": "t_address"
          },
          {
            "astId": 4573,
            "contract": "contracts/alloyx/v1.0/AlloyxVault.sol:AlloyxVault",
            "label": "amountOrId",
            "offset": 0,
            "slot": "1",
            "type": "t_uint256"
          },
          {
            "astId": 4575,
            "contract": "contracts/alloyx/v1.0/AlloyxVault.sol:AlloyxVault",
            "label": "fromToken",
            "offset": 0,
            "slot": "2",
            "type": "t_address"
          },
          {
            "astId": 4577,
            "contract": "contracts/alloyx/v1.0/AlloyxVault.sol:AlloyxVault",
            "label": "toToken",
            "offset": 0,
            "slot": "3",
            "type": "t_address"
          }
        ],
        "numberOfBytes": "128"
      },
      "t_uint256": {
        "encoding": "inplace",
        "label": "uint256",
        "numberOfBytes": "32"
      }
    }
  }
}