{
  "address": "0x1751Ae315cbF5E0B47BbEa5d63B4f600c7D80025",
  "_format": "hh-sol-artifact-1",
  "contractName": "AlloyxTreasury",
  "sourceName": "contracts/alloyx/AlloyxTreasury.sol",
  "abi": [
    {
      "anonymous": false,
      "inputs": [
        {
          "indexed": true,
          "internalType": "address",
          "name": "who",
          "type": "address"
        },
        {
          "indexed": false,
          "internalType": "address",
          "name": "configAddress",
          "type": "address"
        }
      ],
      "name": "AlloyxConfigUpdated",
      "type": "event"
    },
    {
      "anonymous": false,
      "inputs": [
        {
          "indexed": false,
          "internalType": "uint8",
          "name": "version",
          "type": "uint8"
        }
      ],
      "name": "Initialized",
      "type": "event"
    },
    {
      "anonymous": false,
      "inputs": [
        {
          "indexed": true,
          "internalType": "bytes32",
          "name": "role",
          "type": "bytes32"
        },
        {
          "indexed": true,
          "internalType": "bytes32",
          "name": "previousAdminRole",
          "type": "bytes32"
        },
        {
          "indexed": true,
          "internalType": "bytes32",
          "name": "newAdminRole",
          "type": "bytes32"
        }
      ],
      "name": "RoleAdminChanged",
      "type": "event"
    },
    {
      "anonymous": false,
      "inputs": [
        {
          "indexed": true,
          "internalType": "bytes32",
          "name": "role",
          "type": "bytes32"
        },
        {
          "indexed": true,
          "internalType": "address",
          "name": "account",
          "type": "address"
        },
        {
          "indexed": true,
          "internalType": "address",
          "name": "sender",
          "type": "address"
        }
      ],
      "name": "RoleGranted",
      "type": "event"
    },
    {
      "anonymous": false,
      "inputs": [
        {
          "indexed": true,
          "internalType": "bytes32",
          "name": "role",
          "type": "bytes32"
        },
        {
          "indexed": true,
          "internalType": "address",
          "name": "account",
          "type": "address"
        },
        {
          "indexed": true,
          "internalType": "address",
          "name": "sender",
          "type": "address"
        }
      ],
      "name": "RoleRevoked",
      "type": "event"
    },
    {
      "inputs": [],
      "name": "DEFAULT_ADMIN_ROLE",
      "outputs": [
        {
          "internalType": "bytes32",
          "name": "",
          "type": "bytes32"
        }
      ],
      "stateMutability": "view",
      "type": "function"
    },
    {
      "inputs": [
        {
          "internalType": "address",
          "name": "account",
          "type": "address"
        }
      ],
      "name": "addAdmin",
      "outputs": [],
      "stateMutability": "nonpayable",
      "type": "function"
    },
    {
      "inputs": [
        {
          "internalType": "uint256",
          "name": "_amount",
          "type": "uint256"
        }
      ],
      "name": "addDuraToFiduFee",
      "outputs": [],
      "stateMutability": "nonpayable",
      "type": "function"
    },
    {
      "inputs": [
        {
          "internalType": "uint256",
          "name": "_amount",
          "type": "uint256"
        }
      ],
      "name": "addEarningGfiFee",
      "outputs": [],
      "stateMutability": "nonpayable",
      "type": "function"
    },
    {
      "inputs": [
        {
          "internalType": "uint256",
          "name": "_amount",
          "type": "uint256"
        }
      ],
      "name": "addRedemptionFee",
      "outputs": [],
      "stateMutability": "nonpayable",
      "type": "function"
    },
    {
      "inputs": [
        {
          "internalType": "uint256",
          "name": "_amount",
          "type": "uint256"
        }
      ],
      "name": "addRepaymentFee",
      "outputs": [],
      "stateMutability": "nonpayable",
      "type": "function"
    },
    {
      "inputs": [
        {
          "internalType": "address",
          "name": "_tokenAddress",
          "type": "address"
        },
        {
          "internalType": "address",
          "name": "_account",
          "type": "address"
        },
        {
          "internalType": "uint256",
          "name": "_amount",
          "type": "uint256"
        }
      ],
      "name": "approveERC20",
      "outputs": [],
      "stateMutability": "nonpayable",
      "type": "function"
    },
    {
      "inputs": [
        {
          "internalType": "address",
          "name": "_tokenAddress",
          "type": "address"
        },
        {
          "internalType": "address",
          "name": "_account",
          "type": "address"
        },
        {
          "internalType": "uint256",
          "name": "_tokenId",
          "type": "uint256"
        }
      ],
      "name": "approveERC721",
      "outputs": [],
      "stateMutability": "nonpayable",
      "type": "function"
    },
    {
      "inputs": [],
      "name": "config",
      "outputs": [
        {
          "internalType": "contract AlloyxConfig",
          "name": "",
          "type": "address"
        }
      ],
      "stateMutability": "view",
      "type": "function"
    },
    {
      "inputs": [],
      "name": "duraToFiduFee",
      "outputs": [
        {
          "internalType": "uint256",
          "name": "",
          "type": "uint256"
        }
      ],
      "stateMutability": "view",
      "type": "function"
    },
    {
      "inputs": [],
      "name": "earningGfiFee",
      "outputs": [
        {
          "internalType": "uint256",
          "name": "",
          "type": "uint256"
        }
      ],
      "stateMutability": "view",
      "type": "function"
    },
    {
      "inputs": [],
      "name": "getAllGfiFees",
      "outputs": [
        {
          "internalType": "uint256",
          "name": "",
          "type": "uint256"
        }
      ],
      "stateMutability": "view",
      "type": "function"
    },
    {
      "inputs": [],
      "name": "getAllUsdcFees",
      "outputs": [
        {
          "internalType": "uint256",
          "name": "",
          "type": "uint256"
        }
      ],
      "stateMutability": "view",
      "type": "function"
    },
    {
      "inputs": [
        {
          "internalType": "bytes32",
          "name": "role",
          "type": "bytes32"
        }
      ],
      "name": "getRoleAdmin",
      "outputs": [
        {
          "internalType": "bytes32",
          "name": "",
          "type": "bytes32"
        }
      ],
      "stateMutability": "view",
      "type": "function"
    },
    {
      "inputs": [
        {
          "internalType": "bytes32",
          "name": "role",
          "type": "bytes32"
        },
        {
          "internalType": "address",
          "name": "account",
          "type": "address"
        }
      ],
      "name": "grantRole",
      "outputs": [],
      "stateMutability": "nonpayable",
      "type": "function"
    },
    {
      "inputs": [
        {
          "internalType": "bytes32",
          "name": "role",
          "type": "bytes32"
        },
        {
          "internalType": "address",
          "name": "account",
          "type": "address"
        }
      ],
      "name": "hasRole",
      "outputs": [
        {
          "internalType": "bool",
          "name": "",
          "type": "bool"
        }
      ],
      "stateMutability": "view",
      "type": "function"
    },
    {
      "inputs": [
        {
          "internalType": "address",
          "name": "_configAddress",
          "type": "address"
        }
      ],
      "name": "initialize",
      "outputs": [],
      "stateMutability": "nonpayable",
      "type": "function"
    },
    {
      "inputs": [
        {
          "internalType": "address",
          "name": "account",
          "type": "address"
        }
      ],
      "name": "isAdmin",
      "outputs": [
        {
          "internalType": "bool",
          "name": "",
          "type": "bool"
        }
      ],
      "stateMutability": "view",
      "type": "function"
    },
    {
      "inputs": [
        {
          "internalType": "address",
          "name": "_tokenAddress",
          "type": "address"
        },
        {
          "internalType": "address",
          "name": "_toAddress",
          "type": "address"
        }
      ],
      "name": "migrateAllERC721Enumerable",
      "outputs": [],
      "stateMutability": "nonpayable",
      "type": "function"
    },
    {
      "inputs": [
        {
          "internalType": "address",
          "name": "_tokenAddress",
          "type": "address"
        },
        {
          "internalType": "address",
          "name": "_to",
          "type": "address"
        }
      ],
      "name": "migrateERC20",
      "outputs": [],
      "stateMutability": "nonpayable",
      "type": "function"
    },
    {
      "inputs": [
        {
          "internalType": "address",
          "name": "",
          "type": "address"
        },
        {
          "internalType": "address",
          "name": "",
          "type": "address"
        },
        {
          "internalType": "uint256",
          "name": "",
          "type": "uint256"
        },
        {
          "internalType": "bytes",
          "name": "",
          "type": "bytes"
        }
      ],
      "name": "onERC721Received",
      "outputs": [
        {
          "internalType": "bytes4",
          "name": "",
          "type": "bytes4"
        }
      ],
      "stateMutability": "nonpayable",
      "type": "function"
    },
    {
      "inputs": [],
      "name": "redemptionFee",
      "outputs": [
        {
          "internalType": "uint256",
          "name": "",
          "type": "uint256"
        }
      ],
      "stateMutability": "view",
      "type": "function"
    },
    {
      "inputs": [],
      "name": "renounceAdmin",
      "outputs": [],
      "stateMutability": "nonpayable",
      "type": "function"
    },
    {
      "inputs": [
        {
          "internalType": "bytes32",
          "name": "role",
          "type": "bytes32"
        },
        {
          "internalType": "address",
          "name": "account",
          "type": "address"
        }
      ],
      "name": "renounceRole",
      "outputs": [],
      "stateMutability": "nonpayable",
      "type": "function"
    },
    {
      "inputs": [],
      "name": "repaymentFee",
      "outputs": [
        {
          "internalType": "uint256",
          "name": "",
          "type": "uint256"
        }
      ],
      "stateMutability": "view",
      "type": "function"
    },
    {
      "inputs": [
        {
          "internalType": "bytes32",
          "name": "role",
          "type": "bytes32"
        },
        {
          "internalType": "address",
          "name": "account",
          "type": "address"
        }
      ],
      "name": "revokeRole",
      "outputs": [],
      "stateMutability": "nonpayable",
      "type": "function"
    },
    {
      "inputs": [
        {
          "internalType": "bytes4",
          "name": "interfaceId",
          "type": "bytes4"
        }
      ],
      "name": "supportsInterface",
      "outputs": [
        {
          "internalType": "bool",
          "name": "",
          "type": "bool"
        }
      ],
      "stateMutability": "view",
      "type": "function"
    },
    {
      "inputs": [
        {
          "internalType": "address",
          "name": "_to",
          "type": "address"
        }
      ],
      "name": "transferAllGfiFees",
      "outputs": [],
      "stateMutability": "nonpayable",
      "type": "function"
    },
    {
      "inputs": [
        {
          "internalType": "address",
          "name": "_to",
          "type": "address"
        }
      ],
      "name": "transferAllUsdcFees",
      "outputs": [],
      "stateMutability": "nonpayable",
      "type": "function"
    },
    {
      "inputs": [
        {
          "internalType": "address",
          "name": "_tokenAddress",
          "type": "address"
        },
        {
          "internalType": "address",
          "name": "_account",
          "type": "address"
        },
        {
          "internalType": "uint256",
          "name": "_amount",
          "type": "uint256"
        }
      ],
      "name": "transferERC20",
      "outputs": [],
      "stateMutability": "nonpayable",
      "type": "function"
    },
    {
      "inputs": [
        {
          "internalType": "address",
          "name": "_tokenAddress",
          "type": "address"
        },
        {
          "internalType": "address",
          "name": "_account",
          "type": "address"
        },
        {
          "internalType": "uint256",
          "name": "_tokenId",
          "type": "uint256"
        }
      ],
      "name": "transferERC721",
      "outputs": [],
      "stateMutability": "nonpayable",
      "type": "function"
    },
    {
      "inputs": [],
      "name": "updateConfig",
      "outputs": [],
      "stateMutability": "nonpayable",
      "type": "function"
    }
  ],
  "bytecode": "0x608060405234801561001057600080fd5b50611925806100206000396000f3fe608060405234801561001057600080fd5b506004361061017e5760003560e01c8062a7230a14610183578062f5271c1461019857806301ffc9a7146101b4578063150b7a02146101d757806315fd32141461020e5780631aca637614610221578063248a9ca31461023457806324d7806c146102475780632f2ff15d1461025a578063316925621461026d57806336568abe14610280578063458f5815146102935780634dbbae731461029c5780634eb82f82146102a45780636098906a146102b757806370480275146102ca578063747fd44c146102dd57806379502c55146102e557806387e9a939146103055780638b55b1c11461030e5780638bad0c0a1461032157806391d1485414610329578063972f24271461033c5780639db5dbe414610344578063a217fddf14610357578063a8e5e4aa1461035f578063b1c90b7d14610372578063b7840d1a14610385578063bc5208da1461038e578063c4d66de8146103a1578063d547741f146103b4578063d905e9b4146103c7575b600080fd5b61019661019136600461148e565b6103da565b005b6101a160cb5481565b6040519081526020015b60405180910390f35b6101c76101c236600461160e565b61046d565b60405190151581526020016101ab565b6101f56101e53660046114cf565b630a85bd0160e11b949350505050565b6040516001600160e01b031990911681526020016101ab565b61019661021c3660046115d0565b6104a4565b61019661022f36600461148e565b6104e3565b6101a16102423660046115d0565b610543565b6101c761025536600461141b565b610558565b6101966102683660046115e9565b610564565b61019661027b3660046115d0565b610585565b61019661028e3660046115e9565b6105bc565b6101a160cc5481565b60ca546101a1565b6101966102b236600461141b565b61063a565b6101966102c53660046115d0565b610684565b6101966102d836600461141b565b6106bb565b6101966106eb565b60c9546102f8906001600160a01b031681565b6040516101ab91906116dc565b6101a160ca5481565b61019661031c36600461141b565b61077f565b6101966107c6565b6101c76103373660046115e9565b6107d3565b6101a16107fe565b61019661035236600461148e565b610828565b6101a1600081565b61019661036d36600461148e565b610861565b6101966103803660046115d0565b61090c565b6101a160cd5481565b61019661039c366004611455565b610943565b6101966103af36600461141b565b6109b8565b6101966103c23660046115e9565b610a51565b6101966103d5366004611455565b610a6d565b6103e333610558565b6104085760405162461bcd60e51b81526004016103ff9061178a565b60405180910390fd5b60405163095ea7b360e01b81526001600160a01b0384169063095ea7b39061043690859085906004016116f0565b600060405180830381600087803b15801561045057600080fd5b505af1158015610464573d6000803e3d6000fd5b50505050505050565b60006001600160e01b03198216637965db0b60e01b148061049e57506301ffc9a760e01b6001600160e01b03198316145b92915050565b6104ad33610558565b6104c95760405162461bcd60e51b81526004016103ff9061178a565b8060cb60008282546104db9190611803565b909155505050565b6104ec33610558565b6105085760405162461bcd60e51b81526004016103ff9061178a565b604051632142170760e11b81523060048201526001600160a01b038381166024830152604482018390528416906342842e0e90606401610436565b60009081526097602052604090206001015490565b600061049e81836107d3565b61056d82610543565b61057681610b27565b6105808383610b31565b505050565b61058e33610558565b6105aa5760405162461bcd60e51b81526004016103ff9061178a565b8060cd60008282546104db9190611803565b6001600160a01b038116331461062c5760405162461bcd60e51b815260206004820152602f60248201527f416363657373436f6e74726f6c3a2063616e206f6e6c792072656e6f756e636560448201526e103937b632b9903337b91039b2b63360891b60648201526084016103ff565b6106368282610bb7565b5050565b61064333610558565b61065f5760405162461bcd60e51b81526004016103ff9061178a565b60c95461068190610678906001600160a01b0316610c1e565b8260ca54610828565b50565b61068d33610558565b6106a95760405162461bcd60e51b81526004016103ff9061178a565b8060ca60008282546104db9190611803565b6106c433610558565b6106e05760405162461bcd60e51b81526004016103ff9061178a565b610681600082610564565b6106f433610558565b6107105760405162461bcd60e51b81526004016103ff9061178a565b60c954610725906001600160a01b0316610ca0565b60c980546001600160a01b0319166001600160a01b0392909216918217905560405133917f2310d831a9db3a28092d0b5509a976cbeffda5294f3f321086036ed76ebd25949161077591906116dc565b60405180910390a2565b61078833610558565b6107a45760405162461bcd60e51b81526004016103ff9061178a565b60c954610681906107bd906001600160a01b0316610cb8565b826103526107fe565b6107d16000336105bc565b565b60009182526097602090815260408084206001600160a01b0393909316845291905290205460ff1690565b600061082360cd5461081d60cc5460cb54610cd090919063ffffffff16565b90610cd0565b905090565b61083133610558565b61084d5760405162461bcd60e51b81526004016103ff9061178a565b6105806001600160a01b0384168383610ce3565b61086a33610558565b6108865760405162461bcd60e51b81526004016103ff9061178a565b60405163095ea7b360e01b81526001600160a01b0384169063095ea7b3906108b490859085906004016116f0565b602060405180830381600087803b1580156108ce57600080fd5b505af11580156108e2573d6000803e3d6000fd5b505050506040513d601f19601f8201168201806040525081019061090691906115ae565b50505050565b61091533610558565b6109315760405162461bcd60e51b81526004016103ff9061178a565b8060cc60008282546104db9190611803565b61094c33610558565b6109685760405162461bcd60e51b81526004016103ff9061178a565b60006109748330610d39565b905060005b8151811015610906576109a68484848481518110610999576109996118ae565b60200260200101516104e3565b806109b08161187d565b915050610979565b60006109c46001610ec2565b905080156109dc576000805461ff0019166101001790555b6109e4610f51565b6109ed33610f78565b60c980546001600160a01b0319166001600160a01b0384161790558015610636576000805461ff0019169055604051600181527f7f26b83ff96e1f2b6a682f133852f6798a09c465da95921460cefb38474024989060200160405180910390a15050565b610a5a82610543565b610a6381610b27565b6105808383610bb7565b610a7633610558565b610a925760405162461bcd60e51b81526004016103ff9061178a565b6040516370a0823160e01b81526000906001600160a01b038416906370a0823190610ac19030906004016116dc565b60206040518083038186803b158015610ad957600080fd5b505afa158015610aed573d6000803e3d6000fd5b505050506040513d601f19601f82011682018060405250810190610b119190611638565b90506105806001600160a01b0384168383610ce3565b6106818133610fb2565b610b3b82826107d3565b6106365760008281526097602090815260408083206001600160a01b03851684529091529020805460ff19166001179055610b733390565b6001600160a01b0316816001600160a01b0316837f2f8788117e7eff1d82e926ec794901d17c78024a50270940304540a733656f0d60405160405180910390a45050565b610bc182826107d3565b156106365760008281526097602090815260408083206001600160a01b0385168085529252808320805460ff1916905551339285917ff6391f5c32d9c69d2a47ea670b442974b53935d1edc7fd64eb21e047a839171b9190a45050565b60006001600160a01b03821663b93f9b0a600c5b6040518263ffffffff1660e01b8152600401610c5091815260200190565b60206040518083038186803b158015610c6857600080fd5b505afa158015610c7c573d6000803e3d6000fd5b505050506040513d601f19601f8201168201806040525081019061049e9190611438565b60006001600160a01b03821663b93f9b0a6002610c32565b60006001600160a01b03821663b93f9b0a600d610c32565b6000610cdc8284611803565b9392505050565b6105808363a9059cbb60e01b8484604051602401610d029291906116f0565b60408051601f198184030181529190526020810180516001600160e01b03166001600160e01b031990931692909217909152611016565b60606000836001600160a01b03166370a08231846040518263ffffffff1660e01b8152600401610d6991906116dc565b60206040518083038186803b158015610d8157600080fd5b505afa158015610d95573d6000803e3d6000fd5b505050506040513d601f19601f82011682018060405250810190610db99190611638565b90506000816001600160401b03811115610dd557610dd56118c4565b604051908082528060200260200182016040528015610dfe578160200160208202803683370190505b50905060005b82811015610eb957604051632f745c5960e01b81526001600160a01b03871690632f745c5990610e3a90889085906004016116f0565b60206040518083038186803b158015610e5257600080fd5b505afa158015610e66573d6000803e3d6000fd5b505050506040513d601f19601f82011682018060405250810190610e8a9190611638565b828281518110610e9c57610e9c6118ae565b602090810291909101015280610eb18161187d565b915050610e04565b50949350505050565b60008054610100900460ff1615610f10578160ff166001148015610eec5750610eea306110e8565b155b610f085760405162461bcd60e51b81526004016103ff9061173c565b506000919050565b60005460ff808416911610610f375760405162461bcd60e51b81526004016103ff9061173c565b506000805460ff191660ff92909216919091179055600190565b600054610100900460ff166107d15760405162461bcd60e51b81526004016103ff906117b8565b600054610100900460ff16610f9f5760405162461bcd60e51b81526004016103ff906117b8565b610fa7610f51565b6106816000826110f7565b610fbc82826107d3565b61063657610fd4816001600160a01b03166014611101565b610fdf836020611101565b604051602001610ff092919061166d565b60408051601f198184030181529082905262461bcd60e51b82526103ff91600401611709565b600061106b826040518060400160405280602081526020017f5361666545524332303a206c6f772d6c6576656c2063616c6c206661696c6564815250856001600160a01b031661129c9092919063ffffffff16565b805190915015610580578080602001905181019061108991906115ae565b6105805760405162461bcd60e51b815260206004820152602a60248201527f5361666545524332303a204552433230206f7065726174696f6e20646964206e6044820152691bdd081cdd58d8d9595960b21b60648201526084016103ff565b6001600160a01b03163b151590565b6106368282610b31565b6060600061111083600261181b565b61111b906002611803565b6001600160401b03811115611132576111326118c4565b6040519080825280601f01601f19166020018201604052801561115c576020820181803683370190505b509050600360fc1b81600081518110611177576111776118ae565b60200101906001600160f81b031916908160001a905350600f60fb1b816001815181106111a6576111a66118ae565b60200101906001600160f81b031916908160001a90535060006111ca84600261181b565b6111d5906001611803565b90505b600181111561124d576f181899199a1a9b1b9c1cb0b131b232b360811b85600f1660108110611209576112096118ae565b1a60f81b82828151811061121f5761121f6118ae565b60200101906001600160f81b031916908160001a90535060049490941c9361124681611866565b90506111d8565b508315610cdc5760405162461bcd60e51b815260206004820181905260248201527f537472696e67733a20686578206c656e67746820696e73756666696369656e7460448201526064016103ff565b60606112ab84846000856112b3565b949350505050565b6060824710156113145760405162461bcd60e51b815260206004820152602660248201527f416464726573733a20696e73756666696369656e742062616c616e636520666f6044820152651c8818d85b1b60d21b60648201526084016103ff565b61131d856110e8565b6113695760405162461bcd60e51b815260206004820152601d60248201527f416464726573733a2063616c6c20746f206e6f6e2d636f6e747261637400000060448201526064016103ff565b600080866001600160a01b031685876040516113859190611651565b60006040518083038185875af1925050503d80600081146113c2576040519150601f19603f3d011682016040523d82523d6000602084013e6113c7565b606091505b50915091506113d78282866113e2565b979650505050505050565b606083156113f1575081610cdc565b8251156114015782518084602001fd5b8160405162461bcd60e51b81526004016103ff9190611709565b60006020828403121561142d57600080fd5b8135610cdc816118da565b60006020828403121561144a57600080fd5b8151610cdc816118da565b6000806040838503121561146857600080fd5b8235611473816118da565b91506020830135611483816118da565b809150509250929050565b6000806000606084860312156114a357600080fd5b83356114ae816118da565b925060208401356114be816118da565b929592945050506040919091013590565b600080600080608085870312156114e557600080fd5b84356114f0816118da565b93506020850135611500816118da565b92506040850135915060608501356001600160401b038082111561152357600080fd5b818701915087601f83011261153757600080fd5b813581811115611549576115496118c4565b604051601f8201601f19908116603f01168101908382118183101715611571576115716118c4565b816040528281528a602084870101111561158a57600080fd5b82602086016020830137600060208483010152809550505050505092959194509250565b6000602082840312156115c057600080fd5b81518015158114610cdc57600080fd5b6000602082840312156115e257600080fd5b5035919050565b600080604083850312156115fc57600080fd5b823591506020830135611483816118da565b60006020828403121561162057600080fd5b81356001600160e01b031981168114610cdc57600080fd5b60006020828403121561164a57600080fd5b5051919050565b6000825161166381846020870161183a565b9190910192915050565b76020b1b1b2b9b9a1b7b73a3937b61d1030b1b1b7bab73a1604d1b81526000835161169f81601785016020880161183a565b7001034b99036b4b9b9b4b733903937b6329607d1b60179184019182015283516116d081602884016020880161183a565b01602801949350505050565b6001600160a01b0391909116815260200190565b6001600160a01b03929092168252602082015260400190565b602081526000825180602084015261172881604085016020870161183a565b601f01601f19169190910160400192915050565b6020808252602e908201527f496e697469616c697a61626c653a20636f6e747261637420697320616c72656160408201526d191e481a5b9a5d1a585b1a5e995960921b606082015260800190565b6020808252601490820152735265737472696374656420746f2061646d696e7360601b604082015260600190565b6020808252602b908201527f496e697469616c697a61626c653a20636f6e7472616374206973206e6f74206960408201526a6e697469616c697a696e6760a81b606082015260800190565b6000821982111561181657611816611898565b500190565b600081600019048311821515161561183557611835611898565b500290565b60005b8381101561185557818101518382015260200161183d565b838111156109065750506000910152565b60008161187557611875611898565b506000190190565b600060001982141561189157611891611898565b5060010190565b634e487b7160e01b600052601160045260246000fd5b634e487b7160e01b600052603260045260246000fd5b634e487b7160e01b600052604160045260246000fd5b6001600160a01b038116811461068157600080fdfea2646970667358221220c6c2a195de503579506b692e8d30503f953b77df6ec07cc95f26865bad08fe5e64736f6c63430008070033",
  "linkReferences": {},
  "deployedLinkReferences": {}
}