{
  "address": "0x7f7d73547099a7b1D18c9CA7FA716A4561dFd82D",
  "abi": [
    {
      "inputs": [
        {
          "internalType": "address",
          "name": "_alloyxBronzeAddress",
          "type": "address"
        },
        {
          "internalType": "address",
          "name": "_alloyxSilverAddress",
          "type": "address"
        },
        {
          "internalType": "address",
          "name": "_usdcCoinAddress",
          "type": "address"
        },
        {
          "internalType": "address",
          "name": "_fiduCoinAddress",
          "type": "address"
        },
        {
          "internalType": "address",
          "name": "_gfiCoinAddress",
          "type": "address"
        },
        {
          "internalType": "address",
          "name": "_goldFinchTokenAddress",
          "type": "address"
        },
        {
          "internalType": "address",
          "name": "_seniorPoolAddress",
          "type": "address"
        }
      ],
      "stateMutability": "nonpayable",
      "type": "constructor"
    },
    {
      "anonymous": false,
      "inputs": [
        {
          "indexed": false,
          "internalType": "address",
          "name": "_tokenReceiver",
          "type": "address"
        },
        {
          "indexed": false,
          "internalType": "uint256",
          "name": "_tokenAmount",
          "type": "uint256"
        }
      ],
      "name": "Burn",
      "type": "event"
    },
    {
      "anonymous": false,
      "inputs": [
        {
          "indexed": false,
          "internalType": "address",
          "name": "_tokenAddress",
          "type": "address"
        },
        {
          "indexed": false,
          "internalType": "address",
          "name": "_tokenSender",
          "type": "address"
        },
        {
          "indexed": false,
          "internalType": "uint256",
          "name": "_tokenAmount",
          "type": "uint256"
        }
      ],
      "name": "DepositAlloyx",
      "type": "event"
    },
    {
      "anonymous": false,
      "inputs": [
        {
          "indexed": false,
          "internalType": "address",
          "name": "_tokenAddress",
          "type": "address"
        },
        {
          "indexed": false,
          "internalType": "address",
          "name": "_tokenSender",
          "type": "address"
        },
        {
          "indexed": false,
          "internalType": "uint256",
          "name": "_tokenID",
          "type": "uint256"
        }
      ],
      "name": "DepositNFT",
      "type": "event"
    },
    {
      "anonymous": false,
      "inputs": [
        {
          "indexed": false,
          "internalType": "address",
          "name": "_tokenAddress",
          "type": "address"
        },
        {
          "indexed": false,
          "internalType": "address",
          "name": "_tokenSender",
          "type": "address"
        },
        {
          "indexed": false,
          "internalType": "uint256",
          "name": "_tokenAmount",
          "type": "uint256"
        }
      ],
      "name": "DepositStable",
      "type": "event"
    },
    {
      "anonymous": false,
      "inputs": [
        {
          "indexed": false,
          "internalType": "address",
          "name": "_tokenReceiver",
          "type": "address"
        },
        {
          "indexed": false,
          "internalType": "uint256",
          "name": "_tokenAmount",
          "type": "uint256"
        }
      ],
      "name": "Mint",
      "type": "event"
    },
    {
      "anonymous": false,
      "inputs": [
        {
          "indexed": true,
          "internalType": "address",
          "name": "previousOwner",
          "type": "address"
        },
        {
          "indexed": true,
          "internalType": "address",
          "name": "newOwner",
          "type": "address"
        }
      ],
      "name": "OwnershipTransferred",
      "type": "event"
    },
    {
      "anonymous": false,
      "inputs": [
        {
          "indexed": false,
          "internalType": "address",
          "name": "account",
          "type": "address"
        }
      ],
      "name": "Paused",
      "type": "event"
    },
    {
      "anonymous": false,
      "inputs": [
        {
          "indexed": false,
          "internalType": "address",
          "name": "account",
          "type": "address"
        }
      ],
      "name": "Unpaused",
      "type": "event"
    },
    {
      "inputs": [
        {
          "internalType": "address",
          "name": "_alloyxAddress",
          "type": "address"
        }
      ],
      "name": "changeAlloyxBronzeAddress",
      "outputs": [],
      "stateMutability": "nonpayable",
      "type": "function"
    },
    {
      "inputs": [
        {
          "internalType": "address",
          "name": "_alloyxAddress",
          "type": "address"
        }
      ],
      "name": "changeAlloyxSilverAddress",
      "outputs": [],
      "stateMutability": "nonpayable",
      "type": "function"
    },
    {
      "inputs": [
        {
          "internalType": "address",
          "name": "_poolToken",
          "type": "address"
        }
      ],
      "name": "changePoolTokenAddress",
      "outputs": [],
      "stateMutability": "nonpayable",
      "type": "function"
    },
    {
      "inputs": [
        {
          "internalType": "address",
          "name": "_seniorPool",
          "type": "address"
        }
      ],
      "name": "changeSeniorPoolAddress",
      "outputs": [],
      "stateMutability": "nonpayable",
      "type": "function"
    },
    {
      "inputs": [
        {
          "internalType": "uint256",
          "name": "_tokenAmount",
          "type": "uint256"
        }
      ],
      "name": "depositAlloyxBronzeTokens",
      "outputs": [
        {
          "internalType": "bool",
          "name": "",
          "type": "bool"
        }
      ],
      "stateMutability": "nonpayable",
      "type": "function"
    },
    {
      "inputs": [
        {
          "internalType": "address",
          "name": "_tokenAddress",
          "type": "address"
        },
        {
          "internalType": "uint256",
          "name": "_tokenID",
          "type": "uint256"
        }
      ],
      "name": "depositNFTToken",
      "outputs": [
        {
          "internalType": "bool",
          "name": "",
          "type": "bool"
        }
      ],
      "stateMutability": "nonpayable",
      "type": "function"
    },
    {
      "inputs": [
        {
          "internalType": "uint256",
          "name": "_tokenAmount",
          "type": "uint256"
        }
      ],
      "name": "depositUSDCCoin",
      "outputs": [
        {
          "internalType": "bool",
          "name": "",
          "type": "bool"
        }
      ],
      "stateMutability": "nonpayable",
      "type": "function"
    },
    {
      "inputs": [],
      "name": "destroy",
      "outputs": [],
      "stateMutability": "nonpayable",
      "type": "function"
    },
    {
      "inputs": [
        {
          "internalType": "address",
          "name": "_tokenAddress",
          "type": "address"
        },
        {
          "internalType": "uint256",
          "name": "_tokenID",
          "type": "uint256"
        }
      ],
      "name": "isValidPool",
      "outputs": [
        {
          "internalType": "bool",
          "name": "",
          "type": "bool"
        }
      ],
      "stateMutability": "view",
      "type": "function"
    },
    {
      "inputs": [
        {
          "internalType": "address",
          "name": "_tokenAddress",
          "type": "address"
        },
        {
          "internalType": "address payable",
          "name": "_to",
          "type": "address"
        }
      ],
      "name": "migrateERC20",
      "outputs": [],
      "stateMutability": "nonpayable",
      "type": "function"
    },
    {
      "inputs": [
        {
          "internalType": "address",
          "name": "_tokenAddress",
          "type": "address"
        },
        {
          "internalType": "address payable",
          "name": "_toAddress",
          "type": "address"
        },
        {
          "internalType": "uint256",
          "name": "_tokenID",
          "type": "uint256"
        }
      ],
      "name": "migrateNFT",
      "outputs": [],
      "stateMutability": "nonpayable",
      "type": "function"
    },
    {
      "inputs": [
        {
          "internalType": "address",
          "name": "",
          "type": "address"
        },
        {
          "internalType": "address",
          "name": "",
          "type": "address"
        },
        {
          "internalType": "uint256",
          "name": "",
          "type": "uint256"
        },
        {
          "internalType": "bytes",
          "name": "",
          "type": "bytes"
        }
      ],
      "name": "onERC721Received",
      "outputs": [
        {
          "internalType": "bytes4",
          "name": "",
          "type": "bytes4"
        }
      ],
      "stateMutability": "nonpayable",
      "type": "function"
    },
    {
      "inputs": [],
      "name": "owner",
      "outputs": [
        {
          "internalType": "address",
          "name": "",
          "type": "address"
        }
      ],
      "stateMutability": "view",
      "type": "function"
    },
    {
      "inputs": [],
      "name": "pause",
      "outputs": [],
      "stateMutability": "nonpayable",
      "type": "function"
    },
    {
      "inputs": [],
      "name": "paused",
      "outputs": [
        {
          "internalType": "bool",
          "name": "",
          "type": "bool"
        }
      ],
      "stateMutability": "view",
      "type": "function"
    },
    {
      "inputs": [],
      "name": "renounceOwnership",
      "outputs": [],
      "stateMutability": "nonpayable",
      "type": "function"
    },
    {
      "inputs": [],
      "name": "startVaultOperation",
      "outputs": [
        {
          "internalType": "bool",
          "name": "",
          "type": "bool"
        }
      ],
      "stateMutability": "nonpayable",
      "type": "function"
    },
    {
      "inputs": [
        {
          "internalType": "address",
          "name": "_to",
          "type": "address"
        }
      ],
      "name": "transferAlloyxOwnership",
      "outputs": [],
      "stateMutability": "nonpayable",
      "type": "function"
    },
    {
      "inputs": [
        {
          "internalType": "address",
          "name": "newOwner",
          "type": "address"
        }
      ],
      "name": "transferOwnership",
      "outputs": [],
      "stateMutability": "nonpayable",
      "type": "function"
    },
    {
      "inputs": [],
      "name": "unpause",
      "outputs": [],
      "stateMutability": "nonpayable",
      "type": "function"
    }
  ],
  "transactionHash": "0x44d94a73765e13bc26b03f9fabddad115de82ae08ff6c07802093b16a0a5d9d3",
  "args": [
    "0x1467A9a6BC61670DcD9cd00cCde98F83Ab0c8fb4",
    "0x333d1f9D9356b4C43965985C8c30f9Ab74Ed8681",
    "0xeaE3F227e370d9333a7AF82058DDfd34B1BeB627",
    "0x6A2e821CCD293f6989080370ECe62751B4DAFB8f",
    "0x94fF8A71Cd9f8EE849c8259A7a246eA2ef276D8f",
    "0x94fF8A71Cd9f8EE849c8259A7a246eA2ef276D8f",
    "0x94fF8A71Cd9f8EE849c8259A7a246eA2ef276D8f"
  ],
  "numDeployments": 1,
  "solcInputHash": "0c0fed267744bfc8413585e7d1f464ed",
  "bytecode": "0x60806040523480156200001157600080fd5b5060405162004d7a38038062004d7a833981810160405281019062000037919062000342565b620000576200004b6200025f60201b60201c565b6200026760201b60201c565b60008060146101000a81548160ff02191690831515021790555086600560006101000a81548173ffffffffffffffffffffffffffffffffffffffff021916908373ffffffffffffffffffffffffffffffffffffffff16021790555085600660006101000a81548173ffffffffffffffffffffffffffffffffffffffff021916908373ffffffffffffffffffffffffffffffffffffffff16021790555084600160006101000a81548173ffffffffffffffffffffffffffffffffffffffff021916908373ffffffffffffffffffffffffffffffffffffffff16021790555082600260006101000a81548173ffffffffffffffffffffffffffffffffffffffff021916908373ffffffffffffffffffffffffffffffffffffffff16021790555083600360006101000a81548173ffffffffffffffffffffffffffffffffffffffff021916908373ffffffffffffffffffffffffffffffffffffffff16021790555081600460006101000a81548173ffffffffffffffffffffffffffffffffffffffff021916908373ffffffffffffffffffffffffffffffffffffffff16021790555080600760006101000a81548173ffffffffffffffffffffffffffffffffffffffff021916908373ffffffffffffffffffffffffffffffffffffffff16021790555060008060156101000a81548160ff0219169083151502179055505050505050505062000448565b600033905090565b60008060009054906101000a900473ffffffffffffffffffffffffffffffffffffffff169050816000806101000a81548173ffffffffffffffffffffffffffffffffffffffff021916908373ffffffffffffffffffffffffffffffffffffffff1602179055508173ffffffffffffffffffffffffffffffffffffffff168173ffffffffffffffffffffffffffffffffffffffff167f8be0079c531659141344cd1fd0a4f28419497f9722a3daafe3b4186f6b6457e060405160405180910390a35050565b6000815190506200033c816200042e565b92915050565b600080600080600080600060e0888a03121562000364576200036362000429565b5b6000620003748a828b016200032b565b9750506020620003878a828b016200032b565b96505060406200039a8a828b016200032b565b9550506060620003ad8a828b016200032b565b9450506080620003c08a828b016200032b565b93505060a0620003d38a828b016200032b565b92505060c0620003e68a828b016200032b565b91505092959891949750929550565b6000620004028262000409565b9050919050565b600073ffffffffffffffffffffffffffffffffffffffff82169050919050565b600080fd5b6200043981620003f5565b81146200044557600080fd5b50565b61492280620004586000396000f3fe608060405234801561001057600080fd5b506004361061012c5760003560e01c806383197ef0116100ad578063b338ad1611610071578063b338ad16146102cf578063bb74c058146102ff578063d8ec06081461032f578063d905e9b41461034b578063f2fde38b146103675761012c565b806383197ef0146102635780638456cb591461026d5780638682caf8146102775780638d6f4d21146102935780638da5cb5b146102b15761012c565b80633f4ba83a116100f45780633f4ba83a146101e557806346040872146101ef57806353c98f5a1461020b5780635c975abb1461023b578063715018a6146102595761012c565b80630636f05c1461013157806307c0cf3d1461014d578063150b7a02146101695780631a97749d14610199578063354d3c30146101b5575b600080fd5b61014b60048036038101906101469190613351565b610383565b005b610167600480360381019061016291906132b7565b6104ba565b005b610183600480360381019061017e91906133a4565b61057a565b6040516101909190613a42565b60405180910390f35b6101b360048036038101906101ae91906132b7565b61058e565b005b6101cf60048036038101906101ca9190613427565b61064e565b6040516101dc9190613a27565b60405180910390f35b6101ed61077e565b005b610209600480360381019061020491906132b7565b61084b565b005b610225600480360381019061022091906134c1565b61090b565b6040516102329190613a27565b60405180910390f35b610243610d6f565b6040516102509190613a27565b60405180910390f35b610261610d85565b005b61026b610e0d565b005b6102756111bc565b005b610291600480360381019061028c91906132b7565b61128a565b005b61029b61134a565b6040516102a89190613a27565b60405180910390f35b6102b9611529565b6040516102c6919061394c565b60405180910390f35b6102e960048036038101906102e49190613427565b611552565b6040516102f69190613a27565b60405180910390f35b610319600480360381019061031491906134c1565b611b20565b6040516103269190613a27565b60405180910390f35b610349600480360381019061034491906132b7565b61206f565b005b61036560048036038101906103609190613311565b6121c2565b005b610381600480360381019061037c91906132b7565b612342565b005b61038b61243a565b73ffffffffffffffffffffffffffffffffffffffff166103a9611529565b73ffffffffffffffffffffffffffffffffffffffff16146103ff576040517f08c379a00000000000000000000000000000000000000000000000000000000081526004016103f690613c1f565b60405180910390fd5b610407610d6f565b610446576040517f08c379a000000000000000000000000000000000000000000000000000000000815260040161043d90613a9f565b60405180910390fd5b8273ffffffffffffffffffffffffffffffffffffffff166342842e0e3084846040518463ffffffff1660e01b815260040161048393929190613990565b600060405180830381600087803b15801561049d57600080fd5b505af11580156104b1573d6000803e3d6000fd5b50505050505050565b6104c261243a565b73ffffffffffffffffffffffffffffffffffffffff166104e0611529565b73ffffffffffffffffffffffffffffffffffffffff1614610536576040517f08c379a000000000000000000000000000000000000000000000000000000000815260040161052d90613c1f565b60405180910390fd5b80600560006101000a81548173ffffffffffffffffffffffffffffffffffffffff021916908373ffffffffffffffffffffffffffffffffffffffff16021790555050565b600063150b7a0260e01b9050949350505050565b61059661243a565b73ffffffffffffffffffffffffffffffffffffffff166105b4611529565b73ffffffffffffffffffffffffffffffffffffffff161461060a576040517f08c379a000000000000000000000000000000000000000000000000000000000815260040161060190613c1f565b60405180910390fd5b80600660006101000a81548173ffffffffffffffffffffffffffffffffffffffff021916908373ffffffffffffffffffffffffffffffffffffffff16021790555050565b60008083905060008173ffffffffffffffffffffffffffffffffffffffff16638c7a63ae856040518263ffffffff1660e01b815260040161068f9190613d5f565b60a06040518083038186803b1580156106a757600080fd5b505afa1580156106bb573d6000803e3d6000fd5b505050506040513d601f19601f820116820180604052508101906106df9190613494565b90506000816000015190508273ffffffffffffffffffffffffffffffffffffffff1663b5ada6d8826040518263ffffffff1660e01b8152600401610723919061394c565b60206040518083038186803b15801561073b57600080fd5b505afa15801561074f573d6000803e3d6000fd5b505050506040513d601f19601f820116820180604052508101906107739190613467565b935050505092915050565b61078661243a565b73ffffffffffffffffffffffffffffffffffffffff166107a4611529565b73ffffffffffffffffffffffffffffffffffffffff16146107fa576040517f08c379a00000000000000000000000000000000000000000000000000000000081526004016107f190613c1f565b60405180910390fd5b610802610d6f565b610841576040517f08c379a000000000000000000000000000000000000000000000000000000000815260040161083890613a9f565b60405180910390fd5b610849612442565b565b61085361243a565b73ffffffffffffffffffffffffffffffffffffffff16610871611529565b73ffffffffffffffffffffffffffffffffffffffff16146108c7576040517f08c379a00000000000000000000000000000000000000000000000000000000081526004016108be90613c1f565b60405180910390fd5b80600460006101000a81548173ffffffffffffffffffffffffffffffffffffffff021916908373ffffffffffffffffffffffffffffffffffffffff16021790555050565b6000610915610d6f565b15610955576040517f08c379a000000000000000000000000000000000000000000000000000000000815260040161094c90613b5f565b60405180910390fd5b600060159054906101000a900460ff166109a4576040517f08c379a000000000000000000000000000000000000000000000000000000000815260040161099b90613c9f565b60405180910390fd5b81600160009054906101000a900473ffffffffffffffffffffffffffffffffffffffff1673ffffffffffffffffffffffffffffffffffffffff166370a08231336040518263ffffffff1660e01b8152600401610a00919061394c565b60206040518083038186803b158015610a1857600080fd5b505afa158015610a2c573d6000803e3d6000fd5b505050506040513d601f19601f82011682018060405250810190610a5091906134ee565b1015610a91576040517f08c379a0000000000000000000000000000000000000000000000000000000008152600401610a8890613bdf565b60405180910390fd5b81600160009054906101000a900473ffffffffffffffffffffffffffffffffffffffff1673ffffffffffffffffffffffffffffffffffffffff1663dd62ed3e33306040518363ffffffff1660e01b8152600401610aef929190613967565b60206040518083038186803b158015610b0757600080fd5b505afa158015610b1b573d6000803e3d6000fd5b505050506040513d601f19601f82011682018060405250810190610b3f91906134ee565b1015610b80576040517f08c379a0000000000000000000000000000000000000000000000000000000008152600401610b7790613bbf565b60405180910390fd5b6000610b8b836124e3565b905060008111610bd0576040517f08c379a0000000000000000000000000000000000000000000000000000000008152600401610bc790613b7f565b60405180910390fd5b610c1f333085600160009054906101000a900473ffffffffffffffffffffffffffffffffffffffff1673ffffffffffffffffffffffffffffffffffffffff166125c2909392919063ffffffff16565b600560009054906101000a900473ffffffffffffffffffffffffffffffffffffffff1673ffffffffffffffffffffffffffffffffffffffff166340c10f1933836040518363ffffffff1660e01b8152600401610c7c9291906139fe565b602060405180830381600087803b158015610c9657600080fd5b505af1158015610caa573d6000803e3d6000fd5b505050506040513d601f19601f82011682018060405250810190610cce9190613467565b507fa4f358c78f73b2049a06e0436c6728292334862a6fc2114f2de13f9cff58491f600160009054906101000a900473ffffffffffffffffffffffffffffffffffffffff163383604051610d24939291906139c7565b60405180910390a17f0f6798a560793a54c3bcfe86a93cde1e73087d944c0ea20544137d41213968853382604051610d5d9291906139fe565b60405180910390a16001915050919050565b60008060149054906101000a900460ff16905090565b610d8d61243a565b73ffffffffffffffffffffffffffffffffffffffff16610dab611529565b73ffffffffffffffffffffffffffffffffffffffff1614610e01576040517f08c379a0000000000000000000000000000000000000000000000000000000008152600401610df890613c1f565b60405180910390fd5b610e0b600061264b565b565b610e1561243a565b73ffffffffffffffffffffffffffffffffffffffff16610e33611529565b73ffffffffffffffffffffffffffffffffffffffff1614610e89576040517f08c379a0000000000000000000000000000000000000000000000000000000008152600401610e8090613c1f565b60405180910390fd5b610e91610d6f565b610ed0576040517f08c379a0000000000000000000000000000000000000000000000000000000008152600401610ec790613a9f565b60405180910390fd5b6000600160009054906101000a900473ffffffffffffffffffffffffffffffffffffffff1673ffffffffffffffffffffffffffffffffffffffff166370a08231306040518263ffffffff1660e01b8152600401610f2d919061394c565b60206040518083038186803b158015610f4557600080fd5b505afa158015610f59573d6000803e3d6000fd5b505050506040513d601f19601f82011682018060405250810190610f7d91906134ee565b14610fbd576040517f08c379a0000000000000000000000000000000000000000000000000000000008152600401610fb490613c3f565b60405180910390fd5b6000600360009054906101000a900473ffffffffffffffffffffffffffffffffffffffff1673ffffffffffffffffffffffffffffffffffffffff166370a08231306040518263ffffffff1660e01b815260040161101a919061394c565b60206040518083038186803b15801561103257600080fd5b505afa158015611046573d6000803e3d6000fd5b505050506040513d601f19601f8201168201806040525081019061106a91906134ee565b146110aa576040517f08c379a00000000000000000000000000000000000000000000000000000000081526004016110a190613cff565b60405180910390fd5b6000600260009054906101000a900473ffffffffffffffffffffffffffffffffffffffff1673ffffffffffffffffffffffffffffffffffffffff166370a08231306040518263ffffffff1660e01b8152600401611107919061394c565b60206040518083038186803b15801561111f57600080fd5b505afa158015611133573d6000803e3d6000fd5b505050506040513d601f19601f8201168201806040525081019061115791906134ee565b14611197576040517f08c379a000000000000000000000000000000000000000000000000000000000815260040161118e90613bff565b60405180910390fd5b60006111a1611529565b90508073ffffffffffffffffffffffffffffffffffffffff16ff5b6111c461243a565b73ffffffffffffffffffffffffffffffffffffffff166111e2611529565b73ffffffffffffffffffffffffffffffffffffffff1614611238576040517f08c379a000000000000000000000000000000000000000000000000000000000815260040161122f90613c1f565b60405180910390fd5b611240610d6f565b15611280576040517f08c379a000000000000000000000000000000000000000000000000000000000815260040161127790613b5f565b60405180910390fd5b61128861270f565b565b61129261243a565b73ffffffffffffffffffffffffffffffffffffffff166112b0611529565b73ffffffffffffffffffffffffffffffffffffffff1614611306576040517f08c379a00000000000000000000000000000000000000000000000000000000081526004016112fd90613c1f565b60405180910390fd5b80600760006101000a81548173ffffffffffffffffffffffffffffffffffffffff021916908373ffffffffffffffffffffffffffffffffffffffff16021790555050565b600061135461243a565b73ffffffffffffffffffffffffffffffffffffffff16611372611529565b73ffffffffffffffffffffffffffffffffffffffff16146113c8576040517f08c379a00000000000000000000000000000000000000000000000000000000081526004016113bf90613c1f565b60405180910390fd5b600060159054906101000a900460ff1615611418576040517f08c379a000000000000000000000000000000000000000000000000000000000815260040161140f90613aff565b60405180910390fd5b60006114226127b2565b9050600560009054906101000a900473ffffffffffffffffffffffffffffffffffffffff1673ffffffffffffffffffffffffffffffffffffffff166340c10f193061149661146e6127f3565b611488611479612808565b8761281d90919063ffffffff16565b61283390919063ffffffff16565b6040518363ffffffff1660e01b81526004016114b39291906139fe565b602060405180830381600087803b1580156114cd57600080fd5b505af11580156114e1573d6000803e3d6000fd5b505050506040513d601f19601f820116820180604052508101906115059190613467565b506001600060156101000a81548160ff021916908315150217905550600191505090565b60008060009054906101000a900473ffffffffffffffffffffffffffffffffffffffff16905090565b600061155c610d6f565b1561159c576040517f08c379a000000000000000000000000000000000000000000000000000000000815260040161159390613b5f565b60405180910390fd5b600060159054906101000a900460ff166115eb576040517f08c379a00000000000000000000000000000000000000000000000000000000081526004016115e290613c9f565b60405180910390fd5b600460009054906101000a900473ffffffffffffffffffffffffffffffffffffffff1673ffffffffffffffffffffffffffffffffffffffff168373ffffffffffffffffffffffffffffffffffffffff161461167b576040517f08c379a000000000000000000000000000000000000000000000000000000000815260040161167290613d3f565b60405180910390fd5b60011515611689848461064e565b1515146116cb576040517f08c379a00000000000000000000000000000000000000000000000000000000081526004016116c290613b1f565b60405180910390fd5b3373ffffffffffffffffffffffffffffffffffffffff168373ffffffffffffffffffffffffffffffffffffffff16636352211e846040518263ffffffff1660e01b815260040161171b9190613d5f565b60206040518083038186803b15801561173357600080fd5b505afa158015611747573d6000803e3d6000fd5b505050506040513d601f19601f8201168201806040525081019061176b91906132e4565b73ffffffffffffffffffffffffffffffffffffffff16146117c1576040517f08c379a00000000000000000000000000000000000000000000000000000000081526004016117b890613c5f565b60405180910390fd5b3073ffffffffffffffffffffffffffffffffffffffff168373ffffffffffffffffffffffffffffffffffffffff1663081812fc846040518263ffffffff1660e01b81526004016118119190613d5f565b60206040518083038186803b15801561182957600080fd5b505afa15801561183d573d6000803e3d6000fd5b505050506040513d601f19601f8201168201806040525081019061186191906132e4565b73ffffffffffffffffffffffffffffffffffffffff16146118b7576040517f08c379a00000000000000000000000000000000000000000000000000000000081526004016118ae90613a7f565b60405180910390fd5b60006118c38484612849565b905060008111611908576040517f08c379a00000000000000000000000000000000000000000000000000000000081526004016118ff90613cdf565b60405180910390fd5b80600160009054906101000a900473ffffffffffffffffffffffffffffffffffffffff1673ffffffffffffffffffffffffffffffffffffffff166370a08231306040518263ffffffff1660e01b8152600401611964919061394c565b60206040518083038186803b15801561197c57600080fd5b505afa158015611990573d6000803e3d6000fd5b505050506040513d601f19601f820116820180604052508101906119b491906134ee565b10156119f5576040517f08c379a00000000000000000000000000000000000000000000000000000000081526004016119ec90613b9f565b60405180910390fd5b8373ffffffffffffffffffffffffffffffffffffffff166342842e0e3330866040518463ffffffff1660e01b8152600401611a32939291906139c7565b600060405180830381600087803b158015611a4c57600080fd5b505af1158015611a60573d6000803e3d6000fd5b50505050611ab13382600160009054906101000a900473ffffffffffffffffffffffffffffffffffffffff1673ffffffffffffffffffffffffffffffffffffffff166129f99092919063ffffffff16565b60088390806001815401808255809150506001900390600052602060002001600090919091909150557fc7e8b1bdbecdc8a549557efb2a2ab715cff51630caead31610000019e61dfa4b843385604051611b0d939291906139c7565b60405180910390a1600191505092915050565b6000611b2a610d6f565b15611b6a576040517f08c379a0000000000000000000000000000000000000000000000000000000008152600401611b6190613b5f565b60405180910390fd5b600060159054906101000a900460ff16611bb9576040517f08c379a0000000000000000000000000000000000000000000000000000000008152600401611bb090613c9f565b60405180910390fd5b81600560009054906101000a900473ffffffffffffffffffffffffffffffffffffffff1673ffffffffffffffffffffffffffffffffffffffff166370a08231336040518263ffffffff1660e01b8152600401611c15919061394c565b60206040518083038186803b158015611c2d57600080fd5b505afa158015611c41573d6000803e3d6000fd5b505050506040513d601f19601f82011682018060405250810190611c6591906134ee565b1015611ca6576040517f08c379a0000000000000000000000000000000000000000000000000000000008152600401611c9d90613d1f565b60405180910390fd5b81600560009054906101000a900473ffffffffffffffffffffffffffffffffffffffff1673ffffffffffffffffffffffffffffffffffffffff1663dd62ed3e33306040518363ffffffff1660e01b8152600401611d04929190613967565b60206040518083038186803b158015611d1c57600080fd5b505afa158015611d30573d6000803e3d6000fd5b505050506040513d601f19601f82011682018060405250810190611d5491906134ee565b1015611d95576040517f08c379a0000000000000000000000000000000000000000000000000000000008152600401611d8c90613abf565b60405180910390fd5b6000611da083612a7f565b905060008111611de5576040517f08c379a0000000000000000000000000000000000000000000000000000000008152600401611ddc90613cdf565b60405180910390fd5b80600160009054906101000a900473ffffffffffffffffffffffffffffffffffffffff1673ffffffffffffffffffffffffffffffffffffffff166370a08231306040518263ffffffff1660e01b8152600401611e41919061394c565b60206040518083038186803b158015611e5957600080fd5b505afa158015611e6d573d6000803e3d6000fd5b505050506040513d601f19601f82011682018060405250810190611e9191906134ee565b1015611ed2576040517f08c379a0000000000000000000000000000000000000000000000000000000008152600401611ec990613b9f565b60405180910390fd5b600560009054906101000a900473ffffffffffffffffffffffffffffffffffffffff1673ffffffffffffffffffffffffffffffffffffffff16639dc29fac33836040518363ffffffff1660e01b8152600401611f2f9291906139fe565b602060405180830381600087803b158015611f4957600080fd5b505af1158015611f5d573d6000803e3d6000fd5b505050506040513d601f19601f82011682018060405250810190611f819190613467565b50611fcf3382600160009054906101000a900473ffffffffffffffffffffffffffffffffffffffff1673ffffffffffffffffffffffffffffffffffffffff166129f99092919063ffffffff16565b7f53fee901a59b4d2e659e450f8db17fc345e158fe408d2b39faf66d1f8c4a54fe600560009054906101000a900473ffffffffffffffffffffffffffffffffffffffff163383604051612024939291906139c7565b60405180910390a17fcc16f5dbb4873280815c1ee09dbd06736cffcc184412cf7a71a0fdb75d397ca5338260405161205d9291906139fe565b60405180910390a16001915050919050565b61207761243a565b73ffffffffffffffffffffffffffffffffffffffff16612095611529565b73ffffffffffffffffffffffffffffffffffffffff16146120eb576040517f08c379a00000000000000000000000000000000000000000000000000000000081526004016120e290613c1f565b60405180910390fd5b6120f3610d6f565b612132576040517f08c379a000000000000000000000000000000000000000000000000000000000815260040161212990613a9f565b60405180910390fd5b600560009054906101000a900473ffffffffffffffffffffffffffffffffffffffff1673ffffffffffffffffffffffffffffffffffffffff1663f2fde38b826040518263ffffffff1660e01b815260040161218d919061394c565b600060405180830381600087803b1580156121a757600080fd5b505af11580156121bb573d6000803e3d6000fd5b5050505050565b6121ca61243a565b73ffffffffffffffffffffffffffffffffffffffff166121e8611529565b73ffffffffffffffffffffffffffffffffffffffff161461223e576040517f08c379a000000000000000000000000000000000000000000000000000000000815260040161223590613c1f565b60405180910390fd5b612246610d6f565b612285576040517f08c379a000000000000000000000000000000000000000000000000000000000815260040161227c90613a9f565b60405180910390fd5b60008273ffffffffffffffffffffffffffffffffffffffff166370a08231306040518263ffffffff1660e01b81526004016122c0919061394c565b60206040518083038186803b1580156122d857600080fd5b505afa1580156122ec573d6000803e3d6000fd5b505050506040513d601f19601f8201168201806040525081019061231091906134ee565b905061233d82828573ffffffffffffffffffffffffffffffffffffffff166129f99092919063ffffffff16565b505050565b61234a61243a565b73ffffffffffffffffffffffffffffffffffffffff16612368611529565b73ffffffffffffffffffffffffffffffffffffffff16146123be576040517f08c379a00000000000000000000000000000000000000000000000000000000081526004016123b590613c1f565b60405180910390fd5b600073ffffffffffffffffffffffffffffffffffffffff168173ffffffffffffffffffffffffffffffffffffffff16141561242e576040517f08c379a000000000000000000000000000000000000000000000000000000000815260040161242590613adf565b60405180910390fd5b6124378161264b565b50565b600033905090565b61244a610d6f565b612489576040517f08c379a000000000000000000000000000000000000000000000000000000000815260040161248090613a9f565b60405180910390fd5b60008060146101000a81548160ff0219169083151502179055507f5db9ee0a495bf2e6ff9c91a7834c1ba4fdd244a5e8aa4e537bd38aeae4b073aa6124cc61243a565b6040516124d9919061394c565b60405180910390a1565b600080600560009054906101000a900473ffffffffffffffffffffffffffffffffffffffff1673ffffffffffffffffffffffffffffffffffffffff166318160ddd6040518163ffffffff1660e01b815260040160206040518083038186803b15801561254e57600080fd5b505afa158015612562573d6000803e3d6000fd5b505050506040513d601f19601f8201168201806040525081019061258691906134ee565b905060006125926127b2565b90506125b9816125ab848761281d90919063ffffffff16565b61283390919063ffffffff16565b92505050919050565b612645846323b872dd60e01b8585856040516024016125e3939291906139c7565b604051602081830303815290604052907bffffffffffffffffffffffffffffffffffffffffffffffffffffffff19166020820180517bffffffffffffffffffffffffffffffffffffffffffffffffffffffff8381831617835250505050612b5e565b50505050565b60008060009054906101000a900473ffffffffffffffffffffffffffffffffffffffff169050816000806101000a81548173ffffffffffffffffffffffffffffffffffffffff021916908373ffffffffffffffffffffffffffffffffffffffff1602179055508173ffffffffffffffffffffffffffffffffffffffff168173ffffffffffffffffffffffffffffffffffffffff167f8be0079c531659141344cd1fd0a4f28419497f9722a3daafe3b4186f6b6457e060405160405180910390a35050565b612717610d6f565b15612757576040517f08c379a000000000000000000000000000000000000000000000000000000000815260040161274e90613b5f565b60405180910390fd5b6001600060146101000a81548160ff0219169083151502179055507f62e78cea01bee320cd4e420270b5ea74000d11b0c9f74754ebdbfc544b05a25861279b61243a565b6040516127a8919061394c565b60405180910390a1565b60006127ee6127bf612c25565b6127e06127ca612cd4565b6127d2612d86565b612f0a90919063ffffffff16565b612f0a90919063ffffffff16565b905090565b60006006600a6128039190613edc565b905090565b60006012600a6128189190613edc565b905090565b6000818361282b9190613ffa565b905092915050565b600081836128419190613e58565b905092915050565b60008083905060008173ffffffffffffffffffffffffffffffffffffffff16638c7a63ae856040518263ffffffff1660e01b815260040161288a9190613d5f565b60a06040518083038186803b1580156128a257600080fd5b505afa1580156128b6573d6000803e3d6000fd5b505050506040513d601f19601f820116820180604052508101906128da9190613494565b9050600081604001519050600061290283608001518460600151612f0a90919063ffffffff16565b905060008360000151905060008190506000808273ffffffffffffffffffffffffffffffffffffffff16634d02fe6f8b6040518263ffffffff1660e01b815260040161294e9190613d5f565b604080518083038186803b15801561296557600080fd5b505afa158015612979573d6000803e3d6000fd5b505050506040513d601f19601f8201168201806040525081019061299d919061351b565b915091506000829050868210156129c3576129c18282612f0a90919063ffffffff16565b505b6129e8816129da888a612f2090919063ffffffff16565b612f0a90919063ffffffff16565b995050505050505050505092915050565b612a7a8363a9059cbb60e01b8484604051602401612a189291906139fe565b604051602081830303815290604052907bffffffffffffffffffffffffffffffffffffffffffffffffffffffff19166020820180517bffffffffffffffffffffffffffffffffffffffffffffffffffffffff8381831617835250505050612b5e565b505050565b600080600560009054906101000a900473ffffffffffffffffffffffffffffffffffffffff1673ffffffffffffffffffffffffffffffffffffffff166318160ddd6040518163ffffffff1660e01b815260040160206040518083038186803b158015612aea57600080fd5b505afa158015612afe573d6000803e3d6000fd5b505050506040513d601f19601f82011682018060405250810190612b2291906134ee565b90506000612b2e6127b2565b9050612b5582612b47838761281d90919063ffffffff16565b61283390919063ffffffff16565b92505050919050565b6000612bc0826040518060400160405280602081526020017f5361666545524332303a206c6f772d6c6576656c2063616c6c206661696c65648152508573ffffffffffffffffffffffffffffffffffffffff16612f369092919063ffffffff16565b9050600081511115612c205780806020019051810190612be09190613467565b612c1f576040517f08c379a0000000000000000000000000000000000000000000000000000000008152600401612c1690613cbf565b60405180910390fd5b5b505050565b600080600090506000600880549050905060005b81811015612cb257612c9d612c8e600460009054906101000a900473ffffffffffffffffffffffffffffffffffffffff1660088481548110612c7e57612c7d61425e565b5b9060005260206000200154612849565b84612f0a90919063ffffffff16565b92508080612caa906141b7565b915050612c39565b50612ccd612cbe6127f3565b8361281d90919063ffffffff16565b9250505090565b6000600160009054906101000a900473ffffffffffffffffffffffffffffffffffffffff1673ffffffffffffffffffffffffffffffffffffffff166370a08231306040518263ffffffff1660e01b8152600401612d31919061394c565b60206040518083038186803b158015612d4957600080fd5b505afa158015612d5d573d6000803e3d6000fd5b505050506040513d601f19601f82011682018060405250810190612d8191906134ee565b905090565b6000612f05612f00612d96612f4e565b612ef2600760009054906101000a900473ffffffffffffffffffffffffffffffffffffffff1673ffffffffffffffffffffffffffffffffffffffff1663872697296040518163ffffffff1660e01b815260040160206040518083038186803b158015612e0157600080fd5b505afa158015612e15573d6000803e3d6000fd5b505050506040513d601f19601f82011682018060405250810190612e3991906134ee565b600360009054906101000a900473ffffffffffffffffffffffffffffffffffffffff1673ffffffffffffffffffffffffffffffffffffffff166370a08231306040518263ffffffff1660e01b8152600401612e94919061394c565b60206040518083038186803b158015612eac57600080fd5b505afa158015612ec0573d6000803e3d6000fd5b505050506040513d601f19601f82011682018060405250810190612ee491906134ee565b61281d90919063ffffffff16565b61283390919063ffffffff16565b612f63565b905090565b60008183612f189190613e02565b905092915050565b60008183612f2e9190614054565b905092915050565b6060612f458484600085612f9f565b90509392505050565b60006012600a612f5e9190613edc565b905090565b6000612f98612f89612f736127f3565b612f7b612f4e565b61283390919063ffffffff16565b8361283390919063ffffffff16565b9050919050565b606082471015612fe4576040517f08c379a0000000000000000000000000000000000000000000000000000000008152600401612fdb90613b3f565b60405180910390fd5b612fed856130b3565b61302c576040517f08c379a000000000000000000000000000000000000000000000000000000000815260040161302390613c7f565b60405180910390fd5b6000808673ffffffffffffffffffffffffffffffffffffffff1685876040516130559190613935565b60006040518083038185875af1925050503d8060008114613092576040519150601f19603f3d011682016040523d82523d6000602084013e613097565b606091505b50915091506130a78282866130d6565b92505050949350505050565b6000808273ffffffffffffffffffffffffffffffffffffffff163b119050919050565b606083156130e657829050613136565b6000835111156130f95782518084602001fd5b816040517f08c379a000000000000000000000000000000000000000000000000000000000815260040161312d9190613a5d565b60405180910390fd5b9392505050565b600061315061314b84613d9f565b613d7a565b90508281526020810184848401111561316c5761316b6142c6565b5b613177848285614144565b509392505050565b60008135905061318e81614890565b92915050565b6000815190506131a381614890565b92915050565b6000813590506131b8816148a7565b92915050565b6000815190506131cd816148be565b92915050565b600082601f8301126131e8576131e76142bc565b5b81356131f884826020860161313d565b91505092915050565b600060a08284031215613217576132166142c1565b5b61322160a0613d7a565b9050600061323184828501613194565b6000830152506020613245848285016132a2565b6020830152506040613259848285016132a2565b604083015250606061326d848285016132a2565b6060830152506080613281848285016132a2565b60808301525092915050565b60008135905061329c816148d5565b92915050565b6000815190506132b1816148d5565b92915050565b6000602082840312156132cd576132cc6142d0565b5b60006132db8482850161317f565b91505092915050565b6000602082840312156132fa576132f96142d0565b5b600061330884828501613194565b91505092915050565b60008060408385031215613328576133276142d0565b5b60006133368582860161317f565b9250506020613347858286016131a9565b9150509250929050565b60008060006060848603121561336a576133696142d0565b5b60006133788682870161317f565b9350506020613389868287016131a9565b925050604061339a8682870161328d565b9150509250925092565b600080600080608085870312156133be576133bd6142d0565b5b60006133cc8782880161317f565b94505060206133dd8782880161317f565b93505060406133ee8782880161328d565b925050606085013567ffffffffffffffff81111561340f5761340e6142cb565b5b61341b878288016131d3565b91505092959194509250565b6000806040838503121561343e5761343d6142d0565b5b600061344c8582860161317f565b925050602061345d8582860161328d565b9150509250929050565b60006020828403121561347d5761347c6142d0565b5b600061348b848285016131be565b91505092915050565b600060a082840312156134aa576134a96142d0565b5b60006134b884828501613201565b91505092915050565b6000602082840312156134d7576134d66142d0565b5b60006134e58482850161328d565b91505092915050565b600060208284031215613504576135036142d0565b5b6000613512848285016132a2565b91505092915050565b60008060408385031215613532576135316142d0565b5b6000613540858286016132a2565b9250506020613551858286016132a2565b9150509250929050565b6135648161410e565b82525050565b61357381614088565b82525050565b613582816140ac565b82525050565b613591816140b8565b82525050565b60006135a282613dd0565b6135ac8185613de6565b93506135bc818560208601614153565b80840191505092915050565b60006135d382613ddb565b6135dd8185613df1565b93506135ed818560208601614153565b6135f6816142d5565b840191505092915050565b600061360e602e83613df1565b9150613619826142f3565b604082019050919050565b6000613631601483613df1565b915061363c82614342565b602082019050919050565b6000613654603a83613df1565b915061365f8261436b565b604082019050919050565b6000613677602683613df1565b9150613682826143ba565b604082019050919050565b600061369a602a83613df1565b91506136a582614409565b604082019050919050565b60006136bd601083613df1565b91506136c882614458565b602082019050919050565b60006136e0602683613df1565b91506136eb82614481565b604082019050919050565b6000613703601083613df1565b915061370e826144d0565b602082019050919050565b6000613726603c83613df1565b9150613731826144f9565b604082019050919050565b6000613749602e83613df1565b915061375482614548565b604082019050919050565b600061376c603a83613df1565b915061377782614597565b604082019050919050565b600061378f602183613df1565b915061379a826145e6565b604082019050919050565b60006137b2601d83613df1565b91506137bd82614635565b602082019050919050565b60006137d5602083613df1565b91506137e08261465e565b602082019050919050565b60006137f8602083613df1565b915061380382614687565b602082019050919050565b600061381b601c83613df1565b9150613826826146b0565b602082019050919050565b600061383e601d83613df1565b9150613849826146d9565b602082019050919050565b6000613861602683613df1565b915061386c82614702565b604082019050919050565b6000613884602a83613df1565b915061388f82614751565b604082019050919050565b60006138a7603583613df1565b91506138b2826147a0565b604082019050919050565b60006138ca601e83613df1565b91506138d5826147ef565b602082019050919050565b60006138ed602183613df1565b91506138f882614818565b604082019050919050565b6000613910601883613df1565b915061391b82614867565b602082019050919050565b61392f81614104565b82525050565b60006139418284613597565b915081905092915050565b6000602082019050613961600083018461356a565b92915050565b600060408201905061397c600083018561356a565b613989602083018461356a565b9392505050565b60006060820190506139a5600083018661356a565b6139b2602083018561355b565b6139bf6040830184613926565b949350505050565b60006060820190506139dc600083018661356a565b6139e9602083018561356a565b6139f66040830184613926565b949350505050565b6000604082019050613a13600083018561356a565b613a206020830184613926565b9392505050565b6000602082019050613a3c6000830184613579565b92915050565b6000602082019050613a576000830184613588565b92915050565b60006020820190508181036000830152613a7781846135c8565b905092915050565b60006020820190508181036000830152613a9881613601565b9050919050565b60006020820190508181036000830152613ab881613624565b9050919050565b60006020820190508181036000830152613ad881613647565b9050919050565b60006020820190508181036000830152613af88161366a565b9050919050565b60006020820190508181036000830152613b188161368d565b9050919050565b60006020820190508181036000830152613b38816136b0565b9050919050565b60006020820190508181036000830152613b58816136d3565b9050919050565b60006020820190508181036000830152613b78816136f6565b9050919050565b60006020820190508181036000830152613b9881613719565b9050919050565b60006020820190508181036000830152613bb88161373c565b9050919050565b60006020820190508181036000830152613bd88161375f565b9050919050565b60006020820190508181036000830152613bf881613782565b9050919050565b60006020820190508181036000830152613c18816137a5565b9050919050565b60006020820190508181036000830152613c38816137c8565b9050919050565b60006020820190508181036000830152613c58816137eb565b9050919050565b60006020820190508181036000830152613c788161380e565b9050919050565b60006020820190508181036000830152613c9881613831565b9050919050565b60006020820190508181036000830152613cb881613854565b9050919050565b60006020820190508181036000830152613cd881613877565b9050919050565b60006020820190508181036000830152613cf88161389a565b9050919050565b60006020820190508181036000830152613d18816138bd565b9050919050565b60006020820190508181036000830152613d38816138e0565b9050919050565b60006020820190508181036000830152613d5881613903565b9050919050565b6000602082019050613d746000830184613926565b92915050565b6000613d84613d95565b9050613d908282614186565b919050565b6000604051905090565b600067ffffffffffffffff821115613dba57613db961428d565b5b613dc3826142d5565b9050602081019050919050565b600081519050919050565b600081519050919050565b600081905092915050565b600082825260208201905092915050565b6000613e0d82614104565b9150613e1883614104565b9250827fffffffffffffffffffffffffffffffffffffffffffffffffffffffffffffffff03821115613e4d57613e4c614200565b5b828201905092915050565b6000613e6382614104565b9150613e6e83614104565b925082613e7e57613e7d61422f565b5b828204905092915050565b6000808291508390505b6001851115613ed357808604811115613eaf57613eae614200565b5b6001851615613ebe5780820291505b8081029050613ecc856142e6565b9450613e93565b94509492505050565b6000613ee782614104565b9150613ef283614104565b9250613f1f7fffffffffffffffffffffffffffffffffffffffffffffffffffffffffffffffff8484613f27565b905092915050565b600082613f375760019050613ff3565b81613f455760009050613ff3565b8160018114613f5b5760028114613f6557613f94565b6001915050613ff3565b60ff841115613f7757613f76614200565b5b8360020a915084821115613f8e57613f8d614200565b5b50613ff3565b5060208310610133831016604e8410600b8410161715613fc95782820a905083811115613fc457613fc3614200565b5b613ff3565b613fd68484846001613e89565b92509050818404811115613fed57613fec614200565b5b81810290505b9392505050565b600061400582614104565b915061401083614104565b9250817fffffffffffffffffffffffffffffffffffffffffffffffffffffffffffffffff048311821515161561404957614048614200565b5b828202905092915050565b600061405f82614104565b915061406a83614104565b92508282101561407d5761407c614200565b5b828203905092915050565b6000614093826140e4565b9050919050565b60006140a5826140e4565b9050919050565b60008115159050919050565b60007fffffffff0000000000000000000000000000000000000000000000000000000082169050919050565b600073ffffffffffffffffffffffffffffffffffffffff82169050919050565b6000819050919050565b600061411982614120565b9050919050565b600061412b82614132565b9050919050565b600061413d826140e4565b9050919050565b82818337600083830152505050565b60005b83811015614171578082015181840152602081019050614156565b83811115614180576000848401525b50505050565b61418f826142d5565b810181811067ffffffffffffffff821117156141ae576141ad61428d565b5b80604052505050565b60006141c282614104565b91507fffffffffffffffffffffffffffffffffffffffffffffffffffffffffffffffff8214156141f5576141f4614200565b5b600182019050919050565b7f4e487b7100000000000000000000000000000000000000000000000000000000600052601160045260246000fd5b7f4e487b7100000000000000000000000000000000000000000000000000000000600052601260045260246000fd5b7f4e487b7100000000000000000000000000000000000000000000000000000000600052603260045260246000fd5b7f4e487b7100000000000000000000000000000000000000000000000000000000600052604160045260246000fd5b600080fd5b600080fd5b600080fd5b600080fd5b600080fd5b6000601f19601f8301169050919050565b60008160011c9050919050565b7f5573657220686173206e6f7420617070726f76656420746865207661756c742060008201527f666f72207468697320746f6b656e000000000000000000000000000000000000602082015250565b7f5061757361626c653a206e6f7420706175736564000000000000000000000000600082015250565b7f5573657220686173206e6f7420617070726f76656420746865207661756c742060008201527f666f722073756666696369656e7420616c6c6f797820636f696e000000000000602082015250565b7f4f776e61626c653a206e6577206f776e657220697320746865207a65726f206160008201527f6464726573730000000000000000000000000000000000000000000000000000602082015250565b7f5661756c742068617320616c726561647920737461727420616363657074696e60008201527f67206465706f7369747300000000000000000000000000000000000000000000602082015250565b7f4e6f7420612076616c696420706f6f6c00000000000000000000000000000000600082015250565b7f416464726573733a20696e73756666696369656e742062616c616e636520666f60008201527f722063616c6c0000000000000000000000000000000000000000000000000000602082015250565b7f5061757361626c653a2070617573656400000000000000000000000000000000600082015250565b7f54686520616d6f756e74206f6620616c6c6f79782062726f6e7a6520636f696e60008201527f20746f20676574206973206e6f74206c6172676572207468616e203000000000602082015250565b7f546865207661756c7420646f6573206e6f74206861766520737566666963696560008201527f6e7420737461626c6520636f696e000000000000000000000000000000000000602082015250565b7f5573657220686173206e6f7420617070726f76656420746865207661756c742060008201527f666f722073756666696369656e7420737461626c6520636f696e000000000000602082015250565b7f557365722068617320696e73756666696369656e7420737461626c6520636f6960008201527f6e00000000000000000000000000000000000000000000000000000000000000602082015250565b7f42616c616e6365206f662047464920636f696e206d7573742062652030000000600082015250565b7f4f776e61626c653a2063616c6c6572206973206e6f7420746865206f776e6572600082015250565b7f42616c616e6365206f6620737461626c6520636f696e206d7573742062652030600082015250565b7f5573657220646f6573206e6f74206f776e207468697320746f6b656e00000000600082015250565b7f416464726573733a2063616c6c20746f206e6f6e2d636f6e7472616374000000600082015250565b7f5661756c7420686173206e6f7420737461727420616363657074696e6720646560008201527f706f736974730000000000000000000000000000000000000000000000000000602082015250565b7f5361666545524332303a204552433230206f7065726174696f6e20646964206e60008201527f6f74207375636365656400000000000000000000000000000000000000000000602082015250565b7f54686520616d6f756e74206f6620737461626c6520636f696e20746f2067657460008201527f206973206e6f74206c6172676572207468616e20300000000000000000000000602082015250565b7f42616c616e6365206f66204669647520636f696e206d75737420626520300000600082015250565b7f557365722068617320696e73756666696369656e7420616c6c6f797820636f6960008201527f6e00000000000000000000000000000000000000000000000000000000000000602082015250565b7f4e6f7420476f6c6466696e636820506f6f6c20546f6b656e0000000000000000600082015250565b61489981614088565b81146148a457600080fd5b50565b6148b08161409a565b81146148bb57600080fd5b50565b6148c7816140ac565b81146148d257600080fd5b50565b6148de81614104565b81146148e957600080fd5b5056fea264697066735822122064e1e4f72dca046da12fbb77dad59f36a1ef005fc6700e1259c6fe893c0fb62a64736f6c63430008070033",
  "devdoc": {
    "author": "AlloyX",
    "kind": "dev",
    "methods": {
      "depositAlloyxBronzeTokens(uint256)": {
        "params": {
          "_tokenAmount": "Number of Alloy Tokens"
        }
      },
      "depositNFTToken(address,uint256)": {
        "params": {
          "_tokenAddress": "NFT Address",
          "_tokenID": "NFT ID"
        }
      },
      "depositUSDCCoin(uint256)": {
        "params": {
          "_tokenAmount": "Number of stable coin"
        }
      },
      "isValidPool(address,uint256)": {
        "params": {
          "_tokenAddress": "The backer NFT address",
          "_tokenID": "The backer NFT id"
        }
      },
      "onERC721Received(address,address,uint256,bytes)": {
        "details": "See {IERC721Receiver-onERC721Received}. Always returns `IERC721Receiver.onERC721Received.selector`."
      },
      "owner()": {
        "details": "Returns the address of the current owner."
      },
      "paused()": {
        "details": "Returns true if the contract is paused, and false otherwise."
      },
      "renounceOwnership()": {
        "details": "Leaves the contract without owner. It will not be possible to call `onlyOwner` functions anymore. Can only be called by the current owner. NOTE: Renouncing ownership will leave the contract without an owner, thereby removing any functionality that is only available to the owner."
      },
      "transferOwnership(address)": {
        "details": "Transfers ownership of the contract to a new account (`newOwner`). Can only be called by the current owner."
      }
    },
    "title": "AlloyX Vault",
    "version": 1
  },
  "userdoc": {
    "kind": "user",
    "methods": {
      "depositAlloyxBronzeTokens(uint256)": {
        "notice": "An Alloy token holder can deposit their tokens and redeem them for USDC"
      },
      "depositNFTToken(address,uint256)": {
        "notice": "A Junior token holder can deposit their NFT for stable coin"
      },
      "depositUSDCCoin(uint256)": {
        "notice": "A Liquidity Provider can deposit supported stable coins for Alloy Tokens"
      },
      "isValidPool(address,uint256)": {
        "notice": "Using the PoolTokens interface, check if this is a valid pool"
      },
      "startVaultOperation()": {
        "notice": "Initialize by minting the alloy brown tokens to owner"
      }
    },
    "notice": "Initial vault for AlloyX. This vault holds loan tokens generated on Goldfinch and emits AlloyTokens when a liquidity provider deposits supported stable coins. The contract uses a pricing oracle to determine the value of the underlying assets",
    "version": 1
  },
  "storageLayout": {
    "storage": [
      {
        "astId": 2183,
        "contract": "contracts/alloyx/v2.0/AlloyVault.sol:AlloyVault",
        "label": "_owner",
        "offset": 0,
        "slot": "0",
        "type": "t_address"
      },
      {
        "astId": 2298,
        "contract": "contracts/alloyx/v2.0/AlloyVault.sol:AlloyVault",
        "label": "_paused",
        "offset": 20,
        "slot": "0",
        "type": "t_bool"
      },
      {
        "astId": 5466,
        "contract": "contracts/alloyx/v2.0/AlloyVault.sol:AlloyVault",
        "label": "vaultStarted",
        "offset": 21,
        "slot": "0",
        "type": "t_bool"
      },
      {
        "astId": 5469,
        "contract": "contracts/alloyx/v2.0/AlloyVault.sol:AlloyVault",
        "label": "usdcCoin",
        "offset": 0,
        "slot": "1",
        "type": "t_contract(IERC20)3038"
      },
      {
        "astId": 5472,
        "contract": "contracts/alloyx/v2.0/AlloyVault.sol:AlloyVault",
        "label": "gfiCoin",
        "offset": 0,
        "slot": "2",
        "type": "t_contract(IERC20)3038"
      },
      {
        "astId": 5475,
        "contract": "contracts/alloyx/v2.0/AlloyVault.sol:AlloyVault",
        "label": "fiduCoin",
        "offset": 0,
        "slot": "3",
        "type": "t_contract(IERC20)3038"
      },
      {
        "astId": 5478,
        "contract": "contracts/alloyx/v2.0/AlloyVault.sol:AlloyVault",
        "label": "goldFinchPoolToken",
        "offset": 0,
        "slot": "4",
        "type": "t_contract(IPoolTokens)6732"
      },
      {
        "astId": 5481,
        "contract": "contracts/alloyx/v2.0/AlloyVault.sol:AlloyVault",
        "label": "alloyxTokenBronze",
        "offset": 0,
        "slot": "5",
        "type": "t_contract(AlloyxTokenBronze)4240"
      },
      {
        "astId": 5484,
        "contract": "contracts/alloyx/v2.0/AlloyVault.sol:AlloyVault",
        "label": "alloyTokenSilver",
        "offset": 0,
        "slot": "6",
        "type": "t_contract(AlloyxTokenSilver)4303"
      },
      {
        "astId": 5487,
        "contract": "contracts/alloyx/v2.0/AlloyVault.sol:AlloyVault",
        "label": "seniorPool",
        "offset": 0,
        "slot": "7",
        "type": "t_contract(ISeniorPool)6828"
      },
      {
        "astId": 5490,
        "contract": "contracts/alloyx/v2.0/AlloyVault.sol:AlloyVault",
        "label": "goldFinchPoolTokenIds",
        "offset": 0,
        "slot": "8",
        "type": "t_array(t_uint256)dyn_storage"
      }
    ],
    "types": {
      "t_address": {
        "encoding": "inplace",
        "label": "address",
        "numberOfBytes": "20"
      },
      "t_array(t_uint256)dyn_storage": {
        "base": "t_uint256",
        "encoding": "dynamic_array",
        "label": "uint256[]",
        "numberOfBytes": "32"
      },
      "t_bool": {
        "encoding": "inplace",
        "label": "bool",
        "numberOfBytes": "1"
      },
      "t_contract(AlloyxTokenBronze)4240": {
        "encoding": "inplace",
        "label": "contract AlloyxTokenBronze",
        "numberOfBytes": "20"
      },
      "t_contract(AlloyxTokenSilver)4303": {
        "encoding": "inplace",
        "label": "contract AlloyxTokenSilver",
        "numberOfBytes": "20"
      },
      "t_contract(IERC20)3038": {
        "encoding": "inplace",
        "label": "contract IERC20",
        "numberOfBytes": "20"
      },
      "t_contract(IPoolTokens)6732": {
        "encoding": "inplace",
        "label": "contract IPoolTokens",
        "numberOfBytes": "20"
      },
      "t_contract(ISeniorPool)6828": {
        "encoding": "inplace",
        "label": "contract ISeniorPool",
        "numberOfBytes": "20"
      },
      "t_uint256": {
        "encoding": "inplace",
        "label": "uint256",
        "numberOfBytes": "32"
      }
    }
  }
}