{
  "address": "0xF399A7F4a18117b53E4F414Ea6d01235b5b5a637",
  "_format": "hh-sol-artifact-1",
  "contractName": "AlloyxVault",
  "sourceName": "contracts/alloyx/AlloyxVault.sol",
  "abi": [
    {
      "anonymous": false,
      "inputs": [
        {
          "indexed": false,
          "internalType": "address",
          "name": "_tokenReceiver",
          "type": "address"
        },
        {
          "indexed": false,
          "internalType": "uint256",
          "name": "_tokenAmount",
          "type": "uint256"
        }
      ],
      "name": "Burn",
      "type": "event"
    },
    {
      "anonymous": false,
      "inputs": [
        {
          "indexed": false,
          "internalType": "string",
          "name": "_field",
          "type": "string"
        },
        {
          "indexed": false,
          "internalType": "address",
          "name": "_address",
          "type": "address"
        }
      ],
      "name": "ChangeAddress",
      "type": "event"
    },
    {
      "anonymous": false,
      "inputs": [
        {
          "indexed": false,
          "internalType": "address",
          "name": "_tokenReceiver",
          "type": "address"
        },
        {
          "indexed": false,
          "internalType": "uint256",
          "name": "_tokenAmount",
          "type": "uint256"
        }
      ],
      "name": "Claim",
      "type": "event"
    },
    {
      "anonymous": false,
      "inputs": [
        {
          "indexed": false,
          "internalType": "address",
          "name": "_tokenAddress",
          "type": "address"
        },
        {
          "indexed": false,
          "internalType": "address",
          "name": "_tokenSender",
          "type": "address"
        },
        {
          "indexed": false,
          "internalType": "uint256",
          "name": "_tokenAmount",
          "type": "uint256"
        }
      ],
      "name": "DepositAlloyx",
      "type": "event"
    },
    {
      "anonymous": false,
      "inputs": [
        {
          "indexed": false,
          "internalType": "address",
          "name": "_tokenAddress",
          "type": "address"
        },
        {
          "indexed": false,
          "internalType": "address",
          "name": "_tokenSender",
          "type": "address"
        },
        {
          "indexed": false,
          "internalType": "uint256",
          "name": "_tokenAmount",
          "type": "uint256"
        },
        {
          "indexed": false,
          "internalType": "uint256",
          "name": "_tokenID",
          "type": "uint256"
        }
      ],
      "name": "DepositDuraForNft",
      "type": "event"
    },
    {
      "anonymous": false,
      "inputs": [
        {
          "indexed": false,
          "internalType": "address",
          "name": "_tokenAddress",
          "type": "address"
        },
        {
          "indexed": false,
          "internalType": "address",
          "name": "_tokenSender",
          "type": "address"
        },
        {
          "indexed": false,
          "internalType": "uint256",
          "name": "_tokenID",
          "type": "uint256"
        }
      ],
      "name": "DepositNftForDura",
      "type": "event"
    },
    {
      "anonymous": false,
      "inputs": [
        {
          "indexed": false,
          "internalType": "address",
          "name": "_tokenAddress",
          "type": "address"
        },
        {
          "indexed": false,
          "internalType": "address",
          "name": "_tokenSender",
          "type": "address"
        },
        {
          "indexed": false,
          "internalType": "uint256",
          "name": "_tokenID",
          "type": "uint256"
        }
      ],
      "name": "DepositNftForUsdc",
      "type": "event"
    },
    {
      "anonymous": false,
      "inputs": [
        {
          "indexed": false,
          "internalType": "address",
          "name": "_tokenAddress",
          "type": "address"
        },
        {
          "indexed": false,
          "internalType": "address",
          "name": "_tokenSender",
          "type": "address"
        },
        {
          "indexed": false,
          "internalType": "uint256",
          "name": "_tokenAmount",
          "type": "uint256"
        }
      ],
      "name": "DepositStable",
      "type": "event"
    },
    {
      "anonymous": false,
      "inputs": [
        {
          "indexed": false,
          "internalType": "uint8",
          "name": "version",
          "type": "uint8"
        }
      ],
      "name": "Initialized",
      "type": "event"
    },
    {
      "anonymous": false,
      "inputs": [
        {
          "indexed": false,
          "internalType": "address",
          "name": "_tokenReceiver",
          "type": "address"
        },
        {
          "indexed": false,
          "internalType": "uint256",
          "name": "_tokenAmount",
          "type": "uint256"
        }
      ],
      "name": "Mint",
      "type": "event"
    },
    {
      "anonymous": false,
      "inputs": [
        {
          "indexed": true,
          "internalType": "address",
          "name": "previousOwner",
          "type": "address"
        },
        {
          "indexed": true,
          "internalType": "address",
          "name": "newOwner",
          "type": "address"
        }
      ],
      "name": "OwnershipTransferred",
      "type": "event"
    },
    {
      "anonymous": false,
      "inputs": [
        {
          "indexed": false,
          "internalType": "address",
          "name": "account",
          "type": "address"
        }
      ],
      "name": "Paused",
      "type": "event"
    },
    {
      "anonymous": false,
      "inputs": [
        {
          "indexed": false,
          "internalType": "uint256",
          "name": "amount",
          "type": "uint256"
        }
      ],
      "name": "PurchaseJunior",
      "type": "event"
    },
    {
      "anonymous": false,
      "inputs": [
        {
          "indexed": false,
          "internalType": "uint256",
          "name": "amount",
          "type": "uint256"
        }
      ],
      "name": "PurchaseSenior",
      "type": "event"
    },
    {
      "anonymous": false,
      "inputs": [
        {
          "indexed": false,
          "internalType": "address",
          "name": "_tokenReceiver",
          "type": "address"
        },
        {
          "indexed": false,
          "internalType": "uint256",
          "name": "_tokenAmount",
          "type": "uint256"
        }
      ],
      "name": "Reward",
      "type": "event"
    },
    {
      "anonymous": false,
      "inputs": [
        {
          "indexed": false,
          "internalType": "uint256",
          "name": "amount",
          "type": "uint256"
        }
      ],
      "name": "SellJunior",
      "type": "event"
    },
    {
      "anonymous": false,
      "inputs": [
        {
          "indexed": false,
          "internalType": "uint256",
          "name": "amount",
          "type": "uint256"
        }
      ],
      "name": "SellSenior",
      "type": "event"
    },
    {
      "anonymous": false,
      "inputs": [
        {
          "indexed": false,
          "internalType": "string",
          "name": "_field",
          "type": "string"
        },
        {
          "indexed": false,
          "internalType": "uint256",
          "name": "_value",
          "type": "uint256"
        }
      ],
      "name": "SetField",
      "type": "event"
    },
    {
      "anonymous": false,
      "inputs": [
        {
          "indexed": false,
          "internalType": "address",
          "name": "_staker",
          "type": "address"
        },
        {
          "indexed": false,
          "internalType": "uint256",
          "name": "_amount",
          "type": "uint256"
        }
      ],
      "name": "Stake",
      "type": "event"
    },
    {
      "anonymous": false,
      "inputs": [
        {
          "indexed": false,
          "internalType": "address",
          "name": "account",
          "type": "address"
        }
      ],
      "name": "Unpaused",
      "type": "event"
    },
    {
      "anonymous": false,
      "inputs": [
        {
          "indexed": false,
          "internalType": "address",
          "name": "_unstaker",
          "type": "address"
        },
        {
          "indexed": false,
          "internalType": "uint256",
          "name": "_amount",
          "type": "uint256"
        }
      ],
      "name": "Unstake",
      "type": "event"
    },
    {
      "inputs": [
        {
          "internalType": "address",
          "name": "_addressToWhitelist",
          "type": "address"
        }
      ],
      "name": "addWhitelistedUser",
      "outputs": [],
      "stateMutability": "nonpayable",
      "type": "function"
    },
    {
      "inputs": [
        {
          "internalType": "uint256",
          "name": "_amount",
          "type": "uint256"
        }
      ],
      "name": "alloyxDURAToUSDC",
      "outputs": [
        {
          "internalType": "uint256",
          "name": "",
          "type": "uint256"
        }
      ],
      "stateMutability": "view",
      "type": "function"
    },
    {
      "inputs": [
        {
          "internalType": "address",
          "name": "_tokenAddress",
          "type": "address"
        },
        {
          "internalType": "address",
          "name": "_account",
          "type": "address"
        },
        {
          "internalType": "uint256",
          "name": "_amount",
          "type": "uint256"
        }
      ],
      "name": "approveDelegacy",
      "outputs": [],
      "stateMutability": "nonpayable",
      "type": "function"
    },
    {
      "inputs": [
        {
          "internalType": "address",
          "name": "_alloyxAddress",
          "type": "address"
        }
      ],
      "name": "changeAlloyxCRWNAddress",
      "outputs": [],
      "stateMutability": "nonpayable",
      "type": "function"
    },
    {
      "inputs": [
        {
          "internalType": "address",
          "name": "_alloyxAddress",
          "type": "address"
        }
      ],
      "name": "changeAlloyxDURAAddress",
      "outputs": [],
      "stateMutability": "nonpayable",
      "type": "function"
    },
    {
      "inputs": [
        {
          "internalType": "address",
          "name": "_goldfinchDelegacy",
          "type": "address"
        }
      ],
      "name": "changeGoldfinchDelegacyAddress",
      "outputs": [],
      "stateMutability": "nonpayable",
      "type": "function"
    },
    {
      "inputs": [
        {
          "internalType": "address",
          "name": "_uidAddress",
          "type": "address"
        }
      ],
      "name": "changeUIDAddress",
      "outputs": [],
      "stateMutability": "nonpayable",
      "type": "function"
    },
    {
      "inputs": [
        {
          "internalType": "address",
          "name": "_usdcAddress",
          "type": "address"
        }
      ],
      "name": "changeUSDCAddress",
      "outputs": [],
      "stateMutability": "nonpayable",
      "type": "function"
    },
    {
      "inputs": [],
      "name": "claimAllAlloyxCRWN",
      "outputs": [
        {
          "internalType": "bool",
          "name": "",
          "type": "bool"
        }
      ],
      "stateMutability": "nonpayable",
      "type": "function"
    },
    {
      "inputs": [
        {
          "internalType": "uint256",
          "name": "_amount",
          "type": "uint256"
        }
      ],
      "name": "claimAlloyxCRWN",
      "outputs": [
        {
          "internalType": "bool",
          "name": "",
          "type": "bool"
        }
      ],
      "stateMutability": "nonpayable",
      "type": "function"
    },
    {
      "inputs": [
        {
          "internalType": "uint256",
          "name": "_amount",
          "type": "uint256"
        }
      ],
      "name": "claimReward",
      "outputs": [
        {
          "internalType": "bool",
          "name": "",
          "type": "bool"
        }
      ],
      "stateMutability": "nonpayable",
      "type": "function"
    },
    {
      "inputs": [
        {
          "internalType": "uint256",
          "name": "_tokenAmount",
          "type": "uint256"
        }
      ],
      "name": "depositAlloyxDURATokens",
      "outputs": [
        {
          "internalType": "bool",
          "name": "",
          "type": "bool"
        }
      ],
      "stateMutability": "nonpayable",
      "type": "function"
    },
    {
      "inputs": [
        {
          "internalType": "uint256",
          "name": "_tokenAmount",
          "type": "uint256"
        }
      ],
      "name": "depositAlloyxDURATokensForFIDU",
      "outputs": [
        {
          "internalType": "bool",
          "name": "",
          "type": "bool"
        }
      ],
      "stateMutability": "nonpayable",
      "type": "function"
    },
    {
      "inputs": [
        {
          "internalType": "address",
          "name": "_tokenAddress",
          "type": "address"
        },
        {
          "internalType": "uint256",
          "name": "_tokenId",
          "type": "uint256"
        }
      ],
      "name": "depositAlloyxDURATokensForNft",
      "outputs": [
        {
          "internalType": "bool",
          "name": "",
          "type": "bool"
        }
      ],
      "stateMutability": "nonpayable",
      "type": "function"
    },
    {
      "inputs": [
        {
          "internalType": "address",
          "name": "_tokenAddress",
          "type": "address"
        },
        {
          "internalType": "uint256",
          "name": "_tokenID",
          "type": "uint256"
        }
      ],
      "name": "depositNFTTokenForDura",
      "outputs": [
        {
          "internalType": "bool",
          "name": "",
          "type": "bool"
        }
      ],
      "stateMutability": "nonpayable",
      "type": "function"
    },
    {
      "inputs": [
        {
          "internalType": "address",
          "name": "_tokenAddress",
          "type": "address"
        },
        {
          "internalType": "uint256",
          "name": "_tokenID",
          "type": "uint256"
        }
      ],
      "name": "depositNFTTokenForDuraWithStake",
      "outputs": [
        {
          "internalType": "bool",
          "name": "",
          "type": "bool"
        }
      ],
      "stateMutability": "nonpayable",
      "type": "function"
    },
    {
      "inputs": [
        {
          "internalType": "address",
          "name": "_tokenAddress",
          "type": "address"
        },
        {
          "internalType": "uint256",
          "name": "_tokenID",
          "type": "uint256"
        }
      ],
      "name": "depositNFTTokenForUsdc",
      "outputs": [
        {
          "internalType": "bool",
          "name": "",
          "type": "bool"
        }
      ],
      "stateMutability": "nonpayable",
      "type": "function"
    },
    {
      "inputs": [
        {
          "internalType": "uint256",
          "name": "_tokenAmount",
          "type": "uint256"
        }
      ],
      "name": "depositUSDCCoin",
      "outputs": [
        {
          "internalType": "bool",
          "name": "",
          "type": "bool"
        }
      ],
      "stateMutability": "nonpayable",
      "type": "function"
    },
    {
      "inputs": [
        {
          "internalType": "uint256",
          "name": "_tokenAmount",
          "type": "uint256"
        }
      ],
      "name": "depositUSDCCoinWithStake",
      "outputs": [
        {
          "internalType": "bool",
          "name": "",
          "type": "bool"
        }
      ],
      "stateMutability": "nonpayable",
      "type": "function"
    },
    {
      "inputs": [],
      "name": "duraToFiduFee",
      "outputs": [
        {
          "internalType": "uint256",
          "name": "",
          "type": "uint256"
        }
      ],
      "stateMutability": "view",
      "type": "function"
    },
    {
      "inputs": [],
      "name": "getAlloyxDURATokenBalanceInUSDC",
      "outputs": [
        {
          "internalType": "uint256",
          "name": "",
          "type": "uint256"
        }
      ],
      "stateMutability": "view",
      "type": "function"
    },
    {
      "inputs": [
        {
          "internalType": "uint256",
          "name": "_amount",
          "type": "uint256"
        }
      ],
      "name": "getRewardTokenCount",
      "outputs": [
        {
          "internalType": "uint256",
          "name": "",
          "type": "uint256"
        }
      ],
      "stateMutability": "view",
      "type": "function"
    },
    {
      "inputs": [
        {
          "internalType": "address",
          "name": "_userAddress",
          "type": "address"
        }
      ],
      "name": "hasWhitelistedUID",
      "outputs": [
        {
          "internalType": "bool",
          "name": "",
          "type": "bool"
        }
      ],
      "stateMutability": "view",
      "type": "function"
    },
    {
      "inputs": [
        {
          "internalType": "address",
          "name": "_alloyxDURAAddress",
          "type": "address"
        },
        {
          "internalType": "address",
          "name": "_alloyxCRWNAddress",
          "type": "address"
        },
        {
          "internalType": "address",
          "name": "_usdcCoinAddress",
          "type": "address"
        },
        {
          "internalType": "address",
          "name": "_goldfinchDelegacy",
          "type": "address"
        },
        {
          "internalType": "address",
          "name": "_alloyxStakeInfo",
          "type": "address"
        },
        {
          "internalType": "address",
          "name": "_uidAddress",
          "type": "address"
        }
      ],
      "name": "initialize",
      "outputs": [],
      "stateMutability": "nonpayable",
      "type": "function"
    },
    {
      "inputs": [
        {
          "internalType": "address",
          "name": "_whitelistedAddress",
          "type": "address"
        }
      ],
      "name": "isUserWhitelisted",
      "outputs": [
        {
          "internalType": "bool",
          "name": "",
          "type": "bool"
        }
      ],
      "stateMutability": "view",
      "type": "function"
    },
    {
      "inputs": [
        {
          "internalType": "address",
          "name": "_tokenAddress",
          "type": "address"
        },
        {
          "internalType": "address",
          "name": "_to",
          "type": "address"
        }
      ],
      "name": "migrateERC20",
      "outputs": [],
      "stateMutability": "nonpayable",
      "type": "function"
    },
    {
      "inputs": [
        {
          "internalType": "address",
          "name": "_tokenAddress",
          "type": "address"
        },
        {
          "internalType": "address",
          "name": "_toAddress",
          "type": "address"
        },
        {
          "internalType": "uint256",
          "name": "_tokenId",
          "type": "uint256"
        }
      ],
      "name": "migrateERC721",
      "outputs": [],
      "stateMutability": "nonpayable",
      "type": "function"
    },
    {
      "inputs": [
        {
          "internalType": "address",
          "name": "",
          "type": "address"
        },
        {
          "internalType": "address",
          "name": "",
          "type": "address"
        },
        {
          "internalType": "uint256",
          "name": "",
          "type": "uint256"
        },
        {
          "internalType": "bytes",
          "name": "",
          "type": "bytes"
        }
      ],
      "name": "onERC721Received",
      "outputs": [
        {
          "internalType": "bytes4",
          "name": "",
          "type": "bytes4"
        }
      ],
      "stateMutability": "nonpayable",
      "type": "function"
    },
    {
      "inputs": [],
      "name": "owner",
      "outputs": [
        {
          "internalType": "address",
          "name": "",
          "type": "address"
        }
      ],
      "stateMutability": "view",
      "type": "function"
    },
    {
      "inputs": [],
      "name": "pause",
      "outputs": [],
      "stateMutability": "nonpayable",
      "type": "function"
    },
    {
      "inputs": [],
      "name": "paused",
      "outputs": [
        {
          "internalType": "bool",
          "name": "",
          "type": "bool"
        }
      ],
      "stateMutability": "view",
      "type": "function"
    },
    {
      "inputs": [],
      "name": "percentageCRWNEarning",
      "outputs": [
        {
          "internalType": "uint256",
          "name": "",
          "type": "uint256"
        }
      ],
      "stateMutability": "view",
      "type": "function"
    },
    {
      "inputs": [],
      "name": "percentageDURARedemption",
      "outputs": [
        {
          "internalType": "uint256",
          "name": "",
          "type": "uint256"
        }
      ],
      "stateMutability": "view",
      "type": "function"
    },
    {
      "inputs": [],
      "name": "percentageDURARepayment",
      "outputs": [
        {
          "internalType": "uint256",
          "name": "",
          "type": "uint256"
        }
      ],
      "stateMutability": "view",
      "type": "function"
    },
    {
      "inputs": [],
      "name": "percentageDuraToFiduFee",
      "outputs": [
        {
          "internalType": "uint256",
          "name": "",
          "type": "uint256"
        }
      ],
      "stateMutability": "view",
      "type": "function"
    },
    {
      "inputs": [],
      "name": "percentageInvestJunior",
      "outputs": [
        {
          "internalType": "uint256",
          "name": "",
          "type": "uint256"
        }
      ],
      "stateMutability": "view",
      "type": "function"
    },
    {
      "inputs": [],
      "name": "percentageJuniorRedemption",
      "outputs": [
        {
          "internalType": "uint256",
          "name": "",
          "type": "uint256"
        }
      ],
      "stateMutability": "view",
      "type": "function"
    },
    {
      "inputs": [
        {
          "internalType": "uint256",
          "name": "_amount",
          "type": "uint256"
        },
        {
          "internalType": "address",
          "name": "_poolAddress",
          "type": "address"
        },
        {
          "internalType": "uint256",
          "name": "_tranche",
          "type": "uint256"
        }
      ],
      "name": "purchaseJuniorToken",
      "outputs": [],
      "stateMutability": "nonpayable",
      "type": "function"
    },
    {
      "inputs": [],
      "name": "purchaseJuniorTokenBeyondUsdcThreshold",
      "outputs": [],
      "stateMutability": "nonpayable",
      "type": "function"
    },
    {
      "inputs": [
        {
          "internalType": "uint256",
          "name": "_amount",
          "type": "uint256"
        }
      ],
      "name": "purchaseSeniorTokens",
      "outputs": [],
      "stateMutability": "nonpayable",
      "type": "function"
    },
    {
      "inputs": [],
      "name": "redemptionFee",
      "outputs": [
        {
          "internalType": "uint256",
          "name": "",
          "type": "uint256"
        }
      ],
      "stateMutability": "view",
      "type": "function"
    },
    {
      "inputs": [
        {
          "internalType": "address",
          "name": "_addressToDeWhitelist",
          "type": "address"
        }
      ],
      "name": "removeWhitelistedUser",
      "outputs": [],
      "stateMutability": "nonpayable",
      "type": "function"
    },
    {
      "inputs": [],
      "name": "renounceOwnership",
      "outputs": [],
      "stateMutability": "nonpayable",
      "type": "function"
    },
    {
      "inputs": [
        {
          "internalType": "uint256",
          "name": "_tokenId",
          "type": "uint256"
        },
        {
          "internalType": "uint256",
          "name": "_amount",
          "type": "uint256"
        },
        {
          "internalType": "address",
          "name": "_poolAddress",
          "type": "address"
        }
      ],
      "name": "sellJuniorToken",
      "outputs": [],
      "stateMutability": "nonpayable",
      "type": "function"
    },
    {
      "inputs": [
        {
          "internalType": "uint256",
          "name": "_amount",
          "type": "uint256"
        }
      ],
      "name": "sellSeniorTokens",
      "outputs": [],
      "stateMutability": "nonpayable",
      "type": "function"
    },
    {
      "inputs": [
        {
          "internalType": "uint256",
          "name": "_percentageCRWNEarning",
          "type": "uint256"
        }
      ],
      "name": "setPercentageCRWNEarning",
      "outputs": [],
      "stateMutability": "nonpayable",
      "type": "function"
    },
    {
      "inputs": [
        {
          "internalType": "uint256",
          "name": "_percentageDURARedemption",
          "type": "uint256"
        }
      ],
      "name": "setPercentageDURARedemption",
      "outputs": [],
      "stateMutability": "nonpayable",
      "type": "function"
    },
    {
      "inputs": [
        {
          "internalType": "uint256",
          "name": "_percentageDURARepayment",
          "type": "uint256"
        }
      ],
      "name": "setPercentageDURARepayment",
      "outputs": [],
      "stateMutability": "nonpayable",
      "type": "function"
    },
    {
      "inputs": [
        {
          "internalType": "uint256",
          "name": "_percentageDuraToFiduFee",
          "type": "uint256"
        }
      ],
      "name": "setPercentageDuraToFiduFee",
      "outputs": [],
      "stateMutability": "nonpayable",
      "type": "function"
    },
    {
      "inputs": [
        {
          "internalType": "uint256",
          "name": "_amount",
          "type": "uint256"
        }
      ],
      "name": "stake",
      "outputs": [
        {
          "internalType": "bool",
          "name": "",
          "type": "bool"
        }
      ],
      "stateMutability": "nonpayable",
      "type": "function"
    },
    {
      "inputs": [],
      "name": "startVaultOperation",
      "outputs": [
        {
          "internalType": "bool",
          "name": "",
          "type": "bool"
        }
      ],
      "stateMutability": "nonpayable",
      "type": "function"
    },
    {
      "inputs": [],
      "name": "totalClaimableAndClaimedCRWNToken",
      "outputs": [
        {
          "internalType": "uint256",
          "name": "",
          "type": "uint256"
        }
      ],
      "stateMutability": "view",
      "type": "function"
    },
    {
      "inputs": [
        {
          "internalType": "address",
          "name": "_to",
          "type": "address"
        }
      ],
      "name": "transferAlloyxOwnership",
      "outputs": [],
      "stateMutability": "nonpayable",
      "type": "function"
    },
    {
      "inputs": [
        {
          "internalType": "address",
          "name": "newOwner",
          "type": "address"
        }
      ],
      "name": "transferOwnership",
      "outputs": [],
      "stateMutability": "nonpayable",
      "type": "function"
    },
    {
      "inputs": [
        {
          "internalType": "address",
          "name": "_to",
          "type": "address"
        }
      ],
      "name": "transferRedemptionFee",
      "outputs": [],
      "stateMutability": "nonpayable",
      "type": "function"
    },
    {
      "inputs": [],
      "name": "unpause",
      "outputs": [],
      "stateMutability": "nonpayable",
      "type": "function"
    },
    {
      "inputs": [
        {
          "internalType": "uint256",
          "name": "_amount",
          "type": "uint256"
        }
      ],
      "name": "unstake",
      "outputs": [
        {
          "internalType": "bool",
          "name": "",
          "type": "bool"
        }
      ],
      "stateMutability": "nonpayable",
      "type": "function"
    },
    {
      "inputs": [
        {
          "internalType": "uint256",
          "name": "_amount",
          "type": "uint256"
        }
      ],
      "name": "usdcToAlloyxDURA",
      "outputs": [
        {
          "internalType": "uint256",
          "name": "",
          "type": "uint256"
        }
      ],
      "stateMutability": "view",
      "type": "function"
    }
  ],
  "bytecode": "0x608060405234801561001057600080fd5b50615511806100206000396000f3fe608060405234801561001057600080fd5b506004361061029e5760003560e01c806307dd2ef2146102a35780630d518001146102bf5780630d7a3c6e146102d75780630eb9a007146102ea578063150b7a02146102ff57806315c2eb1c1461033657806319859a6d1461033f5780631b61eb6714610352578063219f579d14610365578063223ea9b01461036e5780632a88ec54146103775780632c5792131461038a5780632d9411a61461039d5780632e17de78146103b05780633f4ba83a146103c3578063458f5815146103cb578063506c4e69146103d457806351ba9724146103e7578063528accd6146103fa57806353c98f5a1461040d5780635c975abb146104205780635ddd351d1461042b57806361e00e72146104345780636d9635ed1461043d578063715018a61461045057806382633519146104585780638456cb591461046b5780638525f513146104735780638668f2f3146104865780638d6f4d21146104995780638da5cb5b146104a15780638f2da01d146104b65780639cdad708146104c9578063a45921ff146104dc578063a694fc3a146104ef578063a98e6b6214610502578063acb1eaf114610515578063ae169a501461051d578063b231e25d14610530578063b7840d1a14610543578063b7b1b8e91461054c578063be48a19e1461055f578063c070c2bd14610572578063c6f110fb14610585578063c8977e0214610598578063cb80714b146105ab578063cc2a9a5b146105be578063ce3c39c1146105d1578063d3130972146105e4578063d8ec0608146105f7578063d905e9b41461060a578063e91f03e61461061d578063e93039cb14610625578063ede7bf601461062d578063f1a341f714610640578063f2bc926914610653578063f2fde38b14610666578063fb237eb214610679575b600080fd5b6102ac60cd5481565b6040519081526020015b60405180910390f35b6102c761068c565b60405190151581526020016102b6565b6102ac6102e5366004614c80565b61087d565b6102fd6102f8366004614a5b565b610930565b005b61031d61030d366004614b59565b630a85bd0160e11b949350505050565b6040516001600160e01b031990911681526020016102b6565b6102ac60cf5481565b6102ac61034d366004614c80565b6109ce565b6102fd610360366004614cb2565b610a70565b6102ac60cb5481565b6102ac60cc5481565b6102fd610385366004614a5b565b610b58565b6102fd610398366004614c80565b610bcf565b6102c76103ab366004614a5b565b610ca6565b6102c76103be366004614c80565b610dc8565b6102fd610ed3565b6102ac60d05481565b6102c76103e2366004614c34565b610f2e565b6102c76103f5366004614c80565b61121a565b6102fd610408366004614a5b565b61146b565b6102c761041b366004614c80565b6114f9565b60975460ff166102c7565b6102ac60ca5481565b6102ac60ce5481565b6102c761044b366004614c34565b6117fb565b6102fd611b25565b6102fd610466366004614c80565b611b5e565b6102fd611be1565b6102c7610481366004614c34565b611c3b565b6102fd610494366004614a5b565b611f9e565b6102c761202c565b6104a96121ea565b6040516102b69190614d28565b6102fd6104c4366004614c80565b6121f9565b6102fd6104d7366004614c80565b6122c5565b6102fd6104ea366004614b1d565b612349565b6102c76104fd366004614c80565b6123e3565b6102fd610510366004614b1d565b6124cc565b6102fd61254d565b6102c761052b366004614c80565b612736565b6102fd61053e366004614a5b565b6129b5565b6102ac60d15481565b6102fd61055a366004614a5b565b612a7c565b6102fd61056d366004614a5b565b612b16565b6102fd610580366004614a5b565b612bab565b6102c7610593366004614c34565b612c40565b6102c76105a6366004614c80565b613035565b6102fd6105b9366004614c80565b61342e565b6102fd6105cc366004614aa9565b6134af565b6102c76105df366004614c80565b6135c3565b6102fd6105f2366004614c80565b613937565b6102fd610605366004614a5b565b6139ba565b6102fd610618366004614a76565b613ad2565b6102ac613bbd565b6102ac613d0b565b6102ac61063b366004614c80565b613e21565b6102fd61064e366004614cd7565b613ec6565b6102c7610661366004614c80565b613fab565b6102fd610674366004614a5b565b6143ae565b6102c7610687366004614a5b565b61444e565b600061069a60975460ff1690565b156106c05760405162461bcd60e51b81526004016106b790614ed8565b60405180910390fd5b60c95460ff166106e25760405162461bcd60e51b81526004016106b790615090565b60d85460405163816c1acd60e01b81526000916001600160a01b03169063816c1acd90610713903390600401614d28565b60206040518083038186803b15801561072b57600080fd5b505afa15801561073f573d6000803e3d6000fd5b505050506040513d601f19601f820116820180604052508101906107639190614c99565b60d6546040516340c10f1960e01b81529192506001600160a01b0316906340c10f19906107969033908590600401614d7a565b602060405180830381600087803b1580156107b057600080fd5b505af11580156107c4573d6000803e3d6000fd5b505050506040513d601f19601f820116820180604052508101906107e89190614c5e565b5060d854604051631363565760e21b81526001600160a01b0390911690634d8d595c9061081c903390600090600401614d7a565b600060405180830381600087803b15801561083657600080fd5b505af115801561084a573d6000803e3d6000fd5b5050505060008051602061547c833981519152338260405161086d929190614d7a565b60405180910390a1600191505090565b60008060d560009054906101000a90046001600160a01b03166001600160a01b03166318160ddd6040518163ffffffff1660e01b815260040160206040518083038186803b1580156108ce57600080fd5b505afa1580156108e2573d6000803e3d6000fd5b505050506040513d601f19601f820116820180604052508101906109069190614c99565b90506000610912613bbd565b9050610928816109228685614479565b9061448c565b949350505050565b336109396121ea565b6001600160a01b03161461095f5760405162461bcd60e51b81526004016106b790615027565b60d780546001600160a01b0319166001600160a01b0383169081179091556040805181815260119181019190915270676f6c6466696e636844656c656761637960781b6060820152602081019190915260008051602061545c833981519152906080015b60405180910390a150565b60d7546000906001600160a01b031663a2a9ccea836109eb613d0b565b60cd546040516001600160e01b031960e086901b16815260048101939093526024830191909152604482015260640160206040518083038186803b158015610a3257600080fd5b505afa158015610a46573d6000803e3d6000fd5b505050506040513d601f19601f82011682018060405250810190610a6a9190614c99565b92915050565b33610a796121ea565b6001600160a01b031614610a9f5760405162461bcd60e51b81526004016106b790615027565b60008311610abf5760405162461bcd60e51b81526004016106b790615153565b60d754604051631b61eb6760e01b8152600481018590526001600160a01b0384811660248301526044820184905290911690631b61eb6790606401600060405180830381600087803b158015610b1457600080fd5b505af1158015610b28573d6000803e3d6000fd5b5050505060008051602061539c83398151915283604051610b4b91815260200190565b60405180910390a1505050565b33610b616121ea565b6001600160a01b031614610b875760405162461bcd60e51b81526004016106b790615027565b60975460ff1615610baa5760405162461bcd60e51b81526004016106b790614ed8565b60d05460d454610bc7916001600160a01b03909116908390614498565b50600060d055565b33610bd86121ea565b6001600160a01b031614610bfe5760405162461bcd60e51b81526004016106b790615027565b60008111610c1e5760405162461bcd60e51b81526004016106b790615121565b60d75460cc5460405163f5a4162760e01b81526004810184905260248101919091526001600160a01b039091169063f5a4162790604401600060405180830381600087803b158015610c6f57600080fd5b505af1158015610c83573d6000803e3d6000fd5b505050506000805160206153bc833981519152816040516109c391815260200190565b60d354604051627eeac760e11b815260009182916001600160a01b039091169062fdd58e90610cdb9086908590600401614d7a565b60206040518083038186803b158015610cf357600080fd5b505afa158015610d07573d6000803e3d6000fd5b505050506040513d601f19601f82011682018060405250810190610d2b9190614c99565b60d354604051627eeac760e11b81529192506000916001600160a01b039091169062fdd58e90610d619087906004908101614d7a565b60206040518083038186803b158015610d7957600080fd5b505afa158015610d8d573d6000803e3d6000fd5b505050506040513d601f19601f82011682018060405250810190610db19190614c99565b90506000610dbf8284615188565b11949350505050565b6000610dd660975460ff1690565b15610df35760405162461bcd60e51b81526004016106b790614ed8565b60c95460ff16610e155760405162461bcd60e51b81526004016106b790615090565b60d8546040516334673ec560e11b81526001600160a01b03909116906368ce7d8a90610e479033908690600401614d7a565b600060405180830381600087803b158015610e6157600080fd5b505af1158015610e75573d6000803e3d6000fd5b505060d554610e9192506001600160a01b031690503384614498565b7f85082129d87b2fe11527cb1b3b7a520aeb5aa6913f88a3d8757fe40d1db02fdd3383604051610ec2929190614d7a565b60405180910390a15060015b919050565b33610edc6121ea565b6001600160a01b031614610f025760405162461bcd60e51b81526004016106b790615027565b60975460ff16610f245760405162461bcd60e51b81526004016106b790614dc6565b610f2c6144ee565b565b6000610f3c60975460ff1690565b15610f595760405162461bcd60e51b81526004016106b790614ed8565b60c95460ff16610f7b5760405162461bcd60e51b81526004016106b790615090565b33600081815260d2602052604090205460ff1680610f9d5750610f9d81610ca6565b610fb95760405162461bcd60e51b81526004016106b79061505c565b60d7546040516373f4047360e11b81526000916001600160a01b03169063e7e808e690610fee90889033908990600401614d56565b602060405180830381600087803b15801561100857600080fd5b505af115801561101c573d6000803e3d6000fd5b505050506040513d601f19601f820116820180604052508101906110409190614c99565b9050600061104d8261087d565b90506000811161106f5760405162461bcd60e51b81526004016106b790614e7e565b60d754604051632142170760e11b81526001600160a01b03808916926342842e0e926110a392339216908a90600401614d56565b600060405180830381600087803b1580156110bd57600080fd5b505af11580156110d1573d6000803e3d6000fd5b505060d5546040516340c10f1960e01b81526001600160a01b0390911692506340c10f1991506111079033908590600401614d7a565b602060405180830381600087803b15801561112157600080fd5b505af1158015611135573d6000803e3d6000fd5b505050506040513d601f19601f820116820180604052508101906111599190614c5e565b5060d754604051630526536f60e41b81526001600160a01b039091169063526536f09061118c9033908990600401614d7a565b600060405180830381600087803b1580156111a657600080fd5b505af11580156111ba573d6000803e3d6000fd5b505050506000805160206154bc83398151915233826040516111dd929190614d7a565b60405180910390a160008051602061541c83398151915286338760405161120693929190614d56565b60405180910390a150600195945050505050565b600061122860975460ff1690565b156112455760405162461bcd60e51b81526004016106b790614ed8565b60c95460ff166112675760405162461bcd60e51b81526004016106b790615090565b60d85460405163816c1acd60e01b81526000916001600160a01b03169063816c1acd90611298903390600401614d28565b60206040518083038186803b1580156112b057600080fd5b505afa1580156112c4573d6000803e3d6000fd5b505050506040513d601f19601f820116820180604052508101906112e89190614c99565b90508281101561134b5760405162461bcd60e51b815260206004820152602860248201527f557365722068617320636c61696d6564206d6f7265207468616e206865277320604482015267195b9d1a5d1b195960c21b60648201526084016106b7565b60d6546040516340c10f1960e01b81526001600160a01b03909116906340c10f199061137d9033908790600401614d7a565b602060405180830381600087803b15801561139757600080fd5b505af11580156113ab573d6000803e3d6000fd5b505050506040513d601f19601f820116820180604052508101906113cf9190614c5e565b5060d8546001600160a01b0316634d8d595c336113ec8487614554565b6040518363ffffffff1660e01b8152600401611409929190614d7a565b600060405180830381600087803b15801561142357600080fd5b505af1158015611437573d6000803e3d6000fd5b5050505060008051602061547c833981519152338460405161145a929190614d7a565b60405180910390a150600192915050565b336114746121ea565b6001600160a01b03161461149a5760405162461bcd60e51b81526004016106b790615027565b60d480546001600160a01b0319166001600160a01b03831690811790915560408051818152600891810191909152673ab9b231a1b7b4b760c11b6060820152602081019190915260008051602061545c833981519152906080016109c3565b600061150760975460ff1690565b156115245760405162461bcd60e51b81526004016106b790614ed8565b60c95460ff166115465760405162461bcd60e51b81526004016106b790615090565b33600081815260d2602052604090205460ff1680611568575061156881610ca6565b6115845760405162461bcd60e51b81526004016106b79061505c565b60d4546040516370a0823160e01b815284916001600160a01b0316906370a08231906115b4903390600401614d28565b60206040518083038186803b1580156115cc57600080fd5b505afa1580156115e0573d6000803e3d6000fd5b505050506040513d601f19601f820116820180604052508101906116049190614c99565b10156116225760405162461bcd60e51b81526004016106b790614fe6565b60d454604051636eb1769f60e11b815284916001600160a01b03169063dd62ed3e906116549033903090600401614d3c565b60206040518083038186803b15801561166c57600080fd5b505afa158015611680573d6000803e3d6000fd5b505050506040513d601f19601f820116820180604052508101906116a49190614c99565b10156116c25760405162461bcd60e51b81526004016106b790614f9e565b60006116cd8461087d565b9050600081116116ef5760405162461bcd60e51b81526004016106b790614e7e565b60d75460d45461170e916001600160a01b039182169133911687614560565b60d5546040516340c10f1960e01b81526001600160a01b03909116906340c10f19906117409033908590600401614d7a565b602060405180830381600087803b15801561175a57600080fd5b505af115801561176e573d6000803e3d6000fd5b505050506040513d601f19601f820116820180604052508101906117929190614c5e565b5060d45460405160008051602061535c833981519152916117c2916001600160a01b039091169033908590614d56565b60405180910390a16000805160206154bc83398151915233826040516117e9929190614d7a565b60405180910390a15060019392505050565b600061180960975460ff1690565b156118265760405162461bcd60e51b81526004016106b790614ed8565b60c95460ff166118485760405162461bcd60e51b81526004016106b790615090565b33600081815260d2602052604090205460ff168061186a575061186a81610ca6565b6118865760405162461bcd60e51b81526004016106b79061505c565b60d7546040516373f4047360e11b81526000916001600160a01b03169063e7e808e6906118bb90889033908990600401614d56565b602060405180830381600087803b1580156118d557600080fd5b505af11580156118e9573d6000803e3d6000fd5b505050506040513d601f19601f8201168201806040525081019061190d9190614c99565b60d754604051632142170760e11b81529192506001600160a01b03808816926342842e0e926119459233929116908990600401614d56565b600060405180830381600087803b15801561195f57600080fd5b505af1158015611973573d6000803e3d6000fd5b505060d4546040516370a0823160e01b81528493506001600160a01b0390911691506370a08231906119a9903090600401614d28565b60206040518083038186803b1580156119c157600080fd5b505afa1580156119d5573d6000803e3d6000fd5b505050506040513d601f19601f820116820180604052508101906119f99190614c99565b1015611a175760405162461bcd60e51b81526004016106b790614f02565b60d75460405163196b544360e01b81526001600160a01b039091169063196b544390611a499033908590600401614d7a565b600060405180830381600087803b158015611a6357600080fd5b505af1158015611a77573d6000803e3d6000fd5b505060d754604051630526536f60e41b81526001600160a01b03909116925063526536f09150611aad9033908890600401614d7a565b600060405180830381600087803b158015611ac757600080fd5b505af1158015611adb573d6000803e3d6000fd5b505050507fbd79f1f460e034518df15c5ee22bd948260e489c02fde00f9a0f423be08311e7853386604051611b1293929190614d56565b60405180910390a1506001949350505050565b33611b2e6121ea565b6001600160a01b031614611b545760405162461bcd60e51b81526004016106b790615027565b610f2c6000614587565b33611b676121ea565b6001600160a01b031614611b8d5760405162461bcd60e51b81526004016106b790615027565b60cc81905560408051818152601791810191909152761c195c98d95b9d1859d95115549054995c185e5b595b9d604a1b6060820152602081018290526000805160206153dc833981519152906080016109c3565b33611bea6121ea565b6001600160a01b031614611c105760405162461bcd60e51b81526004016106b790615027565b60975460ff1615611c335760405162461bcd60e51b81526004016106b790614ed8565b610f2c6145d9565b6000611c4960975460ff1690565b15611c665760405162461bcd60e51b81526004016106b790614ed8565b60c95460ff16611c885760405162461bcd60e51b81526004016106b790615090565b33600081815260d2602052604090205460ff1680611caa5750611caa81610ca6565b611cc65760405162461bcd60e51b81526004016106b79061505c565b60d7546040516373f4047360e11b81526000916001600160a01b03169063e7e808e690611cfb90889033908990600401614d56565b602060405180830381600087803b158015611d1557600080fd5b505af1158015611d29573d6000803e3d6000fd5b505050506040513d601f19601f82011682018060405250810190611d4d9190614c99565b90506000611d5a8261087d565b905060008111611d7c5760405162461bcd60e51b81526004016106b790614e7e565b60d754604051632142170760e11b81526001600160a01b03808916926342842e0e92611db092339216908a90600401614d56565b600060405180830381600087803b158015611dca57600080fd5b505af1158015611dde573d6000803e3d6000fd5b505060d5546040516340c10f1960e01b81526001600160a01b0390911692506340c10f199150611e149030908590600401614d7a565b602060405180830381600087803b158015611e2e57600080fd5b505af1158015611e42573d6000803e3d6000fd5b505050506040513d601f19601f82011682018060405250810190611e669190614c5e565b5060d8546040516331ba14cf60e11b81526001600160a01b0390911690636374299e90611e999033908590600401614d7a565b600060405180830381600087803b158015611eb357600080fd5b505af1158015611ec7573d6000803e3d6000fd5b505060d754604051630526536f60e41b81526001600160a01b03909116925063526536f09150611efd9033908990600401614d7a565b600060405180830381600087803b158015611f1757600080fd5b505af1158015611f2b573d6000803e3d6000fd5b505050506000805160206154bc8339815191523082604051611f4e929190614d7a565b60405180910390a160008051602061541c833981519152863387604051611f7793929190614d56565b60405180910390a160008051602061533c8339815191523382604051611206929190614d7a565b33611fa76121ea565b6001600160a01b031614611fcd5760405162461bcd60e51b81526004016106b790615027565b60d380546001600160a01b0319166001600160a01b03831690811790915560408051818152600891810191909152673ab4b22a37b5b2b760c11b6060820152602081019190915260008051602061545c833981519152906080016109c3565b6000336120376121ea565b6001600160a01b03161461205d5760405162461bcd60e51b81526004016106b790615027565b60c95460ff16156120c55760405162461bcd60e51b815260206004820152602c60248201527f5661756c742068617320616c726561647920737461727465642061636365707460448201526b696e67206465706f7369747360a01b60648201526084016106b7565b60006120cf613bbd565b9050600081116121355760405162461bcd60e51b815260206004820152602b60248201527f5661756c74206d757374206861766520706f7369746976652076616c7565206260448201526a19599bdc99481cdd185c9d60aa1b60648201526084016106b7565b60d5546001600160a01b03166340c10f1930612164612152614631565b61092261215d61463f565b8790614479565b6040518363ffffffff1660e01b8152600401612181929190614d7a565b602060405180830381600087803b15801561219b57600080fd5b505af11580156121af573d6000803e3d6000fd5b505050506040513d601f19601f820116820180604052508101906121d39190614c5e565b505060c9805460ff19166001908117909155905090565b6065546001600160a01b031690565b336122026121ea565b6001600160a01b0316146122285760405162461bcd60e51b81526004016106b790615027565b600081116122485760405162461bcd60e51b81526004016106b790615153565b60d754604051638f2da01d60e01b8152600481018390526001600160a01b0390911690638f2da01d90602401600060405180830381600087803b15801561228e57600080fd5b505af11580156122a2573d6000803e3d6000fd5b5050505060008051602061537c833981519152816040516109c391815260200190565b336122ce6121ea565b6001600160a01b0316146122f45760405162461bcd60e51b81526004016106b790615027565b60ca81905560408051818152601891810191909152773832b931b2b73a30b3b2a22aa920a932b232b6b83a34b7b760411b6060820152602081018290526000805160206153dc833981519152906080016109c3565b336123526121ea565b6001600160a01b0316146123785760405162461bcd60e51b81526004016106b790615027565b60d75460405163e1f21c6760e01b81526001600160a01b039091169063e1f21c67906123ac90869086908690600401614d56565b600060405180830381600087803b1580156123c657600080fd5b505af11580156123da573d6000803e3d6000fd5b50505050505050565b60006123f160975460ff1690565b1561240e5760405162461bcd60e51b81526004016106b790614ed8565b60c95460ff166124305760405162461bcd60e51b81526004016106b790615090565b60d8546040516331ba14cf60e11b81526001600160a01b0390911690636374299e906124629033908690600401614d7a565b600060405180830381600087803b15801561247c57600080fd5b505af1158015612490573d6000803e3d6000fd5b505060d5546124ad92506001600160a01b03169050333085614560565b60008051602061533c8339815191523383604051610ec2929190614d7a565b336124d56121ea565b6001600160a01b0316146124fb5760405162461bcd60e51b81526004016106b790615027565b60975460ff1661251d5760405162461bcd60e51b81526004016106b790614dc6565b604051632142170760e11b81526001600160a01b038416906342842e0e906123ac90309086908690600401614d56565b6000612557613bbd565b9050600061257260d15460d05461464d90919063ffffffff16565b905060006126178261261160d760009054906101000a90046001600160a01b03166001600160a01b031663b067b6256040518163ffffffff1660e01b815260040160206040518083038186803b1580156125cb57600080fd5b505afa1580156125df573d6000803e3d6000fd5b505050506040513d601f19601f820116820180604052508101906126039190614c99565b61260b614659565b9061464d565b90614554565b60cf5490915061262c84610922846064614479565b1161268a5760405162461bcd60e51b815260206004820152602860248201527f7573646320746f6b656e206d757374207265616368206365727461696e2070656044820152677263656e7461676560c01b60648201526084016106b7565b60d7546126b9906001600160a01b03166126a684612611614659565b60d4546001600160a01b03169190614498565b60d754604051632ded89c760e01b8152600481018390526001600160a01b0390911690632ded89c790602401600060405180830381600087803b1580156126ff57600080fd5b505af1158015612713573d6000803e3d6000fd5b5050505060008051602061539c83398151915281604051610b4b91815260200190565b600061274460975460ff1690565b156127615760405162461bcd60e51b81526004016106b790614ed8565b60c95460ff166127835760405162461bcd60e51b81526004016106b790615090565b60d6546040516370a0823160e01b815283916001600160a01b0316906370a08231906127b3903390600401614d28565b60206040518083038186803b1580156127cb57600080fd5b505afa1580156127df573d6000803e3d6000fd5b505050506040513d601f19601f820116820180604052508101906128039190614c99565b10156128765760405162461bcd60e51b815260206004820152603c60248201527f42616c616e6365206f66206372776e20636f696e206d757374206265206c617260448201527b676572207468616e2074686520616d6f756e7420746f20636c61696d60201b60648201526084016106b7565b60d7546001600160a01b031663d848b0583384612891613d0b565b60cd546040516001600160e01b031960e087901b1681526001600160a01b039094166004850152602484019290925260448301526064820152608401600060405180830381600087803b1580156128e757600080fd5b505af11580156128fb573d6000803e3d6000fd5b505060d654604051632770a7eb60e21b81526001600160a01b039091169250639dc29fac91506129319033908690600401614d7a565b602060405180830381600087803b15801561294b57600080fd5b505af115801561295f573d6000803e3d6000fd5b505050506040513d601f19601f820116820180604052508101906129839190614c5e565b507f619caafabdd75649b302ba8419e48cccf64f37f1983ac4727cfb38b57703ffc93383604051610ec2929190614d7a565b336129be6121ea565b6001600160a01b0316146129e45760405162461bcd60e51b81526004016106b790615027565b6001600160a01b038116600090815260d26020526040902054819060ff16158015612a155750612a1381610ca6565b155b612a575760405162461bcd60e51b8152602060048201526013602482015272165bdd48185c99481dda1a5d195b1a5cdd1959606a1b60448201526064016106b7565b506001600160a01b0316600090815260d260205260409020805460ff19166001179055565b33612a856121ea565b6001600160a01b031614612aab5760405162461bcd60e51b81526004016106b790615027565b6001600160a01b038116600090815260d26020526040902054819060ff1680612ad85750612ad881610ca6565b612af45760405162461bcd60e51b81526004016106b79061505c565b506001600160a01b0316600090815260d260205260409020805460ff19169055565b33612b1f6121ea565b6001600160a01b031614612b455760405162461bcd60e51b81526004016106b790615027565b60d680546001600160a01b0319166001600160a01b03831690811790915560408051818152600f918101919091526e30b63637bcbc2a37b5b2b721a92ba760891b6060820152602081019190915260008051602061545c833981519152906080016109c3565b33612bb46121ea565b6001600160a01b031614612bda5760405162461bcd60e51b81526004016106b790615027565b60d580546001600160a01b0319166001600160a01b03831690811790915560408051818152600f918101919091526e616c6c6f7978546f6b656e4455524160881b6060820152602081019190915260008051602061545c833981519152906080016109c3565b6000612c4e60975460ff1690565b15612c6b5760405162461bcd60e51b81526004016106b790614ed8565b60c95460ff16612c8d5760405162461bcd60e51b81526004016106b790615090565b33600081815260d2602052604090205460ff1680612caf5750612caf81610ca6565b612ccb5760405162461bcd60e51b81526004016106b79061505c565b60d7546040516301b1608160e31b8152600481018590526000916001600160a01b031690630d8b04089060240160206040518083038186803b158015612d1057600080fd5b505afa158015612d24573d6000803e3d6000fd5b505050506040513d601f19601f82011682018060405250810190612d489190614c99565b90506000612d66606461092260ce548561447990919063ffffffff16565b90506000612d776102e5848461464d565b60d054909150612d87908361464d565b60d05560d5546040516370a0823160e01b815282916001600160a01b0316906370a0823190612dba903390600401614d28565b60206040518083038186803b158015612dd257600080fd5b505afa158015612de6573d6000803e3d6000fd5b505050506040513d601f19601f82011682018060405250810190612e0a9190614c99565b1015612e285760405162461bcd60e51b81526004016106b790614e3c565b60d554604051636eb1769f60e11b815282916001600160a01b03169063dd62ed3e90612e5a9033903090600401614d3c565b60206040518083038186803b158015612e7257600080fd5b505afa158015612e86573d6000803e3d6000fd5b505050506040513d601f19601f82011682018060405250810190612eaa9190614c99565b1015612ec85760405162461bcd60e51b81526004016106b790614df4565b60d754604051638180048160e01b81526001600160a01b0390911690638180048190612efa9033908a90600401614d7a565b600060405180830381600087803b158015612f1457600080fd5b505af1158015612f28573d6000803e3d6000fd5b505060d554604051632770a7eb60e21b81526001600160a01b039091169250639dc29fac9150612f5e9033908590600401614d7a565b602060405180830381600087803b158015612f7857600080fd5b505af1158015612f8c573d6000803e3d6000fd5b505050506040513d601f19601f82011682018060405250810190612fb09190614c5e565b5060008051602061549c8339815191523382604051612fd0929190614d7a565b60405180910390a1604080516001600160a01b0389168152336020820152908101829052606081018790527fe4e74313c79a8268c4d06dd63eee7218cdc6010196548b1ac2f9ecc67e45c2f29060800160405180910390a15060019695505050505050565b600061304360975460ff1690565b156130605760405162461bcd60e51b81526004016106b790614ed8565b60c95460ff166130825760405162461bcd60e51b81526004016106b790615090565b33600081815260d2602052604090205460ff16806130a457506130a481610ca6565b6130c05760405162461bcd60e51b81526004016106b79061505c565b60d5546040516370a0823160e01b815284916001600160a01b0316906370a08231906130f0903390600401614d28565b60206040518083038186803b15801561310857600080fd5b505afa15801561311c573d6000803e3d6000fd5b505050506040513d601f19601f820116820180604052508101906131409190614c99565b101561315e5760405162461bcd60e51b81526004016106b790614e3c565b60d554604051636eb1769f60e11b815284916001600160a01b03169063dd62ed3e906131909033903090600401614d3c565b60206040518083038186803b1580156131a857600080fd5b505afa1580156131bc573d6000803e3d6000fd5b505050506040513d601f19601f820116820180604052508101906131e09190614c99565b10156131fe5760405162461bcd60e51b81526004016106b790614df4565b600061320984613e21565b90506000613227606461092260ca548561447990919063ffffffff16565b9050600082116132975760405162461bcd60e51b815260206004820152603560248201527f54686520616d6f756e74206f6620737461626c6520636f696e20746f206765746044820152740206973206e6f74206c6172676572207468616e203605c1b60648201526084016106b7565b60d4546040516370a0823160e01b815283916001600160a01b0316906370a08231906132c7903090600401614d28565b60206040518083038186803b1580156132df57600080fd5b505afa1580156132f3573d6000803e3d6000fd5b505050506040513d601f19601f820116820180604052508101906133179190614c99565b10156133355760405162461bcd60e51b81526004016106b790614f02565b60d554604051632770a7eb60e21b81526001600160a01b0390911690639dc29fac906133679033908990600401614d7a565b602060405180830381600087803b15801561338157600080fd5b505af1158015613395573d6000803e3d6000fd5b505050506040513d601f19601f820116820180604052508101906133b99190614c5e565b506133c8336126a68484614554565b60d0546133d5908261464d565b60d05560d55460405160008051602061543c83398151915291613407916001600160a01b039091169033908990614d56565b60405180910390a160008051602061549c8339815191523386604051611b12929190614d7a565b336134376121ea565b6001600160a01b03161461345d5760405162461bcd60e51b81526004016106b790615027565b60cd819055604080518181526015918101919091527470657263656e746167654352574e4561726e696e6760581b6060820152602081018290526000805160206153dc833981519152906080016109c3565b60006134bb60016146da565b905080156134d3576000805461ff0019166101001790555b6134db614769565b6134e3614798565b6134eb6147c7565b60d580546001600160a01b03199081166001600160a01b038a81169190911790925560d68054821689841617905560d48054821688841617905560d78054821687841617905560d88054821686841617905560d38054909116918416919091179055600160ca81905560ce81905560cb55600260cc55600a60cd55603c60cf5560c9805460ff1916905580156123da576000805461ff0019169055604051600181527f7f26b83ff96e1f2b6a682f133852f6798a09c465da95921460cefb38474024989060200160405180910390a150505050505050565b60006135d160975460ff1690565b156135ee5760405162461bcd60e51b81526004016106b790614ed8565b60c95460ff166136105760405162461bcd60e51b81526004016106b790615090565b33600081815260d2602052604090205460ff1680613632575061363281610ca6565b61364e5760405162461bcd60e51b81526004016106b79061505c565b60d4546040516370a0823160e01b815284916001600160a01b0316906370a082319061367e903390600401614d28565b60206040518083038186803b15801561369657600080fd5b505afa1580156136aa573d6000803e3d6000fd5b505050506040513d601f19601f820116820180604052508101906136ce9190614c99565b10156136ec5760405162461bcd60e51b81526004016106b790614fe6565b60d454604051636eb1769f60e11b815284916001600160a01b03169063dd62ed3e9061371e9033903090600401614d3c565b60206040518083038186803b15801561373657600080fd5b505afa15801561374a573d6000803e3d6000fd5b505050506040513d601f19601f8201168201806040525081019061376e9190614c99565b101561378c5760405162461bcd60e51b81526004016106b790614f9e565b60006137978461087d565b9050600081116137b95760405162461bcd60e51b81526004016106b790614e7e565b60d4546137d1906001600160a01b0316333087614560565b60d5546040516340c10f1960e01b81526001600160a01b03909116906340c10f19906138039030908590600401614d7a565b602060405180830381600087803b15801561381d57600080fd5b505af1158015613831573d6000803e3d6000fd5b505050506040513d601f19601f820116820180604052508101906138559190614c5e565b5060d8546040516331ba14cf60e11b81526001600160a01b0390911690636374299e906138889033908590600401614d7a565b600060405180830381600087803b1580156138a257600080fd5b505af11580156138b6573d6000803e3d6000fd5b505060d45460405160008051602061535c83398151915293506138e992506001600160a01b039091169033908590614d56565b60405180910390a16000805160206154bc8339815191523082604051613910929190614d7a565b60405180910390a160008051602061533c83398151915233826040516117e9929190614d7a565b336139406121ea565b6001600160a01b0316146139665760405162461bcd60e51b81526004016106b790615027565b60cb819055604080518181526017918101919091527670657263656e7461676544757261546f4669647546656560481b6060820152602081018290526000805160206153dc833981519152906080016109c3565b336139c36121ea565b6001600160a01b0316146139e95760405162461bcd60e51b81526004016106b790615027565b60975460ff16613a0b5760405162461bcd60e51b81526004016106b790614dc6565b60d55460405163f2fde38b60e01b81526001600160a01b039091169063f2fde38b90613a3b908490600401614d28565b600060405180830381600087803b158015613a5557600080fd5b505af1158015613a69573d6000803e3d6000fd5b505060d65460405163f2fde38b60e01b81526001600160a01b03909116925063f2fde38b9150613a9d908490600401614d28565b600060405180830381600087803b158015613ab757600080fd5b505af1158015613acb573d6000803e3d6000fd5b5050505050565b33613adb6121ea565b6001600160a01b031614613b015760405162461bcd60e51b81526004016106b790615027565b60975460ff16613b235760405162461bcd60e51b81526004016106b790614dc6565b6040516370a0823160e01b81526000906001600160a01b038416906370a0823190613b52903090600401614d28565b60206040518083038186803b158015613b6a57600080fd5b505afa158015613b7e573d6000803e3d6000fd5b505050506040513d601f19601f82011682018060405250810190613ba29190614c99565b9050613bb86001600160a01b0384168383614498565b505050565b600080613c1160d760009054906101000a90046001600160a01b03166001600160a01b031663531d7dec6040518163ffffffff1660e01b815260040160206040518083038186803b1580156125cb57600080fd5b90506000613c2c60d15460d05461464d90919063ffffffff16565b9050808211613caf5760405162461bcd60e51b815260206004820152604360248201527f7468652076616c7565206f66207661756c74206973206e6f74206c617267657260448201527f207468616e20746865206665652c20736f6d657468696e672077656e742077726064820152626f6e6760e81b608482015260a4016106b7565b613d048161261160d760009054906101000a90046001600160a01b03166001600160a01b031663531d7dec6040518163ffffffff1660e01b815260040160206040518083038186803b1580156125cb57600080fd5b9250505090565b6000613e1c60d660009054906101000a90046001600160a01b03166001600160a01b03166318160ddd6040518163ffffffff1660e01b815260040160206040518083038186803b158015613d5e57600080fd5b505afa158015613d72573d6000803e3d6000fd5b505050506040513d601f19601f82011682018060405250810190613d969190614c99565b60d860009054906101000a90046001600160a01b03166001600160a01b03166364cdc99e6040518163ffffffff1660e01b815260040160206040518083038186803b158015613de457600080fd5b505afa158015613df8573d6000803e3d6000fd5b505050506040513d601f19601f8201168201806040525081019061260b9190614c99565b905090565b60008060d560009054906101000a90046001600160a01b03166001600160a01b03166318160ddd6040518163ffffffff1660e01b815260040160206040518083038186803b158015613e7257600080fd5b505afa158015613e86573d6000803e3d6000fd5b505050506040513d601f19601f82011682018060405250810190613eaa9190614c99565b90506000613eb6613bbd565b9050610928826109228684614479565b33613ecf6121ea565b6001600160a01b031614613ef55760405162461bcd60e51b81526004016106b790615027565b60008211613f155760405162461bcd60e51b81526004016106b790615121565b60d75460cc546040516393af90a960e01b815260048101869052602481018590526001600160a01b03848116604483015260648201929092529116906393af90a990608401600060405180830381600087803b158015613f7457600080fd5b505af1158015613f88573d6000803e3d6000fd5b505050506000805160206153bc83398151915282604051610b4b91815260200190565b6000613fb960975460ff1690565b15613fd65760405162461bcd60e51b81526004016106b790614ed8565b60c95460ff16613ff85760405162461bcd60e51b81526004016106b790615090565b33600081815260d2602052604090205460ff168061401a575061401a81610ca6565b6140365760405162461bcd60e51b81526004016106b79061505c565b60d5546040516370a0823160e01b815284916001600160a01b0316906370a0823190614066903390600401614d28565b60206040518083038186803b15801561407e57600080fd5b505afa158015614092573d6000803e3d6000fd5b505050506040513d601f19601f820116820180604052508101906140b69190614c99565b10156140d45760405162461bcd60e51b81526004016106b790614e3c565b60d554604051636eb1769f60e11b815284916001600160a01b03169063dd62ed3e906141069033903090600401614d3c565b60206040518083038186803b15801561411e57600080fd5b505afa158015614132573d6000803e3d6000fd5b505050506040513d601f19601f820116820180604052508101906141569190614c99565b10156141745760405162461bcd60e51b81526004016106b790614df4565b600061417f84613e21565b9050600061419d606461092260cb548561447990919063ffffffff16565b905060006141ab8383614554565b90506000811161421b5760405162461bcd60e51b815260206004820152603560248201527f54686520616d6f756e74206f6620757364632076616c7565206f6620464944556044820152740206973206e6f74206c6172676572207468616e203605c1b60648201526084016106b7565b60d554604051632770a7eb60e21b81526001600160a01b0390911690639dc29fac9061424d9033908a90600401614d7a565b602060405180830381600087803b15801561426757600080fd5b505af115801561427b573d6000803e3d6000fd5b505050506040513d601f19601f8201168201806040525081019061429f9190614c5e565b5060d75460d4546142bd916001600160a01b03918216911683614498565b60d1546142ca908361464d565b60d15560d75460405163683c8ddf60e11b8152600481018390523360248201526001600160a01b039091169063d0791bbe90604401600060405180830381600087803b15801561431957600080fd5b505af115801561432d573d6000803e3d6000fd5b5050505060008051602061537c8339815191528160405161435091815260200190565b60405180910390a160d55460405160008051602061543c83398151915291614387916001600160a01b039091169033908a90614d56565b60405180910390a160008051602061549c8339815191523387604051611206929190614d7a565b336143b76121ea565b6001600160a01b0316146143dd5760405162461bcd60e51b81526004016106b790615027565b6001600160a01b0381166144425760405162461bcd60e51b815260206004820152602660248201527f4f776e61626c653a206e6577206f776e657220697320746865207a65726f206160448201526564647265737360d01b60648201526084016106b7565b61444b81614587565b50565b6001600160a01b038116600090815260d2602052604081205460ff1680610a6a5750610a6a82610ca6565b600061448582846152ad565b9392505050565b600061448582846151a0565b613bb88363a9059cbb60e01b84846040516024016144b7929190614d7a565b60408051601f198184030181529190526020810180516001600160e01b03166001600160e01b0319909316929092179091526147ee565b60975460ff166145105760405162461bcd60e51b81526004016106b790614dc6565b6097805460ff191690557f5db9ee0a495bf2e6ff9c91a7834c1ba4fdd244a5e8aa4e537bd38aeae4b073aa335b60405161454a9190614d28565b60405180910390a1565b600061448582846152cc565b614581846323b872dd60e01b8585856040516024016144b793929190614d56565b50505050565b606580546001600160a01b038381166001600160a01b0319831681179093556040519116919082907f8be0079c531659141344cd1fd0a4f28419497f9722a3daafe3b4186f6b6457e090600090a35050565b60975460ff16156145fc5760405162461bcd60e51b81526004016106b790614ed8565b6097805460ff191660011790557f62e78cea01bee320cd4e420270b5ea74000d11b0c9f74754ebdbfc544b05a25861453d3390565b6000613e1c6006600a615205565b6000613e1c6012600a615205565b60006144858284615188565b60d4546040516370a0823160e01b81526000916001600160a01b0316906370a082319061468a903090600401614d28565b60206040518083038186803b1580156146a257600080fd5b505afa1580156146b6573d6000803e3d6000fd5b505050506040513d601f19601f82011682018060405250810190613e1c9190614c99565b60008054610100900460ff1615614728578160ff1660011480156147045750614702306148c0565b155b6147205760405162461bcd60e51b81526004016106b790614f50565b506000919050565b60005460ff80841691161061474f5760405162461bcd60e51b81526004016106b790614f50565b506000805460ff191660ff92909216919091179055600190565b600054610100900460ff166147905760405162461bcd60e51b81526004016106b7906150d6565b610f2c6148cf565b600054610100900460ff166147bf5760405162461bcd60e51b81526004016106b7906150d6565b610f2c6148ff565b600054610100900460ff16610f2c5760405162461bcd60e51b81526004016106b7906150d6565b6000614843826040518060400160405280602081526020017f5361666545524332303a206c6f772d6c6576656c2063616c6c206661696c6564815250856001600160a01b03166149329092919063ffffffff16565b805190915015613bb857808060200190518101906148619190614c5e565b613bb85760405162461bcd60e51b815260206004820152602a60248201527f5361666545524332303a204552433230206f7065726174696f6e20646964206e6044820152691bdd081cdd58d8d9595960b21b60648201526084016106b7565b6001600160a01b03163b151590565b600054610100900460ff166148f65760405162461bcd60e51b81526004016106b7906150d6565b610f2c33614587565b600054610100900460ff166149265760405162461bcd60e51b81526004016106b7906150d6565b6097805460ff19169055565b6060610928848460008585614946856148c0565b6149925760405162461bcd60e51b815260206004820152601d60248201527f416464726573733a2063616c6c20746f206e6f6e2d636f6e747261637400000060448201526064016106b7565b600080866001600160a01b031685876040516149ae9190614d0c565b60006040518083038185875af1925050503d80600081146149eb576040519150601f19603f3d011682016040523d82523d6000602084013e6149f0565b606091505b5091509150614a00828286614a0b565b979650505050505050565b60608315614a1a575081614485565b825115614a2a5782518084602001fd5b8160405162461bcd60e51b81526004016106b79190614d93565b80356001600160a01b0381168114610ece57600080fd5b600060208284031215614a6d57600080fd5b61448582614a44565b60008060408385031215614a8957600080fd5b614a9283614a44565b9150614aa060208401614a44565b90509250929050565b60008060008060008060c08789031215614ac257600080fd5b614acb87614a44565b9550614ad960208801614a44565b9450614ae760408801614a44565b9350614af560608801614a44565b9250614b0360808801614a44565b9150614b1160a08801614a44565b90509295509295509295565b600080600060608486031215614b3257600080fd5b614b3b84614a44565b9250614b4960208501614a44565b9150604084013590509250925092565b60008060008060808587031215614b6f57600080fd5b614b7885614a44565b9350614b8660208601614a44565b92506040850135915060608501356001600160401b0380821115614ba957600080fd5b818701915087601f830112614bbd57600080fd5b813581811115614bcf57614bcf615325565b604051601f8201601f19908116603f01168101908382118183101715614bf757614bf7615325565b816040528281528a6020848701011115614c1057600080fd5b82602086016020830137600060208483010152809550505050505092959194509250565b60008060408385031215614c4757600080fd5b614c5083614a44565b946020939093013593505050565b600060208284031215614c7057600080fd5b8151801515811461448557600080fd5b600060208284031215614c9257600080fd5b5035919050565b600060208284031215614cab57600080fd5b5051919050565b600080600060608486031215614cc757600080fd5b83359250614b4960208501614a44565b600080600060608486031215614cec57600080fd5b8335925060208401359150614d0360408501614a44565b90509250925092565b60008251614d1e8184602087016152e3565b9190910192915050565b6001600160a01b0391909116815260200190565b6001600160a01b0392831681529116602082015260400190565b6001600160a01b039384168152919092166020820152604081019190915260600190565b6001600160a01b03929092168252602082015260400190565b6020815260008251806020840152614db28160408501602087016152e3565b601f01601f19169190910160400192915050565b60208082526014908201527314185d5cd8589b194e881b9bdd081c185d5cd95960621b604082015260600190565b6020808252603a908201526000805160206153fc8339815191526040820152793337b91039bab33334b1b4b2b73a1030b63637bcbc1031b7b4b760311b606082015260800190565b60208082526022908201527f557365722068617320696e73756666696369656e7420616c6c6f797820636f69604082015261371760f11b606082015260800190565b6020808252603a908201527f54686520616d6f756e74206f6620616c6c6f7978204455524120636f696e207460408201527906f20676574206973206e6f74206c6172676572207468616e20360341b606082015260800190565b60208082526010908201526f14185d5cd8589b194e881c185d5cd95960821b604082015260600190565b6020808252602e908201527f546865207661756c7420646f6573206e6f74206861766520737566666963696560408201526d373a1039ba30b136329031b7b4b760911b606082015260800190565b6020808252602e908201527f496e697469616c697a61626c653a20636f6e747261637420697320616c72656160408201526d191e481a5b9a5d1a585b1a5e995960921b606082015260800190565b6020808252603a908201526000805160206153fc8339815191526040820152793337b91039bab33334b1b4b2b73a1039ba30b136329031b7b4b760311b606082015260800190565b60208082526021908201527f557365722068617320696e73756666696369656e7420737461626c6520636f696040820152603760f91b606082015260800190565b6020808252818101527f4f776e61626c653a2063616c6c6572206973206e6f7420746865206f776e6572604082015260600190565b6020808252601a9082015279165bdd481b995959081d1bc81899481dda1a5d195b1a5cdd195960321b604082015260600190565b60208082526026908201527f5661756c7420686173206e6f7420737461727420616363657074696e67206465604082015265706f7369747360d01b606082015260800190565b6020808252602b908201527f496e697469616c697a61626c653a20636f6e7472616374206973206e6f74206960408201526a6e697469616c697a696e6760a81b606082015260800190565b6020808252601890820152774d7573742073656c6c206d6f7265207468616e207a65726f60401b604082015260600190565b6020808252601b908201527a4d757374206465706f736974206d6f7265207468616e207a65726f60281b604082015260600190565b6000821982111561519b5761519b61530f565b500190565b6000826151bd57634e487b7160e01b600052601260045260246000fd5b500490565b600181815b808511156151fd5781600019048211156151e3576151e361530f565b808516156151f057918102915b93841c93908002906151c7565b509250929050565b6000614485838360008261521b57506001610a6a565b8161522857506000610a6a565b816001811461523e576002811461524857615264565b6001915050610a6a565b60ff8411156152595761525961530f565b50506001821b610a6a565b5060208310610133831016604e8410600b8410161715615287575081810a610a6a565b61529183836151c2565b80600019048211156152a5576152a561530f565b029392505050565b60008160001904831182151516156152c7576152c761530f565b500290565b6000828210156152de576152de61530f565b500390565b60005b838110156152fe5781810151838201526020016152e6565b838111156145815750506000910152565b634e487b7160e01b600052601160045260246000fd5b634e487b7160e01b600052604160045260246000fdfeebedb8b3c678666e7f36970bc8f57abf6d8fa2e828c0da91ea5b75bf68ed101aa4f358c78f73b2049a06e0436c6728292334862a6fc2114f2de13f9cff58491fd483110686f79d1f5932d32add1024998649ddca927700b75bea458b4cb7cde67a3794cf7d311106018524dfd41878138e4264f1bee18e53f1c180a1627fa2b8c3085fd698c0021cf2ad330617df928819e049637665217c5e7757452f991d31272c29cfb1538e15f8105c58381747783d06b2021a4fcf849c274927396e1c375573657220686173206e6f7420617070726f76656420746865207661756c74207ea706dec78e375612714461b491c4cf6fe8be4ecc3abd8948c01e01378edd8d53fee901a59b4d2e659e450f8db17fc345e158fe408d2b39faf66d1f8c4a54fe6314c89e231542c0e7379a5606c8f0bee7eadfaf9885637a8eef5fb4fe078dbc47cee97cb7acd717b3c0aa1435d004cd5b3c8c57d70dbceb4e4458bbd60e39d4cc16f5dbb4873280815c1ee09dbd06736cffcc184412cf7a71a0fdb75d397ca50f6798a560793a54c3bcfe86a93cde1e73087d944c0ea20544137d4121396885a2646970667358221220d30aa0f66d2f5902472bf490f2a510f4ee825149cac2ceefc07e3fe127aeedeb64736f6c63430008070033",
  "linkReferences": {},
  "deployedLinkReferences": {}
}