{
  "address": "0xc94C58C630252c09720FC58088892763D4c7606c",
  "abi": [
    {
      "inputs": [
        {
          "internalType": "address",
          "name": "_alloyxBronzeAddress",
          "type": "address"
        },
        {
          "internalType": "address",
          "name": "_usdcCoinAddress",
          "type": "address"
        },
        {
          "internalType": "address",
          "name": "_goldfinchDelegacy",
          "type": "address"
        }
      ],
      "stateMutability": "nonpayable",
      "type": "constructor"
    },
    {
      "anonymous": false,
      "inputs": [
        {
          "indexed": false,
          "internalType": "address",
          "name": "_tokenReceiver",
          "type": "address"
        },
        {
          "indexed": false,
          "internalType": "uint256",
          "name": "_tokenAmount",
          "type": "uint256"
        }
      ],
      "name": "Burn",
      "type": "event"
    },
    {
      "anonymous": false,
      "inputs": [
        {
          "indexed": false,
          "internalType": "address",
          "name": "_tokenAddress",
          "type": "address"
        },
        {
          "indexed": false,
          "internalType": "address",
          "name": "_tokenSender",
          "type": "address"
        },
        {
          "indexed": false,
          "internalType": "uint256",
          "name": "_tokenAmount",
          "type": "uint256"
        }
      ],
      "name": "DepositAlloyx",
      "type": "event"
    },
    {
      "anonymous": false,
      "inputs": [
        {
          "indexed": false,
          "internalType": "address",
          "name": "_tokenAddress",
          "type": "address"
        },
        {
          "indexed": false,
          "internalType": "address",
          "name": "_tokenSender",
          "type": "address"
        },
        {
          "indexed": false,
          "internalType": "uint256",
          "name": "_tokenID",
          "type": "uint256"
        }
      ],
      "name": "DepositNFT",
      "type": "event"
    },
    {
      "anonymous": false,
      "inputs": [
        {
          "indexed": false,
          "internalType": "address",
          "name": "_tokenAddress",
          "type": "address"
        },
        {
          "indexed": false,
          "internalType": "address",
          "name": "_tokenSender",
          "type": "address"
        },
        {
          "indexed": false,
          "internalType": "uint256",
          "name": "_tokenAmount",
          "type": "uint256"
        }
      ],
      "name": "DepositStable",
      "type": "event"
    },
    {
      "anonymous": false,
      "inputs": [
        {
          "indexed": false,
          "internalType": "address",
          "name": "_tokenReceiver",
          "type": "address"
        },
        {
          "indexed": false,
          "internalType": "uint256",
          "name": "_tokenAmount",
          "type": "uint256"
        }
      ],
      "name": "Mint",
      "type": "event"
    },
    {
      "anonymous": false,
      "inputs": [
        {
          "indexed": true,
          "internalType": "address",
          "name": "previousOwner",
          "type": "address"
        },
        {
          "indexed": true,
          "internalType": "address",
          "name": "newOwner",
          "type": "address"
        }
      ],
      "name": "OwnershipTransferred",
      "type": "event"
    },
    {
      "anonymous": false,
      "inputs": [
        {
          "indexed": false,
          "internalType": "address",
          "name": "account",
          "type": "address"
        }
      ],
      "name": "Paused",
      "type": "event"
    },
    {
      "anonymous": false,
      "inputs": [
        {
          "indexed": false,
          "internalType": "uint256",
          "name": "amount",
          "type": "uint256"
        }
      ],
      "name": "PurchaseJunior",
      "type": "event"
    },
    {
      "anonymous": false,
      "inputs": [
        {
          "indexed": false,
          "internalType": "uint256",
          "name": "amount",
          "type": "uint256"
        }
      ],
      "name": "PurchaseSenior",
      "type": "event"
    },
    {
      "anonymous": false,
      "inputs": [
        {
          "indexed": false,
          "internalType": "address",
          "name": "account",
          "type": "address"
        }
      ],
      "name": "Unpaused",
      "type": "event"
    },
    {
      "inputs": [
        {
          "internalType": "uint256",
          "name": "amount",
          "type": "uint256"
        }
      ],
      "name": "USDCtoAlloyxBronze",
      "outputs": [
        {
          "internalType": "uint256",
          "name": "",
          "type": "uint256"
        }
      ],
      "stateMutability": "view",
      "type": "function"
    },
    {
      "inputs": [
        {
          "internalType": "uint256",
          "name": "amount",
          "type": "uint256"
        }
      ],
      "name": "alloyxBronzeToUSDC",
      "outputs": [
        {
          "internalType": "uint256",
          "name": "",
          "type": "uint256"
        }
      ],
      "stateMutability": "view",
      "type": "function"
    },
    {
      "inputs": [
        {
          "internalType": "address",
          "name": "_alloyxAddress",
          "type": "address"
        }
      ],
      "name": "changeAlloyxBronzeAddress",
      "outputs": [],
      "stateMutability": "nonpayable",
      "type": "function"
    },
    {
      "inputs": [
        {
          "internalType": "address",
          "name": "_goldfinchDelegacy",
          "type": "address"
        }
      ],
      "name": "changeGoldfinchDelegacyAddress",
      "outputs": [],
      "stateMutability": "nonpayable",
      "type": "function"
    },
    {
      "inputs": [
        {
          "internalType": "uint256",
          "name": "_tokenAmount",
          "type": "uint256"
        }
      ],
      "name": "depositAlloyxBronzeTokens",
      "outputs": [
        {
          "internalType": "bool",
          "name": "",
          "type": "bool"
        }
      ],
      "stateMutability": "nonpayable",
      "type": "function"
    },
    {
      "inputs": [
        {
          "internalType": "address",
          "name": "_tokenAddress",
          "type": "address"
        },
        {
          "internalType": "uint256",
          "name": "_tokenID",
          "type": "uint256"
        }
      ],
      "name": "depositNFTToken",
      "outputs": [
        {
          "internalType": "bool",
          "name": "",
          "type": "bool"
        }
      ],
      "stateMutability": "nonpayable",
      "type": "function"
    },
    {
      "inputs": [
        {
          "internalType": "uint256",
          "name": "_tokenAmount",
          "type": "uint256"
        }
      ],
      "name": "depositUSDCCoin",
      "outputs": [
        {
          "internalType": "bool",
          "name": "",
          "type": "bool"
        }
      ],
      "stateMutability": "nonpayable",
      "type": "function"
    },
    {
      "inputs": [],
      "name": "destroy",
      "outputs": [],
      "stateMutability": "nonpayable",
      "type": "function"
    },
    {
      "inputs": [
        {
          "internalType": "address",
          "name": "_tokenAddress",
          "type": "address"
        },
        {
          "internalType": "address payable",
          "name": "_to",
          "type": "address"
        }
      ],
      "name": "migrateERC20",
      "outputs": [],
      "stateMutability": "nonpayable",
      "type": "function"
    },
    {
      "inputs": [
        {
          "internalType": "address",
          "name": "",
          "type": "address"
        },
        {
          "internalType": "address",
          "name": "",
          "type": "address"
        },
        {
          "internalType": "uint256",
          "name": "",
          "type": "uint256"
        },
        {
          "internalType": "bytes",
          "name": "",
          "type": "bytes"
        }
      ],
      "name": "onERC721Received",
      "outputs": [
        {
          "internalType": "bytes4",
          "name": "",
          "type": "bytes4"
        }
      ],
      "stateMutability": "nonpayable",
      "type": "function"
    },
    {
      "inputs": [],
      "name": "owner",
      "outputs": [
        {
          "internalType": "address",
          "name": "",
          "type": "address"
        }
      ],
      "stateMutability": "view",
      "type": "function"
    },
    {
      "inputs": [],
      "name": "pause",
      "outputs": [],
      "stateMutability": "nonpayable",
      "type": "function"
    },
    {
      "inputs": [],
      "name": "paused",
      "outputs": [
        {
          "internalType": "bool",
          "name": "",
          "type": "bool"
        }
      ],
      "stateMutability": "view",
      "type": "function"
    },
    {
      "inputs": [
        {
          "internalType": "uint256",
          "name": "amount",
          "type": "uint256"
        },
        {
          "internalType": "address",
          "name": "poolAddress",
          "type": "address"
        },
        {
          "internalType": "uint256",
          "name": "tranche",
          "type": "uint256"
        }
      ],
      "name": "purchaseJuniorToken",
      "outputs": [],
      "stateMutability": "nonpayable",
      "type": "function"
    },
    {
      "inputs": [
        {
          "internalType": "uint256",
          "name": "amount",
          "type": "uint256"
        },
        {
          "internalType": "address",
          "name": "poolAddress",
          "type": "address"
        }
      ],
      "name": "purchaseSeniorTokens",
      "outputs": [],
      "stateMutability": "nonpayable",
      "type": "function"
    },
    {
      "inputs": [],
      "name": "renounceOwnership",
      "outputs": [],
      "stateMutability": "nonpayable",
      "type": "function"
    },
    {
      "inputs": [],
      "name": "startVaultOperation",
      "outputs": [
        {
          "internalType": "bool",
          "name": "",
          "type": "bool"
        }
      ],
      "stateMutability": "nonpayable",
      "type": "function"
    },
    {
      "inputs": [
        {
          "internalType": "address",
          "name": "_to",
          "type": "address"
        }
      ],
      "name": "transferAlloyxOwnership",
      "outputs": [],
      "stateMutability": "nonpayable",
      "type": "function"
    },
    {
      "inputs": [
        {
          "internalType": "address",
          "name": "newOwner",
          "type": "address"
        }
      ],
      "name": "transferOwnership",
      "outputs": [],
      "stateMutability": "nonpayable",
      "type": "function"
    },
    {
      "inputs": [],
      "name": "unpause",
      "outputs": [],
      "stateMutability": "nonpayable",
      "type": "function"
    }
  ],
  "transactionHash": "0x7c3b0c140d1e44a5d8d85238dead55f47af2b29a9b7cb15d1a6e8394a104b04a",
  "args": [
    "0x1c27548ce420a9633bb5d4b0C062B5Ceb40B3763",
    "0x913366dD0b792E61770Edf8B71Ce9abA0Ed8F8ae",
    "0x9C3954aF0Da5710B6B64A8abb90Da2bd198cf53E"
  ],
  "numDeployments": 1,
  "solcInputHash": "7afbb7f64cec9d052504fb35d8e3a51c",
  "bytecode": "0x60806040523480156200001157600080fd5b50604051620029ae380380620029ae833981016040819052620000349162000103565b6200003f3362000096565b60008054600280546001600160a01b039687166001600160a01b03199182161790915560018054958716958216959095179094556003805493909516929093169190911790925561ffff60a01b191690556200014d565b600080546001600160a01b038381166001600160a01b0319831681178455604051919092169283917f8be0079c531659141344cd1fd0a4f28419497f9722a3daafe3b4186f6b6457e09190a35050565b80516001600160a01b0381168114620000fe57600080fd5b919050565b6000806000606084860312156200011957600080fd5b6200012484620000e6565b92506200013460208501620000e6565b91506200014460408501620000e6565b90509250925092565b612851806200015d6000396000f3fe608060405234801561001057600080fd5b506004361061016c5760003560e01c80638456cb59116100cd578063bb74c05811610081578063d905e9b411610066578063d905e9b4146102fe578063df16694a14610311578063f2fde38b1461032457600080fd5b8063bb74c058146102d8578063d8ec0608146102eb57600080fd5b80638da5cb5b116100b25780638da5cb5b1461029757806392f55abb146102b2578063b338ad16146102c557600080fd5b80638456cb59146102875780638d6f4d211461028f57600080fd5b80634f9d02c3116101245780635c975abb116101095780635c975abb14610265578063715018a61461027757806383197ef01461027f57600080fd5b80634f9d02c31461022157806353c98f5a1461024257600080fd5b8063150b7a0211610155578063150b7a02146101995780631b61eb67146102065780633f4ba83a1461021957600080fd5b806307c0cf3d146101715780630eb9a00714610186575b600080fd5b61018461017f3660046123e8565b610337565b005b6101846101943660046123e8565b6103b3565b6101d06101a736600461243e565b7f150b7a0200000000000000000000000000000000000000000000000000000000949350505050565b6040517fffffffff0000000000000000000000000000000000000000000000000000000090911681526020015b60405180910390f35b6101846102143660046125c3565b61042a565b610184610637565b61023461022f36600461256c565b6106d9565b6040519081526020016101fd565b61025561025036600461256c565b61078c565b60405190151581526020016101fd565b600054600160a01b900460ff16610255565b610184610bd9565b610184610c2b565b610184610d9a565b610255610e37565b6000546040516001600160a01b0390911681526020016101fd565b6102346102c036600461256c565b61107d565b6102556102d336600461251e565b611122565b6102556102e636600461256c565b6113d8565b6101846102f93660046123e8565b6118ff565b61018461030c366004612405565b611a12565b61018461031f36600461259e565b611b3f565b6101846103323660046123e8565b611d3c565b6000546001600160a01b031633146103845760405162461bcd60e51b815260206004820181905260248201526000805160206127fc83398151915260448201526064015b60405180910390fd5b6002805473ffffffffffffffffffffffffffffffffffffffff19166001600160a01b0392909216919091179055565b6000546001600160a01b031633146103fb5760405162461bcd60e51b815260206004820181905260248201526000805160206127fc833981519152604482015260640161037b565b6003805473ffffffffffffffffffffffffffffffffffffffff19166001600160a01b0392909216919091179055565b6000546001600160a01b031633146104725760405162461bcd60e51b815260206004820181905260248201526000805160206127fc833981519152604482015260640161037b565b6001546040516370a0823160e01b815230600482015284916001600160a01b0316906370a082319060240160206040518083038186803b1580156104b557600080fd5b505afa1580156104c9573d6000803e3d6000fd5b505050506040513d601f19601f820116820180604052508101906104ed9190612585565b10156105455760405162461bcd60e51b815260206004820152602160248201527f5661756c742068617320696e737566666963656e7420737461626c6520636f696044820152603760f91b606482015260840161037b565b600083116105955760405162461bcd60e51b815260206004820152601b60248201527f4d757374206465706f736974206d6f7265207468616e207a65726f0000000000604482015260640161037b565b6001546105ac906001600160a01b03168385611e0c565b6003546040517f1b61eb67000000000000000000000000000000000000000000000000000000008152600481018590526001600160a01b0384811660248301526044820184905290911690631b61eb6790606401600060405180830381600087803b15801561061a57600080fd5b505af115801561062e573d6000803e3d6000fd5b50505050505050565b6000546001600160a01b0316331461067f5760405162461bcd60e51b815260206004820181905260248201526000805160206127fc833981519152604482015260640161037b565b600054600160a01b900460ff166106cf5760405162461bcd60e51b815260206004820152601460248201527314185d5cd8589b194e881b9bdd081c185d5cd95960621b604482015260640161037b565b6106d7611eb5565b565b600080600260009054906101000a90046001600160a01b03166001600160a01b03166318160ddd6040518163ffffffff1660e01b815260040160206040518083038186803b15801561072a57600080fd5b505afa15801561073e573d6000803e3d6000fd5b505050506040513d601f19601f820116820180604052508101906107629190612585565b9050600061076e611f52565b90506107848261077e8684611ff0565b90612003565b949350505050565b60008054600160a01b900460ff16156107da5760405162461bcd60e51b815260206004820152601060248201526f14185d5cd8589b194e881c185d5cd95960821b604482015260640161037b565b600054600160a81b900460ff166108425760405162461bcd60e51b815260206004820152602660248201527f5661756c7420686173206e6f7420737461727420616363657074696e67206465604482015265706f7369747360d01b606482015260840161037b565b6001546040516370a0823160e01b815233600482015283916001600160a01b0316906370a082319060240160206040518083038186803b15801561088557600080fd5b505afa158015610899573d6000803e3d6000fd5b505050506040513d601f19601f820116820180604052508101906108bd9190612585565b10156109155760405162461bcd60e51b815260206004820152602160248201527f557365722068617320696e73756666696369656e7420737461626c6520636f696044820152603760f91b606482015260840161037b565b600154604051636eb1769f60e11b815233600482015230602482015283916001600160a01b03169063dd62ed3e9060440160206040518083038186803b15801561095e57600080fd5b505afa158015610972573d6000803e3d6000fd5b505050506040513d601f19601f820116820180604052508101906109969190612585565b1015610a0a5760405162461bcd60e51b815260206004820152603a60248201527f5573657220686173206e6f7420617070726f76656420746865207661756c742060448201527f666f722073756666696369656e7420737461626c6520636f696e000000000000606482015260840161037b565b6000610a158361107d565b905060008111610a8d5760405162461bcd60e51b815260206004820152603c60248201527f54686520616d6f756e74206f6620616c6c6f79782062726f6e7a6520636f696e60448201527f20746f20676574206973206e6f74206c6172676572207468616e203000000000606482015260840161037b565b600354600154610aac916001600160a01b03918216913391168661200f565b6002546040517f40c10f19000000000000000000000000000000000000000000000000000000008152336004820152602481018390526001600160a01b03909116906340c10f1990604401602060405180830381600087803b158015610b1157600080fd5b505af1158015610b25573d6000803e3d6000fd5b505050506040513d601f19601f82011682018060405250810190610b49919061254a565b50600154604080516001600160a01b03909216825233602083015281018290527fa4f358c78f73b2049a06e0436c6728292334862a6fc2114f2de13f9cff58491f9060600160405180910390a160408051338152602081018390527f0f6798a560793a54c3bcfe86a93cde1e73087d944c0ea20544137d412139688591015b60405180910390a150600192915050565b6000546001600160a01b03163314610c215760405162461bcd60e51b815260206004820181905260248201526000805160206127fc833981519152604482015260640161037b565b6106d76000612066565b6000546001600160a01b03163314610c735760405162461bcd60e51b815260206004820181905260248201526000805160206127fc833981519152604482015260640161037b565b600054600160a01b900460ff16610cc35760405162461bcd60e51b815260206004820152601460248201527314185d5cd8589b194e881b9bdd081c185d5cd95960621b604482015260640161037b565b6001546040516370a0823160e01b81523060048201526001600160a01b03909116906370a082319060240160206040518083038186803b158015610d0657600080fd5b505afa158015610d1a573d6000803e3d6000fd5b505050506040513d601f19601f82011682018060405250810190610d3e9190612585565b15610d8b5760405162461bcd60e51b815260206004820181905260248201527f42616c616e6365206f6620737461626c6520636f696e206d7573742062652030604482015260640161037b565b6000546001600160a01b031680ff5b6000546001600160a01b03163314610de25760405162461bcd60e51b815260206004820181905260248201526000805160206127fc833981519152604482015260640161037b565b600054600160a01b900460ff1615610e2f5760405162461bcd60e51b815260206004820152601060248201526f14185d5cd8589b194e881c185d5cd95960821b604482015260640161037b565b6106d76120c3565b600080546001600160a01b03163314610e805760405162461bcd60e51b815260206004820181905260248201526000805160206127fc833981519152604482015260640161037b565b600054600160a81b900460ff1615610f005760405162461bcd60e51b815260206004820152602a60248201527f5661756c742068617320616c726561647920737461727420616363657074696e60448201527f67206465706f7369747300000000000000000000000000000000000000000000606482015260840161037b565b6000610f0a611f52565b905060008111610f825760405162461bcd60e51b815260206004820152602b60248201527f5661756c74206d757374206861766520706f7369746976652076616c7565206260448201527f65666f7265207374617274000000000000000000000000000000000000000000606482015260840161037b565b6002546001600160a01b03166340c10f1930610fb1610f9f61214b565b61077e610faa612159565b8790611ff0565b6040517fffffffff0000000000000000000000000000000000000000000000000000000060e085901b1681526001600160a01b0390921660048301526024820152604401602060405180830381600087803b15801561100f57600080fd5b505af1158015611023573d6000803e3d6000fd5b505050506040513d601f19601f82011682018060405250810190611047919061254a565b5050600080547fffffffffffffffffffff00ffffffffffffffffffffffffffffffffffffffffff16600160a81b17905550600190565b600080600260009054906101000a90046001600160a01b03166001600160a01b03166318160ddd6040518163ffffffff1660e01b815260040160206040518083038186803b1580156110ce57600080fd5b505afa1580156110e2573d6000803e3d6000fd5b505050506040513d601f19601f820116820180604052508101906111069190612585565b90506000611112611f52565b90506107848161077e8685611ff0565b60008054600160a01b900460ff16156111705760405162461bcd60e51b815260206004820152601060248201526f14185d5cd8589b194e881c185d5cd95960821b604482015260640161037b565b600054600160a81b900460ff166111d85760405162461bcd60e51b815260206004820152602660248201527f5661756c7420686173206e6f7420737461727420616363657074696e67206465604482015265706f7369747360d01b606482015260840161037b565b6003546040517fe7e808e60000000000000000000000000000000000000000000000000000000081526001600160a01b03858116600483015233602483015260448201859052600092169063e7e808e690606401602060405180830381600087803b15801561124657600080fd5b505af115801561125a573d6000803e3d6000fd5b505050506040513d601f19601f8201168201806040525081019061127e9190612585565b6003546040517f42842e0e0000000000000000000000000000000000000000000000000000000081523360048201526001600160a01b039182166024820152604481018690529192508516906342842e0e90606401600060405180830381600087803b1580156112ed57600080fd5b505af1158015611301573d6000803e3d6000fd5b50506003546040517f196b5443000000000000000000000000000000000000000000000000000000008152336004820152602481018590526001600160a01b03909116925063196b54439150604401600060405180830381600087803b15801561136a57600080fd5b505af115801561137e573d6000803e3d6000fd5b5050604080516001600160a01b03881681523360208201529081018690527fc7e8b1bdbecdc8a549557efb2a2ab715cff51630caead31610000019e61dfa4b9250606001905060405180910390a160019150505b92915050565b60008054600160a01b900460ff16156114265760405162461bcd60e51b815260206004820152601060248201526f14185d5cd8589b194e881c185d5cd95960821b604482015260640161037b565b600054600160a81b900460ff1661148e5760405162461bcd60e51b815260206004820152602660248201527f5661756c7420686173206e6f7420737461727420616363657074696e67206465604482015265706f7369747360d01b606482015260840161037b565b6002546040516370a0823160e01b815233600482015283916001600160a01b0316906370a082319060240160206040518083038186803b1580156114d157600080fd5b505afa1580156114e5573d6000803e3d6000fd5b505050506040513d601f19601f820116820180604052508101906115099190612585565b10156115615760405162461bcd60e51b815260206004820152602160248201527f557365722068617320696e73756666696369656e7420616c6c6f797820636f696044820152603760f91b606482015260840161037b565b600254604051636eb1769f60e11b815233600482015230602482015283916001600160a01b03169063dd62ed3e9060440160206040518083038186803b1580156115aa57600080fd5b505afa1580156115be573d6000803e3d6000fd5b505050506040513d601f19601f820116820180604052508101906115e29190612585565b10156116565760405162461bcd60e51b815260206004820152603a60248201527f5573657220686173206e6f7420617070726f76656420746865207661756c742060448201527f666f722073756666696369656e7420616c6c6f797820636f696e000000000000606482015260840161037b565b6000611661836106d9565b9050600081116116d95760405162461bcd60e51b815260206004820152603560248201527f54686520616d6f756e74206f6620737461626c6520636f696e20746f2067657460448201527f206973206e6f74206c6172676572207468616e20300000000000000000000000606482015260840161037b565b6001546040516370a0823160e01b815230600482015282916001600160a01b0316906370a082319060240160206040518083038186803b15801561171c57600080fd5b505afa158015611730573d6000803e3d6000fd5b505050506040513d601f19601f820116820180604052508101906117549190612585565b10156117c85760405162461bcd60e51b815260206004820152602e60248201527f546865207661756c7420646f6573206e6f74206861766520737566666963696560448201527f6e7420737461626c6520636f696e000000000000000000000000000000000000606482015260840161037b565b6002546040517f9dc29fac000000000000000000000000000000000000000000000000000000008152336004820152602481018590526001600160a01b0390911690639dc29fac90604401602060405180830381600087803b15801561182d57600080fd5b505af1158015611841573d6000803e3d6000fd5b505050506040513d601f19601f82011682018060405250810190611865919061254a565b5060015461187d906001600160a01b03163383611e0c565b600254604080516001600160a01b03909216825233602083015281018490527f53fee901a59b4d2e659e450f8db17fc345e158fe408d2b39faf66d1f8c4a54fe9060600160405180910390a160408051338152602081018590527fcc16f5dbb4873280815c1ee09dbd06736cffcc184412cf7a71a0fdb75d397ca59101610bc8565b6000546001600160a01b031633146119475760405162461bcd60e51b815260206004820181905260248201526000805160206127fc833981519152604482015260640161037b565b600054600160a01b900460ff166119975760405162461bcd60e51b815260206004820152601460248201527314185d5cd8589b194e881b9bdd081c185d5cd95960621b604482015260640161037b565b6002546040517ff2fde38b0000000000000000000000000000000000000000000000000000000081526001600160a01b0383811660048301529091169063f2fde38b90602401600060405180830381600087803b1580156119f757600080fd5b505af1158015611a0b573d6000803e3d6000fd5b5050505050565b6000546001600160a01b03163314611a5a5760405162461bcd60e51b815260206004820181905260248201526000805160206127fc833981519152604482015260640161037b565b600054600160a01b900460ff16611aaa5760405162461bcd60e51b815260206004820152601460248201527314185d5cd8589b194e881b9bdd081c185d5cd95960621b604482015260640161037b565b6040516370a0823160e01b81523060048201526000906001600160a01b038416906370a082319060240160206040518083038186803b158015611aec57600080fd5b505afa158015611b00573d6000803e3d6000fd5b505050506040513d601f19601f82011682018060405250810190611b249190612585565b9050611b3a6001600160a01b0384168383611e0c565b505050565b6000546001600160a01b03163314611b875760405162461bcd60e51b815260206004820181905260248201526000805160206127fc833981519152604482015260640161037b565b6001546040516370a0823160e01b815230600482015283916001600160a01b0316906370a082319060240160206040518083038186803b158015611bca57600080fd5b505afa158015611bde573d6000803e3d6000fd5b505050506040513d601f19601f82011682018060405250810190611c029190612585565b1015611c5a5760405162461bcd60e51b815260206004820152602160248201527f5661756c742068617320696e737566666963656e7420737461626c6520636f696044820152603760f91b606482015260840161037b565b60008211611caa5760405162461bcd60e51b815260206004820152601b60248201527f4d757374206465706f736974206d6f7265207468616e207a65726f0000000000604482015260640161037b565b600154611cc1906001600160a01b03168284611e0c565b6003546040517f8f2da01d000000000000000000000000000000000000000000000000000000008152600481018490526001600160a01b0390911690638f2da01d90602401600060405180830381600087803b158015611d2057600080fd5b505af1158015611d34573d6000803e3d6000fd5b505050505050565b6000546001600160a01b03163314611d845760405162461bcd60e51b815260206004820181905260248201526000805160206127fc833981519152604482015260640161037b565b6001600160a01b038116611e005760405162461bcd60e51b815260206004820152602660248201527f4f776e61626c653a206e6577206f776e657220697320746865207a65726f206160448201527f6464726573730000000000000000000000000000000000000000000000000000606482015260840161037b565b611e0981612066565b50565b6040516001600160a01b038316602482015260448101829052611b3a9084907fa9059cbb00000000000000000000000000000000000000000000000000000000906064015b60408051601f198184030181529190526020810180517bffffffffffffffffffffffffffffffffffffffffffffffffffffffff167fffffffff0000000000000000000000000000000000000000000000000000000090931692909217909152612167565b600054600160a01b900460ff16611f055760405162461bcd60e51b815260206004820152601460248201527314185d5cd8589b194e881b9bdd081c185d5cd95960621b604482015260640161037b565b6000805460ff60a01b191690557f5db9ee0a495bf2e6ff9c91a7834c1ba4fdd244a5e8aa4e537bd38aeae4b073aa335b6040516001600160a01b03909116815260200160405180910390a1565b6000611feb600360009054906101000a90046001600160a01b03166001600160a01b031663531d7dec6040518163ffffffff1660e01b815260040160206040518083038186803b158015611fa557600080fd5b505afa158015611fb9573d6000803e3d6000fd5b505050506040513d601f19601f82011682018060405250810190611fdd9190612585565b611fe561224c565b906122c8565b905090565b6000611ffc828461276f565b9392505050565b6000611ffc8284612662565b6040516001600160a01b03808516602483015283166044820152606481018290526120609085907f23b872dd0000000000000000000000000000000000000000000000000000000090608401611e51565b50505050565b600080546001600160a01b0383811673ffffffffffffffffffffffffffffffffffffffff19831681178455604051919092169283917f8be0079c531659141344cd1fd0a4f28419497f9722a3daafe3b4186f6b6457e09190a35050565b600054600160a01b900460ff16156121105760405162461bcd60e51b815260206004820152601060248201526f14185d5cd8589b194e881c185d5cd95960821b604482015260640161037b565b6000805460ff60a01b1916600160a01b1790557f62e78cea01bee320cd4e420270b5ea74000d11b0c9f74754ebdbfc544b05a258611f353390565b6000611feb6006600a6126c7565b6000611feb6012600a6126c7565b60006121bc826040518060400160405280602081526020017f5361666545524332303a206c6f772d6c6576656c2063616c6c206661696c6564815250856001600160a01b03166122d49092919063ffffffff16565b805190915015611b3a57808060200190518101906121da919061254a565b611b3a5760405162461bcd60e51b815260206004820152602a60248201527f5361666545524332303a204552433230206f7065726174696f6e20646964206e60448201527f6f74207375636365656400000000000000000000000000000000000000000000606482015260840161037b565b6001546040516370a0823160e01b81523060048201526000916001600160a01b0316906370a082319060240160206040518083038186803b15801561229057600080fd5b505afa1580156122a4573d6000803e3d6000fd5b505050506040513d601f19601f82011682018060405250810190611feb9190612585565b6000611ffc828461264a565b60606107848484600085856001600160a01b0385163b6123365760405162461bcd60e51b815260206004820152601d60248201527f416464726573733a2063616c6c20746f206e6f6e2d636f6e7472616374000000604482015260640161037b565b600080866001600160a01b0316858760405161235291906125fb565b60006040518083038185875af1925050503d806000811461238f576040519150601f19603f3d011682016040523d82523d6000602084013e612394565b606091505b50915091506123a48282866123af565b979650505050505050565b606083156123be575081611ffc565b8251156123ce5782518084602001fd5b8160405162461bcd60e51b815260040161037b9190612617565b6000602082840312156123fa57600080fd5b8135611ffc816127e6565b6000806040838503121561241857600080fd5b8235612423816127e6565b91506020830135612433816127e6565b809150509250929050565b6000806000806080858703121561245457600080fd5b843561245f816127e6565b9350602085013561246f816127e6565b925060408501359150606085013567ffffffffffffffff8082111561249357600080fd5b818701915087601f8301126124a757600080fd5b8135818111156124b9576124b96127d0565b604051601f8201601f19908116603f011681019083821181831017156124e1576124e16127d0565b816040528281528a60208487010111156124fa57600080fd5b82602086016020830137600060208483010152809550505050505092959194509250565b6000806040838503121561253157600080fd5b823561253c816127e6565b946020939093013593505050565b60006020828403121561255c57600080fd5b81518015158114611ffc57600080fd5b60006020828403121561257e57600080fd5b5035919050565b60006020828403121561259757600080fd5b5051919050565b600080604083850312156125b157600080fd5b823591506020830135612433816127e6565b6000806000606084860312156125d857600080fd5b8335925060208401356125ea816127e6565b929592945050506040919091013590565b6000825161260d81846020870161278e565b9190910192915050565b602081526000825180602084015261263681604085016020870161278e565b601f01601f19169190910160400192915050565b6000821982111561265d5761265d6127ba565b500190565b60008261267f57634e487b7160e01b600052601260045260246000fd5b500490565b600181815b808511156126bf5781600019048211156126a5576126a56127ba565b808516156126b257918102915b93841c9390800290612689565b509250929050565b6000611ffc83836000826126dd575060016113d2565b816126ea575060006113d2565b8160018114612700576002811461270a57612726565b60019150506113d2565b60ff84111561271b5761271b6127ba565b50506001821b6113d2565b5060208310610133831016604e8410600b8410161715612749575081810a6113d2565b6127538383612684565b8060001904821115612767576127676127ba565b029392505050565b6000816000190483118215151615612789576127896127ba565b500290565b60005b838110156127a9578181015183820152602001612791565b838111156120605750506000910152565b634e487b7160e01b600052601160045260246000fd5b634e487b7160e01b600052604160045260246000fd5b6001600160a01b0381168114611e0957600080fdfe4f776e61626c653a2063616c6c6572206973206e6f7420746865206f776e6572a2646970667358221220346b5ad2e678c7a17f055c60fccf7ce9bab9e96d28546f56ae282e01f6db6cdb64736f6c63430008070033",
  "devdoc": {
    "author": "AlloyX",
    "kind": "dev",
    "methods": {
      "depositAlloyxBronzeTokens(uint256)": {
        "params": {
          "_tokenAmount": "Number of Alloy Tokens"
        }
      },
      "depositNFTToken(address,uint256)": {
        "params": {
          "_tokenAddress": "NFT Address",
          "_tokenID": "NFT ID"
        }
      },
      "depositUSDCCoin(uint256)": {
        "params": {
          "_tokenAmount": "Number of stable coin"
        }
      },
      "onERC721Received(address,address,uint256,bytes)": {
        "details": "See {IERC721Receiver-onERC721Received}. Always returns `IERC721Receiver.onERC721Received.selector`."
      },
      "owner()": {
        "details": "Returns the address of the current owner."
      },
      "paused()": {
        "details": "Returns true if the contract is paused, and false otherwise."
      },
      "renounceOwnership()": {
        "details": "Leaves the contract without owner. It will not be possible to call `onlyOwner` functions anymore. Can only be called by the current owner. NOTE: Renouncing ownership will leave the contract without an owner, thereby removing any functionality that is only available to the owner."
      },
      "transferOwnership(address)": {
        "details": "Transfers ownership of the contract to a new account (`newOwner`). Can only be called by the current owner."
      }
    },
    "title": "AlloyX Vault",
    "version": 1
  },
  "userdoc": {
    "kind": "user",
    "methods": {
      "USDCtoAlloyxBronze(uint256)": {
        "notice": "Convert USDC Amount to Alloyx Bronze"
      },
      "alloyxBronzeToUSDC(uint256)": {
        "notice": "Convert Alloyx Bronze to USDC amount"
      },
      "depositAlloyxBronzeTokens(uint256)": {
        "notice": "An Alloy token holder can deposit their tokens and redeem them for USDC"
      },
      "depositNFTToken(address,uint256)": {
        "notice": "A Junior token holder can deposit their NFT for stable coin"
      },
      "depositUSDCCoin(uint256)": {
        "notice": "A Liquidity Provider can deposit supported stable coins for Alloy Tokens"
      },
      "startVaultOperation()": {
        "notice": "Initialize by minting the alloy brown tokens to owner"
      }
    },
    "notice": "Initial vault for AlloyX. This vault holds loan tokens generated on Goldfinch and emits AlloyTokens when a liquidity provider deposits supported stable coins.",
    "version": 1
  },
  "storageLayout": {
    "storage": [
      {
        "astId": 2183,
        "contract": "contracts/alloyx/v2.1/AlloyCoreVault.sol:AlloyCoreVault",
        "label": "_owner",
        "offset": 0,
        "slot": "0",
        "type": "t_address"
      },
      {
        "astId": 2298,
        "contract": "contracts/alloyx/v2.1/AlloyCoreVault.sol:AlloyCoreVault",
        "label": "_paused",
        "offset": 20,
        "slot": "0",
        "type": "t_bool"
      },
      {
        "astId": 8162,
        "contract": "contracts/alloyx/v2.1/AlloyCoreVault.sol:AlloyCoreVault",
        "label": "vaultStarted",
        "offset": 21,
        "slot": "0",
        "type": "t_bool"
      },
      {
        "astId": 8165,
        "contract": "contracts/alloyx/v2.1/AlloyCoreVault.sol:AlloyCoreVault",
        "label": "usdcCoin",
        "offset": 0,
        "slot": "1",
        "type": "t_contract(IERC20)3038"
      },
      {
        "astId": 8168,
        "contract": "contracts/alloyx/v2.1/AlloyCoreVault.sol:AlloyCoreVault",
        "label": "alloyxTokenBronze",
        "offset": 0,
        "slot": "2",
        "type": "t_contract(AlloyxTokenBronze)5729"
      },
      {
        "astId": 8171,
        "contract": "contracts/alloyx/v2.1/AlloyCoreVault.sol:AlloyCoreVault",
        "label": "goldfinchDelegacy",
        "offset": 0,
        "slot": "3",
        "type": "t_contract(GoldfinchDelegacy)9716"
      }
    ],
    "types": {
      "t_address": {
        "encoding": "inplace",
        "label": "address",
        "numberOfBytes": "20"
      },
      "t_bool": {
        "encoding": "inplace",
        "label": "bool",
        "numberOfBytes": "1"
      },
      "t_contract(AlloyxTokenBronze)5729": {
        "encoding": "inplace",
        "label": "contract AlloyxTokenBronze",
        "numberOfBytes": "20"
      },
      "t_contract(GoldfinchDelegacy)9716": {
        "encoding": "inplace",
        "label": "contract GoldfinchDelegacy",
        "numberOfBytes": "20"
      },
      "t_contract(IERC20)3038": {
        "encoding": "inplace",
        "label": "contract IERC20",
        "numberOfBytes": "20"
      }
    }
  }
}