{
  "address": "0x0FCc8943c47046c83DEAF6491Cb5a4B6060c6767",
  "abi": [
    {
      "inputs": [
        {
          "internalType": "address",
          "name": "_alloyxDURAAddress",
          "type": "address"
        },
        {
          "internalType": "address",
          "name": "_alloyxCRWNAddress",
          "type": "address"
        },
        {
          "internalType": "address",
          "name": "_usdcCoinAddress",
          "type": "address"
        },
        {
          "internalType": "address",
          "name": "_goldfinchDelegacy",
          "type": "address"
        }
      ],
      "stateMutability": "nonpayable",
      "type": "constructor"
    },
    {
      "anonymous": false,
      "inputs": [
        {
          "indexed": false,
          "internalType": "address",
          "name": "_tokenReceiver",
          "type": "address"
        },
        {
          "indexed": false,
          "internalType": "uint256",
          "name": "_tokenAmount",
          "type": "uint256"
        }
      ],
      "name": "Burn",
      "type": "event"
    },
    {
      "anonymous": false,
      "inputs": [
        {
          "indexed": false,
          "internalType": "address",
          "name": "_tokenReceiver",
          "type": "address"
        },
        {
          "indexed": false,
          "internalType": "uint256",
          "name": "_tokenAmount",
          "type": "uint256"
        }
      ],
      "name": "Claim",
      "type": "event"
    },
    {
      "anonymous": false,
      "inputs": [
        {
          "indexed": false,
          "internalType": "address",
          "name": "_tokenAddress",
          "type": "address"
        },
        {
          "indexed": false,
          "internalType": "address",
          "name": "_tokenSender",
          "type": "address"
        },
        {
          "indexed": false,
          "internalType": "uint256",
          "name": "_tokenAmount",
          "type": "uint256"
        }
      ],
      "name": "DepositAlloyx",
      "type": "event"
    },
    {
      "anonymous": false,
      "inputs": [
        {
          "indexed": false,
          "internalType": "address",
          "name": "_tokenAddress",
          "type": "address"
        },
        {
          "indexed": false,
          "internalType": "address",
          "name": "_tokenSender",
          "type": "address"
        },
        {
          "indexed": false,
          "internalType": "uint256",
          "name": "_tokenID",
          "type": "uint256"
        }
      ],
      "name": "DepositNFT",
      "type": "event"
    },
    {
      "anonymous": false,
      "inputs": [
        {
          "indexed": false,
          "internalType": "address",
          "name": "_tokenAddress",
          "type": "address"
        },
        {
          "indexed": false,
          "internalType": "address",
          "name": "_tokenSender",
          "type": "address"
        },
        {
          "indexed": false,
          "internalType": "uint256",
          "name": "_tokenAmount",
          "type": "uint256"
        }
      ],
      "name": "DepositStable",
      "type": "event"
    },
    {
      "anonymous": false,
      "inputs": [
        {
          "indexed": false,
          "internalType": "address",
          "name": "_tokenReceiver",
          "type": "address"
        },
        {
          "indexed": false,
          "internalType": "uint256",
          "name": "_tokenAmount",
          "type": "uint256"
        }
      ],
      "name": "Mint",
      "type": "event"
    },
    {
      "anonymous": false,
      "inputs": [
        {
          "indexed": true,
          "internalType": "address",
          "name": "previousOwner",
          "type": "address"
        },
        {
          "indexed": true,
          "internalType": "address",
          "name": "newOwner",
          "type": "address"
        }
      ],
      "name": "OwnershipTransferred",
      "type": "event"
    },
    {
      "anonymous": false,
      "inputs": [
        {
          "indexed": false,
          "internalType": "address",
          "name": "account",
          "type": "address"
        }
      ],
      "name": "Paused",
      "type": "event"
    },
    {
      "anonymous": false,
      "inputs": [
        {
          "indexed": false,
          "internalType": "uint256",
          "name": "amount",
          "type": "uint256"
        }
      ],
      "name": "PurchaseJunior",
      "type": "event"
    },
    {
      "anonymous": false,
      "inputs": [
        {
          "indexed": false,
          "internalType": "uint256",
          "name": "amount",
          "type": "uint256"
        }
      ],
      "name": "PurchaseSenior",
      "type": "event"
    },
    {
      "anonymous": false,
      "inputs": [
        {
          "indexed": false,
          "internalType": "address",
          "name": "_tokenReceiver",
          "type": "address"
        },
        {
          "indexed": false,
          "internalType": "uint256",
          "name": "_tokenAmount",
          "type": "uint256"
        }
      ],
      "name": "Reward",
      "type": "event"
    },
    {
      "anonymous": false,
      "inputs": [
        {
          "indexed": false,
          "internalType": "uint256",
          "name": "amount",
          "type": "uint256"
        }
      ],
      "name": "SellJunior",
      "type": "event"
    },
    {
      "anonymous": false,
      "inputs": [
        {
          "indexed": false,
          "internalType": "uint256",
          "name": "amount",
          "type": "uint256"
        }
      ],
      "name": "SellSenior",
      "type": "event"
    },
    {
      "anonymous": false,
      "inputs": [
        {
          "indexed": false,
          "internalType": "address",
          "name": "_staker",
          "type": "address"
        },
        {
          "indexed": false,
          "internalType": "uint256",
          "name": "_amount",
          "type": "uint256"
        }
      ],
      "name": "Stake",
      "type": "event"
    },
    {
      "anonymous": false,
      "inputs": [
        {
          "indexed": false,
          "internalType": "address",
          "name": "account",
          "type": "address"
        }
      ],
      "name": "Unpaused",
      "type": "event"
    },
    {
      "inputs": [
        {
          "internalType": "uint256",
          "name": "_amount",
          "type": "uint256"
        }
      ],
      "name": "alloyxDURAToUSDC",
      "outputs": [
        {
          "internalType": "uint256",
          "name": "",
          "type": "uint256"
        }
      ],
      "stateMutability": "view",
      "type": "function"
    },
    {
      "inputs": [
        {
          "internalType": "address",
          "name": "_tokenAddress",
          "type": "address"
        },
        {
          "internalType": "address",
          "name": "_account",
          "type": "address"
        },
        {
          "internalType": "uint256",
          "name": "_amount",
          "type": "uint256"
        }
      ],
      "name": "approveDelegacy",
      "outputs": [],
      "stateMutability": "nonpayable",
      "type": "function"
    },
    {
      "inputs": [
        {
          "internalType": "address",
          "name": "_alloyxAddress",
          "type": "address"
        }
      ],
      "name": "changeAlloyxDURAAddress",
      "outputs": [],
      "stateMutability": "nonpayable",
      "type": "function"
    },
    {
      "inputs": [
        {
          "internalType": "address",
          "name": "_goldfinchDelegacy",
          "type": "address"
        }
      ],
      "name": "changeGoldfinchDelegacyAddress",
      "outputs": [],
      "stateMutability": "nonpayable",
      "type": "function"
    },
    {
      "inputs": [],
      "name": "claimAllAlloyxCRWN",
      "outputs": [
        {
          "internalType": "bool",
          "name": "",
          "type": "bool"
        }
      ],
      "stateMutability": "nonpayable",
      "type": "function"
    },
    {
      "inputs": [
        {
          "internalType": "uint256",
          "name": "_amount",
          "type": "uint256"
        }
      ],
      "name": "claimAlloyxCRWN",
      "outputs": [
        {
          "internalType": "bool",
          "name": "",
          "type": "bool"
        }
      ],
      "stateMutability": "nonpayable",
      "type": "function"
    },
    {
      "inputs": [
        {
          "internalType": "uint256",
          "name": "_amount",
          "type": "uint256"
        }
      ],
      "name": "claimReward",
      "outputs": [
        {
          "internalType": "bool",
          "name": "",
          "type": "bool"
        }
      ],
      "stateMutability": "nonpayable",
      "type": "function"
    },
    {
      "inputs": [
        {
          "internalType": "address",
          "name": "_receiver",
          "type": "address"
        }
      ],
      "name": "claimableCRWNToken",
      "outputs": [
        {
          "internalType": "uint256",
          "name": "",
          "type": "uint256"
        }
      ],
      "stateMutability": "view",
      "type": "function"
    },
    {
      "inputs": [
        {
          "internalType": "uint256",
          "name": "_tokenAmount",
          "type": "uint256"
        }
      ],
      "name": "depositAlloyxDURATokens",
      "outputs": [
        {
          "internalType": "bool",
          "name": "",
          "type": "bool"
        }
      ],
      "stateMutability": "nonpayable",
      "type": "function"
    },
    {
      "inputs": [
        {
          "internalType": "address",
          "name": "_tokenAddress",
          "type": "address"
        },
        {
          "internalType": "uint256",
          "name": "_tokenID",
          "type": "uint256"
        }
      ],
      "name": "depositNFTToken",
      "outputs": [
        {
          "internalType": "bool",
          "name": "",
          "type": "bool"
        }
      ],
      "stateMutability": "nonpayable",
      "type": "function"
    },
    {
      "inputs": [
        {
          "internalType": "uint256",
          "name": "_tokenAmount",
          "type": "uint256"
        }
      ],
      "name": "depositUSDCCoin",
      "outputs": [
        {
          "internalType": "bool",
          "name": "",
          "type": "bool"
        }
      ],
      "stateMutability": "nonpayable",
      "type": "function"
    },
    {
      "inputs": [
        {
          "internalType": "uint256",
          "name": "_tokenAmount",
          "type": "uint256"
        }
      ],
      "name": "depositUSDCCoinWithStake",
      "outputs": [
        {
          "internalType": "bool",
          "name": "",
          "type": "bool"
        }
      ],
      "stateMutability": "nonpayable",
      "type": "function"
    },
    {
      "inputs": [],
      "name": "destroy",
      "outputs": [],
      "stateMutability": "nonpayable",
      "type": "function"
    },
    {
      "inputs": [],
      "name": "getAlloyxDURATokenBalanceInUSDC",
      "outputs": [
        {
          "internalType": "uint256",
          "name": "",
          "type": "uint256"
        }
      ],
      "stateMutability": "view",
      "type": "function"
    },
    {
      "inputs": [
        {
          "internalType": "address",
          "name": "_address",
          "type": "address"
        }
      ],
      "name": "isStakeholder",
      "outputs": [
        {
          "internalType": "bool",
          "name": "",
          "type": "bool"
        },
        {
          "internalType": "uint256",
          "name": "",
          "type": "uint256"
        }
      ],
      "stateMutability": "view",
      "type": "function"
    },
    {
      "inputs": [
        {
          "internalType": "address",
          "name": "_tokenAddress",
          "type": "address"
        },
        {
          "internalType": "address",
          "name": "_to",
          "type": "address"
        }
      ],
      "name": "migrateERC20",
      "outputs": [],
      "stateMutability": "nonpayable",
      "type": "function"
    },
    {
      "inputs": [
        {
          "internalType": "address",
          "name": "",
          "type": "address"
        },
        {
          "internalType": "address",
          "name": "",
          "type": "address"
        },
        {
          "internalType": "uint256",
          "name": "",
          "type": "uint256"
        },
        {
          "internalType": "bytes",
          "name": "",
          "type": "bytes"
        }
      ],
      "name": "onERC721Received",
      "outputs": [
        {
          "internalType": "bytes4",
          "name": "",
          "type": "bytes4"
        }
      ],
      "stateMutability": "nonpayable",
      "type": "function"
    },
    {
      "inputs": [],
      "name": "owner",
      "outputs": [
        {
          "internalType": "address",
          "name": "",
          "type": "address"
        }
      ],
      "stateMutability": "view",
      "type": "function"
    },
    {
      "inputs": [],
      "name": "pause",
      "outputs": [],
      "stateMutability": "nonpayable",
      "type": "function"
    },
    {
      "inputs": [],
      "name": "paused",
      "outputs": [
        {
          "internalType": "bool",
          "name": "",
          "type": "bool"
        }
      ],
      "stateMutability": "view",
      "type": "function"
    },
    {
      "inputs": [],
      "name": "percentageCRWNEarning",
      "outputs": [
        {
          "internalType": "uint256",
          "name": "",
          "type": "uint256"
        }
      ],
      "stateMutability": "view",
      "type": "function"
    },
    {
      "inputs": [],
      "name": "percentageDURARedemption",
      "outputs": [
        {
          "internalType": "uint256",
          "name": "",
          "type": "uint256"
        }
      ],
      "stateMutability": "view",
      "type": "function"
    },
    {
      "inputs": [],
      "name": "percentageDURARepayment",
      "outputs": [
        {
          "internalType": "uint256",
          "name": "",
          "type": "uint256"
        }
      ],
      "stateMutability": "view",
      "type": "function"
    },
    {
      "inputs": [],
      "name": "percentageRewardPerYear",
      "outputs": [
        {
          "internalType": "uint256",
          "name": "",
          "type": "uint256"
        }
      ],
      "stateMutability": "view",
      "type": "function"
    },
    {
      "inputs": [
        {
          "internalType": "uint256",
          "name": "_amount",
          "type": "uint256"
        },
        {
          "internalType": "address",
          "name": "_poolAddress",
          "type": "address"
        },
        {
          "internalType": "uint256",
          "name": "_tranche",
          "type": "uint256"
        }
      ],
      "name": "purchaseJuniorToken",
      "outputs": [],
      "stateMutability": "nonpayable",
      "type": "function"
    },
    {
      "inputs": [
        {
          "internalType": "uint256",
          "name": "_amount",
          "type": "uint256"
        }
      ],
      "name": "purchaseSeniorTokens",
      "outputs": [],
      "stateMutability": "nonpayable",
      "type": "function"
    },
    {
      "inputs": [],
      "name": "redemptionFee",
      "outputs": [
        {
          "internalType": "uint256",
          "name": "",
          "type": "uint256"
        }
      ],
      "stateMutability": "view",
      "type": "function"
    },
    {
      "inputs": [],
      "name": "renounceOwnership",
      "outputs": [],
      "stateMutability": "nonpayable",
      "type": "function"
    },
    {
      "inputs": [
        {
          "internalType": "uint256",
          "name": "_tokenId",
          "type": "uint256"
        },
        {
          "internalType": "uint256",
          "name": "_amount",
          "type": "uint256"
        },
        {
          "internalType": "address",
          "name": "_poolAddress",
          "type": "address"
        }
      ],
      "name": "sellJuniorToken",
      "outputs": [],
      "stateMutability": "nonpayable",
      "type": "function"
    },
    {
      "inputs": [
        {
          "internalType": "uint256",
          "name": "_amount",
          "type": "uint256"
        }
      ],
      "name": "sellSeniorTokens",
      "outputs": [],
      "stateMutability": "nonpayable",
      "type": "function"
    },
    {
      "inputs": [
        {
          "internalType": "uint256",
          "name": "_percentageCRWNEarning",
          "type": "uint256"
        }
      ],
      "name": "setPercentageCRWNEarning",
      "outputs": [],
      "stateMutability": "nonpayable",
      "type": "function"
    },
    {
      "inputs": [
        {
          "internalType": "uint256",
          "name": "_percentageDURARedemption",
          "type": "uint256"
        }
      ],
      "name": "setPercentageDURARedemption",
      "outputs": [],
      "stateMutability": "nonpayable",
      "type": "function"
    },
    {
      "inputs": [
        {
          "internalType": "uint256",
          "name": "_percentageDURARepayment",
          "type": "uint256"
        }
      ],
      "name": "setPercentageDURARepayment",
      "outputs": [],
      "stateMutability": "nonpayable",
      "type": "function"
    },
    {
      "inputs": [
        {
          "internalType": "uint256",
          "name": "_percentageRewardPerYear",
          "type": "uint256"
        }
      ],
      "name": "setPercentageRewardPerYear",
      "outputs": [],
      "stateMutability": "nonpayable",
      "type": "function"
    },
    {
      "inputs": [
        {
          "internalType": "uint256",
          "name": "_amount",
          "type": "uint256"
        }
      ],
      "name": "stake",
      "outputs": [
        {
          "internalType": "bool",
          "name": "",
          "type": "bool"
        }
      ],
      "stateMutability": "nonpayable",
      "type": "function"
    },
    {
      "inputs": [
        {
          "internalType": "address",
          "name": "_stakeholder",
          "type": "address"
        }
      ],
      "name": "stakeOf",
      "outputs": [
        {
          "components": [
            {
              "internalType": "uint256",
              "name": "amount",
              "type": "uint256"
            },
            {
              "internalType": "uint256",
              "name": "since",
              "type": "uint256"
            }
          ],
          "internalType": "struct AlloyxVaultV4_0.StakeInfo",
          "name": "",
          "type": "tuple"
        }
      ],
      "stateMutability": "view",
      "type": "function"
    },
    {
      "inputs": [],
      "name": "startVaultOperation",
      "outputs": [
        {
          "internalType": "bool",
          "name": "",
          "type": "bool"
        }
      ],
      "stateMutability": "nonpayable",
      "type": "function"
    },
    {
      "inputs": [],
      "name": "totalClaimableAndClaimedCRWNToken",
      "outputs": [
        {
          "internalType": "uint256",
          "name": "",
          "type": "uint256"
        }
      ],
      "stateMutability": "view",
      "type": "function"
    },
    {
      "inputs": [],
      "name": "totalClaimableCRWNToken",
      "outputs": [
        {
          "internalType": "uint256",
          "name": "",
          "type": "uint256"
        }
      ],
      "stateMutability": "view",
      "type": "function"
    },
    {
      "inputs": [
        {
          "internalType": "address",
          "name": "_to",
          "type": "address"
        }
      ],
      "name": "transferAlloyxOwnership",
      "outputs": [],
      "stateMutability": "nonpayable",
      "type": "function"
    },
    {
      "inputs": [
        {
          "internalType": "address",
          "name": "newOwner",
          "type": "address"
        }
      ],
      "name": "transferOwnership",
      "outputs": [],
      "stateMutability": "nonpayable",
      "type": "function"
    },
    {
      "inputs": [
        {
          "internalType": "address",
          "name": "_to",
          "type": "address"
        }
      ],
      "name": "transferRedemptionFee",
      "outputs": [],
      "stateMutability": "nonpayable",
      "type": "function"
    },
    {
      "inputs": [],
      "name": "unpause",
      "outputs": [],
      "stateMutability": "nonpayable",
      "type": "function"
    },
    {
      "inputs": [
        {
          "internalType": "uint256",
          "name": "_amount",
          "type": "uint256"
        }
      ],
      "name": "unstake",
      "outputs": [
        {
          "internalType": "bool",
          "name": "",
          "type": "bool"
        }
      ],
      "stateMutability": "nonpayable",
      "type": "function"
    },
    {
      "inputs": [
        {
          "internalType": "uint256",
          "name": "_amount",
          "type": "uint256"
        }
      ],
      "name": "usdcToAlloyxDURA",
      "outputs": [
        {
          "internalType": "uint256",
          "name": "",
          "type": "uint256"
        }
      ],
      "stateMutability": "view",
      "type": "function"
    }
  ],
  "transactionHash": "0x9ec19fd26e6e864882550fe23f6ebc390e2f1c3f70802f709e688883c215c60b",
  "args": [
    "0xFefB78bccc1713f04dD852265849008C677685C7",
    "0xb280011296203401f147183f156722A00EB6F97A",
    "0x67F3693E36F7a0b4E88b7fDD7227e26188913406",
    "0x976e6c56Ac3c4E9555E0291649FF27EC0579E263"
  ],
  "numDeployments": 1,
  "solcInputHash": "db08b62b14234d1de3753dca8e7e1a75",
  "bytecode": "0x6080604052600260085560016009556002600a55600a600b556000600c553480156200002a57600080fd5b50604051620044bd380380620044bd8339810160408190526200004d9162000127565b6200005833620000ba565b60008054600280546001600160a01b03199081166001600160a01b0398891617909155600380548216968816969096179095556001805486169487169490941790935560048054909416919094161790915561ffff60a01b1916905562000184565b600080546001600160a01b038381166001600160a01b0319831681178455604051919092169283917f8be0079c531659141344cd1fd0a4f28419497f9722a3daafe3b4186f6b6457e09190a35050565b80516001600160a01b03811681146200012257600080fd5b919050565b600080600080608085870312156200013e57600080fd5b62000149856200010a565b935062000159602086016200010a565b925062000169604086016200010a565b915062000179606086016200010a565b905092959194509250565b61432980620001946000396000f3fe608060405234801561001057600080fd5b50600436106102ff5760003560e01c806383197ef01161019c578063c8977e02116100ee578063e91f03e611610097578063ef037b9011610071578063ef037b9014610653578063f1a341f71461067d578063f2fde38b1461069057600080fd5b8063e91f03e614610630578063e93039cb14610638578063ede7bf601461064057600080fd5b8063d8ec0608116100c8578063d8ec060814610601578063d905e9b414610614578063dabb98aa1461062757600080fd5b8063c8977e02146105c8578063cb80714b146105db578063ce3c39c1146105ee57600080fd5b80639cdad70811610150578063ae169a501161012a578063ae169a501461058f578063b338ad16146105a2578063c070c2bd146105b557600080fd5b80639cdad70814610556578063a45921ff14610569578063a694fc3a1461057c57600080fd5b80638d6f4d21116101815780638d6f4d21146105205780638da5cb5b146105285780638f2da01d1461054357600080fd5b806383197ef0146105105780638456cb591461051857600080fd5b80633f4ba83a116102555780635c975abb11610209578063715018a6116101e3578063715018a6146104e2578063816c1acd146104ea57806382633519146104fd57600080fd5b80635c975abb146104bf5780635ddd351d146104d157806364cdc99e146104da57600080fd5b8063458f58151161023a578063458f58151461049057806351ba97241461049957806353c98f5a146104ac57600080fd5b80633f4ba83a14610418578063426233601461042057600080fd5b80631b61eb67116102b75780632a88ec54116102915780632a88ec54146103df5780632c579213146103f25780632e17de781461040557600080fd5b80631b61eb67146103b0578063223ea9b0146103c35780632456a11d146103cc57600080fd5b80630d7a3c6e116102e85780630d7a3c6e146103385780630eb9a0071461034b578063150b7a021461036057600080fd5b806307dd2ef2146103045780630d51800114610320575b600080fd5b61030d600b5481565b6040519081526020015b60405180910390f35b6103286106a3565b6040519015158152602001610317565b61030d610346366004614014565b61083a565b61035e610359366004613e62565b6108ed565b005b61039761036e366004613eec565b7f150b7a0200000000000000000000000000000000000000000000000000000000949350505050565b6040516001600160e01b03199091168152602001610317565b61035e6103be366004614046565b610964565b61030d600a5481565b61035e6103da366004614014565b610abe565b61035e6103ed366004613e62565b610b0b565b61035e610400366004614014565b610bc5565b610328610413366004614014565b610d16565b61035e610df6565b61047561042e366004613e62565b6040805180820190915260008082526020820152506001600160a01b0316600090815260066020908152604091829020825180840190935280548352600101549082015290565b60408051825181526020928301519281019290925201610317565b61030d600c5481565b6103286104a7366004614014565b610e98565b6103286104ba366004614014565b6110ab565b600054600160a01b900460ff16610328565b61030d60095481565b61030d6114d2565b61035e611535565b61030d6104f8366004613e62565b611587565b61035e61050b366004614014565b6115fb565b61035e611648565b61035e6117b7565b610328611854565b6000546040516001600160a01b039091168152602001610317565b61035e610551366004614014565b611a82565b61035e610564366004614014565b611bc0565b61035e610577366004613eb0565b611c0d565b61032861058a366004614014565b611ce3565b61032861059d366004614014565b611dbb565b6103286105b0366004613fc8565b6120af565b61035e6105c3366004613e62565b61236f565b6103286105d6366004614014565b6123e6565b61035e6105e9366004614014565b612939565b6103286105fc366004614014565b612986565b61035e61060f366004613e62565b612db0565b61035e610622366004613e7d565b612f09565b61030d60085481565b61030d613036565b61030d6131df565b61030d61064e366004614014565b613277565b610666610661366004613e62565b61331c565b604080519215158352602083019190915201610317565b61035e61068b36600461406b565b613387565b61035e61069e366004613e62565b6134df565b60008054600160a01b900460ff16156106f65760405162461bcd60e51b815260206004820152601060248201526f14185d5cd8589b194e881c185d5cd95960821b60448201526064015b60405180910390fd5b600054600160a81b900460ff1661075e5760405162461bcd60e51b815260206004820152602660248201527f5661756c7420686173206e6f7420737461727420616363657074696e67206465604482015265706f7369747360d01b60648201526084016106ed565b600061076933611587565b6003546040516340c10f1960e01b8152336004820152602481018390529192506001600160a01b0316906340c10f1990604401602060405180830381600087803b1580156107b657600080fd5b505af11580156107ca573d6000803e3d6000fd5b505050506040513d601f19601f820116820180604052508101906107ee9190613ff2565b506107f960006135af565b60408051338152602081018390527f47cee97cb7acd717b3c0aa1435d004cd5b3c8c57d70dbceb4e4458bbd60e39d4910160405180910390a1600191505090565b600080600260009054906101000a90046001600160a01b03166001600160a01b03166318160ddd6040518163ffffffff1660e01b815260040160206040518083038186803b15801561088b57600080fd5b505afa15801561089f573d6000803e3d6000fd5b505050506040513d601f19601f820116820180604052508101906108c3919061402d565b905060006108cf613036565b90506108e5816108df86856135cb565b906135d7565b949350505050565b6000546001600160a01b031633146109355760405162461bcd60e51b815260206004820181905260248201526000805160206142d483398151915260448201526064016106ed565b6004805473ffffffffffffffffffffffffffffffffffffffff19166001600160a01b0392909216919091179055565b6000546001600160a01b031633146109ac5760405162461bcd60e51b815260206004820181905260248201526000805160206142d483398151915260448201526064016106ed565b600083116109fc5760405162461bcd60e51b815260206004820152601b60248201527f4d757374206465706f736974206d6f7265207468616e207a65726f000000000060448201526064016106ed565b600480546040517f1b61eb670000000000000000000000000000000000000000000000000000000081529182018590526001600160a01b038481166024840152604483018490521690631b61eb6790606401600060405180830381600087803b158015610a6857600080fd5b505af1158015610a7c573d6000803e3d6000fd5b505050507f7a3794cf7d311106018524dfd41878138e4264f1bee18e53f1c180a1627fa2b883604051610ab191815260200190565b60405180910390a1505050565b6000546001600160a01b03163314610b065760405162461bcd60e51b815260206004820181905260248201526000805160206142d483398151915260448201526064016106ed565b600855565b6000546001600160a01b03163314610b535760405162461bcd60e51b815260206004820181905260248201526000805160206142d483398151915260448201526064016106ed565b600054600160a01b900460ff1615610ba05760405162461bcd60e51b815260206004820152601060248201526f14185d5cd8589b194e881c185d5cd95960821b60448201526064016106ed565b600c54600154610bbd916001600160a01b039091169083906135e3565b506000600c55565b6000546001600160a01b03163314610c0d5760405162461bcd60e51b815260206004820181905260248201526000805160206142d483398151915260448201526064016106ed565b60008111610c5d5760405162461bcd60e51b815260206004820152601860248201527f4d7573742073656c6c206d6f7265207468616e207a65726f000000000000000060448201526064016106ed565b60048054600a546040517ff5a4162700000000000000000000000000000000000000000000000000000000815292830184905260248301526001600160a01b03169063f5a4162790604401600060405180830381600087803b158015610cc257600080fd5b505af1158015610cd6573d6000803e3d6000fd5b505050507fc3085fd698c0021cf2ad330617df928819e049637665217c5e7757452f991d3181604051610d0b91815260200190565b60405180910390a150565b60008054600160a01b900460ff1615610d645760405162461bcd60e51b815260206004820152601060248201526f14185d5cd8589b194e881c185d5cd95960821b60448201526064016106ed565b600054600160a81b900460ff16610dcc5760405162461bcd60e51b815260206004820152602660248201527f5661756c7420686173206e6f7420737461727420616363657074696e67206465604482015265706f7369747360d01b60648201526084016106ed565b610dd63383613674565b600254610ded906001600160a01b031633846135e3565b5060015b919050565b6000546001600160a01b03163314610e3e5760405162461bcd60e51b815260206004820181905260248201526000805160206142d483398151915260448201526064016106ed565b600054600160a01b900460ff16610e8e5760405162461bcd60e51b815260206004820152601460248201527314185d5cd8589b194e881b9bdd081c185d5cd95960621b60448201526064016106ed565b610e966137d3565b565b60008054600160a01b900460ff1615610ee65760405162461bcd60e51b815260206004820152601060248201526f14185d5cd8589b194e881c185d5cd95960821b60448201526064016106ed565b600054600160a81b900460ff16610f4e5760405162461bcd60e51b815260206004820152602660248201527f5661756c7420686173206e6f7420737461727420616363657074696e67206465604482015265706f7369747360d01b60648201526084016106ed565b6000610f5933611587565b905082811015610fd15760405162461bcd60e51b815260206004820152602860248201527f557365722068617320636c61696d6564206d6f7265207468616e20686527732060448201527f656e7469746c656400000000000000000000000000000000000000000000000060648201526084016106ed565b6003546040516340c10f1960e01b8152336004820152602481018590526001600160a01b03909116906340c10f1990604401602060405180830381600087803b15801561101d57600080fd5b505af1158015611031573d6000803e3d6000fd5b505050506040513d601f19601f820116820180604052508101906110559190613ff2565b506110686110638285613870565b6135af565b60408051338152602081018590527f47cee97cb7acd717b3c0aa1435d004cd5b3c8c57d70dbceb4e4458bbd60e39d491015b60405180910390a150600192915050565b60008054600160a01b900460ff16156110f95760405162461bcd60e51b815260206004820152601060248201526f14185d5cd8589b194e881c185d5cd95960821b60448201526064016106ed565b600054600160a81b900460ff166111615760405162461bcd60e51b815260206004820152602660248201527f5661756c7420686173206e6f7420737461727420616363657074696e67206465604482015265706f7369747360d01b60648201526084016106ed565b6001546040516370a0823160e01b815233600482015283916001600160a01b0316906370a082319060240160206040518083038186803b1580156111a457600080fd5b505afa1580156111b8573d6000803e3d6000fd5b505050506040513d601f19601f820116820180604052508101906111dc919061402d565b10156112345760405162461bcd60e51b815260206004820152602160248201527f557365722068617320696e73756666696369656e7420737461626c6520636f696044820152603760f91b60648201526084016106ed565b600154604051636eb1769f60e11b815233600482015230602482015283916001600160a01b03169063dd62ed3e9060440160206040518083038186803b15801561127d57600080fd5b505afa158015611291573d6000803e3d6000fd5b505050506040513d601f19601f820116820180604052508101906112b5919061402d565b10156113295760405162461bcd60e51b815260206004820152603a60248201527f5573657220686173206e6f7420617070726f76656420746865207661756c742060448201527f666f722073756666696369656e7420737461626c6520636f696e00000000000060648201526084016106ed565b60006113348361083a565b9050600081116113ac5760405162461bcd60e51b815260206004820152603a60248201527f54686520616d6f756e74206f6620616c6c6f7978204455524120636f696e207460448201527f6f20676574206973206e6f74206c6172676572207468616e203000000000000060648201526084016106ed565b6004546001546113cb916001600160a01b03918216913391168661387c565b6002546040516340c10f1960e01b8152336004820152602481018390526001600160a01b03909116906340c10f1990604401602060405180830381600087803b15801561141757600080fd5b505af115801561142b573d6000803e3d6000fd5b505050506040513d601f19601f8201168201806040525081019061144f9190613ff2565b50600154604080516001600160a01b03909216825233602083015281018290527fa4f358c78f73b2049a06e0436c6728292334862a6fc2114f2de13f9cff58491f9060600160405180910390a160408051338152602081018390527f0f6798a560793a54c3bcfe86a93cde1e73087d944c0ea20544137d4121396885910161109a565b600080805b60055481101561152f5761151b611514600583815481106114fa576114fa6142a7565b6000918252602090912001546001600160a01b0316611587565b83906138d3565b91508061152781614276565b9150506114d7565b50919050565b6000546001600160a01b0316331461157d5760405162461bcd60e51b815260206004820181905260248201526000805160206142d483398151915260448201526064016106ed565b610e9660006138df565b604080518082018252600080825260209182018190526001600160a01b0384168152600682528281208351808501909452805484526001015491830191909152906115d18161393c565b6001600160a01b0384166000908152600760205260409020546115f491906140ef565b9392505050565b6000546001600160a01b031633146116435760405162461bcd60e51b815260206004820181905260248201526000805160206142d483398151915260448201526064016106ed565b600a55565b6000546001600160a01b031633146116905760405162461bcd60e51b815260206004820181905260248201526000805160206142d483398151915260448201526064016106ed565b600054600160a01b900460ff166116e05760405162461bcd60e51b815260206004820152601460248201527314185d5cd8589b194e881b9bdd081c185d5cd95960621b60448201526064016106ed565b6001546040516370a0823160e01b81523060048201526001600160a01b03909116906370a082319060240160206040518083038186803b15801561172357600080fd5b505afa158015611737573d6000803e3d6000fd5b505050506040513d601f19601f8201168201806040525081019061175b919061402d565b156117a85760405162461bcd60e51b815260206004820181905260248201527f42616c616e6365206f6620737461626c6520636f696e206d757374206265203060448201526064016106ed565b6000546001600160a01b031680ff5b6000546001600160a01b031633146117ff5760405162461bcd60e51b815260206004820181905260248201526000805160206142d483398151915260448201526064016106ed565b600054600160a01b900460ff161561184c5760405162461bcd60e51b815260206004820152601060248201526f14185d5cd8589b194e881c185d5cd95960821b60448201526064016106ed565b610e96613979565b600080546001600160a01b0316331461189d5760405162461bcd60e51b815260206004820181905260248201526000805160206142d483398151915260448201526064016106ed565b600054600160a81b900460ff161561191d5760405162461bcd60e51b815260206004820152602a60248201527f5661756c742068617320616c726561647920737461727420616363657074696e60448201527f67206465706f736974730000000000000000000000000000000000000000000060648201526084016106ed565b6000611927613036565b90506000811161199f5760405162461bcd60e51b815260206004820152602b60248201527f5661756c74206d757374206861766520706f7369746976652076616c7565206260448201527f65666f726520737461727400000000000000000000000000000000000000000060648201526084016106ed565b6002546001600160a01b03166340c10f19306119ce6119bc613a01565b6108df6119c7613a0f565b87906135cb565b6040516001600160e01b031960e085901b1681526001600160a01b0390921660048301526024820152604401602060405180830381600087803b158015611a1457600080fd5b505af1158015611a28573d6000803e3d6000fd5b505050506040513d601f19601f82011682018060405250810190611a4c9190613ff2565b5050600080547fffffffffffffffffffff00ffffffffffffffffffffffffffffffffffffffffff16600160a81b17905550600190565b6000546001600160a01b03163314611aca5760405162461bcd60e51b815260206004820181905260248201526000805160206142d483398151915260448201526064016106ed565b60008111611b1a5760405162461bcd60e51b815260206004820152601b60248201527f4d757374206465706f736974206d6f7265207468616e207a65726f000000000060448201526064016106ed565b600480546040517f8f2da01d0000000000000000000000000000000000000000000000000000000081529182018390526001600160a01b031690638f2da01d90602401600060405180830381600087803b158015611b7757600080fd5b505af1158015611b8b573d6000803e3d6000fd5b505050507fd483110686f79d1f5932d32add1024998649ddca927700b75bea458b4cb7cde681604051610d0b91815260200190565b6000546001600160a01b03163314611c085760405162461bcd60e51b815260206004820181905260248201526000805160206142d483398151915260448201526064016106ed565b600955565b6000546001600160a01b03163314611c555760405162461bcd60e51b815260206004820181905260248201526000805160206142d483398151915260448201526064016106ed565b600480546040517fe1f21c670000000000000000000000000000000000000000000000000000000081526001600160a01b038681169382019390935284831660248201526044810184905291169063e1f21c6790606401600060405180830381600087803b158015611cc657600080fd5b505af1158015611cda573d6000803e3d6000fd5b50505050505050565b60008054600160a01b900460ff1615611d315760405162461bcd60e51b815260206004820152601060248201526f14185d5cd8589b194e881c185d5cd95960821b60448201526064016106ed565b600054600160a81b900460ff16611d995760405162461bcd60e51b815260206004820152602660248201527f5661756c7420686173206e6f7420737461727420616363657074696e67206465604482015265706f7369747360d01b60648201526084016106ed565b611da33383613a1d565b600254610ded906001600160a01b031633308561387c565b60008054600160a01b900460ff1615611e095760405162461bcd60e51b815260206004820152601060248201526f14185d5cd8589b194e881c185d5cd95960821b60448201526064016106ed565b600054600160a81b900460ff16611e715760405162461bcd60e51b815260206004820152602660248201527f5661756c7420686173206e6f7420737461727420616363657074696e67206465604482015265706f7369747360d01b60648201526084016106ed565b6003546040516370a0823160e01b815233600482015283916001600160a01b0316906370a082319060240160206040518083038186803b158015611eb457600080fd5b505afa158015611ec8573d6000803e3d6000fd5b505050506040513d601f19601f82011682018060405250810190611eec919061402d565b1015611f605760405162461bcd60e51b815260206004820152603d60248201527f42616c616e6365206f662063726f776e20636f696e206d757374206265206c6160448201527f72676572207468616e2074686520616d6f756e7420746f20636c61696d00000060648201526084016106ed565b6004546001600160a01b031663d848b0583384611f7b6131df565b600b546040516001600160e01b031960e087901b1681526001600160a01b039094166004850152602484019290925260448301526064820152608401600060405180830381600087803b158015611fd157600080fd5b505af1158015611fe5573d6000803e3d6000fd5b5050600354604051632770a7eb60e21b8152336004820152602481018690526001600160a01b039091169250639dc29fac9150604401602060405180830381600087803b15801561203557600080fd5b505af1158015612049573d6000803e3d6000fd5b505050506040513d601f19601f8201168201806040525081019061206d9190613ff2565b5060408051338152602081018490527f619caafabdd75649b302ba8419e48cccf64f37f1983ac4727cfb38b57703ffc9910160405180910390a1506001919050565b60008054600160a01b900460ff16156120fd5760405162461bcd60e51b815260206004820152601060248201526f14185d5cd8589b194e881c185d5cd95960821b60448201526064016106ed565b600054600160a81b900460ff166121655760405162461bcd60e51b815260206004820152602660248201527f5661756c7420686173206e6f7420737461727420616363657074696e67206465604482015265706f7369747360d01b60648201526084016106ed565b600480546040517fe7e808e60000000000000000000000000000000000000000000000000000000081526001600160a01b0386811693820193909352336024820152604481018590526000929091169063e7e808e690606401602060405180830381600087803b1580156121d857600080fd5b505af11580156121ec573d6000803e3d6000fd5b505050506040513d601f19601f82011682018060405250810190612210919061402d565b600480546040517f42842e0e00000000000000000000000000000000000000000000000000000000815233928101929092526001600160a01b03908116602483015260448201869052919250908516906342842e0e90606401600060405180830381600087803b15801561228357600080fd5b505af1158015612297573d6000803e3d6000fd5b5050600480546040517f196b54430000000000000000000000000000000000000000000000000000000081523392810192909252602482018590526001600160a01b0316925063196b54439150604401600060405180830381600087803b15801561230157600080fd5b505af1158015612315573d6000803e3d6000fd5b5050604080516001600160a01b03881681523360208201529081018690527fc7e8b1bdbecdc8a549557efb2a2ab715cff51630caead31610000019e61dfa4b9250606001905060405180910390a160019150505b92915050565b6000546001600160a01b031633146123b75760405162461bcd60e51b815260206004820181905260248201526000805160206142d483398151915260448201526064016106ed565b6002805473ffffffffffffffffffffffffffffffffffffffff19166001600160a01b0392909216919091179055565b60008054600160a01b900460ff16156124345760405162461bcd60e51b815260206004820152601060248201526f14185d5cd8589b194e881c185d5cd95960821b60448201526064016106ed565b600054600160a81b900460ff1661249c5760405162461bcd60e51b815260206004820152602660248201527f5661756c7420686173206e6f7420737461727420616363657074696e67206465604482015265706f7369747360d01b60648201526084016106ed565b6002546040516370a0823160e01b815233600482015283916001600160a01b0316906370a082319060240160206040518083038186803b1580156124df57600080fd5b505afa1580156124f3573d6000803e3d6000fd5b505050506040513d601f19601f82011682018060405250810190612517919061402d565b101561256f5760405162461bcd60e51b815260206004820152602160248201527f557365722068617320696e73756666696369656e7420616c6c6f797820636f696044820152603760f91b60648201526084016106ed565b600254604051636eb1769f60e11b815233600482015230602482015283916001600160a01b03169063dd62ed3e9060440160206040518083038186803b1580156125b857600080fd5b505afa1580156125cc573d6000803e3d6000fd5b505050506040513d601f19601f820116820180604052508101906125f0919061402d565b10156126645760405162461bcd60e51b815260206004820152603a60248201527f5573657220686173206e6f7420617070726f76656420746865207661756c742060448201527f666f722073756666696369656e7420616c6c6f797820636f696e00000000000060648201526084016106ed565b600061266f83613277565b9050600061268d60646108df600954856135cb90919063ffffffff16565b9050600082116127055760405162461bcd60e51b815260206004820152603560248201527f54686520616d6f756e74206f6620737461626c6520636f696e20746f2067657460448201527f206973206e6f74206c6172676572207468616e2030000000000000000000000060648201526084016106ed565b6001546040516370a0823160e01b815230600482015283916001600160a01b0316906370a082319060240160206040518083038186803b15801561274857600080fd5b505afa15801561275c573d6000803e3d6000fd5b505050506040513d601f19601f82011682018060405250810190612780919061402d565b10156127f45760405162461bcd60e51b815260206004820152602e60248201527f546865207661756c7420646f6573206e6f74206861766520737566666963696560448201527f6e7420737461626c6520636f696e00000000000000000000000000000000000060648201526084016106ed565b600254604051632770a7eb60e21b8152336004820152602481018690526001600160a01b0390911690639dc29fac90604401602060405180830381600087803b15801561284057600080fd5b505af1158015612854573d6000803e3d6000fd5b505050506040513d601f19601f820116820180604052508101906128789190613ff2565b5061289a336128878484613870565b6001546001600160a01b031691906135e3565b600c546128a790826138d3565b600c55600254604080516001600160a01b03909216825233602083015281018590527f53fee901a59b4d2e659e450f8db17fc345e158fe408d2b39faf66d1f8c4a54fe9060600160405180910390a160408051338152602081018690527fcc16f5dbb4873280815c1ee09dbd06736cffcc184412cf7a71a0fdb75d397ca5910160405180910390a15060019392505050565b6000546001600160a01b031633146129815760405162461bcd60e51b815260206004820181905260248201526000805160206142d483398151915260448201526064016106ed565b600b55565b60008054600160a01b900460ff16156129d45760405162461bcd60e51b815260206004820152601060248201526f14185d5cd8589b194e881c185d5cd95960821b60448201526064016106ed565b600054600160a81b900460ff16612a3c5760405162461bcd60e51b815260206004820152602660248201527f5661756c7420686173206e6f7420737461727420616363657074696e67206465604482015265706f7369747360d01b60648201526084016106ed565b6001546040516370a0823160e01b815233600482015283916001600160a01b0316906370a082319060240160206040518083038186803b158015612a7f57600080fd5b505afa158015612a93573d6000803e3d6000fd5b505050506040513d601f19601f82011682018060405250810190612ab7919061402d565b1015612b0f5760405162461bcd60e51b815260206004820152602160248201527f557365722068617320696e73756666696369656e7420737461626c6520636f696044820152603760f91b60648201526084016106ed565b600154604051636eb1769f60e11b815233600482015230602482015283916001600160a01b03169063dd62ed3e9060440160206040518083038186803b158015612b5857600080fd5b505afa158015612b6c573d6000803e3d6000fd5b505050506040513d601f19601f82011682018060405250810190612b90919061402d565b1015612c045760405162461bcd60e51b815260206004820152603a60248201527f5573657220686173206e6f7420617070726f76656420746865207661756c742060448201527f666f722073756666696369656e7420737461626c6520636f696e00000000000060648201526084016106ed565b6000612c0f8361083a565b905060008111612c875760405162461bcd60e51b815260206004820152603a60248201527f54686520616d6f756e74206f6620616c6c6f7978204455524120636f696e207460448201527f6f20676574206973206e6f74206c6172676572207468616e203000000000000060648201526084016106ed565b600154612c9f906001600160a01b031633308661387c565b6002546040516340c10f1960e01b8152306004820152602481018390526001600160a01b03909116906340c10f1990604401602060405180830381600087803b158015612ceb57600080fd5b505af1158015612cff573d6000803e3d6000fd5b505050506040513d601f19601f82011682018060405250810190612d239190613ff2565b50612d2e3382613a1d565b600154604080516001600160a01b03909216825233602083015281018290527fa4f358c78f73b2049a06e0436c6728292334862a6fc2114f2de13f9cff58491f9060600160405180910390a160408051308152602081018390527f0f6798a560793a54c3bcfe86a93cde1e73087d944c0ea20544137d4121396885910161109a565b6000546001600160a01b03163314612df85760405162461bcd60e51b815260206004820181905260248201526000805160206142d483398151915260448201526064016106ed565b600054600160a01b900460ff16612e485760405162461bcd60e51b815260206004820152601460248201527314185d5cd8589b194e881b9bdd081c185d5cd95960621b60448201526064016106ed565b60025460405163f2fde38b60e01b81526001600160a01b0383811660048301529091169063f2fde38b90602401600060405180830381600087803b158015612e8f57600080fd5b505af1158015612ea3573d6000803e3d6000fd5b505060035460405163f2fde38b60e01b81526001600160a01b038581166004830152909116925063f2fde38b9150602401600060405180830381600087803b158015612eee57600080fd5b505af1158015612f02573d6000803e3d6000fd5b5050505050565b6000546001600160a01b03163314612f515760405162461bcd60e51b815260206004820181905260248201526000805160206142d483398151915260448201526064016106ed565b600054600160a01b900460ff16612fa15760405162461bcd60e51b815260206004820152601460248201527314185d5cd8589b194e881b9bdd081c185d5cd95960621b60448201526064016106ed565b6040516370a0823160e01b81523060048201526000906001600160a01b038416906370a082319060240160206040518083038186803b158015612fe357600080fd5b505afa158015612ff7573d6000803e3d6000fd5b505050506040513d601f19601f8201168201806040525081019061301b919061402d565b90506130316001600160a01b03841683836135e3565b505050565b6000806130d0600460009054906101000a90046001600160a01b03166001600160a01b031663531d7dec6040518163ffffffff1660e01b815260040160206040518083038186803b15801561308a57600080fd5b505afa15801561309e573d6000803e3d6000fd5b505050506040513d601f19601f820116820180604052508101906130c2919061402d565b6130ca613a94565b906138d3565b9050600c54811161316f5760405162461bcd60e51b815260206004820152604a60248201527f7468652076616c7565206f66207661756c74206973206e6f74206c617267657260448201527f207468616e20726564656d7074696f6e206665652c20736f6d657468696e672060648201527f77656e742077726f6e6700000000000000000000000000000000000000000000608482015260a4016106ed565b600c5460048054604080517f531d7dec00000000000000000000000000000000000000000000000000000000815290516131d994936131d3936001600160a01b03169263531d7dec9281830192602092829003018186803b15801561308a57600080fd5b90613870565b91505090565b6000613272600360009054906101000a90046001600160a01b03166001600160a01b03166318160ddd6040518163ffffffff1660e01b815260040160206040518083038186803b15801561323257600080fd5b505afa158015613246573d6000803e3d6000fd5b505050506040513d601f19601f8201168201806040525081019061326a919061402d565b6130ca6114d2565b905090565b600080600260009054906101000a90046001600160a01b03166001600160a01b03166318160ddd6040518163ffffffff1660e01b815260040160206040518083038186803b1580156132c857600080fd5b505afa1580156132dc573d6000803e3d6000fd5b505050506040513d601f19601f82011682018060405250810190613300919061402d565b9050600061330c613036565b90506108e5826108df86846135cb565b60008060005b60055481101561337b576005818154811061333f5761333f6142a7565b6000918252602090912001546001600160a01b038581169116141561336957600194909350915050565b6133746001826140ef565b9050613322565b50600093849350915050565b6000546001600160a01b031633146133cf5760405162461bcd60e51b815260206004820181905260248201526000805160206142d483398151915260448201526064016106ed565b6000821161341f5760405162461bcd60e51b815260206004820152601860248201527f4d7573742073656c6c206d6f7265207468616e207a65726f000000000000000060448201526064016106ed565b60048054600a546040517f93af90a9000000000000000000000000000000000000000000000000000000008152928301869052602483018590526001600160a01b038481166044850152606484019190915216906393af90a990608401600060405180830381600087803b15801561349657600080fd5b505af11580156134aa573d6000803e3d6000fd5b505050507fc3085fd698c0021cf2ad330617df928819e049637665217c5e7757452f991d3182604051610ab191815260200190565b6000546001600160a01b031633146135275760405162461bcd60e51b815260206004820181905260248201526000805160206142d483398151915260448201526064016106ed565b6001600160a01b0381166135a35760405162461bcd60e51b815260206004820152602660248201527f4f776e61626c653a206e6577206f776e657220697320746865207a65726f206160448201527f646472657373000000000000000000000000000000000000000000000000000060648201526084016106ed565b6135ac816138df565b50565b6135b96000613b10565b33600090815260076020526040902055565b60006115f48284614214565b60006115f48284614107565b6040516001600160a01b0383166024820152604481018290526130319084907fa9059cbb00000000000000000000000000000000000000000000000000000000906064015b60408051601f198184030181529190526020810180517bffffffffffffffffffffffffffffffffffffffffffffffffffffffff166001600160e01b031990931692909217909152613b77565b604080518082018252600080825260209182018190526001600160a01b038516815260068252829020825180840190935280548352600101549082015281905110156137285760405162461bcd60e51b815260206004820152602660248201527f557365722068617320696e73756666696369656e74206475726120636f696e2060448201527f7374616b6564000000000000000000000000000000000000000000000000000060648201526084016106ed565b6001600160a01b03821660009081526006602052604090205461374e5761374e82613c5c565b6001600160a01b0382166000908152600660205260409020613771908390613ccc565b6040805180820182526001600160a01b038416600090815260066020529190912054819061379f9084613870565b8152426020918201526001600160a01b03909316600090815260068452604090208151815592015160019092019190915550565b600054600160a01b900460ff166138235760405162461bcd60e51b815260206004820152601460248201527314185d5cd8589b194e881b9bdd081c185d5cd95960621b60448201526064016106ed565b6000805460ff60a01b191690557f5db9ee0a495bf2e6ff9c91a7834c1ba4fdd244a5e8aa4e537bd38aeae4b073aa335b6040516001600160a01b03909116815260200160405180910390a1565b60006115f48284614233565b6040516001600160a01b03808516602483015283166044820152606481018290526138cd9085907f23b872dd0000000000000000000000000000000000000000000000000000000090608401613628565b50505050565b60006115f482846140ef565b600080546001600160a01b0383811673ffffffffffffffffffffffffffffffffffffffff19831681178455604051919092169283917f8be0079c531659141344cd1fd0a4f28419497f9722a3daafe3b4186f6b6457e09190a35050565b60006123696301e133806108df60646108df60085461397361396b89602001514261387090919063ffffffff16565b8951906135cb565b906135cb565b600054600160a01b900460ff16156139c65760405162461bcd60e51b815260206004820152601060248201526f14185d5cd8589b194e881c185d5cd95960821b60448201526064016106ed565b6000805460ff60a01b1916600160a01b1790557f62e78cea01bee320cd4e420270b5ea74000d11b0c9f74754ebdbfc544b05a2586138533390565b60006132726006600a61416c565b60006132726012600a61416c565b6001600160a01b038216600090815260066020526040902054613a4357613a4382613c5c565b6001600160a01b0382166000908152600660205260409020613a66908390613ccc565b6040805180820182526001600160a01b038416600090815260066020529190912054819061379f90846138d3565b6001546040516370a0823160e01b81523060048201526000916001600160a01b0316906370a082319060240160206040518083038186803b158015613ad857600080fd5b505afa158015613aec573d6000803e3d6000fd5b505050506040513d601f19601f82011682018060405250810190613272919061402d565b33600090815260066020526040902054613b2d57613b2d33613c5c565b336000818152600660205260409020613b469190613ccc565b6040805180820182529182524260208084019182523360009081526006909152919091209151825551600190910155565b6000613bcc826040518060400160405280602081526020017f5361666545524332303a206c6f772d6c6576656c2063616c6c206661696c6564815250856001600160a01b0316613d379092919063ffffffff16565b8051909150156130315780806020019051810190613bea9190613ff2565b6130315760405162461bcd60e51b815260206004820152602a60248201527f5361666545524332303a204552433230206f7065726174696f6e20646964206e60448201527f6f7420737563636565640000000000000000000000000000000000000000000060648201526084016106ed565b6000613c678261331c565b50905080613cc857600580546001810182556000919091527f036b6384b5eca791c62761152d0c79bb0604c104a5fb6f4eb0703f3154bb3db001805473ffffffffffffffffffffffffffffffffffffffff19166001600160a01b0384161790555b5050565b604080518082019091528154815260018201546020820152600090613cf09061393c565b6001600160a01b038416600090815260076020526040902054909150613d1690826138d3565b6001600160a01b039093166000908152600760205260409020929092555050565b60606108e58484600085856001600160a01b0385163b613d995760405162461bcd60e51b815260206004820152601d60248201527f416464726573733a2063616c6c20746f206e6f6e2d636f6e747261637400000060448201526064016106ed565b600080866001600160a01b03168587604051613db591906140a0565b60006040518083038185875af1925050503d8060008114613df2576040519150601f19603f3d011682016040523d82523d6000602084013e613df7565b606091505b5091509150613e07828286613e12565b979650505050505050565b60608315613e215750816115f4565b825115613e315782518084602001fd5b8160405162461bcd60e51b81526004016106ed91906140bc565b80356001600160a01b0381168114610df157600080fd5b600060208284031215613e7457600080fd5b6115f482613e4b565b60008060408385031215613e9057600080fd5b613e9983613e4b565b9150613ea760208401613e4b565b90509250929050565b600080600060608486031215613ec557600080fd5b613ece84613e4b565b9250613edc60208501613e4b565b9150604084013590509250925092565b60008060008060808587031215613f0257600080fd5b613f0b85613e4b565b9350613f1960208601613e4b565b925060408501359150606085013567ffffffffffffffff80821115613f3d57600080fd5b818701915087601f830112613f5157600080fd5b813581811115613f6357613f636142bd565b604051601f8201601f19908116603f01168101908382118183101715613f8b57613f8b6142bd565b816040528281528a6020848701011115613fa457600080fd5b82602086016020830137600060208483010152809550505050505092959194509250565b60008060408385031215613fdb57600080fd5b613fe483613e4b565b946020939093013593505050565b60006020828403121561400457600080fd5b815180151581146115f457600080fd5b60006020828403121561402657600080fd5b5035919050565b60006020828403121561403f57600080fd5b5051919050565b60008060006060848603121561405b57600080fd5b83359250613edc60208501613e4b565b60008060006060848603121561408057600080fd5b833592506020840135915061409760408501613e4b565b90509250925092565b600082516140b281846020870161424a565b9190910192915050565b60208152600082518060208401526140db81604085016020870161424a565b601f01601f19169190910160400192915050565b6000821982111561410257614102614291565b500190565b60008261412457634e487b7160e01b600052601260045260246000fd5b500490565b600181815b8085111561416457816000190482111561414a5761414a614291565b8085161561415757918102915b93841c939080029061412e565b509250929050565b60006115f4838360008261418257506001612369565b8161418f57506000612369565b81600181146141a557600281146141af576141cb565b6001915050612369565b60ff8411156141c0576141c0614291565b50506001821b612369565b5060208310610133831016604e8410600b84101617156141ee575081810a612369565b6141f88383614129565b806000190482111561420c5761420c614291565b029392505050565b600081600019048311821515161561422e5761422e614291565b500290565b60008282101561424557614245614291565b500390565b60005b8381101561426557818101518382015260200161424d565b838111156138cd5750506000910152565b600060001982141561428a5761428a614291565b5060010190565b634e487b7160e01b600052601160045260246000fd5b634e487b7160e01b600052603260045260246000fd5b634e487b7160e01b600052604160045260246000fdfe4f776e61626c653a2063616c6c6572206973206e6f7420746865206f776e6572a264697066735822122089246aac15a8f38c6719252eda68c85400bb8078aaecfc4e6cdc2dd88fde37ca64736f6c63430008070033",
  "devdoc": {
    "author": "AlloyX",
    "kind": "dev",
    "methods": {
      "alloyxDURAToUSDC(uint256)": {
        "params": {
          "_amount": "the amount of DURA token to convert to usdc"
        }
      },
      "approveDelegacy(address,address,uint256)": {
        "params": {
          "_account": "the account the delegacy going to approve",
          "_amount": "the amount the delegacy going to approve",
          "_tokenAddress": "the leftover reward the staker owns"
        }
      },
      "changeAlloyxDURAAddress(address)": {
        "params": {
          "_alloyxAddress": "the address to change to"
        }
      },
      "claimAlloyxCRWN(uint256)": {
        "params": {
          "_amount": "the amount to claim"
        }
      },
      "claimReward(uint256)": {
        "params": {
          "_amount": "the amount to claim"
        }
      },
      "claimableCRWNToken(address)": {
        "params": {
          "_receiver": "the address of receiver"
        }
      },
      "depositAlloyxDURATokens(uint256)": {
        "params": {
          "_tokenAmount": "Number of Alloy Tokens"
        }
      },
      "depositNFTToken(address,uint256)": {
        "params": {
          "_tokenAddress": "NFT Address",
          "_tokenID": "NFT ID"
        }
      },
      "depositUSDCCoin(uint256)": {
        "params": {
          "_tokenAmount": "Number of stable coin"
        }
      },
      "depositUSDCCoinWithStake(uint256)": {
        "params": {
          "_tokenAmount": "Number of stable coin"
        }
      },
      "isStakeholder(address)": {
        "params": {
          "_address": "The address to verify."
        },
        "returns": {
          "_0": "bool, uint256 Whether the address is a stakeholder, and if so its position in the stakeholders array."
        }
      },
      "migrateERC20(address,address)": {
        "params": {
          "_to": "the address to transfer tokens to",
          "_tokenAddress": "the token address to migrate"
        }
      },
      "onERC721Received(address,address,uint256,bytes)": {
        "details": "See {IERC721Receiver-onERC721Received}. Always returns `IERC721Receiver.onERC721Received.selector`."
      },
      "owner()": {
        "details": "Returns the address of the current owner."
      },
      "paused()": {
        "details": "Returns true if the contract is paused, and false otherwise."
      },
      "purchaseJuniorToken(uint256,address,uint256)": {
        "params": {
          "_amount": "the amount of usdc to purchase by",
          "_poolAddress": "the pool address to buy from",
          "_tranche": "the tranch id"
        }
      },
      "purchaseSeniorTokens(uint256)": {
        "params": {
          "_amount": "the amount of usdc to purchase by"
        }
      },
      "renounceOwnership()": {
        "details": "Leaves the contract without owner. It will not be possible to call `onlyOwner` functions anymore. Can only be called by the current owner. NOTE: Renouncing ownership will leave the contract without an owner, thereby removing any functionality that is only available to the owner."
      },
      "sellJuniorToken(uint256,uint256,address)": {
        "params": {
          "_amount": "the amount to withdraw",
          "_poolAddress": "the pool address to withdraw from",
          "_tokenId": "the ID of token to sell"
        }
      },
      "sellSeniorTokens(uint256)": {
        "params": {
          "_amount": "the amount of fidu to sell"
        }
      },
      "setPercentageCRWNEarning(uint256)": {
        "params": {
          "_percentageCRWNEarning": "the earning fee for redeeming CRWN token in percentage in terms of gfi"
        }
      },
      "setPercentageDURARedemption(uint256)": {
        "params": {
          "_percentageDURARedemption": "the redemption fee for DURA token in percentage"
        }
      },
      "setPercentageDURARepayment(uint256)": {
        "params": {
          "_percentageDURARepayment": "the repayment fee for DURA token in percentage"
        }
      },
      "setPercentageRewardPerYear(uint256)": {
        "params": {
          "_percentageRewardPerYear": "the reward per year in percentage"
        }
      },
      "stake(uint256)": {
        "params": {
          "_amount": "the amount the message sender intending to stake in"
        }
      },
      "stakeOf(address)": {
        "params": {
          "_stakeholder": "The stakeholder to retrieve the stake for."
        },
        "returns": {
          "_0": "Stake The amount staked and the time since when it's staked."
        }
      },
      "transferAlloyxOwnership(address)": {
        "params": {
          "_to": "the address to transfer ownership to"
        }
      },
      "transferOwnership(address)": {
        "details": "Transfers ownership of the contract to a new account (`newOwner`). Can only be called by the current owner."
      },
      "transferRedemptionFee(address)": {
        "params": {
          "_to": "the address to transfer to"
        }
      },
      "unstake(uint256)": {
        "params": {
          "_amount": "the amount the message sender intending to unstake"
        }
      },
      "usdcToAlloyxDURA(uint256)": {
        "params": {
          "_amount": "the amount of usdc to convert to DURA token"
        }
      }
    },
    "title": "AlloyX Vault",
    "version": 1
  },
  "userdoc": {
    "kind": "user",
    "methods": {
      "alloyxDURAToUSDC(uint256)": {
        "notice": "Convert Alloyx DURA to USDC amount"
      },
      "approveDelegacy(address,address,uint256)": {
        "notice": "Request the delegacy to approve certain tokens on certain account for certain amount, it is most used for buying the goldfinch tokens, they need to be able to transfer usdc to them"
      },
      "changeAlloyxDURAAddress(address)": {
        "notice": "Change DURA token address"
      },
      "claimAllAlloyxCRWN()": {
        "notice": "Claim all alloy CRWN tokens of the message sender, the method will mint the CRWN token of the claimable amount to message sender, and clear the past rewards to zero"
      },
      "claimAlloyxCRWN(uint256)": {
        "notice": "Claim certain amount of alloy CRWN tokens of the message sender, the method will mint the CRWN token of the claimable amount to message sender, and clear the past rewards to the remainder"
      },
      "claimReward(uint256)": {
        "notice": "Claim certain amount of reward token based on alloy CRWN token, the method will burn the CRWN token of the amount of message sender, and transfer reward token to message sender"
      },
      "claimableCRWNToken(address)": {
        "notice": "Claimable CRWN token amount of an address"
      },
      "depositAlloyxDURATokens(uint256)": {
        "notice": "An Alloy token holder can deposit their tokens and redeem them for USDC"
      },
      "depositNFTToken(address,uint256)": {
        "notice": "A Junior token holder can deposit their NFT for stable coin"
      },
      "depositUSDCCoin(uint256)": {
        "notice": "A Liquidity Provider can deposit supported stable coins for Alloy Tokens"
      },
      "depositUSDCCoinWithStake(uint256)": {
        "notice": "A Liquidity Provider can deposit supported stable coins for Alloy Tokens"
      },
      "destroy()": {
        "notice": "Destroy the contract"
      },
      "getAlloyxDURATokenBalanceInUSDC()": {
        "notice": "Alloy DURA Token Value in terms of USDC"
      },
      "isStakeholder(address)": {
        "notice": "Check if an address is a stakeholder."
      },
      "migrateERC20(address,address)": {
        "notice": "Migrate certain ERC20 to an address"
      },
      "pause()": {
        "notice": "Pause all operations except migration of tokens"
      },
      "purchaseJuniorToken(uint256,address,uint256)": {
        "notice": "Purchase junior token through delegacy to get pooltoken inside the delegacy"
      },
      "purchaseSeniorTokens(uint256)": {
        "notice": "Purchase senior token through delegacy to get fidu inside the delegacy"
      },
      "sellJuniorToken(uint256,uint256,address)": {
        "notice": "Sell junior token through delegacy to get repayments"
      },
      "sellSeniorTokens(uint256)": {
        "notice": "Sell senior token through delegacy to redeem fidu"
      },
      "setPercentageCRWNEarning(uint256)": {
        "notice": "Set percentageCRWNEarning which is the earning fee for redeeming CRWN token in percentage in terms of gfi"
      },
      "setPercentageDURARedemption(uint256)": {
        "notice": "Set percentageDURARedemption which is the redemption fee for DURA token in percentage"
      },
      "setPercentageDURARepayment(uint256)": {
        "notice": "Set percentageDURARepayment which is the repayment fee for DURA token in percentage"
      },
      "setPercentageRewardPerYear(uint256)": {
        "notice": "Set percentageRewardPerYear which is the reward per year in percentage"
      },
      "stake(uint256)": {
        "notice": "Stake more into the vault, which will cause the user's DURA token to transfer to vault"
      },
      "stakeOf(address)": {
        "notice": "Retrieve the stake for a stakeholder."
      },
      "startVaultOperation()": {
        "notice": "Initialize by minting the alloy brown tokens to owner"
      },
      "totalClaimableAndClaimedCRWNToken()": {
        "notice": "Total claimable and claimed CRWN tokens of all stakeholders"
      },
      "totalClaimableCRWNToken()": {
        "notice": "Total claimable CRWN tokens of all stakeholders"
      },
      "transferAlloyxOwnership(address)": {
        "notice": "Transfer the ownership of alloy CRWN and DURA token contract to some other address"
      },
      "transferRedemptionFee(address)": {
        "notice": "Transfer redemption fee to some other address"
      },
      "unpause()": {
        "notice": "Unpause all operations"
      },
      "unstake(uint256)": {
        "notice": "Unstake some from the vault, which will cause the vault to transfer DURA token back to message sender"
      },
      "usdcToAlloyxDURA(uint256)": {
        "notice": "Convert USDC Amount to Alloyx DURA"
      }
    },
    "notice": "Initial vault for AlloyX. This vault holds loan tokens generated on Goldfinch and emits AlloyTokens when a liquidity provider deposits supported stable coins.",
    "version": 1
  },
  "storageLayout": {
    "storage": [
      {
        "astId": 2183,
        "contract": "contracts/alloyx/v4.0/AlloyxVaultV4.0.sol:AlloyxVaultV4_0",
        "label": "_owner",
        "offset": 0,
        "slot": "0",
        "type": "t_address"
      },
      {
        "astId": 2298,
        "contract": "contracts/alloyx/v4.0/AlloyxVaultV4.0.sol:AlloyxVaultV4_0",
        "label": "_paused",
        "offset": 20,
        "slot": "0",
        "type": "t_bool"
      },
      {
        "astId": 13247,
        "contract": "contracts/alloyx/v4.0/AlloyxVaultV4.0.sol:AlloyxVaultV4_0",
        "label": "vaultStarted",
        "offset": 21,
        "slot": "0",
        "type": "t_bool"
      },
      {
        "astId": 13250,
        "contract": "contracts/alloyx/v4.0/AlloyxVaultV4.0.sol:AlloyxVaultV4_0",
        "label": "usdcCoin",
        "offset": 0,
        "slot": "1",
        "type": "t_contract(IERC20)3038"
      },
      {
        "astId": 13253,
        "contract": "contracts/alloyx/v4.0/AlloyxVaultV4.0.sol:AlloyxVaultV4_0",
        "label": "alloyxTokenDURA",
        "offset": 0,
        "slot": "2",
        "type": "t_contract(AlloyxTokenDURA)5994"
      },
      {
        "astId": 13256,
        "contract": "contracts/alloyx/v4.0/AlloyxVaultV4.0.sol:AlloyxVaultV4_0",
        "label": "alloyxTokenCRWN",
        "offset": 0,
        "slot": "3",
        "type": "t_contract(AlloyxTokenCRWN)5931"
      },
      {
        "astId": 13259,
        "contract": "contracts/alloyx/v4.0/AlloyxVaultV4.0.sol:AlloyxVaultV4_0",
        "label": "goldfinchDelegacy",
        "offset": 0,
        "slot": "4",
        "type": "t_contract(IGoldfinchDelegacy)7336"
      },
      {
        "astId": 13262,
        "contract": "contracts/alloyx/v4.0/AlloyxVaultV4.0.sol:AlloyxVaultV4_0",
        "label": "stakeholders",
        "offset": 0,
        "slot": "5",
        "type": "t_array(t_address)dyn_storage"
      },
      {
        "astId": 13267,
        "contract": "contracts/alloyx/v4.0/AlloyxVaultV4.0.sol:AlloyxVaultV4_0",
        "label": "stakesMapping",
        "offset": 0,
        "slot": "6",
        "type": "t_mapping(t_address,t_struct(StakeInfo)13245_storage)"
      },
      {
        "astId": 13271,
        "contract": "contracts/alloyx/v4.0/AlloyxVaultV4.0.sol:AlloyxVaultV4_0",
        "label": "pastRedeemableReward",
        "offset": 0,
        "slot": "7",
        "type": "t_mapping(t_address,t_uint256)"
      },
      {
        "astId": 13274,
        "contract": "contracts/alloyx/v4.0/AlloyxVaultV4.0.sol:AlloyxVaultV4_0",
        "label": "percentageRewardPerYear",
        "offset": 0,
        "slot": "8",
        "type": "t_uint256"
      },
      {
        "astId": 13277,
        "contract": "contracts/alloyx/v4.0/AlloyxVaultV4.0.sol:AlloyxVaultV4_0",
        "label": "percentageDURARedemption",
        "offset": 0,
        "slot": "9",
        "type": "t_uint256"
      },
      {
        "astId": 13280,
        "contract": "contracts/alloyx/v4.0/AlloyxVaultV4.0.sol:AlloyxVaultV4_0",
        "label": "percentageDURARepayment",
        "offset": 0,
        "slot": "10",
        "type": "t_uint256"
      },
      {
        "astId": 13283,
        "contract": "contracts/alloyx/v4.0/AlloyxVaultV4.0.sol:AlloyxVaultV4_0",
        "label": "percentageCRWNEarning",
        "offset": 0,
        "slot": "11",
        "type": "t_uint256"
      },
      {
        "astId": 13286,
        "contract": "contracts/alloyx/v4.0/AlloyxVaultV4.0.sol:AlloyxVaultV4_0",
        "label": "redemptionFee",
        "offset": 0,
        "slot": "12",
        "type": "t_uint256"
      }
    ],
    "types": {
      "t_address": {
        "encoding": "inplace",
        "label": "address",
        "numberOfBytes": "20"
      },
      "t_array(t_address)dyn_storage": {
        "base": "t_address",
        "encoding": "dynamic_array",
        "label": "address[]",
        "numberOfBytes": "32"
      },
      "t_bool": {
        "encoding": "inplace",
        "label": "bool",
        "numberOfBytes": "1"
      },
      "t_contract(AlloyxTokenCRWN)5931": {
        "encoding": "inplace",
        "label": "contract AlloyxTokenCRWN",
        "numberOfBytes": "20"
      },
      "t_contract(AlloyxTokenDURA)5994": {
        "encoding": "inplace",
        "label": "contract AlloyxTokenDURA",
        "numberOfBytes": "20"
      },
      "t_contract(IERC20)3038": {
        "encoding": "inplace",
        "label": "contract IERC20",
        "numberOfBytes": "20"
      },
      "t_contract(IGoldfinchDelegacy)7336": {
        "encoding": "inplace",
        "label": "contract IGoldfinchDelegacy",
        "numberOfBytes": "20"
      },
      "t_mapping(t_address,t_struct(StakeInfo)13245_storage)": {
        "encoding": "mapping",
        "key": "t_address",
        "label": "mapping(address => struct AlloyxVaultV4_0.StakeInfo)",
        "numberOfBytes": "32",
        "value": "t_struct(StakeInfo)13245_storage"
      },
      "t_mapping(t_address,t_uint256)": {
        "encoding": "mapping",
        "key": "t_address",
        "label": "mapping(address => uint256)",
        "numberOfBytes": "32",
        "value": "t_uint256"
      },
      "t_struct(StakeInfo)13245_storage": {
        "encoding": "inplace",
        "label": "struct AlloyxVaultV4_0.StakeInfo",
        "members": [
          {
            "astId": 13242,
            "contract": "contracts/alloyx/v4.0/AlloyxVaultV4.0.sol:AlloyxVaultV4_0",
            "label": "amount",
            "offset": 0,
            "slot": "0",
            "type": "t_uint256"
          },
          {
            "astId": 13244,
            "contract": "contracts/alloyx/v4.0/AlloyxVaultV4.0.sol:AlloyxVaultV4_0",
            "label": "since",
            "offset": 0,
            "slot": "1",
            "type": "t_uint256"
          }
        ],
        "numberOfBytes": "64"
      },
      "t_uint256": {
        "encoding": "inplace",
        "label": "uint256",
        "numberOfBytes": "32"
      }
    }
  }
}