{
  "address": "0x9F814130cac53FdCF1eC192652E4ccc792b0240d",
  "abi": [
    {
      "inputs": [
        {
          "internalType": "address",
          "name": "_alloyxBronzeAddress",
          "type": "address"
        },
        {
          "internalType": "address",
          "name": "_usdcCoinAddress",
          "type": "address"
        },
        {
          "internalType": "address",
          "name": "_fiduCoinAddress",
          "type": "address"
        },
        {
          "internalType": "address",
          "name": "_gfiCoinAddress",
          "type": "address"
        },
        {
          "internalType": "address",
          "name": "_goldFinchTokenAddress",
          "type": "address"
        },
        {
          "internalType": "address",
          "name": "_seniorPoolAddress",
          "type": "address"
        }
      ],
      "stateMutability": "nonpayable",
      "type": "constructor"
    },
    {
      "anonymous": false,
      "inputs": [
        {
          "indexed": false,
          "internalType": "address",
          "name": "_tokenReceiver",
          "type": "address"
        },
        {
          "indexed": false,
          "internalType": "uint256",
          "name": "_tokenAmount",
          "type": "uint256"
        }
      ],
      "name": "Burn",
      "type": "event"
    },
    {
      "anonymous": false,
      "inputs": [
        {
          "indexed": false,
          "internalType": "address",
          "name": "_tokenAddress",
          "type": "address"
        },
        {
          "indexed": false,
          "internalType": "address",
          "name": "_tokenSender",
          "type": "address"
        },
        {
          "indexed": false,
          "internalType": "uint256",
          "name": "_tokenAmount",
          "type": "uint256"
        }
      ],
      "name": "DepositAlloyx",
      "type": "event"
    },
    {
      "anonymous": false,
      "inputs": [
        {
          "indexed": false,
          "internalType": "address",
          "name": "_tokenAddress",
          "type": "address"
        },
        {
          "indexed": false,
          "internalType": "address",
          "name": "_tokenSender",
          "type": "address"
        },
        {
          "indexed": false,
          "internalType": "uint256",
          "name": "_tokenID",
          "type": "uint256"
        }
      ],
      "name": "DepositNFT",
      "type": "event"
    },
    {
      "anonymous": false,
      "inputs": [
        {
          "indexed": false,
          "internalType": "address",
          "name": "_tokenAddress",
          "type": "address"
        },
        {
          "indexed": false,
          "internalType": "address",
          "name": "_tokenSender",
          "type": "address"
        },
        {
          "indexed": false,
          "internalType": "uint256",
          "name": "_tokenAmount",
          "type": "uint256"
        }
      ],
      "name": "DepositStable",
      "type": "event"
    },
    {
      "anonymous": false,
      "inputs": [
        {
          "indexed": false,
          "internalType": "address",
          "name": "_tokenReceiver",
          "type": "address"
        },
        {
          "indexed": false,
          "internalType": "uint256",
          "name": "_tokenAmount",
          "type": "uint256"
        }
      ],
      "name": "Mint",
      "type": "event"
    },
    {
      "anonymous": false,
      "inputs": [
        {
          "indexed": true,
          "internalType": "address",
          "name": "previousOwner",
          "type": "address"
        },
        {
          "indexed": true,
          "internalType": "address",
          "name": "newOwner",
          "type": "address"
        }
      ],
      "name": "OwnershipTransferred",
      "type": "event"
    },
    {
      "anonymous": false,
      "inputs": [
        {
          "indexed": false,
          "internalType": "address",
          "name": "account",
          "type": "address"
        }
      ],
      "name": "Paused",
      "type": "event"
    },
    {
      "anonymous": false,
      "inputs": [
        {
          "indexed": false,
          "internalType": "uint256",
          "name": "amount",
          "type": "uint256"
        }
      ],
      "name": "PurchaseJunior",
      "type": "event"
    },
    {
      "anonymous": false,
      "inputs": [
        {
          "indexed": false,
          "internalType": "uint256",
          "name": "amount",
          "type": "uint256"
        }
      ],
      "name": "PurchaseSenior",
      "type": "event"
    },
    {
      "anonymous": false,
      "inputs": [
        {
          "indexed": false,
          "internalType": "address",
          "name": "account",
          "type": "address"
        }
      ],
      "name": "Unpaused",
      "type": "event"
    },
    {
      "inputs": [
        {
          "internalType": "uint256",
          "name": "amount",
          "type": "uint256"
        }
      ],
      "name": "USDCtoAlloyxBronze",
      "outputs": [
        {
          "internalType": "uint256",
          "name": "",
          "type": "uint256"
        }
      ],
      "stateMutability": "view",
      "type": "function"
    },
    {
      "inputs": [
        {
          "internalType": "uint256",
          "name": "amount",
          "type": "uint256"
        }
      ],
      "name": "alloyxBronzeToUSDC",
      "outputs": [
        {
          "internalType": "uint256",
          "name": "",
          "type": "uint256"
        }
      ],
      "stateMutability": "view",
      "type": "function"
    },
    {
      "inputs": [
        {
          "internalType": "address",
          "name": "_alloyxAddress",
          "type": "address"
        }
      ],
      "name": "changeAlloyxBronzeAddress",
      "outputs": [],
      "stateMutability": "nonpayable",
      "type": "function"
    },
    {
      "inputs": [
        {
          "internalType": "address",
          "name": "_poolToken",
          "type": "address"
        }
      ],
      "name": "changePoolTokenAddress",
      "outputs": [],
      "stateMutability": "nonpayable",
      "type": "function"
    },
    {
      "inputs": [
        {
          "internalType": "address",
          "name": "_seniorPool",
          "type": "address"
        }
      ],
      "name": "changeSeniorPoolAddress",
      "outputs": [],
      "stateMutability": "nonpayable",
      "type": "function"
    },
    {
      "inputs": [
        {
          "internalType": "uint256",
          "name": "_tokenAmount",
          "type": "uint256"
        }
      ],
      "name": "depositAlloyxBronzeTokens",
      "outputs": [
        {
          "internalType": "bool",
          "name": "",
          "type": "bool"
        }
      ],
      "stateMutability": "nonpayable",
      "type": "function"
    },
    {
      "inputs": [
        {
          "internalType": "address",
          "name": "_tokenAddress",
          "type": "address"
        },
        {
          "internalType": "uint256",
          "name": "_tokenID",
          "type": "uint256"
        }
      ],
      "name": "depositNFTToken",
      "outputs": [
        {
          "internalType": "bool",
          "name": "",
          "type": "bool"
        }
      ],
      "stateMutability": "nonpayable",
      "type": "function"
    },
    {
      "inputs": [
        {
          "internalType": "uint256",
          "name": "_tokenAmount",
          "type": "uint256"
        }
      ],
      "name": "depositUSDCCoin",
      "outputs": [
        {
          "internalType": "bool",
          "name": "",
          "type": "bool"
        }
      ],
      "stateMutability": "nonpayable",
      "type": "function"
    },
    {
      "inputs": [],
      "name": "destroy",
      "outputs": [],
      "stateMutability": "nonpayable",
      "type": "function"
    },
    {
      "inputs": [
        {
          "internalType": "address",
          "name": "_tokenAddress",
          "type": "address"
        },
        {
          "internalType": "uint256",
          "name": "_tokenID",
          "type": "uint256"
        }
      ],
      "name": "getJuniorTokenValue",
      "outputs": [
        {
          "internalType": "uint256",
          "name": "",
          "type": "uint256"
        }
      ],
      "stateMutability": "view",
      "type": "function"
    },
    {
      "inputs": [
        {
          "internalType": "address",
          "name": "_tokenAddress",
          "type": "address"
        },
        {
          "internalType": "uint256",
          "name": "_tokenID",
          "type": "uint256"
        }
      ],
      "name": "isValidPool",
      "outputs": [
        {
          "internalType": "bool",
          "name": "",
          "type": "bool"
        }
      ],
      "stateMutability": "view",
      "type": "function"
    },
    {
      "inputs": [
        {
          "internalType": "address payable",
          "name": "_toAddress",
          "type": "address"
        }
      ],
      "name": "migrateAllGoldfinchPoolTokens",
      "outputs": [],
      "stateMutability": "nonpayable",
      "type": "function"
    },
    {
      "inputs": [
        {
          "internalType": "address",
          "name": "_tokenAddress",
          "type": "address"
        },
        {
          "internalType": "address payable",
          "name": "_to",
          "type": "address"
        }
      ],
      "name": "migrateERC20",
      "outputs": [],
      "stateMutability": "nonpayable",
      "type": "function"
    },
    {
      "inputs": [
        {
          "internalType": "address payable",
          "name": "_to",
          "type": "address"
        }
      ],
      "name": "migrateEthers",
      "outputs": [],
      "stateMutability": "nonpayable",
      "type": "function"
    },
    {
      "inputs": [
        {
          "internalType": "address payable",
          "name": "_toAddress",
          "type": "address"
        },
        {
          "internalType": "uint256",
          "name": "_tokenId",
          "type": "uint256"
        }
      ],
      "name": "migrateGoldfinchPoolTokens",
      "outputs": [],
      "stateMutability": "nonpayable",
      "type": "function"
    },
    {
      "inputs": [
        {
          "internalType": "address",
          "name": "",
          "type": "address"
        },
        {
          "internalType": "address",
          "name": "",
          "type": "address"
        },
        {
          "internalType": "uint256",
          "name": "",
          "type": "uint256"
        },
        {
          "internalType": "bytes",
          "name": "",
          "type": "bytes"
        }
      ],
      "name": "onERC721Received",
      "outputs": [
        {
          "internalType": "bytes4",
          "name": "",
          "type": "bytes4"
        }
      ],
      "stateMutability": "nonpayable",
      "type": "function"
    },
    {
      "inputs": [],
      "name": "owner",
      "outputs": [
        {
          "internalType": "address",
          "name": "",
          "type": "address"
        }
      ],
      "stateMutability": "view",
      "type": "function"
    },
    {
      "inputs": [],
      "name": "pause",
      "outputs": [],
      "stateMutability": "nonpayable",
      "type": "function"
    },
    {
      "inputs": [],
      "name": "paused",
      "outputs": [
        {
          "internalType": "bool",
          "name": "",
          "type": "bool"
        }
      ],
      "stateMutability": "view",
      "type": "function"
    },
    {
      "inputs": [
        {
          "internalType": "uint256",
          "name": "amount",
          "type": "uint256"
        },
        {
          "internalType": "address",
          "name": "poolAddress",
          "type": "address"
        },
        {
          "internalType": "uint256",
          "name": "tranche",
          "type": "uint256"
        }
      ],
      "name": "purchaseJuniorToken",
      "outputs": [],
      "stateMutability": "nonpayable",
      "type": "function"
    },
    {
      "inputs": [
        {
          "internalType": "uint256",
          "name": "amount",
          "type": "uint256"
        },
        {
          "internalType": "address",
          "name": "poolAddress",
          "type": "address"
        }
      ],
      "name": "purchaseSeniorTokens",
      "outputs": [],
      "stateMutability": "nonpayable",
      "type": "function"
    },
    {
      "inputs": [],
      "name": "renounceOwnership",
      "outputs": [],
      "stateMutability": "nonpayable",
      "type": "function"
    },
    {
      "inputs": [],
      "name": "startVaultOperation",
      "outputs": [
        {
          "internalType": "bool",
          "name": "",
          "type": "bool"
        }
      ],
      "stateMutability": "nonpayable",
      "type": "function"
    },
    {
      "inputs": [
        {
          "internalType": "address",
          "name": "_to",
          "type": "address"
        }
      ],
      "name": "transferAlloyxOwnership",
      "outputs": [],
      "stateMutability": "nonpayable",
      "type": "function"
    },
    {
      "inputs": [
        {
          "internalType": "address",
          "name": "newOwner",
          "type": "address"
        }
      ],
      "name": "transferOwnership",
      "outputs": [],
      "stateMutability": "nonpayable",
      "type": "function"
    },
    {
      "inputs": [],
      "name": "unpause",
      "outputs": [],
      "stateMutability": "nonpayable",
      "type": "function"
    }
  ],
  "transactionHash": "0xa2c15b8b2416be16618c10007825895a6fc57faf0ebc64d73c2298703d848637",
  "args": [
    "0x7d05c20CEbFC8C8EB6ecEA396552A70d7fC1FA4f",
    "0xE44eb769116e636665918Ec6EFaE3Dd75CD624E5",
    "0xd5369Cd4A32822400A50dBdB78333F13fd7ae10d",
    "0x9E64CD0D8F0d897Aa810479d483c89549252B001",
    "0x24Dc5813843feec148a6091af47a722A7420891c",
    "0x8EBC3f878761B3039AB9edabe630B7bF5376C538"
  ],
  "numDeployments": 1,
  "solcInputHash": "86fcdda2f277e1792675f47c0313585a",
  "bytecode": "0x60806040523480156200001157600080fd5b5060405162003a0638038062003a06833981016040819052620000349162000131565b6200003f33620000c4565b60008054600580546001600160a01b03199081166001600160a01b039a8b1617909155600180548216988a16989098179097556002805488169589169590951790945560038054871695881695909517909455600480548616928716929092179091556006805490941694169390931790915561ffff60a01b199091169055620001b2565b600080546001600160a01b038381166001600160a01b0319831681178455604051919092169283917f8be0079c531659141344cd1fd0a4f28419497f9722a3daafe3b4186f6b6457e09190a35050565b80516001600160a01b03811681146200012c57600080fd5b919050565b60008060008060008060c087890312156200014b57600080fd5b620001568762000114565b9550620001666020880162000114565b9450620001766040880162000114565b9350620001866060880162000114565b9250620001966080880162000114565b9150620001a660a0880162000114565b90509295509295509295565b61384480620001c26000396000f3fe608060405234801561001057600080fd5b50600436106101ae5760003560e01c806383197ef0116100ee57806392f55abb11610097578063d8ec060811610071578063d8ec06081461039f578063d905e9b4146103b2578063df16694a146103c5578063f2fde38b146103d857600080fd5b806392f55abb14610366578063b338ad1614610379578063bb74c0581461038c57600080fd5b80638d6f4d21116100c85780638d6f4d21146103305780638da5cb5b14610338578063917f69fe1461035357600080fd5b806383197ef01461030d5780638456cb59146103155780638682caf81461031d57600080fd5b8063460408721161015b57806353c98f5a1161013557806353c98f5a146102cd5780635c975abb146102e0578063715018a6146102f257806375af1df8146102fa57600080fd5b80634604087214610286578063472e4446146102995780634f9d02c3146102ba57600080fd5b8063354d3c301161018c578063354d3c30146102485780633bb3b27e1461026b5780633f4ba83a1461027e57600080fd5b806307c0cf3d146101b3578063150b7a02146101c85780631b61eb6714610235575b600080fd5b6101c66101c13660046132c4565b6103eb565b005b6101ff6101d6366004613363565b7f150b7a0200000000000000000000000000000000000000000000000000000000949350505050565b6040517fffffffff0000000000000000000000000000000000000000000000000000000090911681526020015b60405180910390f35b6101c6610243366004613519565b610467565b61025b6102563660046132fe565b6106a8565b604051901515815260200161022c565b6101c66102793660046132c4565b6107cc565b6101c661089d565b6101c66102943660046132c4565b61093f565b6102ac6102a73660046132fe565b6109b6565b60405190815260200161022c565b6102ac6102c83660046134c2565b610b49565b61025b6102db3660046134c2565b610bfc565b600054600160a01b900460ff1661025b565b6101c6611042565b6101c66103083660046132c4565b611094565b6101c661117f565b6101c661147e565b6101c661032b3660046132c4565b61151b565b61025b611592565b6000546040516001600160a01b03909116815260200161022c565b6101c66103613660046132fe565b611763565b6102ac6103743660046134c2565b61186c565b61025b6103873660046132fe565b611911565b61025b61039a3660046134c2565b611ebb565b6101c66103ad3660046132c4565b6123e2565b6101c66103c036600461332a565b6124f5565b6101c66103d33660046134f4565b61261d565b6101c66103e63660046132c4565b612856565b6000546001600160a01b031633146104385760405162461bcd60e51b815260206004820181905260248201526000805160206137ef83398151915260448201526064015b60405180910390fd5b6005805473ffffffffffffffffffffffffffffffffffffffff19166001600160a01b0392909216919091179055565b6000546001600160a01b031633146104af5760405162461bcd60e51b815260206004820181905260248201526000805160206137ef833981519152604482015260640161042f565b6001546040516370a0823160e01b815230600482015284916001600160a01b0316906370a082319060240160206040518083038186803b1580156104f257600080fd5b505afa158015610506573d6000803e3d6000fd5b505050506040513d601f19601f8201168201806040525081019061052a91906134db565b10156105825760405162461bcd60e51b815260206004820152602160248201527f5661756c742068617320696e737566666963656e7420737461626c6520636f696044820152603760f91b606482015260840161042f565b600083116105d25760405162461bcd60e51b815260206004820152601b60248201527f4d757374206465706f736974206d6f7265207468616e207a65726f0000000000604482015260640161042f565b6040517fe2bbb158000000000000000000000000000000000000000000000000000000008152600481018490526024810182905282906001600160a01b0382169063e2bbb15890604401602060405180830381600087803b15801561063657600080fd5b505af115801561064a573d6000803e3d6000fd5b505050506040513d601f19601f8201168201806040525081019061066e91906134db565b506040518481527f7a3794cf7d311106018524dfd41878138e4264f1bee18e53f1c180a1627fa2b89060200160405180910390a150505050565b60405163463d31d760e11b815260048101829052600090839082906001600160a01b03831690638c7a63ae9060240160a06040518083038186803b1580156106ef57600080fd5b505afa158015610703573d6000803e3d6000fd5b505050506040513d601f19601f820116820180604052508101906107279190613449565b80516040517fb5ada6d80000000000000000000000000000000000000000000000000000000081526001600160a01b038083166004830152929350909184169063b5ada6d89060240160206040518083038186803b15801561078857600080fd5b505afa15801561079c573d6000803e3d6000fd5b505050506040513d601f19601f820116820180604052508101906107c09190613427565b93505050505b92915050565b6000546001600160a01b031633146108145760405162461bcd60e51b815260206004820181905260248201526000805160206137ef833981519152604482015260640161042f565b600054600160a01b900460ff166108645760405162461bcd60e51b815260206004820152601460248201527314185d5cd8589b194e881b9bdd081c185d5cd95960621b604482015260640161042f565b6040516001600160a01b038216904780156108fc02916000818181858888f19350505050158015610899573d6000803e3d6000fd5b5050565b6000546001600160a01b031633146108e55760405162461bcd60e51b815260206004820181905260248201526000805160206137ef833981519152604482015260640161042f565b600054600160a01b900460ff166109355760405162461bcd60e51b815260206004820152601460248201527314185d5cd8589b194e881b9bdd081c185d5cd95960621b604482015260640161042f565b61093d612926565b565b6000546001600160a01b031633146109875760405162461bcd60e51b815260206004820181905260248201526000805160206137ef833981519152604482015260640161042f565b6004805473ffffffffffffffffffffffffffffffffffffffff19166001600160a01b0392909216919091179055565b60405163463d31d760e11b815260048101829052600090839082906001600160a01b03831690638c7a63ae9060240160a06040518083038186803b1580156109fd57600080fd5b505afa158015610a11573d6000803e3d6000fd5b505050506040513d601f19601f82011682018060405250810190610a359190613449565b90506000816040015190506000610a5d836080015184606001516129c390919063ffffffff16565b83516040517f4d02fe6f0000000000000000000000000000000000000000000000000000000081526004810189905291925090819060009081906001600160a01b03841690634d02fe6f90602401604080518083038186803b158015610ac257600080fd5b505afa158015610ad6573d6000803e3d6000fd5b505050506040513d601f19601f82011682018060405250810190610afa9190613551565b90925090508186821015610b1457610b1281836129c3565b505b610b39610b1f6129d6565b610b3383610b2d8b8b6129e9565b906129c3565b906129f5565b9c9b505050505050505050505050565b600080600560009054906101000a90046001600160a01b03166001600160a01b03166318160ddd6040518163ffffffff1660e01b815260040160206040518083038186803b158015610b9a57600080fd5b505afa158015610bae573d6000803e3d6000fd5b505050506040513d601f19601f82011682018060405250810190610bd291906134db565b90506000610bde612a01565b9050610bf482610bee86846129f5565b90612a21565b949350505050565b60008054600160a01b900460ff1615610c4a5760405162461bcd60e51b815260206004820152601060248201526f14185d5cd8589b194e881c185d5cd95960821b604482015260640161042f565b600054600160a81b900460ff16610cb25760405162461bcd60e51b815260206004820152602660248201527f5661756c7420686173206e6f7420737461727420616363657074696e67206465604482015265706f7369747360d01b606482015260840161042f565b6001546040516370a0823160e01b815233600482015283916001600160a01b0316906370a082319060240160206040518083038186803b158015610cf557600080fd5b505afa158015610d09573d6000803e3d6000fd5b505050506040513d601f19601f82011682018060405250810190610d2d91906134db565b1015610d855760405162461bcd60e51b815260206004820152602160248201527f557365722068617320696e73756666696369656e7420737461626c6520636f696044820152603760f91b606482015260840161042f565b600154604051636eb1769f60e11b815233600482015230602482015283916001600160a01b03169063dd62ed3e9060440160206040518083038186803b158015610dce57600080fd5b505afa158015610de2573d6000803e3d6000fd5b505050506040513d601f19601f82011682018060405250810190610e0691906134db565b1015610e7a5760405162461bcd60e51b815260206004820152603a60248201527f5573657220686173206e6f7420617070726f76656420746865207661756c742060448201527f666f722073756666696369656e7420737461626c6520636f696e000000000000606482015260840161042f565b6000610e858361186c565b905060008111610efd5760405162461bcd60e51b815260206004820152603c60248201527f54686520616d6f756e74206f6620616c6c6f79782062726f6e7a6520636f696e60448201527f20746f20676574206973206e6f74206c6172676572207468616e203000000000606482015260840161042f565b600154610f15906001600160a01b0316333086612a2d565b6005546040517f40c10f19000000000000000000000000000000000000000000000000000000008152336004820152602481018390526001600160a01b03909116906340c10f1990604401602060405180830381600087803b158015610f7a57600080fd5b505af1158015610f8e573d6000803e3d6000fd5b505050506040513d601f19601f82011682018060405250810190610fb29190613427565b50600154604080516001600160a01b03909216825233602083015281018290527fa4f358c78f73b2049a06e0436c6728292334862a6fc2114f2de13f9cff58491f9060600160405180910390a160408051338152602081018390527f0f6798a560793a54c3bcfe86a93cde1e73087d944c0ea20544137d412139688591015b60405180910390a150600192915050565b6000546001600160a01b0316331461108a5760405162461bcd60e51b815260206004820181905260248201526000805160206137ef833981519152604482015260640161042f565b61093d6000612ae4565b6000546001600160a01b031633146110dc5760405162461bcd60e51b815260206004820181905260248201526000805160206137ef833981519152604482015260640161042f565b600054600160a01b900460ff1661112c5760405162461bcd60e51b815260206004820152601460248201527314185d5cd8589b194e881b9bdd081c185d5cd95960621b604482015260640161042f565b600061113730612b41565b905060005b815181101561117a576111688383838151811061115b5761115b6137ad565b6020026020010151611763565b806111728161377c565b91505061113c565b505050565b6000546001600160a01b031633146111c75760405162461bcd60e51b815260206004820181905260248201526000805160206137ef833981519152604482015260640161042f565b600054600160a01b900460ff166112175760405162461bcd60e51b815260206004820152601460248201527314185d5cd8589b194e881b9bdd081c185d5cd95960621b604482015260640161042f565b6001546040516370a0823160e01b81523060048201526001600160a01b03909116906370a082319060240160206040518083038186803b15801561125a57600080fd5b505afa15801561126e573d6000803e3d6000fd5b505050506040513d601f19601f8201168201806040525081019061129291906134db565b156112df5760405162461bcd60e51b815260206004820181905260248201527f42616c616e6365206f6620737461626c6520636f696e206d7573742062652030604482015260640161042f565b6003546040516370a0823160e01b81523060048201526001600160a01b03909116906370a082319060240160206040518083038186803b15801561132257600080fd5b505afa158015611336573d6000803e3d6000fd5b505050506040513d601f19601f8201168201806040525081019061135a91906134db565b156113a75760405162461bcd60e51b815260206004820152601e60248201527f42616c616e6365206f66204669647520636f696e206d75737420626520300000604482015260640161042f565b6002546040516370a0823160e01b81523060048201526001600160a01b03909116906370a082319060240160206040518083038186803b1580156113ea57600080fd5b505afa1580156113fe573d6000803e3d6000fd5b505050506040513d601f19601f8201168201806040525081019061142291906134db565b1561146f5760405162461bcd60e51b815260206004820152601d60248201527f42616c616e6365206f662047464920636f696e206d7573742062652030000000604482015260640161042f565b6000546001600160a01b031680ff5b6000546001600160a01b031633146114c65760405162461bcd60e51b815260206004820181905260248201526000805160206137ef833981519152604482015260640161042f565b600054600160a01b900460ff16156115135760405162461bcd60e51b815260206004820152601060248201526f14185d5cd8589b194e881c185d5cd95960821b604482015260640161042f565b61093d612cd6565b6000546001600160a01b031633146115635760405162461bcd60e51b815260206004820181905260248201526000805160206137ef833981519152604482015260640161042f565b6006805473ffffffffffffffffffffffffffffffffffffffff19166001600160a01b0392909216919091179055565b600080546001600160a01b031633146115db5760405162461bcd60e51b815260206004820181905260248201526000805160206137ef833981519152604482015260640161042f565b600054600160a81b900460ff161561165b5760405162461bcd60e51b815260206004820152602a60248201527f5661756c742068617320616c726561647920737461727420616363657074696e60448201527f67206465706f7369747300000000000000000000000000000000000000000000606482015260840161042f565b6000611665612a01565b6005549091506001600160a01b03166340c10f19306116976116856129d6565b610bee611690612d5e565b87906129f5565b6040517fffffffff0000000000000000000000000000000000000000000000000000000060e085901b1681526001600160a01b0390921660048301526024820152604401602060405180830381600087803b1580156116f557600080fd5b505af1158015611709573d6000803e3d6000fd5b505050506040513d601f19601f8201168201806040525081019061172d9190613427565b5050600080547fffffffffffffffffffff00ffffffffffffffffffffffffffffffffffffffffff16600160a81b17905550600190565b6000546001600160a01b031633146117ab5760405162461bcd60e51b815260206004820181905260248201526000805160206137ef833981519152604482015260640161042f565b600054600160a01b900460ff166117fb5760405162461bcd60e51b815260206004820152601460248201527314185d5cd8589b194e881b9bdd081c185d5cd95960621b604482015260640161042f565b60048054604051632142170760e11b815230928101929092526001600160a01b0384811660248401526044830184905216906342842e0e90606401600060405180830381600087803b15801561185057600080fd5b505af1158015611864573d6000803e3d6000fd5b505050505050565b600080600560009054906101000a90046001600160a01b03166001600160a01b03166318160ddd6040518163ffffffff1660e01b815260040160206040518083038186803b1580156118bd57600080fd5b505afa1580156118d1573d6000803e3d6000fd5b505050506040513d601f19601f820116820180604052508101906118f591906134db565b90506000611901612a01565b9050610bf481610bee86856129f5565b60008054600160a01b900460ff161561195f5760405162461bcd60e51b815260206004820152601060248201526f14185d5cd8589b194e881c185d5cd95960821b604482015260640161042f565b600054600160a81b900460ff166119c75760405162461bcd60e51b815260206004820152602660248201527f5661756c7420686173206e6f7420737461727420616363657074696e67206465604482015265706f7369747360d01b606482015260840161042f565b6004546001600160a01b03848116911614611a245760405162461bcd60e51b815260206004820152601860248201527f4e6f7420476f6c6466696e636820506f6f6c20546f6b656e0000000000000000604482015260640161042f565b611a2e83836106a8565b1515600114611a7f5760405162461bcd60e51b815260206004820152601060248201527f4e6f7420612076616c696420706f6f6c00000000000000000000000000000000604482015260640161042f565b6040517f6352211e0000000000000000000000000000000000000000000000000000000081526004810183905233906001600160a01b03851690636352211e9060240160206040518083038186803b158015611ada57600080fd5b505afa158015611aee573d6000803e3d6000fd5b505050506040513d601f19601f82011682018060405250810190611b1291906132e1565b6001600160a01b031614611b685760405162461bcd60e51b815260206004820152601c60248201527f5573657220646f6573206e6f74206f776e207468697320746f6b656e00000000604482015260640161042f565b6040517f081812fc0000000000000000000000000000000000000000000000000000000081526004810183905230906001600160a01b0385169063081812fc9060240160206040518083038186803b158015611bc357600080fd5b505afa158015611bd7573d6000803e3d6000fd5b505050506040513d601f19601f82011682018060405250810190611bfb91906132e1565b6001600160a01b031614611c775760405162461bcd60e51b815260206004820152602e60248201527f5573657220686173206e6f7420617070726f76656420746865207661756c742060448201527f666f72207468697320746f6b656e000000000000000000000000000000000000606482015260840161042f565b6000611c8384846109b6565b905060008111611cfb5760405162461bcd60e51b815260206004820152603560248201527f54686520616d6f756e74206f6620737461626c6520636f696e20746f2067657460448201527f206973206e6f74206c6172676572207468616e20300000000000000000000000606482015260840161042f565b6001546040516370a0823160e01b815230600482015282916001600160a01b0316906370a082319060240160206040518083038186803b158015611d3e57600080fd5b505afa158015611d52573d6000803e3d6000fd5b505050506040513d601f19601f82011682018060405250810190611d7691906134db565b1015611dea5760405162461bcd60e51b815260206004820152602e60248201527f546865207661756c7420646f6573206e6f74206861766520737566666963696560448201527f6e7420737461626c6520636f696e000000000000000000000000000000000000606482015260840161042f565b604051632142170760e11b8152336004820152306024820152604481018490526001600160a01b038516906342842e0e90606401600060405180830381600087803b158015611e3857600080fd5b505af1158015611e4c573d6000803e3d6000fd5b5050600154611e6892506001600160a01b031690503383612d6c565b604080516001600160a01b03861681523360208201529081018490527fc7e8b1bdbecdc8a549557efb2a2ab715cff51630caead31610000019e61dfa4b9060600160405180910390a15060019392505050565b60008054600160a01b900460ff1615611f095760405162461bcd60e51b815260206004820152601060248201526f14185d5cd8589b194e881c185d5cd95960821b604482015260640161042f565b600054600160a81b900460ff16611f715760405162461bcd60e51b815260206004820152602660248201527f5661756c7420686173206e6f7420737461727420616363657074696e67206465604482015265706f7369747360d01b606482015260840161042f565b6005546040516370a0823160e01b815233600482015283916001600160a01b0316906370a082319060240160206040518083038186803b158015611fb457600080fd5b505afa158015611fc8573d6000803e3d6000fd5b505050506040513d601f19601f82011682018060405250810190611fec91906134db565b10156120445760405162461bcd60e51b815260206004820152602160248201527f557365722068617320696e73756666696369656e7420616c6c6f797820636f696044820152603760f91b606482015260840161042f565b600554604051636eb1769f60e11b815233600482015230602482015283916001600160a01b03169063dd62ed3e9060440160206040518083038186803b15801561208d57600080fd5b505afa1580156120a1573d6000803e3d6000fd5b505050506040513d601f19601f820116820180604052508101906120c591906134db565b10156121395760405162461bcd60e51b815260206004820152603a60248201527f5573657220686173206e6f7420617070726f76656420746865207661756c742060448201527f666f722073756666696369656e7420616c6c6f797820636f696e000000000000606482015260840161042f565b600061214483610b49565b9050600081116121bc5760405162461bcd60e51b815260206004820152603560248201527f54686520616d6f756e74206f6620737461626c6520636f696e20746f2067657460448201527f206973206e6f74206c6172676572207468616e20300000000000000000000000606482015260840161042f565b6001546040516370a0823160e01b815230600482015282916001600160a01b0316906370a082319060240160206040518083038186803b1580156121ff57600080fd5b505afa158015612213573d6000803e3d6000fd5b505050506040513d601f19601f8201168201806040525081019061223791906134db565b10156122ab5760405162461bcd60e51b815260206004820152602e60248201527f546865207661756c7420646f6573206e6f74206861766520737566666963696560448201527f6e7420737461626c6520636f696e000000000000000000000000000000000000606482015260840161042f565b6005546040517f9dc29fac000000000000000000000000000000000000000000000000000000008152336004820152602481018590526001600160a01b0390911690639dc29fac90604401602060405180830381600087803b15801561231057600080fd5b505af1158015612324573d6000803e3d6000fd5b505050506040513d601f19601f820116820180604052508101906123489190613427565b50600154612360906001600160a01b03163383612d6c565b600554604080516001600160a01b03909216825233602083015281018490527f53fee901a59b4d2e659e450f8db17fc345e158fe408d2b39faf66d1f8c4a54fe9060600160405180910390a160408051338152602081018590527fcc16f5dbb4873280815c1ee09dbd06736cffcc184412cf7a71a0fdb75d397ca59101611031565b6000546001600160a01b0316331461242a5760405162461bcd60e51b815260206004820181905260248201526000805160206137ef833981519152604482015260640161042f565b600054600160a01b900460ff1661247a5760405162461bcd60e51b815260206004820152601460248201527314185d5cd8589b194e881b9bdd081c185d5cd95960621b604482015260640161042f565b6005546040517ff2fde38b0000000000000000000000000000000000000000000000000000000081526001600160a01b0383811660048301529091169063f2fde38b90602401600060405180830381600087803b1580156124da57600080fd5b505af11580156124ee573d6000803e3d6000fd5b5050505050565b6000546001600160a01b0316331461253d5760405162461bcd60e51b815260206004820181905260248201526000805160206137ef833981519152604482015260640161042f565b600054600160a01b900460ff1661258d5760405162461bcd60e51b815260206004820152601460248201527314185d5cd8589b194e881b9bdd081c185d5cd95960621b604482015260640161042f565b6040516370a0823160e01b81523060048201526000906001600160a01b038416906370a082319060240160206040518083038186803b1580156125cf57600080fd5b505afa1580156125e3573d6000803e3d6000fd5b505050506040513d601f19601f8201168201806040525081019061260791906134db565b905061117a6001600160a01b0384168383612d6c565b6000546001600160a01b031633146126655760405162461bcd60e51b815260206004820181905260248201526000805160206137ef833981519152604482015260640161042f565b6001546040516370a0823160e01b815230600482015283916001600160a01b0316906370a082319060240160206040518083038186803b1580156126a857600080fd5b505afa1580156126bc573d6000803e3d6000fd5b505050506040513d601f19601f820116820180604052508101906126e091906134db565b10156127385760405162461bcd60e51b815260206004820152602160248201527f5661756c742068617320696e737566666963656e7420737461626c6520636f696044820152603760f91b606482015260840161042f565b600082116127885760405162461bcd60e51b815260206004820152601b60248201527f4d757374206465706f736974206d6f7265207468616e207a65726f0000000000604482015260640161042f565b6040517fb6b55f250000000000000000000000000000000000000000000000000000000081526004810183905281906001600160a01b0382169063b6b55f2590602401602060405180830381600087803b1580156127e557600080fd5b505af11580156127f9573d6000803e3d6000fd5b505050506040513d601f19601f8201168201806040525081019061281d91906134db565b506040518381527fd483110686f79d1f5932d32add1024998649ddca927700b75bea458b4cb7cde69060200160405180910390a1505050565b6000546001600160a01b0316331461289e5760405162461bcd60e51b815260206004820181905260248201526000805160206137ef833981519152604482015260640161042f565b6001600160a01b03811661291a5760405162461bcd60e51b815260206004820152602660248201527f4f776e61626c653a206e6577206f776e657220697320746865207a65726f206160448201527f6464726573730000000000000000000000000000000000000000000000000000606482015260840161042f565b61292381612ae4565b50565b600054600160a01b900460ff166129765760405162461bcd60e51b815260206004820152601460248201527314185d5cd8589b194e881b9bdd081c185d5cd95960621b604482015260640161042f565b6000805460ff60a01b191690557f5db9ee0a495bf2e6ff9c91a7834c1ba4fdd244a5e8aa4e537bd38aeae4b073aa335b6040516001600160a01b03909116815260200160405180910390a1565b60006129cf82846135f5565b9392505050565b60006129e46006600a613672565b905090565b60006129cf8284613739565b60006129cf828461371a565b60006129e4612a0e612db5565b610b2d612a19612f09565b610b2d612f85565b60006129cf828461360d565b6040516001600160a01b0380851660248301528316604482015260648101829052612ade9085907f23b872dd00000000000000000000000000000000000000000000000000000000906084015b60408051601f198184030181529190526020810180517bffffffffffffffffffffffffffffffffffffffffffffffffffffffff167fffffffff00000000000000000000000000000000000000000000000000000000909316929092179091526130ac565b50505050565b600080546001600160a01b0383811673ffffffffffffffffffffffffffffffffffffffff19831681178455604051919092169283917f8be0079c531659141344cd1fd0a4f28419497f9722a3daafe3b4186f6b6457e09190a35050565b600480546040516370a0823160e01b81526001600160a01b038481169382019390935260609260009216906370a082319060240160206040518083038186803b158015612b8d57600080fd5b505afa158015612ba1573d6000803e3d6000fd5b505050506040513d601f19601f82011682018060405250810190612bc591906134db565b905060008167ffffffffffffffff811115612be257612be26137c3565b604051908082528060200260200182016040528015612c0b578160200160208202803683370190505b50905060005b82811015612cce5760048054604051632f745c5960e01b81526001600160a01b038881169382019390935260248101849052911690632f745c599060440160206040518083038186803b158015612c6757600080fd5b505afa158015612c7b573d6000803e3d6000fd5b505050506040513d601f19601f82011682018060405250810190612c9f91906134db565b828281518110612cb157612cb16137ad565b602090810291909101015280612cc68161377c565b915050612c11565b509392505050565b600054600160a01b900460ff1615612d235760405162461bcd60e51b815260206004820152601060248201526f14185d5cd8589b194e881c185d5cd95960821b604482015260640161042f565b6000805460ff60a01b1916600160a01b1790557f62e78cea01bee320cd4e420270b5ea74000d11b0c9f74754ebdbfc544b05a2586129a63390565b60006129e46012600a613672565b6040516001600160a01b03831660248201526044810182905261117a9084907fa9059cbb0000000000000000000000000000000000000000000000000000000090606401612a7a565b600480546040516370a0823160e01b81523092810192909252600091829182916001600160a01b03909116906370a082319060240160206040518083038186803b158015612e0257600080fd5b505afa158015612e16573d6000803e3d6000fd5b505050506040513d601f19601f82011682018060405250810190612e3a91906134db565b905060005b81811015612eef5760048054604051632f745c5960e01b8152309281019290925260248201839052612edb91612ed4916001600160a01b0316908190632f745c599060440160206040518083038186803b158015612e9c57600080fd5b505afa158015612eb0573d6000803e3d6000fd5b505050506040513d601f19601f820116820180604052508101906102a791906134db565b84906129c3565b925080612ee78161377c565b915050612e3f565b50612f02612efb6129d6565b83906129f5565b9250505090565b6001546040516370a0823160e01b81523060048201526000916001600160a01b0316906370a082319060240160206040518083038186803b158015612f4d57600080fd5b505afa158015612f61573d6000803e3d6000fd5b505050506040513d601f19601f820116820180604052508101906129e491906134db565b60006129e46130a7612f95612d5e565b600654604080517f872697290000000000000000000000000000000000000000000000000000000081529051610bee926001600160a01b0316916387269729916004808301926020929190829003018186803b158015612ff457600080fd5b505afa158015613008573d6000803e3d6000fd5b505050506040513d601f19601f8201168201806040525081019061302c91906134db565b6003546040516370a0823160e01b81523060048201526001600160a01b03909116906370a082319060240160206040518083038186803b15801561306f57600080fd5b505afa158015613083573d6000803e3d6000fd5b505050506040513d601f19601f82011682018060405250810190610b3391906134db565b613191565b6000613101826040518060400160405280602081526020017f5361666545524332303a206c6f772d6c6576656c2063616c6c206661696c6564815250856001600160a01b03166131b09092919063ffffffff16565b80519091501561117a578080602001905181019061311f9190613427565b61117a5760405162461bcd60e51b815260206004820152602a60248201527f5361666545524332303a204552433230206f7065726174696f6e20646964206e60448201527f6f74207375636365656400000000000000000000000000000000000000000000606482015260840161042f565b60006107c66131a96131a16129d6565b610bee612d5e565b8390612a21565b6060610bf48484600085856001600160a01b0385163b6132125760405162461bcd60e51b815260206004820152601d60248201527f416464726573733a2063616c6c20746f206e6f6e2d636f6e7472616374000000604482015260640161042f565b600080866001600160a01b0316858760405161322e9190613575565b60006040518083038185875af1925050503d806000811461326b576040519150601f19603f3d011682016040523d82523d6000602084013e613270565b606091505b509150915061328082828661328b565b979650505050505050565b6060831561329a5750816129cf565b8251156132aa5782518084602001fd5b8160405162461bcd60e51b815260040161042f9190613591565b6000602082840312156132d657600080fd5b81356129cf816137d9565b6000602082840312156132f357600080fd5b81516129cf816137d9565b6000806040838503121561331157600080fd5b823561331c816137d9565b946020939093013593505050565b6000806040838503121561333d57600080fd5b8235613348816137d9565b91506020830135613358816137d9565b809150509250929050565b6000806000806080858703121561337957600080fd5b8435613384816137d9565b9350602085810135613395816137d9565b935060408601359250606086013567ffffffffffffffff808211156133b957600080fd5b818801915088601f8301126133cd57600080fd5b8135818111156133df576133df6137c3565b6133f1601f8201601f191685016135c4565b9150808252898482850101111561340757600080fd5b808484018584013760008482840101525080935050505092959194509250565b60006020828403121561343957600080fd5b815180151581146129cf57600080fd5b600060a0828403121561345b57600080fd5b60405160a0810181811067ffffffffffffffff8211171561347e5761347e6137c3565b604052825161348c816137d9565b80825250602083015160208201526040830151604082015260608301516060820152608083015160808201528091505092915050565b6000602082840312156134d457600080fd5b5035919050565b6000602082840312156134ed57600080fd5b5051919050565b6000806040838503121561350757600080fd5b823591506020830135613358816137d9565b60008060006060848603121561352e57600080fd5b833592506020840135613540816137d9565b929592945050506040919091013590565b6000806040838503121561356457600080fd5b505080516020909101519092909150565b60008251613587818460208701613750565b9190910192915050565b60208152600082518060208401526135b0816040850160208701613750565b601f01601f19169190910160400192915050565b604051601f8201601f1916810167ffffffffffffffff811182821017156135ed576135ed6137c3565b604052919050565b6000821982111561360857613608613797565b500190565b60008261362a57634e487b7160e01b600052601260045260246000fd5b500490565b600181815b8085111561366a57816000190482111561365057613650613797565b8085161561365d57918102915b93841c9390800290613634565b509250929050565b60006129cf8383600082613688575060016107c6565b81613695575060006107c6565b81600181146136ab57600281146136b5576136d1565b60019150506107c6565b60ff8411156136c6576136c6613797565b50506001821b6107c6565b5060208310610133831016604e8410600b84101617156136f4575081810a6107c6565b6136fe838361362f565b806000190482111561371257613712613797565b029392505050565b600081600019048311821515161561373457613734613797565b500290565b60008282101561374b5761374b613797565b500390565b60005b8381101561376b578181015183820152602001613753565b83811115612ade5750506000910152565b600060001982141561379057613790613797565b5060010190565b634e487b7160e01b600052601160045260246000fd5b634e487b7160e01b600052603260045260246000fd5b634e487b7160e01b600052604160045260246000fd5b6001600160a01b038116811461292357600080fdfe4f776e61626c653a2063616c6c6572206973206e6f7420746865206f776e6572a2646970667358221220ac93e8afbded58dcf0622c4228e29390a08f721806eb53fca54d659e6810bf6a64736f6c63430008070033",
  "devdoc": {
    "author": "AlloyX",
    "kind": "dev",
    "methods": {
      "depositAlloyxBronzeTokens(uint256)": {
        "params": {
          "_tokenAmount": "Number of Alloy Tokens"
        }
      },
      "depositNFTToken(address,uint256)": {
        "params": {
          "_tokenAddress": "NFT Address",
          "_tokenID": "NFT ID"
        }
      },
      "depositUSDCCoin(uint256)": {
        "params": {
          "_tokenAmount": "Number of stable coin"
        }
      },
      "getJuniorTokenValue(address,uint256)": {
        "params": {
          "_tokenAddress": "The backer NFT address",
          "_tokenID": "The backer NFT id"
        }
      },
      "isValidPool(address,uint256)": {
        "params": {
          "_tokenAddress": "The backer NFT address",
          "_tokenID": "The backer NFT id"
        }
      },
      "onERC721Received(address,address,uint256,bytes)": {
        "details": "See {IERC721Receiver-onERC721Received}. Always returns `IERC721Receiver.onERC721Received.selector`."
      },
      "owner()": {
        "details": "Returns the address of the current owner."
      },
      "paused()": {
        "details": "Returns true if the contract is paused, and false otherwise."
      },
      "renounceOwnership()": {
        "details": "Leaves the contract without owner. It will not be possible to call `onlyOwner` functions anymore. Can only be called by the current owner. NOTE: Renouncing ownership will leave the contract without an owner, thereby removing any functionality that is only available to the owner."
      },
      "transferOwnership(address)": {
        "details": "Transfers ownership of the contract to a new account (`newOwner`). Can only be called by the current owner."
      }
    },
    "title": "AlloyX Vault",
    "version": 1
  },
  "userdoc": {
    "kind": "user",
    "methods": {
      "USDCtoAlloyxBronze(uint256)": {
        "notice": "Convert USDC Amount to Alloyx Bronze"
      },
      "alloyxBronzeToUSDC(uint256)": {
        "notice": "Convert Alloyx Bronze to USDC amount"
      },
      "depositAlloyxBronzeTokens(uint256)": {
        "notice": "An Alloy token holder can deposit their tokens and redeem them for USDC"
      },
      "depositNFTToken(address,uint256)": {
        "notice": "A Junior token holder can deposit their NFT for stable coin"
      },
      "depositUSDCCoin(uint256)": {
        "notice": "A Liquidity Provider can deposit supported stable coins for Alloy Tokens"
      },
      "getJuniorTokenValue(address,uint256)": {
        "notice": "Using the Goldfinch contracts, read the principal, redeemed and redeemable values"
      },
      "isValidPool(address,uint256)": {
        "notice": "Using the PoolTokens interface, check if this is a valid pool"
      },
      "startVaultOperation()": {
        "notice": "Initialize by minting the alloy brown tokens to owner"
      }
    },
    "notice": "Initial vault for AlloyX. This vault holds loan tokens generated on Goldfinch and emits AlloyTokens when a liquidity provider deposits supported stable coins.",
    "version": 1
  },
  "storageLayout": {
    "storage": [
      {
        "astId": 2183,
        "contract": "contracts/alloyx/v2.0/AlloyVault.sol:AlloyVault",
        "label": "_owner",
        "offset": 0,
        "slot": "0",
        "type": "t_address"
      },
      {
        "astId": 2298,
        "contract": "contracts/alloyx/v2.0/AlloyVault.sol:AlloyVault",
        "label": "_paused",
        "offset": 20,
        "slot": "0",
        "type": "t_bool"
      },
      {
        "astId": 6963,
        "contract": "contracts/alloyx/v2.0/AlloyVault.sol:AlloyVault",
        "label": "vaultStarted",
        "offset": 21,
        "slot": "0",
        "type": "t_bool"
      },
      {
        "astId": 6966,
        "contract": "contracts/alloyx/v2.0/AlloyVault.sol:AlloyVault",
        "label": "usdcCoin",
        "offset": 0,
        "slot": "1",
        "type": "t_contract(IERC20)3038"
      },
      {
        "astId": 6969,
        "contract": "contracts/alloyx/v2.0/AlloyVault.sol:AlloyVault",
        "label": "gfiCoin",
        "offset": 0,
        "slot": "2",
        "type": "t_contract(IERC20)3038"
      },
      {
        "astId": 6972,
        "contract": "contracts/alloyx/v2.0/AlloyVault.sol:AlloyVault",
        "label": "fiduCoin",
        "offset": 0,
        "slot": "3",
        "type": "t_contract(IERC20)3038"
      },
      {
        "astId": 6975,
        "contract": "contracts/alloyx/v2.0/AlloyVault.sol:AlloyVault",
        "label": "goldFinchPoolToken",
        "offset": 0,
        "slot": "4",
        "type": "t_contract(IPoolTokens)8442"
      },
      {
        "astId": 6978,
        "contract": "contracts/alloyx/v2.0/AlloyVault.sol:AlloyVault",
        "label": "alloyxTokenBronze",
        "offset": 0,
        "slot": "5",
        "type": "t_contract(AlloyxTokenBronze)5729"
      },
      {
        "astId": 6981,
        "contract": "contracts/alloyx/v2.0/AlloyVault.sol:AlloyVault",
        "label": "seniorPool",
        "offset": 0,
        "slot": "6",
        "type": "t_contract(ISeniorPool)8538"
      }
    ],
    "types": {
      "t_address": {
        "encoding": "inplace",
        "label": "address",
        "numberOfBytes": "20"
      },
      "t_bool": {
        "encoding": "inplace",
        "label": "bool",
        "numberOfBytes": "1"
      },
      "t_contract(AlloyxTokenBronze)5729": {
        "encoding": "inplace",
        "label": "contract AlloyxTokenBronze",
        "numberOfBytes": "20"
      },
      "t_contract(IERC20)3038": {
        "encoding": "inplace",
        "label": "contract IERC20",
        "numberOfBytes": "20"
      },
      "t_contract(IPoolTokens)8442": {
        "encoding": "inplace",
        "label": "contract IPoolTokens",
        "numberOfBytes": "20"
      },
      "t_contract(ISeniorPool)8538": {
        "encoding": "inplace",
        "label": "contract ISeniorPool",
        "numberOfBytes": "20"
      }
    }
  }
}