{
  "address": "0x4621C0f6B433dB5539f88e68051c95E01D54B31A",
  "_format": "hh-sol-artifact-1",
  "contractName": "AlloyxTokenDURA",
  "sourceName": "contracts/alloyx/AlloyxTokenDURA.sol",
  "abi": [
    {
      "anonymous": false,
      "inputs": [
        {
          "indexed": true,
          "internalType": "address",
          "name": "owner",
          "type": "address"
        },
        {
          "indexed": true,
          "internalType": "address",
          "name": "spender",
          "type": "address"
        },
        {
          "indexed": false,
          "internalType": "uint256",
          "name": "value",
          "type": "uint256"
        }
      ],
      "name": "Approval",
      "type": "event"
    },
    {
      "anonymous": false,
      "inputs": [
        {
          "indexed": false,
          "internalType": "uint8",
          "name": "version",
          "type": "uint8"
        }
      ],
      "name": "Initialized",
      "type": "event"
    },
    {
      "anonymous": false,
      "inputs": [
        {
          "indexed": true,
          "internalType": "address",
          "name": "previousOwner",
          "type": "address"
        },
        {
          "indexed": true,
          "internalType": "address",
          "name": "newOwner",
          "type": "address"
        }
      ],
      "name": "OwnershipTransferred",
      "type": "event"
    },
    {
      "anonymous": false,
      "inputs": [
        {
          "indexed": true,
          "internalType": "address",
          "name": "from",
          "type": "address"
        },
        {
          "indexed": true,
          "internalType": "address",
          "name": "to",
          "type": "address"
        },
        {
          "indexed": false,
          "internalType": "uint256",
          "name": "value",
          "type": "uint256"
        }
      ],
      "name": "Transfer",
      "type": "event"
    },
    {
      "inputs": [
        {
          "internalType": "address",
          "name": "owner",
          "type": "address"
        },
        {
          "internalType": "address",
          "name": "spender",
          "type": "address"
        }
      ],
      "name": "allowance",
      "outputs": [
        {
          "internalType": "uint256",
          "name": "",
          "type": "uint256"
        }
      ],
      "stateMutability": "view",
      "type": "function"
    },
    {
      "inputs": [
        {
          "internalType": "address",
          "name": "spender",
          "type": "address"
        },
        {
          "internalType": "uint256",
          "name": "amount",
          "type": "uint256"
        }
      ],
      "name": "approve",
      "outputs": [
        {
          "internalType": "bool",
          "name": "",
          "type": "bool"
        }
      ],
      "stateMutability": "nonpayable",
      "type": "function"
    },
    {
      "inputs": [
        {
          "internalType": "address",
          "name": "account",
          "type": "address"
        }
      ],
      "name": "balanceOf",
      "outputs": [
        {
          "internalType": "uint256",
          "name": "",
          "type": "uint256"
        }
      ],
      "stateMutability": "view",
      "type": "function"
    },
    {
      "inputs": [
        {
          "internalType": "address",
          "name": "_account",
          "type": "address"
        },
        {
          "internalType": "uint256",
          "name": "_amount",
          "type": "uint256"
        }
      ],
      "name": "burn",
      "outputs": [
        {
          "internalType": "bool",
          "name": "",
          "type": "bool"
        }
      ],
      "stateMutability": "nonpayable",
      "type": "function"
    },
    {
      "inputs": [],
      "name": "contractName",
      "outputs": [
        {
          "internalType": "string",
          "name": "",
          "type": "string"
        }
      ],
      "stateMutability": "pure",
      "type": "function"
    },
    {
      "inputs": [],
      "name": "decimals",
      "outputs": [
        {
          "internalType": "uint8",
          "name": "",
          "type": "uint8"
        }
      ],
      "stateMutability": "view",
      "type": "function"
    },
    {
      "inputs": [
        {
          "internalType": "address",
          "name": "spender",
          "type": "address"
        },
        {
          "internalType": "uint256",
          "name": "subtractedValue",
          "type": "uint256"
        }
      ],
      "name": "decreaseAllowance",
      "outputs": [
        {
          "internalType": "bool",
          "name": "",
          "type": "bool"
        }
      ],
      "stateMutability": "nonpayable",
      "type": "function"
    },
    {
      "inputs": [
        {
          "internalType": "address",
          "name": "spender",
          "type": "address"
        },
        {
          "internalType": "uint256",
          "name": "addedValue",
          "type": "uint256"
        }
      ],
      "name": "increaseAllowance",
      "outputs": [
        {
          "internalType": "bool",
          "name": "",
          "type": "bool"
        }
      ],
      "stateMutability": "nonpayable",
      "type": "function"
    },
    {
      "inputs": [],
      "name": "initialize",
      "outputs": [],
      "stateMutability": "nonpayable",
      "type": "function"
    },
    {
      "inputs": [
        {
          "internalType": "address",
          "name": "_account",
          "type": "address"
        },
        {
          "internalType": "uint256",
          "name": "_amount",
          "type": "uint256"
        }
      ],
      "name": "mint",
      "outputs": [
        {
          "internalType": "bool",
          "name": "",
          "type": "bool"
        }
      ],
      "stateMutability": "nonpayable",
      "type": "function"
    },
    {
      "inputs": [],
      "name": "name",
      "outputs": [
        {
          "internalType": "string",
          "name": "",
          "type": "string"
        }
      ],
      "stateMutability": "view",
      "type": "function"
    },
    {
      "inputs": [],
      "name": "owner",
      "outputs": [
        {
          "internalType": "address",
          "name": "",
          "type": "address"
        }
      ],
      "stateMutability": "view",
      "type": "function"
    },
    {
      "inputs": [],
      "name": "renounceOwnership",
      "outputs": [],
      "stateMutability": "nonpayable",
      "type": "function"
    },
    {
      "inputs": [],
      "name": "symbol",
      "outputs": [
        {
          "internalType": "string",
          "name": "",
          "type": "string"
        }
      ],
      "stateMutability": "view",
      "type": "function"
    },
    {
      "inputs": [],
      "name": "totalSupply",
      "outputs": [
        {
          "internalType": "uint256",
          "name": "",
          "type": "uint256"
        }
      ],
      "stateMutability": "view",
      "type": "function"
    },
    {
      "inputs": [
        {
          "internalType": "address",
          "name": "to",
          "type": "address"
        },
        {
          "internalType": "uint256",
          "name": "amount",
          "type": "uint256"
        }
      ],
      "name": "transfer",
      "outputs": [
        {
          "internalType": "bool",
          "name": "",
          "type": "bool"
        }
      ],
      "stateMutability": "nonpayable",
      "type": "function"
    },
    {
      "inputs": [
        {
          "internalType": "address",
          "name": "from",
          "type": "address"
        },
        {
          "internalType": "address",
          "name": "to",
          "type": "address"
        },
        {
          "internalType": "uint256",
          "name": "amount",
          "type": "uint256"
        }
      ],
      "name": "transferFrom",
      "outputs": [
        {
          "internalType": "bool",
          "name": "",
          "type": "bool"
        }
      ],
      "stateMutability": "nonpayable",
      "type": "function"
    },
    {
      "inputs": [
        {
          "internalType": "address",
          "name": "newOwner",
          "type": "address"
        }
      ],
      "name": "transferOwnership",
      "outputs": [],
      "stateMutability": "nonpayable",
      "type": "function"
    }
  ],
  "bytecode": "0x608060405234801561001057600080fd5b506110d0806100206000396000f3fe608060405234801561001057600080fd5b50600436106100e65760003560e01c806306fdde03146100eb578063095ea7b31461010957806318160ddd1461012c57806323b872dd1461013e578063313ce56714610151578063395093511461016057806340c10f191461017357806370a0823114610186578063715018a6146101af57806375d0c0dc146101b95780638129fc1c146101e45780638da5cb5b146101ec57806395d89b411461020c5780639dc29fac14610214578063a457c2d714610227578063a9059cbb1461023a578063dd62ed3e1461024d578063f2fde38b14610260575b600080fd5b6100f3610273565b6040516101009190610ed7565b60405180910390f35b61011c610117366004610ead565b610305565b6040519015158152602001610100565b6035545b604051908152602001610100565b61011c61014c366004610e71565b61031d565b60405160128152602001610100565b61011c61016e366004610ead565b610341565b61011c610181366004610ead565b610363565b610130610194366004610e1c565b6001600160a01b031660009081526033602052604090205490565b6101b76103b0565b005b60408051808201909152600f81526e416c6c6f7978546f6b656e4475726160881b60208201526100f3565b6101b76103eb565b6101f46104a7565b6040516001600160a01b039091168152602001610100565b6100f36104b6565b61011c610222366004610ead565b6104c5565b61011c610235366004610ead565b610500565b61011c610248366004610ead565b61057b565b61013061025b366004610e3e565b610589565b6101b761026e366004610e1c565b6105b4565b60606036805461028290611029565b80601f01602080910402602001604051908101604052809291908181526020018280546102ae90611029565b80156102fb5780601f106102d0576101008083540402835291602001916102fb565b820191906000526020600020905b8154815290600101906020018083116102de57829003601f168201915b5050505050905090565b600033610313818585610651565b5060019392505050565b60003361032b858285610776565b6103368585856107f0565b506001949350505050565b6000336103138185856103548383610589565b61035e9190610ffa565b610651565b60003361036e6104a7565b6001600160a01b03161461039d5760405162461bcd60e51b815260040161039490610f7a565b60405180910390fd5b6103a783836109ac565b50600192915050565b336103b96104a7565b6001600160a01b0316146103df5760405162461bcd60e51b815260040161039490610f7a565b6103e96000610a7a565b565b60006103f76001610acc565b9050801561040f576000805461ff0019166101001790555b610417610b59565b61045e60405180604001604052806009815260200168223ab930b63ab6b4b760b91b815250604051806040016040528060048152602001634455524160e01b815250610b88565b80156104a4576000805461ff0019169055604051600181527f7f26b83ff96e1f2b6a682f133852f6798a09c465da95921460cefb38474024989060200160405180910390a15b50565b6065546001600160a01b031690565b60606037805461028290611029565b6000336104d06104a7565b6001600160a01b0316146104f65760405162461bcd60e51b815260040161039490610f7a565b6103a78383610bb9565b6000338161050e8286610589565b90508381101561056e5760405162461bcd60e51b815260206004820152602560248201527f45524332303a2064656372656173656420616c6c6f77616e63652062656c6f77604482015264207a65726f60d81b6064820152608401610394565b6103368286868403610651565b6000336103138185856107f0565b6001600160a01b03918216600090815260346020908152604080832093909416825291909152205490565b336105bd6104a7565b6001600160a01b0316146105e35760405162461bcd60e51b815260040161039490610f7a565b6001600160a01b0381166106485760405162461bcd60e51b815260206004820152602660248201527f4f776e61626c653a206e6577206f776e657220697320746865207a65726f206160448201526564647265737360d01b6064820152608401610394565b6104a481610a7a565b6001600160a01b0383166106b35760405162461bcd60e51b8152602060048201526024808201527f45524332303a20617070726f76652066726f6d20746865207a65726f206164646044820152637265737360e01b6064820152608401610394565b6001600160a01b0382166107145760405162461bcd60e51b815260206004820152602260248201527f45524332303a20617070726f766520746f20746865207a65726f206164647265604482015261737360f01b6064820152608401610394565b6001600160a01b0383811660008181526034602090815260408083209487168084529482529182902085905590518481527f8c5be1e5ebec7d5bd14f71427d1e84f3dd0314c0f7b2291e5b200ac8c7c3b92591015b60405180910390a3505050565b60006107828484610589565b905060001981146107ea57818110156107dd5760405162461bcd60e51b815260206004820152601d60248201527f45524332303a20696e73756666696369656e7420616c6c6f77616e63650000006044820152606401610394565b6107ea8484848403610651565b50505050565b6001600160a01b0383166108545760405162461bcd60e51b815260206004820152602560248201527f45524332303a207472616e736665722066726f6d20746865207a65726f206164604482015264647265737360d81b6064820152608401610394565b6001600160a01b0382166108b65760405162461bcd60e51b815260206004820152602360248201527f45524332303a207472616e7366657220746f20746865207a65726f206164647260448201526265737360e81b6064820152608401610394565b6001600160a01b0383166000908152603360205260409020548181101561092e5760405162461bcd60e51b815260206004820152602660248201527f45524332303a207472616e7366657220616d6f756e7420657863656564732062604482015265616c616e636560d01b6064820152608401610394565b6001600160a01b03808516600090815260336020526040808220858503905591851681529081208054849290610965908490610ffa565b92505081905550826001600160a01b0316846001600160a01b031660008051602061107b8339815191528460405161099f91815260200190565b60405180910390a36107ea565b6001600160a01b038216610a025760405162461bcd60e51b815260206004820152601f60248201527f45524332303a206d696e7420746f20746865207a65726f2061646472657373006044820152606401610394565b8060356000828254610a149190610ffa565b90915550506001600160a01b03821660009081526033602052604081208054839290610a41908490610ffa565b90915550506040518181526001600160a01b0383169060009060008051602061107b8339815191529060200160405180910390a35b5050565b606580546001600160a01b038381166001600160a01b0319831681179093556040519116919082907f8be0079c531659141344cd1fd0a4f28419497f9722a3daafe3b4186f6b6457e090600090a35050565b60008054610100900460ff1615610b13578160ff166001148015610aef5750303b155b610b0b5760405162461bcd60e51b815260040161039490610f2c565b506000919050565b60005460ff808416911610610b3a5760405162461bcd60e51b815260040161039490610f2c565b506000805460ff191660ff92909216919091179055600190565b919050565b600054610100900460ff16610b805760405162461bcd60e51b815260040161039490610faf565b6103e9610cf2565b600054610100900460ff16610baf5760405162461bcd60e51b815260040161039490610faf565b610a768282610d22565b6001600160a01b038216610c195760405162461bcd60e51b815260206004820152602160248201527f45524332303a206275726e2066726f6d20746865207a65726f206164647265736044820152607360f81b6064820152608401610394565b6001600160a01b03821660009081526033602052604090205481811015610c8d5760405162461bcd60e51b815260206004820152602260248201527f45524332303a206275726e20616d6f756e7420657863656564732062616c616e604482015261636560f01b6064820152608401610394565b6001600160a01b0383166000908152603360205260408120838303905560358054849290610cbc908490611012565b90915550506040518281526000906001600160a01b0385169060008051602061107b83398151915290602001610769565b505050565b600054610100900460ff16610d195760405162461bcd60e51b815260040161039490610faf565b6103e933610a7a565b600054610100900460ff16610d495760405162461bcd60e51b815260040161039490610faf565b8151610d5c906036906020850190610d6c565b508051610ced9060379060208401905b828054610d7890611029565b90600052602060002090601f016020900481019282610d9a5760008555610de0565b82601f10610db357805160ff1916838001178555610de0565b82800160010185558215610de0579182015b82811115610de0578251825591602001919060010190610dc5565b50610dec929150610df0565b5090565b5b80821115610dec5760008155600101610df1565b80356001600160a01b0381168114610b5457600080fd5b600060208284031215610e2e57600080fd5b610e3782610e05565b9392505050565b60008060408385031215610e5157600080fd5b610e5a83610e05565b9150610e6860208401610e05565b90509250929050565b600080600060608486031215610e8657600080fd5b610e8f84610e05565b9250610e9d60208501610e05565b9150604084013590509250925092565b60008060408385031215610ec057600080fd5b610ec983610e05565b946020939093013593505050565b600060208083528351808285015260005b81811015610f0457858101830151858201604001528201610ee8565b81811115610f16576000604083870101525b50601f01601f1916929092016040019392505050565b6020808252602e908201527f496e697469616c697a61626c653a20636f6e747261637420697320616c72656160408201526d191e481a5b9a5d1a585b1a5e995960921b606082015260800190565b6020808252818101527f4f776e61626c653a2063616c6c6572206973206e6f7420746865206f776e6572604082015260600190565b6020808252602b908201527f496e697469616c697a61626c653a20636f6e7472616374206973206e6f74206960408201526a6e697469616c697a696e6760a81b606082015260800190565b6000821982111561100d5761100d611064565b500190565b60008282101561102457611024611064565b500390565b600181811c9082168061103d57607f821691505b6020821081141561105e57634e487b7160e01b600052602260045260246000fd5b50919050565b634e487b7160e01b600052601160045260246000fdfeddf252ad1be2c89b69c2b068fc378daa952ba7f163c4a11628f55a4df523b3efa26469706673582212209d0ef1a173927c2c412865a946f78d1f132c2635069d0c80577fe4106edb633664736f6c63430008070033",
  "linkReferences": {},
  "deployedLinkReferences": {}
}