{
  "address": "0xb10baB3e2ABfd84f02CdDCdBDF73f1f97f06A277",
  "_format": "hh-sol-artifact-1",
  "contractName": "AlloyxExchange",
  "sourceName": "contracts/alloyx/AlloyxExchange.sol",
  "abi": [
    {
      "anonymous": false,
      "inputs": [
        {
          "indexed": true,
          "internalType": "address",
          "name": "who",
          "type": "address"
        },
        {
          "indexed": false,
          "internalType": "address",
          "name": "configAddress",
          "type": "address"
        }
      ],
      "name": "AlloyxConfigUpdated",
      "type": "event"
    },
    {
      "anonymous": false,
      "inputs": [
        {
          "indexed": false,
          "internalType": "uint8",
          "name": "version",
          "type": "uint8"
        }
      ],
      "name": "Initialized",
      "type": "event"
    },
    {
      "anonymous": false,
      "inputs": [
        {
          "indexed": true,
          "internalType": "bytes32",
          "name": "role",
          "type": "bytes32"
        },
        {
          "indexed": true,
          "internalType": "bytes32",
          "name": "previousAdminRole",
          "type": "bytes32"
        },
        {
          "indexed": true,
          "internalType": "bytes32",
          "name": "newAdminRole",
          "type": "bytes32"
        }
      ],
      "name": "RoleAdminChanged",
      "type": "event"
    },
    {
      "anonymous": false,
      "inputs": [
        {
          "indexed": true,
          "internalType": "bytes32",
          "name": "role",
          "type": "bytes32"
        },
        {
          "indexed": true,
          "internalType": "address",
          "name": "account",
          "type": "address"
        },
        {
          "indexed": true,
          "internalType": "address",
          "name": "sender",
          "type": "address"
        }
      ],
      "name": "RoleGranted",
      "type": "event"
    },
    {
      "anonymous": false,
      "inputs": [
        {
          "indexed": true,
          "internalType": "bytes32",
          "name": "role",
          "type": "bytes32"
        },
        {
          "indexed": true,
          "internalType": "address",
          "name": "account",
          "type": "address"
        },
        {
          "indexed": true,
          "internalType": "address",
          "name": "sender",
          "type": "address"
        }
      ],
      "name": "RoleRevoked",
      "type": "event"
    },
    {
      "inputs": [],
      "name": "DEFAULT_ADMIN_ROLE",
      "outputs": [
        {
          "internalType": "bytes32",
          "name": "",
          "type": "bytes32"
        }
      ],
      "stateMutability": "view",
      "type": "function"
    },
    {
      "inputs": [
        {
          "internalType": "address",
          "name": "account",
          "type": "address"
        }
      ],
      "name": "addAdmin",
      "outputs": [],
      "stateMutability": "nonpayable",
      "type": "function"
    },
    {
      "inputs": [
        {
          "internalType": "uint256",
          "name": "_amount",
          "type": "uint256"
        }
      ],
      "name": "alloyxDuraToUsdc",
      "outputs": [
        {
          "internalType": "uint256",
          "name": "",
          "type": "uint256"
        }
      ],
      "stateMutability": "view",
      "type": "function"
    },
    {
      "inputs": [],
      "name": "config",
      "outputs": [
        {
          "internalType": "contract AlloyxConfig",
          "name": "",
          "type": "address"
        }
      ],
      "stateMutability": "view",
      "type": "function"
    },
    {
      "inputs": [],
      "name": "getFiduBalanceInUsdc",
      "outputs": [
        {
          "internalType": "uint256",
          "name": "",
          "type": "uint256"
        }
      ],
      "stateMutability": "view",
      "type": "function"
    },
    {
      "inputs": [
        {
          "internalType": "bytes32",
          "name": "role",
          "type": "bytes32"
        }
      ],
      "name": "getRoleAdmin",
      "outputs": [
        {
          "internalType": "bytes32",
          "name": "",
          "type": "bytes32"
        }
      ],
      "stateMutability": "view",
      "type": "function"
    },
    {
      "inputs": [],
      "name": "getTreasuryTotalBalanceInUsdc",
      "outputs": [
        {
          "internalType": "uint256",
          "name": "",
          "type": "uint256"
        }
      ],
      "stateMutability": "view",
      "type": "function"
    },
    {
      "inputs": [
        {
          "internalType": "bytes32",
          "name": "role",
          "type": "bytes32"
        },
        {
          "internalType": "address",
          "name": "account",
          "type": "address"
        }
      ],
      "name": "grantRole",
      "outputs": [],
      "stateMutability": "nonpayable",
      "type": "function"
    },
    {
      "inputs": [
        {
          "internalType": "bytes32",
          "name": "role",
          "type": "bytes32"
        },
        {
          "internalType": "address",
          "name": "account",
          "type": "address"
        }
      ],
      "name": "hasRole",
      "outputs": [
        {
          "internalType": "bool",
          "name": "",
          "type": "bool"
        }
      ],
      "stateMutability": "view",
      "type": "function"
    },
    {
      "inputs": [
        {
          "internalType": "address",
          "name": "_configAddress",
          "type": "address"
        }
      ],
      "name": "initialize",
      "outputs": [],
      "stateMutability": "nonpayable",
      "type": "function"
    },
    {
      "inputs": [
        {
          "internalType": "address",
          "name": "account",
          "type": "address"
        }
      ],
      "name": "isAdmin",
      "outputs": [
        {
          "internalType": "bool",
          "name": "",
          "type": "bool"
        }
      ],
      "stateMutability": "view",
      "type": "function"
    },
    {
      "inputs": [],
      "name": "renounceAdmin",
      "outputs": [],
      "stateMutability": "nonpayable",
      "type": "function"
    },
    {
      "inputs": [
        {
          "internalType": "bytes32",
          "name": "role",
          "type": "bytes32"
        },
        {
          "internalType": "address",
          "name": "account",
          "type": "address"
        }
      ],
      "name": "renounceRole",
      "outputs": [],
      "stateMutability": "nonpayable",
      "type": "function"
    },
    {
      "inputs": [
        {
          "internalType": "bytes32",
          "name": "role",
          "type": "bytes32"
        },
        {
          "internalType": "address",
          "name": "account",
          "type": "address"
        }
      ],
      "name": "revokeRole",
      "outputs": [],
      "stateMutability": "nonpayable",
      "type": "function"
    },
    {
      "inputs": [
        {
          "internalType": "bytes4",
          "name": "interfaceId",
          "type": "bytes4"
        }
      ],
      "name": "supportsInterface",
      "outputs": [
        {
          "internalType": "bool",
          "name": "",
          "type": "bool"
        }
      ],
      "stateMutability": "view",
      "type": "function"
    },
    {
      "inputs": [],
      "name": "updateConfig",
      "outputs": [],
      "stateMutability": "nonpayable",
      "type": "function"
    },
    {
      "inputs": [
        {
          "internalType": "uint256",
          "name": "_amount",
          "type": "uint256"
        }
      ],
      "name": "usdcToAlloyxDura",
      "outputs": [
        {
          "internalType": "uint256",
          "name": "",
          "type": "uint256"
        }
      ],
      "stateMutability": "view",
      "type": "function"
    }
  ],
  "bytecode": "0x608060405234801561001057600080fd5b50611361806100206000396000f3fe608060405234801561001057600080fd5b50600436106100db5760003560e01c806301ffc9a7146100e0578063248a9ca31461010857806324d7806c146101295780632f2ff15d1461013c57806330c497001461015157806336568abe146101645780634e316f26146101775780635d6de7801461017f5780637048027514610187578063747fd44c1461019a57806379502c55146101a25780638bad0c0a146101c257806391d14854146101ca578063a217fddf146101dd578063c4d66de8146101e5578063d547741f146101f8578063f1017a161461020b575b600080fd5b6100f36100ee366004610f72565b61021e565b60405190151581526020015b60405180910390f35b61011b610116366004610f29565b610255565b6040519081526020016100ff565b6100f3610137366004610eef565b61026a565b61014f61014a366004610f42565b610276565b005b61011b61015f366004610f29565b610297565b61014f610172366004610f42565b61034b565b61011b6103ce565b61011b610517565b61014f610195366004610eef565b6106ef565b61014f610722565b6097546101b5906001600160a01b031681565b6040516100ff9190611024565b61014f6107b6565b6100f36101d8366004610f42565b6107c3565b61011b600081565b61014f6101f3366004610eef565b6107ee565b61014f610206366004610f42565b61087f565b61011b610219366004610f29565b61089b565b60006001600160e01b03198216637965db0b60e01b148061024f57506301ffc9a760e01b6001600160e01b03198316145b92915050565b60009081526065602052604090206001015490565b600061024f81836107c3565b61027f82610255565b61028881610941565b610292838361094b565b505050565b60975460009081906102b1906001600160a01b03166109d1565b6001600160a01b03166318160ddd6040518163ffffffff1660e01b815260040160206040518083038186803b1580156102e957600080fd5b505afa1580156102fd573d6000803e3d6000fd5b505050506040513d601f19601f820116820180604052508101906103219190610f9c565b9050600061032d610517565b90506103438161033d86856109dc565b906109ef565b949350505050565b6001600160a01b03811633146103c05760405162461bcd60e51b815260206004820152602f60248201527f416363657373436f6e74726f6c3a2063616e206f6e6c792072656e6f756e636560448201526e103937b632b9903337b91039b2b63360891b60648201526084015b60405180910390fd5b6103ca82826109fb565b5050565b600061051261050d6103de610a62565b60975461033d906103f7906001600160a01b0316610a70565b6001600160a01b031663872697296040518163ffffffff1660e01b815260040160206040518083038186803b15801561042f57600080fd5b505afa158015610443573d6000803e3d6000fd5b505050506040513d601f19601f820116820180604052508101906104679190610f9c565b60975461047c906001600160a01b0316610a7b565b6097546001600160a01b03918216916370a082319161049b9116610a86565b6040518263ffffffff1660e01b81526004016104b79190611024565b60206040518083038186803b1580156104cf57600080fd5b505afa1580156104e3573d6000803e3d6000fd5b505050506040513d601f19601f820116820180604052508101906105079190610f9c565b906109dc565b610b07565b905090565b609754600090819061065690610535906001600160a01b0316610b26565b6001600160a01b03166352372dcb6040518163ffffffff1660e01b815260040160206040518083038186803b15801561056d57600080fd5b505afa158015610581573d6000803e3d6000fd5b505050506040513d601f19601f820116820180604052508101906105a59190610f9c565b6106506105b06103ce565b6097546105c5906001600160a01b0316610b31565b6097546001600160a01b03918216916370a08231916105e49116610a86565b6040518263ffffffff1660e01b81526004016106009190611024565b60206040518083038186803b15801561061857600080fd5b505afa15801561062c573d6000803e3d6000fd5b505050506040513d601f19601f820116820180604052508101906106509190610f9c565b90610b3c565b6097549091506106e990610672906001600160a01b0316610b48565b6001600160a01b031663972f24276040518163ffffffff1660e01b815260040160206040518083038186803b1580156106aa57600080fd5b505afa1580156106be573d6000803e3d6000fd5b505050506040513d601f19601f820116820180604052508101906106e29190610f9c565b8290610b53565b91505090565b6106f83361026a565b6107145760405162461bcd60e51b81526004016103b7906110b9565b61071f600082610276565b50565b61072b3361026a565b6107475760405162461bcd60e51b81526004016103b7906110b9565b60975461075c906001600160a01b0316610b5f565b609780546001600160a01b0319166001600160a01b0392909216918217905560405133917f2310d831a9db3a28092d0b5509a976cbeffda5294f3f321086036ed76ebd2594916107ac9190611024565b60405180910390a2565b6107c160003361034b565b565b60009182526065602090815260408084206001600160a01b0393909316845291905290205460ff1690565b60006107fa6001610b77565b90508015610812576000805461ff0019166101001790555b61081b33610bff565b609780546001600160a01b0319166001600160a01b03841617905580156103ca576000805461ff0019169055604051600181527f7f26b83ff96e1f2b6a682f133852f6798a09c465da95921460cefb38474024989060200160405180910390a15050565b61088882610255565b61089181610941565b61029283836109fb565b60975460009081906108b5906001600160a01b03166109d1565b6001600160a01b03166318160ddd6040518163ffffffff1660e01b815260040160206040518083038186803b1580156108ed57600080fd5b505afa158015610901573d6000803e3d6000fd5b505050506040513d601f19601f820116820180604052508101906109259190610f9c565b90506000610931610517565b90506103438261033d86846109dc565b61071f8133610c39565b61095582826107c3565b6103ca5760008281526065602090815260408083206001600160a01b03851684529091529020805460ff1916600117905561098d3390565b6001600160a01b0316816001600160a01b0316837f2f8788117e7eff1d82e926ec794901d17c78024a50270940304540a733656f0d60405160405180910390a45050565b600061024f82610c9d565b60006109e88284611257565b9392505050565b60006109e8828461114a565b610a0582826107c3565b156103ca5760008281526065602090815260408083206001600160a01b0385168085529252808320805460ff1916905551339285917ff6391f5c32d9c69d2a47ea670b442974b53935d1edc7fd64eb21e047a839171b9190a45050565b60006105126012600a6111af565b600061024f82610cb5565b600061024f82610ccd565b60006001600160a01b03821663b93f9b0a825b6040518263ffffffff1660e01b8152600401610ab791815260200190565b60206040518083038186803b158015610acf57600080fd5b505afa158015610ae3573d6000803e3d6000fd5b505050506040513d601f19601f8201168201806040525081019061024f9190610f0c565b600061024f610b1f610b17610ce5565b61033d610a62565b83906109ef565b600061024f82610cf3565b600061024f82610d0b565b60006109e88284611132565b600061024f82610a86565b60006109e88284611276565b60006001600160a01b03821663b93f9b0a6002610a99565b60008054610100900460ff1615610bbe578160ff166001148015610b9a5750303b155b610bb65760405162461bcd60e51b81526004016103b79061106b565b506000919050565b60005460ff808416911610610be55760405162461bcd60e51b81526004016103b79061106b565b506000805460ff191660ff92909216919091179055600190565b600054610100900460ff16610c265760405162461bcd60e51b81526004016103b7906110e7565b610c2e610d23565b61071f600082610d4a565b610c4382826107c3565b6103ca57610c5b816001600160a01b03166014610d54565b610c66836020610d54565b604051602001610c77929190610fb5565b60408051601f198184030181529082905262461bcd60e51b82526103b791600401611038565b60006001600160a01b03821663b93f9b0a600e610a99565b60006001600160a01b03821663b93f9b0a6009610a99565b60006001600160a01b03821663b93f9b0a600b610a99565b60006105126006600a6111af565b60006001600160a01b03821663b93f9b0a6003610a99565b60006001600160a01b03821663b93f9b0a600d610a99565b600054610100900460ff166107c15760405162461bcd60e51b81526004016103b7906110e7565b6103ca828261094b565b60606000610d63836002611257565b610d6e906002611132565b6001600160401b03811115610d8557610d85611300565b6040519080825280601f01601f191660200182016040528015610daf576020820181803683370190505b509050600360fc1b81600081518110610dca57610dca6112ea565b60200101906001600160f81b031916908160001a905350600f60fb1b81600181518110610df957610df96112ea565b60200101906001600160f81b031916908160001a9053506000610e1d846002611257565b610e28906001611132565b90505b6001811115610ea0576f181899199a1a9b1b9c1cb0b131b232b360811b85600f1660108110610e5c57610e5c6112ea565b1a60f81b828281518110610e7257610e726112ea565b60200101906001600160f81b031916908160001a90535060049490941c93610e99816112bd565b9050610e2b565b5083156109e85760405162461bcd60e51b815260206004820181905260248201527f537472696e67733a20686578206c656e67746820696e73756666696369656e7460448201526064016103b7565b600060208284031215610f0157600080fd5b81356109e881611316565b600060208284031215610f1e57600080fd5b81516109e881611316565b600060208284031215610f3b57600080fd5b5035919050565b60008060408385031215610f5557600080fd5b823591506020830135610f6781611316565b809150509250929050565b600060208284031215610f8457600080fd5b81356001600160e01b0319811681146109e857600080fd5b600060208284031215610fae57600080fd5b5051919050565b76020b1b1b2b9b9a1b7b73a3937b61d1030b1b1b7bab73a1604d1b815260008351610fe781601785016020880161128d565b7001034b99036b4b9b9b4b733903937b6329607d1b601791840191820152835161101881602884016020880161128d565b01602801949350505050565b6001600160a01b0391909116815260200190565b602081526000825180602084015261105781604085016020870161128d565b601f01601f19169190910160400192915050565b6020808252602e908201527f496e697469616c697a61626c653a20636f6e747261637420697320616c72656160408201526d191e481a5b9a5d1a585b1a5e995960921b606082015260800190565b6020808252601490820152735265737472696374656420746f2061646d696e7360601b604082015260600190565b6020808252602b908201527f496e697469616c697a61626c653a20636f6e7472616374206973206e6f74206960408201526a6e697469616c697a696e6760a81b606082015260800190565b60008219821115611145576111456112d4565b500190565b60008261116757634e487b7160e01b600052601260045260246000fd5b500490565b600181815b808511156111a757816000190482111561118d5761118d6112d4565b8085161561119a57918102915b93841c9390800290611171565b509250929050565b60006109e883836000826111c55750600161024f565b816111d25750600061024f565b81600181146111e857600281146111f25761120e565b600191505061024f565b60ff841115611203576112036112d4565b50506001821b61024f565b5060208310610133831016604e8410600b8410161715611231575081810a61024f565b61123b838361116c565b806000190482111561124f5761124f6112d4565b029392505050565b6000816000190483118215151615611271576112716112d4565b500290565b600082821015611288576112886112d4565b500390565b60005b838110156112a8578181015183820152602001611290565b838111156112b7576000848401525b50505050565b6000816112cc576112cc6112d4565b506000190190565b634e487b7160e01b600052601160045260246000fd5b634e487b7160e01b600052603260045260246000fd5b634e487b7160e01b600052604160045260246000fd5b6001600160a01b038116811461071f57600080fdfea264697066735822122054dc50a96d181040067ea566d6a101f76baad212401bb75ebd38a3e659fabb2264736f6c63430008070033",
  "linkReferences": {},
  "deployedLinkReferences": {}
}