{
  "address": "0x6C8c8507406Fe71eBdb4F170511d7F636bb44750",
  "_format": "hh-sol-artifact-1",
  "contractName": "AlloyxConfig",
  "sourceName": "contracts/alloyx/AlloyxConfig.sol",
  "abi": [
    {
      "anonymous": false,
      "inputs": [
        {
          "indexed": false,
          "internalType": "address",
          "name": "owner",
          "type": "address"
        },
        {
          "indexed": false,
          "internalType": "uint256",
          "name": "index",
          "type": "uint256"
        },
        {
          "indexed": false,
          "internalType": "address",
          "name": "oldValue",
          "type": "address"
        },
        {
          "indexed": false,
          "internalType": "address",
          "name": "newValue",
          "type": "address"
        }
      ],
      "name": "AddressUpdated",
      "type": "event"
    },
    {
      "anonymous": false,
      "inputs": [
        {
          "indexed": false,
          "internalType": "uint8",
          "name": "version",
          "type": "uint8"
        }
      ],
      "name": "Initialized",
      "type": "event"
    },
    {
      "anonymous": false,
      "inputs": [
        {
          "indexed": false,
          "internalType": "address",
          "name": "owner",
          "type": "address"
        },
        {
          "indexed": false,
          "internalType": "uint256",
          "name": "index",
          "type": "uint256"
        },
        {
          "indexed": false,
          "internalType": "uint256",
          "name": "oldValue",
          "type": "uint256"
        },
        {
          "indexed": false,
          "internalType": "uint256",
          "name": "newValue",
          "type": "uint256"
        }
      ],
      "name": "NumberUpdated",
      "type": "event"
    },
    {
      "anonymous": false,
      "inputs": [
        {
          "indexed": true,
          "internalType": "bytes32",
          "name": "role",
          "type": "bytes32"
        },
        {
          "indexed": true,
          "internalType": "bytes32",
          "name": "previousAdminRole",
          "type": "bytes32"
        },
        {
          "indexed": true,
          "internalType": "bytes32",
          "name": "newAdminRole",
          "type": "bytes32"
        }
      ],
      "name": "RoleAdminChanged",
      "type": "event"
    },
    {
      "anonymous": false,
      "inputs": [
        {
          "indexed": true,
          "internalType": "bytes32",
          "name": "role",
          "type": "bytes32"
        },
        {
          "indexed": true,
          "internalType": "address",
          "name": "account",
          "type": "address"
        },
        {
          "indexed": true,
          "internalType": "address",
          "name": "sender",
          "type": "address"
        }
      ],
      "name": "RoleGranted",
      "type": "event"
    },
    {
      "anonymous": false,
      "inputs": [
        {
          "indexed": true,
          "internalType": "bytes32",
          "name": "role",
          "type": "bytes32"
        },
        {
          "indexed": true,
          "internalType": "address",
          "name": "account",
          "type": "address"
        },
        {
          "indexed": true,
          "internalType": "address",
          "name": "sender",
          "type": "address"
        }
      ],
      "name": "RoleRevoked",
      "type": "event"
    },
    {
      "inputs": [],
      "name": "DEFAULT_ADMIN_ROLE",
      "outputs": [
        {
          "internalType": "bytes32",
          "name": "",
          "type": "bytes32"
        }
      ],
      "stateMutability": "view",
      "type": "function"
    },
    {
      "inputs": [
        {
          "internalType": "address",
          "name": "account",
          "type": "address"
        }
      ],
      "name": "addAdmin",
      "outputs": [],
      "stateMutability": "nonpayable",
      "type": "function"
    },
    {
      "inputs": [
        {
          "internalType": "uint256",
          "name": "",
          "type": "uint256"
        }
      ],
      "name": "addresses",
      "outputs": [
        {
          "internalType": "address",
          "name": "",
          "type": "address"
        }
      ],
      "stateMutability": "view",
      "type": "function"
    },
    {
      "inputs": [
        {
          "internalType": "address",
          "name": "_initialConfig",
          "type": "address"
        },
        {
          "internalType": "uint256",
          "name": "numbersLength",
          "type": "uint256"
        },
        {
          "internalType": "uint256",
          "name": "addressesLength",
          "type": "uint256"
        }
      ],
      "name": "copyFromOtherConfig",
      "outputs": [],
      "stateMutability": "nonpayable",
      "type": "function"
    },
    {
      "inputs": [
        {
          "internalType": "uint256",
          "name": "index",
          "type": "uint256"
        }
      ],
      "name": "getAddress",
      "outputs": [
        {
          "internalType": "address",
          "name": "",
          "type": "address"
        }
      ],
      "stateMutability": "view",
      "type": "function"
    },
    {
      "inputs": [
        {
          "internalType": "uint256",
          "name": "index",
          "type": "uint256"
        }
      ],
      "name": "getNumber",
      "outputs": [
        {
          "internalType": "uint256",
          "name": "",
          "type": "uint256"
        }
      ],
      "stateMutability": "view",
      "type": "function"
    },
    {
      "inputs": [
        {
          "internalType": "bytes32",
          "name": "role",
          "type": "bytes32"
        }
      ],
      "name": "getRoleAdmin",
      "outputs": [
        {
          "internalType": "bytes32",
          "name": "",
          "type": "bytes32"
        }
      ],
      "stateMutability": "view",
      "type": "function"
    },
    {
      "inputs": [
        {
          "internalType": "bytes32",
          "name": "role",
          "type": "bytes32"
        },
        {
          "internalType": "address",
          "name": "account",
          "type": "address"
        }
      ],
      "name": "grantRole",
      "outputs": [],
      "stateMutability": "nonpayable",
      "type": "function"
    },
    {
      "inputs": [
        {
          "internalType": "bytes32",
          "name": "role",
          "type": "bytes32"
        },
        {
          "internalType": "address",
          "name": "account",
          "type": "address"
        }
      ],
      "name": "hasRole",
      "outputs": [
        {
          "internalType": "bool",
          "name": "",
          "type": "bool"
        }
      ],
      "stateMutability": "view",
      "type": "function"
    },
    {
      "inputs": [],
      "name": "initialize",
      "outputs": [],
      "stateMutability": "nonpayable",
      "type": "function"
    },
    {
      "inputs": [
        {
          "internalType": "address",
          "name": "account",
          "type": "address"
        }
      ],
      "name": "isAdmin",
      "outputs": [
        {
          "internalType": "bool",
          "name": "",
          "type": "bool"
        }
      ],
      "stateMutability": "view",
      "type": "function"
    },
    {
      "inputs": [
        {
          "internalType": "uint256",
          "name": "",
          "type": "uint256"
        }
      ],
      "name": "numbers",
      "outputs": [
        {
          "internalType": "uint256",
          "name": "",
          "type": "uint256"
        }
      ],
      "stateMutability": "view",
      "type": "function"
    },
    {
      "inputs": [],
      "name": "renounceAdmin",
      "outputs": [],
      "stateMutability": "nonpayable",
      "type": "function"
    },
    {
      "inputs": [
        {
          "internalType": "bytes32",
          "name": "role",
          "type": "bytes32"
        },
        {
          "internalType": "address",
          "name": "account",
          "type": "address"
        }
      ],
      "name": "renounceRole",
      "outputs": [],
      "stateMutability": "nonpayable",
      "type": "function"
    },
    {
      "inputs": [
        {
          "internalType": "bytes32",
          "name": "role",
          "type": "bytes32"
        },
        {
          "internalType": "address",
          "name": "account",
          "type": "address"
        }
      ],
      "name": "revokeRole",
      "outputs": [],
      "stateMutability": "nonpayable",
      "type": "function"
    },
    {
      "inputs": [
        {
          "internalType": "uint256",
          "name": "addressIndex",
          "type": "uint256"
        },
        {
          "internalType": "address",
          "name": "newAddress",
          "type": "address"
        }
      ],
      "name": "setAddress",
      "outputs": [],
      "stateMutability": "nonpayable",
      "type": "function"
    },
    {
      "inputs": [
        {
          "internalType": "uint256",
          "name": "index",
          "type": "uint256"
        },
        {
          "internalType": "uint256",
          "name": "newNumber",
          "type": "uint256"
        }
      ],
      "name": "setNumber",
      "outputs": [],
      "stateMutability": "nonpayable",
      "type": "function"
    },
    {
      "inputs": [
        {
          "internalType": "bytes4",
          "name": "interfaceId",
          "type": "bytes4"
        }
      ],
      "name": "supportsInterface",
      "outputs": [
        {
          "internalType": "bool",
          "name": "",
          "type": "bool"
        }
      ],
      "stateMutability": "view",
      "type": "function"
    }
  ],
  "bytecode": "0x608060405234801561001057600080fd5b50610f01806100206000396000f3fe608060405234801561001057600080fd5b50600436106100e65760003560e01c806301ffc9a7146100eb578063248a9ca31461011357806324d7806c1461013457806326cd56b3146101475780632f2ff15d1461015c57806336568abe1461016f5780636b19e8c71461018257806370480275146101955780638129fc1c146101a85780638bad0c0a146101b057806391d14854146101b8578063a217fddf146101cb578063ac4ce2c6146101d3578063b93f9b0a146101e6578063d39fa23314610211578063d547741f14610231578063edf26d9b14610244578063fc5636581461026d575b600080fd5b6100fe6100f9366004610c0d565b61028d565b60405190151581526020015b60405180910390f35b610126610121366004610bc4565b6102c4565b60405190815260200161010a565b6100fe610142366004610b55565b6102d9565b61015a610155366004610b8f565b6102e5565b005b61015a61016a366004610bdd565b610470565b61015a61017d366004610bdd565b610491565b61015a610190366004610c50565b61050f565b61015a6101a3366004610b55565b61059b565b61015a6105ce565b61015a610643565b6100fe6101c6366004610bdd565b610650565b610126600081565b61015a6101e1366004610bdd565b61067b565b6101f96101f4366004610bc4565b61072e565b6040516001600160a01b03909116815260200161010a565b61012661021f366004610bc4565b60986020526000908152604090205481565b61015a61023f366004610bdd565b610749565b6101f9610252366004610bc4565b6097602052600090815260409020546001600160a01b031681565b61012661027b366004610bc4565b60009081526098602052604090205490565b60006001600160e01b03198216637965db0b60e01b14806102be57506301ffc9a760e01b6001600160e01b03198316145b92915050565b60009081526065602052604090206001015490565b60006102be8183610650565b6102ee336102d9565b6103135760405162461bcd60e51b815260040161030a90610d62565b60405180910390fd5b8260005b838110156103b157604051631f8ac6cb60e31b81526004810182905261039f9082906001600160a01b0385169063fc56365890602401602060405180830381600087803b15801561036757600080fd5b505af115801561037b573d6000803e3d6000fd5b505050506040513d601f19601f820116820180604052508101906101909190610c37565b806103a981610e59565b915050610317565b5060005b828110156104695760006103c88261072e565b6001600160a01b0316141561045757604051635c9fcd8560e11b8152600481018290526104579082906001600160a01b0385169063b93f9b0a90602401602060405180830381600087803b15801561041f57600080fd5b505af1158015610433573d6000803e3d6000fd5b505050506040513d601f19601f820116820180604052508101906101e19190610b72565b8061046181610e59565b9150506103b5565b5050505050565b610479826102c4565b61048281610765565b61048c838361076f565b505050565b6001600160a01b03811633146105015760405162461bcd60e51b815260206004820152602f60248201527f416363657373436f6e74726f6c3a2063616e206f6e6c792072656e6f756e636560448201526e103937b632b9903337b91039b2b63360891b606482015260840161030a565b61050b82826107f5565b5050565b610518336102d9565b6105345760405162461bcd60e51b815260040161030a90610d62565b600082815260986020908152604091829020548251338152918201859052818301526060810183905290517f6b54a1d7321bc1699c15f7f585030864b02ca971590f31de4acbb60eff0758c09181900360800190a160009182526098602052604090912055565b6105a4336102d9565b6105c05760405162461bcd60e51b815260040161030a90610d62565b6105cb600082610470565b50565b60006105da600161085c565b905080156105f2576000805461ff0019166101001790555b6105fb336108e4565b80156105cb576000805461ff0019169055604051600181527f7f26b83ff96e1f2b6a682f133852f6798a09c465da95921460cefb38474024989060200160405180910390a150565b61064e600033610491565b565b60009182526065602090815260408084206001600160a01b0393909316845291905290205460ff1690565b610684336102d9565b6106a05760405162461bcd60e51b815260040161030a90610d62565b6000828152609760209081526040918290205482513381529182018590526001600160a01b03908116828401528316606082015290517faebfad0d8db62d5b2e540f64d7c2be34ded04171b48ed6655286c392a879bf6c9181900360800190a160009182526097602052604090912080546001600160a01b0319166001600160a01b03909216919091179055565b6000908152609760205260409020546001600160a01b031690565b610752826102c4565b61075b81610765565b61048c83836107f5565b6105cb813361091e565b6107798282610650565b61050b5760008281526065602090815260408083206001600160a01b03851684529091529020805460ff191660011790556107b13390565b6001600160a01b0316816001600160a01b0316837f2f8788117e7eff1d82e926ec794901d17c78024a50270940304540a733656f0d60405160405180910390a45050565b6107ff8282610650565b1561050b5760008281526065602090815260408083206001600160a01b0385168085529252808320805460ff1916905551339285917ff6391f5c32d9c69d2a47ea670b442974b53935d1edc7fd64eb21e047a839171b9190a45050565b60008054610100900460ff16156108a3578160ff16600114801561087f5750303b155b61089b5760405162461bcd60e51b815260040161030a90610d14565b506000919050565b60005460ff8084169116106108ca5760405162461bcd60e51b815260040161030a90610d14565b506000805460ff191660ff92909216919091179055600190565b600054610100900460ff1661090b5760405162461bcd60e51b815260040161030a90610d90565b610913610982565b6105cb6000826109a9565b6109288282610650565b61050b57610940816001600160a01b031660146109b3565b61094b8360206109b3565b60405160200161095c929190610c72565b60408051601f198184030181529082905262461bcd60e51b825261030a91600401610ce1565b600054610100900460ff1661064e5760405162461bcd60e51b815260040161030a90610d90565b61050b828261076f565b606060006109c2836002610df3565b6109cd906002610ddb565b6001600160401b038111156109e4576109e4610ea0565b6040519080825280601f01601f191660200182016040528015610a0e576020820181803683370190505b509050600360fc1b81600081518110610a2957610a29610e8a565b60200101906001600160f81b031916908160001a905350600f60fb1b81600181518110610a5857610a58610e8a565b60200101906001600160f81b031916908160001a9053506000610a7c846002610df3565b610a87906001610ddb565b90505b6001811115610aff576f181899199a1a9b1b9c1cb0b131b232b360811b85600f1660108110610abb57610abb610e8a565b1a60f81b828281518110610ad157610ad1610e8a565b60200101906001600160f81b031916908160001a90535060049490941c93610af881610e42565b9050610a8a565b508315610b4e5760405162461bcd60e51b815260206004820181905260248201527f537472696e67733a20686578206c656e67746820696e73756666696369656e74604482015260640161030a565b9392505050565b600060208284031215610b6757600080fd5b8135610b4e81610eb6565b600060208284031215610b8457600080fd5b8151610b4e81610eb6565b600080600060608486031215610ba457600080fd5b8335610baf81610eb6565b95602085013595506040909401359392505050565b600060208284031215610bd657600080fd5b5035919050565b60008060408385031215610bf057600080fd5b823591506020830135610c0281610eb6565b809150509250929050565b600060208284031215610c1f57600080fd5b81356001600160e01b031981168114610b4e57600080fd5b600060208284031215610c4957600080fd5b5051919050565b60008060408385031215610c6357600080fd5b50508035926020909101359150565b76020b1b1b2b9b9a1b7b73a3937b61d1030b1b1b7bab73a1604d1b815260008351610ca4816017850160208801610e12565b7001034b99036b4b9b9b4b733903937b6329607d1b6017918401918201528351610cd5816028840160208801610e12565b01602801949350505050565b6020815260008251806020840152610d00816040850160208701610e12565b601f01601f19169190910160400192915050565b6020808252602e908201527f496e697469616c697a61626c653a20636f6e747261637420697320616c72656160408201526d191e481a5b9a5d1a585b1a5e995960921b606082015260800190565b6020808252601490820152735265737472696374656420746f2061646d696e7360601b604082015260600190565b6020808252602b908201527f496e697469616c697a61626c653a20636f6e7472616374206973206e6f74206960408201526a6e697469616c697a696e6760a81b606082015260800190565b60008219821115610dee57610dee610e74565b500190565b6000816000190483118215151615610e0d57610e0d610e74565b500290565b60005b83811015610e2d578181015183820152602001610e15565b83811115610e3c576000848401525b50505050565b600081610e5157610e51610e74565b506000190190565b6000600019821415610e6d57610e6d610e74565b5060010190565b634e487b7160e01b600052601160045260246000fd5b634e487b7160e01b600052603260045260246000fd5b634e487b7160e01b600052604160045260246000fd5b6001600160a01b03811681146105cb57600080fdfea2646970667358221220c86e2ad9c4bb786974e8dfd7d255a6c8fa943550d21213213a300cb9ebce547164736f6c63430008070033",
  "linkReferences": {},
  "deployedLinkReferences": {}
}