{
  "address": "0xb3a243f5DD43BF2aa4837cB8F27d321e5099c1c9",
  "abi": [
    {
      "inputs": [
        {
          "internalType": "address",
          "name": "_vaultAddress",
          "type": "address"
        }
      ],
      "stateMutability": "nonpayable",
      "type": "constructor"
    },
    {
      "anonymous": false,
      "inputs": [
        {
          "indexed": true,
          "internalType": "address",
          "name": "previousOwner",
          "type": "address"
        },
        {
          "indexed": true,
          "internalType": "address",
          "name": "newOwner",
          "type": "address"
        }
      ],
      "name": "OwnershipTransferred",
      "type": "event"
    },
    {
      "anonymous": false,
      "inputs": [
        {
          "indexed": false,
          "internalType": "string",
          "name": "_field",
          "type": "string"
        },
        {
          "indexed": false,
          "internalType": "uint256",
          "name": "_value",
          "type": "uint256"
        }
      ],
      "name": "SetField",
      "type": "event"
    },
    {
      "inputs": [
        {
          "internalType": "address",
          "name": "_staker",
          "type": "address"
        },
        {
          "internalType": "uint256",
          "name": "_stake",
          "type": "uint256"
        }
      ],
      "name": "addStake",
      "outputs": [],
      "stateMutability": "nonpayable",
      "type": "function"
    },
    {
      "inputs": [
        {
          "internalType": "address",
          "name": "_vaultAddress",
          "type": "address"
        }
      ],
      "name": "changeVaultAddress",
      "outputs": [],
      "stateMutability": "nonpayable",
      "type": "function"
    },
    {
      "inputs": [
        {
          "internalType": "address",
          "name": "_receiver",
          "type": "address"
        }
      ],
      "name": "claimableCRWNToken",
      "outputs": [
        {
          "internalType": "uint256",
          "name": "",
          "type": "uint256"
        }
      ],
      "stateMutability": "view",
      "type": "function"
    },
    {
      "inputs": [
        {
          "internalType": "address",
          "name": "_address",
          "type": "address"
        }
      ],
      "name": "isStakeholder",
      "outputs": [
        {
          "internalType": "bool",
          "name": "",
          "type": "bool"
        }
      ],
      "stateMutability": "view",
      "type": "function"
    },
    {
      "inputs": [],
      "name": "owner",
      "outputs": [
        {
          "internalType": "address",
          "name": "",
          "type": "address"
        }
      ],
      "stateMutability": "view",
      "type": "function"
    },
    {
      "inputs": [],
      "name": "percentageRewardPerYear",
      "outputs": [
        {
          "internalType": "uint256",
          "name": "",
          "type": "uint256"
        }
      ],
      "stateMutability": "view",
      "type": "function"
    },
    {
      "inputs": [
        {
          "internalType": "address",
          "name": "_staker",
          "type": "address"
        },
        {
          "internalType": "uint256",
          "name": "_stake",
          "type": "uint256"
        }
      ],
      "name": "removeStake",
      "outputs": [],
      "stateMutability": "nonpayable",
      "type": "function"
    },
    {
      "inputs": [],
      "name": "renounceOwnership",
      "outputs": [],
      "stateMutability": "nonpayable",
      "type": "function"
    },
    {
      "inputs": [
        {
          "internalType": "address",
          "name": "_staker",
          "type": "address"
        },
        {
          "internalType": "uint256",
          "name": "_reward",
          "type": "uint256"
        }
      ],
      "name": "resetStakeTimestampWithRewardLeft",
      "outputs": [],
      "stateMutability": "nonpayable",
      "type": "function"
    },
    {
      "inputs": [
        {
          "internalType": "uint256",
          "name": "_percentageRewardPerYear",
          "type": "uint256"
        }
      ],
      "name": "setPercentageRewardPerYear",
      "outputs": [],
      "stateMutability": "nonpayable",
      "type": "function"
    },
    {
      "inputs": [
        {
          "internalType": "address",
          "name": "_stakeholder",
          "type": "address"
        }
      ],
      "name": "stakeOf",
      "outputs": [
        {
          "components": [
            {
              "internalType": "uint256",
              "name": "amount",
              "type": "uint256"
            },
            {
              "internalType": "uint256",
              "name": "since",
              "type": "uint256"
            }
          ],
          "internalType": "struct AlloyxStakeInfo.StakeInfo",
          "name": "",
          "type": "tuple"
        }
      ],
      "stateMutability": "view",
      "type": "function"
    },
    {
      "inputs": [],
      "name": "totalClaimableCRWNToken",
      "outputs": [
        {
          "internalType": "uint256",
          "name": "",
          "type": "uint256"
        }
      ],
      "stateMutability": "view",
      "type": "function"
    },
    {
      "inputs": [],
      "name": "totalPastRedeemableReward",
      "outputs": [
        {
          "internalType": "uint256",
          "name": "",
          "type": "uint256"
        }
      ],
      "stateMutability": "view",
      "type": "function"
    },
    {
      "inputs": [
        {
          "internalType": "address",
          "name": "newOwner",
          "type": "address"
        }
      ],
      "name": "transferOwnership",
      "outputs": [],
      "stateMutability": "nonpayable",
      "type": "function"
    }
  ],
  "transactionHash": "0x74236bd368ab59d9660cda3432cc3b3af712e79d7363d7138ed37c45e5e4027b",
  "args": [
    "0x0000000000000000000000000000000000000000"
  ],
  "numDeployments": 1,
  "solcInputHash": "38472ce1e4577c192ec978c81f70b057",
  "bytecode": "0x6080604052600260015534801561001557600080fd5b50604051610cb7380380610cb7833981016040819052610034916100b2565b61003d33610062565b600380546001600160a01b0319166001600160a01b03929092169190911790556100e2565b600080546001600160a01b038381166001600160a01b0319831681178455604051919092169283917f8be0079c531659141344cd1fd0a4f28419497f9722a3daafe3b4186f6b6457e09190a35050565b6000602082840312156100c457600080fd5b81516001600160a01b03811681146100db57600080fd5b9392505050565b610bc6806100f16000396000f3fe608060405234801561001057600080fd5b50600436106100ba5760003560e01c80632456a11d146100bf57806342623360146100d45780634d8d595c146101075780635c76870b1461011a5780636374299e1461013157806364cdc99e1461014457806368ce7d8a1461014c578063715018a61461015f578063816c1acd146101675780638da5cb5b1461017a578063c763f2161461019a578063dabb98aa146101ad578063ef037b90146101b6578063f2fde38b146101f2575b600080fd5b6100d26100cd366004610a76565b610205565b005b6100e76100e2366004610a31565b6102a5565b604080518251815260209283015192810192909252015b60405180910390f35b6100d2610115366004610a4c565b6102ec565b61012360025481565b6040519081526020016100fe565b6100d261013f366004610a4c565b610345565b610123610429565b6100d261015a366004610a4c565b61045f565b6100d26105a6565b610123610175366004610a31565b6105e1565b610182610622565b6040516001600160a01b0390911681526020016100fe565b6100d26101a8366004610a31565b610631565b61012360015481565b6101e26101c4366004610a31565b6001600160a01b031660009081526006602052604090205460ff1690565b60405190151581526020016100fe565b6100d2610200366004610a31565b610682565b3361020e610622565b6001600160a01b03161461023d5760405162461bcd60e51b815260040161023490610ad5565b60405180910390fd5b600181905560408051818152601781830152763832b931b2b73a30b3b2a932bbb0b9322832b92cb2b0b960491b60608201526020810183905290517f272c29cfb1538e15f8105c58381747783d06b2021a4fcf849c274927396e1c379181900360800190a150565b6040805180820190915260008082526020820152506001600160a01b0316600090815260056020908152604091829020825180840190935280548352600101549082015290565b6003546001600160a01b031633146103165760405162461bcd60e51b815260040161023490610a8f565b61031f82610722565b61032982826107ae565b6001600160a01b03909116600090815260046020526040902055565b6003546001600160a01b0316331461036f5760405162461bcd60e51b815260040161023490610a8f565b6001600160a01b0382166000908152600560205260409020546103955761039582610833565b6001600160a01b03821660009081526005602052604090206103b8908390610857565b6040805180820182526001600160a01b03841660009081526005602052919091205481906103e690846108c2565b8152426020918201526001600160a01b0384166000908152600582526040812083518155929091015160019092019190915561042590829080806108ce565b5050565b60025460408051808201909152600754815260085460208201526000919061045090610958565b61045a9190610b0a565b905090565b6003546001600160a01b031633146104895760405162461bcd60e51b815260040161023490610a8f565b80610493836102a5565b5110156104f15760405162461bcd60e51b815260206004820152602660248201527f557365722068617320696e73756666696369656e74206475726120636f696e206044820152651cdd185ad95960d21b6064820152608401610234565b6001600160a01b0382166000908152600560205260409020546105175761051782610833565b6001600160a01b038216600090815260056020526040902061053a908390610857565b6040805180820182526001600160a01b038416600090815260056020529190912054819061056890846109a1565b8152426020918201526001600160a01b03841660009081526005825260408120835181559290910151600190920191909155610425908281806108ce565b336105af610622565b6001600160a01b0316146105d55760405162461bcd60e51b815260040161023490610ad5565b6105df60006109ad565b565b6000806105ed836102a5565b90506105f881610958565b6001600160a01b03841660009081526004602052604090205461061b9190610b0a565b9392505050565b6000546001600160a01b031690565b3361063a610622565b6001600160a01b0316146106605760405162461bcd60e51b815260040161023490610ad5565b600380546001600160a01b0319166001600160a01b0392909216919091179055565b3361068b610622565b6001600160a01b0316146106b15760405162461bcd60e51b815260040161023490610ad5565b6001600160a01b0381166107165760405162461bcd60e51b815260206004820152602660248201527f4f776e61626c653a206e6577206f776e657220697320746865207a65726f206160448201526564647265737360d01b6064820152608401610234565b61071f816109ad565b50565b6001600160a01b0381166000908152600560205260409020546107485761074881610833565b6001600160a01b038116600090815260056020526040902061076b908290610857565b6040805180820182526001600160a01b03909216600081815260056020818152938220805486524285870190815293909252909252915181559051600190910155565b6001600160a01b038216600090815260046020526040812054819083116107f9576001600160a01b0384166000908152600460205260409020546107f290846109a1565b9050610820565b6001600160a01b03841660009081526004602052604090205461081d9084906109a1565b91505b61082d60008084846108ce565b50505050565b6001600160a01b03166000908152600660205260409020805460ff19166001179055565b60408051808201909152815481526001820154602082015260009061087b90610958565b6001600160a01b0384166000908152600460205260409020549091506108a190826108c2565b6001600160a01b039093166000908152600460205260409020929092555050565b600061061b8284610b0a565b60408051808201909152600754815260085460208201526000906108f190610958565b60025490915061090190826108c2565b600281905561091c90839061091690866108c2565b906109a1565b60025560408051808201909152600754819061093e908790610916908a6108c2565b815242602091820152815160075501516008555050505050565b600061099b6301e13380610995606461099560015461098f6109878960200151426109a190919063ffffffff16565b8951906109fd565b906109fd565b90610a09565b92915050565b600061061b8284610b63565b600080546001600160a01b038381166001600160a01b0319831681178455604051919092169283917f8be0079c531659141344cd1fd0a4f28419497f9722a3daafe3b4186f6b6457e09190a35050565b600061061b8284610b44565b600061061b8284610b22565b80356001600160a01b0381168114610a2c57600080fd5b919050565b600060208284031215610a4357600080fd5b61061b82610a15565b60008060408385031215610a5f57600080fd5b610a6883610a15565b946020939093013593505050565b600060208284031215610a8857600080fd5b5035919050565b60208082526026908201527f5468652066756e6374696f6e206d7573742062652063616c6c65642066726f6d604082015265081d985d5b1d60d21b606082015260800190565b6020808252818101527f4f776e61626c653a2063616c6c6572206973206e6f7420746865206f776e6572604082015260600190565b60008219821115610b1d57610b1d610b7a565b500190565b600082610b3f57634e487b7160e01b600052601260045260246000fd5b500490565b6000816000190483118215151615610b5e57610b5e610b7a565b500290565b600082821015610b7557610b75610b7a565b500390565b634e487b7160e01b600052601160045260246000fdfea2646970667358221220e85aacdd6e5e9606d5033a7d3831f1db9a824a219b8584947a936f47cc2cae0564736f6c63430008070033",
  "devdoc": {
    "author": "AlloyX",
    "kind": "dev",
    "methods": {
      "addStake(address,uint256)": {
        "params": {
          "_stake": "The size of the stake to be created.",
          "_staker": "The person intending to stake"
        }
      },
      "changeVaultAddress(address)": {
        "params": {
          "_vaultAddress": "The address to change to"
        }
      },
      "claimableCRWNToken(address)": {
        "params": {
          "_receiver": "the address of receiver"
        }
      },
      "isStakeholder(address)": {
        "params": {
          "_address": "The address to verify."
        },
        "returns": {
          "_0": "bool Whether the address is a stakeholder, and if so its position in the stakeholders array."
        }
      },
      "owner()": {
        "details": "Returns the address of the current owner."
      },
      "removeStake(address,uint256)": {
        "params": {
          "_stake": "The size of the stake to be removed.",
          "_staker": "The person intending to remove stake"
        }
      },
      "renounceOwnership()": {
        "details": "Leaves the contract without owner. It will not be possible to call `onlyOwner` functions anymore. Can only be called by the current owner. NOTE: Renouncing ownership will leave the contract without an owner, thereby removing any functionality that is only available to the owner."
      },
      "resetStakeTimestampWithRewardLeft(address,uint256)": {
        "params": {
          "_reward": "the leftover reward the staker owns",
          "_staker": "the address of the staker"
        }
      },
      "setPercentageRewardPerYear(uint256)": {
        "params": {
          "_percentageRewardPerYear": "the reward per year in percentage"
        }
      },
      "stakeOf(address)": {
        "params": {
          "_stakeholder": "The stakeholder to retrieve the stake for."
        },
        "returns": {
          "_0": "Stake The amount staked and the time since when it's staked."
        }
      },
      "transferOwnership(address)": {
        "details": "Transfers ownership of the contract to a new account (`newOwner`). Can only be called by the current owner."
      }
    },
    "title": "AlloyX Stake Info",
    "version": 1
  },
  "userdoc": {
    "kind": "user",
    "methods": {
      "addStake(address,uint256)": {
        "notice": "Add stake for a staker"
      },
      "changeVaultAddress(address)": {
        "notice": "Change the vault address"
      },
      "claimableCRWNToken(address)": {
        "notice": "Claimable CRWN token amount of an address"
      },
      "isStakeholder(address)": {
        "notice": "Check if an address is a stakeholder."
      },
      "removeStake(address,uint256)": {
        "notice": "Remove stake for a staker"
      },
      "resetStakeTimestampWithRewardLeft(address,uint256)": {
        "notice": "A method for a stakeholder to clear a stake with some leftover reward"
      },
      "setPercentageRewardPerYear(uint256)": {
        "notice": "Set percentageRewardPerYear which is the reward per year in percentage"
      },
      "stakeOf(address)": {
        "notice": "Retrieve the stake for a stakeholder."
      },
      "totalClaimableCRWNToken()": {
        "notice": "Total claimable CRWN tokens of all stakeholders"
      }
    },
    "version": 1
  },
  "storageLayout": {
    "storage": [
      {
        "astId": 1672,
        "contract": "contracts/alloyx/AlloyxStakeInfo.sol:AlloyxStakeInfo",
        "label": "_owner",
        "offset": 0,
        "slot": "0",
        "type": "t_address"
      },
      {
        "astId": 6431,
        "contract": "contracts/alloyx/AlloyxStakeInfo.sol:AlloyxStakeInfo",
        "label": "percentageRewardPerYear",
        "offset": 0,
        "slot": "1",
        "type": "t_uint256"
      },
      {
        "astId": 6433,
        "contract": "contracts/alloyx/AlloyxStakeInfo.sol:AlloyxStakeInfo",
        "label": "totalPastRedeemableReward",
        "offset": 0,
        "slot": "2",
        "type": "t_uint256"
      },
      {
        "astId": 6435,
        "contract": "contracts/alloyx/AlloyxStakeInfo.sol:AlloyxStakeInfo",
        "label": "vaultAddress",
        "offset": 0,
        "slot": "3",
        "type": "t_address"
      },
      {
        "astId": 6439,
        "contract": "contracts/alloyx/AlloyxStakeInfo.sol:AlloyxStakeInfo",
        "label": "pastRedeemableReward",
        "offset": 0,
        "slot": "4",
        "type": "t_mapping(t_address,t_uint256)"
      },
      {
        "astId": 6444,
        "contract": "contracts/alloyx/AlloyxStakeInfo.sol:AlloyxStakeInfo",
        "label": "stakesMapping",
        "offset": 0,
        "slot": "5",
        "type": "t_mapping(t_address,t_struct(StakeInfo)6428_storage)"
      },
      {
        "astId": 6448,
        "contract": "contracts/alloyx/AlloyxStakeInfo.sol:AlloyxStakeInfo",
        "label": "stakeholderMap",
        "offset": 0,
        "slot": "6",
        "type": "t_mapping(t_address,t_bool)"
      },
      {
        "astId": 6451,
        "contract": "contracts/alloyx/AlloyxStakeInfo.sol:AlloyxStakeInfo",
        "label": "totalActiveStake",
        "offset": 0,
        "slot": "7",
        "type": "t_struct(StakeInfo)6428_storage"
      }
    ],
    "types": {
      "t_address": {
        "encoding": "inplace",
        "label": "address",
        "numberOfBytes": "20"
      },
      "t_bool": {
        "encoding": "inplace",
        "label": "bool",
        "numberOfBytes": "1"
      },
      "t_mapping(t_address,t_bool)": {
        "encoding": "mapping",
        "key": "t_address",
        "label": "mapping(address => bool)",
        "numberOfBytes": "32",
        "value": "t_bool"
      },
      "t_mapping(t_address,t_struct(StakeInfo)6428_storage)": {
        "encoding": "mapping",
        "key": "t_address",
        "label": "mapping(address => struct AlloyxStakeInfo.StakeInfo)",
        "numberOfBytes": "32",
        "value": "t_struct(StakeInfo)6428_storage"
      },
      "t_mapping(t_address,t_uint256)": {
        "encoding": "mapping",
        "key": "t_address",
        "label": "mapping(address => uint256)",
        "numberOfBytes": "32",
        "value": "t_uint256"
      },
      "t_struct(StakeInfo)6428_storage": {
        "encoding": "inplace",
        "label": "struct AlloyxStakeInfo.StakeInfo",
        "members": [
          {
            "astId": 6425,
            "contract": "contracts/alloyx/AlloyxStakeInfo.sol:AlloyxStakeInfo",
            "label": "amount",
            "offset": 0,
            "slot": "0",
            "type": "t_uint256"
          },
          {
            "astId": 6427,
            "contract": "contracts/alloyx/AlloyxStakeInfo.sol:AlloyxStakeInfo",
            "label": "since",
            "offset": 0,
            "slot": "1",
            "type": "t_uint256"
          }
        ],
        "numberOfBytes": "64"
      },
      "t_uint256": {
        "encoding": "inplace",
        "label": "uint256",
        "numberOfBytes": "32"
      }
    }
  }
}