{
  "address": "0x599503FA1126370A9Be04967a813443e6c8B259D",
  "_format": "hh-sol-artifact-1",
  "contractName": "AlloyxTokenCRWN",
  "sourceName": "contracts/alloyx/AlloyxTokenCRWN.sol",
  "abi": [
    {
      "anonymous": false,
      "inputs": [
        {
          "indexed": true,
          "internalType": "address",
          "name": "owner",
          "type": "address"
        },
        {
          "indexed": true,
          "internalType": "address",
          "name": "spender",
          "type": "address"
        },
        {
          "indexed": false,
          "internalType": "uint256",
          "name": "value",
          "type": "uint256"
        }
      ],
      "name": "Approval",
      "type": "event"
    },
    {
      "anonymous": false,
      "inputs": [
        {
          "indexed": false,
          "internalType": "uint8",
          "name": "version",
          "type": "uint8"
        }
      ],
      "name": "Initialized",
      "type": "event"
    },
    {
      "anonymous": false,
      "inputs": [
        {
          "indexed": true,
          "internalType": "address",
          "name": "previousOwner",
          "type": "address"
        },
        {
          "indexed": true,
          "internalType": "address",
          "name": "newOwner",
          "type": "address"
        }
      ],
      "name": "OwnershipTransferred",
      "type": "event"
    },
    {
      "anonymous": false,
      "inputs": [
        {
          "indexed": true,
          "internalType": "address",
          "name": "from",
          "type": "address"
        },
        {
          "indexed": true,
          "internalType": "address",
          "name": "to",
          "type": "address"
        },
        {
          "indexed": false,
          "internalType": "uint256",
          "name": "value",
          "type": "uint256"
        }
      ],
      "name": "Transfer",
      "type": "event"
    },
    {
      "inputs": [
        {
          "internalType": "address",
          "name": "owner",
          "type": "address"
        },
        {
          "internalType": "address",
          "name": "spender",
          "type": "address"
        }
      ],
      "name": "allowance",
      "outputs": [
        {
          "internalType": "uint256",
          "name": "",
          "type": "uint256"
        }
      ],
      "stateMutability": "view",
      "type": "function"
    },
    {
      "inputs": [
        {
          "internalType": "address",
          "name": "spender",
          "type": "address"
        },
        {
          "internalType": "uint256",
          "name": "amount",
          "type": "uint256"
        }
      ],
      "name": "approve",
      "outputs": [
        {
          "internalType": "bool",
          "name": "",
          "type": "bool"
        }
      ],
      "stateMutability": "nonpayable",
      "type": "function"
    },
    {
      "inputs": [
        {
          "internalType": "address",
          "name": "account",
          "type": "address"
        }
      ],
      "name": "balanceOf",
      "outputs": [
        {
          "internalType": "uint256",
          "name": "",
          "type": "uint256"
        }
      ],
      "stateMutability": "view",
      "type": "function"
    },
    {
      "inputs": [
        {
          "internalType": "address",
          "name": "_account",
          "type": "address"
        },
        {
          "internalType": "uint256",
          "name": "_amount",
          "type": "uint256"
        }
      ],
      "name": "burn",
      "outputs": [
        {
          "internalType": "bool",
          "name": "",
          "type": "bool"
        }
      ],
      "stateMutability": "nonpayable",
      "type": "function"
    },
    {
      "inputs": [],
      "name": "contractName",
      "outputs": [
        {
          "internalType": "string",
          "name": "",
          "type": "string"
        }
      ],
      "stateMutability": "pure",
      "type": "function"
    },
    {
      "inputs": [],
      "name": "decimals",
      "outputs": [
        {
          "internalType": "uint8",
          "name": "",
          "type": "uint8"
        }
      ],
      "stateMutability": "view",
      "type": "function"
    },
    {
      "inputs": [
        {
          "internalType": "address",
          "name": "spender",
          "type": "address"
        },
        {
          "internalType": "uint256",
          "name": "subtractedValue",
          "type": "uint256"
        }
      ],
      "name": "decreaseAllowance",
      "outputs": [
        {
          "internalType": "bool",
          "name": "",
          "type": "bool"
        }
      ],
      "stateMutability": "nonpayable",
      "type": "function"
    },
    {
      "inputs": [
        {
          "internalType": "address",
          "name": "spender",
          "type": "address"
        },
        {
          "internalType": "uint256",
          "name": "addedValue",
          "type": "uint256"
        }
      ],
      "name": "increaseAllowance",
      "outputs": [
        {
          "internalType": "bool",
          "name": "",
          "type": "bool"
        }
      ],
      "stateMutability": "nonpayable",
      "type": "function"
    },
    {
      "inputs": [],
      "name": "initialize",
      "outputs": [],
      "stateMutability": "nonpayable",
      "type": "function"
    },
    {
      "inputs": [
        {
          "internalType": "address",
          "name": "_account",
          "type": "address"
        },
        {
          "internalType": "uint256",
          "name": "_amount",
          "type": "uint256"
        }
      ],
      "name": "mint",
      "outputs": [
        {
          "internalType": "bool",
          "name": "",
          "type": "bool"
        }
      ],
      "stateMutability": "nonpayable",
      "type": "function"
    },
    {
      "inputs": [],
      "name": "name",
      "outputs": [
        {
          "internalType": "string",
          "name": "",
          "type": "string"
        }
      ],
      "stateMutability": "view",
      "type": "function"
    },
    {
      "inputs": [],
      "name": "owner",
      "outputs": [
        {
          "internalType": "address",
          "name": "",
          "type": "address"
        }
      ],
      "stateMutability": "view",
      "type": "function"
    },
    {
      "inputs": [],
      "name": "renounceOwnership",
      "outputs": [],
      "stateMutability": "nonpayable",
      "type": "function"
    },
    {
      "inputs": [],
      "name": "symbol",
      "outputs": [
        {
          "internalType": "string",
          "name": "",
          "type": "string"
        }
      ],
      "stateMutability": "view",
      "type": "function"
    },
    {
      "inputs": [],
      "name": "totalSupply",
      "outputs": [
        {
          "internalType": "uint256",
          "name": "",
          "type": "uint256"
        }
      ],
      "stateMutability": "view",
      "type": "function"
    },
    {
      "inputs": [
        {
          "internalType": "address",
          "name": "to",
          "type": "address"
        },
        {
          "internalType": "uint256",
          "name": "amount",
          "type": "uint256"
        }
      ],
      "name": "transfer",
      "outputs": [
        {
          "internalType": "bool",
          "name": "",
          "type": "bool"
        }
      ],
      "stateMutability": "nonpayable",
      "type": "function"
    },
    {
      "inputs": [
        {
          "internalType": "address",
          "name": "from",
          "type": "address"
        },
        {
          "internalType": "address",
          "name": "to",
          "type": "address"
        },
        {
          "internalType": "uint256",
          "name": "amount",
          "type": "uint256"
        }
      ],
      "name": "transferFrom",
      "outputs": [
        {
          "internalType": "bool",
          "name": "",
          "type": "bool"
        }
      ],
      "stateMutability": "nonpayable",
      "type": "function"
    },
    {
      "inputs": [
        {
          "internalType": "address",
          "name": "newOwner",
          "type": "address"
        }
      ],
      "name": "transferOwnership",
      "outputs": [],
      "stateMutability": "nonpayable",
      "type": "function"
    }
  ],
  "bytecode": "0x608060405234801561001057600080fd5b506110d1806100206000396000f3fe608060405234801561001057600080fd5b50600436106100e65760003560e01c806306fdde03146100eb578063095ea7b31461010957806318160ddd1461012c57806323b872dd1461013e578063313ce56714610151578063395093511461016057806340c10f191461017357806370a0823114610186578063715018a6146101af57806375d0c0dc146101b95780638129fc1c146101e45780638da5cb5b146101ec57806395d89b411461020c5780639dc29fac14610214578063a457c2d714610227578063a9059cbb1461023a578063dd62ed3e1461024d578063f2fde38b14610260575b600080fd5b6100f3610273565b6040516101009190610ed8565b60405180910390f35b61011c610117366004610eae565b610305565b6040519015158152602001610100565b6035545b604051908152602001610100565b61011c61014c366004610e72565b61031d565b60405160128152602001610100565b61011c61016e366004610eae565b610341565b61011c610181366004610eae565b610363565b610130610194366004610e1d565b6001600160a01b031660009081526033602052604090205490565b6101b76103b0565b005b60408051808201909152600f81526e20b63637bcbc2a37b5b2b721a92ba760891b60208201526100f3565b6101b76103eb565b6101f46104a8565b6040516001600160a01b039091168152602001610100565b6100f36104b7565b61011c610222366004610eae565b6104c6565b61011c610235366004610eae565b610501565b61011c610248366004610eae565b61057c565b61013061025b366004610e3f565b61058a565b6101b761026e366004610e1d565b6105b5565b6060603680546102829061102a565b80601f01602080910402602001604051908101604052809291908181526020018280546102ae9061102a565b80156102fb5780601f106102d0576101008083540402835291602001916102fb565b820191906000526020600020905b8154815290600101906020018083116102de57829003601f168201915b5050505050905090565b600033610313818585610652565b5060019392505050565b60003361032b858285610777565b6103368585856107f1565b506001949350505050565b600033610313818585610354838361058a565b61035e9190610ffb565b610652565b60003361036e6104a8565b6001600160a01b03161461039d5760405162461bcd60e51b815260040161039490610f7b565b60405180910390fd5b6103a783836109ad565b50600192915050565b336103b96104a8565b6001600160a01b0316146103df5760405162461bcd60e51b815260040161039490610f7b565b6103e96000610a7b565b565b60006103f76001610acd565b9050801561040f576000805461ff0019166101001790555b610417610b5a565b61045f6040518060400160405280600a81526020016910dc9bdddb8811dbdb1960b21b8152506040518060400160405280600481526020016321a92ba760e11b815250610b89565b80156104a5576000805461ff0019169055604051600181527f7f26b83ff96e1f2b6a682f133852f6798a09c465da95921460cefb38474024989060200160405180910390a15b50565b6065546001600160a01b031690565b6060603780546102829061102a565b6000336104d16104a8565b6001600160a01b0316146104f75760405162461bcd60e51b815260040161039490610f7b565b6103a78383610bba565b6000338161050f828661058a565b90508381101561056f5760405162461bcd60e51b815260206004820152602560248201527f45524332303a2064656372656173656420616c6c6f77616e63652062656c6f77604482015264207a65726f60d81b6064820152608401610394565b6103368286868403610652565b6000336103138185856107f1565b6001600160a01b03918216600090815260346020908152604080832093909416825291909152205490565b336105be6104a8565b6001600160a01b0316146105e45760405162461bcd60e51b815260040161039490610f7b565b6001600160a01b0381166106495760405162461bcd60e51b815260206004820152602660248201527f4f776e61626c653a206e6577206f776e657220697320746865207a65726f206160448201526564647265737360d01b6064820152608401610394565b6104a581610a7b565b6001600160a01b0383166106b45760405162461bcd60e51b8152602060048201526024808201527f45524332303a20617070726f76652066726f6d20746865207a65726f206164646044820152637265737360e01b6064820152608401610394565b6001600160a01b0382166107155760405162461bcd60e51b815260206004820152602260248201527f45524332303a20617070726f766520746f20746865207a65726f206164647265604482015261737360f01b6064820152608401610394565b6001600160a01b0383811660008181526034602090815260408083209487168084529482529182902085905590518481527f8c5be1e5ebec7d5bd14f71427d1e84f3dd0314c0f7b2291e5b200ac8c7c3b92591015b60405180910390a3505050565b6000610783848461058a565b905060001981146107eb57818110156107de5760405162461bcd60e51b815260206004820152601d60248201527f45524332303a20696e73756666696369656e7420616c6c6f77616e63650000006044820152606401610394565b6107eb8484848403610652565b50505050565b6001600160a01b0383166108555760405162461bcd60e51b815260206004820152602560248201527f45524332303a207472616e736665722066726f6d20746865207a65726f206164604482015264647265737360d81b6064820152608401610394565b6001600160a01b0382166108b75760405162461bcd60e51b815260206004820152602360248201527f45524332303a207472616e7366657220746f20746865207a65726f206164647260448201526265737360e81b6064820152608401610394565b6001600160a01b0383166000908152603360205260409020548181101561092f5760405162461bcd60e51b815260206004820152602660248201527f45524332303a207472616e7366657220616d6f756e7420657863656564732062604482015265616c616e636560d01b6064820152608401610394565b6001600160a01b03808516600090815260336020526040808220858503905591851681529081208054849290610966908490610ffb565b92505081905550826001600160a01b0316846001600160a01b031660008051602061107c833981519152846040516109a091815260200190565b60405180910390a36107eb565b6001600160a01b038216610a035760405162461bcd60e51b815260206004820152601f60248201527f45524332303a206d696e7420746f20746865207a65726f2061646472657373006044820152606401610394565b8060356000828254610a159190610ffb565b90915550506001600160a01b03821660009081526033602052604081208054839290610a42908490610ffb565b90915550506040518181526001600160a01b0383169060009060008051602061107c8339815191529060200160405180910390a35b5050565b606580546001600160a01b038381166001600160a01b0319831681179093556040519116919082907f8be0079c531659141344cd1fd0a4f28419497f9722a3daafe3b4186f6b6457e090600090a35050565b60008054610100900460ff1615610b14578160ff166001148015610af05750303b155b610b0c5760405162461bcd60e51b815260040161039490610f2d565b506000919050565b60005460ff808416911610610b3b5760405162461bcd60e51b815260040161039490610f2d565b506000805460ff191660ff92909216919091179055600190565b919050565b600054610100900460ff16610b815760405162461bcd60e51b815260040161039490610fb0565b6103e9610cf3565b600054610100900460ff16610bb05760405162461bcd60e51b815260040161039490610fb0565b610a778282610d23565b6001600160a01b038216610c1a5760405162461bcd60e51b815260206004820152602160248201527f45524332303a206275726e2066726f6d20746865207a65726f206164647265736044820152607360f81b6064820152608401610394565b6001600160a01b03821660009081526033602052604090205481811015610c8e5760405162461bcd60e51b815260206004820152602260248201527f45524332303a206275726e20616d6f756e7420657863656564732062616c616e604482015261636560f01b6064820152608401610394565b6001600160a01b0383166000908152603360205260408120838303905560358054849290610cbd908490611013565b90915550506040518281526000906001600160a01b0385169060008051602061107c8339815191529060200161076a565b505050565b600054610100900460ff16610d1a5760405162461bcd60e51b815260040161039490610fb0565b6103e933610a7b565b600054610100900460ff16610d4a5760405162461bcd60e51b815260040161039490610fb0565b8151610d5d906036906020850190610d6d565b508051610cee9060379060208401905b828054610d799061102a565b90600052602060002090601f016020900481019282610d9b5760008555610de1565b82601f10610db457805160ff1916838001178555610de1565b82800160010185558215610de1579182015b82811115610de1578251825591602001919060010190610dc6565b50610ded929150610df1565b5090565b5b80821115610ded5760008155600101610df2565b80356001600160a01b0381168114610b5557600080fd5b600060208284031215610e2f57600080fd5b610e3882610e06565b9392505050565b60008060408385031215610e5257600080fd5b610e5b83610e06565b9150610e6960208401610e06565b90509250929050565b600080600060608486031215610e8757600080fd5b610e9084610e06565b9250610e9e60208501610e06565b9150604084013590509250925092565b60008060408385031215610ec157600080fd5b610eca83610e06565b946020939093013593505050565b600060208083528351808285015260005b81811015610f0557858101830151858201604001528201610ee9565b81811115610f17576000604083870101525b50601f01601f1916929092016040019392505050565b6020808252602e908201527f496e697469616c697a61626c653a20636f6e747261637420697320616c72656160408201526d191e481a5b9a5d1a585b1a5e995960921b606082015260800190565b6020808252818101527f4f776e61626c653a2063616c6c6572206973206e6f7420746865206f776e6572604082015260600190565b6020808252602b908201527f496e697469616c697a61626c653a20636f6e7472616374206973206e6f74206960408201526a6e697469616c697a696e6760a81b606082015260800190565b6000821982111561100e5761100e611065565b500190565b60008282101561102557611025611065565b500390565b600181811c9082168061103e57607f821691505b6020821081141561105f57634e487b7160e01b600052602260045260246000fd5b50919050565b634e487b7160e01b600052601160045260246000fdfeddf252ad1be2c89b69c2b068fc378daa952ba7f163c4a11628f55a4df523b3efa2646970667358221220ccdf717217540a0e425d9ad6dab5dfc6e3b7dbec7084ca62399b47b50722bb5164736f6c63430008070033",
  "linkReferences": {},
  "deployedLinkReferences": {}
}