{
  "address": "0x1EEc1675F97A0C0Ee6eeBB5c6185b6C5D801fC1c",
  "_format": "hh-sol-artifact-1",
  "contractName": "AlloyxTokenDURA",
  "sourceName": "contracts/alloyx/AlloyxTokenDURA.sol",
  "abi": [
    {
      "anonymous": false,
      "inputs": [
        {
          "indexed": true,
          "internalType": "address",
          "name": "owner",
          "type": "address"
        },
        {
          "indexed": true,
          "internalType": "address",
          "name": "spender",
          "type": "address"
        },
        {
          "indexed": false,
          "internalType": "uint256",
          "name": "value",
          "type": "uint256"
        }
      ],
      "name": "Approval",
      "type": "event"
    },
    {
      "anonymous": false,
      "inputs": [
        {
          "indexed": false,
          "internalType": "uint8",
          "name": "version",
          "type": "uint8"
        }
      ],
      "name": "Initialized",
      "type": "event"
    },
    {
      "anonymous": false,
      "inputs": [
        {
          "indexed": true,
          "internalType": "bytes32",
          "name": "role",
          "type": "bytes32"
        },
        {
          "indexed": true,
          "internalType": "bytes32",
          "name": "previousAdminRole",
          "type": "bytes32"
        },
        {
          "indexed": true,
          "internalType": "bytes32",
          "name": "newAdminRole",
          "type": "bytes32"
        }
      ],
      "name": "RoleAdminChanged",
      "type": "event"
    },
    {
      "anonymous": false,
      "inputs": [
        {
          "indexed": true,
          "internalType": "bytes32",
          "name": "role",
          "type": "bytes32"
        },
        {
          "indexed": true,
          "internalType": "address",
          "name": "account",
          "type": "address"
        },
        {
          "indexed": true,
          "internalType": "address",
          "name": "sender",
          "type": "address"
        }
      ],
      "name": "RoleGranted",
      "type": "event"
    },
    {
      "anonymous": false,
      "inputs": [
        {
          "indexed": true,
          "internalType": "bytes32",
          "name": "role",
          "type": "bytes32"
        },
        {
          "indexed": true,
          "internalType": "address",
          "name": "account",
          "type": "address"
        },
        {
          "indexed": true,
          "internalType": "address",
          "name": "sender",
          "type": "address"
        }
      ],
      "name": "RoleRevoked",
      "type": "event"
    },
    {
      "anonymous": false,
      "inputs": [
        {
          "indexed": true,
          "internalType": "address",
          "name": "from",
          "type": "address"
        },
        {
          "indexed": true,
          "internalType": "address",
          "name": "to",
          "type": "address"
        },
        {
          "indexed": false,
          "internalType": "uint256",
          "name": "value",
          "type": "uint256"
        }
      ],
      "name": "Transfer",
      "type": "event"
    },
    {
      "inputs": [],
      "name": "DEFAULT_ADMIN_ROLE",
      "outputs": [
        {
          "internalType": "bytes32",
          "name": "",
          "type": "bytes32"
        }
      ],
      "stateMutability": "view",
      "type": "function"
    },
    {
      "inputs": [
        {
          "internalType": "address",
          "name": "account",
          "type": "address"
        }
      ],
      "name": "addAdmin",
      "outputs": [],
      "stateMutability": "nonpayable",
      "type": "function"
    },
    {
      "inputs": [
        {
          "internalType": "address",
          "name": "owner",
          "type": "address"
        },
        {
          "internalType": "address",
          "name": "spender",
          "type": "address"
        }
      ],
      "name": "allowance",
      "outputs": [
        {
          "internalType": "uint256",
          "name": "",
          "type": "uint256"
        }
      ],
      "stateMutability": "view",
      "type": "function"
    },
    {
      "inputs": [
        {
          "internalType": "address",
          "name": "spender",
          "type": "address"
        },
        {
          "internalType": "uint256",
          "name": "amount",
          "type": "uint256"
        }
      ],
      "name": "approve",
      "outputs": [
        {
          "internalType": "bool",
          "name": "",
          "type": "bool"
        }
      ],
      "stateMutability": "nonpayable",
      "type": "function"
    },
    {
      "inputs": [
        {
          "internalType": "address",
          "name": "account",
          "type": "address"
        }
      ],
      "name": "balanceOf",
      "outputs": [
        {
          "internalType": "uint256",
          "name": "",
          "type": "uint256"
        }
      ],
      "stateMutability": "view",
      "type": "function"
    },
    {
      "inputs": [
        {
          "internalType": "address",
          "name": "_account",
          "type": "address"
        },
        {
          "internalType": "uint256",
          "name": "_amount",
          "type": "uint256"
        }
      ],
      "name": "burn",
      "outputs": [
        {
          "internalType": "bool",
          "name": "",
          "type": "bool"
        }
      ],
      "stateMutability": "nonpayable",
      "type": "function"
    },
    {
      "inputs": [],
      "name": "contractName",
      "outputs": [
        {
          "internalType": "string",
          "name": "",
          "type": "string"
        }
      ],
      "stateMutability": "pure",
      "type": "function"
    },
    {
      "inputs": [],
      "name": "decimals",
      "outputs": [
        {
          "internalType": "uint8",
          "name": "",
          "type": "uint8"
        }
      ],
      "stateMutability": "view",
      "type": "function"
    },
    {
      "inputs": [
        {
          "internalType": "address",
          "name": "spender",
          "type": "address"
        },
        {
          "internalType": "uint256",
          "name": "subtractedValue",
          "type": "uint256"
        }
      ],
      "name": "decreaseAllowance",
      "outputs": [
        {
          "internalType": "bool",
          "name": "",
          "type": "bool"
        }
      ],
      "stateMutability": "nonpayable",
      "type": "function"
    },
    {
      "inputs": [
        {
          "internalType": "bytes32",
          "name": "role",
          "type": "bytes32"
        }
      ],
      "name": "getRoleAdmin",
      "outputs": [
        {
          "internalType": "bytes32",
          "name": "",
          "type": "bytes32"
        }
      ],
      "stateMutability": "view",
      "type": "function"
    },
    {
      "inputs": [
        {
          "internalType": "bytes32",
          "name": "role",
          "type": "bytes32"
        },
        {
          "internalType": "address",
          "name": "account",
          "type": "address"
        }
      ],
      "name": "grantRole",
      "outputs": [],
      "stateMutability": "nonpayable",
      "type": "function"
    },
    {
      "inputs": [
        {
          "internalType": "bytes32",
          "name": "role",
          "type": "bytes32"
        },
        {
          "internalType": "address",
          "name": "account",
          "type": "address"
        }
      ],
      "name": "hasRole",
      "outputs": [
        {
          "internalType": "bool",
          "name": "",
          "type": "bool"
        }
      ],
      "stateMutability": "view",
      "type": "function"
    },
    {
      "inputs": [
        {
          "internalType": "address",
          "name": "spender",
          "type": "address"
        },
        {
          "internalType": "uint256",
          "name": "addedValue",
          "type": "uint256"
        }
      ],
      "name": "increaseAllowance",
      "outputs": [
        {
          "internalType": "bool",
          "name": "",
          "type": "bool"
        }
      ],
      "stateMutability": "nonpayable",
      "type": "function"
    },
    {
      "inputs": [],
      "name": "initialize",
      "outputs": [],
      "stateMutability": "nonpayable",
      "type": "function"
    },
    {
      "inputs": [
        {
          "internalType": "address",
          "name": "account",
          "type": "address"
        }
      ],
      "name": "isAdmin",
      "outputs": [
        {
          "internalType": "bool",
          "name": "",
          "type": "bool"
        }
      ],
      "stateMutability": "view",
      "type": "function"
    },
    {
      "inputs": [
        {
          "internalType": "address",
          "name": "_account",
          "type": "address"
        },
        {
          "internalType": "uint256",
          "name": "_amount",
          "type": "uint256"
        }
      ],
      "name": "mint",
      "outputs": [
        {
          "internalType": "bool",
          "name": "",
          "type": "bool"
        }
      ],
      "stateMutability": "nonpayable",
      "type": "function"
    },
    {
      "inputs": [],
      "name": "name",
      "outputs": [
        {
          "internalType": "string",
          "name": "",
          "type": "string"
        }
      ],
      "stateMutability": "view",
      "type": "function"
    },
    {
      "inputs": [],
      "name": "renounceAdmin",
      "outputs": [],
      "stateMutability": "nonpayable",
      "type": "function"
    },
    {
      "inputs": [
        {
          "internalType": "bytes32",
          "name": "role",
          "type": "bytes32"
        },
        {
          "internalType": "address",
          "name": "account",
          "type": "address"
        }
      ],
      "name": "renounceRole",
      "outputs": [],
      "stateMutability": "nonpayable",
      "type": "function"
    },
    {
      "inputs": [
        {
          "internalType": "bytes32",
          "name": "role",
          "type": "bytes32"
        },
        {
          "internalType": "address",
          "name": "account",
          "type": "address"
        }
      ],
      "name": "revokeRole",
      "outputs": [],
      "stateMutability": "nonpayable",
      "type": "function"
    },
    {
      "inputs": [
        {
          "internalType": "bytes4",
          "name": "interfaceId",
          "type": "bytes4"
        }
      ],
      "name": "supportsInterface",
      "outputs": [
        {
          "internalType": "bool",
          "name": "",
          "type": "bool"
        }
      ],
      "stateMutability": "view",
      "type": "function"
    },
    {
      "inputs": [],
      "name": "symbol",
      "outputs": [
        {
          "internalType": "string",
          "name": "",
          "type": "string"
        }
      ],
      "stateMutability": "view",
      "type": "function"
    },
    {
      "inputs": [],
      "name": "totalSupply",
      "outputs": [
        {
          "internalType": "uint256",
          "name": "",
          "type": "uint256"
        }
      ],
      "stateMutability": "view",
      "type": "function"
    },
    {
      "inputs": [
        {
          "internalType": "address",
          "name": "to",
          "type": "address"
        },
        {
          "internalType": "uint256",
          "name": "amount",
          "type": "uint256"
        }
      ],
      "name": "transfer",
      "outputs": [
        {
          "internalType": "bool",
          "name": "",
          "type": "bool"
        }
      ],
      "stateMutability": "nonpayable",
      "type": "function"
    },
    {
      "inputs": [
        {
          "internalType": "address",
          "name": "from",
          "type": "address"
        },
        {
          "internalType": "address",
          "name": "to",
          "type": "address"
        },
        {
          "internalType": "uint256",
          "name": "amount",
          "type": "uint256"
        }
      ],
      "name": "transferFrom",
      "outputs": [
        {
          "internalType": "bool",
          "name": "",
          "type": "bool"
        }
      ],
      "stateMutability": "nonpayable",
      "type": "function"
    }
  ],
  "bytecode": "0x608060405234801561001057600080fd5b506115f4806100206000396000f3fe608060405234801561001057600080fd5b50600436106101335760003560e01c806301ffc9a71461013857806306fdde0314610160578063095ea7b31461017557806318160ddd1461018857806323b872dd1461019a578063248a9ca3146101ad57806324d7806c146101c05780632f2ff15d146101d3578063313ce567146101e857806336568abe146101f7578063395093511461020a57806340c10f191461021d578063704802751461023057806370a082311461024357806375d0c0dc1461026c5780638129fc1c146102975780638bad0c0a1461029f57806391d14854146102a757806395d89b41146102ba5780639dc29fac146102c2578063a217fddf146102d5578063a457c2d7146102dd578063a9059cbb146102f0578063d547741f14610303578063dd62ed3e14610316575b600080fd5b61014b6101463660046112fd565b610329565b60405190151581526020015b60405180910390f35b610168610360565b6040516101579190611396565b61014b610183366004611297565b6103f2565b6035545b604051908152602001610157565b61014b6101a836600461125b565b61040a565b61018c6101bb3660046112c1565b61042e565b61014b6101ce36600461120d565b610443565b6101e66101e13660046112da565b61044f565b005b60405160128152602001610157565b6101e66102053660046112da565b610470565b61014b610218366004611297565b6104f3565b61014b61022b366004611297565b610515565b6101e661023e36600461120d565b61054f565b61018c61025136600461120d565b6001600160a01b031660009081526033602052604090205490565b60408051808201909152600f81526e416c6c6f7978546f6b656e4475726160881b6020820152610168565b6101e6610582565b6101e661063e565b61014b6102b53660046112da565b61064b565b610168610676565b61014b6102d0366004611297565b610685565b61018c600081565b61014b6102eb366004611297565b6106b6565b61014b6102fe366004611297565b610731565b6101e66103113660046112da565b61073f565b61018c610324366004611228565b61075b565b60006001600160e01b03198216637965db0b60e01b148061035a57506301ffc9a760e01b6001600160e01b03198316145b92915050565b60606036805461036f90611521565b80601f016020809104026020016040519081016040528092919081815260200182805461039b90611521565b80156103e85780601f106103bd576101008083540402835291602001916103e8565b820191906000526020600020905b8154815290600101906020018083116103cb57829003601f168201915b5050505050905090565b600033610400818585610786565b5060019392505050565b6000336104188582856108aa565b610423858585610924565b506001949350505050565b60009081526097602052604090206001015490565b600061035a818361064b565b6104588261042e565b61046181610ae0565b61046b8383610aea565b505050565b6001600160a01b03811633146104e55760405162461bcd60e51b815260206004820152602f60248201527f416363657373436f6e74726f6c3a2063616e206f6e6c792072656e6f756e636560448201526e103937b632b9903337b91039b2b63360891b60648201526084015b60405180910390fd5b6104ef8282610b70565b5050565b600033610400818585610506838361075b565b6105109190611490565b610786565b600061052033610443565b61053c5760405162461bcd60e51b81526004016104dc90611417565b6105468383610bd7565b50600192915050565b61055833610443565b6105745760405162461bcd60e51b81526004016104dc90611417565b61057f60008261044f565b50565b600061058e6001610ca4565b905080156105a6576000805461ff0019166101001790555b6105af33610d31565b6105f660405180604001604052806009815260200168223ab930b63ab6b4b760b91b815250604051806040016040528060048152602001634455524160e01b815250610d6b565b801561057f576000805461ff0019169055604051600181527f7f26b83ff96e1f2b6a682f133852f6798a09c465da95921460cefb38474024989060200160405180910390a150565b610649600033610470565b565b60009182526097602090815260408084206001600160a01b0393909316845291905290205460ff1690565b60606037805461036f90611521565b600061069033610443565b6106ac5760405162461bcd60e51b81526004016104dc90611417565b6105468383610d9c565b600033816106c4828661075b565b9050838110156107245760405162461bcd60e51b815260206004820152602560248201527f45524332303a2064656372656173656420616c6c6f77616e63652062656c6f77604482015264207a65726f60d81b60648201526084016104dc565b6104238286868403610786565b600033610400818585610924565b6107488261042e565b61075181610ae0565b61046b8383610b70565b6001600160a01b03918216600090815260346020908152604080832093909416825291909152205490565b6001600160a01b0383166107e85760405162461bcd60e51b8152602060048201526024808201527f45524332303a20617070726f76652066726f6d20746865207a65726f206164646044820152637265737360e01b60648201526084016104dc565b6001600160a01b0382166108495760405162461bcd60e51b815260206004820152602260248201527f45524332303a20617070726f766520746f20746865207a65726f206164647265604482015261737360f01b60648201526084016104dc565b6001600160a01b0383811660008181526034602090815260408083209487168084529482529182902085905590518481527f8c5be1e5ebec7d5bd14f71427d1e84f3dd0314c0f7b2291e5b200ac8c7c3b925910160405180910390a3505050565b60006108b6848461075b565b9050600019811461091e57818110156109115760405162461bcd60e51b815260206004820152601d60248201527f45524332303a20696e73756666696369656e7420616c6c6f77616e636500000060448201526064016104dc565b61091e8484848403610786565b50505050565b6001600160a01b0383166109885760405162461bcd60e51b815260206004820152602560248201527f45524332303a207472616e736665722066726f6d20746865207a65726f206164604482015264647265737360d81b60648201526084016104dc565b6001600160a01b0382166109ea5760405162461bcd60e51b815260206004820152602360248201527f45524332303a207472616e7366657220746f20746865207a65726f206164647260448201526265737360e81b60648201526084016104dc565b6001600160a01b03831660009081526033602052604090205481811015610a625760405162461bcd60e51b815260206004820152602660248201527f45524332303a207472616e7366657220616d6f756e7420657863656564732062604482015265616c616e636560d01b60648201526084016104dc565b6001600160a01b03808516600090815260336020526040808220858503905591851681529081208054849290610a99908490611490565b92505081905550826001600160a01b0316846001600160a01b031660008051602061159f83398151915284604051610ad391815260200190565b60405180910390a361091e565b61057f8133610ed8565b610af4828261064b565b6104ef5760008281526097602090815260408083206001600160a01b03851684529091529020805460ff19166001179055610b2c3390565b6001600160a01b0316816001600160a01b0316837f2f8788117e7eff1d82e926ec794901d17c78024a50270940304540a733656f0d60405160405180910390a45050565b610b7a828261064b565b156104ef5760008281526097602090815260408083206001600160a01b0385168085529252808320805460ff1916905551339285917ff6391f5c32d9c69d2a47ea670b442974b53935d1edc7fd64eb21e047a839171b9190a45050565b6001600160a01b038216610c2d5760405162461bcd60e51b815260206004820152601f60248201527f45524332303a206d696e7420746f20746865207a65726f20616464726573730060448201526064016104dc565b8060356000828254610c3f9190611490565b90915550506001600160a01b03821660009081526033602052604081208054839290610c6c908490611490565b90915550506040518181526001600160a01b0383169060009060008051602061159f8339815191529060200160405180910390a35050565b60008054610100900460ff1615610ceb578160ff166001148015610cc75750303b155b610ce35760405162461bcd60e51b81526004016104dc906113c9565b506000919050565b60005460ff808416911610610d125760405162461bcd60e51b81526004016104dc906113c9565b506000805460ff191660ff92909216919091179055600190565b919050565b600054610100900460ff16610d585760405162461bcd60e51b81526004016104dc90611445565b610d60610f3c565b61057f600082610f63565b600054610100900460ff16610d925760405162461bcd60e51b81526004016104dc90611445565b6104ef8282610f6d565b6001600160a01b038216610dfc5760405162461bcd60e51b815260206004820152602160248201527f45524332303a206275726e2066726f6d20746865207a65726f206164647265736044820152607360f81b60648201526084016104dc565b6001600160a01b03821660009081526033602052604090205481811015610e705760405162461bcd60e51b815260206004820152602260248201527f45524332303a206275726e20616d6f756e7420657863656564732062616c616e604482015261636560f01b60648201526084016104dc565b6001600160a01b0383166000908152603360205260408120838303905560358054849290610e9f9084906114c7565b90915550506040518281526000906001600160a01b0385169060008051602061159f8339815191529060200160405180910390a3505050565b610ee2828261064b565b6104ef57610efa816001600160a01b03166014610fbb565b610f05836020610fbb565b604051602001610f16929190611327565b60408051601f198184030181529082905262461bcd60e51b82526104dc91600401611396565b600054610100900460ff166106495760405162461bcd60e51b81526004016104dc90611445565b6104ef8282610aea565b600054610100900460ff16610f945760405162461bcd60e51b81526004016104dc90611445565b8151610fa790603690602085019061115d565b50805161046b90603790602084019061115d565b60606000610fca8360026114a8565b610fd5906002611490565b6001600160401b03811115610fec57610fec611588565b6040519080825280601f01601f191660200182016040528015611016576020820181803683370190505b509050600360fc1b8160008151811061103157611031611572565b60200101906001600160f81b031916908160001a905350600f60fb1b8160018151811061106057611060611572565b60200101906001600160f81b031916908160001a90535060006110848460026114a8565b61108f906001611490565b90505b6001811115611107576f181899199a1a9b1b9c1cb0b131b232b360811b85600f16601081106110c3576110c3611572565b1a60f81b8282815181106110d9576110d9611572565b60200101906001600160f81b031916908160001a90535060049490941c936111008161150a565b9050611092565b5083156111565760405162461bcd60e51b815260206004820181905260248201527f537472696e67733a20686578206c656e67746820696e73756666696369656e7460448201526064016104dc565b9392505050565b82805461116990611521565b90600052602060002090601f01602090048101928261118b57600085556111d1565b82601f106111a457805160ff19168380011785556111d1565b828001600101855582156111d1579182015b828111156111d15782518255916020019190600101906111b6565b506111dd9291506111e1565b5090565b5b808211156111dd57600081556001016111e2565b80356001600160a01b0381168114610d2c57600080fd5b60006020828403121561121f57600080fd5b611156826111f6565b6000806040838503121561123b57600080fd5b611244836111f6565b9150611252602084016111f6565b90509250929050565b60008060006060848603121561127057600080fd5b611279846111f6565b9250611287602085016111f6565b9150604084013590509250925092565b600080604083850312156112aa57600080fd5b6112b3836111f6565b946020939093013593505050565b6000602082840312156112d357600080fd5b5035919050565b600080604083850312156112ed57600080fd5b82359150611252602084016111f6565b60006020828403121561130f57600080fd5b81356001600160e01b03198116811461115657600080fd5b76020b1b1b2b9b9a1b7b73a3937b61d1030b1b1b7bab73a1604d1b8152600083516113598160178501602088016114de565b7001034b99036b4b9b9b4b733903937b6329607d1b601791840191820152835161138a8160288401602088016114de565b01602801949350505050565b60208152600082518060208401526113b58160408501602087016114de565b601f01601f19169190910160400192915050565b6020808252602e908201527f496e697469616c697a61626c653a20636f6e747261637420697320616c72656160408201526d191e481a5b9a5d1a585b1a5e995960921b606082015260800190565b6020808252601490820152735265737472696374656420746f2061646d696e7360601b604082015260600190565b6020808252602b908201527f496e697469616c697a61626c653a20636f6e7472616374206973206e6f74206960408201526a6e697469616c697a696e6760a81b606082015260800190565b600082198211156114a3576114a361155c565b500190565b60008160001904831182151516156114c2576114c261155c565b500290565b6000828210156114d9576114d961155c565b500390565b60005b838110156114f95781810151838201526020016114e1565b8381111561091e5750506000910152565b6000816115195761151961155c565b506000190190565b600181811c9082168061153557607f821691505b6020821081141561155657634e487b7160e01b600052602260045260246000fd5b50919050565b634e487b7160e01b600052601160045260246000fd5b634e487b7160e01b600052603260045260246000fd5b634e487b7160e01b600052604160045260246000fdfeddf252ad1be2c89b69c2b068fc378daa952ba7f163c4a11628f55a4df523b3efa2646970667358221220735ecf85de1ed6789ef1de32667f468236752c933ad0d2da0e69d63f3c69ed9964736f6c63430008070033",
  "linkReferences": {},
  "deployedLinkReferences": {}
}