{
  "address": "0xc0DB994FA397D2b7E6799AfF52981faFB438f838",
  "abi": [
    {
      "inputs": [
        {
          "internalType": "address",
          "name": "_alloyxAddress",
          "type": "address"
        },
        {
          "internalType": "address",
          "name": "_stableCoinAddress",
          "type": "address"
        },
        {
          "internalType": "address",
          "name": "_fiduCoinAddress",
          "type": "address"
        },
        {
          "internalType": "address",
          "name": "_gfiCoinAddress",
          "type": "address"
        }
      ],
      "stateMutability": "nonpayable",
      "type": "constructor"
    },
    {
      "anonymous": false,
      "inputs": [
        {
          "indexed": false,
          "internalType": "address",
          "name": "_tokenReceiver",
          "type": "address"
        },
        {
          "indexed": false,
          "internalType": "uint256",
          "name": "_tokenAmount",
          "type": "uint256"
        }
      ],
      "name": "Burn",
      "type": "event"
    },
    {
      "anonymous": false,
      "inputs": [
        {
          "indexed": true,
          "internalType": "bytes32",
          "name": "id",
          "type": "bytes32"
        }
      ],
      "name": "ChainlinkCancelled",
      "type": "event"
    },
    {
      "anonymous": false,
      "inputs": [
        {
          "indexed": true,
          "internalType": "bytes32",
          "name": "id",
          "type": "bytes32"
        }
      ],
      "name": "ChainlinkFulfilled",
      "type": "event"
    },
    {
      "anonymous": false,
      "inputs": [
        {
          "indexed": true,
          "internalType": "bytes32",
          "name": "id",
          "type": "bytes32"
        }
      ],
      "name": "ChainlinkRequested",
      "type": "event"
    },
    {
      "anonymous": false,
      "inputs": [
        {
          "indexed": false,
          "internalType": "address",
          "name": "_tokenAddress",
          "type": "address"
        },
        {
          "indexed": false,
          "internalType": "address",
          "name": "_tokenSender",
          "type": "address"
        },
        {
          "indexed": false,
          "internalType": "uint256",
          "name": "_tokenAmount",
          "type": "uint256"
        }
      ],
      "name": "DepositAlloyx",
      "type": "event"
    },
    {
      "anonymous": false,
      "inputs": [
        {
          "indexed": false,
          "internalType": "address",
          "name": "_tokenAddress",
          "type": "address"
        },
        {
          "indexed": false,
          "internalType": "address",
          "name": "_tokenSender",
          "type": "address"
        },
        {
          "indexed": false,
          "internalType": "uint256",
          "name": "_tokenID",
          "type": "uint256"
        }
      ],
      "name": "DepositNFT",
      "type": "event"
    },
    {
      "anonymous": false,
      "inputs": [
        {
          "indexed": false,
          "internalType": "address",
          "name": "_tokenAddress",
          "type": "address"
        },
        {
          "indexed": false,
          "internalType": "address",
          "name": "_tokenSender",
          "type": "address"
        },
        {
          "indexed": false,
          "internalType": "uint256",
          "name": "_tokenAmount",
          "type": "uint256"
        }
      ],
      "name": "DepositStable",
      "type": "event"
    },
    {
      "anonymous": false,
      "inputs": [
        {
          "indexed": false,
          "internalType": "address",
          "name": "_tokenReceiver",
          "type": "address"
        },
        {
          "indexed": false,
          "internalType": "uint256",
          "name": "_tokenAmount",
          "type": "uint256"
        }
      ],
      "name": "Mint",
      "type": "event"
    },
    {
      "anonymous": false,
      "inputs": [
        {
          "indexed": true,
          "internalType": "address",
          "name": "previousOwner",
          "type": "address"
        },
        {
          "indexed": true,
          "internalType": "address",
          "name": "newOwner",
          "type": "address"
        }
      ],
      "name": "OwnershipTransferred",
      "type": "event"
    },
    {
      "anonymous": false,
      "inputs": [
        {
          "indexed": false,
          "internalType": "address",
          "name": "account",
          "type": "address"
        }
      ],
      "name": "Paused",
      "type": "event"
    },
    {
      "anonymous": false,
      "inputs": [
        {
          "indexed": false,
          "internalType": "address",
          "name": "account",
          "type": "address"
        }
      ],
      "name": "Unpaused",
      "type": "event"
    },
    {
      "inputs": [
        {
          "internalType": "address",
          "name": "_tokenAddress",
          "type": "address"
        }
      ],
      "name": "balanceOfToken",
      "outputs": [
        {
          "internalType": "uint256",
          "name": "",
          "type": "uint256"
        }
      ],
      "stateMutability": "view",
      "type": "function"
    },
    {
      "inputs": [
        {
          "internalType": "address",
          "name": "_alloyxAddress",
          "type": "address"
        }
      ],
      "name": "changeAlloyxAddress",
      "outputs": [],
      "stateMutability": "nonpayable",
      "type": "function"
    },
    {
      "inputs": [
        {
          "internalType": "uint256",
          "name": "_tokenAmount",
          "type": "uint256"
        }
      ],
      "name": "depositAlloyTokens",
      "outputs": [
        {
          "internalType": "bool",
          "name": "",
          "type": "bool"
        }
      ],
      "stateMutability": "nonpayable",
      "type": "function"
    },
    {
      "inputs": [
        {
          "internalType": "address",
          "name": "_tokenAddress",
          "type": "address"
        },
        {
          "internalType": "uint256",
          "name": "_tokenID",
          "type": "uint256"
        }
      ],
      "name": "depositNFTToken",
      "outputs": [
        {
          "internalType": "bool",
          "name": "",
          "type": "bool"
        }
      ],
      "stateMutability": "nonpayable",
      "type": "function"
    },
    {
      "inputs": [
        {
          "internalType": "uint256",
          "name": "_tokenAmount",
          "type": "uint256"
        }
      ],
      "name": "depositStableCoin",
      "outputs": [
        {
          "internalType": "bool",
          "name": "",
          "type": "bool"
        }
      ],
      "stateMutability": "nonpayable",
      "type": "function"
    },
    {
      "inputs": [],
      "name": "destroy",
      "outputs": [],
      "stateMutability": "nonpayable",
      "type": "function"
    },
    {
      "inputs": [
        {
          "internalType": "bytes32",
          "name": "_requestId",
          "type": "bytes32"
        },
        {
          "internalType": "uint256",
          "name": "_result",
          "type": "uint256"
        }
      ],
      "name": "fulfill",
      "outputs": [],
      "stateMutability": "nonpayable",
      "type": "function"
    },
    {
      "inputs": [
        {
          "internalType": "address",
          "name": "_tokenAddress",
          "type": "address"
        },
        {
          "internalType": "uint256",
          "name": "_tokenID",
          "type": "uint256"
        }
      ],
      "name": "getJuniorTokenValue",
      "outputs": [
        {
          "internalType": "uint256",
          "name": "",
          "type": "uint256"
        }
      ],
      "stateMutability": "view",
      "type": "function"
    },
    {
      "inputs": [
        {
          "internalType": "address",
          "name": "_tokenAddress",
          "type": "address"
        },
        {
          "internalType": "uint256",
          "name": "_tokenID",
          "type": "uint256"
        }
      ],
      "name": "isValidPool",
      "outputs": [
        {
          "internalType": "bool",
          "name": "",
          "type": "bool"
        }
      ],
      "stateMutability": "view",
      "type": "function"
    },
    {
      "inputs": [
        {
          "internalType": "address",
          "name": "_tokenAddress",
          "type": "address"
        },
        {
          "internalType": "address payable",
          "name": "_to",
          "type": "address"
        }
      ],
      "name": "migrateERC20",
      "outputs": [],
      "stateMutability": "nonpayable",
      "type": "function"
    },
    {
      "inputs": [
        {
          "internalType": "address",
          "name": "_tokenAddress",
          "type": "address"
        },
        {
          "internalType": "address payable",
          "name": "_toAddress",
          "type": "address"
        },
        {
          "internalType": "uint256",
          "name": "_tokenID",
          "type": "uint256"
        }
      ],
      "name": "migrateNFT",
      "outputs": [],
      "stateMutability": "nonpayable",
      "type": "function"
    },
    {
      "inputs": [
        {
          "internalType": "address",
          "name": "",
          "type": "address"
        },
        {
          "internalType": "address",
          "name": "",
          "type": "address"
        },
        {
          "internalType": "uint256",
          "name": "",
          "type": "uint256"
        },
        {
          "internalType": "bytes",
          "name": "",
          "type": "bytes"
        }
      ],
      "name": "onERC721Received",
      "outputs": [
        {
          "internalType": "bytes4",
          "name": "",
          "type": "bytes4"
        }
      ],
      "stateMutability": "nonpayable",
      "type": "function"
    },
    {
      "inputs": [],
      "name": "owner",
      "outputs": [
        {
          "internalType": "address",
          "name": "",
          "type": "address"
        }
      ],
      "stateMutability": "view",
      "type": "function"
    },
    {
      "inputs": [],
      "name": "pause",
      "outputs": [],
      "stateMutability": "nonpayable",
      "type": "function"
    },
    {
      "inputs": [],
      "name": "paused",
      "outputs": [
        {
          "internalType": "bool",
          "name": "",
          "type": "bool"
        }
      ],
      "stateMutability": "view",
      "type": "function"
    },
    {
      "inputs": [],
      "name": "renounceOwnership",
      "outputs": [],
      "stateMutability": "nonpayable",
      "type": "function"
    },
    {
      "inputs": [],
      "name": "requestAlloyUSDCExchangeRate",
      "outputs": [
        {
          "internalType": "bytes32",
          "name": "requestId",
          "type": "bytes32"
        }
      ],
      "stateMutability": "nonpayable",
      "type": "function"
    },
    {
      "inputs": [
        {
          "internalType": "address",
          "name": "_to",
          "type": "address"
        }
      ],
      "name": "transferAlloyxOwnership",
      "outputs": [],
      "stateMutability": "nonpayable",
      "type": "function"
    },
    {
      "inputs": [
        {
          "internalType": "address",
          "name": "newOwner",
          "type": "address"
        }
      ],
      "name": "transferOwnership",
      "outputs": [],
      "stateMutability": "nonpayable",
      "type": "function"
    },
    {
      "inputs": [],
      "name": "unpause",
      "outputs": [],
      "stateMutability": "nonpayable",
      "type": "function"
    }
  ],
  "transactionHash": "0xa16f73eb7534fa2c7b0ac29624709fbad35bf7bdcf3362fb4a57474ede3f2512",
  "args": [
    "0xEA6766FB7d1F48cCd4c3ac16802a6a77Cf068CC0",
    "0x8E7093Ad9720E606bF617FD465e9dCa5b1Ef0Ea7",
    "0x69e9AEEc8502263146e76BD45E9764B66784fc05",
    "0x7f5aC1A7dAE079bbdBE879C58f89A5c9C64D44A1"
  ],
  "numDeployments": 10,
  "solcInputHash": "e9799bb5550e781b98a0b5484867cd88",
  "bytecode": "0x608060405260016004553480156200001657600080fd5b50604051620036bc380380620036bc833981016040819052620000399162000241565b6200004433620000fc565b6006805460ff60a01b191690556200005b6200014e565b6009805473c57b33452b4f7bb189bb5afae9cc4aba1f7a4fd86001600160a01b0319918216179091557f6435323730643163333131393431643062303862656164323166656137373437600a5567016345785d8a0000600b55600f805482166001600160a01b03968716179055600c8054821694861694909417909355600d80548416918516919091179055600e805490921692169190911790556200029e565b600680546001600160a01b038381166001600160a01b0319831681179093556040519116919082907f8be0079c531659141344cd1fd0a4f28419497f9722a3daafe3b4186f6b6457e090600090a35050565b620001fd73c89bd4e1632d3a43cb03aaad5262cbe4038bc5716001600160a01b03166338cc48316040518163ffffffff1660e01b815260040160206040518083038186803b158015620001a057600080fd5b505afa158015620001b5573d6000803e3d6000fd5b505050506040513d601f19601f82011682018060405250810190620001db91906200021c565b600280546001600160a01b0319166001600160a01b0392909216919091179055565b565b80516001600160a01b03811681146200021757600080fd5b919050565b6000602082840312156200022f57600080fd5b6200023a82620001ff565b9392505050565b600080600080608085870312156200025857600080fd5b6200026385620001ff565b93506200027360208601620001ff565b92506200028360408601620001ff565b91506200029360608601620001ff565b905092959194509250565b61340e80620002ae6000396000f3fe608060405234801561001057600080fd5b506004361061016c5760003560e01c806383197ef0116100cd578063b338ad1611610081578063d8ec060811610066578063d8ec0608146102c2578063d905e9b4146102d5578063f2fde38b146102e857600080fd5b8063b338ad161461029c578063b99152d0146102af57600080fd5b80638da5cb5b116100b25780638da5cb5b14610266578063a0725d9314610281578063a755d0921461029457600080fd5b806383197ef0146102565780638456cb591461025e57600080fd5b8063472e4446116101245780635c975abb116101095780635c975abb14610229578063715018a61461023b57806371583d4c1461024357600080fd5b8063472e4446146101f557806354bca56e1461021657600080fd5b8063354d3c3011610155578063354d3c30146101b75780633f4ba83a146101da5780634357855e146101e257600080fd5b80630636f05c14610171578063150b7a0214610186575b600080fd5b61018461017f366004612e65565b6102fb565b005b610199610194366004612ea6565b610417565b6040516001600160e01b031990911681526020015b60405180910390f35b6101ca6101c5366004612f6a565b610441565b60405190151581526020016101ae565b610184610565565b6101846101f0366004612fb8565b610619565b610208610203366004612f6a565b610c98565b6040519081526020016101ae565b610184610224366004612df2565b610e1a565b600654600160a01b900460ff166101ca565b610184610e96565b6101ca610251366004613053565b610efa565b6101846111af565b6101846114d3565b6006546040516001600160a01b0390911681526020016101ae565b6101ca61028f366004613053565b611582565b610208611837565b6101ca6102aa366004612f6a565b6118cb565b6102086102bd366004612df2565b611db2565b6101846102d0366004612df2565b611e2c565b6101846102e3366004612e2c565b611f51565b6101846102f6366004612df2565b612090565b6006546001600160a01b0316331461035a5760405162461bcd60e51b815260206004820181905260248201527f4f776e61626c653a2063616c6c6572206973206e6f7420746865206f776e657260448201526064015b60405180910390fd5b600654600160a01b900460ff166103aa5760405162461bcd60e51b815260206004820152601460248201527314185d5cd8589b194e881b9bdd081c185d5cd95960621b6044820152606401610351565b604051632142170760e11b81523060048201526001600160a01b038381166024830152604482018390528416906342842e0e90606401600060405180830381600087803b1580156103fa57600080fd5b505af115801561040e573d6000803e3d6000fd5b50505050505050565b7f150b7a02000000000000000000000000000000000000000000000000000000005b949350505050565b60405163463d31d760e11b815260048101829052600090839082906001600160a01b03831690638c7a63ae9060240160a06040518083038186803b15801561048857600080fd5b505afa15801561049c573d6000803e3d6000fd5b505050506040513d601f19601f820116820180604052508101906104c09190612fda565b80516040517fb5ada6d80000000000000000000000000000000000000000000000000000000081526001600160a01b038083166004830152929350909184169063b5ada6d89060240160206040518083038186803b15801561052157600080fd5b505afa158015610535573d6000803e3d6000fd5b505050506040513d601f19601f820116820180604052508101906105599190612f96565b93505050505b92915050565b6006546001600160a01b031633146105bf5760405162461bcd60e51b815260206004820181905260248201527f4f776e61626c653a2063616c6c6572206973206e6f7420746865206f776e65726044820152606401610351565b600654600160a01b900460ff1661060f5760405162461bcd60e51b815260206004820152601460248201527314185d5cd8589b194e881b9bdd081c185d5cd95960621b6044820152606401610351565b610617612172565b565b60008281526005602052604090205482906001600160a01b031633146106a75760405162461bcd60e51b815260206004820152602860248201527f536f75726365206d75737420626520746865206f7261636c65206f662074686560448201527f20726571756573740000000000000000000000000000000000000000000000006064820152608401610351565b60008181526005602052604080822080546001600160a01b03191690555182917f7cc135e0cebb02c3480ae5d74d377283180a2601f8f644edf7987b009316c63a91a26000838152600760205260409020600181015481546002830154600390930154600c5492936001600160a01b03928316939083169291821691168214801561073f5750600f546001600160a01b038281169116145b1561095b57600061075e6305f5e100610758898861220f565b90612222565b9050600081116107d65760405162461bcd60e51b815260206004820152603560248201527f54686520616d6f756e74206f6620616c6c6f797820636f696e20746f2067657460448201527f206973206e6f74206c6172676572207468616e203000000000000000000000006064820152608401610351565b600c546107ee906001600160a01b031685308861222e565b600f546040517f40c10f190000000000000000000000000000000000000000000000000000000081526001600160a01b03868116600483015260248201849052909116906340c10f1990604401602060405180830381600087803b15801561085557600080fd5b505af1158015610869573d6000803e3d6000fd5b505050506040513d601f19601f8201168201806040525081019061088d9190612f96565b50600088815260076020908152604080832080546001600160a01b03199081168255600182019490945560028101805485169055600301805490931690925581516001600160a01b0380871682528716918101919091529081018690527fa4f358c78f73b2049a06e0436c6728292334862a6fc2114f2de13f9cff58491f9060600160405180910390a1604080516001600160a01b0386168152602081018390527f0f6798a560793a54c3bcfe86a93cde1e73087d944c0ea20544137d4121396885910160405180910390a1505b600f546001600160a01b0383811691161480156109855750600c546001600160a01b038281169116145b1561040e5760008661099b866305f5e10061220f565b6109a591906131d9565b905060008111610a1d5760405162461bcd60e51b815260206004820152603560248201527f54686520616d6f756e74206f6620737461626c6520636f696e20746f2067657460448201527f206973206e6f74206c6172676572207468616e203000000000000000000000006064820152608401610351565b600c546040516370a0823160e01b815230600482015282916001600160a01b0316906370a082319060240160206040518083038186803b158015610a6057600080fd5b505afa158015610a74573d6000803e3d6000fd5b505050506040513d601f19601f82011682018060405250810190610a98919061306c565b1015610b0c5760405162461bcd60e51b815260206004820152602e60248201527f546865207661756c7420646f6573206e6f74206861766520737566666963696560448201527f6e7420737461626c6520636f696e0000000000000000000000000000000000006064820152608401610351565b600f546040517f9dc29fac0000000000000000000000000000000000000000000000000000000081526001600160a01b0386811660048301526024820188905290911690639dc29fac90604401602060405180830381600087803b158015610b7357600080fd5b505af1158015610b87573d6000803e3d6000fd5b505050506040513d601f19601f82011682018060405250810190610bab9190612f96565b50600c54610bc3906001600160a01b031685836122cd565b600088815260076020908152604080832080546001600160a01b03199081168255600182019490945560028101805485169055600301805490931690925581516001600160a01b0380871682528716918101919091529081018690527f53fee901a59b4d2e659e450f8db17fc345e158fe408d2b39faf66d1f8c4a54fe9060600160405180910390a1604080516001600160a01b0386168152602081018790527fcc16f5dbb4873280815c1ee09dbd06736cffcc184412cf7a71a0fdb75d397ca5910160405180910390a15050505050505050565b60405163463d31d760e11b815260048101829052600090839082906001600160a01b03831690638c7a63ae9060240160a06040518083038186803b158015610cdf57600080fd5b505afa158015610cf3573d6000803e3d6000fd5b505050506040513d601f19601f82011682018060405250810190610d179190612fda565b90506000816040015190506000610d3f8360800151846060015161231690919063ffffffff16565b83516040517f4d02fe6f0000000000000000000000000000000000000000000000000000000081526004810189905291925090819060009081906001600160a01b03841690634d02fe6f90602401604080518083038186803b158015610da457600080fd5b505afa158015610db8573d6000803e3d6000fd5b505050506040513d601f19601f82011682018060405250810190610ddc9190613085565b90925090508186821015610df657610df48183612316565b505b610e0a81610e048989612322565b90612316565b9c9b505050505050505050505050565b6006546001600160a01b03163314610e745760405162461bcd60e51b815260206004820181905260248201527f4f776e61626c653a2063616c6c6572206973206e6f7420746865206f776e65726044820152606401610351565b600f80546001600160a01b0319166001600160a01b0392909216919091179055565b6006546001600160a01b03163314610ef05760405162461bcd60e51b815260206004820181905260248201527f4f776e61626c653a2063616c6c6572206973206e6f7420746865206f776e65726044820152606401610351565b610617600061232e565b600654600090600160a01b900460ff1615610f4a5760405162461bcd60e51b815260206004820152601060248201526f14185d5cd8589b194e881c185d5cd95960821b6044820152606401610351565b600c546040516370a0823160e01b815233600482015283916001600160a01b0316906370a082319060240160206040518083038186803b158015610f8d57600080fd5b505afa158015610fa1573d6000803e3d6000fd5b505050506040513d601f19601f82011682018060405250810190610fc5919061306c565b101561101d5760405162461bcd60e51b815260206004820152602160248201527f557365722068617320696e73756666696369656e7420737461626c6520636f696044820152603760f91b6064820152608401610351565b600c54604051636eb1769f60e11b815233600482015230602482015283916001600160a01b03169063dd62ed3e9060440160206040518083038186803b15801561106657600080fd5b505afa15801561107a573d6000803e3d6000fd5b505050506040513d601f19601f8201168201806040525081019061109e919061306c565b10156111125760405162461bcd60e51b815260206004820152603a60248201527f5573657220686173206e6f7420617070726f76656420746865207661756c742060448201527f666f722073756666696369656e7420737461626c6520636f696e0000000000006064820152608401610351565b600061111c611837565b604080516080810182523381526020808201878152600c546001600160a01b03908116848601908152600f548216606086019081526000978852600790945294909520925183549086166001600160a01b03199182161784559051600184810191909155935160028401805491871691831691909117905590516003909201805492909416911617909155915050919050565b6006546001600160a01b031633146112095760405162461bcd60e51b815260206004820181905260248201527f4f776e61626c653a2063616c6c6572206973206e6f7420746865206f776e65726044820152606401610351565b600654600160a01b900460ff166112595760405162461bcd60e51b815260206004820152601460248201527314185d5cd8589b194e881b9bdd081c185d5cd95960621b6044820152606401610351565b600c546040516370a0823160e01b81523060048201526001600160a01b03909116906370a082319060240160206040518083038186803b15801561129c57600080fd5b505afa1580156112b0573d6000803e3d6000fd5b505050506040513d601f19601f820116820180604052508101906112d4919061306c565b156113215760405162461bcd60e51b815260206004820181905260248201527f42616c616e6365206f6620737461626c6520636f696e206d75737420626520306044820152606401610351565b600e546040516370a0823160e01b81523060048201526001600160a01b03909116906370a082319060240160206040518083038186803b15801561136457600080fd5b505afa158015611378573d6000803e3d6000fd5b505050506040513d601f19601f8201168201806040525081019061139c919061306c565b156113e95760405162461bcd60e51b815260206004820152601e60248201527f42616c616e6365206f66204669647520636f696e206d757374206265203000006044820152606401610351565b600d546040516370a0823160e01b81523060048201526001600160a01b03909116906370a082319060240160206040518083038186803b15801561142c57600080fd5b505afa158015611440573d6000803e3d6000fd5b505050506040513d601f19601f82011682018060405250810190611464919061306c565b156114b15760405162461bcd60e51b815260206004820152601d60248201527f42616c616e6365206f662047464920636f696e206d75737420626520300000006044820152606401610351565b60006114c56006546001600160a01b031690565b9050806001600160a01b0316ff5b6006546001600160a01b0316331461152d5760405162461bcd60e51b815260206004820181905260248201527f4f776e61626c653a2063616c6c6572206973206e6f7420746865206f776e65726044820152606401610351565b600654600160a01b900460ff161561157a5760405162461bcd60e51b815260206004820152601060248201526f14185d5cd8589b194e881c185d5cd95960821b6044820152606401610351565b610617612380565b600654600090600160a01b900460ff16156115d25760405162461bcd60e51b815260206004820152601060248201526f14185d5cd8589b194e881c185d5cd95960821b6044820152606401610351565b600f546040516370a0823160e01b815233600482015283916001600160a01b0316906370a082319060240160206040518083038186803b15801561161557600080fd5b505afa158015611629573d6000803e3d6000fd5b505050506040513d601f19601f8201168201806040525081019061164d919061306c565b10156116a55760405162461bcd60e51b815260206004820152602160248201527f557365722068617320696e73756666696369656e7420616c6c6f797820636f696044820152603760f91b6064820152608401610351565b600f54604051636eb1769f60e11b815233600482015230602482015283916001600160a01b03169063dd62ed3e9060440160206040518083038186803b1580156116ee57600080fd5b505afa158015611702573d6000803e3d6000fd5b505050506040513d601f19601f82011682018060405250810190611726919061306c565b101561179a5760405162461bcd60e51b815260206004820152603a60248201527f5573657220686173206e6f7420617070726f76656420746865207661756c742060448201527f666f722073756666696369656e7420616c6c6f797820636f696e0000000000006064820152608401610351565b60006117a4611837565b604080516080810182523381526020808201878152600f546001600160a01b03908116848601908152600c548216606086019081526000978852600790945294909520925183549086166001600160a01b03199182161784559051600184810191909155935160028401805491871691831691909117905590516003909201805492909416911617909155915050919050565b60008061184e600a5430634357855e60e01b612408565b90506118aa6040518060400160405280600381526020017f67657400000000000000000000000000000000000000000000000000000000008152506040518060600160405280603381526020016133a660339139839190612499565b600954600b546118c5916001600160a01b03169083906124b7565b91505090565b600654600090600160a01b900460ff161561191b5760405162461bcd60e51b815260206004820152601060248201526f14185d5cd8589b194e881c185d5cd95960821b6044820152606401610351565b6119258383610441565b15156001146119765760405162461bcd60e51b815260206004820152601060248201527f4e6f7420612076616c696420706f6f6c000000000000000000000000000000006044820152606401610351565b6040517f6352211e0000000000000000000000000000000000000000000000000000000081526004810183905233906001600160a01b03851690636352211e9060240160206040518083038186803b1580156119d157600080fd5b505afa1580156119e5573d6000803e3d6000fd5b505050506040513d601f19601f82011682018060405250810190611a099190612e0f565b6001600160a01b031614611a5f5760405162461bcd60e51b815260206004820152601c60248201527f5573657220646f6573206e6f74206f776e207468697320746f6b656e000000006044820152606401610351565b6040517f081812fc0000000000000000000000000000000000000000000000000000000081526004810183905230906001600160a01b0385169063081812fc9060240160206040518083038186803b158015611aba57600080fd5b505afa158015611ace573d6000803e3d6000fd5b505050506040513d601f19601f82011682018060405250810190611af29190612e0f565b6001600160a01b031614611b6e5760405162461bcd60e51b815260206004820152602e60248201527f5573657220686173206e6f7420617070726f76656420746865207661756c742060448201527f666f72207468697320746f6b656e0000000000000000000000000000000000006064820152608401610351565b6000611b7a8484610c98565b905060008111611bf25760405162461bcd60e51b815260206004820152603560248201527f54686520616d6f756e74206f6620737461626c6520636f696e20746f2067657460448201527f206973206e6f74206c6172676572207468616e203000000000000000000000006064820152608401610351565b600c546040516370a0823160e01b815230600482015282916001600160a01b0316906370a082319060240160206040518083038186803b158015611c3557600080fd5b505afa158015611c49573d6000803e3d6000fd5b505050506040513d601f19601f82011682018060405250810190611c6d919061306c565b1015611ce15760405162461bcd60e51b815260206004820152602e60248201527f546865207661756c7420646f6573206e6f74206861766520737566666963696560448201527f6e7420737461626c6520636f696e0000000000000000000000000000000000006064820152608401610351565b604051632142170760e11b8152336004820152306024820152604481018490526001600160a01b038516906342842e0e90606401600060405180830381600087803b158015611d2f57600080fd5b505af1158015611d43573d6000803e3d6000fd5b5050600c54611d5f92506001600160a01b0316905033836122cd565b604080516001600160a01b03861681523360208201529081018490527fc7e8b1bdbecdc8a549557efb2a2ab715cff51630caead31610000019e61dfa4b9060600160405180910390a15060019392505050565b6040516370a0823160e01b81523060048201526000906001600160a01b038316906370a082319060240160206040518083038186803b158015611df457600080fd5b505afa158015611e08573d6000803e3d6000fd5b505050506040513d601f19601f8201168201806040525081019061055f919061306c565b6006546001600160a01b03163314611e865760405162461bcd60e51b815260206004820181905260248201527f4f776e61626c653a2063616c6c6572206973206e6f7420746865206f776e65726044820152606401610351565b600654600160a01b900460ff16611ed65760405162461bcd60e51b815260206004820152601460248201527314185d5cd8589b194e881b9bdd081c185d5cd95960621b6044820152606401610351565b600f546040517ff2fde38b0000000000000000000000000000000000000000000000000000000081526001600160a01b0383811660048301529091169063f2fde38b90602401600060405180830381600087803b158015611f3657600080fd5b505af1158015611f4a573d6000803e3d6000fd5b5050505050565b6006546001600160a01b03163314611fab5760405162461bcd60e51b815260206004820181905260248201527f4f776e61626c653a2063616c6c6572206973206e6f7420746865206f776e65726044820152606401610351565b600654600160a01b900460ff16611ffb5760405162461bcd60e51b815260206004820152601460248201527314185d5cd8589b194e881b9bdd081c185d5cd95960621b6044820152606401610351565b6040516370a0823160e01b81523060048201526000906001600160a01b038416906370a082319060240160206040518083038186803b15801561203d57600080fd5b505afa158015612051573d6000803e3d6000fd5b505050506040513d601f19601f82011682018060405250810190612075919061306c565b905061208b6001600160a01b03841683836122cd565b505050565b6006546001600160a01b031633146120ea5760405162461bcd60e51b815260206004820181905260248201527f4f776e61626c653a2063616c6c6572206973206e6f7420746865206f776e65726044820152606401610351565b6001600160a01b0381166121665760405162461bcd60e51b815260206004820152602660248201527f4f776e61626c653a206e6577206f776e657220697320746865207a65726f206160448201527f64647265737300000000000000000000000000000000000000000000000000006064820152608401610351565b61216f8161232e565b50565b600654600160a01b900460ff166121c25760405162461bcd60e51b815260206004820152601460248201527314185d5cd8589b194e881b9bdd081c185d5cd95960621b6044820152606401610351565b6006805460ff60a01b191690557f5db9ee0a495bf2e6ff9c91a7834c1ba4fdd244a5e8aa4e537bd38aeae4b073aa335b6040516001600160a01b03909116815260200160405180910390a1565b600061221b82846132d8565b9392505050565b600061221b82846131d9565b6040516001600160a01b03808516602483015283166044820152606481018290526122c79085907f23b872dd00000000000000000000000000000000000000000000000000000000906084015b60408051601f198184030181529190526020810180517bffffffffffffffffffffffffffffffffffffffffffffffffffffffff166001600160e01b031990931692909217909152612578565b50505050565b6040516001600160a01b03831660248201526044810182905261208b9084907fa9059cbb000000000000000000000000000000000000000000000000000000009060640161227b565b600061221b82846131c1565b600061221b82846132f7565b600680546001600160a01b038381166001600160a01b0319831681179093556040519116919082907f8be0079c531659141344cd1fd0a4f28419497f9722a3daafe3b4186f6b6457e090600090a35050565b600654600160a01b900460ff16156123cd5760405162461bcd60e51b815260206004820152601060248201526f14185d5cd8589b194e881c185d5cd95960821b6044820152606401610351565b6006805460ff60a01b1916600160a01b1790557f62e78cea01bee320cd4e420270b5ea74000d11b0c9f74754ebdbfc544b05a2586121f23390565b6124466040805160a0810182526000808252602080830182905282840182905260608084018390528451808601909552845283015290608082015290565b6124846040805160a0810182526000808252602080830182905282840182905260608084018390528451808601909552845283015290608082015290565b6124908186868661265d565b95945050505050565b60808301516124a890836126d0565b608083015161208b90826126d0565b6004546000906124c88160016131c1565b600455835160408086015160808701515191516000937f4042994600000000000000000000000000000000000000000000000000000000936125199386938493923092918a916001916024016130f1565b60408051601f198184030181529190526020810180517bffffffffffffffffffffffffffffffffffffffffffffffffffffffff166001600160e01b031990931692909217909152905061256e868386846126e7565b9695505050505050565b60006125cd826040518060400160405280602081526020017f5361666545524332303a206c6f772d6c6576656c2063616c6c206661696c6564815250856001600160a01b03166128879092919063ffffffff16565b80519091501561208b57808060200190518101906125eb9190612f96565b61208b5760405162461bcd60e51b815260206004820152602a60248201527f5361666545524332303a204552433230206f7065726174696f6e20646964206e60448201527f6f742073756363656564000000000000000000000000000000000000000000006064820152608401610351565b61269b6040805160a0810182526000808252602080830182905282840182905260608084018390528451808601909552845283015290608082015290565b6126ab8560800151610100612896565b50509183526001600160a01b031660208301526001600160e01b031916604082015290565b6126dd82600383516128fb565b61208b8282612a0a565b6040516bffffffffffffffffffffffff193060601b1660208201526034810184905260009060540160408051808303601f1901815282825280516020918201206000818152600590925291812080546001600160a01b0319166001600160a01b038a1617905590925082917fb5e6e01e79f91267dc17b4e6314d5d4d03593d2ceee0fbb452b750bd70ea5af99190a26002546040517f4000aea00000000000000000000000000000000000000000000000000000000081526001600160a01b0390911690634000aea0906127c390889087908790600401613155565b602060405180830381600087803b1580156127dd57600080fd5b505af11580156127f1573d6000803e3d6000fd5b505050506040513d601f19601f820116820180604052508101906128159190612f96565b6104395760405162461bcd60e51b815260206004820152602360248201527f756e61626c6520746f207472616e73666572416e6443616c6c20746f206f726160448201527f636c6500000000000000000000000000000000000000000000000000000000006064820152608401610351565b60606104398484600085612a31565b6040805180820190915260608152600060208201526128b660208361333a565b156128de576128c660208361333a565b6128d19060206132f7565b6128db90836131c1565b91505b506020828101829052604080518085526000815290920101905290565b60178167ffffffffffffffff1611612920576122c78360e0600585901b168317612b79565b60ff8167ffffffffffffffff161161295e57612947836018611fe0600586901b1617612b79565b506122c78367ffffffffffffffff83166001612b9e565b61ffff8167ffffffffffffffff161161299d57612986836019611fe0600586901b1617612b79565b506122c78367ffffffffffffffff83166002612b9e565b63ffffffff8167ffffffffffffffff16116129de576129c783601a611fe0600586901b1617612b79565b506122c78367ffffffffffffffff83166004612b9e565b6129f383601b611fe0600586901b1617612b79565b506122c78367ffffffffffffffff83166008612b9e565b60408051808201909152606081526000602082015261221b83846000015151848551612bc4565b606082471015612aa95760405162461bcd60e51b815260206004820152602660248201527f416464726573733a20696e73756666696369656e742062616c616e636520666f60448201527f722063616c6c00000000000000000000000000000000000000000000000000006064820152608401610351565b6001600160a01b0385163b612b005760405162461bcd60e51b815260206004820152601d60248201527f416464726573733a2063616c6c20746f206e6f6e2d636f6e74726163740000006044820152606401610351565b600080866001600160a01b03168587604051612b1c91906130d5565b60006040518083038185875af1925050503d8060008114612b59576040519150601f19603f3d011682016040523d82523d6000602084013e612b5e565b606091505b5091509150612b6e828286612cae565b979650505050505050565b60408051808201909152606081526000602082015261221b8384600001515184612ce7565b604080518082019091526060815260006020820152610439848560000151518585612d43565b6040805180820190915260608152600060208201528251821115612be757600080fd5b6020850151612bf683866131c1565b1115612c2957612c2985612c1987602001518786612c1491906131c1565b612dc4565b612c249060026132d8565b612ddb565b600080865180518760208301019350808887011115612c485787860182525b505050602084015b60208410612c885780518252612c676020836131c1565b9150612c746020826131c1565b9050612c816020856132f7565b9350612c50565b51815160001960208690036101000a019081169019919091161790525083949350505050565b60608315612cbd57508161221b565b825115612ccd5782518084602001fd5b8160405162461bcd60e51b8152600401610351919061317d565b60408051808201909152606081526000602082015283602001518310612d1c57612d1c8485602001516002612c2491906132d8565b835180516020858301018481535080851415612d39576001810182525b5093949350505050565b6040805180820190915260608152600060208201526020850151612d6785846131c1565b1115612d7b57612d7b85612c1986856131c1565b60006001612d8b84610100613230565b612d9591906132f7565b9050855183868201018583198251161781525080518487011115612db95783860181525b509495945050505050565b600081831115612dd557508161055f565b50919050565b8151612de78383612896565b506122c78382612a0a565b600060208284031215612e0457600080fd5b813561221b81613390565b600060208284031215612e2157600080fd5b815161221b81613390565b60008060408385031215612e3f57600080fd5b8235612e4a81613390565b91506020830135612e5a81613390565b809150509250929050565b600080600060608486031215612e7a57600080fd5b8335612e8581613390565b92506020840135612e9581613390565b929592945050506040919091013590565b60008060008060808587031215612ebc57600080fd5b8435612ec781613390565b9350602085810135612ed881613390565b935060408601359250606086013567ffffffffffffffff80821115612efc57600080fd5b818801915088601f830112612f1057600080fd5b813581811115612f2257612f2261337a565b612f34601f8201601f19168501613190565b91508082528984828501011115612f4a57600080fd5b808484018584013760008482840101525080935050505092959194509250565b60008060408385031215612f7d57600080fd5b8235612f8881613390565b946020939093013593505050565b600060208284031215612fa857600080fd5b8151801515811461221b57600080fd5b60008060408385031215612fcb57600080fd5b50508035926020909101359150565b600060a08284031215612fec57600080fd5b60405160a0810181811067ffffffffffffffff8211171561300f5761300f61337a565b604052825161301d81613390565b80825250602083015160208201526040830151604082015260608301516060820152608083015160808201528091505092915050565b60006020828403121561306557600080fd5b5035919050565b60006020828403121561307e57600080fd5b5051919050565b6000806040838503121561309857600080fd5b505080516020909101519092909150565b600081518084526130c181602086016020860161330e565b601f01601f19169290920160200192915050565b600082516130e781846020870161330e565b9190910192915050565b60006101006001600160a01b03808c1684528a60208501528960408501528089166060850152506001600160e01b0319871660808401528560a08401528460c08401528060e0840152613146818401856130a9565b9b9a5050505050505050505050565b6001600160a01b038416815282602082015260606040820152600061249060608301846130a9565b60208152600061221b60208301846130a9565b604051601f8201601f1916810167ffffffffffffffff811182821017156131b9576131b961337a565b604052919050565b600082198211156131d4576131d461334e565b500190565b6000826131e8576131e8613364565b500490565b600181815b8085111561322857816000190482111561320e5761320e61334e565b8085161561321b57918102915b93841c93908002906131f2565b509250929050565b600061221b83836000826132465750600161055f565b816132535750600061055f565b816001811461326957600281146132735761328f565b600191505061055f565b60ff8411156132845761328461334e565b50506001821b61055f565b5060208310610133831016604e8410600b84101617156132b2575081810a61055f565b6132bc83836131ed565b80600019048211156132d0576132d061334e565b029392505050565b60008160001904831182151516156132f2576132f261334e565b500290565b6000828210156133095761330961334e565b500390565b60005b83811015613329578181015183820152602001613311565b838111156122c75750506000910152565b60008261334957613349613364565b500690565b634e487b7160e01b600052601160045260246000fd5b634e487b7160e01b600052601260045260246000fd5b634e487b7160e01b600052604160045260246000fd5b6001600160a01b038116811461216f57600080fdfe68747470733a2f2f616c6c6f79786261636b656e642e75772e722e61707073706f742e636f6d2f616d6f756e74546f4d696e74a2646970667358221220e60c4603150d0d043af8addd970f466bd8ec937580927745f9bbb99d1399f2f064736f6c63430008070033",
  "devdoc": {
    "author": "AlloyX",
    "kind": "dev",
    "methods": {
      "depositAlloyTokens(uint256)": {
        "params": {
          "_tokenAmount": "Number of Alloy Tokens"
        }
      },
      "depositNFTToken(address,uint256)": {
        "params": {
          "_tokenAddress": "NFT Address",
          "_tokenID": "NFT ID"
        }
      },
      "depositStableCoin(uint256)": {
        "params": {
          "_tokenAmount": "Number of stable coin"
        }
      },
      "fulfill(bytes32,uint256)": {
        "params": {
          "_requestId": "Unique identifier for the request",
          "_result": "The API response"
        }
      },
      "getJuniorTokenValue(address,uint256)": {
        "params": {
          "_tokenAddress": "The backer NFT address",
          "_tokenID": "The backer NFT id"
        }
      },
      "isValidPool(address,uint256)": {
        "params": {
          "_tokenAddress": "The backer NFT address",
          "_tokenID": "The backer NFT id"
        }
      },
      "onERC721Received(address,address,uint256,bytes)": {
        "details": "See {IERC721Receiver-onERC721Received}. Always returns `IERC721Receiver.onERC721Received.selector`."
      },
      "owner()": {
        "details": "Returns the address of the current owner."
      },
      "paused()": {
        "details": "Returns true if the contract is paused, and false otherwise."
      },
      "renounceOwnership()": {
        "details": "Leaves the contract without owner. It will not be possible to call `onlyOwner` functions anymore. Can only be called by the current owner. NOTE: Renouncing ownership will leave the contract without an owner, thereby removing any functionality that is only available to the owner."
      },
      "transferOwnership(address)": {
        "details": "Transfers ownership of the contract to a new account (`newOwner`). Can only be called by the current owner."
      }
    },
    "title": "AlloyX Vault",
    "version": 1
  },
  "userdoc": {
    "kind": "user",
    "methods": {
      "constructor": {
        "notice": "Network: Kovan Oracle: 0xc57B33452b4F7BB189bB5AfaE9cc4aBa1f7a4FD8 (Chainlink Devrel Node) Job ID: d5270d1c311941d0b08bead21fea7747 Fee: 0.1 LINK"
      },
      "depositAlloyTokens(uint256)": {
        "notice": "An Alloy token holder can deposit their tokens and redeem them for USDC"
      },
      "depositNFTToken(address,uint256)": {
        "notice": "A Junior token holder can deposit their NFT for stable coin"
      },
      "depositStableCoin(uint256)": {
        "notice": "A Liquidity Provider can deposit supported stable coins for Alloy Tokens"
      },
      "fulfill(bytes32,uint256)": {
        "notice": "The response we get from the Chainlink request"
      },
      "getJuniorTokenValue(address,uint256)": {
        "notice": "Using the Goldfinch contracts, read the principal, redeemed and redeemable values"
      },
      "isValidPool(address,uint256)": {
        "notice": "Using the PoolTokens interface, check if this is a valid pool"
      },
      "requestAlloyUSDCExchangeRate()": {
        "notice": "The pricing oracle that gets stable coin exchange rate for the Alloy token"
      }
    },
    "notice": "Initial vault for AlloyX. This vault holds loan tokens generated on Goldfinch and emits AlloyTokens when a liquidity provider deposits supported stable coins. The contract uses a pricing oracle to determine the value of the underlying assets",
    "version": 1
  },
  "storageLayout": {
    "storage": [
      {
        "astId": 319,
        "contract": "contracts/alloyx/v1.0/AlloyxVault.sol:AlloyxVault",
        "label": "s_ens",
        "offset": 0,
        "slot": "0",
        "type": "t_contract(ENSInterface)974"
      },
      {
        "astId": 321,
        "contract": "contracts/alloyx/v1.0/AlloyxVault.sol:AlloyxVault",
        "label": "s_ensNode",
        "offset": 0,
        "slot": "1",
        "type": "t_bytes32"
      },
      {
        "astId": 324,
        "contract": "contracts/alloyx/v1.0/AlloyxVault.sol:AlloyxVault",
        "label": "s_link",
        "offset": 0,
        "slot": "2",
        "type": "t_contract(LinkTokenInterface)1069"
      },
      {
        "astId": 327,
        "contract": "contracts/alloyx/v1.0/AlloyxVault.sol:AlloyxVault",
        "label": "s_oracle",
        "offset": 0,
        "slot": "3",
        "type": "t_contract(OperatorInterface)1149"
      },
      {
        "astId": 330,
        "contract": "contracts/alloyx/v1.0/AlloyxVault.sol:AlloyxVault",
        "label": "s_requestCount",
        "offset": 0,
        "slot": "4",
        "type": "t_uint256"
      },
      {
        "astId": 334,
        "contract": "contracts/alloyx/v1.0/AlloyxVault.sol:AlloyxVault",
        "label": "s_pendingRequests",
        "offset": 0,
        "slot": "5",
        "type": "t_mapping(t_bytes32,t_address)"
      },
      {
        "astId": 2183,
        "contract": "contracts/alloyx/v1.0/AlloyxVault.sol:AlloyxVault",
        "label": "_owner",
        "offset": 0,
        "slot": "6",
        "type": "t_address"
      },
      {
        "astId": 2298,
        "contract": "contracts/alloyx/v1.0/AlloyxVault.sol:AlloyxVault",
        "label": "_paused",
        "offset": 20,
        "slot": "6",
        "type": "t_bool"
      },
      {
        "astId": 6050,
        "contract": "contracts/alloyx/v1.0/AlloyxVault.sol:AlloyxVault",
        "label": "tokenToProcessMap",
        "offset": 0,
        "slot": "7",
        "type": "t_mapping(t_bytes32,t_struct(TokenMeta)6045_storage)"
      },
      {
        "astId": 6052,
        "contract": "contracts/alloyx/v1.0/AlloyxVault.sol:AlloyxVault",
        "label": "result",
        "offset": 0,
        "slot": "8",
        "type": "t_uint256"
      },
      {
        "astId": 6054,
        "contract": "contracts/alloyx/v1.0/AlloyxVault.sol:AlloyxVault",
        "label": "oracle",
        "offset": 0,
        "slot": "9",
        "type": "t_address"
      },
      {
        "astId": 6056,
        "contract": "contracts/alloyx/v1.0/AlloyxVault.sol:AlloyxVault",
        "label": "jobId",
        "offset": 0,
        "slot": "10",
        "type": "t_bytes32"
      },
      {
        "astId": 6058,
        "contract": "contracts/alloyx/v1.0/AlloyxVault.sol:AlloyxVault",
        "label": "fee",
        "offset": 0,
        "slot": "11",
        "type": "t_uint256"
      },
      {
        "astId": 6061,
        "contract": "contracts/alloyx/v1.0/AlloyxVault.sol:AlloyxVault",
        "label": "stableCoin",
        "offset": 0,
        "slot": "12",
        "type": "t_contract(IERC20)3038"
      },
      {
        "astId": 6064,
        "contract": "contracts/alloyx/v1.0/AlloyxVault.sol:AlloyxVault",
        "label": "gfiCoin",
        "offset": 0,
        "slot": "13",
        "type": "t_contract(IERC20)3038"
      },
      {
        "astId": 6067,
        "contract": "contracts/alloyx/v1.0/AlloyxVault.sol:AlloyxVault",
        "label": "fiduCoin",
        "offset": 0,
        "slot": "14",
        "type": "t_contract(IERC20)3038"
      },
      {
        "astId": 6070,
        "contract": "contracts/alloyx/v1.0/AlloyxVault.sol:AlloyxVault",
        "label": "alloyToken",
        "offset": 0,
        "slot": "15",
        "type": "t_contract(AlloyxTokenBronze)5729"
      }
    ],
    "types": {
      "t_address": {
        "encoding": "inplace",
        "label": "address",
        "numberOfBytes": "20"
      },
      "t_bool": {
        "encoding": "inplace",
        "label": "bool",
        "numberOfBytes": "1"
      },
      "t_bytes32": {
        "encoding": "inplace",
        "label": "bytes32",
        "numberOfBytes": "32"
      },
      "t_contract(AlloyxTokenBronze)5729": {
        "encoding": "inplace",
        "label": "contract AlloyxTokenBronze",
        "numberOfBytes": "20"
      },
      "t_contract(ENSInterface)974": {
        "encoding": "inplace",
        "label": "contract ENSInterface",
        "numberOfBytes": "20"
      },
      "t_contract(IERC20)3038": {
        "encoding": "inplace",
        "label": "contract IERC20",
        "numberOfBytes": "20"
      },
      "t_contract(LinkTokenInterface)1069": {
        "encoding": "inplace",
        "label": "contract LinkTokenInterface",
        "numberOfBytes": "20"
      },
      "t_contract(OperatorInterface)1149": {
        "encoding": "inplace",
        "label": "contract OperatorInterface",
        "numberOfBytes": "20"
      },
      "t_mapping(t_bytes32,t_address)": {
        "encoding": "mapping",
        "key": "t_bytes32",
        "label": "mapping(bytes32 => address)",
        "numberOfBytes": "32",
        "value": "t_address"
      },
      "t_mapping(t_bytes32,t_struct(TokenMeta)6045_storage)": {
        "encoding": "mapping",
        "key": "t_bytes32",
        "label": "mapping(bytes32 => struct AlloyxVault.TokenMeta)",
        "numberOfBytes": "32",
        "value": "t_struct(TokenMeta)6045_storage"
      },
      "t_struct(TokenMeta)6045_storage": {
        "encoding": "inplace",
        "label": "struct AlloyxVault.TokenMeta",
        "members": [
          {
            "astId": 6038,
            "contract": "contracts/alloyx/v1.0/AlloyxVault.sol:AlloyxVault",
            "label": "receiver",
            "offset": 0,
            "slot": "0",
            "type": "t_address"
          },
          {
            "astId": 6040,
            "contract": "contracts/alloyx/v1.0/AlloyxVault.sol:AlloyxVault",
            "label": "amountOrId",
            "offset": 0,
            "slot": "1",
            "type": "t_uint256"
          },
          {
            "astId": 6042,
            "contract": "contracts/alloyx/v1.0/AlloyxVault.sol:AlloyxVault",
            "label": "fromToken",
            "offset": 0,
            "slot": "2",
            "type": "t_address"
          },
          {
            "astId": 6044,
            "contract": "contracts/alloyx/v1.0/AlloyxVault.sol:AlloyxVault",
            "label": "toToken",
            "offset": 0,
            "slot": "3",
            "type": "t_address"
          }
        ],
        "numberOfBytes": "128"
      },
      "t_uint256": {
        "encoding": "inplace",
        "label": "uint256",
        "numberOfBytes": "32"
      }
    }
  }
}