{
  "address": "0x1D669195735DBD4dA2E7f54a0f7Bf0dc92099ff3",
  "abi": [
    {
      "inputs": [
        {
          "internalType": "address",
          "name": "_uidAddress",
          "type": "address"
        }
      ],
      "stateMutability": "nonpayable",
      "type": "constructor"
    },
    {
      "anonymous": false,
      "inputs": [
        {
          "indexed": false,
          "internalType": "string",
          "name": "_field",
          "type": "string"
        },
        {
          "indexed": false,
          "internalType": "address",
          "name": "_address",
          "type": "address"
        }
      ],
      "name": "ChangeAddress",
      "type": "event"
    },
    {
      "anonymous": false,
      "inputs": [
        {
          "indexed": true,
          "internalType": "address",
          "name": "previousOwner",
          "type": "address"
        },
        {
          "indexed": true,
          "internalType": "address",
          "name": "newOwner",
          "type": "address"
        }
      ],
      "name": "OwnershipTransferred",
      "type": "event"
    },
    {
      "inputs": [
        {
          "internalType": "address",
          "name": "_addressToWhitelist",
          "type": "address"
        }
      ],
      "name": "addWhitelistedUser",
      "outputs": [],
      "stateMutability": "nonpayable",
      "type": "function"
    },
    {
      "inputs": [
        {
          "internalType": "address",
          "name": "_uidAddress",
          "type": "address"
        }
      ],
      "name": "changeUIDAddress",
      "outputs": [],
      "stateMutability": "nonpayable",
      "type": "function"
    },
    {
      "inputs": [
        {
          "internalType": "address",
          "name": "_userAddress",
          "type": "address"
        }
      ],
      "name": "hasWhitelistedUID",
      "outputs": [
        {
          "internalType": "bool",
          "name": "",
          "type": "bool"
        }
      ],
      "stateMutability": "view",
      "type": "function"
    },
    {
      "inputs": [
        {
          "internalType": "address",
          "name": "_whitelistedAddress",
          "type": "address"
        }
      ],
      "name": "isUserWhitelisted",
      "outputs": [
        {
          "internalType": "bool",
          "name": "",
          "type": "bool"
        }
      ],
      "stateMutability": "view",
      "type": "function"
    },
    {
      "inputs": [],
      "name": "owner",
      "outputs": [
        {
          "internalType": "address",
          "name": "",
          "type": "address"
        }
      ],
      "stateMutability": "view",
      "type": "function"
    },
    {
      "inputs": [
        {
          "internalType": "address",
          "name": "_addressToDeWhitelist",
          "type": "address"
        }
      ],
      "name": "removeWhitelistedUser",
      "outputs": [],
      "stateMutability": "nonpayable",
      "type": "function"
    },
    {
      "inputs": [],
      "name": "renounceOwnership",
      "outputs": [],
      "stateMutability": "nonpayable",
      "type": "function"
    },
    {
      "inputs": [
        {
          "internalType": "address",
          "name": "newOwner",
          "type": "address"
        }
      ],
      "name": "transferOwnership",
      "outputs": [],
      "stateMutability": "nonpayable",
      "type": "function"
    }
  ],
  "transactionHash": "0xa85e92ed958c8e0e87558881d6d1572d21cedf58e1c847c9df170b21c48f5fed",
  "args": [
    "0x156A897A91CAcaeb35d22f04991747eC49b44680"
  ],
  "numDeployments": 1,
  "solcInputHash": "b45ca353832ac632b594807f42fcc5ee",
  "bytecode": "0x608060405234801561001057600080fd5b5060405161078d38038061078d83398101604081905261002f916100ad565b6100383361005d565b600280546001600160a01b0319166001600160a01b03929092169190911790556100dd565b600080546001600160a01b038381166001600160a01b0319831681178455604051919092169283917f8be0079c531659141344cd1fd0a4f28419497f9722a3daafe3b4186f6b6457e09190a35050565b6000602082840312156100bf57600080fd5b81516001600160a01b03811681146100d657600080fd5b9392505050565b6106a1806100ec6000396000f3fe608060405234801561001057600080fd5b50600436106100785760003560e01c80632d9411a61461007d578063715018a6146100a55780638668f2f3146100af5780638da5cb5b146100c2578063b231e25d146100e2578063b7b1b8e9146100f5578063f2fde38b14610108578063fb237eb21461011b575b600080fd5b61009061008b3660046105ae565b61012e565b60405190151581526020015b60405180910390f35b6100ad610250565b005b6100ad6100bd3660046105ae565b610294565b6100ca610336565b6040516001600160a01b03909116815260200161009c565b6100ad6100f03660046105ae565b610345565b6100ad6101033660046105ae565b6103e9565b6100ad6101163660046105ae565b61048d565b6100906101293660046105ae565b61052d565b600254604051627eeac760e11b815260009182916001600160a01b039091169062fdd58e9061016390869085906004016105f7565b60206040518083038186803b15801561017b57600080fd5b505afa15801561018f573d6000803e3d6000fd5b505050506040513d601f19601f820116820180604052508101906101b391906105de565b600254604051627eeac760e11b81529192506000916001600160a01b039091169062fdd58e906101e990879060049081016105f7565b60206040518083038186803b15801561020157600080fd5b505afa158015610215573d6000803e3d6000fd5b505050506040513d601f19601f8201168201806040525081019061023991906105de565b905060006102478284610645565b11949350505050565b33610259610336565b6001600160a01b0316146102885760405162461bcd60e51b815260040161027f90610610565b60405180910390fd5b610292600061055e565b565b3361029d610336565b6001600160a01b0316146102c35760405162461bcd60e51b815260040161027f90610610565b600280546001600160a01b0383166001600160a01b0319909116811790915560408051818152600881830152673ab4b22a37b5b2b760c11b60608201526020810192909252517f6314c89e231542c0e7379a5606c8f0bee7eadfaf9885637a8eef5fb4fe078dbc9181900360800190a150565b6000546001600160a01b031690565b3361034e610336565b6001600160a01b0316146103745760405162461bcd60e51b815260040161027f90610610565b8061037e8161052d565b156103c15760405162461bcd60e51b8152602060048201526013602482015272165bdd48185c99481dda1a5d195b1a5cdd1959606a1b604482015260640161027f565b506001600160a01b03166000908152600160208190526040909120805460ff19169091179055565b336103f2610336565b6001600160a01b0316146104185760405162461bcd60e51b815260040161027f90610610565b806104228161052d565b61046b5760405162461bcd60e51b815260206004820152601a602482015279165bdd481b995959081d1bc81899481dda1a5d195b1a5cdd195960321b604482015260640161027f565b506001600160a01b03166000908152600160205260409020805460ff19169055565b33610496610336565b6001600160a01b0316146104bc5760405162461bcd60e51b815260040161027f90610610565b6001600160a01b0381166105215760405162461bcd60e51b815260206004820152602660248201527f4f776e61626c653a206e6577206f776e657220697320746865207a65726f206160448201526564647265737360d01b606482015260840161027f565b61052a8161055e565b50565b6001600160a01b03811660009081526001602052604081205460ff168061055857506105588261012e565b92915050565b600080546001600160a01b038381166001600160a01b0319831681178455604051919092169283917f8be0079c531659141344cd1fd0a4f28419497f9722a3daafe3b4186f6b6457e09190a35050565b6000602082840312156105c057600080fd5b81356001600160a01b03811681146105d757600080fd5b9392505050565b6000602082840312156105f057600080fd5b5051919050565b6001600160a01b03929092168252602082015260400190565b6020808252818101527f4f776e61626c653a2063616c6c6572206973206e6f7420746865206f776e6572604082015260600190565b6000821982111561066657634e487b7160e01b600052601160045260246000fd5b50019056fea2646970667358221220858547dfa9ee8132d471c808203ae01d9a49cc3e2bd6cdbe4fb5d4b0a655f9e464736f6c63430008070033",
  "devdoc": {
    "author": "AlloyX",
    "kind": "dev",
    "methods": {
      "addWhitelistedUser(address)": {
        "params": {
          "_addressToWhitelist": "The address to whitelist."
        }
      },
      "changeUIDAddress(address)": {
        "params": {
          "_uidAddress": "the address to change to"
        }
      },
      "hasWhitelistedUID(address)": {
        "params": {
          "_userAddress": "The address to verify."
        }
      },
      "isUserWhitelisted(address)": {
        "params": {
          "_whitelistedAddress": "The address to whitelist."
        }
      },
      "owner()": {
        "details": "Returns the address of the current owner."
      },
      "removeWhitelistedUser(address)": {
        "params": {
          "_addressToDeWhitelist": "The address to de-whitelist."
        }
      },
      "renounceOwnership()": {
        "details": "Leaves the contract without owner. It will not be possible to call `onlyOwner` functions anymore. Can only be called by the current owner. NOTE: Renouncing ownership will leave the contract without an owner, thereby removing any functionality that is only available to the owner."
      },
      "transferOwnership(address)": {
        "details": "Transfers ownership of the contract to a new account (`newOwner`). Can only be called by the current owner."
      }
    },
    "title": "AlloyxWhitelist",
    "version": 1
  },
  "userdoc": {
    "kind": "user",
    "methods": {
      "addWhitelistedUser(address)": {
        "notice": "Add whitelist address"
      },
      "changeUIDAddress(address)": {
        "notice": "Change UID address"
      },
      "hasWhitelistedUID(address)": {
        "notice": "If address is not whitelisted by goldfinch(non-US entity or non-US individual)"
      },
      "isUserWhitelisted(address)": {
        "notice": "Check whether user is whitelisted"
      },
      "removeWhitelistedUser(address)": {
        "notice": "Remove whitelist address"
      }
    },
    "version": 1
  },
  "storageLayout": {
    "storage": [
      {
        "astId": 2109,
        "contract": "contracts/alloyx/AlloyxWhitelist.sol:AlloyxWhitelist",
        "label": "_owner",
        "offset": 0,
        "slot": "0",
        "type": "t_address"
      },
      {
        "astId": 8415,
        "contract": "contracts/alloyx/AlloyxWhitelist.sol:AlloyxWhitelist",
        "label": "whitelistedAddresses",
        "offset": 0,
        "slot": "1",
        "type": "t_mapping(t_address,t_bool)"
      },
      {
        "astId": 8418,
        "contract": "contracts/alloyx/AlloyxWhitelist.sol:AlloyxWhitelist",
        "label": "uidToken",
        "offset": 0,
        "slot": "2",
        "type": "t_contract(IERC1155)3551"
      }
    ],
    "types": {
      "t_address": {
        "encoding": "inplace",
        "label": "address",
        "numberOfBytes": "20"
      },
      "t_bool": {
        "encoding": "inplace",
        "label": "bool",
        "numberOfBytes": "1"
      },
      "t_contract(IERC1155)3551": {
        "encoding": "inplace",
        "label": "contract IERC1155",
        "numberOfBytes": "20"
      },
      "t_mapping(t_address,t_bool)": {
        "encoding": "mapping",
        "key": "t_address",
        "label": "mapping(address => bool)",
        "numberOfBytes": "32",
        "value": "t_bool"
      }
    }
  }
}