{
  "address": "0xCEdB697D1939F64afA0826d7FAD856e7BE5B2d71",
  "_format": "hh-sol-artifact-1",
  "contractName": "AlloyxStakeInfo",
  "sourceName": "contracts/alloyx/AlloyxStakeInfo.sol",
  "abi": [
    {
      "anonymous": false,
      "inputs": [
        {
          "indexed": true,
          "internalType": "address",
          "name": "who",
          "type": "address"
        },
        {
          "indexed": false,
          "internalType": "address",
          "name": "configAddress",
          "type": "address"
        }
      ],
      "name": "AlloyxConfigUpdated",
      "type": "event"
    },
    {
      "anonymous": false,
      "inputs": [
        {
          "indexed": false,
          "internalType": "uint8",
          "name": "version",
          "type": "uint8"
        }
      ],
      "name": "Initialized",
      "type": "event"
    },
    {
      "anonymous": false,
      "inputs": [
        {
          "indexed": true,
          "internalType": "bytes32",
          "name": "role",
          "type": "bytes32"
        },
        {
          "indexed": true,
          "internalType": "bytes32",
          "name": "previousAdminRole",
          "type": "bytes32"
        },
        {
          "indexed": true,
          "internalType": "bytes32",
          "name": "newAdminRole",
          "type": "bytes32"
        }
      ],
      "name": "RoleAdminChanged",
      "type": "event"
    },
    {
      "anonymous": false,
      "inputs": [
        {
          "indexed": true,
          "internalType": "bytes32",
          "name": "role",
          "type": "bytes32"
        },
        {
          "indexed": true,
          "internalType": "address",
          "name": "account",
          "type": "address"
        },
        {
          "indexed": true,
          "internalType": "address",
          "name": "sender",
          "type": "address"
        }
      ],
      "name": "RoleGranted",
      "type": "event"
    },
    {
      "anonymous": false,
      "inputs": [
        {
          "indexed": true,
          "internalType": "bytes32",
          "name": "role",
          "type": "bytes32"
        },
        {
          "indexed": true,
          "internalType": "address",
          "name": "account",
          "type": "address"
        },
        {
          "indexed": true,
          "internalType": "address",
          "name": "sender",
          "type": "address"
        }
      ],
      "name": "RoleRevoked",
      "type": "event"
    },
    {
      "inputs": [],
      "name": "DEFAULT_ADMIN_ROLE",
      "outputs": [
        {
          "internalType": "bytes32",
          "name": "",
          "type": "bytes32"
        }
      ],
      "stateMutability": "view",
      "type": "function"
    },
    {
      "inputs": [
        {
          "internalType": "address",
          "name": "account",
          "type": "address"
        }
      ],
      "name": "addAdmin",
      "outputs": [],
      "stateMutability": "nonpayable",
      "type": "function"
    },
    {
      "inputs": [
        {
          "internalType": "address",
          "name": "_staker",
          "type": "address"
        },
        {
          "internalType": "uint256",
          "name": "_stake",
          "type": "uint256"
        }
      ],
      "name": "addStake",
      "outputs": [],
      "stateMutability": "nonpayable",
      "type": "function"
    },
    {
      "inputs": [
        {
          "internalType": "address",
          "name": "_receiver",
          "type": "address"
        }
      ],
      "name": "claimableCRWNToken",
      "outputs": [
        {
          "internalType": "uint256",
          "name": "",
          "type": "uint256"
        }
      ],
      "stateMutability": "view",
      "type": "function"
    },
    {
      "inputs": [],
      "name": "config",
      "outputs": [
        {
          "internalType": "contract AlloyxConfig",
          "name": "",
          "type": "address"
        }
      ],
      "stateMutability": "view",
      "type": "function"
    },
    {
      "inputs": [
        {
          "internalType": "bytes32",
          "name": "role",
          "type": "bytes32"
        }
      ],
      "name": "getRoleAdmin",
      "outputs": [
        {
          "internalType": "bytes32",
          "name": "",
          "type": "bytes32"
        }
      ],
      "stateMutability": "view",
      "type": "function"
    },
    {
      "inputs": [
        {
          "internalType": "bytes32",
          "name": "role",
          "type": "bytes32"
        },
        {
          "internalType": "address",
          "name": "account",
          "type": "address"
        }
      ],
      "name": "grantRole",
      "outputs": [],
      "stateMutability": "nonpayable",
      "type": "function"
    },
    {
      "inputs": [
        {
          "internalType": "bytes32",
          "name": "role",
          "type": "bytes32"
        },
        {
          "internalType": "address",
          "name": "account",
          "type": "address"
        }
      ],
      "name": "hasRole",
      "outputs": [
        {
          "internalType": "bool",
          "name": "",
          "type": "bool"
        }
      ],
      "stateMutability": "view",
      "type": "function"
    },
    {
      "inputs": [
        {
          "internalType": "address",
          "name": "_configAddress",
          "type": "address"
        }
      ],
      "name": "initialize",
      "outputs": [],
      "stateMutability": "nonpayable",
      "type": "function"
    },
    {
      "inputs": [
        {
          "internalType": "address",
          "name": "account",
          "type": "address"
        }
      ],
      "name": "isAdmin",
      "outputs": [
        {
          "internalType": "bool",
          "name": "",
          "type": "bool"
        }
      ],
      "stateMutability": "view",
      "type": "function"
    },
    {
      "inputs": [
        {
          "internalType": "address",
          "name": "_address",
          "type": "address"
        }
      ],
      "name": "isStakeholder",
      "outputs": [
        {
          "internalType": "bool",
          "name": "",
          "type": "bool"
        }
      ],
      "stateMutability": "view",
      "type": "function"
    },
    {
      "inputs": [
        {
          "internalType": "address",
          "name": "_staker",
          "type": "address"
        },
        {
          "internalType": "uint256",
          "name": "_stake",
          "type": "uint256"
        }
      ],
      "name": "removeStake",
      "outputs": [],
      "stateMutability": "nonpayable",
      "type": "function"
    },
    {
      "inputs": [],
      "name": "renounceAdmin",
      "outputs": [],
      "stateMutability": "nonpayable",
      "type": "function"
    },
    {
      "inputs": [
        {
          "internalType": "bytes32",
          "name": "role",
          "type": "bytes32"
        },
        {
          "internalType": "address",
          "name": "account",
          "type": "address"
        }
      ],
      "name": "renounceRole",
      "outputs": [],
      "stateMutability": "nonpayable",
      "type": "function"
    },
    {
      "inputs": [
        {
          "internalType": "address",
          "name": "_staker",
          "type": "address"
        },
        {
          "internalType": "uint256",
          "name": "_reward",
          "type": "uint256"
        }
      ],
      "name": "resetStakeTimestampWithRewardLeft",
      "outputs": [],
      "stateMutability": "nonpayable",
      "type": "function"
    },
    {
      "inputs": [
        {
          "internalType": "bytes32",
          "name": "role",
          "type": "bytes32"
        },
        {
          "internalType": "address",
          "name": "account",
          "type": "address"
        }
      ],
      "name": "revokeRole",
      "outputs": [],
      "stateMutability": "nonpayable",
      "type": "function"
    },
    {
      "inputs": [
        {
          "internalType": "address",
          "name": "_stakeholder",
          "type": "address"
        }
      ],
      "name": "stakeOf",
      "outputs": [
        {
          "components": [
            {
              "internalType": "uint256",
              "name": "amount",
              "type": "uint256"
            },
            {
              "internalType": "uint256",
              "name": "since",
              "type": "uint256"
            }
          ],
          "internalType": "struct AlloyxStakeInfo.StakeInfo",
          "name": "",
          "type": "tuple"
        }
      ],
      "stateMutability": "view",
      "type": "function"
    },
    {
      "inputs": [
        {
          "internalType": "bytes4",
          "name": "interfaceId",
          "type": "bytes4"
        }
      ],
      "name": "supportsInterface",
      "outputs": [
        {
          "internalType": "bool",
          "name": "",
          "type": "bool"
        }
      ],
      "stateMutability": "view",
      "type": "function"
    },
    {
      "inputs": [],
      "name": "totalClaimableCRWNToken",
      "outputs": [
        {
          "internalType": "uint256",
          "name": "",
          "type": "uint256"
        }
      ],
      "stateMutability": "view",
      "type": "function"
    },
    {
      "inputs": [],
      "name": "totalPastRedeemableReward",
      "outputs": [
        {
          "internalType": "uint256",
          "name": "",
          "type": "uint256"
        }
      ],
      "stateMutability": "view",
      "type": "function"
    },
    {
      "inputs": [],
      "name": "updateConfig",
      "outputs": [],
      "stateMutability": "nonpayable",
      "type": "function"
    }
  ],
  "bytecode": "0x608060405234801561001057600080fd5b506113e3806100206000396000f3fe608060405234801561001057600080fd5b50600436106101075760003560e01c806301ffc9a71461010c578063248a9ca31461013457806324d7806c146101555780632f2ff15d1461016857806336568abe1461017d57806342623360146101905780634d8d595c146101be5780635c76870b146101d15780636374299e146101da57806364cdc99e146101ed57806368ce7d8a146101f55780637048027514610208578063747fd44c1461021b57806379502c5514610223578063816c1acd146102435780638bad0c0a1461025657806391d148541461025e578063a217fddf14610271578063c4d66de814610279578063d547741f1461028c578063ef037b901461029f575b600080fd5b61011f61011a3660046110e3565b6102cb565b60405190151581526020015b60405180910390f35b61014761014236600461109a565b610302565b60405190815260200161012b565b61011f610163366004611034565b610317565b61017b6101763660046110b3565b610323565b005b61017b61018b3660046110b3565b610344565b6101a361019e366004611034565b6103c7565b6040805182518152602092830151928101929092520161012b565b61017b6101cc36600461106e565b61040e565b61014760985481565b61017b6101e836600461106e565b610462565b61014761053d565b61017b61020336600461106e565b610573565b61017b610216366004611034565b6106b5565b61017b6106e8565b609754610236906001600160a01b031681565b60405161012b9190611195565b610147610251366004611034565b61077c565b61017b6107bd565b61011f61026c3660046110b3565b6107ca565b610147600081565b61017b610287366004611034565b6107f5565b61017b61029a3660046110b3565b610886565b61011f6102ad366004611034565b6001600160a01b03166000908152609c602052604090205460ff1690565b60006001600160e01b03198216637965db0b60e01b14806102fc57506301ffc9a760e01b6001600160e01b03198316145b92915050565b60009081526065602052604090206001015490565b60006102fc81836107ca565b61032c82610302565b610335816108a2565b61033f83836108ac565b505050565b6001600160a01b03811633146103b95760405162461bcd60e51b815260206004820152602f60248201527f416363657373436f6e74726f6c3a2063616e206f6e6c792072656e6f756e636560448201526e103937b632b9903337b91039b2b63360891b60648201526084015b60405180910390fd5b6103c38282610932565b5050565b6040805180820190915260008082526020820152506001600160a01b03166000908152609b6020908152604091829020825180840190935280548352600101549082015290565b61041733610317565b6104335760405162461bcd60e51b81526004016103b09061122a565b61043c82610999565b6104468282610a25565b6001600160a01b039091166000908152609a6020526040902055565b61046b33610317565b6104875760405162461bcd60e51b81526004016103b09061122a565b6001600160a01b0382166000908152609b60205260409020546104ad576104ad82610aaa565b6001600160a01b0382166000908152609b602052604090206104d0908390610ace565b6040805180820182526001600160a01b0384166000908152609b602052919091205481906104fe9084610b39565b8152426020918201526001600160a01b0384166000908152609b8252604081208351815592909101516001909201919091556103c39082908080610b45565b60985460408051808201909152609d548152609e5460208201526000919061056490610bcf565b61056e91906112a3565b905090565b61057c33610317565b6105985760405162461bcd60e51b81526004016103b09061122a565b806105a2836103c7565b5110156106005760405162461bcd60e51b815260206004820152602660248201527f557365722068617320696e73756666696369656e74206475726120636f696e206044820152651cdd185ad95960d21b60648201526084016103b0565b6001600160a01b0382166000908152609b60205260409020546106265761062682610aaa565b6001600160a01b0382166000908152609b60205260409020610649908390610ace565b6040805180820182526001600160a01b0384166000908152609b602052919091205481906106779084610c28565b8152426020918201526001600160a01b0384166000908152609b8252604081208351815592909101516001909201919091556103c390828180610b45565b6106be33610317565b6106da5760405162461bcd60e51b81526004016103b09061122a565b6106e5600082610323565b50565b6106f133610317565b61070d5760405162461bcd60e51b81526004016103b09061122a565b609754610722906001600160a01b0316610c34565b609780546001600160a01b0319166001600160a01b0392909216918217905560405133917f2310d831a9db3a28092d0b5509a976cbeffda5294f3f321086036ed76ebd2594916107729190611195565b60405180910390a2565b600080610788836103c7565b905061079381610bcf565b6001600160a01b0384166000908152609a60205260409020546107b691906112a3565b9392505050565b6107c8600033610344565b565b60009182526065602090815260408084206001600160a01b0393909316845291905290205460ff1690565b60006108016001610caf565b90508015610819576000805461ff0019166101001790555b61082233610d37565b609780546001600160a01b0319166001600160a01b03841617905580156103c3576000805461ff0019169055604051600181527f7f26b83ff96e1f2b6a682f133852f6798a09c465da95921460cefb38474024989060200160405180910390a15050565b61088f82610302565b610898816108a2565b61033f8383610932565b6106e58133610d71565b6108b682826107ca565b6103c35760008281526065602090815260408083206001600160a01b03851684529091529020805460ff191660011790556108ee3390565b6001600160a01b0316816001600160a01b0316837f2f8788117e7eff1d82e926ec794901d17c78024a50270940304540a733656f0d60405160405180910390a45050565b61093c82826107ca565b156103c35760008281526065602090815260408083206001600160a01b0385168085529252808320805460ff1916905551339285917ff6391f5c32d9c69d2a47ea670b442974b53935d1edc7fd64eb21e047a839171b9190a45050565b6001600160a01b0381166000908152609b60205260409020546109bf576109bf81610aaa565b6001600160a01b0381166000908152609b602052604090206109e2908290610ace565b6040805180820182526001600160a01b039092166000818152609b6020818152938220805486524285870190815293909252909252915181559051600190910155565b6001600160a01b0382166000908152609a602052604081205481908311610a70576001600160a01b0384166000908152609a6020526040902054610a699084610c28565b9050610a97565b6001600160a01b0384166000908152609a6020526040902054610a94908490610c28565b91505b610aa46000808484610b45565b50505050565b6001600160a01b03166000908152609c60205260409020805460ff19166001179055565b604080518082019091528154815260018201546020820152600090610af290610bcf565b6001600160a01b0384166000908152609a6020526040902054909150610b189082610b39565b6001600160a01b039093166000908152609a60205260409020929092555050565b60006107b682846112a3565b60408051808201909152609d548152609e546020820152600090610b6890610bcf565b609854909150610b789082610b39565b6098819055610b93908390610b8d9086610b39565b90610c28565b60985560408051808201909152609d548190610bb5908790610b8d908a610b39565b8152426020918201528151609d550151609e555050505050565b6097546000906102fc906301e1338090610c22906064908290610bfa906001600160a01b0316610dd5565b610c1c610c14896020015142610c2890919063ffffffff16565b895190610e50565b90610e50565b90610e5c565b60006107b682846112fc565b604051635c9fcd8560e11b8152600260048201526000906001600160a01b0383169063b93f9b0a9060240160206040518083038186803b158015610c7757600080fd5b505afa158015610c8b573d6000803e3d6000fd5b505050506040513d601f19601f820116820180604052508101906102fc9190611051565b60008054610100900460ff1615610cf6578160ff166001148015610cd25750303b155b610cee5760405162461bcd60e51b81526004016103b0906111dc565b506000919050565b60005460ff808416911610610d1d5760405162461bcd60e51b81526004016103b0906111dc565b506000805460ff191660ff92909216919091179055600190565b600054610100900460ff16610d5e5760405162461bcd60e51b81526004016103b090611258565b610d66610e68565b6106e5600082610e8f565b610d7b82826107ca565b6103c357610d93816001600160a01b03166014610e99565b610d9e836020610e99565b604051602001610daf929190611126565b60408051601f198184030181529082905262461bcd60e51b82526103b0916004016111a9565b604051631f8ac6cb60e31b8152600660048201526000906001600160a01b0383169063fc5636589060240160206040518083038186803b158015610e1857600080fd5b505afa158015610e2c573d6000803e3d6000fd5b505050506040513d601f19601f820116820180604052508101906102fc919061110d565b60006107b682846112dd565b60006107b682846112bb565b600054610100900460ff166107c85760405162461bcd60e51b81526004016103b090611258565b6103c382826108ac565b60606000610ea88360026112dd565b610eb39060026112a3565b6001600160401b03811115610eca57610eca611382565b6040519080825280601f01601f191660200182016040528015610ef4576020820181803683370190505b509050600360fc1b81600081518110610f0f57610f0f61136c565b60200101906001600160f81b031916908160001a905350600f60fb1b81600181518110610f3e57610f3e61136c565b60200101906001600160f81b031916908160001a9053506000610f628460026112dd565b610f6d9060016112a3565b90505b6001811115610fe5576f181899199a1a9b1b9c1cb0b131b232b360811b85600f1660108110610fa157610fa161136c565b1a60f81b828281518110610fb757610fb761136c565b60200101906001600160f81b031916908160001a90535060049490941c93610fde8161133f565b9050610f70565b5083156107b65760405162461bcd60e51b815260206004820181905260248201527f537472696e67733a20686578206c656e67746820696e73756666696369656e7460448201526064016103b0565b60006020828403121561104657600080fd5b81356107b681611398565b60006020828403121561106357600080fd5b81516107b681611398565b6000806040838503121561108157600080fd5b823561108c81611398565b946020939093013593505050565b6000602082840312156110ac57600080fd5b5035919050565b600080604083850312156110c657600080fd5b8235915060208301356110d881611398565b809150509250929050565b6000602082840312156110f557600080fd5b81356001600160e01b0319811681146107b657600080fd5b60006020828403121561111f57600080fd5b5051919050565b76020b1b1b2b9b9a1b7b73a3937b61d1030b1b1b7bab73a1604d1b815260008351611158816017850160208801611313565b7001034b99036b4b9b9b4b733903937b6329607d1b6017918401918201528351611189816028840160208801611313565b01602801949350505050565b6001600160a01b0391909116815260200190565b60208152600082518060208401526111c8816040850160208701611313565b601f01601f19169190910160400192915050565b6020808252602e908201527f496e697469616c697a61626c653a20636f6e747261637420697320616c72656160408201526d191e481a5b9a5d1a585b1a5e995960921b606082015260800190565b6020808252601490820152735265737472696374656420746f2061646d696e7360601b604082015260600190565b6020808252602b908201527f496e697469616c697a61626c653a20636f6e7472616374206973206e6f74206960408201526a6e697469616c697a696e6760a81b606082015260800190565b600082198211156112b6576112b6611356565b500190565b6000826112d857634e487b7160e01b600052601260045260246000fd5b500490565b60008160001904831182151516156112f7576112f7611356565b500290565b60008282101561130e5761130e611356565b500390565b60005b8381101561132e578181015183820152602001611316565b83811115610aa45750506000910152565b60008161134e5761134e611356565b506000190190565b634e487b7160e01b600052601160045260246000fd5b634e487b7160e01b600052603260045260246000fd5b634e487b7160e01b600052604160045260246000fd5b6001600160a01b03811681146106e557600080fdfea2646970667358221220a4cf98bd09e8cc596a13238fd67b9459645705a12a615a48f5542b37691cdcae64736f6c63430008070033",
  "linkReferences": {},
  "deployedLinkReferences": {}
}