{
  "address": "0x4314c66E637c2108f4166aaD7BFE35030f55C27F",
  "abi": [
    {
      "inputs": [
        {
          "internalType": "address",
          "name": "_alloyxBronzeAddress",
          "type": "address"
        },
        {
          "internalType": "address",
          "name": "_alloyxSilverAddress",
          "type": "address"
        },
        {
          "internalType": "address",
          "name": "_usdcCoinAddress",
          "type": "address"
        },
        {
          "internalType": "address",
          "name": "_fiduCoinAddress",
          "type": "address"
        },
        {
          "internalType": "address",
          "name": "_gfiCoinAddress",
          "type": "address"
        },
        {
          "internalType": "address",
          "name": "_goldFinchTokenAddress",
          "type": "address"
        },
        {
          "internalType": "address",
          "name": "_seniorPoolAddress",
          "type": "address"
        }
      ],
      "stateMutability": "nonpayable",
      "type": "constructor"
    },
    {
      "anonymous": false,
      "inputs": [
        {
          "indexed": false,
          "internalType": "address",
          "name": "_tokenReceiver",
          "type": "address"
        },
        {
          "indexed": false,
          "internalType": "uint256",
          "name": "_tokenAmount",
          "type": "uint256"
        }
      ],
      "name": "Burn",
      "type": "event"
    },
    {
      "anonymous": false,
      "inputs": [
        {
          "indexed": false,
          "internalType": "address",
          "name": "_tokenAddress",
          "type": "address"
        },
        {
          "indexed": false,
          "internalType": "address",
          "name": "_tokenSender",
          "type": "address"
        },
        {
          "indexed": false,
          "internalType": "uint256",
          "name": "_tokenAmount",
          "type": "uint256"
        }
      ],
      "name": "DepositAlloyx",
      "type": "event"
    },
    {
      "anonymous": false,
      "inputs": [
        {
          "indexed": false,
          "internalType": "address",
          "name": "_tokenAddress",
          "type": "address"
        },
        {
          "indexed": false,
          "internalType": "address",
          "name": "_tokenSender",
          "type": "address"
        },
        {
          "indexed": false,
          "internalType": "uint256",
          "name": "_tokenID",
          "type": "uint256"
        }
      ],
      "name": "DepositNFT",
      "type": "event"
    },
    {
      "anonymous": false,
      "inputs": [
        {
          "indexed": false,
          "internalType": "address",
          "name": "_tokenAddress",
          "type": "address"
        },
        {
          "indexed": false,
          "internalType": "address",
          "name": "_tokenSender",
          "type": "address"
        },
        {
          "indexed": false,
          "internalType": "uint256",
          "name": "_tokenAmount",
          "type": "uint256"
        }
      ],
      "name": "DepositStable",
      "type": "event"
    },
    {
      "anonymous": false,
      "inputs": [
        {
          "indexed": false,
          "internalType": "address",
          "name": "_tokenReceiver",
          "type": "address"
        },
        {
          "indexed": false,
          "internalType": "uint256",
          "name": "_tokenAmount",
          "type": "uint256"
        }
      ],
      "name": "Mint",
      "type": "event"
    },
    {
      "anonymous": false,
      "inputs": [
        {
          "indexed": true,
          "internalType": "address",
          "name": "previousOwner",
          "type": "address"
        },
        {
          "indexed": true,
          "internalType": "address",
          "name": "newOwner",
          "type": "address"
        }
      ],
      "name": "OwnershipTransferred",
      "type": "event"
    },
    {
      "anonymous": false,
      "inputs": [
        {
          "indexed": false,
          "internalType": "address",
          "name": "account",
          "type": "address"
        }
      ],
      "name": "Paused",
      "type": "event"
    },
    {
      "anonymous": false,
      "inputs": [
        {
          "indexed": false,
          "internalType": "uint256",
          "name": "amount",
          "type": "uint256"
        }
      ],
      "name": "PurchaseJunior",
      "type": "event"
    },
    {
      "anonymous": false,
      "inputs": [
        {
          "indexed": false,
          "internalType": "uint256",
          "name": "amount",
          "type": "uint256"
        }
      ],
      "name": "PurchaseSenior",
      "type": "event"
    },
    {
      "anonymous": false,
      "inputs": [
        {
          "indexed": false,
          "internalType": "address",
          "name": "account",
          "type": "address"
        }
      ],
      "name": "Unpaused",
      "type": "event"
    },
    {
      "inputs": [
        {
          "internalType": "address",
          "name": "_alloyxAddress",
          "type": "address"
        }
      ],
      "name": "changeAlloyxBronzeAddress",
      "outputs": [],
      "stateMutability": "nonpayable",
      "type": "function"
    },
    {
      "inputs": [
        {
          "internalType": "address",
          "name": "_alloyxAddress",
          "type": "address"
        }
      ],
      "name": "changeAlloyxSilverAddress",
      "outputs": [],
      "stateMutability": "nonpayable",
      "type": "function"
    },
    {
      "inputs": [
        {
          "internalType": "address",
          "name": "_poolToken",
          "type": "address"
        }
      ],
      "name": "changePoolTokenAddress",
      "outputs": [],
      "stateMutability": "nonpayable",
      "type": "function"
    },
    {
      "inputs": [
        {
          "internalType": "address",
          "name": "_seniorPool",
          "type": "address"
        }
      ],
      "name": "changeSeniorPoolAddress",
      "outputs": [],
      "stateMutability": "nonpayable",
      "type": "function"
    },
    {
      "inputs": [
        {
          "internalType": "uint256",
          "name": "_tokenAmount",
          "type": "uint256"
        }
      ],
      "name": "depositAlloyxBronzeTokens",
      "outputs": [
        {
          "internalType": "bool",
          "name": "",
          "type": "bool"
        }
      ],
      "stateMutability": "nonpayable",
      "type": "function"
    },
    {
      "inputs": [
        {
          "internalType": "address",
          "name": "_tokenAddress",
          "type": "address"
        },
        {
          "internalType": "uint256",
          "name": "_tokenID",
          "type": "uint256"
        }
      ],
      "name": "depositNFTToken",
      "outputs": [
        {
          "internalType": "bool",
          "name": "",
          "type": "bool"
        }
      ],
      "stateMutability": "nonpayable",
      "type": "function"
    },
    {
      "inputs": [
        {
          "internalType": "uint256",
          "name": "_tokenAmount",
          "type": "uint256"
        }
      ],
      "name": "depositUSDCCoin",
      "outputs": [
        {
          "internalType": "bool",
          "name": "",
          "type": "bool"
        }
      ],
      "stateMutability": "nonpayable",
      "type": "function"
    },
    {
      "inputs": [],
      "name": "destroy",
      "outputs": [],
      "stateMutability": "nonpayable",
      "type": "function"
    },
    {
      "inputs": [
        {
          "internalType": "address",
          "name": "_tokenAddress",
          "type": "address"
        },
        {
          "internalType": "uint256",
          "name": "_tokenID",
          "type": "uint256"
        }
      ],
      "name": "isValidPool",
      "outputs": [
        {
          "internalType": "bool",
          "name": "",
          "type": "bool"
        }
      ],
      "stateMutability": "view",
      "type": "function"
    },
    {
      "inputs": [
        {
          "internalType": "address",
          "name": "_tokenAddress",
          "type": "address"
        },
        {
          "internalType": "address payable",
          "name": "_to",
          "type": "address"
        }
      ],
      "name": "migrateERC20",
      "outputs": [],
      "stateMutability": "nonpayable",
      "type": "function"
    },
    {
      "inputs": [
        {
          "internalType": "address payable",
          "name": "_toAddress",
          "type": "address"
        }
      ],
      "name": "migrateGoldfinchPoolTokens",
      "outputs": [],
      "stateMutability": "nonpayable",
      "type": "function"
    },
    {
      "inputs": [
        {
          "internalType": "address",
          "name": "",
          "type": "address"
        },
        {
          "internalType": "address",
          "name": "",
          "type": "address"
        },
        {
          "internalType": "uint256",
          "name": "",
          "type": "uint256"
        },
        {
          "internalType": "bytes",
          "name": "",
          "type": "bytes"
        }
      ],
      "name": "onERC721Received",
      "outputs": [
        {
          "internalType": "bytes4",
          "name": "",
          "type": "bytes4"
        }
      ],
      "stateMutability": "nonpayable",
      "type": "function"
    },
    {
      "inputs": [],
      "name": "owner",
      "outputs": [
        {
          "internalType": "address",
          "name": "",
          "type": "address"
        }
      ],
      "stateMutability": "view",
      "type": "function"
    },
    {
      "inputs": [],
      "name": "pause",
      "outputs": [],
      "stateMutability": "nonpayable",
      "type": "function"
    },
    {
      "inputs": [],
      "name": "paused",
      "outputs": [
        {
          "internalType": "bool",
          "name": "",
          "type": "bool"
        }
      ],
      "stateMutability": "view",
      "type": "function"
    },
    {
      "inputs": [
        {
          "internalType": "uint256",
          "name": "amount",
          "type": "uint256"
        },
        {
          "internalType": "address",
          "name": "poolAddress",
          "type": "address"
        },
        {
          "internalType": "uint256",
          "name": "tranche",
          "type": "uint256"
        }
      ],
      "name": "purchaseJuniorToken",
      "outputs": [],
      "stateMutability": "nonpayable",
      "type": "function"
    },
    {
      "inputs": [
        {
          "internalType": "uint256",
          "name": "amount",
          "type": "uint256"
        },
        {
          "internalType": "address",
          "name": "poolAddress",
          "type": "address"
        }
      ],
      "name": "purchaseSeniorTokens",
      "outputs": [],
      "stateMutability": "nonpayable",
      "type": "function"
    },
    {
      "inputs": [],
      "name": "renounceOwnership",
      "outputs": [],
      "stateMutability": "nonpayable",
      "type": "function"
    },
    {
      "inputs": [],
      "name": "startVaultOperation",
      "outputs": [
        {
          "internalType": "bool",
          "name": "",
          "type": "bool"
        }
      ],
      "stateMutability": "nonpayable",
      "type": "function"
    },
    {
      "inputs": [
        {
          "internalType": "address",
          "name": "_to",
          "type": "address"
        }
      ],
      "name": "transferAlloyxOwnership",
      "outputs": [],
      "stateMutability": "nonpayable",
      "type": "function"
    },
    {
      "inputs": [
        {
          "internalType": "address",
          "name": "newOwner",
          "type": "address"
        }
      ],
      "name": "transferOwnership",
      "outputs": [],
      "stateMutability": "nonpayable",
      "type": "function"
    },
    {
      "inputs": [],
      "name": "unpause",
      "outputs": [],
      "stateMutability": "nonpayable",
      "type": "function"
    }
  ],
  "transactionHash": "0x3dca0f70ce6966dfd47950a6555ab2c4103ccc0799a1260497fb3f2dc571223c",
  "args": [
    "0xb7D25244472518F10f956db778dc88b57968f7A9",
    "0xb5AE032Ad7901B755c9C3C79f148c5AA20513bB3",
    "0xeaE3F227e370d9333a7AF82058DDfd34B1BeB627",
    "0x6A2e821CCD293f6989080370ECe62751B4DAFB8f",
    "0x94fF8A71Cd9f8EE849c8259A7a246eA2ef276D8f",
    "0x94fF8A71Cd9f8EE849c8259A7a246eA2ef276D8f",
    "0x94fF8A71Cd9f8EE849c8259A7a246eA2ef276D8f"
  ],
  "numDeployments": 3,
  "solcInputHash": "b7df6730a121c8a2e44e34efb438aa6e",
  "bytecode": "0x60806040523480156200001157600080fd5b50604051620056c7380380620056c7833981810160405281019062000037919062000342565b620000576200004b6200025f60201b60201c565b6200026760201b60201c565b60008060146101000a81548160ff02191690831515021790555086600560006101000a81548173ffffffffffffffffffffffffffffffffffffffff021916908373ffffffffffffffffffffffffffffffffffffffff16021790555085600660006101000a81548173ffffffffffffffffffffffffffffffffffffffff021916908373ffffffffffffffffffffffffffffffffffffffff16021790555084600160006101000a81548173ffffffffffffffffffffffffffffffffffffffff021916908373ffffffffffffffffffffffffffffffffffffffff16021790555082600260006101000a81548173ffffffffffffffffffffffffffffffffffffffff021916908373ffffffffffffffffffffffffffffffffffffffff16021790555083600360006101000a81548173ffffffffffffffffffffffffffffffffffffffff021916908373ffffffffffffffffffffffffffffffffffffffff16021790555081600460006101000a81548173ffffffffffffffffffffffffffffffffffffffff021916908373ffffffffffffffffffffffffffffffffffffffff16021790555080600760006101000a81548173ffffffffffffffffffffffffffffffffffffffff021916908373ffffffffffffffffffffffffffffffffffffffff16021790555060008060156101000a81548160ff0219169083151502179055505050505050505062000448565b600033905090565b60008060009054906101000a900473ffffffffffffffffffffffffffffffffffffffff169050816000806101000a81548173ffffffffffffffffffffffffffffffffffffffff021916908373ffffffffffffffffffffffffffffffffffffffff1602179055508173ffffffffffffffffffffffffffffffffffffffff168173ffffffffffffffffffffffffffffffffffffffff167f8be0079c531659141344cd1fd0a4f28419497f9722a3daafe3b4186f6b6457e060405160405180910390a35050565b6000815190506200033c816200042e565b92915050565b600080600080600080600060e0888a03121562000364576200036362000429565b5b6000620003748a828b016200032b565b9750506020620003878a828b016200032b565b96505060406200039a8a828b016200032b565b9550506060620003ad8a828b016200032b565b9450506080620003c08a828b016200032b565b93505060a0620003d38a828b016200032b565b92505060c0620003e68a828b016200032b565b91505092959891949750929550565b6000620004028262000409565b9050919050565b600073ffffffffffffffffffffffffffffffffffffffff82169050919050565b600080fd5b6200043981620003f5565b81146200044557600080fd5b50565b61526f80620004586000396000f3fe608060405234801561001057600080fd5b50600436106101425760003560e01c806383197ef0116100b8578063b338ad161161007c578063b338ad1614610301578063bb74c05814610331578063d8ec060814610361578063d905e9b41461037d578063df16694a14610399578063f2fde38b146103b557610142565b806383197ef0146102955780638456cb591461029f5780638682caf8146102a95780638d6f4d21146102c55780638da5cb5b146102e357610142565b80633f4ba83a1161010a5780633f4ba83a146101fb578063460408721461020557806353c98f5a146102215780635c975abb14610251578063715018a61461026f5780637c9054571461027957610142565b806307c0cf3d14610147578063150b7a02146101635780631a97749d146101935780631b61eb67146101af578063354d3c30146101cb575b600080fd5b610161600480360381019061015c9190613a9f565b6103d1565b005b61017d60048036038101906101789190613b66565b610491565b60405161018a91906142dd565b60405180910390f35b6101ad60048036038101906101a89190613a9f565b6104a5565b005b6101c960048036038101906101c49190613d1d565b610565565b005b6101e560048036038101906101e09190613be9565b6107e1565b6040516101f291906142c2565b60405180910390f35b610203610911565b005b61021f600480360381019061021a9190613a9f565b6109de565b005b61023b60048036038101906102369190613c83565b610a9e565b60405161024891906142c2565b60405180910390f35b610259610f02565b60405161026691906142c2565b60405180910390f35b610277610f18565b005b610293600480360381019061028e9190613af9565b610fa0565b005b61029d611272565b005b6102a7611621565b005b6102c360048036038101906102be9190613a9f565b6116ef565b005b6102cd6117af565b6040516102da91906142c2565b60405180910390f35b6102eb61198e565b6040516102f891906141e7565b60405180910390f35b61031b60048036038101906103169190613be9565b6119b7565b60405161032891906142c2565b60405180910390f35b61034b60048036038101906103469190613c83565b611f5c565b60405161035891906142c2565b60405180910390f35b61037b60048036038101906103769190613a9f565b6124ab565b005b61039760048036038101906103929190613b26565b6125fe565b005b6103b360048036038101906103ae9190613cdd565b61277e565b005b6103cf60048036038101906103ca9190613a9f565b6129f7565b005b6103d9612aef565b73ffffffffffffffffffffffffffffffffffffffff166103f761198e565b73ffffffffffffffffffffffffffffffffffffffff161461044d576040517f08c379a0000000000000000000000000000000000000000000000000000000008152600401610444906144da565b60405180910390fd5b80600560006101000a81548173ffffffffffffffffffffffffffffffffffffffff021916908373ffffffffffffffffffffffffffffffffffffffff16021790555050565b600063150b7a0260e01b9050949350505050565b6104ad612aef565b73ffffffffffffffffffffffffffffffffffffffff166104cb61198e565b73ffffffffffffffffffffffffffffffffffffffff1614610521576040517f08c379a0000000000000000000000000000000000000000000000000000000008152600401610518906144da565b60405180910390fd5b80600660006101000a81548173ffffffffffffffffffffffffffffffffffffffff021916908373ffffffffffffffffffffffffffffffffffffffff16021790555050565b61056d612aef565b73ffffffffffffffffffffffffffffffffffffffff1661058b61198e565b73ffffffffffffffffffffffffffffffffffffffff16146105e1576040517f08c379a00000000000000000000000000000000000000000000000000000000081526004016105d8906144da565b60405180910390fd5b82600160009054906101000a900473ffffffffffffffffffffffffffffffffffffffff1673ffffffffffffffffffffffffffffffffffffffff166370a08231306040518263ffffffff1660e01b815260040161063d91906141e7565b60206040518083038186803b15801561065557600080fd5b505afa158015610669573d6000803e3d6000fd5b505050506040513d601f19601f8201168201806040525081019061068d9190613cb0565b10156106ce576040517f08c379a00000000000000000000000000000000000000000000000000000000081526004016106c59061435a565b60405180910390fd5b60008311610711576040517f08c379a00000000000000000000000000000000000000000000000000000000081526004016107089061461a565b60405180910390fd5b60008290508073ffffffffffffffffffffffffffffffffffffffff1663e2bbb15885846040518363ffffffff1660e01b8152600401610751929190614655565b602060405180830381600087803b15801561076b57600080fd5b505af115801561077f573d6000803e3d6000fd5b505050506040513d601f19601f820116820180604052508101906107a39190613cb0565b507f7a3794cf7d311106018524dfd41878138e4264f1bee18e53f1c180a1627fa2b8846040516107d3919061463a565b60405180910390a150505050565b60008083905060008173ffffffffffffffffffffffffffffffffffffffff16638c7a63ae856040518263ffffffff1660e01b8152600401610822919061463a565b60a06040518083038186803b15801561083a57600080fd5b505afa15801561084e573d6000803e3d6000fd5b505050506040513d601f19601f820116820180604052508101906108729190613c56565b90506000816000015190508273ffffffffffffffffffffffffffffffffffffffff1663b5ada6d8826040518263ffffffff1660e01b81526004016108b691906141e7565b60206040518083038186803b1580156108ce57600080fd5b505afa1580156108e2573d6000803e3d6000fd5b505050506040513d601f19601f820116820180604052508101906109069190613c29565b935050505092915050565b610919612aef565b73ffffffffffffffffffffffffffffffffffffffff1661093761198e565b73ffffffffffffffffffffffffffffffffffffffff161461098d576040517f08c379a0000000000000000000000000000000000000000000000000000000008152600401610984906144da565b60405180910390fd5b610995610f02565b6109d4576040517f08c379a00000000000000000000000000000000000000000000000000000000081526004016109cb9061433a565b60405180910390fd5b6109dc612af7565b565b6109e6612aef565b73ffffffffffffffffffffffffffffffffffffffff16610a0461198e565b73ffffffffffffffffffffffffffffffffffffffff1614610a5a576040517f08c379a0000000000000000000000000000000000000000000000000000000008152600401610a51906144da565b60405180910390fd5b80600460006101000a81548173ffffffffffffffffffffffffffffffffffffffff021916908373ffffffffffffffffffffffffffffffffffffffff16021790555050565b6000610aa8610f02565b15610ae8576040517f08c379a0000000000000000000000000000000000000000000000000000000008152600401610adf9061441a565b60405180910390fd5b600060159054906101000a900460ff16610b37576040517f08c379a0000000000000000000000000000000000000000000000000000000008152600401610b2e9061455a565b60405180910390fd5b81600160009054906101000a900473ffffffffffffffffffffffffffffffffffffffff1673ffffffffffffffffffffffffffffffffffffffff166370a08231336040518263ffffffff1660e01b8152600401610b9391906141e7565b60206040518083038186803b158015610bab57600080fd5b505afa158015610bbf573d6000803e3d6000fd5b505050506040513d601f19601f82011682018060405250810190610be39190613cb0565b1015610c24576040517f08c379a0000000000000000000000000000000000000000000000000000000008152600401610c1b9061449a565b60405180910390fd5b81600160009054906101000a900473ffffffffffffffffffffffffffffffffffffffff1673ffffffffffffffffffffffffffffffffffffffff1663dd62ed3e33306040518363ffffffff1660e01b8152600401610c82929190614202565b60206040518083038186803b158015610c9a57600080fd5b505afa158015610cae573d6000803e3d6000fd5b505050506040513d601f19601f82011682018060405250810190610cd29190613cb0565b1015610d13576040517f08c379a0000000000000000000000000000000000000000000000000000000008152600401610d0a9061447a565b60405180910390fd5b6000610d1e83612b98565b905060008111610d63576040517f08c379a0000000000000000000000000000000000000000000000000000000008152600401610d5a9061443a565b60405180910390fd5b610db2333085600160009054906101000a900473ffffffffffffffffffffffffffffffffffffffff1673ffffffffffffffffffffffffffffffffffffffff16612c77909392919063ffffffff16565b600560009054906101000a900473ffffffffffffffffffffffffffffffffffffffff1673ffffffffffffffffffffffffffffffffffffffff166340c10f1933836040518363ffffffff1660e01b8152600401610e0f929190614299565b602060405180830381600087803b158015610e2957600080fd5b505af1158015610e3d573d6000803e3d6000fd5b505050506040513d601f19601f82011682018060405250810190610e619190613c29565b507fa4f358c78f73b2049a06e0436c6728292334862a6fc2114f2de13f9cff58491f600160009054906101000a900473ffffffffffffffffffffffffffffffffffffffff163383604051610eb793929190614262565b60405180910390a17f0f6798a560793a54c3bcfe86a93cde1e73087d944c0ea20544137d41213968853382604051610ef0929190614299565b60405180910390a16001915050919050565b60008060149054906101000a900460ff16905090565b610f20612aef565b73ffffffffffffffffffffffffffffffffffffffff16610f3e61198e565b73ffffffffffffffffffffffffffffffffffffffff1614610f94576040517f08c379a0000000000000000000000000000000000000000000000000000000008152600401610f8b906144da565b60405180910390fd5b610f9e6000612d00565b565b610fa8612aef565b73ffffffffffffffffffffffffffffffffffffffff16610fc661198e565b73ffffffffffffffffffffffffffffffffffffffff161461101c576040517f08c379a0000000000000000000000000000000000000000000000000000000008152600401611013906144da565b60405180910390fd5b611024610f02565b611063576040517f08c379a000000000000000000000000000000000000000000000000000000000815260040161105a9061433a565b60405180910390fd5b6000600460009054906101000a900473ffffffffffffffffffffffffffffffffffffffff1673ffffffffffffffffffffffffffffffffffffffff166370a08231306040518263ffffffff1660e01b81526004016110c091906141e7565b60206040518083038186803b1580156110d857600080fd5b505afa1580156110ec573d6000803e3d6000fd5b505050506040513d601f19601f820116820180604052508101906111109190613cb0565b905060005b8181101561126d57600460009054906101000a900473ffffffffffffffffffffffffffffffffffffffff1673ffffffffffffffffffffffffffffffffffffffff166342842e0e3085600460009054906101000a900473ffffffffffffffffffffffffffffffffffffffff1673ffffffffffffffffffffffffffffffffffffffff16632f745c5930876040518363ffffffff1660e01b81526004016111ba929190614299565b60206040518083038186803b1580156111d257600080fd5b505afa1580156111e6573d6000803e3d6000fd5b505050506040513d601f19601f8201168201806040525081019061120a9190613cb0565b6040518463ffffffff1660e01b81526004016112289392919061422b565b600060405180830381600087803b15801561124257600080fd5b505af1158015611256573d6000803e3d6000fd5b50505050808061126590614abb565b915050611115565b505050565b61127a612aef565b73ffffffffffffffffffffffffffffffffffffffff1661129861198e565b73ffffffffffffffffffffffffffffffffffffffff16146112ee576040517f08c379a00000000000000000000000000000000000000000000000000000000081526004016112e5906144da565b60405180910390fd5b6112f6610f02565b611335576040517f08c379a000000000000000000000000000000000000000000000000000000000815260040161132c9061433a565b60405180910390fd5b6000600160009054906101000a900473ffffffffffffffffffffffffffffffffffffffff1673ffffffffffffffffffffffffffffffffffffffff166370a08231306040518263ffffffff1660e01b815260040161139291906141e7565b60206040518083038186803b1580156113aa57600080fd5b505afa1580156113be573d6000803e3d6000fd5b505050506040513d601f19601f820116820180604052508101906113e29190613cb0565b14611422576040517f08c379a0000000000000000000000000000000000000000000000000000000008152600401611419906144fa565b60405180910390fd5b6000600360009054906101000a900473ffffffffffffffffffffffffffffffffffffffff1673ffffffffffffffffffffffffffffffffffffffff166370a08231306040518263ffffffff1660e01b815260040161147f91906141e7565b60206040518083038186803b15801561149757600080fd5b505afa1580156114ab573d6000803e3d6000fd5b505050506040513d601f19601f820116820180604052508101906114cf9190613cb0565b1461150f576040517f08c379a0000000000000000000000000000000000000000000000000000000008152600401611506906145ba565b60405180910390fd5b6000600260009054906101000a900473ffffffffffffffffffffffffffffffffffffffff1673ffffffffffffffffffffffffffffffffffffffff166370a08231306040518263ffffffff1660e01b815260040161156c91906141e7565b60206040518083038186803b15801561158457600080fd5b505afa158015611598573d6000803e3d6000fd5b505050506040513d601f19601f820116820180604052508101906115bc9190613cb0565b146115fc576040517f08c379a00000000000000000000000000000000000000000000000000000000081526004016115f3906144ba565b60405180910390fd5b600061160661198e565b90508073ffffffffffffffffffffffffffffffffffffffff16ff5b611629612aef565b73ffffffffffffffffffffffffffffffffffffffff1661164761198e565b73ffffffffffffffffffffffffffffffffffffffff161461169d576040517f08c379a0000000000000000000000000000000000000000000000000000000008152600401611694906144da565b60405180910390fd5b6116a5610f02565b156116e5576040517f08c379a00000000000000000000000000000000000000000000000000000000081526004016116dc9061441a565b60405180910390fd5b6116ed612dc4565b565b6116f7612aef565b73ffffffffffffffffffffffffffffffffffffffff1661171561198e565b73ffffffffffffffffffffffffffffffffffffffff161461176b576040517f08c379a0000000000000000000000000000000000000000000000000000000008152600401611762906144da565b60405180910390fd5b80600760006101000a81548173ffffffffffffffffffffffffffffffffffffffff021916908373ffffffffffffffffffffffffffffffffffffffff16021790555050565b60006117b9612aef565b73ffffffffffffffffffffffffffffffffffffffff166117d761198e565b73ffffffffffffffffffffffffffffffffffffffff161461182d576040517f08c379a0000000000000000000000000000000000000000000000000000000008152600401611824906144da565b60405180910390fd5b600060159054906101000a900460ff161561187d576040517f08c379a0000000000000000000000000000000000000000000000000000000008152600401611874906143ba565b60405180910390fd5b6000611887612e67565b9050600560009054906101000a900473ffffffffffffffffffffffffffffffffffffffff1673ffffffffffffffffffffffffffffffffffffffff166340c10f19306118fb6118d3612ea8565b6118ed6118de612ebd565b87612ed290919063ffffffff16565b612ee890919063ffffffff16565b6040518363ffffffff1660e01b8152600401611918929190614299565b602060405180830381600087803b15801561193257600080fd5b505af1158015611946573d6000803e3d6000fd5b505050506040513d601f19601f8201168201806040525081019061196a9190613c29565b506001600060156101000a81548160ff021916908315150217905550600191505090565b60008060009054906101000a900473ffffffffffffffffffffffffffffffffffffffff16905090565b60006119c1610f02565b15611a01576040517f08c379a00000000000000000000000000000000000000000000000000000000081526004016119f89061441a565b60405180910390fd5b600060159054906101000a900460ff16611a50576040517f08c379a0000000000000000000000000000000000000000000000000000000008152600401611a479061455a565b60405180910390fd5b600460009054906101000a900473ffffffffffffffffffffffffffffffffffffffff1673ffffffffffffffffffffffffffffffffffffffff168373ffffffffffffffffffffffffffffffffffffffff1614611ae0576040517f08c379a0000000000000000000000000000000000000000000000000000000008152600401611ad7906145fa565b60405180910390fd5b60011515611aee84846107e1565b151514611b30576040517f08c379a0000000000000000000000000000000000000000000000000000000008152600401611b27906143da565b60405180910390fd5b3373ffffffffffffffffffffffffffffffffffffffff168373ffffffffffffffffffffffffffffffffffffffff16636352211e846040518263ffffffff1660e01b8152600401611b80919061463a565b60206040518083038186803b158015611b9857600080fd5b505afa158015611bac573d6000803e3d6000fd5b505050506040513d601f19601f82011682018060405250810190611bd09190613acc565b73ffffffffffffffffffffffffffffffffffffffff1614611c26576040517f08c379a0000000000000000000000000000000000000000000000000000000008152600401611c1d9061451a565b60405180910390fd5b3073ffffffffffffffffffffffffffffffffffffffff168373ffffffffffffffffffffffffffffffffffffffff1663081812fc846040518263ffffffff1660e01b8152600401611c76919061463a565b60206040518083038186803b158015611c8e57600080fd5b505afa158015611ca2573d6000803e3d6000fd5b505050506040513d601f19601f82011682018060405250810190611cc69190613acc565b73ffffffffffffffffffffffffffffffffffffffff1614611d1c576040517f08c379a0000000000000000000000000000000000000000000000000000000008152600401611d139061431a565b60405180910390fd5b6000611d288484612efe565b905060008111611d6d576040517f08c379a0000000000000000000000000000000000000000000000000000000008152600401611d649061459a565b60405180910390fd5b80600160009054906101000a900473ffffffffffffffffffffffffffffffffffffffff1673ffffffffffffffffffffffffffffffffffffffff166370a08231306040518263ffffffff1660e01b8152600401611dc991906141e7565b60206040518083038186803b158015611de157600080fd5b505afa158015611df5573d6000803e3d6000fd5b505050506040513d601f19601f82011682018060405250810190611e199190613cb0565b1015611e5a576040517f08c379a0000000000000000000000000000000000000000000000000000000008152600401611e519061445a565b60405180910390fd5b8373ffffffffffffffffffffffffffffffffffffffff166342842e0e3330866040518463ffffffff1660e01b8152600401611e9793929190614262565b600060405180830381600087803b158015611eb157600080fd5b505af1158015611ec5573d6000803e3d6000fd5b50505050611f163382600160009054906101000a900473ffffffffffffffffffffffffffffffffffffffff1673ffffffffffffffffffffffffffffffffffffffff166130ae9092919063ffffffff16565b7fc7e8b1bdbecdc8a549557efb2a2ab715cff51630caead31610000019e61dfa4b843385604051611f4993929190614262565b60405180910390a1600191505092915050565b6000611f66610f02565b15611fa6576040517f08c379a0000000000000000000000000000000000000000000000000000000008152600401611f9d9061441a565b60405180910390fd5b600060159054906101000a900460ff16611ff5576040517f08c379a0000000000000000000000000000000000000000000000000000000008152600401611fec9061455a565b60405180910390fd5b81600560009054906101000a900473ffffffffffffffffffffffffffffffffffffffff1673ffffffffffffffffffffffffffffffffffffffff166370a08231336040518263ffffffff1660e01b815260040161205191906141e7565b60206040518083038186803b15801561206957600080fd5b505afa15801561207d573d6000803e3d6000fd5b505050506040513d601f19601f820116820180604052508101906120a19190613cb0565b10156120e2576040517f08c379a00000000000000000000000000000000000000000000000000000000081526004016120d9906145da565b60405180910390fd5b81600560009054906101000a900473ffffffffffffffffffffffffffffffffffffffff1673ffffffffffffffffffffffffffffffffffffffff1663dd62ed3e33306040518363ffffffff1660e01b8152600401612140929190614202565b60206040518083038186803b15801561215857600080fd5b505afa15801561216c573d6000803e3d6000fd5b505050506040513d601f19601f820116820180604052508101906121909190613cb0565b10156121d1576040517f08c379a00000000000000000000000000000000000000000000000000000000081526004016121c89061437a565b60405180910390fd5b60006121dc83613134565b905060008111612221576040517f08c379a00000000000000000000000000000000000000000000000000000000081526004016122189061459a565b60405180910390fd5b80600160009054906101000a900473ffffffffffffffffffffffffffffffffffffffff1673ffffffffffffffffffffffffffffffffffffffff166370a08231306040518263ffffffff1660e01b815260040161227d91906141e7565b60206040518083038186803b15801561229557600080fd5b505afa1580156122a9573d6000803e3d6000fd5b505050506040513d601f19601f820116820180604052508101906122cd9190613cb0565b101561230e576040517f08c379a00000000000000000000000000000000000000000000000000000000081526004016123059061445a565b60405180910390fd5b600560009054906101000a900473ffffffffffffffffffffffffffffffffffffffff1673ffffffffffffffffffffffffffffffffffffffff16639dc29fac33836040518363ffffffff1660e01b815260040161236b929190614299565b602060405180830381600087803b15801561238557600080fd5b505af1158015612399573d6000803e3d6000fd5b505050506040513d601f19601f820116820180604052508101906123bd9190613c29565b5061240b3382600160009054906101000a900473ffffffffffffffffffffffffffffffffffffffff1673ffffffffffffffffffffffffffffffffffffffff166130ae9092919063ffffffff16565b7f53fee901a59b4d2e659e450f8db17fc345e158fe408d2b39faf66d1f8c4a54fe600560009054906101000a900473ffffffffffffffffffffffffffffffffffffffff16338360405161246093929190614262565b60405180910390a17fcc16f5dbb4873280815c1ee09dbd06736cffcc184412cf7a71a0fdb75d397ca53382604051612499929190614299565b60405180910390a16001915050919050565b6124b3612aef565b73ffffffffffffffffffffffffffffffffffffffff166124d161198e565b73ffffffffffffffffffffffffffffffffffffffff1614612527576040517f08c379a000000000000000000000000000000000000000000000000000000000815260040161251e906144da565b60405180910390fd5b61252f610f02565b61256e576040517f08c379a00000000000000000000000000000000000000000000000000000000081526004016125659061433a565b60405180910390fd5b600560009054906101000a900473ffffffffffffffffffffffffffffffffffffffff1673ffffffffffffffffffffffffffffffffffffffff1663f2fde38b826040518263ffffffff1660e01b81526004016125c991906141e7565b600060405180830381600087803b1580156125e357600080fd5b505af11580156125f7573d6000803e3d6000fd5b5050505050565b612606612aef565b73ffffffffffffffffffffffffffffffffffffffff1661262461198e565b73ffffffffffffffffffffffffffffffffffffffff161461267a576040517f08c379a0000000000000000000000000000000000000000000000000000000008152600401612671906144da565b60405180910390fd5b612682610f02565b6126c1576040517f08c379a00000000000000000000000000000000000000000000000000000000081526004016126b89061433a565b60405180910390fd5b60008273ffffffffffffffffffffffffffffffffffffffff166370a08231306040518263ffffffff1660e01b81526004016126fc91906141e7565b60206040518083038186803b15801561271457600080fd5b505afa158015612728573d6000803e3d6000fd5b505050506040513d601f19601f8201168201806040525081019061274c9190613cb0565b905061277982828573ffffffffffffffffffffffffffffffffffffffff166130ae9092919063ffffffff16565b505050565b612786612aef565b73ffffffffffffffffffffffffffffffffffffffff166127a461198e565b73ffffffffffffffffffffffffffffffffffffffff16146127fa576040517f08c379a00000000000000000000000000000000000000000000000000000000081526004016127f1906144da565b60405180910390fd5b81600160009054906101000a900473ffffffffffffffffffffffffffffffffffffffff1673ffffffffffffffffffffffffffffffffffffffff166370a08231306040518263ffffffff1660e01b815260040161285691906141e7565b60206040518083038186803b15801561286e57600080fd5b505afa158015612882573d6000803e3d6000fd5b505050506040513d601f19601f820116820180604052508101906128a69190613cb0565b10156128e7576040517f08c379a00000000000000000000000000000000000000000000000000000000081526004016128de9061435a565b60405180910390fd5b6000821161292a576040517f08c379a00000000000000000000000000000000000000000000000000000000081526004016129219061461a565b60405180910390fd5b60008190508073ffffffffffffffffffffffffffffffffffffffff1663b6b55f25846040518263ffffffff1660e01b8152600401612968919061463a565b602060405180830381600087803b15801561298257600080fd5b505af1158015612996573d6000803e3d6000fd5b505050506040513d601f19601f820116820180604052508101906129ba9190613cb0565b507fd483110686f79d1f5932d32add1024998649ddca927700b75bea458b4cb7cde6836040516129ea919061463a565b60405180910390a1505050565b6129ff612aef565b73ffffffffffffffffffffffffffffffffffffffff16612a1d61198e565b73ffffffffffffffffffffffffffffffffffffffff1614612a73576040517f08c379a0000000000000000000000000000000000000000000000000000000008152600401612a6a906144da565b60405180910390fd5b600073ffffffffffffffffffffffffffffffffffffffff168173ffffffffffffffffffffffffffffffffffffffff161415612ae3576040517f08c379a0000000000000000000000000000000000000000000000000000000008152600401612ada9061439a565b60405180910390fd5b612aec81612d00565b50565b600033905090565b612aff610f02565b612b3e576040517f08c379a0000000000000000000000000000000000000000000000000000000008152600401612b359061433a565b60405180910390fd5b60008060146101000a81548160ff0219169083151502179055507f5db9ee0a495bf2e6ff9c91a7834c1ba4fdd244a5e8aa4e537bd38aeae4b073aa612b81612aef565b604051612b8e91906141e7565b60405180910390a1565b600080600560009054906101000a900473ffffffffffffffffffffffffffffffffffffffff1673ffffffffffffffffffffffffffffffffffffffff166318160ddd6040518163ffffffff1660e01b815260040160206040518083038186803b158015612c0357600080fd5b505afa158015612c17573d6000803e3d6000fd5b505050506040513d601f19601f82011682018060405250810190612c3b9190613cb0565b90506000612c47612e67565b9050612c6e81612c608487612ed290919063ffffffff16565b612ee890919063ffffffff16565b92505050919050565b612cfa846323b872dd60e01b858585604051602401612c9893929190614262565b604051602081830303815290604052907bffffffffffffffffffffffffffffffffffffffffffffffffffffffff19166020820180517bffffffffffffffffffffffffffffffffffffffffffffffffffffffff8381831617835250505050613213565b50505050565b60008060009054906101000a900473ffffffffffffffffffffffffffffffffffffffff169050816000806101000a81548173ffffffffffffffffffffffffffffffffffffffff021916908373ffffffffffffffffffffffffffffffffffffffff1602179055508173ffffffffffffffffffffffffffffffffffffffff168173ffffffffffffffffffffffffffffffffffffffff167f8be0079c531659141344cd1fd0a4f28419497f9722a3daafe3b4186f6b6457e060405160405180910390a35050565b612dcc610f02565b15612e0c576040517f08c379a0000000000000000000000000000000000000000000000000000000008152600401612e039061441a565b60405180910390fd5b6001600060146101000a81548160ff0219169083151502179055507f62e78cea01bee320cd4e420270b5ea74000d11b0c9f74754ebdbfc544b05a258612e50612aef565b604051612e5d91906141e7565b60405180910390a1565b6000612ea3612e746132da565b612e95612e7f6134bc565b612e8761356e565b6136f290919063ffffffff16565b6136f290919063ffffffff16565b905090565b60006006600a612eb891906147e0565b905090565b60006012600a612ecd91906147e0565b905090565b60008183612ee091906148fe565b905092915050565b60008183612ef6919061475c565b905092915050565b60008083905060008173ffffffffffffffffffffffffffffffffffffffff16638c7a63ae856040518263ffffffff1660e01b8152600401612f3f919061463a565b60a06040518083038186803b158015612f5757600080fd5b505afa158015612f6b573d6000803e3d6000fd5b505050506040513d601f19601f82011682018060405250810190612f8f9190613c56565b90506000816040015190506000612fb7836080015184606001516136f290919063ffffffff16565b905060008360000151905060008190506000808273ffffffffffffffffffffffffffffffffffffffff16634d02fe6f8b6040518263ffffffff1660e01b8152600401613003919061463a565b604080518083038186803b15801561301a57600080fd5b505afa15801561302e573d6000803e3d6000fd5b505050506040513d601f19601f820116820180604052508101906130529190613d70565b915091506000829050868210156130785761307682826136f290919063ffffffff16565b505b61309d8161308f888a61370890919063ffffffff16565b6136f290919063ffffffff16565b995050505050505050505092915050565b61312f8363a9059cbb60e01b84846040516024016130cd929190614299565b604051602081830303815290604052907bffffffffffffffffffffffffffffffffffffffffffffffffffffffff19166020820180517bffffffffffffffffffffffffffffffffffffffffffffffffffffffff8381831617835250505050613213565b505050565b600080600560009054906101000a900473ffffffffffffffffffffffffffffffffffffffff1673ffffffffffffffffffffffffffffffffffffffff166318160ddd6040518163ffffffff1660e01b815260040160206040518083038186803b15801561319f57600080fd5b505afa1580156131b3573d6000803e3d6000fd5b505050506040513d601f19601f820116820180604052508101906131d79190613cb0565b905060006131e3612e67565b905061320a826131fc8387612ed290919063ffffffff16565b612ee890919063ffffffff16565b92505050919050565b6000613275826040518060400160405280602081526020017f5361666545524332303a206c6f772d6c6576656c2063616c6c206661696c65648152508573ffffffffffffffffffffffffffffffffffffffff1661371e9092919063ffffffff16565b90506000815111156132d557808060200190518101906132959190613c29565b6132d4576040517f08c379a00000000000000000000000000000000000000000000000000000000081526004016132cb9061457a565b60405180910390fd5b5b505050565b600080600090506000600460009054906101000a900473ffffffffffffffffffffffffffffffffffffffff1673ffffffffffffffffffffffffffffffffffffffff166370a08231306040518263ffffffff1660e01b815260040161333e91906141e7565b60206040518083038186803b15801561335657600080fd5b505afa15801561336a573d6000803e3d6000fd5b505050506040513d601f19601f8201168201806040525081019061338e9190613cb0565b905060005b8181101561349a57613485613476600460009054906101000a900473ffffffffffffffffffffffffffffffffffffffff16600460009054906101000a900473ffffffffffffffffffffffffffffffffffffffff1673ffffffffffffffffffffffffffffffffffffffff16632f745c5930866040518363ffffffff1660e01b8152600401613421929190614299565b60206040518083038186803b15801561343957600080fd5b505afa15801561344d573d6000803e3d6000fd5b505050506040513d601f19601f820116820180604052508101906134719190613cb0565b612efe565b846136f290919063ffffffff16565b9250808061349290614abb565b915050613393565b506134b56134a6612ea8565b83612ed290919063ffffffff16565b9250505090565b6000600160009054906101000a900473ffffffffffffffffffffffffffffffffffffffff1673ffffffffffffffffffffffffffffffffffffffff166370a08231306040518263ffffffff1660e01b815260040161351991906141e7565b60206040518083038186803b15801561353157600080fd5b505afa158015613545573d6000803e3d6000fd5b505050506040513d601f19601f820116820180604052508101906135699190613cb0565b905090565b60006136ed6136e861357e613736565b6136da600760009054906101000a900473ffffffffffffffffffffffffffffffffffffffff1673ffffffffffffffffffffffffffffffffffffffff1663872697296040518163ffffffff1660e01b815260040160206040518083038186803b1580156135e957600080fd5b505afa1580156135fd573d6000803e3d6000fd5b505050506040513d601f19601f820116820180604052508101906136219190613cb0565b600360009054906101000a900473ffffffffffffffffffffffffffffffffffffffff1673ffffffffffffffffffffffffffffffffffffffff166370a08231306040518263ffffffff1660e01b815260040161367c91906141e7565b60206040518083038186803b15801561369457600080fd5b505afa1580156136a8573d6000803e3d6000fd5b505050506040513d601f19601f820116820180604052508101906136cc9190613cb0565b612ed290919063ffffffff16565b612ee890919063ffffffff16565b61374b565b905090565b600081836137009190614706565b905092915050565b600081836137169190614958565b905092915050565b606061372d8484600085613787565b90509392505050565b60006012600a61374691906147e0565b905090565b600061378061377161375b612ea8565b613763613736565b612ee890919063ffffffff16565b83612ee890919063ffffffff16565b9050919050565b6060824710156137cc576040517f08c379a00000000000000000000000000000000000000000000000000000000081526004016137c3906143fa565b60405180910390fd5b6137d58561389b565b613814576040517f08c379a000000000000000000000000000000000000000000000000000000000815260040161380b9061453a565b60405180910390fd5b6000808673ffffffffffffffffffffffffffffffffffffffff16858760405161383d91906141d0565b60006040518083038185875af1925050503d806000811461387a576040519150601f19603f3d011682016040523d82523d6000602084013e61387f565b606091505b509150915061388f8282866138be565b92505050949350505050565b6000808273ffffffffffffffffffffffffffffffffffffffff163b119050919050565b606083156138ce5782905061391e565b6000835111156138e15782518084602001fd5b816040517f08c379a000000000000000000000000000000000000000000000000000000000815260040161391591906142f8565b60405180910390fd5b9392505050565b6000613938613933846146a3565b61467e565b90508281526020810184848401111561395457613953614b9b565b5b61395f848285614a48565b509392505050565b600081359050613976816151dd565b92915050565b60008151905061398b816151dd565b92915050565b6000813590506139a0816151f4565b92915050565b6000815190506139b58161520b565b92915050565b600082601f8301126139d0576139cf614b91565b5b81356139e0848260208601613925565b91505092915050565b600060a082840312156139ff576139fe614b96565b5b613a0960a061467e565b90506000613a198482850161397c565b6000830152506020613a2d84828501613a8a565b6020830152506040613a4184828501613a8a565b6040830152506060613a5584828501613a8a565b6060830152506080613a6984828501613a8a565b60808301525092915050565b600081359050613a8481615222565b92915050565b600081519050613a9981615222565b92915050565b600060208284031215613ab557613ab4614ba5565b5b6000613ac384828501613967565b91505092915050565b600060208284031215613ae257613ae1614ba5565b5b6000613af08482850161397c565b91505092915050565b600060208284031215613b0f57613b0e614ba5565b5b6000613b1d84828501613991565b91505092915050565b60008060408385031215613b3d57613b3c614ba5565b5b6000613b4b85828601613967565b9250506020613b5c85828601613991565b9150509250929050565b60008060008060808587031215613b8057613b7f614ba5565b5b6000613b8e87828801613967565b9450506020613b9f87828801613967565b9350506040613bb087828801613a75565b925050606085013567ffffffffffffffff811115613bd157613bd0614ba0565b5b613bdd878288016139bb565b91505092959194509250565b60008060408385031215613c0057613bff614ba5565b5b6000613c0e85828601613967565b9250506020613c1f85828601613a75565b9150509250929050565b600060208284031215613c3f57613c3e614ba5565b5b6000613c4d848285016139a6565b91505092915050565b600060a08284031215613c6c57613c6b614ba5565b5b6000613c7a848285016139e9565b91505092915050565b600060208284031215613c9957613c98614ba5565b5b6000613ca784828501613a75565b91505092915050565b600060208284031215613cc657613cc5614ba5565b5b6000613cd484828501613a8a565b91505092915050565b60008060408385031215613cf457613cf3614ba5565b5b6000613d0285828601613a75565b9250506020613d1385828601613967565b9150509250929050565b600080600060608486031215613d3657613d35614ba5565b5b6000613d4486828701613a75565b9350506020613d5586828701613967565b9250506040613d6686828701613a75565b9150509250925092565b60008060408385031215613d8757613d86614ba5565b5b6000613d9585828601613a8a565b9250506020613da685828601613a8a565b9150509250929050565b613db981614a12565b82525050565b613dc88161498c565b82525050565b613dd7816149b0565b82525050565b613de6816149bc565b82525050565b6000613df7826146d4565b613e0181856146ea565b9350613e11818560208601614a57565b80840191505092915050565b6000613e28826146df565b613e3281856146f5565b9350613e42818560208601614a57565b613e4b81614baa565b840191505092915050565b6000613e63602e836146f5565b9150613e6e82614bc8565b604082019050919050565b6000613e866014836146f5565b9150613e9182614c17565b602082019050919050565b6000613ea96021836146f5565b9150613eb482614c40565b604082019050919050565b6000613ecc603a836146f5565b9150613ed782614c8f565b604082019050919050565b6000613eef6026836146f5565b9150613efa82614cde565b604082019050919050565b6000613f12602a836146f5565b9150613f1d82614d2d565b604082019050919050565b6000613f356010836146f5565b9150613f4082614d7c565b602082019050919050565b6000613f586026836146f5565b9150613f6382614da5565b604082019050919050565b6000613f7b6010836146f5565b9150613f8682614df4565b602082019050919050565b6000613f9e603c836146f5565b9150613fa982614e1d565b604082019050919050565b6000613fc1602e836146f5565b9150613fcc82614e6c565b604082019050919050565b6000613fe4603a836146f5565b9150613fef82614ebb565b604082019050919050565b60006140076021836146f5565b915061401282614f0a565b604082019050919050565b600061402a601d836146f5565b915061403582614f59565b602082019050919050565b600061404d6020836146f5565b915061405882614f82565b602082019050919050565b60006140706020836146f5565b915061407b82614fab565b602082019050919050565b6000614093601c836146f5565b915061409e82614fd4565b602082019050919050565b60006140b6601d836146f5565b91506140c182614ffd565b602082019050919050565b60006140d96026836146f5565b91506140e482615026565b604082019050919050565b60006140fc602a836146f5565b915061410782615075565b604082019050919050565b600061411f6035836146f5565b915061412a826150c4565b604082019050919050565b6000614142601e836146f5565b915061414d82615113565b602082019050919050565b60006141656021836146f5565b91506141708261513c565b604082019050919050565b60006141886018836146f5565b91506141938261518b565b602082019050919050565b60006141ab601b836146f5565b91506141b6826151b4565b602082019050919050565b6141ca81614a08565b82525050565b60006141dc8284613dec565b915081905092915050565b60006020820190506141fc6000830184613dbf565b92915050565b60006040820190506142176000830185613dbf565b6142246020830184613dbf565b9392505050565b60006060820190506142406000830186613dbf565b61424d6020830185613db0565b61425a60408301846141c1565b949350505050565b60006060820190506142776000830186613dbf565b6142846020830185613dbf565b61429160408301846141c1565b949350505050565b60006040820190506142ae6000830185613dbf565b6142bb60208301846141c1565b9392505050565b60006020820190506142d76000830184613dce565b92915050565b60006020820190506142f26000830184613ddd565b92915050565b600060208201905081810360008301526143128184613e1d565b905092915050565b6000602082019050818103600083015261433381613e56565b9050919050565b6000602082019050818103600083015261435381613e79565b9050919050565b6000602082019050818103600083015261437381613e9c565b9050919050565b6000602082019050818103600083015261439381613ebf565b9050919050565b600060208201905081810360008301526143b381613ee2565b9050919050565b600060208201905081810360008301526143d381613f05565b9050919050565b600060208201905081810360008301526143f381613f28565b9050919050565b6000602082019050818103600083015261441381613f4b565b9050919050565b6000602082019050818103600083015261443381613f6e565b9050919050565b6000602082019050818103600083015261445381613f91565b9050919050565b6000602082019050818103600083015261447381613fb4565b9050919050565b6000602082019050818103600083015261449381613fd7565b9050919050565b600060208201905081810360008301526144b381613ffa565b9050919050565b600060208201905081810360008301526144d38161401d565b9050919050565b600060208201905081810360008301526144f381614040565b9050919050565b6000602082019050818103600083015261451381614063565b9050919050565b6000602082019050818103600083015261453381614086565b9050919050565b60006020820190508181036000830152614553816140a9565b9050919050565b60006020820190508181036000830152614573816140cc565b9050919050565b60006020820190508181036000830152614593816140ef565b9050919050565b600060208201905081810360008301526145b381614112565b9050919050565b600060208201905081810360008301526145d381614135565b9050919050565b600060208201905081810360008301526145f381614158565b9050919050565b600060208201905081810360008301526146138161417b565b9050919050565b600060208201905081810360008301526146338161419e565b9050919050565b600060208201905061464f60008301846141c1565b92915050565b600060408201905061466a60008301856141c1565b61467760208301846141c1565b9392505050565b6000614688614699565b90506146948282614a8a565b919050565b6000604051905090565b600067ffffffffffffffff8211156146be576146bd614b62565b5b6146c782614baa565b9050602081019050919050565b600081519050919050565b600081519050919050565b600081905092915050565b600082825260208201905092915050565b600061471182614a08565b915061471c83614a08565b9250827fffffffffffffffffffffffffffffffffffffffffffffffffffffffffffffffff0382111561475157614750614b04565b5b828201905092915050565b600061476782614a08565b915061477283614a08565b92508261478257614781614b33565b5b828204905092915050565b6000808291508390505b60018511156147d7578086048111156147b3576147b2614b04565b5b60018516156147c25780820291505b80810290506147d085614bbb565b9450614797565b94509492505050565b60006147eb82614a08565b91506147f683614a08565b92506148237fffffffffffffffffffffffffffffffffffffffffffffffffffffffffffffffff848461482b565b905092915050565b60008261483b57600190506148f7565b8161484957600090506148f7565b816001811461485f576002811461486957614898565b60019150506148f7565b60ff84111561487b5761487a614b04565b5b8360020a91508482111561489257614891614b04565b5b506148f7565b5060208310610133831016604e8410600b84101617156148cd5782820a9050838111156148c8576148c7614b04565b5b6148f7565b6148da848484600161478d565b925090508184048111156148f1576148f0614b04565b5b81810290505b9392505050565b600061490982614a08565b915061491483614a08565b9250817fffffffffffffffffffffffffffffffffffffffffffffffffffffffffffffffff048311821515161561494d5761494c614b04565b5b828202905092915050565b600061496382614a08565b915061496e83614a08565b92508282101561498157614980614b04565b5b828203905092915050565b6000614997826149e8565b9050919050565b60006149a9826149e8565b9050919050565b60008115159050919050565b60007fffffffff0000000000000000000000000000000000000000000000000000000082169050919050565b600073ffffffffffffffffffffffffffffffffffffffff82169050919050565b6000819050919050565b6000614a1d82614a24565b9050919050565b6000614a2f82614a36565b9050919050565b6000614a41826149e8565b9050919050565b82818337600083830152505050565b60005b83811015614a75578082015181840152602081019050614a5a565b83811115614a84576000848401525b50505050565b614a9382614baa565b810181811067ffffffffffffffff82111715614ab257614ab1614b62565b5b80604052505050565b6000614ac682614a08565b91507fffffffffffffffffffffffffffffffffffffffffffffffffffffffffffffffff821415614af957614af8614b04565b5b600182019050919050565b7f4e487b7100000000000000000000000000000000000000000000000000000000600052601160045260246000fd5b7f4e487b7100000000000000000000000000000000000000000000000000000000600052601260045260246000fd5b7f4e487b7100000000000000000000000000000000000000000000000000000000600052604160045260246000fd5b600080fd5b600080fd5b600080fd5b600080fd5b600080fd5b6000601f19601f8301169050919050565b60008160011c9050919050565b7f5573657220686173206e6f7420617070726f76656420746865207661756c742060008201527f666f72207468697320746f6b656e000000000000000000000000000000000000602082015250565b7f5061757361626c653a206e6f7420706175736564000000000000000000000000600082015250565b7f5661756c742068617320696e737566666963656e7420737461626c6520636f6960008201527f6e00000000000000000000000000000000000000000000000000000000000000602082015250565b7f5573657220686173206e6f7420617070726f76656420746865207661756c742060008201527f666f722073756666696369656e7420616c6c6f797820636f696e000000000000602082015250565b7f4f776e61626c653a206e6577206f776e657220697320746865207a65726f206160008201527f6464726573730000000000000000000000000000000000000000000000000000602082015250565b7f5661756c742068617320616c726561647920737461727420616363657074696e60008201527f67206465706f7369747300000000000000000000000000000000000000000000602082015250565b7f4e6f7420612076616c696420706f6f6c00000000000000000000000000000000600082015250565b7f416464726573733a20696e73756666696369656e742062616c616e636520666f60008201527f722063616c6c0000000000000000000000000000000000000000000000000000602082015250565b7f5061757361626c653a2070617573656400000000000000000000000000000000600082015250565b7f54686520616d6f756e74206f6620616c6c6f79782062726f6e7a6520636f696e60008201527f20746f20676574206973206e6f74206c6172676572207468616e203000000000602082015250565b7f546865207661756c7420646f6573206e6f74206861766520737566666963696560008201527f6e7420737461626c6520636f696e000000000000000000000000000000000000602082015250565b7f5573657220686173206e6f7420617070726f76656420746865207661756c742060008201527f666f722073756666696369656e7420737461626c6520636f696e000000000000602082015250565b7f557365722068617320696e73756666696369656e7420737461626c6520636f6960008201527f6e00000000000000000000000000000000000000000000000000000000000000602082015250565b7f42616c616e6365206f662047464920636f696e206d7573742062652030000000600082015250565b7f4f776e61626c653a2063616c6c6572206973206e6f7420746865206f776e6572600082015250565b7f42616c616e6365206f6620737461626c6520636f696e206d7573742062652030600082015250565b7f5573657220646f6573206e6f74206f776e207468697320746f6b656e00000000600082015250565b7f416464726573733a2063616c6c20746f206e6f6e2d636f6e7472616374000000600082015250565b7f5661756c7420686173206e6f7420737461727420616363657074696e6720646560008201527f706f736974730000000000000000000000000000000000000000000000000000602082015250565b7f5361666545524332303a204552433230206f7065726174696f6e20646964206e60008201527f6f74207375636365656400000000000000000000000000000000000000000000602082015250565b7f54686520616d6f756e74206f6620737461626c6520636f696e20746f2067657460008201527f206973206e6f74206c6172676572207468616e20300000000000000000000000602082015250565b7f42616c616e6365206f66204669647520636f696e206d75737420626520300000600082015250565b7f557365722068617320696e73756666696369656e7420616c6c6f797820636f6960008201527f6e00000000000000000000000000000000000000000000000000000000000000602082015250565b7f4e6f7420476f6c6466696e636820506f6f6c20546f6b656e0000000000000000600082015250565b7f4d757374206465706f736974206d6f7265207468616e207a65726f0000000000600082015250565b6151e68161498c565b81146151f157600080fd5b50565b6151fd8161499e565b811461520857600080fd5b50565b615214816149b0565b811461521f57600080fd5b50565b61522b81614a08565b811461523657600080fd5b5056fea2646970667358221220f62cc33efb904d000533b03200920c95f2c792357bc71ed58a4f4cfec064135d64736f6c63430008070033",
  "devdoc": {
    "author": "AlloyX",
    "kind": "dev",
    "methods": {
      "depositAlloyxBronzeTokens(uint256)": {
        "params": {
          "_tokenAmount": "Number of Alloy Tokens"
        }
      },
      "depositNFTToken(address,uint256)": {
        "params": {
          "_tokenAddress": "NFT Address",
          "_tokenID": "NFT ID"
        }
      },
      "depositUSDCCoin(uint256)": {
        "params": {
          "_tokenAmount": "Number of stable coin"
        }
      },
      "isValidPool(address,uint256)": {
        "params": {
          "_tokenAddress": "The backer NFT address",
          "_tokenID": "The backer NFT id"
        }
      },
      "onERC721Received(address,address,uint256,bytes)": {
        "details": "See {IERC721Receiver-onERC721Received}. Always returns `IERC721Receiver.onERC721Received.selector`."
      },
      "owner()": {
        "details": "Returns the address of the current owner."
      },
      "paused()": {
        "details": "Returns true if the contract is paused, and false otherwise."
      },
      "renounceOwnership()": {
        "details": "Leaves the contract without owner. It will not be possible to call `onlyOwner` functions anymore. Can only be called by the current owner. NOTE: Renouncing ownership will leave the contract without an owner, thereby removing any functionality that is only available to the owner."
      },
      "transferOwnership(address)": {
        "details": "Transfers ownership of the contract to a new account (`newOwner`). Can only be called by the current owner."
      }
    },
    "title": "AlloyX Vault",
    "version": 1
  },
  "userdoc": {
    "kind": "user",
    "methods": {
      "depositAlloyxBronzeTokens(uint256)": {
        "notice": "An Alloy token holder can deposit their tokens and redeem them for USDC"
      },
      "depositNFTToken(address,uint256)": {
        "notice": "A Junior token holder can deposit their NFT for stable coin"
      },
      "depositUSDCCoin(uint256)": {
        "notice": "A Liquidity Provider can deposit supported stable coins for Alloy Tokens"
      },
      "isValidPool(address,uint256)": {
        "notice": "Using the PoolTokens interface, check if this is a valid pool"
      },
      "startVaultOperation()": {
        "notice": "Initialize by minting the alloy brown tokens to owner"
      }
    },
    "notice": "Initial vault for AlloyX. This vault holds loan tokens generated on Goldfinch and emits AlloyTokens when a liquidity provider deposits supported stable coins. The contract uses a pricing oracle to determine the value of the underlying assets",
    "version": 1
  },
  "storageLayout": {
    "storage": [
      {
        "astId": 2183,
        "contract": "contracts/alloyx/v2.0/AlloyVault.sol:AlloyVault",
        "label": "_owner",
        "offset": 0,
        "slot": "0",
        "type": "t_address"
      },
      {
        "astId": 2298,
        "contract": "contracts/alloyx/v2.0/AlloyVault.sol:AlloyVault",
        "label": "_paused",
        "offset": 20,
        "slot": "0",
        "type": "t_bool"
      },
      {
        "astId": 5497,
        "contract": "contracts/alloyx/v2.0/AlloyVault.sol:AlloyVault",
        "label": "vaultStarted",
        "offset": 21,
        "slot": "0",
        "type": "t_bool"
      },
      {
        "astId": 5500,
        "contract": "contracts/alloyx/v2.0/AlloyVault.sol:AlloyVault",
        "label": "usdcCoin",
        "offset": 0,
        "slot": "1",
        "type": "t_contract(IERC20)3038"
      },
      {
        "astId": 5503,
        "contract": "contracts/alloyx/v2.0/AlloyVault.sol:AlloyVault",
        "label": "gfiCoin",
        "offset": 0,
        "slot": "2",
        "type": "t_contract(IERC20)3038"
      },
      {
        "astId": 5506,
        "contract": "contracts/alloyx/v2.0/AlloyVault.sol:AlloyVault",
        "label": "fiduCoin",
        "offset": 0,
        "slot": "3",
        "type": "t_contract(IERC20)3038"
      },
      {
        "astId": 5509,
        "contract": "contracts/alloyx/v2.0/AlloyVault.sol:AlloyVault",
        "label": "goldFinchPoolToken",
        "offset": 0,
        "slot": "4",
        "type": "t_contract(IPoolTokens)6911"
      },
      {
        "astId": 5512,
        "contract": "contracts/alloyx/v2.0/AlloyVault.sol:AlloyVault",
        "label": "alloyxTokenBronze",
        "offset": 0,
        "slot": "5",
        "type": "t_contract(AlloyxTokenBronze)4271"
      },
      {
        "astId": 5515,
        "contract": "contracts/alloyx/v2.0/AlloyVault.sol:AlloyVault",
        "label": "alloyTokenSilver",
        "offset": 0,
        "slot": "6",
        "type": "t_contract(AlloyxTokenSilver)4334"
      },
      {
        "astId": 5518,
        "contract": "contracts/alloyx/v2.0/AlloyVault.sol:AlloyVault",
        "label": "seniorPool",
        "offset": 0,
        "slot": "7",
        "type": "t_contract(ISeniorPool)7007"
      }
    ],
    "types": {
      "t_address": {
        "encoding": "inplace",
        "label": "address",
        "numberOfBytes": "20"
      },
      "t_bool": {
        "encoding": "inplace",
        "label": "bool",
        "numberOfBytes": "1"
      },
      "t_contract(AlloyxTokenBronze)4271": {
        "encoding": "inplace",
        "label": "contract AlloyxTokenBronze",
        "numberOfBytes": "20"
      },
      "t_contract(AlloyxTokenSilver)4334": {
        "encoding": "inplace",
        "label": "contract AlloyxTokenSilver",
        "numberOfBytes": "20"
      },
      "t_contract(IERC20)3038": {
        "encoding": "inplace",
        "label": "contract IERC20",
        "numberOfBytes": "20"
      },
      "t_contract(IPoolTokens)6911": {
        "encoding": "inplace",
        "label": "contract IPoolTokens",
        "numberOfBytes": "20"
      },
      "t_contract(ISeniorPool)7007": {
        "encoding": "inplace",
        "label": "contract ISeniorPool",
        "numberOfBytes": "20"
      }
    }
  }
}