{
  "address": "0x843178AA06B44066DC45e1971b94E7bb48d10c22",
  "_format": "hh-sol-artifact-1",
  "contractName": "GoldfinchDelegacy",
  "sourceName": "contracts/alloyx/GoldfinchDelegacy.sol",
  "abi": [
    {
      "anonymous": false,
      "inputs": [
        {
          "indexed": false,
          "internalType": "uint8",
          "name": "version",
          "type": "uint8"
        }
      ],
      "name": "Initialized",
      "type": "event"
    },
    {
      "anonymous": false,
      "inputs": [
        {
          "indexed": true,
          "internalType": "address",
          "name": "previousOwner",
          "type": "address"
        },
        {
          "indexed": true,
          "internalType": "address",
          "name": "newOwner",
          "type": "address"
        }
      ],
      "name": "OwnershipTransferred",
      "type": "event"
    },
    {
      "inputs": [
        {
          "internalType": "address",
          "name": "_depositor",
          "type": "address"
        },
        {
          "internalType": "uint256",
          "name": "_tokenId",
          "type": "uint256"
        }
      ],
      "name": "addToDepositorMap",
      "outputs": [],
      "stateMutability": "nonpayable",
      "type": "function"
    },
    {
      "inputs": [
        {
          "internalType": "address",
          "name": "_tokenAddress",
          "type": "address"
        },
        {
          "internalType": "address",
          "name": "_account",
          "type": "address"
        },
        {
          "internalType": "uint256",
          "name": "_amount",
          "type": "uint256"
        }
      ],
      "name": "approve",
      "outputs": [],
      "stateMutability": "nonpayable",
      "type": "function"
    },
    {
      "inputs": [
        {
          "internalType": "address",
          "name": "_poolToken",
          "type": "address"
        }
      ],
      "name": "changePoolTokenAddress",
      "outputs": [],
      "stateMutability": "nonpayable",
      "type": "function"
    },
    {
      "inputs": [
        {
          "internalType": "address",
          "name": "_seniorPool",
          "type": "address"
        }
      ],
      "name": "changeSeniorPoolAddress",
      "outputs": [],
      "stateMutability": "nonpayable",
      "type": "function"
    },
    {
      "inputs": [
        {
          "internalType": "address",
          "name": "_sortedGoldfinchTranchesAddress",
          "type": "address"
        }
      ],
      "name": "changeSortedGoldfinchTranches",
      "outputs": [],
      "stateMutability": "nonpayable",
      "type": "function"
    },
    {
      "inputs": [
        {
          "internalType": "address",
          "name": "_vaultAddress",
          "type": "address"
        }
      ],
      "name": "changeVaultAddress",
      "outputs": [],
      "stateMutability": "nonpayable",
      "type": "function"
    },
    {
      "inputs": [
        {
          "internalType": "address",
          "name": "_rewardee",
          "type": "address"
        },
        {
          "internalType": "uint256",
          "name": "_amount",
          "type": "uint256"
        },
        {
          "internalType": "uint256",
          "name": "_totalSupply",
          "type": "uint256"
        },
        {
          "internalType": "uint256",
          "name": "_percentageFee",
          "type": "uint256"
        }
      ],
      "name": "claimReward",
      "outputs": [],
      "stateMutability": "nonpayable",
      "type": "function"
    },
    {
      "inputs": [],
      "name": "earningGfiFee",
      "outputs": [
        {
          "internalType": "uint256",
          "name": "",
          "type": "uint256"
        }
      ],
      "stateMutability": "view",
      "type": "function"
    },
    {
      "inputs": [],
      "name": "getGFIBalance",
      "outputs": [
        {
          "internalType": "uint256",
          "name": "",
          "type": "uint256"
        }
      ],
      "stateMutability": "view",
      "type": "function"
    },
    {
      "inputs": [],
      "name": "getGoldFinchPoolTokenBalanceInUSDC",
      "outputs": [
        {
          "internalType": "uint256",
          "name": "",
          "type": "uint256"
        }
      ],
      "stateMutability": "view",
      "type": "function"
    },
    {
      "inputs": [],
      "name": "getGoldfinchDelegacyBalanceInUSDC",
      "outputs": [
        {
          "internalType": "uint256",
          "name": "",
          "type": "uint256"
        }
      ],
      "stateMutability": "view",
      "type": "function"
    },
    {
      "inputs": [
        {
          "internalType": "uint256",
          "name": "_tokenID",
          "type": "uint256"
        }
      ],
      "name": "getJuniorTokenValue",
      "outputs": [
        {
          "internalType": "uint256",
          "name": "",
          "type": "uint256"
        }
      ],
      "stateMutability": "view",
      "type": "function"
    },
    {
      "inputs": [
        {
          "internalType": "uint256",
          "name": "_amount",
          "type": "uint256"
        },
        {
          "internalType": "uint256",
          "name": "_totalSupply",
          "type": "uint256"
        },
        {
          "internalType": "uint256",
          "name": "_percentageFee",
          "type": "uint256"
        }
      ],
      "name": "getRewardAmount",
      "outputs": [
        {
          "internalType": "uint256",
          "name": "",
          "type": "uint256"
        }
      ],
      "stateMutability": "view",
      "type": "function"
    },
    {
      "inputs": [
        {
          "internalType": "address",
          "name": "_depositor",
          "type": "address"
        }
      ],
      "name": "getTokensAvailableCountForWithdrawal",
      "outputs": [
        {
          "internalType": "uint256",
          "name": "",
          "type": "uint256"
        }
      ],
      "stateMutability": "view",
      "type": "function"
    },
    {
      "inputs": [
        {
          "internalType": "address",
          "name": "_depositor",
          "type": "address"
        }
      ],
      "name": "getTokensAvailableForWithdrawal",
      "outputs": [
        {
          "internalType": "uint256[]",
          "name": "",
          "type": "uint256[]"
        }
      ],
      "stateMutability": "view",
      "type": "function"
    },
    {
      "inputs": [],
      "name": "getUSDCBalance",
      "outputs": [
        {
          "internalType": "uint256",
          "name": "",
          "type": "uint256"
        }
      ],
      "stateMutability": "view",
      "type": "function"
    },
    {
      "inputs": [],
      "name": "getUSDCBalanceAvailableForInvestment",
      "outputs": [
        {
          "internalType": "uint256",
          "name": "",
          "type": "uint256"
        }
      ],
      "stateMutability": "view",
      "type": "function"
    },
    {
      "inputs": [
        {
          "internalType": "address",
          "name": "_usdcCoinAddress",
          "type": "address"
        },
        {
          "internalType": "address",
          "name": "_fiduCoinAddress",
          "type": "address"
        },
        {
          "internalType": "address",
          "name": "_gfiCoinAddress",
          "type": "address"
        },
        {
          "internalType": "address",
          "name": "_poolTokenAddress",
          "type": "address"
        },
        {
          "internalType": "address",
          "name": "_seniorPoolAddress",
          "type": "address"
        },
        {
          "internalType": "address",
          "name": "_coreVaultAddress",
          "type": "address"
        },
        {
          "internalType": "address",
          "name": "_sortedGoldfinchTranches",
          "type": "address"
        }
      ],
      "name": "initialize",
      "outputs": [],
      "stateMutability": "nonpayable",
      "type": "function"
    },
    {
      "inputs": [
        {
          "internalType": "address",
          "name": "_depositor",
          "type": "address"
        },
        {
          "internalType": "uint256",
          "name": "_tokenId",
          "type": "uint256"
        }
      ],
      "name": "isTokenIdValidForWithdrawal",
      "outputs": [
        {
          "internalType": "bool",
          "name": "",
          "type": "bool"
        }
      ],
      "stateMutability": "view",
      "type": "function"
    },
    {
      "inputs": [
        {
          "internalType": "uint256",
          "name": "_tokenID",
          "type": "uint256"
        }
      ],
      "name": "isValidPool",
      "outputs": [
        {
          "internalType": "bool",
          "name": "",
          "type": "bool"
        }
      ],
      "stateMutability": "view",
      "type": "function"
    },
    {
      "inputs": [
        {
          "internalType": "address",
          "name": "_toAddress",
          "type": "address"
        }
      ],
      "name": "migrateAllGoldfinchPoolTokens",
      "outputs": [],
      "stateMutability": "nonpayable",
      "type": "function"
    },
    {
      "inputs": [
        {
          "internalType": "address",
          "name": "_tokenAddress",
          "type": "address"
        },
        {
          "internalType": "address",
          "name": "_to",
          "type": "address"
        }
      ],
      "name": "migrateERC20",
      "outputs": [],
      "stateMutability": "nonpayable",
      "type": "function"
    },
    {
      "inputs": [
        {
          "internalType": "address",
          "name": "_toAddress",
          "type": "address"
        },
        {
          "internalType": "uint256",
          "name": "_tokenId",
          "type": "uint256"
        }
      ],
      "name": "migrateGoldfinchPoolTokens",
      "outputs": [],
      "stateMutability": "nonpayable",
      "type": "function"
    },
    {
      "inputs": [
        {
          "internalType": "address",
          "name": "",
          "type": "address"
        },
        {
          "internalType": "address",
          "name": "",
          "type": "address"
        },
        {
          "internalType": "uint256",
          "name": "",
          "type": "uint256"
        },
        {
          "internalType": "bytes",
          "name": "",
          "type": "bytes"
        }
      ],
      "name": "onERC721Received",
      "outputs": [
        {
          "internalType": "bytes4",
          "name": "",
          "type": "bytes4"
        }
      ],
      "stateMutability": "nonpayable",
      "type": "function"
    },
    {
      "inputs": [],
      "name": "owner",
      "outputs": [
        {
          "internalType": "address",
          "name": "",
          "type": "address"
        }
      ],
      "stateMutability": "view",
      "type": "function"
    },
    {
      "inputs": [
        {
          "internalType": "address",
          "name": "_to",
          "type": "address"
        },
        {
          "internalType": "uint256",
          "name": "_amount",
          "type": "uint256"
        }
      ],
      "name": "payUsdc",
      "outputs": [],
      "stateMutability": "nonpayable",
      "type": "function"
    },
    {
      "inputs": [
        {
          "internalType": "uint256",
          "name": "_amount",
          "type": "uint256"
        },
        {
          "internalType": "address",
          "name": "_poolAddress",
          "type": "address"
        },
        {
          "internalType": "uint256",
          "name": "_tranche",
          "type": "uint256"
        }
      ],
      "name": "purchaseJuniorToken",
      "outputs": [],
      "stateMutability": "nonpayable",
      "type": "function"
    },
    {
      "inputs": [
        {
          "internalType": "uint256",
          "name": "_amount",
          "type": "uint256"
        }
      ],
      "name": "purchaseJuniorTokenOnBestTranch",
      "outputs": [],
      "stateMutability": "nonpayable",
      "type": "function"
    },
    {
      "inputs": [
        {
          "internalType": "uint256",
          "name": "_amount",
          "type": "uint256"
        }
      ],
      "name": "purchaseSeniorTokens",
      "outputs": [],
      "stateMutability": "nonpayable",
      "type": "function"
    },
    {
      "inputs": [
        {
          "internalType": "uint256",
          "name": "_amount",
          "type": "uint256"
        },
        {
          "internalType": "address",
          "name": "_to",
          "type": "address"
        }
      ],
      "name": "purchaseSeniorTokensAndTransferTo",
      "outputs": [],
      "stateMutability": "nonpayable",
      "type": "function"
    },
    {
      "inputs": [],
      "name": "renounceOwnership",
      "outputs": [],
      "stateMutability": "nonpayable",
      "type": "function"
    },
    {
      "inputs": [],
      "name": "repaymentFee",
      "outputs": [
        {
          "internalType": "uint256",
          "name": "",
          "type": "uint256"
        }
      ],
      "stateMutability": "view",
      "type": "function"
    },
    {
      "inputs": [
        {
          "internalType": "uint256",
          "name": "_tokenId",
          "type": "uint256"
        },
        {
          "internalType": "uint256",
          "name": "_amount",
          "type": "uint256"
        },
        {
          "internalType": "address",
          "name": "_poolAddress",
          "type": "address"
        },
        {
          "internalType": "uint256",
          "name": "_percentageBronzeRepayment",
          "type": "uint256"
        }
      ],
      "name": "sellJuniorToken",
      "outputs": [],
      "stateMutability": "nonpayable",
      "type": "function"
    },
    {
      "inputs": [
        {
          "internalType": "uint256",
          "name": "_amount",
          "type": "uint256"
        },
        {
          "internalType": "uint256",
          "name": "_percentageBronzeRepayment",
          "type": "uint256"
        }
      ],
      "name": "sellSeniorTokens",
      "outputs": [],
      "stateMutability": "nonpayable",
      "type": "function"
    },
    {
      "inputs": [
        {
          "internalType": "address",
          "name": "_to",
          "type": "address"
        }
      ],
      "name": "transferEarningGfiFee",
      "outputs": [],
      "stateMutability": "nonpayable",
      "type": "function"
    },
    {
      "inputs": [
        {
          "internalType": "address",
          "name": "newOwner",
          "type": "address"
        }
      ],
      "name": "transferOwnership",
      "outputs": [],
      "stateMutability": "nonpayable",
      "type": "function"
    },
    {
      "inputs": [
        {
          "internalType": "address",
          "name": "_to",
          "type": "address"
        }
      ],
      "name": "transferRepaymentFee",
      "outputs": [],
      "stateMutability": "nonpayable",
      "type": "function"
    },
    {
      "inputs": [
        {
          "internalType": "address",
          "name": "_depositor",
          "type": "address"
        },
        {
          "internalType": "uint256",
          "name": "_tokenId",
          "type": "uint256"
        }
      ],
      "name": "transferTokenToDepositor",
      "outputs": [],
      "stateMutability": "nonpayable",
      "type": "function"
    },
    {
      "inputs": [
        {
          "internalType": "uint256",
          "name": "amount",
          "type": "uint256"
        }
      ],
      "name": "usdcToFidu",
      "outputs": [
        {
          "internalType": "uint256",
          "name": "",
          "type": "uint256"
        }
      ],
      "stateMutability": "view",
      "type": "function"
    },
    {
      "inputs": [
        {
          "internalType": "address",
          "name": "_tokenAddress",
          "type": "address"
        },
        {
          "internalType": "address",
          "name": "_depositor",
          "type": "address"
        },
        {
          "internalType": "uint256",
          "name": "_tokenID",
          "type": "uint256"
        }
      ],
      "name": "validatesTokenToDepositAndGetPurchasePrice",
      "outputs": [
        {
          "internalType": "uint256",
          "name": "",
          "type": "uint256"
        }
      ],
      "stateMutability": "nonpayable",
      "type": "function"
    }
  ],
  "bytecode": "0x608060405234801561001057600080fd5b50613524806100206000396000f3fe608060405234801561001057600080fd5b50600436106101d75760003560e01c8062f5271c146101dc5780630d8b0408146101f8578063150b7a021461020b578063196b5443146102425780631b61eb67146102575780632ded89c71461026a578063358764761461027d5780633cfd1ccc146102905780634604087214610298578063523a5c29146102ab578063526536f0146102b3578063531d7dec146102c65780636713fb86146102ce578063715018a6146102e157806375af1df8146102e957806381800481146102fc5780638682caf81461030f57806387e9a939146103225780638aa9062b1461032b5780638da5cb5b1461033e5780638f2da01d14610353578063917f69fe1461036657806393af90a914610379578063a2a9ccea1461038c578063a99d36681461039f578063b067b625146103b2578063b2ee6820146103ba578063bf33e54c146103cd578063c0bb9b6f146103f0578063c5f0162314610403578063c763f2161461040b578063ca8121541461041e578063d0791bbe1461043e578063d2d9cc6414610451578063d848b05814610464578063d905e9b414610477578063e1f21c671461048a578063e7e808e61461049d578063f2fde38b146104b0578063f5a41627146104c3575b600080fd5b6101e560985481565b6040519081526020015b60405180910390f35b6101e5610206366004612f28565b6104d6565b610229610219366004612cac565b630a85bd0160e11b949350505050565b6040516001600160e01b031990911681526020016101ef565b610255610250366004612d6f565b61063f565b005b610255610265366004612f7f565b61068d565b610255610278366004612f28565b6107ff565b61025561028b366004612bd5565b610a11565b6101e5610b03565b6102556102a6366004612b62565b610b89565b6101e5610bda565b6102556102c1366004612d6f565b610c0b565b6101e5610c63565b6102556102dc366004612b62565b610d09565b610255610d5d565b6102556102f7366004612b62565b610d98565b61025561030a366004612d6f565b610e1a565b61025561031d366004612b62565b610f2a565b6101e560975481565b6101e5610339366004612f28565b610f7b565b610346610ffe565b6040516101ef9190613073565b610255610361366004612f28565b61100d565b610255610374366004612d6f565b611173565b610255610387366004612fec565b61120c565b6101e561039a36600461302b565b611320565b6101e56103ad366004612b62565b61139c565b6101e5611500565b6102556103c8366004612b62565b611510565b6103e06103db366004612d6f565b611564565b60405190151581526020016101ef565b6102556103fe366004612b62565b611615565b6101e5611666565b610255610419366004612b62565b6117a5565b61043161042c366004612b62565b6117f6565b6040516101ef91906130c4565b61025561044c366004612f5a565b6119c9565b6103e061045f366004612f28565b611b4a565b610255610472366004612d9b565b611c5a565b610255610485366004612b9c565b611d6c565b610255610498366004612c6b565b611e30565b6101e56104ab366004612c6b565b611eda565b6102556104be366004612b62565b6121e2565b6102556104d1366004612fa6565b612282565b609e5460405163463d31d760e11b81526004810183905260009182916001600160a01b0390911690638c7a63ae9060240160a06040518083038186803b15801561051f57600080fd5b505afa158015610533573d6000803e3d6000fd5b505050506040513d601f19601f820116820180604052508101906105579190612eb0565b9050600081604001519050600061057f8360800151846060015161244590919063ffffffff16565b8351604051634d02fe6f60e01b81526004810188905291925090819060009081906001600160a01b03841690634d02fe6f90602401604080518083038186803b1580156105cb57600080fd5b505afa1580156105df573d6000803e3d6000fd5b505050506040513d601f19601f820116820180604052508101906106039190612fc8565b9092509050818682101561061d5761061b8183612445565b505b6106318161062b8989612451565b90612445565b9a9950505050505050505050565b6099546001600160a01b031633146106725760405162461bcd60e51b81526004016106699061317c565b60405180910390fd5b609b54610689906001600160a01b0316838361245d565b5050565b6099546001600160a01b031633146106b75760405162461bcd60e51b81526004016106699061317c565b609b546040516370a0823160e01b815284916001600160a01b0316906370a08231906106e7903090600401613073565b60206040518083038186803b1580156106ff57600080fd5b505afa158015610713573d6000803e3d6000fd5b505050506040513d601f19601f820116820180604052508101906107379190612f41565b10156107555760405162461bcd60e51b81526004016106699061313b565b600083116107755760405162461bcd60e51b815260040161066990613290565b604051631c57762b60e31b8152600481018490526024810182905282906001600160a01b0382169063e2bbb15890604401602060405180830381600087803b1580156107c057600080fd5b505af11580156107d4573d6000803e3d6000fd5b505050506040513d601f19601f820116820180604052508101906107f89190612f41565b5050505050565b6099546001600160a01b031633146108295760405162461bcd60e51b81526004016106699061317c565b609b546040516370a0823160e01b815282916001600160a01b0316906370a0823190610859903090600401613073565b60206040518083038186803b15801561087157600080fd5b505afa158015610885573d6000803e3d6000fd5b505050506040513d601f19601f820116820180604052508101906108a99190612f41565b10156108c75760405162461bcd60e51b81526004016106699061313b565b600081116108e75760405162461bcd60e51b815260040161066990613290565b60a054604051631be5545b60e11b8152600160048201526000916001600160a01b0316906337caa8b69060240160006040518083038186803b15801561092c57600080fd5b505afa158015610940573d6000803e3d6000fd5b505050506040513d6000823e601f3d908101601f191682016040526109689190810190612dd6565b60008151811061097a5761097a6134ad565b6020908102919091010151604051631c57762b60e31b8152600481018490526001602482015290915081906001600160a01b0382169063e2bbb15890604401602060405180830381600087803b1580156109d357600080fd5b505af11580156109e7573d6000803e3d6000fd5b505050506040513d601f19601f82011682018060405250810190610a0b9190612f41565b50505050565b6000610a1d60016124b3565b90508015610a35576000805461ff0019166101001790555b610a3d612542565b610a45612571565b609b80546001600160a01b03199081166001600160a01b038b811691909117909255609c80548216898416179055609d805482168a8416179055609e80548216888416179055609f8054821687841617905560a080548216858416179055609980549091169185169190911790558015610af9576000805461ff0019169055604051600181527f7f26b83ff96e1f2b6a682f133852f6798a09c465da95921460cefb38474024989060200160405180910390a15b5050505050505050565b609b546040516370a0823160e01b81526000916001600160a01b0316906370a0823190610b34903090600401613073565b60206040518083038186803b158015610b4c57600080fd5b505afa158015610b60573d6000803e3d6000fd5b505050506040513d601f19601f82011682018060405250810190610b849190612f41565b905090565b33610b92610ffe565b6001600160a01b031614610bb85760405162461bcd60e51b815260040161066990613210565b609e80546001600160a01b0319166001600160a01b0392909216919091179055565b609c546040516370a0823160e01b81526000916001600160a01b0316906370a0823190610b34903090600401613073565b6099546001600160a01b03163314610c355760405162461bcd60e51b81526004016106699061317c565b6000908152609a6020526040902080546001600160a01b0319166001600160a01b0392909216919091179055565b600080610c84610c71611666565b61062b610c7c610b03565b61062b612598565b9050609854811015610cf55760405162461bcd60e51b815260206004820152603460248201527f5661756c742076616c7565206973206c657373207468616e2074686520726570604482015273185e5b595b9d081999594818dbdb1b1958dd195960621b6064820152608401610669565b609854610d03908290612451565b91505090565b33610d12610ffe565b6001600160a01b031614610d385760405162461bcd60e51b815260040161066990613210565b609754609c54610d55916001600160a01b0390911690839061245d565b506000609755565b33610d66610ffe565b6001600160a01b031614610d8c5760405162461bcd60e51b815260040161066990613210565b610d9660006126ab565b565b33610da1610ffe565b6001600160a01b031614610dc75760405162461bcd60e51b815260040161066990613210565b6000610dd2306126fd565b905060005b8151811015610e1557610e0383838381518110610df657610df66134ad565b6020026020010151611173565b80610e0d8161347c565b915050610dd7565b505050565b6099546001600160a01b03163314610e445760405162461bcd60e51b81526004016106699061317c565b610e4e8282611564565b610ea55760405162461bcd60e51b815260206004820152602260248201527f54686520746f6b656e206973206e6f742076616c696420746f20776974686472604482015261617760f01b6064820152608401610669565b609e54604051632142170760e11b81526001600160a01b03909116906342842e0e90610ed990309086908690600401613087565b600060405180830381600087803b158015610ef357600080fd5b505af1158015610f07573d6000803e3d6000fd5b505050600091825250609a6020526040902080546001600160a01b031916905550565b33610f33610ffe565b6001600160a01b031614610f595760405162461bcd60e51b815260040161066990613210565b609f80546001600160a01b0319166001600160a01b0392909216919091179055565b609f5460405163855cb21b60e01b8152600481018390526000916001600160a01b03169063855cb21b9060240160206040518083038186803b158015610fc057600080fd5b505afa158015610fd4573d6000803e3d6000fd5b505050506040513d601f19601f82011682018060405250810190610ff89190612f41565b92915050565b6065546001600160a01b031690565b6099546001600160a01b031633146110375760405162461bcd60e51b81526004016106699061317c565b609b546040516370a0823160e01b815282916001600160a01b0316906370a0823190611067903090600401613073565b60206040518083038186803b15801561107f57600080fd5b505afa158015611093573d6000803e3d6000fd5b505050506040513d601f19601f820116820180604052508101906110b79190612f41565b10156110d55760405162461bcd60e51b81526004016106699061313b565b600081116110f55760405162461bcd60e51b815260040161066990613290565b609f5460405163b6b55f2560e01b8152600481018390526001600160a01b039091169063b6b55f2590602401602060405180830381600087803b15801561113b57600080fd5b505af115801561114f573d6000803e3d6000fd5b505050506040513d601f19601f820116820180604052508101906106899190612f41565b3361117c610ffe565b6001600160a01b0316146111a25760405162461bcd60e51b815260040161066990613210565b609e54604051632142170760e11b81526001600160a01b03909116906342842e0e906111d690309086908690600401613087565b600060405180830381600087803b1580156111f057600080fd5b505af1158015611204573d6000803e3d6000fd5b505050505050565b6099546001600160a01b031633146112365760405162461bcd60e51b81526004016106699061317c565b600083116112565760405162461bcd60e51b815260040161066990613290565b604051630441a3e760e41b81526004810185905260248101849052829060009081906001600160a01b0384169063441a3e70906044016040805180830381600087803b1580156112a557600080fd5b505af11580156112b9573d6000803e3d6000fd5b505050506040513d601f19601f820116820180604052508101906112dd9190612fc8565b9092509050600061130360646112fd876112f78787612445565b90612887565b90612893565b6098549091506113139082612445565b6098555050505050505050565b6099546000906001600160a01b0316331461134d5760405162461bcd60e51b81526004016106699061317c565b6000611371846112fd61136a609754611364610bda565b90612451565b8890612887565b9050600061138460646112fd8487612887565b90506113908282612451565b925050505b9392505050565b609e546040516370a0823160e01b815260009182916001600160a01b03909116906370a08231906113d1903090600401613073565b60206040518083038186803b1580156113e957600080fd5b505afa1580156113fd573d6000803e3d6000fd5b505050506040513d601f19601f820116820180604052508101906114219190612f41565b90506000805b828110156114f857609e54604051632f745c5960e01b81526000916001600160a01b031690632f745c599061146290309086906004016130ab565b60206040518083038186803b15801561147a57600080fd5b505afa15801561148e573d6000803e3d6000fd5b505050506040513d601f19601f820116820180604052508101906114b29190612f41565b6000818152609a60205260409020549091506001600160a01b03878116911614156114e5576114e26001846132f5565b92505b50806114f08161347c565b915050611427565b509392505050565b6000610b84609854611364610b03565b33611519610ffe565b6001600160a01b03161461153f5760405162461bcd60e51b815260040161066990613210565b609854609b5461155c916001600160a01b0390911690839061245d565b506000609855565b6000818152609a60205260408120546001600160a01b0384811691161480156113955750609e546040516331a9108f60e11b81526004810184905230916001600160a01b031690636352211e9060240160206040518083038186803b1580156115cc57600080fd5b505afa1580156115e0573d6000803e3d6000fd5b505050506040513d601f19601f820116820180604052508101906116049190612b7f565b6001600160a01b0316149392505050565b3361161e610ffe565b6001600160a01b0316146116445760405162461bcd60e51b815260040161066990613210565b60a080546001600160a01b0319166001600160a01b0392909216919091179055565b609e546040516370a0823160e01b8152600091829182916001600160a01b0316906370a082319061169b903090600401613073565b60206040518083038186803b1580156116b357600080fd5b505afa1580156116c7573d6000803e3d6000fd5b505050506040513d601f19601f820116820180604052508101906116eb9190612f41565b905060005b8181101561179d57609e54604051632f745c5960e01b815261178991611782916001600160a01b0390911690632f745c599061173290309087906004016130ab565b60206040518083038186803b15801561174a57600080fd5b505afa15801561175e573d6000803e3d6000fd5b505050506040513d601f19601f820116820180604052508101906102069190612f41565b8490612445565b9250806117958161347c565b9150506116f0565b509092915050565b336117ae610ffe565b6001600160a01b0316146117d45760405162461bcd60e51b815260040161066990613210565b609980546001600160a01b0319166001600160a01b0392909216919091179055565b609e546040516370a0823160e01b81526060916000916001600160a01b03909116906370a082319061182c903090600401613073565b60206040518083038186803b15801561184457600080fd5b505afa158015611858573d6000803e3d6000fd5b505050506040513d601f19601f8201168201806040525081019061187c9190612f41565b905060006118898461139c565b6001600160401b038111156118a0576118a06134c3565b6040519080825280602002602001820160405280156118c9578160200160208202803683370190505b5090506000805b838110156119bf57609e54604051632f745c5960e01b81526000916001600160a01b031690632f745c599061190b90309086906004016130ab565b60206040518083038186803b15801561192357600080fd5b505afa158015611937573d6000803e3d6000fd5b505050506040513d601f19601f8201168201806040525081019061195b9190612f41565b6000818152609a60205260409020549091506001600160a01b03888116911614156119ac5780848481518110611993576119936134ad565b60209081029190910101526119a96001846132f5565b92505b50806119b78161347c565b9150506118d0565b5090949350505050565b6099546001600160a01b031633146119f35760405162461bcd60e51b81526004016106699061317c565b609b546040516370a0823160e01b815283916001600160a01b0316906370a0823190611a23903090600401613073565b60206040518083038186803b158015611a3b57600080fd5b505afa158015611a4f573d6000803e3d6000fd5b505050506040513d601f19601f82011682018060405250810190611a739190612f41565b1015611a915760405162461bcd60e51b81526004016106699061313b565b60008211611ab15760405162461bcd60e51b815260040161066990613290565b609f5460405163b6b55f2560e01b8152600481018490526000916001600160a01b03169063b6b55f2590602401602060405180830381600087803b158015611af857600080fd5b505af1158015611b0c573d6000803e3d6000fd5b505050506040513d601f19601f82011682018060405250810190611b309190612f41565b609d54909150610e15906001600160a01b0316838361245d565b609e5460405163463d31d760e11b81526004810183905260009182916001600160a01b0390911690638c7a63ae9060240160a06040518083038186803b158015611b9357600080fd5b505afa158015611ba7573d6000803e3d6000fd5b505050506040513d601f19601f82011682018060405250810190611bcb9190612eb0565b8051609e546040516316b5b4db60e31b815292935090916001600160a01b039091169063b5ada6d890611c02908490600401613073565b60206040518083038186803b158015611c1a57600080fd5b505afa158015611c2e573d6000803e3d6000fd5b505050506040513d601f19601f82011682018060405250810190611c529190612e8e565b949350505050565b6099546001600160a01b03163314611c845760405162461bcd60e51b81526004016106699061317c565b609754611c8f610bda565b1015611d005760405162461bcd60e51b815260206004820152603a60248201527f5468652047464920696e207468652064656c6567616379206973206c657373206044820152791d1a185b881d1a194811d192481999594818dbdb1b1958dd195960321b6064820152608401610669565b6000611d1e836112fd611d17609754611364610bda565b8790612887565b90506000611d3160646112fd8486612887565b9050611d5486611d418484612451565b609c546001600160a01b0316919061245d565b609754611d619082612445565b609755505050505050565b33611d75610ffe565b6001600160a01b031614611d9b5760405162461bcd60e51b815260040161066990613210565b6040516370a0823160e01b81526000906001600160a01b038416906370a0823190611dca903090600401613073565b60206040518083038186803b158015611de257600080fd5b505afa158015611df6573d6000803e3d6000fd5b505050506040513d601f19601f82011682018060405250810190611e1a9190612f41565b9050610e156001600160a01b038416838361245d565b6099546001600160a01b03163314611e5a5760405162461bcd60e51b81526004016106699061317c565b60405163095ea7b360e01b81526001600160a01b0384169063095ea7b390611e8890859085906004016130ab565b602060405180830381600087803b158015611ea257600080fd5b505af1158015611eb6573d6000803e3d6000fd5b505050506040513d601f19601f82011682018060405250810190610a0b9190612e8e565b6099546000906001600160a01b03163314611f075760405162461bcd60e51b81526004016106699061317c565b609e546001600160a01b03858116911614611f5f5760405162461bcd60e51b81526020600482015260186024820152772737ba1023b7b6323334b731b4102837b7b6102a37b5b2b760411b6044820152606401610669565b611f6882611b4a565b1515600114611fac5760405162461bcd60e51b815260206004820152601060248201526f139bdd0818481d985b1a59081c1bdbdb60821b6044820152606401610669565b6040516331a9108f60e11b8152600481018390526001600160a01b038085169190861690636352211e9060240160206040518083038186803b158015611ff157600080fd5b505afa158015612005573d6000803e3d6000fd5b505050506040513d601f19601f820116820180604052508101906120299190612b7f565b6001600160a01b03161461207e5760405162461bcd60e51b815260206004820152601c60248201527b2ab9b2b9103237b2b9903737ba1037bbb7103a3434b9903a37b5b2b760211b6044820152606401610669565b609e5460405163020604bf60e21b81526004810184905233916001600160a01b03169063081812fc9060240160206040518083038186803b1580156120c257600080fd5b505afa1580156120d6573d6000803e3d6000fd5b505050506040513d601f19601f820116820180604052508101906120fa9190612b7f565b6001600160a01b0316146121675760405162461bcd60e51b815260206004820152602e60248201527f5573657220686173206e6f7420617070726f76656420746865207661756c742060448201526d3337b9103a3434b9903a37b5b2b760911b6064820152608401610669565b6000612172836104d6565b905060008111611c525760405162461bcd60e51b815260206004820152603560248201527f54686520616d6f756e74206f6620737461626c6520636f696e20746f206765746044820152740206973206e6f74206c6172676572207468616e203605c1b6064820152608401610669565b336121eb610ffe565b6001600160a01b0316146122115760405162461bcd60e51b815260040161066990613210565b6001600160a01b0381166122765760405162461bcd60e51b815260206004820152602660248201527f4f776e61626c653a206e6577206f776e657220697320746865207a65726f206160448201526564647265737360d01b6064820152608401610669565b61227f816126ab565b50565b6099546001600160a01b031633146122ac5760405162461bcd60e51b81526004016106699061317c565b609d546040516370a0823160e01b815283916001600160a01b0316906370a08231906122dc903090600401613073565b60206040518083038186803b1580156122f457600080fd5b505afa158015612308573d6000803e3d6000fd5b505050506040513d601f19601f8201168201806040525081019061232c9190612f41565b101561237a5760405162461bcd60e51b815260206004820152601f60248201527f5661756c742068617320696e737566666963656e74206669647520636f696e006044820152606401610669565b6000821161239a5760405162461bcd60e51b815260040161066990613290565b609f54604051632c018e8960e11b8152600481018490526000916001600160a01b0316906358031d1290602401602060405180830381600087803b1580156123e157600080fd5b505af11580156123f5573d6000803e3d6000fd5b505050506040513d601f19601f820116820180604052508101906124199190612f41565b9050600061242c60646112fd8486612887565b60985490915061243c9082612445565b60985550505050565b600061139582846132f5565b60006113958284613439565b610e158363a9059cbb60e01b848460405160240161247c9291906130ab565b60408051601f198184030181529190526020810180516001600160e01b03166001600160e01b03199093169290921790915261289f565b60008054610100900460ff1615612501578160ff1660011480156124dd57506124db30612971565b155b6124f95760405162461bcd60e51b8152600401610669906131c2565b506000919050565b60005460ff8084169116106125285760405162461bcd60e51b8152600401610669906131c2565b506000805460ff191660ff92909216919091179055600190565b600054610100900460ff166125695760405162461bcd60e51b815260040161066990613245565b610d96612980565b600054610100900460ff16610d965760405162461bcd60e51b815260040161066990613245565b6000610b846126a66125a86129b0565b609f5460408051638726972960e01b815290516112fd926001600160a01b0316916387269729916004808301926020929190829003018186803b1580156125ee57600080fd5b505afa158015612602573d6000803e3d6000fd5b505050506040513d601f19601f820116820180604052508101906126269190612f41565b609d546040516370a0823160e01b81526001600160a01b03909116906370a0823190612656903090600401613073565b60206040518083038186803b15801561266e57600080fd5b505afa158015612682573d6000803e3d6000fd5b505050506040513d601f19601f820116820180604052508101906112f79190612f41565b6129be565b606580546001600160a01b038381166001600160a01b0319831681179093556040519116919082907f8be0079c531659141344cd1fd0a4f28419497f9722a3daafe3b4186f6b6457e090600090a35050565b609e546040516370a0823160e01b81526060916000916001600160a01b03909116906370a0823190612733908690600401613073565b60206040518083038186803b15801561274b57600080fd5b505afa15801561275f573d6000803e3d6000fd5b505050506040513d601f19601f820116820180604052508101906127839190612f41565b90506000816001600160401b0381111561279f5761279f6134c3565b6040519080825280602002602001820160405280156127c8578160200160208202803683370190505b50905060005b828110156114f857609e54604051632f745c5960e01b81526001600160a01b0390911690632f745c599061280890889085906004016130ab565b60206040518083038186803b15801561282057600080fd5b505afa158015612834573d6000803e3d6000fd5b505050506040513d601f19601f820116820180604052508101906128589190612f41565b82828151811061286a5761286a6134ad565b60209081029190910101528061287f8161347c565b9150506127ce565b6000611395828461341a565b6000611395828461330d565b60006128f4826040518060400160405280602081526020017f5361666545524332303a206c6f772d6c6576656c2063616c6c206661696c6564815250856001600160a01b03166129dd9092919063ffffffff16565b805190915015610e1557808060200190518101906129129190612e8e565b610e155760405162461bcd60e51b815260206004820152602a60248201527f5361666545524332303a204552433230206f7065726174696f6e20646964206e6044820152691bdd081cdd58d8d9595960b21b6064820152608401610669565b6001600160a01b03163b151590565b600054610100900460ff166129a75760405162461bcd60e51b815260040161066990613245565b610d96336126ab565b6000610b846012600a613372565b6000610ff86129d66129ce6129ec565b6112fd6129b0565b8390612893565b6060611c5284846000856129fa565b6000610b846006600a613372565b606082471015612a5b5760405162461bcd60e51b815260206004820152602660248201527f416464726573733a20696e73756666696369656e742062616c616e636520666f6044820152651c8818d85b1b60d21b6064820152608401610669565b612a6485612971565b612ab05760405162461bcd60e51b815260206004820152601d60248201527f416464726573733a2063616c6c20746f206e6f6e2d636f6e74726163740000006044820152606401610669565b600080866001600160a01b03168587604051612acc9190613057565b60006040518083038185875af1925050503d8060008114612b09576040519150601f19603f3d011682016040523d82523d6000602084013e612b0e565b606091505b5091509150612b1e828286612b29565b979650505050505050565b60608315612b38575081611395565b825115612b485782518084602001fd5b8160405162461bcd60e51b81526004016106699190613108565b600060208284031215612b7457600080fd5b8135611395816134d9565b600060208284031215612b9157600080fd5b8151611395816134d9565b60008060408385031215612baf57600080fd5b8235612bba816134d9565b91506020830135612bca816134d9565b809150509250929050565b600080600080600080600060e0888a031215612bf057600080fd5b8735612bfb816134d9565b96506020880135612c0b816134d9565b95506040880135612c1b816134d9565b94506060880135612c2b816134d9565b93506080880135612c3b816134d9565b925060a0880135612c4b816134d9565b915060c0880135612c5b816134d9565b8091505092959891949750929550565b600080600060608486031215612c8057600080fd5b8335612c8b816134d9565b92506020840135612c9b816134d9565b929592945050506040919091013590565b60008060008060808587031215612cc257600080fd5b8435612ccd816134d9565b9350602085810135612cde816134d9565b93506040860135925060608601356001600160401b0380821115612d0157600080fd5b818801915088601f830112612d1557600080fd5b813581811115612d2757612d276134c3565b612d39601f8201601f191685016132c5565b91508082528984828501011115612d4f57600080fd5b808484018584013760008482840101525080935050505092959194509250565b60008060408385031215612d8257600080fd5b8235612d8d816134d9565b946020939093013593505050565b60008060008060808587031215612db157600080fd5b8435612dbc816134d9565b966020860135965060408601359560600135945092505050565b60006020808385031215612de957600080fd5b82516001600160401b0380821115612e0057600080fd5b818501915085601f830112612e1457600080fd5b815181811115612e2657612e266134c3565b8060051b9150612e378483016132c5565b8181528481019084860184860187018a1015612e5257600080fd5b600095505b83861015612e815780519450612e6c856134d9565b84835260019590950194918601918601612e57565b5098975050505050505050565b600060208284031215612ea057600080fd5b8151801515811461139557600080fd5b600060a08284031215612ec257600080fd5b60405160a081016001600160401b0381118282101715612ee457612ee46134c3565b6040528251612ef2816134d9565b80825250602083015160208201526040830151604082015260608301516060820152608083015160808201528091505092915050565b600060208284031215612f3a57600080fd5b5035919050565b600060208284031215612f5357600080fd5b5051919050565b60008060408385031215612f6d57600080fd5b823591506020830135612bca816134d9565b600080600060608486031215612f9457600080fd5b833592506020840135612c9b816134d9565b60008060408385031215612fb957600080fd5b50508035926020909101359150565b60008060408385031215612fdb57600080fd5b505080516020909101519092909150565b6000806000806080858703121561300257600080fd5b8435935060208501359250604085013561301b816134d9565b9396929550929360600135925050565b60008060006060848603121561304057600080fd5b505081359360208301359350604090920135919050565b60008251613069818460208701613450565b9190910192915050565b6001600160a01b0391909116815260200190565b6001600160a01b039384168152919092166020820152604081019190915260600190565b6001600160a01b03929092168252602082015260400190565b6020808252825182820181905260009190848201906040850190845b818110156130fc578351835292840192918401916001016130e0565b50909695505050505050565b6020815260008251806020840152613127816040850160208701613450565b601f01601f19169190910160400192915050565b60208082526021908201527f5661756c742068617320696e737566666963656e7420737461626c6520636f696040820152603760f91b606082015260800190565b60208082526026908201527f5468652066756e6374696f6e206d7573742062652063616c6c65642066726f6d604082015265081d985d5b1d60d21b606082015260800190565b6020808252602e908201527f496e697469616c697a61626c653a20636f6e747261637420697320616c72656160408201526d191e481a5b9a5d1a585b1a5e995960921b606082015260800190565b6020808252818101527f4f776e61626c653a2063616c6c6572206973206e6f7420746865206f776e6572604082015260600190565b6020808252602b908201527f496e697469616c697a61626c653a20636f6e7472616374206973206e6f74206960408201526a6e697469616c697a696e6760a81b606082015260800190565b6020808252601b908201527a4d757374206465706f736974206d6f7265207468616e207a65726f60281b604082015260600190565b604051601f8201601f191681016001600160401b03811182821017156132ed576132ed6134c3565b604052919050565b6000821982111561330857613308613497565b500190565b60008261332a57634e487b7160e01b600052601260045260246000fd5b500490565b600181815b8085111561336a57816000190482111561335057613350613497565b8085161561335d57918102915b93841c9390800290613334565b509250929050565b6000611395838360008261338857506001610ff8565b8161339557506000610ff8565b81600181146133ab57600281146133b5576133d1565b6001915050610ff8565b60ff8411156133c6576133c6613497565b50506001821b610ff8565b5060208310610133831016604e8410600b84101617156133f4575081810a610ff8565b6133fe838361332f565b806000190482111561341257613412613497565b029392505050565b600081600019048311821515161561343457613434613497565b500290565b60008282101561344b5761344b613497565b500390565b60005b8381101561346b578181015183820152602001613453565b83811115610a0b5750506000910152565b600060001982141561349057613490613497565b5060010190565b634e487b7160e01b600052601160045260246000fd5b634e487b7160e01b600052603260045260246000fd5b634e487b7160e01b600052604160045260246000fd5b6001600160a01b038116811461227f57600080fdfea2646970667358221220c30dd996f3c83891f34107590b785a8681c63e280f2e79a601448e44f349f10b64736f6c63430008070033",
  "linkReferences": {},
  "deployedLinkReferences": {}
}