{
  "address": "0x976e6c56Ac3c4E9555E0291649FF27EC0579E263",
  "abi": [
    {
      "inputs": [
        {
          "internalType": "address",
          "name": "_usdcCoinAddress",
          "type": "address"
        },
        {
          "internalType": "address",
          "name": "_fiduCoinAddress",
          "type": "address"
        },
        {
          "internalType": "address",
          "name": "_gfiCoinAddress",
          "type": "address"
        },
        {
          "internalType": "address",
          "name": "_poolTokenAddress",
          "type": "address"
        },
        {
          "internalType": "address",
          "name": "_seniorPoolAddress",
          "type": "address"
        },
        {
          "internalType": "address",
          "name": "_coreVaultAddress",
          "type": "address"
        }
      ],
      "stateMutability": "nonpayable",
      "type": "constructor"
    },
    {
      "anonymous": false,
      "inputs": [
        {
          "indexed": true,
          "internalType": "address",
          "name": "previousOwner",
          "type": "address"
        },
        {
          "indexed": true,
          "internalType": "address",
          "name": "newOwner",
          "type": "address"
        }
      ],
      "name": "OwnershipTransferred",
      "type": "event"
    },
    {
      "inputs": [
        {
          "internalType": "address",
          "name": "_tokenAddress",
          "type": "address"
        },
        {
          "internalType": "address",
          "name": "_account",
          "type": "address"
        },
        {
          "internalType": "uint256",
          "name": "_amount",
          "type": "uint256"
        }
      ],
      "name": "approve",
      "outputs": [],
      "stateMutability": "nonpayable",
      "type": "function"
    },
    {
      "inputs": [
        {
          "internalType": "address",
          "name": "_poolToken",
          "type": "address"
        }
      ],
      "name": "changePoolTokenAddress",
      "outputs": [],
      "stateMutability": "nonpayable",
      "type": "function"
    },
    {
      "inputs": [
        {
          "internalType": "address",
          "name": "_seniorPool",
          "type": "address"
        }
      ],
      "name": "changeSeniorPoolAddress",
      "outputs": [],
      "stateMutability": "nonpayable",
      "type": "function"
    },
    {
      "inputs": [
        {
          "internalType": "address",
          "name": "_vaultAddress",
          "type": "address"
        }
      ],
      "name": "changeVaultAddress",
      "outputs": [],
      "stateMutability": "nonpayable",
      "type": "function"
    },
    {
      "inputs": [
        {
          "internalType": "address",
          "name": "_rewardee",
          "type": "address"
        },
        {
          "internalType": "uint256",
          "name": "_amount",
          "type": "uint256"
        },
        {
          "internalType": "uint256",
          "name": "_totalSupply",
          "type": "uint256"
        },
        {
          "internalType": "uint256",
          "name": "_percentageFee",
          "type": "uint256"
        }
      ],
      "name": "claimReward",
      "outputs": [],
      "stateMutability": "nonpayable",
      "type": "function"
    },
    {
      "inputs": [],
      "name": "destroy",
      "outputs": [],
      "stateMutability": "nonpayable",
      "type": "function"
    },
    {
      "inputs": [],
      "name": "earningGfiFee",
      "outputs": [
        {
          "internalType": "uint256",
          "name": "",
          "type": "uint256"
        }
      ],
      "stateMutability": "view",
      "type": "function"
    },
    {
      "inputs": [],
      "name": "getGFIBalance",
      "outputs": [
        {
          "internalType": "uint256",
          "name": "",
          "type": "uint256"
        }
      ],
      "stateMutability": "view",
      "type": "function"
    },
    {
      "inputs": [],
      "name": "getGoldfinchDelegacyBalanceInUSDC",
      "outputs": [
        {
          "internalType": "uint256",
          "name": "",
          "type": "uint256"
        }
      ],
      "stateMutability": "view",
      "type": "function"
    },
    {
      "inputs": [
        {
          "internalType": "uint256",
          "name": "_tokenID",
          "type": "uint256"
        }
      ],
      "name": "getJuniorTokenValue",
      "outputs": [
        {
          "internalType": "uint256",
          "name": "",
          "type": "uint256"
        }
      ],
      "stateMutability": "view",
      "type": "function"
    },
    {
      "inputs": [],
      "name": "getUSDCBalance",
      "outputs": [
        {
          "internalType": "uint256",
          "name": "",
          "type": "uint256"
        }
      ],
      "stateMutability": "view",
      "type": "function"
    },
    {
      "inputs": [
        {
          "internalType": "uint256",
          "name": "_tokenID",
          "type": "uint256"
        }
      ],
      "name": "isValidPool",
      "outputs": [
        {
          "internalType": "bool",
          "name": "",
          "type": "bool"
        }
      ],
      "stateMutability": "view",
      "type": "function"
    },
    {
      "inputs": [
        {
          "internalType": "address",
          "name": "_toAddress",
          "type": "address"
        }
      ],
      "name": "migrateAllGoldfinchPoolTokens",
      "outputs": [],
      "stateMutability": "nonpayable",
      "type": "function"
    },
    {
      "inputs": [
        {
          "internalType": "address",
          "name": "_tokenAddress",
          "type": "address"
        },
        {
          "internalType": "address",
          "name": "_to",
          "type": "address"
        }
      ],
      "name": "migrateERC20",
      "outputs": [],
      "stateMutability": "nonpayable",
      "type": "function"
    },
    {
      "inputs": [
        {
          "internalType": "address",
          "name": "_toAddress",
          "type": "address"
        },
        {
          "internalType": "uint256",
          "name": "_tokenId",
          "type": "uint256"
        }
      ],
      "name": "migrateGoldfinchPoolTokens",
      "outputs": [],
      "stateMutability": "nonpayable",
      "type": "function"
    },
    {
      "inputs": [
        {
          "internalType": "address",
          "name": "",
          "type": "address"
        },
        {
          "internalType": "address",
          "name": "",
          "type": "address"
        },
        {
          "internalType": "uint256",
          "name": "",
          "type": "uint256"
        },
        {
          "internalType": "bytes",
          "name": "",
          "type": "bytes"
        }
      ],
      "name": "onERC721Received",
      "outputs": [
        {
          "internalType": "bytes4",
          "name": "",
          "type": "bytes4"
        }
      ],
      "stateMutability": "nonpayable",
      "type": "function"
    },
    {
      "inputs": [],
      "name": "owner",
      "outputs": [
        {
          "internalType": "address",
          "name": "",
          "type": "address"
        }
      ],
      "stateMutability": "view",
      "type": "function"
    },
    {
      "inputs": [
        {
          "internalType": "address",
          "name": "_to",
          "type": "address"
        },
        {
          "internalType": "uint256",
          "name": "_amount",
          "type": "uint256"
        }
      ],
      "name": "payUsdc",
      "outputs": [],
      "stateMutability": "nonpayable",
      "type": "function"
    },
    {
      "inputs": [
        {
          "internalType": "uint256",
          "name": "_amount",
          "type": "uint256"
        },
        {
          "internalType": "address",
          "name": "_poolAddress",
          "type": "address"
        },
        {
          "internalType": "uint256",
          "name": "_tranche",
          "type": "uint256"
        }
      ],
      "name": "purchaseJuniorToken",
      "outputs": [],
      "stateMutability": "nonpayable",
      "type": "function"
    },
    {
      "inputs": [
        {
          "internalType": "uint256",
          "name": "_amount",
          "type": "uint256"
        }
      ],
      "name": "purchaseSeniorTokens",
      "outputs": [],
      "stateMutability": "nonpayable",
      "type": "function"
    },
    {
      "inputs": [],
      "name": "renounceOwnership",
      "outputs": [],
      "stateMutability": "nonpayable",
      "type": "function"
    },
    {
      "inputs": [],
      "name": "repaymentFee",
      "outputs": [
        {
          "internalType": "uint256",
          "name": "",
          "type": "uint256"
        }
      ],
      "stateMutability": "view",
      "type": "function"
    },
    {
      "inputs": [
        {
          "internalType": "uint256",
          "name": "_tokenId",
          "type": "uint256"
        },
        {
          "internalType": "uint256",
          "name": "_amount",
          "type": "uint256"
        },
        {
          "internalType": "address",
          "name": "_poolAddress",
          "type": "address"
        },
        {
          "internalType": "uint256",
          "name": "_percentageBronzeRepayment",
          "type": "uint256"
        }
      ],
      "name": "sellJuniorToken",
      "outputs": [],
      "stateMutability": "nonpayable",
      "type": "function"
    },
    {
      "inputs": [
        {
          "internalType": "uint256",
          "name": "_amount",
          "type": "uint256"
        },
        {
          "internalType": "uint256",
          "name": "_percentageBronzeRepayment",
          "type": "uint256"
        }
      ],
      "name": "sellSeniorTokens",
      "outputs": [],
      "stateMutability": "nonpayable",
      "type": "function"
    },
    {
      "inputs": [
        {
          "internalType": "address",
          "name": "_to",
          "type": "address"
        }
      ],
      "name": "transferEarningGfiFee",
      "outputs": [],
      "stateMutability": "nonpayable",
      "type": "function"
    },
    {
      "inputs": [
        {
          "internalType": "address",
          "name": "newOwner",
          "type": "address"
        }
      ],
      "name": "transferOwnership",
      "outputs": [],
      "stateMutability": "nonpayable",
      "type": "function"
    },
    {
      "inputs": [
        {
          "internalType": "address",
          "name": "_to",
          "type": "address"
        }
      ],
      "name": "transferRepaymentFee",
      "outputs": [],
      "stateMutability": "nonpayable",
      "type": "function"
    },
    {
      "inputs": [
        {
          "internalType": "address",
          "name": "_tokenAddress",
          "type": "address"
        },
        {
          "internalType": "address",
          "name": "_depositor",
          "type": "address"
        },
        {
          "internalType": "uint256",
          "name": "_tokenID",
          "type": "uint256"
        }
      ],
      "name": "validatesTokenToDepositAndGetPurchasePrice",
      "outputs": [
        {
          "internalType": "uint256",
          "name": "",
          "type": "uint256"
        }
      ],
      "stateMutability": "nonpayable",
      "type": "function"
    }
  ],
  "transactionHash": "0x090154b8bb795c4f626a1a3ce4856553d024543ca6bb8b02a580e243f8bf128b",
  "args": [
    "0x67F3693E36F7a0b4E88b7fDD7227e26188913406",
    "0x539B954C3bD20933609639cA1a1bAFF7F038884e",
    "0x826d71d85Ac39568755Bb2a98e7101831502D6C2",
    "0xccCe42C507742fdc93277e5ec44965F41Cb8B1bD",
    "0x2d6D7086f61Dc78eeDFEa5bBBf7aE806A8517706",
    "0x0000000000000000000000000000000000000000"
  ],
  "numDeployments": 1,
  "solcInputHash": "db08b62b14234d1de3753dca8e7e1a75",
  "bytecode": "0x6080604052600060075560006008553480156200001b57600080fd5b5060405162003165380380620031658339810160408190526200003e9162000128565b6200004933620000bb565b600180546001600160a01b03199081166001600160a01b03988916179091556002805482169588169590951790945560038054851695871695909517909455600480548416928616929092179091556005805483169185169190911790556006805490911691909216179055620001a9565b600080546001600160a01b038381166001600160a01b0319831681178455604051919092169283917f8be0079c531659141344cd1fd0a4f28419497f9722a3daafe3b4186f6b6457e09190a35050565b80516001600160a01b03811681146200012357600080fd5b919050565b60008060008060008060c087890312156200014257600080fd5b6200014d876200010b565b95506200015d602088016200010b565b94506200016d604088016200010b565b93506200017d606088016200010b565b92506200018d608088016200010b565b91506200019d60a088016200010b565b90509295509295509295565b612fac80620001b96000396000f3fe608060405234801561001057600080fd5b50600436106101c35760003560e01c806387e9a939116100f9578063d2d9cc6411610097578063e1f21c6711610071578063e1f21c67146103c7578063e7e808e6146103da578063f2fde38b146103ed578063f5a416271461040057600080fd5b8063d2d9cc641461037e578063d848b058146103a1578063d905e9b4146103b457600080fd5b8063917f69fe116100d3578063917f69fe1461033257806393af90a914610345578063b2ee682014610358578063c763f2161461036b57600080fd5b806387e9a939146102fb5780638da5cb5b146103045780638f2da01d1461031f57600080fd5b8063523a5c2911610166578063715018a611610140578063715018a6146102c557806375af1df8146102cd57806383197ef0146102e05780638682caf8146102e857600080fd5b8063523a5c29146102a2578063531d7dec146102aa5780636713fb86146102b257600080fd5b8063196b5443116101a2578063196b54431461025f5780631b61eb67146102745780633cfd1ccc14610287578063460408721461028f57600080fd5b8062f5271c146101c85780630d8b0408146101e4578063150b7a02146101f7575b600080fd5b6101d160085481565b6040519081526020015b60405180910390f35b6101d16101f2366004612bff565b610413565b61022e610205366004612a39565b7f150b7a0200000000000000000000000000000000000000000000000000000000949350505050565b6040517fffffffff0000000000000000000000000000000000000000000000000000000090911681526020016101db565b61027261026d366004612afd565b610593565b005b610272610282366004612c31565b61061c565b6101d161084b565b61027261029d366004612985565b6108cd565b6101d1610944565b6101d1610975565b6102726102c0366004612985565b610a24565b610272610a91565b6102726102db366004612985565b610ae5565b610272610b80565b6102726102f6366004612985565b610ef8565b6101d160075481565b6000546040516001600160a01b0390911681526020016101db565b61027261032d366004612bff565b610f6f565b610272610340366004612afd565b611192565b610272610353366004612c9e565b611264565b610272610366366004612985565b6114c9565b610272610379366004612985565b611536565b61039161038c366004612bff565b6115ad565b60405190151581526020016101db565b6102726103af366004612b29565b6116d3565b6102726103c23660046129bf565b61182d565b6102726103d53660046129f8565b611905565b6101d16103e83660046129f8565b611a0f565b6102726103fb366004612985565b611ead565b61027261040e366004612c58565b611f7d565b6004805460405163463d31d760e11b815291820183905260009182916001600160a01b031690638c7a63ae9060240160a06040518083038186803b15801561045a57600080fd5b505afa15801561046e573d6000803e3d6000fd5b505050506040513d601f19601f820116820180604052508101906104929190612b86565b905060008160400151905060006104ba836080015184606001516121c390919063ffffffff16565b83516040517f4d02fe6f0000000000000000000000000000000000000000000000000000000081526004810188905291925090819060009081906001600160a01b03841690634d02fe6f90602401604080518083038186803b15801561051f57600080fd5b505afa158015610533573d6000803e3d6000fd5b505050506040513d601f19601f820116820180604052508101906105579190612c7a565b909250905081868210156105715761056f81836121c3565b505b6105858161057f89896121d8565b906121c3565b9a9950505050505050505050565b6006546001600160a01b031633146106015760405162461bcd60e51b815260206004820152602660248201527f5468652066756e6374696f6e206d7573742062652063616c6c65642066726f6d604482015265081d985d5b1d60d21b60648201526084015b60405180910390fd5b600154610618906001600160a01b031683836121e4565b5050565b6006546001600160a01b031633146106855760405162461bcd60e51b815260206004820152602660248201527f5468652066756e6374696f6e206d7573742062652063616c6c65642066726f6d604482015265081d985d5b1d60d21b60648201526084016105f8565b6001546040516370a0823160e01b815230600482015284916001600160a01b0316906370a082319060240160206040518083038186803b1580156106c857600080fd5b505afa1580156106dc573d6000803e3d6000fd5b505050506040513d601f19601f820116820180604052508101906107009190612c18565b10156107585760405162461bcd60e51b815260206004820152602160248201527f5661756c742068617320696e737566666963656e7420737461626c6520636f696044820152603760f91b60648201526084016105f8565b600083116107a85760405162461bcd60e51b815260206004820152601b60248201527f4d757374206465706f736974206d6f7265207468616e207a65726f000000000060448201526064016105f8565b6040517fe2bbb158000000000000000000000000000000000000000000000000000000008152600481018490526024810182905282906001600160a01b0382169063e2bbb15890604401602060405180830381600087803b15801561080c57600080fd5b505af1158015610820573d6000803e3d6000fd5b505050506040513d601f19601f820116820180604052508101906108449190612c18565b5050505050565b6001546040516370a0823160e01b81523060048201526000916001600160a01b0316906370a08231906024015b60206040518083038186803b15801561089057600080fd5b505afa1580156108a4573d6000803e3d6000fd5b505050506040513d601f19601f820116820180604052508101906108c89190612c18565b905090565b6000546001600160a01b031633146109155760405162461bcd60e51b81526020600482018190526024820152600080516020612f5783398151915260448201526064016105f8565b6004805473ffffffffffffffffffffffffffffffffffffffff19166001600160a01b0392909216919091179055565b6002546040516370a0823160e01b81523060048201526000916001600160a01b0316906370a0823190602401610878565b600080610996610983612264565b61057f61098e61084b565b61057f6123a4565b9050600854811015610a105760405162461bcd60e51b815260206004820152603460248201527f5661756c742076616c7565206973206c657373207468616e207468652072657060448201527f61796d656e742066656520636f6c6c656374656400000000000000000000000060648201526084016105f8565b600854610a1e9082906121d8565b91505090565b6000546001600160a01b03163314610a6c5760405162461bcd60e51b81526020600482018190526024820152600080516020612f5783398151915260448201526064016105f8565b600754600254610a89916001600160a01b039091169083906121e4565b506000600755565b6000546001600160a01b03163314610ad95760405162461bcd60e51b81526020600482018190526024820152600080516020612f5783398151915260448201526064016105f8565b610ae360006124cb565b565b6000546001600160a01b03163314610b2d5760405162461bcd60e51b81526020600482018190526024820152600080516020612f5783398151915260448201526064016105f8565b6000610b3830612528565b905060005b8151811015610b7b57610b6983838381518110610b5c57610b5c612f15565b6020026020010151611192565b80610b7381612ee4565b915050610b3d565b505050565b6000546001600160a01b03163314610bc85760405162461bcd60e51b81526020600482018190526024820152600080516020612f5783398151915260448201526064016105f8565b6001546040516370a0823160e01b81523060048201526001600160a01b03909116906370a082319060240160206040518083038186803b158015610c0b57600080fd5b505afa158015610c1f573d6000803e3d6000fd5b505050506040513d601f19601f82011682018060405250810190610c439190612c18565b15610c905760405162461bcd60e51b815260206004820181905260248201527f42616c616e6365206f6620737461626c6520636f696e206d757374206265203060448201526064016105f8565b6003546040516370a0823160e01b81523060048201526001600160a01b03909116906370a082319060240160206040518083038186803b158015610cd357600080fd5b505afa158015610ce7573d6000803e3d6000fd5b505050506040513d601f19601f82011682018060405250810190610d0b9190612c18565b15610d585760405162461bcd60e51b815260206004820152601e60248201527f42616c616e6365206f66204669647520636f696e206d7573742062652030000060448201526064016105f8565b6002546040516370a0823160e01b81523060048201526001600160a01b03909116906370a082319060240160206040518083038186803b158015610d9b57600080fd5b505afa158015610daf573d6000803e3d6000fd5b505050506040513d601f19601f82011682018060405250810190610dd39190612c18565b15610e205760405162461bcd60e51b815260206004820152601d60248201527f42616c616e6365206f662047464920636f696e206d757374206265203000000060448201526064016105f8565b600480546040516370a0823160e01b815230928101929092526001600160a01b0316906370a082319060240160206040518083038186803b158015610e6457600080fd5b505afa158015610e78573d6000803e3d6000fd5b505050506040513d601f19601f82011682018060405250810190610e9c9190612c18565b15610ee95760405162461bcd60e51b815260206004820152601c60248201527f506f6f6c20746f6b656e2062616c616e6365206d75737420626520300000000060448201526064016105f8565b6000546001600160a01b031680ff5b6000546001600160a01b03163314610f405760405162461bcd60e51b81526020600482018190526024820152600080516020612f5783398151915260448201526064016105f8565b6005805473ffffffffffffffffffffffffffffffffffffffff19166001600160a01b0392909216919091179055565b6006546001600160a01b03163314610fd85760405162461bcd60e51b815260206004820152602660248201527f5468652066756e6374696f6e206d7573742062652063616c6c65642066726f6d604482015265081d985d5b1d60d21b60648201526084016105f8565b6001546040516370a0823160e01b815230600482015282916001600160a01b0316906370a082319060240160206040518083038186803b15801561101b57600080fd5b505afa15801561102f573d6000803e3d6000fd5b505050506040513d601f19601f820116820180604052508101906110539190612c18565b10156110ab5760405162461bcd60e51b815260206004820152602160248201527f5661756c742068617320696e737566666963656e7420737461626c6520636f696044820152603760f91b60648201526084016105f8565b600081116110fb5760405162461bcd60e51b815260206004820152601b60248201527f4d757374206465706f736974206d6f7265207468616e207a65726f000000000060448201526064016105f8565b6005546040517fb6b55f25000000000000000000000000000000000000000000000000000000008152600481018390526001600160a01b039091169063b6b55f2590602401602060405180830381600087803b15801561115a57600080fd5b505af115801561116e573d6000803e3d6000fd5b505050506040513d601f19601f820116820180604052508101906106189190612c18565b6000546001600160a01b031633146111da5760405162461bcd60e51b81526020600482018190526024820152600080516020612f5783398151915260448201526064016105f8565b600480546040517f42842e0e00000000000000000000000000000000000000000000000000000000815230928101929092526001600160a01b0384811660248401526044830184905216906342842e0e90606401600060405180830381600087803b15801561124857600080fd5b505af115801561125c573d6000803e3d6000fd5b505050505050565b6006546001600160a01b031633146112cd5760405162461bcd60e51b815260206004820152602660248201527f5468652066756e6374696f6e206d7573742062652063616c6c65642066726f6d604482015265081d985d5b1d60d21b60648201526084016105f8565b6003546040516370a0823160e01b815230600482015284916001600160a01b0316906370a082319060240160206040518083038186803b15801561131057600080fd5b505afa158015611324573d6000803e3d6000fd5b505050506040513d601f19601f820116820180604052508101906113489190612c18565b10156113965760405162461bcd60e51b815260206004820152601f60248201527f5661756c742068617320696e737566666963656e74206669647520636f696e0060448201526064016105f8565b600083116113e65760405162461bcd60e51b815260206004820152601b60248201527f4d757374206465706f736974206d6f7265207468616e207a65726f000000000060448201526064016105f8565b6040517f441a3e700000000000000000000000000000000000000000000000000000000081526004810185905260248101849052829060009081906001600160a01b0384169063441a3e70906044016040805180830381600087803b15801561144e57600080fd5b505af1158015611462573d6000803e3d6000fd5b505050506040513d601f19601f820116820180604052508101906114869190612c7a565b909250905060006114ac60646114a6876114a087876121c3565b906126bd565b906126c9565b6008549091506114bc90826121c3565b6008555050505050505050565b6000546001600160a01b031633146115115760405162461bcd60e51b81526020600482018190526024820152600080516020612f5783398151915260448201526064016105f8565b60085460015461152e916001600160a01b039091169083906121e4565b506000600855565b6000546001600160a01b0316331461157e5760405162461bcd60e51b81526020600482018190526024820152600080516020612f5783398151915260448201526064016105f8565b6006805473ffffffffffffffffffffffffffffffffffffffff19166001600160a01b0392909216919091179055565b6004805460405163463d31d760e11b815291820183905260009182916001600160a01b031690638c7a63ae9060240160a06040518083038186803b1580156115f457600080fd5b505afa158015611608573d6000803e3d6000fd5b505050506040513d601f19601f8201168201806040525081019061162c9190612b86565b8051600480546040517fb5ada6d80000000000000000000000000000000000000000000000000000000081526001600160a01b0380851693820193909352939450919291169063b5ada6d89060240160206040518083038186803b15801561169357600080fd5b505afa1580156116a7573d6000803e3d6000fd5b505050506040513d601f19601f820116820180604052508101906116cb9190612b64565b949350505050565b6006546001600160a01b0316331461173c5760405162461bcd60e51b815260206004820152602660248201527f5468652066756e6374696f6e206d7573742062652063616c6c65642066726f6d604482015265081d985d5b1d60d21b60648201526084016105f8565b600754611747610944565b10156117bb5760405162461bcd60e51b815260206004820152603a60248201527f5468652047464920696e207468652064656c6567616379206973206c6573732060448201527f7468616e20746865204746492066656520636f6c6c656374656400000000000060648201526084016105f8565b60006117df836114a66117d86007546117d2610944565b906121d8565b87906126bd565b905060006117f260646114a684866126bd565b90506118158661180284846121d8565b6002546001600160a01b031691906121e4565b60075461182290826121c3565b600755505050505050565b6000546001600160a01b031633146118755760405162461bcd60e51b81526020600482018190526024820152600080516020612f5783398151915260448201526064016105f8565b6040516370a0823160e01b81523060048201526000906001600160a01b038416906370a082319060240160206040518083038186803b1580156118b757600080fd5b505afa1580156118cb573d6000803e3d6000fd5b505050506040513d601f19601f820116820180604052508101906118ef9190612c18565b9050610b7b6001600160a01b03841683836121e4565b6006546001600160a01b0316331461196e5760405162461bcd60e51b815260206004820152602660248201527f5468652066756e6374696f6e206d7573742062652063616c6c65642066726f6d604482015265081d985d5b1d60d21b60648201526084016105f8565b6040517f095ea7b30000000000000000000000000000000000000000000000000000000081526001600160a01b0383811660048301526024820183905284169063095ea7b390604401602060405180830381600087803b1580156119d157600080fd5b505af11580156119e5573d6000803e3d6000fd5b505050506040513d601f19601f82011682018060405250810190611a099190612b64565b50505050565b6006546000906001600160a01b03163314611a7b5760405162461bcd60e51b815260206004820152602660248201527f5468652066756e6374696f6e206d7573742062652063616c6c65642066726f6d604482015265081d985d5b1d60d21b60648201526084016105f8565b6004546001600160a01b03858116911614611ad85760405162461bcd60e51b815260206004820152601860248201527f4e6f7420476f6c6466696e636820506f6f6c20546f6b656e000000000000000060448201526064016105f8565b611ae1826115ad565b1515600114611b325760405162461bcd60e51b815260206004820152601060248201527f4e6f7420612076616c696420706f6f6c0000000000000000000000000000000060448201526064016105f8565b6040517f6352211e000000000000000000000000000000000000000000000000000000008152600481018390526001600160a01b038085169190861690636352211e9060240160206040518083038186803b158015611b9057600080fd5b505afa158015611ba4573d6000803e3d6000fd5b505050506040513d601f19601f82011682018060405250810190611bc891906129a2565b6001600160a01b031614611c1e5760405162461bcd60e51b815260206004820152601c60248201527f5573657220646f6573206e6f74206f776e207468697320746f6b656e0000000060448201526064016105f8565b600480546040517f081812fc00000000000000000000000000000000000000000000000000000000815291820184905233916001600160a01b039091169063081812fc9060240160206040518083038186803b158015611c7d57600080fd5b505afa158015611c91573d6000803e3d6000fd5b505050506040513d601f19601f82011682018060405250810190611cb591906129a2565b6001600160a01b031614611d315760405162461bcd60e51b815260206004820152602e60248201527f5573657220686173206e6f7420617070726f76656420746865207661756c742060448201527f666f72207468697320746f6b656e00000000000000000000000000000000000060648201526084016105f8565b6000611d3c83610413565b905060008111611db45760405162461bcd60e51b815260206004820152603560248201527f54686520616d6f756e74206f6620737461626c6520636f696e20746f2067657460448201527f206973206e6f74206c6172676572207468616e2030000000000000000000000060648201526084016105f8565b6001546040516370a0823160e01b815230600482015282916001600160a01b0316906370a082319060240160206040518083038186803b158015611df757600080fd5b505afa158015611e0b573d6000803e3d6000fd5b505050506040513d601f19601f82011682018060405250810190611e2f9190612c18565b1015611ea35760405162461bcd60e51b815260206004820152602e60248201527f546865207661756c7420646f6573206e6f74206861766520737566666963696560448201527f6e7420737461626c6520636f696e00000000000000000000000000000000000060648201526084016105f8565b90505b9392505050565b6000546001600160a01b03163314611ef55760405162461bcd60e51b81526020600482018190526024820152600080516020612f5783398151915260448201526064016105f8565b6001600160a01b038116611f715760405162461bcd60e51b815260206004820152602660248201527f4f776e61626c653a206e6577206f776e657220697320746865207a65726f206160448201527f646472657373000000000000000000000000000000000000000000000000000060648201526084016105f8565b611f7a816124cb565b50565b6006546001600160a01b03163314611fe65760405162461bcd60e51b815260206004820152602660248201527f5468652066756e6374696f6e206d7573742062652063616c6c65642066726f6d604482015265081d985d5b1d60d21b60648201526084016105f8565b6003546040516370a0823160e01b815230600482015283916001600160a01b0316906370a082319060240160206040518083038186803b15801561202957600080fd5b505afa15801561203d573d6000803e3d6000fd5b505050506040513d601f19601f820116820180604052508101906120619190612c18565b10156120af5760405162461bcd60e51b815260206004820152601f60248201527f5661756c742068617320696e737566666963656e74206669647520636f696e0060448201526064016105f8565b600082116120ff5760405162461bcd60e51b815260206004820152601b60248201527f4d757374206465706f736974206d6f7265207468616e207a65726f000000000060448201526064016105f8565b6005546040517f58031d12000000000000000000000000000000000000000000000000000000008152600481018490526000916001600160a01b0316906358031d1290602401602060405180830381600087803b15801561215f57600080fd5b505af1158015612173573d6000803e3d6000fd5b505050506040513d601f19601f820116820180604052508101906121979190612c18565b905060006121aa60646114a684866126bd565b6008549091506121ba90826121c3565b60085550505050565b60006121cf8284612d5d565b90505b92915050565b60006121cf8284612ea1565b604080516001600160a01b038416602482015260448082018490528251808303909101815260649091019091526020810180517bffffffffffffffffffffffffffffffffffffffffffffffffffffffff167fa9059cbb00000000000000000000000000000000000000000000000000000000179052610b7b9084906126d5565b600480546040516370a0823160e01b81523092810192909252600091829182916001600160a01b03909116906370a082319060240160206040518083038186803b1580156122b157600080fd5b505afa1580156122c5573d6000803e3d6000fd5b505050506040513d601f19601f820116820180604052508101906122e99190612c18565b905060005b8181101561239c5760048054604051632f745c5960e01b815230928101929092526024820183905261238891612381916001600160a01b031690632f745c599060440160206040518083038186803b15801561234957600080fd5b505afa15801561235d573d6000803e3d6000fd5b505050506040513d601f19601f820116820180604052508101906101f29190612c18565b84906121c3565b92508061239481612ee4565b9150506122ee565b509092915050565b60006108c86124c66123b46127ba565b600554604080517f8726972900000000000000000000000000000000000000000000000000000000815290516114a6926001600160a01b0316916387269729916004808301926020929190829003018186803b15801561241357600080fd5b505afa158015612427573d6000803e3d6000fd5b505050506040513d601f19601f8201168201806040525081019061244b9190612c18565b6003546040516370a0823160e01b81523060048201526001600160a01b03909116906370a082319060240160206040518083038186803b15801561248e57600080fd5b505afa1580156124a2573d6000803e3d6000fd5b505050506040513d601f19601f820116820180604052508101906114a09190612c18565b6127c8565b600080546001600160a01b0383811673ffffffffffffffffffffffffffffffffffffffff19831681178455604051919092169283917f8be0079c531659141344cd1fd0a4f28419497f9722a3daafe3b4186f6b6457e09190a35050565b600480546040516370a0823160e01b81526001600160a01b038481169382019390935260609260009216906370a082319060240160206040518083038186803b15801561257457600080fd5b505afa158015612588573d6000803e3d6000fd5b505050506040513d601f19601f820116820180604052508101906125ac9190612c18565b905060008167ffffffffffffffff8111156125c9576125c9612f2b565b6040519080825280602002602001820160405280156125f2578160200160208202803683370190505b50905060005b828110156126b55760048054604051632f745c5960e01b81526001600160a01b038881169382019390935260248101849052911690632f745c599060440160206040518083038186803b15801561264e57600080fd5b505afa158015612662573d6000803e3d6000fd5b505050506040513d601f19601f820116820180604052508101906126869190612c18565b82828151811061269857612698612f15565b6020908102919091010152806126ad81612ee4565b9150506125f8565b509392505050565b60006121cf8284612e82565b60006121cf8284612d75565b600061272a826040518060400160405280602081526020017f5361666545524332303a206c6f772d6c6576656c2063616c6c206661696c6564815250856001600160a01b03166127e79092919063ffffffff16565b805190915015610b7b57808060200190518101906127489190612b64565b610b7b5760405162461bcd60e51b815260206004820152602a60248201527f5361666545524332303a204552433230206f7065726174696f6e20646964206e60448201527f6f7420737563636565640000000000000000000000000000000000000000000060648201526084016105f8565b60006108c86012600a612dda565b60006121d26127e06127d86127f6565b6114a66127ba565b83906126c9565b6060611ea38484600085612804565b60006108c86006600a612dda565b60608247101561287c5760405162461bcd60e51b815260206004820152602660248201527f416464726573733a20696e73756666696369656e742062616c616e636520666f60448201527f722063616c6c000000000000000000000000000000000000000000000000000060648201526084016105f8565b6001600160a01b0385163b6128d35760405162461bcd60e51b815260206004820152601d60248201527f416464726573733a2063616c6c20746f206e6f6e2d636f6e747261637400000060448201526064016105f8565b600080866001600160a01b031685876040516128ef9190612cdd565b60006040518083038185875af1925050503d806000811461292c576040519150601f19603f3d011682016040523d82523d6000602084013e612931565b606091505b509150915061294182828661294c565b979650505050505050565b6060831561295b575081611ea6565b82511561296b5782518084602001fd5b8160405162461bcd60e51b81526004016105f89190612cf9565b60006020828403121561299757600080fd5b8135611ea681612f41565b6000602082840312156129b457600080fd5b8151611ea681612f41565b600080604083850312156129d257600080fd5b82356129dd81612f41565b915060208301356129ed81612f41565b809150509250929050565b600080600060608486031215612a0d57600080fd5b8335612a1881612f41565b92506020840135612a2881612f41565b929592945050506040919091013590565b60008060008060808587031215612a4f57600080fd5b8435612a5a81612f41565b9350602085810135612a6b81612f41565b935060408601359250606086013567ffffffffffffffff80821115612a8f57600080fd5b818801915088601f830112612aa357600080fd5b813581811115612ab557612ab5612f2b565b612ac7601f8201601f19168501612d2c565b91508082528984828501011115612add57600080fd5b808484018584013760008482840101525080935050505092959194509250565b60008060408385031215612b1057600080fd5b8235612b1b81612f41565b946020939093013593505050565b60008060008060808587031215612b3f57600080fd5b8435612b4a81612f41565b966020860135965060408601359560600135945092505050565b600060208284031215612b7657600080fd5b81518015158114611ea657600080fd5b600060a08284031215612b9857600080fd5b60405160a0810181811067ffffffffffffffff82111715612bbb57612bbb612f2b565b6040528251612bc981612f41565b80825250602083015160208201526040830151604082015260608301516060820152608083015160808201528091505092915050565b600060208284031215612c1157600080fd5b5035919050565b600060208284031215612c2a57600080fd5b5051919050565b600080600060608486031215612c4657600080fd5b833592506020840135612a2881612f41565b60008060408385031215612c6b57600080fd5b50508035926020909101359150565b60008060408385031215612c8d57600080fd5b505080516020909101519092909150565b60008060008060808587031215612cb457600080fd5b84359350602085013592506040850135612ccd81612f41565b9396929550929360600135925050565b60008251612cef818460208701612eb8565b9190910192915050565b6020815260008251806020840152612d18816040850160208701612eb8565b601f01601f19169190910160400192915050565b604051601f8201601f1916810167ffffffffffffffff81118282101715612d5557612d55612f2b565b604052919050565b60008219821115612d7057612d70612eff565b500190565b600082612d9257634e487b7160e01b600052601260045260246000fd5b500490565b600181815b80851115612dd2578160001904821115612db857612db8612eff565b80851615612dc557918102915b93841c9390800290612d9c565b509250929050565b60006121cf8383600082612df0575060016121d2565b81612dfd575060006121d2565b8160018114612e135760028114612e1d57612e39565b60019150506121d2565b60ff841115612e2e57612e2e612eff565b50506001821b6121d2565b5060208310610133831016604e8410600b8410161715612e5c575081810a6121d2565b612e668383612d97565b8060001904821115612e7a57612e7a612eff565b029392505050565b6000816000190483118215151615612e9c57612e9c612eff565b500290565b600082821015612eb357612eb3612eff565b500390565b60005b83811015612ed3578181015183820152602001612ebb565b83811115611a095750506000910152565b6000600019821415612ef857612ef8612eff565b5060010190565b634e487b7160e01b600052601160045260246000fd5b634e487b7160e01b600052603260045260246000fd5b634e487b7160e01b600052604160045260246000fd5b6001600160a01b0381168114611f7a57600080fdfe4f776e61626c653a2063616c6c6572206973206e6f7420746865206f776e6572a2646970667358221220d25c569f6d336e726d47aa6293d23b1744e2c230ad9a93bd990a2c70b2f447c364736f6c63430008070033",
  "devdoc": {
    "author": "AlloyX",
    "kind": "dev",
    "methods": {
      "approve(address,address,uint256)": {
        "params": {
          "_account": "the address to approve",
          "_amount": "the amount to approve",
          "_tokenAddress": "the token address to approve"
        }
      },
      "changePoolTokenAddress(address)": {
        "params": {
          "_poolToken": "The address to change to"
        }
      },
      "changeSeniorPoolAddress(address)": {
        "params": {
          "_seniorPool": "The address to change to"
        }
      },
      "changeVaultAddress(address)": {
        "params": {
          "_vaultAddress": "The address to change to"
        }
      },
      "claimReward(address,uint256,uint256,uint256)": {
        "params": {
          "_amount": "the amount of silver tokens used to claim",
          "_percentageFee": "the earning fee for redeeming silver token in percentage in terms of GFI",
          "_rewardee": "the address of rewardee",
          "_totalSupply": "total claimable and claimed silver tokens of all stakeholders"
        }
      },
      "getJuniorTokenValue(uint256)": {
        "params": {
          "_tokenID": "The backer NFT id"
        }
      },
      "isValidPool(uint256)": {
        "params": {
          "_tokenID": "The backer NFT id"
        }
      },
      "migrateAllGoldfinchPoolTokens(address)": {
        "params": {
          "_toAddress": "the address to transfer tokens to"
        }
      },
      "migrateERC20(address,address)": {
        "params": {
          "_to": "the address to transfer tokens to",
          "_tokenAddress": "the token address to migrate"
        }
      },
      "migrateGoldfinchPoolTokens(address,uint256)": {
        "params": {
          "_toAddress": "the address to transfer tokens to",
          "_tokenId": "the token ID to transfer"
        }
      },
      "onERC721Received(address,address,uint256,bytes)": {
        "details": "See {IERC721Receiver-onERC721Received}. Always returns `IERC721Receiver.onERC721Received.selector`."
      },
      "owner()": {
        "details": "Returns the address of the current owner."
      },
      "payUsdc(address,uint256)": {
        "params": {
          "_amount": "the amount to pay",
          "_to": "the address to pay to"
        }
      },
      "purchaseJuniorToken(uint256,address,uint256)": {
        "params": {
          "_amount": "the amount of usdc to purchase by",
          "_poolAddress": "the pool address to buy from",
          "_tranche": "the tranch id"
        }
      },
      "purchaseSeniorTokens(uint256)": {
        "params": {
          "_amount": "the amount of USDC to purchase by"
        }
      },
      "renounceOwnership()": {
        "details": "Leaves the contract without owner. It will not be possible to call `onlyOwner` functions anymore. Can only be called by the current owner. NOTE: Renouncing ownership will leave the contract without an owner, thereby removing any functionality that is only available to the owner."
      },
      "sellJuniorToken(uint256,uint256,address,uint256)": {
        "params": {
          "_amount": "the amount to withdraw",
          "_percentageBronzeRepayment": "the repayment fee for bronze token in percentage",
          "_poolAddress": "the pool address to withdraw from",
          "_tokenId": "the ID of token to sell"
        }
      },
      "sellSeniorTokens(uint256,uint256)": {
        "params": {
          "_amount": "the amount of fidu to sell",
          "_percentageBronzeRepayment": "the repayment fee for bronze token in percentage"
        }
      },
      "transferEarningGfiFee(address)": {
        "params": {
          "_to": "the address to transfer tokens to"
        }
      },
      "transferOwnership(address)": {
        "details": "Transfers ownership of the contract to a new account (`newOwner`). Can only be called by the current owner."
      },
      "transferRepaymentFee(address)": {
        "params": {
          "_to": "the address to transfer tokens to"
        }
      },
      "validatesTokenToDepositAndGetPurchasePrice(address,address,uint256)": {
        "params": {
          "_depositor": "the person to deposit",
          "_tokenAddress": "the Pooltoken address",
          "_tokenID": "the ID of the Pooltoken"
        }
      }
    },
    "title": "Goldfinch Delegacy",
    "version": 1
  },
  "userdoc": {
    "kind": "user",
    "methods": {
      "approve(address,address,uint256)": {
        "notice": "Approve certain amount token of certain address to some other account"
      },
      "changePoolTokenAddress(address)": {
        "notice": "Change the pool token address"
      },
      "changeSeniorPoolAddress(address)": {
        "notice": "Change the senior pool address"
      },
      "changeVaultAddress(address)": {
        "notice": "Change the vault address"
      },
      "claimReward(address,uint256,uint256,uint256)": {
        "notice": "Claim certain amount of reward token based on alloy silver token, the method will burn the silver token of the amount of message sender, and transfer reward token to message sender"
      },
      "destroy()": {
        "notice": "Destroy the contract"
      },
      "getGFIBalance()": {
        "notice": "GFI Balance in Vault"
      },
      "getGoldfinchDelegacyBalanceInUSDC()": {
        "notice": "Delegacy Value in terms of USDC"
      },
      "getJuniorTokenValue(uint256)": {
        "notice": "Using the Goldfinch contracts, read the principal, redeemed and redeemable values"
      },
      "getUSDCBalance()": {
        "notice": "USDC Value in Vault"
      },
      "isValidPool(uint256)": {
        "notice": "Using the PoolTokens interface, check if this is a valid pool"
      },
      "migrateAllGoldfinchPoolTokens(address)": {
        "notice": "Migrate all Pooltokens to an address"
      },
      "migrateERC20(address,address)": {
        "notice": "Migrate certain ERC20 to an address"
      },
      "migrateGoldfinchPoolTokens(address,uint256)": {
        "notice": "Migrate Pooltoken of ID to an address"
      },
      "payUsdc(address,uint256)": {
        "notice": "Pay USDC tokens to account"
      },
      "purchaseJuniorToken(uint256,address,uint256)": {
        "notice": "Purchase junior token through this delegacy to get pooltoken inside this delegacy"
      },
      "purchaseSeniorTokens(uint256)": {
        "notice": "Purchase senior token through this delegacy to get FIDU inside this delegacy"
      },
      "sellJuniorToken(uint256,uint256,address,uint256)": {
        "notice": "Sell junior token through this delegacy to get repayments"
      },
      "sellSeniorTokens(uint256,uint256)": {
        "notice": "sell senior token through delegacy to redeem fidu"
      },
      "transferEarningGfiFee(address)": {
        "notice": "Transfer earning gfi fee to some other address"
      },
      "transferRepaymentFee(address)": {
        "notice": "Transfer repayment fee to some other address"
      },
      "validatesTokenToDepositAndGetPurchasePrice(address,address,uint256)": {
        "notice": "Validates the Pooltoken to be deposited and get the USDC value of the token"
      }
    },
    "notice": "Middle layer to communicate with goldfinch contracts",
    "version": 1
  },
  "storageLayout": {
    "storage": [
      {
        "astId": 2183,
        "contract": "contracts/alloyx/GoldfinchDelegacy.sol:GoldfinchDelegacy",
        "label": "_owner",
        "offset": 0,
        "slot": "0",
        "type": "t_address"
      },
      {
        "astId": 6149,
        "contract": "contracts/alloyx/GoldfinchDelegacy.sol:GoldfinchDelegacy",
        "label": "usdcCoin",
        "offset": 0,
        "slot": "1",
        "type": "t_contract(IERC20)3038"
      },
      {
        "astId": 6152,
        "contract": "contracts/alloyx/GoldfinchDelegacy.sol:GoldfinchDelegacy",
        "label": "gfiCoin",
        "offset": 0,
        "slot": "2",
        "type": "t_contract(IERC20)3038"
      },
      {
        "astId": 6155,
        "contract": "contracts/alloyx/GoldfinchDelegacy.sol:GoldfinchDelegacy",
        "label": "fiduCoin",
        "offset": 0,
        "slot": "3",
        "type": "t_contract(IERC20)3038"
      },
      {
        "astId": 6158,
        "contract": "contracts/alloyx/GoldfinchDelegacy.sol:GoldfinchDelegacy",
        "label": "poolToken",
        "offset": 0,
        "slot": "4",
        "type": "t_contract(IPoolTokens)15138"
      },
      {
        "astId": 6161,
        "contract": "contracts/alloyx/GoldfinchDelegacy.sol:GoldfinchDelegacy",
        "label": "seniorPool",
        "offset": 0,
        "slot": "5",
        "type": "t_contract(ISeniorPool)15234"
      },
      {
        "astId": 6163,
        "contract": "contracts/alloyx/GoldfinchDelegacy.sol:GoldfinchDelegacy",
        "label": "coreVaultAddress",
        "offset": 0,
        "slot": "6",
        "type": "t_address"
      },
      {
        "astId": 6166,
        "contract": "contracts/alloyx/GoldfinchDelegacy.sol:GoldfinchDelegacy",
        "label": "earningGfiFee",
        "offset": 0,
        "slot": "7",
        "type": "t_uint256"
      },
      {
        "astId": 6169,
        "contract": "contracts/alloyx/GoldfinchDelegacy.sol:GoldfinchDelegacy",
        "label": "repaymentFee",
        "offset": 0,
        "slot": "8",
        "type": "t_uint256"
      }
    ],
    "types": {
      "t_address": {
        "encoding": "inplace",
        "label": "address",
        "numberOfBytes": "20"
      },
      "t_contract(IERC20)3038": {
        "encoding": "inplace",
        "label": "contract IERC20",
        "numberOfBytes": "20"
      },
      "t_contract(IPoolTokens)15138": {
        "encoding": "inplace",
        "label": "contract IPoolTokens",
        "numberOfBytes": "20"
      },
      "t_contract(ISeniorPool)15234": {
        "encoding": "inplace",
        "label": "contract ISeniorPool",
        "numberOfBytes": "20"
      },
      "t_uint256": {
        "encoding": "inplace",
        "label": "uint256",
        "numberOfBytes": "32"
      }
    }
  }
}