{
  "address": "0x11079431a0449774D7Cca0b414c1A80CE3965DB4",
  "_format": "hh-sol-artifact-1",
  "contractName": "GoldfinchDesk",
  "sourceName": "contracts/alloyx/GoldfinchDesk.sol",
  "abi": [
    {
      "anonymous": false,
      "inputs": [
        {
          "indexed": true,
          "internalType": "address",
          "name": "who",
          "type": "address"
        },
        {
          "indexed": false,
          "internalType": "address",
          "name": "configAddress",
          "type": "address"
        }
      ],
      "name": "AlloyxConfigUpdated",
      "type": "event"
    },
    {
      "anonymous": false,
      "inputs": [
        {
          "indexed": false,
          "internalType": "address",
          "name": "_tokenReceiver",
          "type": "address"
        },
        {
          "indexed": false,
          "internalType": "uint256",
          "name": "_tokenAmount",
          "type": "uint256"
        }
      ],
      "name": "Burn",
      "type": "event"
    },
    {
      "anonymous": false,
      "inputs": [
        {
          "indexed": false,
          "internalType": "address",
          "name": "_tokenSender",
          "type": "address"
        },
        {
          "indexed": false,
          "internalType": "uint256",
          "name": "_tokenAmount",
          "type": "uint256"
        }
      ],
      "name": "DepositDURA",
      "type": "event"
    },
    {
      "anonymous": false,
      "inputs": [
        {
          "indexed": false,
          "internalType": "address",
          "name": "_depositor",
          "type": "address"
        },
        {
          "indexed": false,
          "internalType": "uint256",
          "name": "_tokenID",
          "type": "uint256"
        }
      ],
      "name": "DepositPoolTokens",
      "type": "event"
    },
    {
      "anonymous": false,
      "inputs": [
        {
          "indexed": false,
          "internalType": "uint8",
          "name": "version",
          "type": "uint8"
        }
      ],
      "name": "Initialized",
      "type": "event"
    },
    {
      "anonymous": false,
      "inputs": [
        {
          "indexed": false,
          "internalType": "address",
          "name": "_tokenReceiver",
          "type": "address"
        },
        {
          "indexed": false,
          "internalType": "uint256",
          "name": "_tokenAmount",
          "type": "uint256"
        }
      ],
      "name": "Mint",
      "type": "event"
    },
    {
      "anonymous": false,
      "inputs": [
        {
          "indexed": false,
          "internalType": "uint256",
          "name": "_amount",
          "type": "uint256"
        }
      ],
      "name": "PurchaseFiduByUsdc",
      "type": "event"
    },
    {
      "anonymous": false,
      "inputs": [
        {
          "indexed": false,
          "internalType": "uint256",
          "name": "_amount",
          "type": "uint256"
        }
      ],
      "name": "PurchasePoolTokensByUSDC",
      "type": "event"
    },
    {
      "anonymous": false,
      "inputs": [
        {
          "indexed": false,
          "internalType": "uint256",
          "name": "amount",
          "type": "uint256"
        }
      ],
      "name": "PurchaseSenior",
      "type": "event"
    },
    {
      "anonymous": false,
      "inputs": [
        {
          "indexed": true,
          "internalType": "bytes32",
          "name": "role",
          "type": "bytes32"
        },
        {
          "indexed": true,
          "internalType": "bytes32",
          "name": "previousAdminRole",
          "type": "bytes32"
        },
        {
          "indexed": true,
          "internalType": "bytes32",
          "name": "newAdminRole",
          "type": "bytes32"
        }
      ],
      "name": "RoleAdminChanged",
      "type": "event"
    },
    {
      "anonymous": false,
      "inputs": [
        {
          "indexed": true,
          "internalType": "bytes32",
          "name": "role",
          "type": "bytes32"
        },
        {
          "indexed": true,
          "internalType": "address",
          "name": "account",
          "type": "address"
        },
        {
          "indexed": true,
          "internalType": "address",
          "name": "sender",
          "type": "address"
        }
      ],
      "name": "RoleGranted",
      "type": "event"
    },
    {
      "anonymous": false,
      "inputs": [
        {
          "indexed": true,
          "internalType": "bytes32",
          "name": "role",
          "type": "bytes32"
        },
        {
          "indexed": true,
          "internalType": "address",
          "name": "account",
          "type": "address"
        },
        {
          "indexed": true,
          "internalType": "address",
          "name": "sender",
          "type": "address"
        }
      ],
      "name": "RoleRevoked",
      "type": "event"
    },
    {
      "anonymous": false,
      "inputs": [
        {
          "indexed": false,
          "internalType": "uint256",
          "name": "_amount",
          "type": "uint256"
        }
      ],
      "name": "SellFIDU",
      "type": "event"
    },
    {
      "anonymous": false,
      "inputs": [
        {
          "indexed": false,
          "internalType": "address",
          "name": "_staker",
          "type": "address"
        },
        {
          "indexed": false,
          "internalType": "uint256",
          "name": "_amount",
          "type": "uint256"
        }
      ],
      "name": "Stake",
      "type": "event"
    },
    {
      "anonymous": false,
      "inputs": [
        {
          "indexed": false,
          "internalType": "address",
          "name": "_to",
          "type": "address"
        },
        {
          "indexed": false,
          "internalType": "uint256",
          "name": "_amount",
          "type": "uint256"
        }
      ],
      "name": "TransferUSDC",
      "type": "event"
    },
    {
      "anonymous": false,
      "inputs": [
        {
          "indexed": false,
          "internalType": "uint256",
          "name": "_amount",
          "type": "uint256"
        }
      ],
      "name": "WithdrawPoolTokenByUSDCAmount",
      "type": "event"
    },
    {
      "anonymous": false,
      "inputs": [
        {
          "indexed": false,
          "internalType": "address",
          "name": "_withdrawer",
          "type": "address"
        },
        {
          "indexed": false,
          "internalType": "uint256",
          "name": "_tokenID",
          "type": "uint256"
        }
      ],
      "name": "WithdrawPoolTokens",
      "type": "event"
    },
    {
      "inputs": [],
      "name": "DEFAULT_ADMIN_ROLE",
      "outputs": [
        {
          "internalType": "bytes32",
          "name": "",
          "type": "bytes32"
        }
      ],
      "stateMutability": "view",
      "type": "function"
    },
    {
      "inputs": [
        {
          "internalType": "address",
          "name": "account",
          "type": "address"
        }
      ],
      "name": "addAdmin",
      "outputs": [],
      "stateMutability": "nonpayable",
      "type": "function"
    },
    {
      "inputs": [],
      "name": "config",
      "outputs": [
        {
          "internalType": "contract AlloyxConfig",
          "name": "",
          "type": "address"
        }
      ],
      "stateMutability": "view",
      "type": "function"
    },
    {
      "inputs": [
        {
          "internalType": "uint256",
          "name": "_tokenAmount",
          "type": "uint256"
        }
      ],
      "name": "depositDuraForFidu",
      "outputs": [],
      "stateMutability": "nonpayable",
      "type": "function"
    },
    {
      "inputs": [
        {
          "internalType": "uint256",
          "name": "_tokenId",
          "type": "uint256"
        }
      ],
      "name": "depositDuraForPoolToken",
      "outputs": [],
      "stateMutability": "nonpayable",
      "type": "function"
    },
    {
      "inputs": [
        {
          "internalType": "uint256",
          "name": "_tokenID",
          "type": "uint256"
        },
        {
          "internalType": "bool",
          "name": "_toStake",
          "type": "bool"
        }
      ],
      "name": "depositPoolTokenForDura",
      "outputs": [],
      "stateMutability": "nonpayable",
      "type": "function"
    },
    {
      "inputs": [
        {
          "internalType": "uint256",
          "name": "_tokenID",
          "type": "uint256"
        }
      ],
      "name": "depositPoolTokensForUsdc",
      "outputs": [],
      "stateMutability": "nonpayable",
      "type": "function"
    },
    {
      "inputs": [],
      "name": "getGoldFinchPoolTokenBalanceInUsdc",
      "outputs": [
        {
          "internalType": "uint256",
          "name": "",
          "type": "uint256"
        }
      ],
      "stateMutability": "view",
      "type": "function"
    },
    {
      "inputs": [
        {
          "internalType": "uint256",
          "name": "_tokenID",
          "type": "uint256"
        }
      ],
      "name": "getJuniorTokenValue",
      "outputs": [
        {
          "internalType": "uint256",
          "name": "",
          "type": "uint256"
        }
      ],
      "stateMutability": "view",
      "type": "function"
    },
    {
      "inputs": [
        {
          "internalType": "bytes32",
          "name": "role",
          "type": "bytes32"
        }
      ],
      "name": "getRoleAdmin",
      "outputs": [
        {
          "internalType": "bytes32",
          "name": "",
          "type": "bytes32"
        }
      ],
      "stateMutability": "view",
      "type": "function"
    },
    {
      "inputs": [
        {
          "internalType": "address",
          "name": "_depositor",
          "type": "address"
        }
      ],
      "name": "getTokensAvailableCountForWithdrawal",
      "outputs": [
        {
          "internalType": "uint256",
          "name": "",
          "type": "uint256"
        }
      ],
      "stateMutability": "view",
      "type": "function"
    },
    {
      "inputs": [
        {
          "internalType": "address",
          "name": "_depositor",
          "type": "address"
        }
      ],
      "name": "getTokensAvailableForWithdrawal",
      "outputs": [
        {
          "internalType": "uint256[]",
          "name": "",
          "type": "uint256[]"
        }
      ],
      "stateMutability": "view",
      "type": "function"
    },
    {
      "inputs": [
        {
          "internalType": "bytes32",
          "name": "role",
          "type": "bytes32"
        },
        {
          "internalType": "address",
          "name": "account",
          "type": "address"
        }
      ],
      "name": "grantRole",
      "outputs": [],
      "stateMutability": "nonpayable",
      "type": "function"
    },
    {
      "inputs": [
        {
          "internalType": "bytes32",
          "name": "role",
          "type": "bytes32"
        },
        {
          "internalType": "address",
          "name": "account",
          "type": "address"
        }
      ],
      "name": "hasRole",
      "outputs": [
        {
          "internalType": "bool",
          "name": "",
          "type": "bool"
        }
      ],
      "stateMutability": "view",
      "type": "function"
    },
    {
      "inputs": [
        {
          "internalType": "address",
          "name": "_configAddress",
          "type": "address"
        }
      ],
      "name": "initialize",
      "outputs": [],
      "stateMutability": "nonpayable",
      "type": "function"
    },
    {
      "inputs": [
        {
          "internalType": "address",
          "name": "account",
          "type": "address"
        }
      ],
      "name": "isAdmin",
      "outputs": [
        {
          "internalType": "bool",
          "name": "",
          "type": "bool"
        }
      ],
      "stateMutability": "view",
      "type": "function"
    },
    {
      "inputs": [
        {
          "internalType": "uint256",
          "name": "_tokenID",
          "type": "uint256"
        }
      ],
      "name": "isValidPool",
      "outputs": [
        {
          "internalType": "bool",
          "name": "",
          "type": "bool"
        }
      ],
      "stateMutability": "view",
      "type": "function"
    },
    {
      "inputs": [
        {
          "internalType": "address",
          "name": "",
          "type": "address"
        },
        {
          "internalType": "address",
          "name": "",
          "type": "address"
        },
        {
          "internalType": "uint256",
          "name": "",
          "type": "uint256"
        },
        {
          "internalType": "bytes",
          "name": "",
          "type": "bytes"
        }
      ],
      "name": "onERC721Received",
      "outputs": [
        {
          "internalType": "bytes4",
          "name": "",
          "type": "bytes4"
        }
      ],
      "stateMutability": "nonpayable",
      "type": "function"
    },
    {
      "inputs": [
        {
          "internalType": "uint256",
          "name": "_amount",
          "type": "uint256"
        }
      ],
      "name": "purchaseFIDU",
      "outputs": [],
      "stateMutability": "nonpayable",
      "type": "function"
    },
    {
      "inputs": [],
      "name": "purchaseJuniorTokenBeyondUsdcThreshold",
      "outputs": [],
      "stateMutability": "nonpayable",
      "type": "function"
    },
    {
      "inputs": [
        {
          "internalType": "uint256",
          "name": "_amount",
          "type": "uint256"
        },
        {
          "internalType": "address",
          "name": "_poolAddress",
          "type": "address"
        },
        {
          "internalType": "uint256",
          "name": "_tranche",
          "type": "uint256"
        }
      ],
      "name": "purchasePoolToken",
      "outputs": [],
      "stateMutability": "nonpayable",
      "type": "function"
    },
    {
      "inputs": [
        {
          "internalType": "uint256",
          "name": "_amount",
          "type": "uint256"
        }
      ],
      "name": "purchasePoolTokenOnBestTranch",
      "outputs": [],
      "stateMutability": "nonpayable",
      "type": "function"
    },
    {
      "inputs": [],
      "name": "renounceAdmin",
      "outputs": [],
      "stateMutability": "nonpayable",
      "type": "function"
    },
    {
      "inputs": [
        {
          "internalType": "bytes32",
          "name": "role",
          "type": "bytes32"
        },
        {
          "internalType": "address",
          "name": "account",
          "type": "address"
        }
      ],
      "name": "renounceRole",
      "outputs": [],
      "stateMutability": "nonpayable",
      "type": "function"
    },
    {
      "inputs": [
        {
          "internalType": "bytes32",
          "name": "role",
          "type": "bytes32"
        },
        {
          "internalType": "address",
          "name": "account",
          "type": "address"
        }
      ],
      "name": "revokeRole",
      "outputs": [],
      "stateMutability": "nonpayable",
      "type": "function"
    },
    {
      "inputs": [
        {
          "internalType": "uint256",
          "name": "_amount",
          "type": "uint256"
        }
      ],
      "name": "sellFIDU",
      "outputs": [],
      "stateMutability": "nonpayable",
      "type": "function"
    },
    {
      "inputs": [
        {
          "internalType": "bytes4",
          "name": "interfaceId",
          "type": "bytes4"
        }
      ],
      "name": "supportsInterface",
      "outputs": [
        {
          "internalType": "bool",
          "name": "",
          "type": "bool"
        }
      ],
      "stateMutability": "view",
      "type": "function"
    },
    {
      "inputs": [],
      "name": "updateConfig",
      "outputs": [],
      "stateMutability": "nonpayable",
      "type": "function"
    },
    {
      "inputs": [
        {
          "internalType": "uint256",
          "name": "_tokenID",
          "type": "uint256"
        },
        {
          "internalType": "uint256",
          "name": "_amount",
          "type": "uint256"
        },
        {
          "internalType": "address",
          "name": "_poolAddress",
          "type": "address"
        }
      ],
      "name": "withdrawFromJuniorToken",
      "outputs": [],
      "stateMutability": "nonpayable",
      "type": "function"
    }
  ],
  "bytecode": "0x608060405234801561001057600080fd5b50613c7b806100206000396000f3fe608060405234801561001057600080fd5b506004361061015f5760003560e01c806301ffc9a7146101645780630d240c9a1461018c5780630d8b0408146101a1578063150b7a02146101c2578063248a9ca3146101f957806324d7806c1461020c5780632f2ff15d1461021f57806336568abe14610232578063490575351461024557806352372dcb146102585780636104f055146102605780637048027514610273578063747fd44c1461028657806379502c551461028e5780637f94bcf3146102ae5780638bad0c0a146102c157806391d14854146102c95780639494b626146102dc5780639c6e5bcc146102ef578063a217fddf14610302578063a99d36681461030a578063acb1eaf11461031d578063b04deba414610325578063c4d66de814610338578063ca8121541461034b578063cf2dbd481461036b578063d204ffb21461037e578063d2d9cc6414610391578063d547741f146103a4575b600080fd5b610177610172366004613674565b6103b7565b60405190151581526020015b60405180910390f35b61019f61019a36600461362b565b6103ee565b005b6101b46101af36600461362b565b610728565b604051908152602001610183565b6101e06101d0366004613493565b630a85bd0160e11b949350505050565b6040516001600160e01b03199091168152602001610183565b6101b461020736600461362b565b6108a7565b61017761021a366004613459565b6108bc565b61019f61022d366004613644565b6108c8565b61019f610240366004613644565b6108e9565b61019f6102533660046137b0565b610967565b6101b4610c4c565b61019f61026e36600461372f565b610dcd565b61019f610281366004613459565b61104f565b61019f611082565b60c9546102a1906001600160a01b031681565b6040516101839190613874565b61019f6102bc36600461362b565b611116565b61019f6111f9565b6101776102d7366004613644565b611206565b61019f6102ea366004613767565b611231565b61019f6102fd36600461362b565b6116c9565b6101b4600081565b6101b4610318366004613459565b611bb9565b61019f611d5f565b61019f61033336600461362b565b611f2d565b61019f610346366004613459565b612180565b61035e610359366004613459565b61220a565b60405161018391906138c5565b61019f61037936600461362b565b61241f565b61019f61038c36600461362b565b612667565b61017761039f36600461362b565b6128d1565b61019f6103b2366004613644565b612a06565b60006001600160e01b03198216637965db0b60e01b14806103e857506301ffc9a760e01b6001600160e01b03198316145b92915050565b60c9543390610405906001600160a01b0316612a22565b6001600160a01b031663fb237eb2826040518263ffffffff1660e01b81526004016104309190613874565b60206040518083038186803b15801561044857600080fd5b505afa15801561045c573d6000803e3d6000fd5b505050506040513d601f19601f82011682018060405250810190610480919061360e565b6104a55760405162461bcd60e51b815260040161049c90613a2d565b60405180910390fd5b60006104b083610728565b60c9549091506000906104e3906064906104dd906104d6906001600160a01b0316612a2d565b8590612aaf565b90612ac2565b60c9549091506000906104fe906001600160a01b0316612ace565b6001600160a01b03166330c497006105168585612ad9565b6040518263ffffffff1660e01b815260040161053491815260200190565b60206040518083038186803b15801561054c57600080fd5b505afa158015610560573d6000803e3d6000fd5b505050506040513d601f19601f820116820180604052508101906105849190613716565b60c95490915061059c906001600160a01b0316612ae5565b6001600160a01b031663b1c90b7d836040518263ffffffff1660e01b81526004016105c991815260200190565b600060405180830381600087803b1580156105e357600080fd5b505af11580156105f7573d6000803e3d6000fd5b505050506106053386612af0565b60c95461061a906001600160a01b0316612c0e565b6001600160a01b0316639dc29fac33836040518363ffffffff1660e01b81526004016106479291906138ac565b602060405180830381600087803b15801561066157600080fd5b505af1158015610675573d6000803e3d6000fd5b505050506040513d601f19601f82011682018060405250810190610699919061360e565b50600080516020613c0683398151915233826040516106b99291906138ac565b60405180910390a1600080516020613bc683398151915233826040516106e09291906138ac565b60405180910390a17ffb24c384840b912caf631799804e8d43a3950d690745f2b8501b47c8e8d90fd233866040516107199291906138ac565b60405180910390a15050505050565b60c9546000908190610742906001600160a01b0316612c19565b6001600160a01b0316638c7a63ae846040518263ffffffff1660e01b815260040161076f91815260200190565b60a06040518083038186803b15801561078757600080fd5b505afa15801561079b573d6000803e3d6000fd5b505050506040513d601f19601f820116820180604052508101906107bf919061369e565b905060008160400151905060006107e783608001518460600151612ad990919063ffffffff16565b8351604051634d02fe6f60e01b81526004810188905291925090819060009081906001600160a01b03841690634d02fe6f90602401604080518083038186803b15801561083357600080fd5b505afa158015610847573d6000803e3d6000fd5b505050506040513d601f19601f8201168201806040525081019061086b919061378c565b90925090508186821015610885576108838183612ad9565b505b610899816108938989612c24565b90612ad9565b9a9950505050505050505050565b60009081526065602052604090206001015490565b60006103e88183611206565b6108d1826108a7565b6108da81612c30565b6108e48383612c3a565b505050565b6001600160a01b03811633146109595760405162461bcd60e51b815260206004820152602f60248201527f416363657373436f6e74726f6c3a2063616e206f6e6c792072656e6f756e636560448201526e103937b632b9903337b91039b2b63360891b606482015260840161049c565b6109638282612cc0565b5050565b610970336108bc565b61098c5760405162461bcd60e51b815260040161049c906139b4565b60c95481906109a3906001600160a01b0316612ae5565b60c9546001600160a01b0391821691631aca6376916109c29116612d27565b30876040518463ffffffff1660e01b81526004016109e293929190613888565b600060405180830381600087803b1580156109fc57600080fd5b505af1158015610a10573d6000803e3d6000fd5b5050604051630441a3e760e41b81526004810187905260248101869052600092508291506001600160a01b0384169063441a3e70906044016040805180830381600087803b158015610a6157600080fd5b505af1158015610a75573d6000803e3d6000fd5b505050506040513d601f19601f82011682018060405250810190610a99919061378c565b60c9549193509150600090610ad1906064906104dd90610ac1906001600160a01b0316612da9565b610acb8787612ad9565b90612aaf565b60c954909150610ae9906001600160a01b0316612ae5565b6001600160a01b03166315fd3214826040518263ffffffff1660e01b8152600401610b1691815260200190565b600060405180830381600087803b158015610b3057600080fd5b505af1158015610b44573d6000803e3d6000fd5b505060c954610b5e92506001600160a01b03169050612c19565b60c9546001600160a01b03918216916342842e0e913091610b7f9116612dc1565b8a6040518463ffffffff1660e01b8152600401610b9e93929190613888565b600060405180830381600087803b158015610bb857600080fd5b505af1158015610bcc573d6000803e3d6000fd5b505060c954610c109250610be991506001600160a01b0316612dc1565b60c9548890610c00906001600160a01b0316612dd8565b6001600160a01b03169190612de3565b6040518681527fae8273137a13c9157acb2ab8033f2275a904399ab8612b181636a1e97ad85aad9060200160405180910390a150505050505050565b60c95460009081908190610c68906001600160a01b0316612c19565b60c9546001600160a01b03918216916370a0823191610c879116612dc1565b6040518263ffffffff1660e01b8152600401610ca39190613874565b60206040518083038186803b158015610cbb57600080fd5b505afa158015610ccf573d6000803e3d6000fd5b505050506040513d601f19601f82011682018060405250810190610cf39190613716565b905060005b81811015610dc55760c954610db190610daa90610d1d906001600160a01b0316612c19565b60c9546001600160a01b0391821691632f745c5991610d3c9116612dc1565b856040518363ffffffff1660e01b8152600401610d5a9291906138ac565b60206040518083038186803b158015610d7257600080fd5b505afa158015610d86573d6000803e3d6000fd5b505050506040513d601f19601f820116820180604052508101906101af9190613716565b8490612ad9565b925080610dbd81613b45565b915050610cf8565b509092915050565b610dd6336108bc565b610df25760405162461bcd60e51b815260040161049c906139b4565b60c9548290610e09906001600160a01b0316612ae5565b60c9546001600160a01b0391821691639db5dbe491610e289116612e39565b30876040518463ffffffff1660e01b8152600401610e4893929190613888565b600060405180830381600087803b158015610e6257600080fd5b505af1158015610e76573d6000803e3d6000fd5b505060c954610e9092506001600160a01b03169050612dd8565b6001600160a01b031663095ea7b384866040518363ffffffff1660e01b8152600401610ebd9291906138ac565b602060405180830381600087803b158015610ed757600080fd5b505af1158015610eeb573d6000803e3d6000fd5b505050506040513d601f19601f82011682018060405250810190610f0f919061360e565b50604051631c57762b60e31b815260048101859052602481018390526000906001600160a01b0383169063e2bbb15890604401602060405180830381600087803b158015610f5c57600080fd5b505af1158015610f70573d6000803e3d6000fd5b505050506040513d601f19601f82011682018060405250810190610f949190613716565b60c954909150610fac906001600160a01b0316612c19565b60c9546001600160a01b03918216916342842e0e913091610fcd9116612dc1565b846040518463ffffffff1660e01b8152600401610fec93929190613888565b600060405180830381600087803b15801561100657600080fd5b505af115801561101a573d6000803e3d6000fd5b505050507f112ad4445cb17fe479c08d653586ca99be102b8b2c2f6985405ce6e8bee0f9a98560405161071991815260200190565b611058336108bc565b6110745760405162461bcd60e51b815260040161049c906139b4565b61107f6000826108c8565b50565b61108b336108bc565b6110a75760405162461bcd60e51b815260040161049c906139b4565b60c9546110bc906001600160a01b0316612e51565b60c980546001600160a01b0319166001600160a01b0392909216918217905560405133917f2310d831a9db3a28092d0b5509a976cbeffda5294f3f321086036ed76ebd25949161110c9190613874565b60405180910390a2565b61111f336108bc565b61113b5760405162461bcd60e51b815260040161049c906139b4565b60c954600090611153906001600160a01b0316612e69565b604051631be5545b60e11b8152600160048201526001600160a01b0391909116906337caa8b69060240160006040518083038186803b15801561119557600080fd5b505afa1580156111a9573d6000803e3d6000fd5b505050506040513d6000823e601f3d908101601f191682016040526111d19190810190613556565b6000815181106111e3576111e3613b76565b6020026020010151905061096382826001610dcd565b6112046000336108e9565b565b60009182526065602090815260408084206001600160a01b0393909316845291905290205460ff1690565b60c9543390611248906001600160a01b0316612a22565b6001600160a01b031663fb237eb2826040518263ffffffff1660e01b81526004016112739190613874565b60206040518083038186803b15801561128b57600080fd5b505afa15801561129f573d6000803e3d6000fd5b505050506040513d601f19601f820116820180604052508101906112c3919061360e565b6112df5760405162461bcd60e51b815260040161049c90613a2d565b6112e8836128d1565b15156001146113095760405162461bcd60e51b815260040161049c9061393c565b600061131484610728565b60c95490915060009061132f906001600160a01b0316612ace565b6001600160a01b03166330c49700836040518263ffffffff1660e01b815260040161135c91815260200190565b60206040518083038186803b15801561137457600080fd5b505afa158015611388573d6000803e3d6000fd5b505050506040513d601f19601f820116820180604052508101906113ac9190613716565b60c9549091506113c4906001600160a01b0316612c19565b60c9546001600160a01b03918216916342842e0e9133916113e59116612dc1565b886040518463ffffffff1660e01b815260040161140493929190613888565b600060405180830381600087803b15801561141e57600080fd5b505af1158015611432573d6000803e3d6000fd5b505050600086815260ca6020526040902080546001600160a01b031916331790555083156115ed5760c95461146f906001600160a01b0316612c0e565b60c9546001600160a01b03918216916340c10f199161148e9116612dc1565b836040518363ffffffff1660e01b81526004016114ac9291906138ac565b602060405180830381600087803b1580156114c657600080fd5b505af11580156114da573d6000803e3d6000fd5b505050506040513d601f19601f820116820180604052508101906114fe919061360e565b5060c954611514906001600160a01b0316612e74565b6001600160a01b0316636374299e33836040518363ffffffff1660e01b81526004016115419291906138ac565b600060405180830381600087803b15801561155b57600080fd5b505af115801561156f573d6000803e3d6000fd5b505060c954600080516020613c26833981519152925061159891506001600160a01b0316612dc1565b826040516115a79291906138ac565b60405180910390a17febedb8b3c678666e7f36970bc8f57abf6d8fa2e828c0da91ea5b75bf68ed101a33826040516115e09291906138ac565b60405180910390a16116aa565b60c954611602906001600160a01b0316612c0e565b6001600160a01b03166340c10f1933836040518363ffffffff1660e01b815260040161162f9291906138ac565b602060405180830381600087803b15801561164957600080fd5b505af115801561165d573d6000803e3d6000fd5b505050506040513d601f19601f82011682018060405250810190611681919061360e565b50600080516020613c2683398151915233826040516116a19291906138ac565b60405180910390a15b600080516020613be683398151915233866040516107199291906138ac565b60c95433906116e0906001600160a01b0316612a22565b6001600160a01b031663fb237eb2826040518263ffffffff1660e01b815260040161170b9190613874565b60206040518083038186803b15801561172357600080fd5b505afa158015611737573d6000803e3d6000fd5b505050506040513d601f19601f8201168201806040525081019061175b919061360e565b6117775760405162461bcd60e51b815260040161049c90613a2d565b60c95460009061178f906001600160a01b0316612ace565b6001600160a01b031663f1017a16846040518263ffffffff1660e01b81526004016117bc91815260200190565b60206040518083038186803b1580156117d457600080fd5b505afa1580156117e8573d6000803e3d6000fd5b505050506040513d601f19601f8201168201806040525081019061180c9190613716565b60c954909150600090611832906064906104dd906104d6906001600160a01b0316612e7f565b905060006118408383612c24565b60c954909150611858906001600160a01b0316612c0e565b6001600160a01b0316639dc29fac33876040518363ffffffff1660e01b81526004016118859291906138ac565b602060405180830381600087803b15801561189f57600080fd5b505af11580156118b3573d6000803e3d6000fd5b505050506040513d601f19601f820116820180604052508101906118d7919061360e565b5060c9546118ed906001600160a01b0316612ae5565b6001600160a01b03166331692562836040518263ffffffff1660e01b815260040161191a91815260200190565b600060405180830381600087803b15801561193457600080fd5b505af1158015611948573d6000803e3d6000fd5b505060c95461196292506001600160a01b03169050612ae5565b60c9546001600160a01b0391821691639db5dbe4916119819116612e39565b30846040518463ffffffff1660e01b81526004016119a193929190613888565b600060405180830381600087803b1580156119bb57600080fd5b505af11580156119cf573d6000803e3d6000fd5b505060c9546119e992506001600160a01b03169050612dd8565b60c9546001600160a01b039182169163095ea7b391611a089116612e97565b836040518363ffffffff1660e01b8152600401611a269291906138ac565b602060405180830381600087803b158015611a4057600080fd5b505af1158015611a54573d6000803e3d6000fd5b505050506040513d601f19601f82011682018060405250810190611a78919061360e565b5060c954600090611a91906001600160a01b0316612eaf565b6001600160a01b031663b6b55f25836040518263ffffffff1660e01b8152600401611abe91815260200190565b602060405180830381600087803b158015611ad857600080fd5b505af1158015611aec573d6000803e3d6000fd5b505050506040513d601f19601f82011682018060405250810190611b109190613716565b60c954909150611b309033908390610c00906001600160a01b0316612eba565b6040518181527fd483110686f79d1f5932d32add1024998649ddca927700b75bea458b4cb7cde69060200160405180910390a1600080516020613bc68339815191523387604051611b829291906138ac565b60405180910390a1600080516020613c068339815191523387604051611ba99291906138ac565b60405180910390a1505050505050565b60c9546000908190611bd3906001600160a01b0316612c19565b60c9546001600160a01b03918216916370a0823191611bf29116612dc1565b6040518263ffffffff1660e01b8152600401611c0e9190613874565b60206040518083038186803b158015611c2657600080fd5b505afa158015611c3a573d6000803e3d6000fd5b505050506040513d601f19601f82011682018060405250810190611c5e9190613716565b90506000805b82811015611d575760c954600090611c84906001600160a01b0316612c19565b60c9546001600160a01b0391821691632f745c5991611ca39116612dc1565b846040518363ffffffff1660e01b8152600401611cc19291906138ac565b60206040518083038186803b158015611cd957600080fd5b505afa158015611ced573d6000803e3d6000fd5b505050506040513d601f19601f82011682018060405250810190611d119190613716565b600081815260ca60205260409020549091506001600160a01b0387811691161415611d4457611d41600184613a8e565b92505b5080611d4f81613b45565b915050611c64565b509392505050565b611d68336108bc565b611d845760405162461bcd60e51b815260040161049c906139b4565b60c954600090611d9c906001600160a01b0316612ace565b6001600160a01b0316635d6de7806040518163ffffffff1660e01b815260040160206040518083038186803b158015611dd457600080fd5b505afa158015611de8573d6000803e3d6000fd5b505050506040513d601f19601f82011682018060405250810190611e0c9190613716565b60c954909150600090611e27906001600160a01b0316612ae5565b6001600160a01b031663972f24276040518163ffffffff1660e01b815260040160206040518083038186803b158015611e5f57600080fd5b505afa158015611e73573d6000803e3d6000fd5b505050506040513d601f19601f82011682018060405250810190611e979190613716565b60c954909150611eaf906001600160a01b0316612ec5565b611ec2836104dd6064610acb8387612c24565b11611f205760405162461bcd60e51b815260206004820152602860248201527f7573646320746f6b656e206d757374207265616368206365727461696e2070656044820152677263656e7461676560c01b606482015260840161049c565b6109636102bc8383612c24565b611f36336108bc565b611f525760405162461bcd60e51b815260040161049c906139b4565b60c954611f67906001600160a01b0316612ae5565b60c9546001600160a01b0391821691639db5dbe491611f869116612e39565b30846040518463ffffffff1660e01b8152600401611fa693929190613888565b600060405180830381600087803b158015611fc057600080fd5b505af1158015611fd4573d6000803e3d6000fd5b505060c954611fee92506001600160a01b03169050612dd8565b60c9546001600160a01b039182169163095ea7b39161200d9116612e97565b836040518363ffffffff1660e01b815260040161202b9291906138ac565b602060405180830381600087803b15801561204557600080fd5b505af1158015612059573d6000803e3d6000fd5b505050506040513d601f19601f8201168201806040525081019061207d919061360e565b5060c954600090612096906001600160a01b0316612eaf565b6001600160a01b031663b6b55f25836040518263ffffffff1660e01b81526004016120c391815260200190565b602060405180830381600087803b1580156120dd57600080fd5b505af11580156120f1573d6000803e3d6000fd5b505050506040513d601f19601f820116820180604052508101906121159190613716565b60c95490915061214890612131906001600160a01b0316612dc1565b60c9548390610c00906001600160a01b0316612eba565b6040518281527f8ea9949c95efcf665f353c8252ea097d6d7f08327dcdacd7bb6724b90d3c8007906020015b60405180910390a15050565b600061218c6001612edd565b905080156121a4576000805461ff0019166101001790555b6121ad33612f6c565b60c980546001600160a01b0319166001600160a01b0384161790558015610963576000805461ff0019169055604051600181527f7f26b83ff96e1f2b6a682f133852f6798a09c465da95921460cefb384740249890602001612174565b60c954606090600090612225906001600160a01b0316612c19565b60c9546001600160a01b03918216916370a08231916122449116612dc1565b6040518263ffffffff1660e01b81526004016122609190613874565b60206040518083038186803b15801561227857600080fd5b505afa15801561228c573d6000803e3d6000fd5b505050506040513d601f19601f820116820180604052508101906122b09190613716565b905060006122bd84611bb9565b6001600160401b038111156122d4576122d4613b8c565b6040519080825280602002602001820160405280156122fd578160200160208202803683370190505b5090506000805b838110156124155760c954600090612324906001600160a01b0316612c19565b60c9546001600160a01b0391821691632f745c59916123439116612dc1565b846040518363ffffffff1660e01b81526004016123619291906138ac565b60206040518083038186803b15801561237957600080fd5b505afa15801561238d573d6000803e3d6000fd5b505050506040513d601f19601f820116820180604052508101906123b19190613716565b600081815260ca60205260409020549091506001600160a01b038881169116141561240257808484815181106123e9576123e9613b76565b60209081029190910101526123ff600184613a8e565b92505b508061240d81613b45565b915050612304565b5090949350505050565b612428336108bc565b6124445760405162461bcd60e51b815260040161049c906139b4565b60c954612459906001600160a01b0316612ae5565b60c9546001600160a01b0391821691639db5dbe4916124789116612fa6565b30846040518463ffffffff1660e01b815260040161249893929190613888565b600060405180830381600087803b1580156124b257600080fd5b505af11580156124c6573d6000803e3d6000fd5b505060c954600092506124e291506001600160a01b0316612eaf565b6001600160a01b03166358031d12836040518263ffffffff1660e01b815260040161250f91815260200190565b602060405180830381600087803b15801561252957600080fd5b505af115801561253d573d6000803e3d6000fd5b505050506040513d601f19601f820116820180604052508101906125619190613716565b60c954909150600090612587906064906104dd906104d6906001600160a01b0316612da9565b60c95490915061259f906001600160a01b0316612ae5565b6001600160a01b03166315fd3214826040518263ffffffff1660e01b81526004016125cc91815260200190565b600060405180830381600087803b1580156125e657600080fd5b505af11580156125fa573d6000803e3d6000fd5b505060c95461262e925061261791506001600160a01b0316612dc1565b60c9548490610c00906001600160a01b0316612dd8565b6040518381527fbb4f02e3383be3173f64e0748792405cefcc4e6a060d1a80d0688f77561a6b82906020015b60405180910390a1505050565b60c954339061267e906001600160a01b0316612a22565b6001600160a01b031663fb237eb2826040518263ffffffff1660e01b81526004016126a99190613874565b60206040518083038186803b1580156126c157600080fd5b505afa1580156126d5573d6000803e3d6000fd5b505050506040513d601f19601f820116820180604052508101906126f9919061360e565b6127155760405162461bcd60e51b815260040161049c90613a2d565b61271e826128d1565b151560011461273f5760405162461bcd60e51b815260040161049c9061393c565b600061274a83610728565b600084815260ca6020526040902080546001600160a01b0319163317905560c954909150612780906001600160a01b0316612c19565b60c9546001600160a01b03918216916342842e0e9133916127a19116612dc1565b866040518463ffffffff1660e01b81526004016127c093929190613888565b600060405180830381600087803b1580156127da57600080fd5b505af11580156127ee573d6000803e3d6000fd5b505060c95461280892506001600160a01b03169050612ae5565b60c9546001600160a01b0391821691639db5dbe4916128279116612e39565b33846040518463ffffffff1660e01b815260040161284793929190613888565b600060405180830381600087803b15801561286157600080fd5b505af1158015612875573d6000803e3d6000fd5b50505050600080516020613be683398151915233846040516128989291906138ac565b60405180910390a17f7f44de6140ac94ee96b0dfa0ba79e41a195ccccc65b479699754a1707b4396f3338260405161265a9291906138ac565b60c95460009081906128eb906001600160a01b0316612c19565b6001600160a01b0316638c7a63ae846040518263ffffffff1660e01b815260040161291891815260200190565b60a06040518083038186803b15801561293057600080fd5b505afa158015612944573d6000803e3d6000fd5b505050506040513d601f19601f82011682018060405250810190612968919061369e565b805160c95491925090612983906001600160a01b0316612c19565b6001600160a01b031663b5ada6d8826040518263ffffffff1660e01b81526004016129ae9190613874565b60206040518083038186803b1580156129c657600080fd5b505afa1580156129da573d6000803e3d6000fd5b505050506040513d601f19601f820116820180604052508101906129fe919061360e565b949350505050565b612a0f826108a7565b612a1881612c30565b6108e48383612cc0565b60006103e882612fbe565b60006001600160a01b03821663fc56365860045b6040518263ffffffff1660e01b8152600401612a5f91815260200190565b60206040518083038186803b158015612a7757600080fd5b505afa158015612a8b573d6000803e3d6000fd5b505050506040513d601f19601f820116820180604052508101906103e89190613716565b6000612abb8284613ac8565b9392505050565b6000612abb8284613aa6565b60006103e882612fd6565b6000612abb8284613a8e565b60006103e882612dc1565b600081815260ca60205260409020546001600160a01b03838116911614612b695760405162461bcd60e51b815260206004820152602760248201527f54686520746f6b656e206973206e6f74206465706f736974656420627920746860448201526634b9903ab9b2b960c91b606482015260840161049c565b60c954612b7e906001600160a01b0316612ae5565b60c9546001600160a01b0391821691631aca637691612b9d9116612d27565b84846040518463ffffffff1660e01b8152600401612bbd93929190613888565b600060405180830381600087803b158015612bd757600080fd5b505af1158015612beb573d6000803e3d6000fd5b50505060009182525060ca6020526040902080546001600160a01b031916905550565b60006103e882612fee565b60006103e882612d27565b6000612abb8284613ae7565b61107f8133613006565b612c448282611206565b6109635760008281526065602090815260408083206001600160a01b03851684529091529020805460ff19166001179055612c7c3390565b6001600160a01b0316816001600160a01b0316837f2f8788117e7eff1d82e926ec794901d17c78024a50270940304540a733656f0d60405160405180910390a45050565b612cca8282611206565b156109635760008281526065602090815260408083206001600160a01b0385168085529252808320805460ff1916905551339285917ff6391f5c32d9c69d2a47ea670b442974b53935d1edc7fd64eb21e047a839171b9190a45050565b60006001600160a01b03821663b93f9b0a60085b6040518263ffffffff1660e01b8152600401612d5991815260200190565b60206040518083038186803b158015612d7157600080fd5b505afa158015612d85573d6000803e3d6000fd5b505050506040513d601f19601f820116820180604052508101906103e89190613476565b60006001600160a01b03821663fc5636586002612a41565b60006001600160a01b03821663b93f9b0a82612d3b565b60006103e882612e39565b6108e48363a9059cbb60e01b8484604051602401612e029291906138ac565b60408051601f198184030181529190526020810180516001600160e01b03166001600160e01b03199093169290921790915261306a565b60006001600160a01b03821663b93f9b0a600d612d3b565b60006001600160a01b03821663b93f9b0a6002612d3b565b60006103e88261313c565b60006103e882613154565b60006001600160a01b03821663fc5636586001612a41565b60006001600160a01b03821663b93f9b0a6009612d3b565b60006103e882612e97565b60006103e882612fa6565b60006001600160a01b03821663fc5636586005612a41565b60008054610100900460ff1615612f2b578160ff166001148015612f075750612f053061316c565b155b612f235760405162461bcd60e51b815260040161049c90613966565b506000919050565b60005460ff808416911610612f525760405162461bcd60e51b815260040161049c90613966565b506000805460ff191660ff92909216919091179055600190565b600054610100900460ff16612f935760405162461bcd60e51b815260040161049c906139e2565b612f9b61317b565b61107f6000826131a2565b60006001600160a01b03821663b93f9b0a600b612d3b565b60006001600160a01b03821663b93f9b0a6006612d3b565b60006001600160a01b03821663b93f9b0a6001612d3b565b60006001600160a01b03821663b93f9b0a600e612d3b565b6130108282611206565b61096357613028816001600160a01b031660146131ac565b6130338360206131ac565b604051602001613044929190613805565b60408051601f198184030181529082905262461bcd60e51b825261049c91600401613909565b60006130bf826040518060400160405280602081526020017f5361666545524332303a206c6f772d6c6576656c2063616c6c206661696c6564815250856001600160a01b03166133479092919063ffffffff16565b8051909150156108e457808060200190518101906130dd919061360e565b6108e45760405162461bcd60e51b815260206004820152602a60248201527f5361666545524332303a204552433230206f7065726174696f6e20646964206e6044820152691bdd081cdd58d8d9595960b21b606482015260840161049c565b60006001600160a01b03821663b93f9b0a600a612d3b565b60006001600160a01b03821663b93f9b0a6007612d3b565b6001600160a01b03163b151590565b600054610100900460ff166112045760405162461bcd60e51b815260040161049c906139e2565b6109638282612c3a565b606060006131bb836002613ac8565b6131c6906002613a8e565b6001600160401b038111156131dd576131dd613b8c565b6040519080825280601f01601f191660200182016040528015613207576020820181803683370190505b509050600360fc1b8160008151811061322257613222613b76565b60200101906001600160f81b031916908160001a905350600f60fb1b8160018151811061325157613251613b76565b60200101906001600160f81b031916908160001a9053506000613275846002613ac8565b613280906001613a8e565b90505b60018111156132f8576f181899199a1a9b1b9c1cb0b131b232b360811b85600f16601081106132b4576132b4613b76565b1a60f81b8282815181106132ca576132ca613b76565b60200101906001600160f81b031916908160001a90535060049490941c936132f181613b2e565b9050613283565b508315612abb5760405162461bcd60e51b815260206004820181905260248201527f537472696e67733a20686578206c656e67746820696e73756666696369656e74604482015260640161049c565b60606129fe84846000858561335b8561316c565b6133a75760405162461bcd60e51b815260206004820152601d60248201527f416464726573733a2063616c6c20746f206e6f6e2d636f6e7472616374000000604482015260640161049c565b600080866001600160a01b031685876040516133c391906137e9565b60006040518083038185875af1925050503d8060008114613400576040519150601f19603f3d011682016040523d82523d6000602084013e613405565b606091505b5091509150613415828286613420565b979650505050505050565b6060831561342f575081612abb565b82511561343f5782518084602001fd5b8160405162461bcd60e51b815260040161049c9190613909565b60006020828403121561346b57600080fd5b8135612abb81613ba2565b60006020828403121561348857600080fd5b8151612abb81613ba2565b600080600080608085870312156134a957600080fd5b84356134b481613ba2565b93506020858101356134c581613ba2565b93506040860135925060608601356001600160401b03808211156134e857600080fd5b818801915088601f8301126134fc57600080fd5b81358181111561350e5761350e613b8c565b613520601f8201601f19168501613a5e565b9150808252898482850101111561353657600080fd5b808484018584013760008482840101525080935050505092959194509250565b6000602080838503121561356957600080fd5b82516001600160401b038082111561358057600080fd5b818501915085601f83011261359457600080fd5b8151818111156135a6576135a6613b8c565b8060051b91506135b7848301613a5e565b8181528481019084860184860187018a10156135d257600080fd5b600095505b8386101561360157805194506135ec85613ba2565b848352600195909501949186019186016135d7565b5098975050505050505050565b60006020828403121561362057600080fd5b8151612abb81613bb7565b60006020828403121561363d57600080fd5b5035919050565b6000806040838503121561365757600080fd5b82359150602083013561366981613ba2565b809150509250929050565b60006020828403121561368657600080fd5b81356001600160e01b031981168114612abb57600080fd5b600060a082840312156136b057600080fd5b60405160a081016001600160401b03811182821017156136d2576136d2613b8c565b60405282516136e081613ba2565b80825250602083015160208201526040830151604082015260608301516060820152608083015160808201528091505092915050565b60006020828403121561372857600080fd5b5051919050565b60008060006060848603121561374457600080fd5b83359250602084013561375681613ba2565b929592945050506040919091013590565b6000806040838503121561377a57600080fd5b82359150602083013561366981613bb7565b6000806040838503121561379f57600080fd5b505080516020909101519092909150565b6000806000606084860312156137c557600080fd5b833592506020840135915060408401356137de81613ba2565b809150509250925092565b600082516137fb818460208701613afe565b9190910192915050565b76020b1b1b2b9b9a1b7b73a3937b61d1030b1b1b7bab73a1604d1b815260008351613837816017850160208801613afe565b7001034b99036b4b9b9b4b733903937b6329607d1b6017918401918201528351613868816028840160208801613afe565b01602801949350505050565b6001600160a01b0391909116815260200190565b6001600160a01b039384168152919092166020820152604081019190915260600190565b6001600160a01b03929092168252602082015260400190565b6020808252825182820181905260009190848201906040850190845b818110156138fd578351835292840192918401916001016138e1565b50909695505050505050565b6020815260008251806020840152613928816040850160208701613afe565b601f01601f19169190910160400192915050565b60208082526010908201526f139bdd0818481d985b1a59081c1bdbdb60821b604082015260600190565b6020808252602e908201527f496e697469616c697a61626c653a20636f6e747261637420697320616c72656160408201526d191e481a5b9a5d1a585b1a5e995960921b606082015260800190565b6020808252601490820152735265737472696374656420746f2061646d696e7360601b604082015260600190565b6020808252602b908201527f496e697469616c697a61626c653a20636f6e7472616374206973206e6f74206960408201526a6e697469616c697a696e6760a81b606082015260800190565b6020808252601790820152761d5cd95c881a5cc81b9bdd081dda1a5d195b1a5cdd1959604a1b604082015260600190565b604051601f8201601f191681016001600160401b0381118282101715613a8657613a86613b8c565b604052919050565b60008219821115613aa157613aa1613b60565b500190565b600082613ac357634e487b7160e01b600052601260045260246000fd5b500490565b6000816000190483118215151615613ae257613ae2613b60565b500290565b600082821015613af957613af9613b60565b500390565b60005b83811015613b19578181015183820152602001613b01565b83811115613b28576000848401525b50505050565b600081613b3d57613b3d613b60565b506000190190565b6000600019821415613b5957613b59613b60565b5060010190565b634e487b7160e01b600052601160045260246000fd5b634e487b7160e01b600052603260045260246000fd5b634e487b7160e01b600052604160045260246000fd5b6001600160a01b038116811461107f57600080fd5b801515811461107f57600080fdfea736b6e79f86ae8f61c99d18e6d008412bc4bca0fec68bd9010c12c3ea3d1d66f0617702900e263eded17bfcd1001bf5392186cfeb9f24243ccdbb2ed4af919acc16f5dbb4873280815c1ee09dbd06736cffcc184412cf7a71a0fdb75d397ca50f6798a560793a54c3bcfe86a93cde1e73087d944c0ea20544137d4121396885a264697066735822122065dd4ba19e113d504b4066f3c98e7306c7ed9c6900e5da6b45518803517d881f64736f6c63430008070033",
  "linkReferences": {},
  "deployedLinkReferences": {}
}