{
  "address": "0x9C3954aF0Da5710B6B64A8abb90Da2bd198cf53E",
  "abi": [
    {
      "inputs": [
        {
          "internalType": "address",
          "name": "_usdcCoinAddress",
          "type": "address"
        },
        {
          "internalType": "address",
          "name": "_fiduCoinAddress",
          "type": "address"
        },
        {
          "internalType": "address",
          "name": "_gfiCoinAddress",
          "type": "address"
        },
        {
          "internalType": "address",
          "name": "_poolTokenAddress",
          "type": "address"
        },
        {
          "internalType": "address",
          "name": "_seniorPoolAddress",
          "type": "address"
        },
        {
          "internalType": "address",
          "name": "_coreVaultAddress",
          "type": "address"
        }
      ],
      "stateMutability": "nonpayable",
      "type": "constructor"
    },
    {
      "anonymous": false,
      "inputs": [
        {
          "indexed": true,
          "internalType": "address",
          "name": "previousOwner",
          "type": "address"
        },
        {
          "indexed": true,
          "internalType": "address",
          "name": "newOwner",
          "type": "address"
        }
      ],
      "name": "OwnershipTransferred",
      "type": "event"
    },
    {
      "inputs": [
        {
          "internalType": "address",
          "name": "_poolToken",
          "type": "address"
        }
      ],
      "name": "changePoolTokenAddress",
      "outputs": [],
      "stateMutability": "nonpayable",
      "type": "function"
    },
    {
      "inputs": [
        {
          "internalType": "address",
          "name": "_seniorPool",
          "type": "address"
        }
      ],
      "name": "changeSeniorPoolAddress",
      "outputs": [],
      "stateMutability": "nonpayable",
      "type": "function"
    },
    {
      "inputs": [],
      "name": "destroy",
      "outputs": [],
      "stateMutability": "nonpayable",
      "type": "function"
    },
    {
      "inputs": [],
      "name": "getGFIBalance",
      "outputs": [
        {
          "internalType": "uint256",
          "name": "",
          "type": "uint256"
        }
      ],
      "stateMutability": "view",
      "type": "function"
    },
    {
      "inputs": [],
      "name": "getGoldfinchDelegacyBalanceInUSDC",
      "outputs": [
        {
          "internalType": "uint256",
          "name": "",
          "type": "uint256"
        }
      ],
      "stateMutability": "view",
      "type": "function"
    },
    {
      "inputs": [
        {
          "internalType": "uint256",
          "name": "_tokenID",
          "type": "uint256"
        }
      ],
      "name": "getJuniorTokenValue",
      "outputs": [
        {
          "internalType": "uint256",
          "name": "",
          "type": "uint256"
        }
      ],
      "stateMutability": "view",
      "type": "function"
    },
    {
      "inputs": [],
      "name": "getUSDCBalance",
      "outputs": [
        {
          "internalType": "uint256",
          "name": "",
          "type": "uint256"
        }
      ],
      "stateMutability": "view",
      "type": "function"
    },
    {
      "inputs": [
        {
          "internalType": "uint256",
          "name": "_tokenID",
          "type": "uint256"
        }
      ],
      "name": "isValidPool",
      "outputs": [
        {
          "internalType": "bool",
          "name": "",
          "type": "bool"
        }
      ],
      "stateMutability": "view",
      "type": "function"
    },
    {
      "inputs": [
        {
          "internalType": "address payable",
          "name": "_toAddress",
          "type": "address"
        }
      ],
      "name": "migrateAllGoldfinchPoolTokens",
      "outputs": [],
      "stateMutability": "nonpayable",
      "type": "function"
    },
    {
      "inputs": [
        {
          "internalType": "address",
          "name": "_tokenAddress",
          "type": "address"
        },
        {
          "internalType": "address payable",
          "name": "_to",
          "type": "address"
        }
      ],
      "name": "migrateERC20",
      "outputs": [],
      "stateMutability": "nonpayable",
      "type": "function"
    },
    {
      "inputs": [
        {
          "internalType": "address payable",
          "name": "_toAddress",
          "type": "address"
        },
        {
          "internalType": "uint256",
          "name": "_tokenId",
          "type": "uint256"
        }
      ],
      "name": "migrateGoldfinchPoolTokens",
      "outputs": [],
      "stateMutability": "nonpayable",
      "type": "function"
    },
    {
      "inputs": [],
      "name": "owner",
      "outputs": [
        {
          "internalType": "address",
          "name": "",
          "type": "address"
        }
      ],
      "stateMutability": "view",
      "type": "function"
    },
    {
      "inputs": [
        {
          "internalType": "address",
          "name": "_to",
          "type": "address"
        },
        {
          "internalType": "uint256",
          "name": "_amount",
          "type": "uint256"
        }
      ],
      "name": "payUsdc",
      "outputs": [],
      "stateMutability": "nonpayable",
      "type": "function"
    },
    {
      "inputs": [
        {
          "internalType": "uint256",
          "name": "amount",
          "type": "uint256"
        },
        {
          "internalType": "address",
          "name": "poolAddress",
          "type": "address"
        },
        {
          "internalType": "uint256",
          "name": "tranche",
          "type": "uint256"
        }
      ],
      "name": "purchaseJuniorToken",
      "outputs": [],
      "stateMutability": "nonpayable",
      "type": "function"
    },
    {
      "inputs": [
        {
          "internalType": "uint256",
          "name": "amount",
          "type": "uint256"
        }
      ],
      "name": "purchaseSeniorTokens",
      "outputs": [],
      "stateMutability": "nonpayable",
      "type": "function"
    },
    {
      "inputs": [],
      "name": "renounceOwnership",
      "outputs": [],
      "stateMutability": "nonpayable",
      "type": "function"
    },
    {
      "inputs": [
        {
          "internalType": "address",
          "name": "newOwner",
          "type": "address"
        }
      ],
      "name": "transferOwnership",
      "outputs": [],
      "stateMutability": "nonpayable",
      "type": "function"
    },
    {
      "inputs": [
        {
          "internalType": "address",
          "name": "_tokenAddress",
          "type": "address"
        },
        {
          "internalType": "address",
          "name": "_depositor",
          "type": "address"
        },
        {
          "internalType": "uint256",
          "name": "_tokenID",
          "type": "uint256"
        }
      ],
      "name": "validatesTokenToDepositAndGetPurchasePrice",
      "outputs": [
        {
          "internalType": "uint256",
          "name": "",
          "type": "uint256"
        }
      ],
      "stateMutability": "nonpayable",
      "type": "function"
    }
  ],
  "transactionHash": "0xd6f84092ccf442184ac40cd4fc8117c9ac3d4cd7f1d6c95e66d558b879207116",
  "args": [
    "0x913366dD0b792E61770Edf8B71Ce9abA0Ed8F8ae",
    "0xC7eE4D7cEc57AE7Caa369932af46DaF2c33a25D7",
    "0x7C146CA1282A15851f76eC808FD7CE9a3EeCBcc2",
    "0x3acC7D62Bb69C754f3825Da4C3eeB7657e6e6830",
    "0x21303Dd2984075c0499681ac0b98607dEdF83D17",
    "0x0000000000000000000000000000000000000000"
  ],
  "numDeployments": 1,
  "solcInputHash": "7afbb7f64cec9d052504fb35d8e3a51c",
  "bytecode": "0x60806040523480156200001157600080fd5b50604051620025e8380380620025e883398101604081905262000034916200011e565b6200003f33620000b1565b600180546001600160a01b03199081166001600160a01b039889161790915560028054821695881695909517909455600380548516958716959095179094556004805484169286169290921790915560058054831691851691909117905560068054909116919092161790556200019f565b600080546001600160a01b038381166001600160a01b0319831681178455604051919092169283917f8be0079c531659141344cd1fd0a4f28419497f9722a3daafe3b4186f6b6457e09190a35050565b80516001600160a01b03811681146200011957600080fd5b919050565b60008060008060008060c087890312156200013857600080fd5b620001438762000101565b9550620001536020880162000101565b9450620001636040880162000101565b9350620001736060880162000101565b9250620001836080880162000101565b91506200019360a0880162000101565b90509295509295509295565b61243980620001af6000396000f3fe608060405234801561001057600080fd5b50600436106101365760003560e01c806383197ef0116100b2578063917f69fe11610081578063d905e9b411610066578063d905e9b41461024e578063e7e808e614610261578063f2fde38b1461027457600080fd5b8063917f69fe14610218578063d2d9cc641461022b57600080fd5b806383197ef0146101cf5780638682caf8146101d75780638da5cb5b146101ea5780638f2da01d1461020557600080fd5b80634604087211610109578063531d7dec116100ee578063531d7dec146101ac578063715018a6146101b457806375af1df8146101bc57600080fd5b80634604087214610191578063523a5c29146101a457600080fd5b80630d8b04081461013b578063196b5443146101615780631b61eb67146101765780633cfd1ccc14610189575b600080fd5b61014e61014936600461213a565b610287565b6040519081526020015b60405180910390f35b61017461016f366004611feb565b610418565b005b61017461018436600461216c565b6104a1565b61014e6106d0565b61017461019f366004611fb1565b610752565b61014e6107db565b61014e61080c565b610174610896565b6101746101ca366004611fb1565b6108fc565b6101746109a9565b6101746101e5366004611fb1565b610d33565b6000546040516001600160a01b039091168152602001610158565b61017461021336600461213a565b610dbc565b610174610226366004611feb565b610fdf565b61023e61023936600461213a565b6110c3565b6040519015158152602001610158565b61017461025c366004612017565b6111e9565b61014e61026f366004612050565b6112d3565b610174610282366004611fb1565b611771565b6004805460405163463d31d760e11b815291820183905260009182916001600160a01b031690638c7a63ae9060240160a06040518083038186803b1580156102ce57600080fd5b505afa1580156102e2573d6000803e3d6000fd5b505050506040513d601f19601f8201168201806040525081019061030691906120b3565b9050600081604001519050600061032e8360800151846060015161185390919063ffffffff16565b83516040517f4d02fe6f0000000000000000000000000000000000000000000000000000000081526004810188905291925090819060009081906001600160a01b03841690634d02fe6f90602401604080518083038186803b15801561039357600080fd5b505afa1580156103a7573d6000803e3d6000fd5b505050506040513d601f19601f820116820180604052508101906103cb9190612193565b909250905081868210156103e5576103e38183611853565b505b61040a6103f0611868565b610404836103fe8b8b611876565b90611853565b90611882565b9a9950505050505050505050565b6006546001600160a01b031633146104865760405162461bcd60e51b815260206004820152602660248201527f5468652066756e6374696f6e206d7573742062652063616c6c65642066726f6d604482015265081d985d5b1d60d21b60648201526084015b60405180910390fd5b60015461049d906001600160a01b0316838361188e565b5050565b6006546001600160a01b0316331461050a5760405162461bcd60e51b815260206004820152602660248201527f5468652066756e6374696f6e206d7573742062652063616c6c65642066726f6d604482015265081d985d5b1d60d21b606482015260840161047d565b6001546040516370a0823160e01b815230600482015284916001600160a01b0316906370a082319060240160206040518083038186803b15801561054d57600080fd5b505afa158015610561573d6000803e3d6000fd5b505050506040513d601f19601f820116820180604052508101906105859190612153565b10156105dd5760405162461bcd60e51b815260206004820152602160248201527f5661756c742068617320696e737566666963656e7420737461626c6520636f696044820152603760f91b606482015260840161047d565b6000831161062d5760405162461bcd60e51b815260206004820152601b60248201527f4d757374206465706f736974206d6f7265207468616e207a65726f0000000000604482015260640161047d565b6040517fe2bbb158000000000000000000000000000000000000000000000000000000008152600481018490526024810182905282906001600160a01b0382169063e2bbb15890604401602060405180830381600087803b15801561069157600080fd5b505af11580156106a5573d6000803e3d6000fd5b505050506040513d601f19601f820116820180604052508101906106c99190612153565b5050505050565b6001546040516370a0823160e01b81523060048201526000916001600160a01b0316906370a08231906024015b60206040518083038186803b15801561071557600080fd5b505afa158015610729573d6000803e3d6000fd5b505050506040513d601f19601f8201168201806040525081019061074d9190612153565b905090565b6000546001600160a01b031633146107ac5760405162461bcd60e51b815260206004820181905260248201527f4f776e61626c653a2063616c6c6572206973206e6f7420746865206f776e6572604482015260640161047d565b6004805473ffffffffffffffffffffffffffffffffffffffff19166001600160a01b0392909216919091179055565b6002546040516370a0823160e01b81523060048201526000916001600160a01b0316906370a08231906024016106fd565b6006546000906001600160a01b031633146108785760405162461bcd60e51b815260206004820152602660248201527f5468652066756e6374696f6e206d7573742062652063616c6c65642066726f6d604482015265081d985d5b1d60d21b606482015260840161047d565b61074d61088361190e565b6103fe61088e6106d0565b6103fe611a60565b6000546001600160a01b031633146108f05760405162461bcd60e51b815260206004820181905260248201527f4f776e61626c653a2063616c6c6572206973206e6f7420746865206f776e6572604482015260640161047d565b6108fa6000611b8d565b565b6000546001600160a01b031633146109565760405162461bcd60e51b815260206004820181905260248201527f4f776e61626c653a2063616c6c6572206973206e6f7420746865206f776e6572604482015260640161047d565b600061096130611bea565b905060005b81518110156109a45761099283838381518110610985576109856123c2565b6020026020010151610fdf565b8061099c81612391565b915050610966565b505050565b6000546001600160a01b03163314610a035760405162461bcd60e51b815260206004820181905260248201527f4f776e61626c653a2063616c6c6572206973206e6f7420746865206f776e6572604482015260640161047d565b6001546040516370a0823160e01b81523060048201526001600160a01b03909116906370a082319060240160206040518083038186803b158015610a4657600080fd5b505afa158015610a5a573d6000803e3d6000fd5b505050506040513d601f19601f82011682018060405250810190610a7e9190612153565b15610acb5760405162461bcd60e51b815260206004820181905260248201527f42616c616e6365206f6620737461626c6520636f696e206d7573742062652030604482015260640161047d565b6003546040516370a0823160e01b81523060048201526001600160a01b03909116906370a082319060240160206040518083038186803b158015610b0e57600080fd5b505afa158015610b22573d6000803e3d6000fd5b505050506040513d601f19601f82011682018060405250810190610b469190612153565b15610b935760405162461bcd60e51b815260206004820152601e60248201527f42616c616e6365206f66204669647520636f696e206d75737420626520300000604482015260640161047d565b6002546040516370a0823160e01b81523060048201526001600160a01b03909116906370a082319060240160206040518083038186803b158015610bd657600080fd5b505afa158015610bea573d6000803e3d6000fd5b505050506040513d601f19601f82011682018060405250810190610c0e9190612153565b15610c5b5760405162461bcd60e51b815260206004820152601d60248201527f42616c616e6365206f662047464920636f696e206d7573742062652030000000604482015260640161047d565b600480546040516370a0823160e01b815230928101929092526001600160a01b0316906370a082319060240160206040518083038186803b158015610c9f57600080fd5b505afa158015610cb3573d6000803e3d6000fd5b505050506040513d601f19601f82011682018060405250810190610cd79190612153565b15610d245760405162461bcd60e51b815260206004820152601c60248201527f506f6f6c20746f6b656e2062616c616e6365206d757374206265203000000000604482015260640161047d565b6000546001600160a01b031680ff5b6000546001600160a01b03163314610d8d5760405162461bcd60e51b815260206004820181905260248201527f4f776e61626c653a2063616c6c6572206973206e6f7420746865206f776e6572604482015260640161047d565b6005805473ffffffffffffffffffffffffffffffffffffffff19166001600160a01b0392909216919091179055565b6006546001600160a01b03163314610e255760405162461bcd60e51b815260206004820152602660248201527f5468652066756e6374696f6e206d7573742062652063616c6c65642066726f6d604482015265081d985d5b1d60d21b606482015260840161047d565b6001546040516370a0823160e01b815230600482015282916001600160a01b0316906370a082319060240160206040518083038186803b158015610e6857600080fd5b505afa158015610e7c573d6000803e3d6000fd5b505050506040513d601f19601f82011682018060405250810190610ea09190612153565b1015610ef85760405162461bcd60e51b815260206004820152602160248201527f5661756c742068617320696e737566666963656e7420737461626c6520636f696044820152603760f91b606482015260840161047d565b60008111610f485760405162461bcd60e51b815260206004820152601b60248201527f4d757374206465706f736974206d6f7265207468616e207a65726f0000000000604482015260640161047d565b6005546040517fb6b55f25000000000000000000000000000000000000000000000000000000008152600481018390526001600160a01b039091169063b6b55f2590602401602060405180830381600087803b158015610fa757600080fd5b505af1158015610fbb573d6000803e3d6000fd5b505050506040513d601f19601f8201168201806040525081019061049d9190612153565b6000546001600160a01b031633146110395760405162461bcd60e51b815260206004820181905260248201527f4f776e61626c653a2063616c6c6572206973206e6f7420746865206f776e6572604482015260640161047d565b600480546040517f42842e0e00000000000000000000000000000000000000000000000000000000815230928101929092526001600160a01b0384811660248401526044830184905216906342842e0e90606401600060405180830381600087803b1580156110a757600080fd5b505af11580156110bb573d6000803e3d6000fd5b505050505050565b6004805460405163463d31d760e11b815291820183905260009182916001600160a01b031690638c7a63ae9060240160a06040518083038186803b15801561110a57600080fd5b505afa15801561111e573d6000803e3d6000fd5b505050506040513d601f19601f8201168201806040525081019061114291906120b3565b8051600480546040517fb5ada6d80000000000000000000000000000000000000000000000000000000081526001600160a01b0380851693820193909352939450919291169063b5ada6d89060240160206040518083038186803b1580156111a957600080fd5b505afa1580156111bd573d6000803e3d6000fd5b505050506040513d601f19601f820116820180604052508101906111e19190612091565b949350505050565b6000546001600160a01b031633146112435760405162461bcd60e51b815260206004820181905260248201527f4f776e61626c653a2063616c6c6572206973206e6f7420746865206f776e6572604482015260640161047d565b6040516370a0823160e01b81523060048201526000906001600160a01b038416906370a082319060240160206040518083038186803b15801561128557600080fd5b505afa158015611299573d6000803e3d6000fd5b505050506040513d601f19601f820116820180604052508101906112bd9190612153565b90506109a46001600160a01b038416838361188e565b6006546000906001600160a01b0316331461133f5760405162461bcd60e51b815260206004820152602660248201527f5468652066756e6374696f6e206d7573742062652063616c6c65642066726f6d604482015265081d985d5b1d60d21b606482015260840161047d565b6004546001600160a01b0385811691161461139c5760405162461bcd60e51b815260206004820152601860248201527f4e6f7420476f6c6466696e636820506f6f6c20546f6b656e0000000000000000604482015260640161047d565b6113a5826110c3565b15156001146113f65760405162461bcd60e51b815260206004820152601060248201527f4e6f7420612076616c696420706f6f6c00000000000000000000000000000000604482015260640161047d565b6040517f6352211e000000000000000000000000000000000000000000000000000000008152600481018390526001600160a01b038085169190861690636352211e9060240160206040518083038186803b15801561145457600080fd5b505afa158015611468573d6000803e3d6000fd5b505050506040513d601f19601f8201168201806040525081019061148c9190611fce565b6001600160a01b0316146114e25760405162461bcd60e51b815260206004820152601c60248201527f5573657220646f6573206e6f74206f776e207468697320746f6b656e00000000604482015260640161047d565b600480546040517f081812fc00000000000000000000000000000000000000000000000000000000815291820184905233916001600160a01b039091169063081812fc9060240160206040518083038186803b15801561154157600080fd5b505afa158015611555573d6000803e3d6000fd5b505050506040513d601f19601f820116820180604052508101906115799190611fce565b6001600160a01b0316146115f55760405162461bcd60e51b815260206004820152602e60248201527f5573657220686173206e6f7420617070726f76656420746865207661756c742060448201527f666f72207468697320746f6b656e000000000000000000000000000000000000606482015260840161047d565b600061160083610287565b9050600081116116785760405162461bcd60e51b815260206004820152603560248201527f54686520616d6f756e74206f6620737461626c6520636f696e20746f2067657460448201527f206973206e6f74206c6172676572207468616e20300000000000000000000000606482015260840161047d565b6001546040516370a0823160e01b815230600482015282916001600160a01b0316906370a082319060240160206040518083038186803b1580156116bb57600080fd5b505afa1580156116cf573d6000803e3d6000fd5b505050506040513d601f19601f820116820180604052508101906116f39190612153565b10156117675760405162461bcd60e51b815260206004820152602e60248201527f546865207661756c7420646f6573206e6f74206861766520737566666963696560448201527f6e7420737461626c6520636f696e000000000000000000000000000000000000606482015260840161047d565b90505b9392505050565b6000546001600160a01b031633146117cb5760405162461bcd60e51b815260206004820181905260248201527f4f776e61626c653a2063616c6c6572206973206e6f7420746865206f776e6572604482015260640161047d565b6001600160a01b0381166118475760405162461bcd60e51b815260206004820152602660248201527f4f776e61626c653a206e6577206f776e657220697320746865207a65726f206160448201527f6464726573730000000000000000000000000000000000000000000000000000606482015260840161047d565b61185081611b8d565b50565b600061185f8284612206565b90505b92915050565b600061074d6006600a612283565b600061185f828461234a565b600061185f828461232b565b604080516001600160a01b038416602482015260448082018490528251808303909101815260649091019091526020810180517bffffffffffffffffffffffffffffffffffffffffffffffffffffffff167fa9059cbb000000000000000000000000000000000000000000000000000000001790526109a4908490611d7f565b600480546040516370a0823160e01b81523092810192909252600091829182916001600160a01b03909116906370a082319060240160206040518083038186803b15801561195b57600080fd5b505afa15801561196f573d6000803e3d6000fd5b505050506040513d601f19601f820116820180604052508101906119939190612153565b905060005b81811015611a465760048054604051632f745c5960e01b8152309281019290925260248201839052611a3291611a2b916001600160a01b031690632f745c599060440160206040518083038186803b1580156119f357600080fd5b505afa158015611a07573d6000803e3d6000fd5b505050506040513d601f19601f820116820180604052508101906101499190612153565b8490611853565b925080611a3e81612391565b915050611998565b50611a59611a52611868565b8390611882565b9250505090565b600061074d611b88611a70611e64565b600554604080517f872697290000000000000000000000000000000000000000000000000000000081529051611b82926001600160a01b0316916387269729916004808301926020929190829003018186803b158015611acf57600080fd5b505afa158015611ae3573d6000803e3d6000fd5b505050506040513d601f19601f82011682018060405250810190611b079190612153565b6003546040516370a0823160e01b81523060048201526001600160a01b03909116906370a082319060240160206040518083038186803b158015611b4a57600080fd5b505afa158015611b5e573d6000803e3d6000fd5b505050506040513d601f19601f820116820180604052508101906104049190612153565b90611e72565b611e7e565b600080546001600160a01b0383811673ffffffffffffffffffffffffffffffffffffffff19831681178455604051919092169283917f8be0079c531659141344cd1fd0a4f28419497f9722a3daafe3b4186f6b6457e09190a35050565b600480546040516370a0823160e01b81526001600160a01b038481169382019390935260609260009216906370a082319060240160206040518083038186803b158015611c3657600080fd5b505afa158015611c4a573d6000803e3d6000fd5b505050506040513d601f19601f82011682018060405250810190611c6e9190612153565b905060008167ffffffffffffffff811115611c8b57611c8b6123d8565b604051908082528060200260200182016040528015611cb4578160200160208202803683370190505b50905060005b82811015611d775760048054604051632f745c5960e01b81526001600160a01b038881169382019390935260248101849052911690632f745c599060440160206040518083038186803b158015611d1057600080fd5b505afa158015611d24573d6000803e3d6000fd5b505050506040513d601f19601f82011682018060405250810190611d489190612153565b828281518110611d5a57611d5a6123c2565b602090810291909101015280611d6f81612391565b915050611cba565b509392505050565b6000611dd4826040518060400160405280602081526020017f5361666545524332303a206c6f772d6c6576656c2063616c6c206661696c6564815250856001600160a01b0316611e9d9092919063ffffffff16565b8051909150156109a45780806020019051810190611df29190612091565b6109a45760405162461bcd60e51b815260206004820152602a60248201527f5361666545524332303a204552433230206f7065726174696f6e20646964206e60448201527f6f74207375636365656400000000000000000000000000000000000000000000606482015260840161047d565b600061074d6012600a612283565b600061185f828461221e565b6000611862611e96611e8e611868565b611b82611e64565b8390611e72565b60606117678484600085856001600160a01b0385163b611eff5760405162461bcd60e51b815260206004820152601d60248201527f416464726573733a2063616c6c20746f206e6f6e2d636f6e7472616374000000604482015260640161047d565b600080866001600160a01b03168587604051611f1b91906121b7565b60006040518083038185875af1925050503d8060008114611f58576040519150601f19603f3d011682016040523d82523d6000602084013e611f5d565b606091505b5091509150611f6d828286611f78565b979650505050505050565b60608315611f8757508161176a565b825115611f975782518084602001fd5b8160405162461bcd60e51b815260040161047d91906121d3565b600060208284031215611fc357600080fd5b813561176a816123ee565b600060208284031215611fe057600080fd5b815161176a816123ee565b60008060408385031215611ffe57600080fd5b8235612009816123ee565b946020939093013593505050565b6000806040838503121561202a57600080fd5b8235612035816123ee565b91506020830135612045816123ee565b809150509250929050565b60008060006060848603121561206557600080fd5b8335612070816123ee565b92506020840135612080816123ee565b929592945050506040919091013590565b6000602082840312156120a357600080fd5b8151801515811461176a57600080fd5b600060a082840312156120c557600080fd5b60405160a0810181811067ffffffffffffffff821117156120f657634e487b7160e01b600052604160045260246000fd5b6040528251612104816123ee565b80825250602083015160208201526040830151604082015260608301516060820152608083015160808201528091505092915050565b60006020828403121561214c57600080fd5b5035919050565b60006020828403121561216557600080fd5b5051919050565b60008060006060848603121561218157600080fd5b833592506020840135612080816123ee565b600080604083850312156121a657600080fd5b505080516020909101519092909150565b600082516121c9818460208701612361565b9190910192915050565b60208152600082518060208401526121f2816040850160208701612361565b601f01601f19169190910160400192915050565b60008219821115612219576122196123ac565b500190565b60008261223b57634e487b7160e01b600052601260045260246000fd5b500490565b600181815b8085111561227b578160001904821115612261576122616123ac565b8085161561226e57918102915b93841c9390800290612245565b509250929050565b600061185f838360008261229957506001611862565b816122a657506000611862565b81600181146122bc57600281146122c6576122e2565b6001915050611862565b60ff8411156122d7576122d76123ac565b50506001821b611862565b5060208310610133831016604e8410600b8410161715612305575081810a611862565b61230f8383612240565b8060001904821115612323576123236123ac565b029392505050565b6000816000190483118215151615612345576123456123ac565b500290565b60008282101561235c5761235c6123ac565b500390565b60005b8381101561237c578181015183820152602001612364565b8381111561238b576000848401525b50505050565b60006000198214156123a5576123a56123ac565b5060010190565b634e487b7160e01b600052601160045260246000fd5b634e487b7160e01b600052603260045260246000fd5b634e487b7160e01b600052604160045260246000fd5b6001600160a01b038116811461185057600080fdfea2646970667358221220e77f1ab8f8b67d5448c7a7b52db8882b1080222acff28260198645dee145653a64736f6c63430008070033",
  "devdoc": {
    "author": "AlloyX",
    "kind": "dev",
    "methods": {
      "getJuniorTokenValue(uint256)": {
        "params": {
          "_tokenID": "The backer NFT id"
        }
      },
      "isValidPool(uint256)": {
        "params": {
          "_tokenID": "The backer NFT id"
        }
      },
      "owner()": {
        "details": "Returns the address of the current owner."
      },
      "renounceOwnership()": {
        "details": "Leaves the contract without owner. It will not be possible to call `onlyOwner` functions anymore. Can only be called by the current owner. NOTE: Renouncing ownership will leave the contract without an owner, thereby removing any functionality that is only available to the owner."
      },
      "transferOwnership(address)": {
        "details": "Transfers ownership of the contract to a new account (`newOwner`). Can only be called by the current owner."
      }
    },
    "title": "Goldfinch Delegacy",
    "version": 1
  },
  "userdoc": {
    "kind": "user",
    "methods": {
      "getGFIBalance()": {
        "notice": "GFI Balance in Vault"
      },
      "getGoldfinchDelegacyBalanceInUSDC()": {
        "notice": "Delegacy Value in terms of USDC"
      },
      "getJuniorTokenValue(uint256)": {
        "notice": "Using the Goldfinch contracts, read the principal, redeemed and redeemable values"
      },
      "getUSDCBalance()": {
        "notice": "USDC Value in Vault"
      },
      "isValidPool(uint256)": {
        "notice": "Using the PoolTokens interface, check if this is a valid pool"
      }
    },
    "notice": "Middle layer to communicate with goldfinch contracts",
    "version": 1
  },
  "storageLayout": {
    "storage": [
      {
        "astId": 2183,
        "contract": "contracts/alloyx/v2.1/GoldfinchDelegacy.sol:GoldfinchDelegacy",
        "label": "_owner",
        "offset": 0,
        "slot": "0",
        "type": "t_address"
      },
      {
        "astId": 8924,
        "contract": "contracts/alloyx/v2.1/GoldfinchDelegacy.sol:GoldfinchDelegacy",
        "label": "usdcCoin",
        "offset": 0,
        "slot": "1",
        "type": "t_contract(IERC20)3038"
      },
      {
        "astId": 8927,
        "contract": "contracts/alloyx/v2.1/GoldfinchDelegacy.sol:GoldfinchDelegacy",
        "label": "gfiCoin",
        "offset": 0,
        "slot": "2",
        "type": "t_contract(IERC20)3038"
      },
      {
        "astId": 8930,
        "contract": "contracts/alloyx/v2.1/GoldfinchDelegacy.sol:GoldfinchDelegacy",
        "label": "fiduCoin",
        "offset": 0,
        "slot": "3",
        "type": "t_contract(IERC20)3038"
      },
      {
        "astId": 8933,
        "contract": "contracts/alloyx/v2.1/GoldfinchDelegacy.sol:GoldfinchDelegacy",
        "label": "poolToken",
        "offset": 0,
        "slot": "4",
        "type": "t_contract(IPoolTokens)11807"
      },
      {
        "astId": 8936,
        "contract": "contracts/alloyx/v2.1/GoldfinchDelegacy.sol:GoldfinchDelegacy",
        "label": "seniorPool",
        "offset": 0,
        "slot": "5",
        "type": "t_contract(ISeniorPool)11903"
      },
      {
        "astId": 8938,
        "contract": "contracts/alloyx/v2.1/GoldfinchDelegacy.sol:GoldfinchDelegacy",
        "label": "coreVaultAddress",
        "offset": 0,
        "slot": "6",
        "type": "t_address"
      }
    ],
    "types": {
      "t_address": {
        "encoding": "inplace",
        "label": "address",
        "numberOfBytes": "20"
      },
      "t_contract(IERC20)3038": {
        "encoding": "inplace",
        "label": "contract IERC20",
        "numberOfBytes": "20"
      },
      "t_contract(IPoolTokens)11807": {
        "encoding": "inplace",
        "label": "contract IPoolTokens",
        "numberOfBytes": "20"
      },
      "t_contract(ISeniorPool)11903": {
        "encoding": "inplace",
        "label": "contract ISeniorPool",
        "numberOfBytes": "20"
      }
    }
  }
}