{
  "address": "0x5656bb676A145fB6A42ab000B26156cc71Cec591",
  "abi": [
    {
      "inputs": [
        {
          "internalType": "address",
          "name": "_usdcCoinAddress",
          "type": "address"
        },
        {
          "internalType": "address",
          "name": "_fiduCoinAddress",
          "type": "address"
        },
        {
          "internalType": "address",
          "name": "_gfiCoinAddress",
          "type": "address"
        },
        {
          "internalType": "address",
          "name": "_poolTokenAddress",
          "type": "address"
        },
        {
          "internalType": "address",
          "name": "_seniorPoolAddress",
          "type": "address"
        },
        {
          "internalType": "address",
          "name": "_coreVaultAddress",
          "type": "address"
        },
        {
          "internalType": "address",
          "name": "_sortedGoldfinchTranches",
          "type": "address"
        }
      ],
      "stateMutability": "nonpayable",
      "type": "constructor"
    },
    {
      "anonymous": false,
      "inputs": [
        {
          "indexed": true,
          "internalType": "address",
          "name": "previousOwner",
          "type": "address"
        },
        {
          "indexed": true,
          "internalType": "address",
          "name": "newOwner",
          "type": "address"
        }
      ],
      "name": "OwnershipTransferred",
      "type": "event"
    },
    {
      "inputs": [
        {
          "internalType": "address",
          "name": "_tokenAddress",
          "type": "address"
        },
        {
          "internalType": "address",
          "name": "_account",
          "type": "address"
        },
        {
          "internalType": "uint256",
          "name": "_amount",
          "type": "uint256"
        }
      ],
      "name": "approve",
      "outputs": [],
      "stateMutability": "nonpayable",
      "type": "function"
    },
    {
      "inputs": [
        {
          "internalType": "address",
          "name": "_poolToken",
          "type": "address"
        }
      ],
      "name": "changePoolTokenAddress",
      "outputs": [],
      "stateMutability": "nonpayable",
      "type": "function"
    },
    {
      "inputs": [
        {
          "internalType": "address",
          "name": "_seniorPool",
          "type": "address"
        }
      ],
      "name": "changeSeniorPoolAddress",
      "outputs": [],
      "stateMutability": "nonpayable",
      "type": "function"
    },
    {
      "inputs": [
        {
          "internalType": "address",
          "name": "_sortedGoldfinchTranchesAddress",
          "type": "address"
        }
      ],
      "name": "changeSortedGoldfinchTranches",
      "outputs": [],
      "stateMutability": "nonpayable",
      "type": "function"
    },
    {
      "inputs": [
        {
          "internalType": "address",
          "name": "_vaultAddress",
          "type": "address"
        }
      ],
      "name": "changeVaultAddress",
      "outputs": [],
      "stateMutability": "nonpayable",
      "type": "function"
    },
    {
      "inputs": [
        {
          "internalType": "address",
          "name": "_rewardee",
          "type": "address"
        },
        {
          "internalType": "uint256",
          "name": "_amount",
          "type": "uint256"
        },
        {
          "internalType": "uint256",
          "name": "_totalSupply",
          "type": "uint256"
        },
        {
          "internalType": "uint256",
          "name": "_percentageFee",
          "type": "uint256"
        }
      ],
      "name": "claimReward",
      "outputs": [],
      "stateMutability": "nonpayable",
      "type": "function"
    },
    {
      "inputs": [],
      "name": "earningGfiFee",
      "outputs": [
        {
          "internalType": "uint256",
          "name": "",
          "type": "uint256"
        }
      ],
      "stateMutability": "view",
      "type": "function"
    },
    {
      "inputs": [],
      "name": "getGFIBalance",
      "outputs": [
        {
          "internalType": "uint256",
          "name": "",
          "type": "uint256"
        }
      ],
      "stateMutability": "view",
      "type": "function"
    },
    {
      "inputs": [],
      "name": "getGoldFinchPoolTokenBalanceInUSDC",
      "outputs": [
        {
          "internalType": "uint256",
          "name": "",
          "type": "uint256"
        }
      ],
      "stateMutability": "view",
      "type": "function"
    },
    {
      "inputs": [],
      "name": "getGoldfinchDelegacyBalanceInUSDC",
      "outputs": [
        {
          "internalType": "uint256",
          "name": "",
          "type": "uint256"
        }
      ],
      "stateMutability": "view",
      "type": "function"
    },
    {
      "inputs": [
        {
          "internalType": "uint256",
          "name": "_tokenID",
          "type": "uint256"
        }
      ],
      "name": "getJuniorTokenValue",
      "outputs": [
        {
          "internalType": "uint256",
          "name": "",
          "type": "uint256"
        }
      ],
      "stateMutability": "view",
      "type": "function"
    },
    {
      "inputs": [
        {
          "internalType": "uint256",
          "name": "_amount",
          "type": "uint256"
        },
        {
          "internalType": "uint256",
          "name": "_totalSupply",
          "type": "uint256"
        },
        {
          "internalType": "uint256",
          "name": "_percentageFee",
          "type": "uint256"
        }
      ],
      "name": "getRewardAmount",
      "outputs": [
        {
          "internalType": "uint256",
          "name": "",
          "type": "uint256"
        }
      ],
      "stateMutability": "view",
      "type": "function"
    },
    {
      "inputs": [],
      "name": "getUSDCBalance",
      "outputs": [
        {
          "internalType": "uint256",
          "name": "",
          "type": "uint256"
        }
      ],
      "stateMutability": "view",
      "type": "function"
    },
    {
      "inputs": [],
      "name": "getUSDCBalanceAvailableForInvestment",
      "outputs": [
        {
          "internalType": "uint256",
          "name": "",
          "type": "uint256"
        }
      ],
      "stateMutability": "view",
      "type": "function"
    },
    {
      "inputs": [
        {
          "internalType": "uint256",
          "name": "_tokenID",
          "type": "uint256"
        }
      ],
      "name": "isValidPool",
      "outputs": [
        {
          "internalType": "bool",
          "name": "",
          "type": "bool"
        }
      ],
      "stateMutability": "view",
      "type": "function"
    },
    {
      "inputs": [
        {
          "internalType": "address",
          "name": "_toAddress",
          "type": "address"
        }
      ],
      "name": "migrateAllGoldfinchPoolTokens",
      "outputs": [],
      "stateMutability": "nonpayable",
      "type": "function"
    },
    {
      "inputs": [
        {
          "internalType": "address",
          "name": "_tokenAddress",
          "type": "address"
        },
        {
          "internalType": "address",
          "name": "_to",
          "type": "address"
        }
      ],
      "name": "migrateERC20",
      "outputs": [],
      "stateMutability": "nonpayable",
      "type": "function"
    },
    {
      "inputs": [
        {
          "internalType": "address",
          "name": "_toAddress",
          "type": "address"
        },
        {
          "internalType": "uint256",
          "name": "_tokenId",
          "type": "uint256"
        }
      ],
      "name": "migrateGoldfinchPoolTokens",
      "outputs": [],
      "stateMutability": "nonpayable",
      "type": "function"
    },
    {
      "inputs": [
        {
          "internalType": "address",
          "name": "",
          "type": "address"
        },
        {
          "internalType": "address",
          "name": "",
          "type": "address"
        },
        {
          "internalType": "uint256",
          "name": "",
          "type": "uint256"
        },
        {
          "internalType": "bytes",
          "name": "",
          "type": "bytes"
        }
      ],
      "name": "onERC721Received",
      "outputs": [
        {
          "internalType": "bytes4",
          "name": "",
          "type": "bytes4"
        }
      ],
      "stateMutability": "nonpayable",
      "type": "function"
    },
    {
      "inputs": [],
      "name": "owner",
      "outputs": [
        {
          "internalType": "address",
          "name": "",
          "type": "address"
        }
      ],
      "stateMutability": "view",
      "type": "function"
    },
    {
      "inputs": [
        {
          "internalType": "address",
          "name": "_to",
          "type": "address"
        },
        {
          "internalType": "uint256",
          "name": "_amount",
          "type": "uint256"
        }
      ],
      "name": "payUsdc",
      "outputs": [],
      "stateMutability": "nonpayable",
      "type": "function"
    },
    {
      "inputs": [
        {
          "internalType": "uint256",
          "name": "_amount",
          "type": "uint256"
        },
        {
          "internalType": "address",
          "name": "_poolAddress",
          "type": "address"
        },
        {
          "internalType": "uint256",
          "name": "_tranche",
          "type": "uint256"
        }
      ],
      "name": "purchaseJuniorToken",
      "outputs": [],
      "stateMutability": "nonpayable",
      "type": "function"
    },
    {
      "inputs": [
        {
          "internalType": "uint256",
          "name": "_amount",
          "type": "uint256"
        }
      ],
      "name": "purchaseJuniorTokenOnBestTranch",
      "outputs": [],
      "stateMutability": "nonpayable",
      "type": "function"
    },
    {
      "inputs": [
        {
          "internalType": "uint256",
          "name": "_amount",
          "type": "uint256"
        }
      ],
      "name": "purchaseSeniorTokens",
      "outputs": [],
      "stateMutability": "nonpayable",
      "type": "function"
    },
    {
      "inputs": [
        {
          "internalType": "uint256",
          "name": "_amount",
          "type": "uint256"
        },
        {
          "internalType": "address",
          "name": "_to",
          "type": "address"
        }
      ],
      "name": "purchaseSeniorTokensAndTransferTo",
      "outputs": [],
      "stateMutability": "nonpayable",
      "type": "function"
    },
    {
      "inputs": [],
      "name": "renounceOwnership",
      "outputs": [],
      "stateMutability": "nonpayable",
      "type": "function"
    },
    {
      "inputs": [],
      "name": "repaymentFee",
      "outputs": [
        {
          "internalType": "uint256",
          "name": "",
          "type": "uint256"
        }
      ],
      "stateMutability": "view",
      "type": "function"
    },
    {
      "inputs": [
        {
          "internalType": "uint256",
          "name": "_tokenId",
          "type": "uint256"
        },
        {
          "internalType": "uint256",
          "name": "_amount",
          "type": "uint256"
        },
        {
          "internalType": "address",
          "name": "_poolAddress",
          "type": "address"
        },
        {
          "internalType": "uint256",
          "name": "_percentageBronzeRepayment",
          "type": "uint256"
        }
      ],
      "name": "sellJuniorToken",
      "outputs": [],
      "stateMutability": "nonpayable",
      "type": "function"
    },
    {
      "inputs": [
        {
          "internalType": "uint256",
          "name": "_amount",
          "type": "uint256"
        },
        {
          "internalType": "uint256",
          "name": "_percentageBronzeRepayment",
          "type": "uint256"
        }
      ],
      "name": "sellSeniorTokens",
      "outputs": [],
      "stateMutability": "nonpayable",
      "type": "function"
    },
    {
      "inputs": [
        {
          "internalType": "address",
          "name": "_to",
          "type": "address"
        }
      ],
      "name": "transferEarningGfiFee",
      "outputs": [],
      "stateMutability": "nonpayable",
      "type": "function"
    },
    {
      "inputs": [
        {
          "internalType": "address",
          "name": "newOwner",
          "type": "address"
        }
      ],
      "name": "transferOwnership",
      "outputs": [],
      "stateMutability": "nonpayable",
      "type": "function"
    },
    {
      "inputs": [
        {
          "internalType": "address",
          "name": "_to",
          "type": "address"
        }
      ],
      "name": "transferRepaymentFee",
      "outputs": [],
      "stateMutability": "nonpayable",
      "type": "function"
    },
    {
      "inputs": [
        {
          "internalType": "uint256",
          "name": "amount",
          "type": "uint256"
        }
      ],
      "name": "usdcToFidu",
      "outputs": [
        {
          "internalType": "uint256",
          "name": "",
          "type": "uint256"
        }
      ],
      "stateMutability": "view",
      "type": "function"
    },
    {
      "inputs": [
        {
          "internalType": "address",
          "name": "_tokenAddress",
          "type": "address"
        },
        {
          "internalType": "address",
          "name": "_depositor",
          "type": "address"
        },
        {
          "internalType": "uint256",
          "name": "_tokenID",
          "type": "uint256"
        }
      ],
      "name": "validatesTokenToDepositAndGetPurchasePrice",
      "outputs": [
        {
          "internalType": "uint256",
          "name": "",
          "type": "uint256"
        }
      ],
      "stateMutability": "nonpayable",
      "type": "function"
    }
  ],
  "transactionHash": "0x0d3673b22db2c81e2c437cf16296ecebd23fac9ed9af06301b1f3df9386645c2",
  "args": [
    "0x39381b99E94181a064FA06B2Dd3129675Df39895",
    "0xe7304ee7d28BFd9D3Ebbe9887743B17f8a1233b0",
    "0x11AF46e9387Bf6db48AAB12a97621840A78E5f4a",
    "0x1B20B76e7E874b902486D467CDDd33eb0BB7e834",
    "0xe52215564454909581f48CF3F657e8B5f8e5D0f9",
    "0x0000000000000000000000000000000000000000",
    "0x07549F96ec0F8e422E519Ed76eA809C0aC02BB1A"
  ],
  "numDeployments": 1,
  "solcInputHash": "5cd80f35e8068071923562ba800e9854",
  "bytecode": "0x6080604052600060015560006002553480156200001b57600080fd5b5060405162003487380380620034878339810160408190526200003e9162000138565b6200004933620000cb565b600380546001600160a01b03199081166001600160a01b03998a1617909155600480548216968916969096179095556005805486169688169690961790955560068054851693871693909317909255600780548416918616919091179055600880548316938516939093179092556009805490911691909216179055620001cd565b600080546001600160a01b038381166001600160a01b0319831681178455604051919092169283917f8be0079c531659141344cd1fd0a4f28419497f9722a3daafe3b4186f6b6457e09190a35050565b80516001600160a01b03811681146200013357600080fd5b919050565b600080600080600080600060e0888a0312156200015457600080fd5b6200015f886200011b565b96506200016f602089016200011b565b95506200017f604089016200011b565b94506200018f606089016200011b565b93506200019f608089016200011b565b9250620001af60a089016200011b565b9150620001bf60c089016200011b565b905092959891949750929550565b6132aa80620001dd6000396000f3fe608060405234801561001057600080fd5b50600436106102255760003560e01c80638f2da01d1161012a578063c763f216116100bd578063d905e9b41161008c578063e7e808e611610071578063e7e808e6146104a3578063f2fde38b146104b6578063f5a41627146104c957600080fd5b8063d905e9b41461047d578063e1f21c671461049057600080fd5b8063c763f21614610421578063d0791bbe14610434578063d2d9cc6414610447578063d848b0581461046a57600080fd5b8063b067b625116100f9578063b067b625146103eb578063b2ee6820146103f3578063c0bb9b6f14610406578063c5f016231461041957600080fd5b80638f2da01d1461039f578063917f69fe146103b257806393af90a9146103c5578063a2a9ccea146103d857600080fd5b8063523a5c29116101bd57806375af1df81161018c57806387e9a9391161017157806387e9a939146103685780638aa9062b146103715780638da5cb5b1461038457600080fd5b806375af1df8146103425780638682caf81461035557600080fd5b8063523a5c2914610317578063531d7dec1461031f5780636713fb8614610327578063715018a61461033a57600080fd5b80631b61eb67116101f95780631b61eb67146102d65780632ded89c7146102e95780633cfd1ccc146102fc578063460408721461030457600080fd5b8062f5271c1461022a5780630d8b040814610246578063150b7a0214610259578063196b5443146102c1575b600080fd5b61023360025481565b6040519081526020015b60405180910390f35b610233610254366004612e8c565b6104dc565b610290610267366004612c0d565b7f150b7a0200000000000000000000000000000000000000000000000000000000949350505050565b6040517fffffffff00000000000000000000000000000000000000000000000000000000909116815260200161023d565b6102d46102cf366004612cd1565b61065e565b005b6102d46102e4366004612ee3565b6106d5565b6102d46102f7366004612e8c565b6108d9565b610233610b96565b6102d4610312366004612b59565b610c18565b610233610c82565b610233610cb8565b6102d4610335366004612b59565b610d67565b6102d4610dd4565b6102d4610350366004612b59565b610e28565b6102d4610363366004612b59565b610ec3565b61023360015481565b61023361037f366004612e8c565b610f2d565b6000546040516001600160a01b03909116815260200161023d565b6102d46103ad366004612e8c565b610fc9565b6102d46103c0366004612cd1565b6111c1565b6102d46103d3366004612f50565b611292565b6102336103e6366004612f8f565b6114e5565b61023361158e565b6102d4610401366004612b59565b61159e565b6102d4610414366004612b59565b61160b565b610233611675565b6102d461042f366004612b59565b6117af565b6102d4610442366004612ebe565b611819565b61045a610455366004612e8c565b611a2c565b604051901515815260200161023d565b6102d4610478366004612cfd565b611b50565b6102d461048b366004612b93565b611c92565b6102d461049e366004612bcc565b611d6a565b6102336104b1366004612bcc565b611e5c565b6102d46104c4366004612b59565b6121ed565b6102d46104d7366004612f0a565b6122bd565b60065460405163463d31d760e11b81526004810183905260009182916001600160a01b0390911690638c7a63ae9060240160a06040518083038186803b15801561052557600080fd5b505afa158015610539573d6000803e3d6000fd5b505050506040513d601f19601f8201168201806040525081019061055d9190612e13565b90506000816040015190506000610585836080015184606001516124f190919063ffffffff16565b83516040517f4d02fe6f0000000000000000000000000000000000000000000000000000000081526004810188905291925090819060009081906001600160a01b03841690634d02fe6f90602401604080518083038186803b1580156105ea57600080fd5b505afa1580156105fe573d6000803e3d6000fd5b505050506040513d601f19601f820116820180604052508101906106229190612f2c565b9092509050818682101561063c5761063a81836124f1565b505b6106508161064a89896124fd565b906124f1565b9a9950505050505050505050565b6009546001600160a01b031633146106ba5760405162461bcd60e51b81526020600482015260266024820152600080516020613235833981519152604482015265081d985d5b1d60d21b60648201526084015b60405180910390fd5b6003546106d1906001600160a01b03168383612509565b5050565b6009546001600160a01b0316331461072c5760405162461bcd60e51b81526020600482015260266024820152600080516020613235833981519152604482015265081d985d5b1d60d21b60648201526084016106b1565b6003546040516370a0823160e01b815230600482015284916001600160a01b0316906370a082319060240160206040518083038186803b15801561076f57600080fd5b505afa158015610783573d6000803e3d6000fd5b505050506040513d601f19601f820116820180604052508101906107a79190612ea5565b10156107ff5760405162461bcd60e51b815260206004820152602160248201527f5661756c742068617320696e737566666963656e7420737461626c6520636f696044820152603760f91b60648201526084016106b1565b6000831161084f5760405162461bcd60e51b815260206004820152601b60248201527f4d757374206465706f736974206d6f7265207468616e207a65726f000000000060448201526064016106b1565b604051631c57762b60e31b8152600481018490526024810182905282906001600160a01b0382169063e2bbb15890604401602060405180830381600087803b15801561089a57600080fd5b505af11580156108ae573d6000803e3d6000fd5b505050506040513d601f19601f820116820180604052508101906108d29190612ea5565b5050505050565b6009546001600160a01b031633146109305760405162461bcd60e51b81526020600482015260266024820152600080516020613235833981519152604482015265081d985d5b1d60d21b60648201526084016106b1565b6003546040516370a0823160e01b815230600482015282916001600160a01b0316906370a082319060240160206040518083038186803b15801561097357600080fd5b505afa158015610987573d6000803e3d6000fd5b505050506040513d601f19601f820116820180604052508101906109ab9190612ea5565b1015610a035760405162461bcd60e51b815260206004820152602160248201527f5661756c742068617320696e737566666963656e7420737461626c6520636f696044820152603760f91b60648201526084016106b1565b60008111610a535760405162461bcd60e51b815260206004820152601b60248201527f4d757374206465706f736974206d6f7265207468616e207a65726f000000000060448201526064016106b1565b6008546040517f37caa8b6000000000000000000000000000000000000000000000000000000008152600160048201526000916001600160a01b0316906337caa8b69060240160006040518083038186803b158015610ab157600080fd5b505afa158015610ac5573d6000803e3d6000fd5b505050506040513d6000823e601f3d908101601f19168201604052610aed9190810190612d38565b600081518110610aff57610aff6131f3565b6020908102919091010151604051631c57762b60e31b8152600481018490526001602482015290915081906001600160a01b0382169063e2bbb15890604401602060405180830381600087803b158015610b5857600080fd5b505af1158015610b6c573d6000803e3d6000fd5b505050506040513d601f19601f82011682018060405250810190610b909190612ea5565b50505050565b6003546040516370a0823160e01b81523060048201526000916001600160a01b0316906370a08231906024015b60206040518083038186803b158015610bdb57600080fd5b505afa158015610bef573d6000803e3d6000fd5b505050506040513d601f19601f82011682018060405250810190610c139190612ea5565b905090565b6000546001600160a01b03163314610c605760405162461bcd60e51b8152602060048201819052602482015260008051602061325583398151915260448201526064016106b1565b600680546001600160a01b0319166001600160a01b0392909216919091179055565b600480546040516370a0823160e01b815230928101929092526000916001600160a01b03909116906370a0823190602401610bc3565b600080610cd9610cc6611675565b61064a610cd1610b96565b61064a612589565b9050600254811015610d535760405162461bcd60e51b815260206004820152603460248201527f5661756c742076616c7565206973206c657373207468616e207468652072657060448201527f61796d656e742066656520636f6c6c656374656400000000000000000000000060648201526084016106b1565b600254610d619082906124fd565b91505090565b6000546001600160a01b03163314610daf5760405162461bcd60e51b8152602060048201819052602482015260008051602061325583398151915260448201526064016106b1565b600154600454610dcc916001600160a01b03909116908390612509565b506000600155565b6000546001600160a01b03163314610e1c5760405162461bcd60e51b8152602060048201819052602482015260008051602061325583398151915260448201526064016106b1565b610e2660006126b0565b565b6000546001600160a01b03163314610e705760405162461bcd60e51b8152602060048201819052602482015260008051602061325583398151915260448201526064016106b1565b6000610e7b30612700565b905060005b8151811015610ebe57610eac83838381518110610e9f57610e9f6131f3565b60200260200101516111c1565b80610eb6816131c2565b915050610e80565b505050565b6000546001600160a01b03163314610f0b5760405162461bcd60e51b8152602060048201819052602482015260008051602061325583398151915260448201526064016106b1565b600780546001600160a01b0319166001600160a01b0392909216919091179055565b6007546040517f855cb21b000000000000000000000000000000000000000000000000000000008152600481018390526000916001600160a01b03169063855cb21b9060240160206040518083038186803b158015610f8b57600080fd5b505afa158015610f9f573d6000803e3d6000fd5b505050506040513d601f19601f82011682018060405250810190610fc39190612ea5565b92915050565b6009546001600160a01b031633146110205760405162461bcd60e51b81526020600482015260266024820152600080516020613235833981519152604482015265081d985d5b1d60d21b60648201526084016106b1565b6003546040516370a0823160e01b815230600482015282916001600160a01b0316906370a082319060240160206040518083038186803b15801561106357600080fd5b505afa158015611077573d6000803e3d6000fd5b505050506040513d601f19601f8201168201806040525081019061109b9190612ea5565b10156110f35760405162461bcd60e51b815260206004820152602160248201527f5661756c742068617320696e737566666963656e7420737461626c6520636f696044820152603760f91b60648201526084016106b1565b600081116111435760405162461bcd60e51b815260206004820152601b60248201527f4d757374206465706f736974206d6f7265207468616e207a65726f000000000060448201526064016106b1565b60075460405163b6b55f2560e01b8152600481018390526001600160a01b039091169063b6b55f2590602401602060405180830381600087803b15801561118957600080fd5b505af115801561119d573d6000803e3d6000fd5b505050506040513d601f19601f820116820180604052508101906106d19190612ea5565b6000546001600160a01b031633146112095760405162461bcd60e51b8152602060048201819052602482015260008051602061325583398151915260448201526064016106b1565b6006546040517f42842e0e0000000000000000000000000000000000000000000000000000000081523060048201526001600160a01b03848116602483015260448201849052909116906342842e0e90606401600060405180830381600087803b15801561127657600080fd5b505af115801561128a573d6000803e3d6000fd5b505050505050565b6009546001600160a01b031633146112e95760405162461bcd60e51b81526020600482015260266024820152600080516020613235833981519152604482015265081d985d5b1d60d21b60648201526084016106b1565b6005546040516370a0823160e01b815230600482015284916001600160a01b0316906370a082319060240160206040518083038186803b15801561132c57600080fd5b505afa158015611340573d6000803e3d6000fd5b505050506040513d601f19601f820116820180604052508101906113649190612ea5565b10156113b25760405162461bcd60e51b815260206004820152601f60248201527f5661756c742068617320696e737566666963656e74206669647520636f696e0060448201526064016106b1565b600083116114025760405162461bcd60e51b815260206004820152601b60248201527f4d757374206465706f736974206d6f7265207468616e207a65726f000000000060448201526064016106b1565b6040517f441a3e700000000000000000000000000000000000000000000000000000000081526004810185905260248101849052829060009081906001600160a01b0384169063441a3e70906044016040805180830381600087803b15801561146a57600080fd5b505af115801561147e573d6000803e3d6000fd5b505050506040513d601f19601f820116820180604052508101906114a29190612f2c565b909250905060006114c860646114c2876114bc87876124f1565b90612891565b9061289d565b6002549091506114d890826124f1565b6002555050505050505050565b6009546000906001600160a01b0316331461153f5760405162461bcd60e51b81526020600482015260266024820152600080516020613235833981519152604482015265081d985d5b1d60d21b60648201526084016106b1565b6000611563846114c261155c600154611556610c82565b906124fd565b8890612891565b9050600061157660646114c28487612891565b905061158282826124fd565b925050505b9392505050565b6000610c13600254611556610b96565b6000546001600160a01b031633146115e65760405162461bcd60e51b8152602060048201819052602482015260008051602061325583398151915260448201526064016106b1565b600254600354611603916001600160a01b03909116908390612509565b506000600255565b6000546001600160a01b031633146116535760405162461bcd60e51b8152602060048201819052602482015260008051602061325583398151915260448201526064016106b1565b600880546001600160a01b0319166001600160a01b0392909216919091179055565b6006546040516370a0823160e01b8152306004820152600091829182916001600160a01b0316906370a082319060240160206040518083038186803b1580156116bd57600080fd5b505afa1580156116d1573d6000803e3d6000fd5b505050506040513d601f19601f820116820180604052508101906116f59190612ea5565b905060005b818110156117a757600654604051632f745c5960e01b8152306004820152602481018390526117939161178c916001600160a01b0390911690632f745c599060440160206040518083038186803b15801561175457600080fd5b505afa158015611768573d6000803e3d6000fd5b505050506040513d601f19601f820116820180604052508101906102549190612ea5565b84906124f1565b92508061179f816131c2565b9150506116fa565b509092915050565b6000546001600160a01b031633146117f75760405162461bcd60e51b8152602060048201819052602482015260008051602061325583398151915260448201526064016106b1565b600980546001600160a01b0319166001600160a01b0392909216919091179055565b6009546001600160a01b031633146118705760405162461bcd60e51b81526020600482015260266024820152600080516020613235833981519152604482015265081d985d5b1d60d21b60648201526084016106b1565b6003546040516370a0823160e01b815230600482015283916001600160a01b0316906370a082319060240160206040518083038186803b1580156118b357600080fd5b505afa1580156118c7573d6000803e3d6000fd5b505050506040513d601f19601f820116820180604052508101906118eb9190612ea5565b10156119435760405162461bcd60e51b815260206004820152602160248201527f5661756c742068617320696e737566666963656e7420737461626c6520636f696044820152603760f91b60648201526084016106b1565b600082116119935760405162461bcd60e51b815260206004820152601b60248201527f4d757374206465706f736974206d6f7265207468616e207a65726f000000000060448201526064016106b1565b60075460405163b6b55f2560e01b8152600481018490526000916001600160a01b03169063b6b55f2590602401602060405180830381600087803b1580156119da57600080fd5b505af11580156119ee573d6000803e3d6000fd5b505050506040513d601f19601f82011682018060405250810190611a129190612ea5565b600554909150610ebe906001600160a01b03168383612509565b60065460405163463d31d760e11b81526004810183905260009182916001600160a01b0390911690638c7a63ae9060240160a06040518083038186803b158015611a7557600080fd5b505afa158015611a89573d6000803e3d6000fd5b505050506040513d601f19601f82011682018060405250810190611aad9190612e13565b80516006546040517fb5ada6d80000000000000000000000000000000000000000000000000000000081526001600160a01b0380841660048301529394509192169063b5ada6d89060240160206040518083038186803b158015611b1057600080fd5b505afa158015611b24573d6000803e3d6000fd5b505050506040513d601f19601f82011682018060405250810190611b489190612df1565b949350505050565b6009546001600160a01b03163314611ba75760405162461bcd60e51b81526020600482015260266024820152600080516020613235833981519152604482015265081d985d5b1d60d21b60648201526084016106b1565b600154611bb2610c82565b1015611c265760405162461bcd60e51b815260206004820152603a60248201527f5468652047464920696e207468652064656c6567616379206973206c6573732060448201527f7468616e20746865204746492066656520636f6c6c656374656400000000000060648201526084016106b1565b6000611c44836114c2611c3d600154611556610c82565b8790612891565b90506000611c5760646114c28486612891565b9050611c7a86611c6784846124fd565b6004546001600160a01b03169190612509565b600154611c8790826124f1565b600155505050505050565b6000546001600160a01b03163314611cda5760405162461bcd60e51b8152602060048201819052602482015260008051602061325583398151915260448201526064016106b1565b6040516370a0823160e01b81523060048201526000906001600160a01b038416906370a082319060240160206040518083038186803b158015611d1c57600080fd5b505afa158015611d30573d6000803e3d6000fd5b505050506040513d601f19601f82011682018060405250810190611d549190612ea5565b9050610ebe6001600160a01b0384168383612509565b6009546001600160a01b03163314611dc15760405162461bcd60e51b81526020600482015260266024820152600080516020613235833981519152604482015265081d985d5b1d60d21b60648201526084016106b1565b6040517f095ea7b30000000000000000000000000000000000000000000000000000000081526001600160a01b0383811660048301526024820183905284169063095ea7b390604401602060405180830381600087803b158015611e2457600080fd5b505af1158015611e38573d6000803e3d6000fd5b505050506040513d601f19601f82011682018060405250810190610b909190612df1565b6009546000906001600160a01b03163314611eb65760405162461bcd60e51b81526020600482015260266024820152600080516020613235833981519152604482015265081d985d5b1d60d21b60648201526084016106b1565b6006546001600160a01b03858116911614611f135760405162461bcd60e51b815260206004820152601860248201527f4e6f7420476f6c6466696e636820506f6f6c20546f6b656e000000000000000060448201526064016106b1565b611f1c82611a2c565b1515600114611f6d5760405162461bcd60e51b815260206004820152601060248201527f4e6f7420612076616c696420706f6f6c0000000000000000000000000000000060448201526064016106b1565b6040517f6352211e000000000000000000000000000000000000000000000000000000008152600481018390526001600160a01b038085169190861690636352211e9060240160206040518083038186803b158015611fcb57600080fd5b505afa158015611fdf573d6000803e3d6000fd5b505050506040513d601f19601f820116820180604052508101906120039190612b76565b6001600160a01b0316146120595760405162461bcd60e51b815260206004820152601c60248201527f5573657220646f6573206e6f74206f776e207468697320746f6b656e0000000060448201526064016106b1565b6006546040517f081812fc0000000000000000000000000000000000000000000000000000000081526004810184905233916001600160a01b03169063081812fc9060240160206040518083038186803b1580156120b657600080fd5b505afa1580156120ca573d6000803e3d6000fd5b505050506040513d601f19601f820116820180604052508101906120ee9190612b76565b6001600160a01b03161461216a5760405162461bcd60e51b815260206004820152602e60248201527f5573657220686173206e6f7420617070726f76656420746865207661756c742060448201527f666f72207468697320746f6b656e00000000000000000000000000000000000060648201526084016106b1565b6000612175836104dc565b905060008111611b485760405162461bcd60e51b815260206004820152603560248201527f54686520616d6f756e74206f6620737461626c6520636f696e20746f2067657460448201527f206973206e6f74206c6172676572207468616e2030000000000000000000000060648201526084016106b1565b6000546001600160a01b031633146122355760405162461bcd60e51b8152602060048201819052602482015260008051602061325583398151915260448201526064016106b1565b6001600160a01b0381166122b15760405162461bcd60e51b815260206004820152602660248201527f4f776e61626c653a206e6577206f776e657220697320746865207a65726f206160448201527f646472657373000000000000000000000000000000000000000000000000000060648201526084016106b1565b6122ba816126b0565b50565b6009546001600160a01b031633146123145760405162461bcd60e51b81526020600482015260266024820152600080516020613235833981519152604482015265081d985d5b1d60d21b60648201526084016106b1565b6005546040516370a0823160e01b815230600482015283916001600160a01b0316906370a082319060240160206040518083038186803b15801561235757600080fd5b505afa15801561236b573d6000803e3d6000fd5b505050506040513d601f19601f8201168201806040525081019061238f9190612ea5565b10156123dd5760405162461bcd60e51b815260206004820152601f60248201527f5661756c742068617320696e737566666963656e74206669647520636f696e0060448201526064016106b1565b6000821161242d5760405162461bcd60e51b815260206004820152601b60248201527f4d757374206465706f736974206d6f7265207468616e207a65726f000000000060448201526064016106b1565b6007546040517f58031d12000000000000000000000000000000000000000000000000000000008152600481018490526000916001600160a01b0316906358031d1290602401602060405180830381600087803b15801561248d57600080fd5b505af11580156124a1573d6000803e3d6000fd5b505050506040513d601f19601f820116820180604052508101906124c59190612ea5565b905060006124d860646114c28486612891565b6002549091506124e890826124f1565b60025550505050565b6000611587828461303b565b6000611587828461317f565b604080516001600160a01b038416602482015260448082018490528251808303909101815260649091019091526020810180517bffffffffffffffffffffffffffffffffffffffffffffffffffffffff167fa9059cbb00000000000000000000000000000000000000000000000000000000179052610ebe9084906128a9565b6000610c136126ab61259961298e565b600754604080517f8726972900000000000000000000000000000000000000000000000000000000815290516114c2926001600160a01b0316916387269729916004808301926020929190829003018186803b1580156125f857600080fd5b505afa15801561260c573d6000803e3d6000fd5b505050506040513d601f19601f820116820180604052508101906126309190612ea5565b6005546040516370a0823160e01b81523060048201526001600160a01b03909116906370a082319060240160206040518083038186803b15801561267357600080fd5b505afa158015612687573d6000803e3d6000fd5b505050506040513d601f19601f820116820180604052508101906114bc9190612ea5565b61299c565b600080546001600160a01b038381166001600160a01b0319831681178455604051919092169283917f8be0079c531659141344cd1fd0a4f28419497f9722a3daafe3b4186f6b6457e09190a35050565b6006546040516370a0823160e01b81526001600160a01b0383811660048301526060926000929116906370a082319060240160206040518083038186803b15801561274a57600080fd5b505afa15801561275e573d6000803e3d6000fd5b505050506040513d601f19601f820116820180604052508101906127829190612ea5565b905060008167ffffffffffffffff81111561279f5761279f613209565b6040519080825280602002602001820160405280156127c8578160200160208202803683370190505b50905060005b8281101561288957600654604051632f745c5960e01b81526001600160a01b0387811660048301526024820184905290911690632f745c599060440160206040518083038186803b15801561282257600080fd5b505afa158015612836573d6000803e3d6000fd5b505050506040513d601f19601f8201168201806040525081019061285a9190612ea5565b82828151811061286c5761286c6131f3565b602090810291909101015280612881816131c2565b9150506127ce565b509392505050565b60006115878284613160565b60006115878284613053565b60006128fe826040518060400160405280602081526020017f5361666545524332303a206c6f772d6c6576656c2063616c6c206661696c6564815250856001600160a01b03166129bb9092919063ffffffff16565b805190915015610ebe578080602001905181019061291c9190612df1565b610ebe5760405162461bcd60e51b815260206004820152602a60248201527f5361666545524332303a204552433230206f7065726174696f6e20646964206e60448201527f6f7420737563636565640000000000000000000000000000000000000000000060648201526084016106b1565b6000610c136012600a6130b8565b6000610fc36129b46129ac6129ca565b6114c261298e565b839061289d565b6060611b4884846000856129d8565b6000610c136006600a6130b8565b606082471015612a505760405162461bcd60e51b815260206004820152602660248201527f416464726573733a20696e73756666696369656e742062616c616e636520666f60448201527f722063616c6c000000000000000000000000000000000000000000000000000060648201526084016106b1565b6001600160a01b0385163b612aa75760405162461bcd60e51b815260206004820152601d60248201527f416464726573733a2063616c6c20746f206e6f6e2d636f6e747261637400000060448201526064016106b1565b600080866001600160a01b03168587604051612ac39190612fbb565b60006040518083038185875af1925050503d8060008114612b00576040519150601f19603f3d011682016040523d82523d6000602084013e612b05565b606091505b5091509150612b15828286612b20565b979650505050505050565b60608315612b2f575081611587565b825115612b3f5782518084602001fd5b8160405162461bcd60e51b81526004016106b19190612fd7565b600060208284031215612b6b57600080fd5b81356115878161321f565b600060208284031215612b8857600080fd5b81516115878161321f565b60008060408385031215612ba657600080fd5b8235612bb18161321f565b91506020830135612bc18161321f565b809150509250929050565b600080600060608486031215612be157600080fd5b8335612bec8161321f565b92506020840135612bfc8161321f565b929592945050506040919091013590565b60008060008060808587031215612c2357600080fd5b8435612c2e8161321f565b9350602085810135612c3f8161321f565b935060408601359250606086013567ffffffffffffffff80821115612c6357600080fd5b818801915088601f830112612c7757600080fd5b813581811115612c8957612c89613209565b612c9b601f8201601f1916850161300a565b91508082528984828501011115612cb157600080fd5b808484018584013760008482840101525080935050505092959194509250565b60008060408385031215612ce457600080fd5b8235612cef8161321f565b946020939093013593505050565b60008060008060808587031215612d1357600080fd5b8435612d1e8161321f565b966020860135965060408601359560600135945092505050565b60006020808385031215612d4b57600080fd5b825167ffffffffffffffff80821115612d6357600080fd5b818501915085601f830112612d7757600080fd5b815181811115612d8957612d89613209565b8060051b9150612d9a84830161300a565b8181528481019084860184860187018a1015612db557600080fd5b600095505b83861015612de45780519450612dcf8561321f565b84835260019590950194918601918601612dba565b5098975050505050505050565b600060208284031215612e0357600080fd5b8151801515811461158757600080fd5b600060a08284031215612e2557600080fd5b60405160a0810181811067ffffffffffffffff82111715612e4857612e48613209565b6040528251612e568161321f565b80825250602083015160208201526040830151604082015260608301516060820152608083015160808201528091505092915050565b600060208284031215612e9e57600080fd5b5035919050565b600060208284031215612eb757600080fd5b5051919050565b60008060408385031215612ed157600080fd5b823591506020830135612bc18161321f565b600080600060608486031215612ef857600080fd5b833592506020840135612bfc8161321f565b60008060408385031215612f1d57600080fd5b50508035926020909101359150565b60008060408385031215612f3f57600080fd5b505080516020909101519092909150565b60008060008060808587031215612f6657600080fd5b84359350602085013592506040850135612f7f8161321f565b9396929550929360600135925050565b600080600060608486031215612fa457600080fd5b505081359360208301359350604090920135919050565b60008251612fcd818460208701613196565b9190910192915050565b6020815260008251806020840152612ff6816040850160208701613196565b601f01601f19169190910160400192915050565b604051601f8201601f1916810167ffffffffffffffff8111828210171561303357613033613209565b604052919050565b6000821982111561304e5761304e6131dd565b500190565b60008261307057634e487b7160e01b600052601260045260246000fd5b500490565b600181815b808511156130b0578160001904821115613096576130966131dd565b808516156130a357918102915b93841c939080029061307a565b509250929050565b600061158783836000826130ce57506001610fc3565b816130db57506000610fc3565b81600181146130f157600281146130fb57613117565b6001915050610fc3565b60ff84111561310c5761310c6131dd565b50506001821b610fc3565b5060208310610133831016604e8410600b841016171561313a575081810a610fc3565b6131448383613075565b8060001904821115613158576131586131dd565b029392505050565b600081600019048311821515161561317a5761317a6131dd565b500290565b600082821015613191576131916131dd565b500390565b60005b838110156131b1578181015183820152602001613199565b83811115610b905750506000910152565b60006000198214156131d6576131d66131dd565b5060010190565b634e487b7160e01b600052601160045260246000fd5b634e487b7160e01b600052603260045260246000fd5b634e487b7160e01b600052604160045260246000fd5b6001600160a01b03811681146122ba57600080fdfe5468652066756e6374696f6e206d7573742062652063616c6c65642066726f6d4f776e61626c653a2063616c6c6572206973206e6f7420746865206f776e6572a2646970667358221220e507f66378c87dce3761e528643c1d677608ccd01968b9be441e564e70dcfe7d64736f6c63430008070033",
  "devdoc": {
    "author": "AlloyX",
    "kind": "dev",
    "methods": {
      "approve(address,address,uint256)": {
        "params": {
          "_account": "the address to approve",
          "_amount": "the amount to approve",
          "_tokenAddress": "the token address to approve"
        }
      },
      "changePoolTokenAddress(address)": {
        "params": {
          "_poolToken": "The address to change to"
        }
      },
      "changeSeniorPoolAddress(address)": {
        "params": {
          "_seniorPool": "The address to change to"
        }
      },
      "changeSortedGoldfinchTranches(address)": {
        "params": {
          "_sortedGoldfinchTranchesAddress": "The address to change to"
        }
      },
      "changeVaultAddress(address)": {
        "params": {
          "_vaultAddress": "The address to change to"
        }
      },
      "claimReward(address,uint256,uint256,uint256)": {
        "params": {
          "_amount": "the amount of silver tokens used to claim",
          "_percentageFee": "the earning fee for redeeming silver token in percentage in terms of GFI",
          "_rewardee": "the address of rewardee",
          "_totalSupply": "total claimable and claimed silver tokens of all stakeholders"
        }
      },
      "getJuniorTokenValue(uint256)": {
        "params": {
          "_tokenID": "The backer NFT id"
        }
      },
      "getRewardAmount(uint256,uint256,uint256)": {
        "params": {
          "_amount": "the amount of silver tokens used to claim",
          "_percentageFee": "the earning fee for redeeming silver token in percentage in terms of GFI",
          "_totalSupply": "total claimable and claimed silver tokens of all stakeholders"
        }
      },
      "isValidPool(uint256)": {
        "params": {
          "_tokenID": "The backer NFT id"
        }
      },
      "migrateAllGoldfinchPoolTokens(address)": {
        "params": {
          "_toAddress": "the address to transfer tokens to"
        }
      },
      "migrateERC20(address,address)": {
        "params": {
          "_to": "the address to transfer tokens to",
          "_tokenAddress": "the token address to migrate"
        }
      },
      "migrateGoldfinchPoolTokens(address,uint256)": {
        "params": {
          "_toAddress": "the address to transfer tokens to",
          "_tokenId": "the token ID to transfer"
        }
      },
      "onERC721Received(address,address,uint256,bytes)": {
        "details": "See {IERC721Receiver-onERC721Received}. Always returns `IERC721Receiver.onERC721Received.selector`."
      },
      "owner()": {
        "details": "Returns the address of the current owner."
      },
      "payUsdc(address,uint256)": {
        "params": {
          "_amount": "the amount to pay",
          "_to": "the address to pay to"
        }
      },
      "purchaseJuniorToken(uint256,address,uint256)": {
        "params": {
          "_amount": "the amount of usdc to purchase by",
          "_poolAddress": "the pool address to buy from",
          "_tranche": "the tranch id"
        }
      },
      "purchaseJuniorTokenOnBestTranch(uint256)": {
        "params": {
          "_amount": "the amount of usdc to purchase by"
        }
      },
      "purchaseSeniorTokens(uint256)": {
        "params": {
          "_amount": "the amount of USDC to purchase by"
        }
      },
      "purchaseSeniorTokensAndTransferTo(uint256,address)": {
        "params": {
          "_amount": "the amount of USDC to purchase by",
          "_to": "the receiver of fidu"
        }
      },
      "renounceOwnership()": {
        "details": "Leaves the contract without owner. It will not be possible to call `onlyOwner` functions anymore. Can only be called by the current owner. NOTE: Renouncing ownership will leave the contract without an owner, thereby removing any functionality that is only available to the owner."
      },
      "sellJuniorToken(uint256,uint256,address,uint256)": {
        "params": {
          "_amount": "the amount to withdraw",
          "_percentageBronzeRepayment": "the repayment fee for bronze token in percentage",
          "_poolAddress": "the pool address to withdraw from",
          "_tokenId": "the ID of token to sell"
        }
      },
      "sellSeniorTokens(uint256,uint256)": {
        "params": {
          "_amount": "the amount of fidu to sell",
          "_percentageBronzeRepayment": "the repayment fee for bronze token in percentage"
        }
      },
      "transferEarningGfiFee(address)": {
        "params": {
          "_to": "the address to transfer tokens to"
        }
      },
      "transferOwnership(address)": {
        "details": "Transfers ownership of the contract to a new account (`newOwner`). Can only be called by the current owner."
      },
      "transferRepaymentFee(address)": {
        "params": {
          "_to": "the address to transfer tokens to"
        }
      },
      "validatesTokenToDepositAndGetPurchasePrice(address,address,uint256)": {
        "params": {
          "_depositor": "the person to deposit",
          "_tokenAddress": "the Pooltoken address",
          "_tokenID": "the ID of the Pooltoken"
        }
      }
    },
    "title": "Goldfinch Delegacy",
    "version": 1
  },
  "userdoc": {
    "kind": "user",
    "methods": {
      "approve(address,address,uint256)": {
        "notice": "Approve certain amount token of certain address to some other account"
      },
      "changePoolTokenAddress(address)": {
        "notice": "Change the pool token address"
      },
      "changeSeniorPoolAddress(address)": {
        "notice": "Change the senior pool address"
      },
      "changeSortedGoldfinchTranches(address)": {
        "notice": "Change sortedGoldfinchTranches address"
      },
      "changeVaultAddress(address)": {
        "notice": "Change the vault address"
      },
      "claimReward(address,uint256,uint256,uint256)": {
        "notice": "Claim certain amount of reward token based on alloy silver token, the method will burn the silver token of the amount of message sender, and transfer reward token to message sender"
      },
      "getGFIBalance()": {
        "notice": "GFI Balance in Vault"
      },
      "getGoldFinchPoolTokenBalanceInUSDC()": {
        "notice": "GoldFinch PoolToken Value in Value in term of USDC"
      },
      "getGoldfinchDelegacyBalanceInUSDC()": {
        "notice": "Delegacy Value in terms of USDC"
      },
      "getJuniorTokenValue(uint256)": {
        "notice": "Using the Goldfinch contracts, read the principal, redeemed and redeemable values"
      },
      "getRewardAmount(uint256,uint256,uint256)": {
        "notice": "Get gfi amount that should be transfered to the claimer for the amount of CRWN"
      },
      "getUSDCBalance()": {
        "notice": "USDC Value in Vault"
      },
      "getUSDCBalanceAvailableForInvestment()": {
        "notice": "USDC Value in Vault for investment"
      },
      "isValidPool(uint256)": {
        "notice": "Using the PoolTokens interface, check if this is a valid pool"
      },
      "migrateAllGoldfinchPoolTokens(address)": {
        "notice": "Migrate all Pooltokens to an address"
      },
      "migrateERC20(address,address)": {
        "notice": "Migrate certain ERC20 to an address"
      },
      "migrateGoldfinchPoolTokens(address,uint256)": {
        "notice": "Migrate Pooltoken of ID to an address"
      },
      "payUsdc(address,uint256)": {
        "notice": "Pay USDC tokens to account"
      },
      "purchaseJuniorToken(uint256,address,uint256)": {
        "notice": "Purchase junior token through this delegacy to get pooltoken inside this delegacy"
      },
      "purchaseJuniorTokenOnBestTranch(uint256)": {
        "notice": "Purchase junior token through this delegacy to get pooltoken inside this delegacy"
      },
      "purchaseSeniorTokens(uint256)": {
        "notice": "Purchase senior token through this delegacy to get FIDU inside this delegacy"
      },
      "purchaseSeniorTokensAndTransferTo(uint256,address)": {
        "notice": "Purchase senior token through this delegacy to get FIDU inside this delegacy"
      },
      "sellJuniorToken(uint256,uint256,address,uint256)": {
        "notice": "Sell junior token through this delegacy to get repayments"
      },
      "sellSeniorTokens(uint256,uint256)": {
        "notice": "sell senior token through delegacy to redeem fidu"
      },
      "transferEarningGfiFee(address)": {
        "notice": "Transfer earning gfi fee to some other address"
      },
      "transferRepaymentFee(address)": {
        "notice": "Transfer repayment fee to some other address"
      },
      "usdcToFidu(uint256)": {
        "notice": "convert USDC amount to FIDU"
      },
      "validatesTokenToDepositAndGetPurchasePrice(address,address,uint256)": {
        "notice": "Validates the Pooltoken to be deposited and get the USDC value of the token"
      }
    },
    "notice": "Middle layer to communicate with goldfinch contracts",
    "version": 1
  },
  "storageLayout": {
    "storage": [
      {
        "astId": 7,
        "contract": "contracts/alloyx/GoldfinchDelegacy.sol:GoldfinchDelegacy",
        "label": "_owner",
        "offset": 0,
        "slot": "0",
        "type": "t_address"
      },
      {
        "astId": 7726,
        "contract": "contracts/alloyx/GoldfinchDelegacy.sol:GoldfinchDelegacy",
        "label": "earningGfiFee",
        "offset": 0,
        "slot": "1",
        "type": "t_uint256"
      },
      {
        "astId": 7729,
        "contract": "contracts/alloyx/GoldfinchDelegacy.sol:GoldfinchDelegacy",
        "label": "repaymentFee",
        "offset": 0,
        "slot": "2",
        "type": "t_uint256"
      },
      {
        "astId": 7732,
        "contract": "contracts/alloyx/GoldfinchDelegacy.sol:GoldfinchDelegacy",
        "label": "usdcCoin",
        "offset": 0,
        "slot": "3",
        "type": "t_contract(IERC20)2136"
      },
      {
        "astId": 7735,
        "contract": "contracts/alloyx/GoldfinchDelegacy.sol:GoldfinchDelegacy",
        "label": "gfiCoin",
        "offset": 0,
        "slot": "4",
        "type": "t_contract(IERC20)2136"
      },
      {
        "astId": 7738,
        "contract": "contracts/alloyx/GoldfinchDelegacy.sol:GoldfinchDelegacy",
        "label": "fiduCoin",
        "offset": 0,
        "slot": "5",
        "type": "t_contract(IERC20)2136"
      },
      {
        "astId": 7741,
        "contract": "contracts/alloyx/GoldfinchDelegacy.sol:GoldfinchDelegacy",
        "label": "poolToken",
        "offset": 0,
        "slot": "6",
        "type": "t_contract(IPoolTokens)9791"
      },
      {
        "astId": 7744,
        "contract": "contracts/alloyx/GoldfinchDelegacy.sol:GoldfinchDelegacy",
        "label": "seniorPool",
        "offset": 0,
        "slot": "7",
        "type": "t_contract(ISeniorPool)9887"
      },
      {
        "astId": 7747,
        "contract": "contracts/alloyx/GoldfinchDelegacy.sol:GoldfinchDelegacy",
        "label": "sortedGoldfinchTranches",
        "offset": 0,
        "slot": "8",
        "type": "t_contract(SortedGoldfinchTranches)9517"
      },
      {
        "astId": 7749,
        "contract": "contracts/alloyx/GoldfinchDelegacy.sol:GoldfinchDelegacy",
        "label": "coreVaultAddress",
        "offset": 0,
        "slot": "9",
        "type": "t_address"
      }
    ],
    "types": {
      "t_address": {
        "encoding": "inplace",
        "label": "address",
        "numberOfBytes": "20"
      },
      "t_contract(IERC20)2136": {
        "encoding": "inplace",
        "label": "contract IERC20",
        "numberOfBytes": "20"
      },
      "t_contract(IPoolTokens)9791": {
        "encoding": "inplace",
        "label": "contract IPoolTokens",
        "numberOfBytes": "20"
      },
      "t_contract(ISeniorPool)9887": {
        "encoding": "inplace",
        "label": "contract ISeniorPool",
        "numberOfBytes": "20"
      },
      "t_contract(SortedGoldfinchTranches)9517": {
        "encoding": "inplace",
        "label": "contract SortedGoldfinchTranches",
        "numberOfBytes": "20"
      },
      "t_uint256": {
        "encoding": "inplace",
        "label": "uint256",
        "numberOfBytes": "32"
      }
    }
  }
}