{
  "address": "0x4B1B1BC427420478f06FF67D56a01078C3176400",
  "abi": [
    {
      "inputs": [
        {
          "internalType": "address",
          "name": "_poolAddress",
          "type": "address"
        }
      ],
      "stateMutability": "nonpayable",
      "type": "constructor"
    },
    {
      "anonymous": false,
      "inputs": [
        {
          "indexed": true,
          "internalType": "address",
          "name": "owner",
          "type": "address"
        },
        {
          "indexed": true,
          "internalType": "address",
          "name": "approved",
          "type": "address"
        },
        {
          "indexed": true,
          "internalType": "uint256",
          "name": "tokenId",
          "type": "uint256"
        }
      ],
      "name": "Approval",
      "type": "event"
    },
    {
      "anonymous": false,
      "inputs": [
        {
          "indexed": true,
          "internalType": "address",
          "name": "owner",
          "type": "address"
        },
        {
          "indexed": true,
          "internalType": "address",
          "name": "operator",
          "type": "address"
        },
        {
          "indexed": false,
          "internalType": "bool",
          "name": "approved",
          "type": "bool"
        }
      ],
      "name": "ApprovalForAll",
      "type": "event"
    },
    {
      "anonymous": false,
      "inputs": [
        {
          "indexed": true,
          "internalType": "address",
          "name": "owner",
          "type": "address"
        },
        {
          "indexed": true,
          "internalType": "address",
          "name": "pool",
          "type": "address"
        },
        {
          "indexed": true,
          "internalType": "uint256",
          "name": "tokenId",
          "type": "uint256"
        }
      ],
      "name": "TokenBurned",
      "type": "event"
    },
    {
      "anonymous": false,
      "inputs": [
        {
          "indexed": true,
          "internalType": "address",
          "name": "owner",
          "type": "address"
        },
        {
          "indexed": true,
          "internalType": "address",
          "name": "pool",
          "type": "address"
        },
        {
          "indexed": true,
          "internalType": "uint256",
          "name": "tokenId",
          "type": "uint256"
        },
        {
          "indexed": false,
          "internalType": "uint256",
          "name": "amount",
          "type": "uint256"
        },
        {
          "indexed": false,
          "internalType": "uint256",
          "name": "tranche",
          "type": "uint256"
        }
      ],
      "name": "TokenMinted",
      "type": "event"
    },
    {
      "anonymous": false,
      "inputs": [
        {
          "indexed": true,
          "internalType": "address",
          "name": "owner",
          "type": "address"
        },
        {
          "indexed": true,
          "internalType": "address",
          "name": "pool",
          "type": "address"
        },
        {
          "indexed": true,
          "internalType": "uint256",
          "name": "tokenId",
          "type": "uint256"
        },
        {
          "indexed": false,
          "internalType": "uint256",
          "name": "principalRedeemed",
          "type": "uint256"
        },
        {
          "indexed": false,
          "internalType": "uint256",
          "name": "interestRedeemed",
          "type": "uint256"
        },
        {
          "indexed": false,
          "internalType": "uint256",
          "name": "tranche",
          "type": "uint256"
        }
      ],
      "name": "TokenRedeemed",
      "type": "event"
    },
    {
      "anonymous": false,
      "inputs": [
        {
          "indexed": true,
          "internalType": "address",
          "name": "from",
          "type": "address"
        },
        {
          "indexed": true,
          "internalType": "address",
          "name": "to",
          "type": "address"
        },
        {
          "indexed": true,
          "internalType": "uint256",
          "name": "tokenId",
          "type": "uint256"
        }
      ],
      "name": "Transfer",
      "type": "event"
    },
    {
      "inputs": [
        {
          "internalType": "address",
          "name": "to",
          "type": "address"
        },
        {
          "internalType": "uint256",
          "name": "tokenId",
          "type": "uint256"
        }
      ],
      "name": "approve",
      "outputs": [],
      "stateMutability": "nonpayable",
      "type": "function"
    },
    {
      "inputs": [
        {
          "internalType": "address",
          "name": "owner",
          "type": "address"
        }
      ],
      "name": "balanceOf",
      "outputs": [
        {
          "internalType": "uint256",
          "name": "",
          "type": "uint256"
        }
      ],
      "stateMutability": "view",
      "type": "function"
    },
    {
      "inputs": [
        {
          "internalType": "uint256",
          "name": "tokenId",
          "type": "uint256"
        }
      ],
      "name": "burn",
      "outputs": [],
      "stateMutability": "nonpayable",
      "type": "function"
    },
    {
      "inputs": [
        {
          "internalType": "uint256",
          "name": "tokenId",
          "type": "uint256"
        }
      ],
      "name": "getApproved",
      "outputs": [
        {
          "internalType": "address",
          "name": "",
          "type": "address"
        }
      ],
      "stateMutability": "view",
      "type": "function"
    },
    {
      "inputs": [
        {
          "internalType": "uint256",
          "name": "tokenId",
          "type": "uint256"
        }
      ],
      "name": "getTokenInfo",
      "outputs": [
        {
          "components": [
            {
              "internalType": "address",
              "name": "pool",
              "type": "address"
            },
            {
              "internalType": "uint256",
              "name": "tranche",
              "type": "uint256"
            },
            {
              "internalType": "uint256",
              "name": "principalAmount",
              "type": "uint256"
            },
            {
              "internalType": "uint256",
              "name": "principalRedeemed",
              "type": "uint256"
            },
            {
              "internalType": "uint256",
              "name": "interestRedeemed",
              "type": "uint256"
            }
          ],
          "internalType": "struct IPoolTokens.TokenInfo",
          "name": "",
          "type": "tuple"
        }
      ],
      "stateMutability": "view",
      "type": "function"
    },
    {
      "inputs": [
        {
          "internalType": "address",
          "name": "owner",
          "type": "address"
        },
        {
          "internalType": "address",
          "name": "operator",
          "type": "address"
        }
      ],
      "name": "isApprovedForAll",
      "outputs": [
        {
          "internalType": "bool",
          "name": "",
          "type": "bool"
        }
      ],
      "stateMutability": "view",
      "type": "function"
    },
    {
      "inputs": [
        {
          "internalType": "address",
          "name": "spender",
          "type": "address"
        },
        {
          "internalType": "uint256",
          "name": "tokenId",
          "type": "uint256"
        }
      ],
      "name": "isApprovedOrOwner",
      "outputs": [
        {
          "internalType": "bool",
          "name": "",
          "type": "bool"
        }
      ],
      "stateMutability": "view",
      "type": "function"
    },
    {
      "inputs": [
        {
          "components": [
            {
              "internalType": "uint256",
              "name": "principalAmount",
              "type": "uint256"
            },
            {
              "internalType": "uint256",
              "name": "tranche",
              "type": "uint256"
            }
          ],
          "internalType": "struct IPoolTokens.MintParams",
          "name": "params",
          "type": "tuple"
        },
        {
          "internalType": "address",
          "name": "to",
          "type": "address"
        }
      ],
      "name": "mint",
      "outputs": [
        {
          "internalType": "uint256",
          "name": "tokenId",
          "type": "uint256"
        }
      ],
      "stateMutability": "nonpayable",
      "type": "function"
    },
    {
      "inputs": [],
      "name": "name",
      "outputs": [
        {
          "internalType": "string",
          "name": "",
          "type": "string"
        }
      ],
      "stateMutability": "view",
      "type": "function"
    },
    {
      "inputs": [
        {
          "internalType": "address",
          "name": "newPool",
          "type": "address"
        }
      ],
      "name": "onPoolCreated",
      "outputs": [],
      "stateMutability": "nonpayable",
      "type": "function"
    },
    {
      "inputs": [
        {
          "internalType": "uint256",
          "name": "tokenId",
          "type": "uint256"
        }
      ],
      "name": "ownerOf",
      "outputs": [
        {
          "internalType": "address",
          "name": "",
          "type": "address"
        }
      ],
      "stateMutability": "view",
      "type": "function"
    },
    {
      "inputs": [
        {
          "internalType": "address",
          "name": "",
          "type": "address"
        }
      ],
      "name": "pools",
      "outputs": [
        {
          "internalType": "uint256",
          "name": "totalMinted",
          "type": "uint256"
        },
        {
          "internalType": "uint256",
          "name": "totalPrincipalRedeemed",
          "type": "uint256"
        },
        {
          "internalType": "bool",
          "name": "created",
          "type": "bool"
        }
      ],
      "stateMutability": "view",
      "type": "function"
    },
    {
      "inputs": [
        {
          "internalType": "uint256",
          "name": "tokenId",
          "type": "uint256"
        },
        {
          "internalType": "uint256",
          "name": "principalRedeemed",
          "type": "uint256"
        },
        {
          "internalType": "uint256",
          "name": "interestRedeemed",
          "type": "uint256"
        }
      ],
      "name": "redeem",
      "outputs": [],
      "stateMutability": "nonpayable",
      "type": "function"
    },
    {
      "inputs": [
        {
          "internalType": "address",
          "name": "from",
          "type": "address"
        },
        {
          "internalType": "address",
          "name": "to",
          "type": "address"
        },
        {
          "internalType": "uint256",
          "name": "tokenId",
          "type": "uint256"
        }
      ],
      "name": "safeTransferFrom",
      "outputs": [],
      "stateMutability": "nonpayable",
      "type": "function"
    },
    {
      "inputs": [
        {
          "internalType": "address",
          "name": "from",
          "type": "address"
        },
        {
          "internalType": "address",
          "name": "to",
          "type": "address"
        },
        {
          "internalType": "uint256",
          "name": "tokenId",
          "type": "uint256"
        },
        {
          "internalType": "bytes",
          "name": "_data",
          "type": "bytes"
        }
      ],
      "name": "safeTransferFrom",
      "outputs": [],
      "stateMutability": "nonpayable",
      "type": "function"
    },
    {
      "inputs": [
        {
          "components": [
            {
              "internalType": "uint256",
              "name": "principalAmount",
              "type": "uint256"
            },
            {
              "internalType": "uint256",
              "name": "tranche",
              "type": "uint256"
            }
          ],
          "internalType": "struct IPoolTokens.MintParams",
          "name": "params",
          "type": "tuple"
        },
        {
          "internalType": "address",
          "name": "to",
          "type": "address"
        },
        {
          "internalType": "uint256",
          "name": "tokenId",
          "type": "uint256"
        }
      ],
      "name": "self_mint",
      "outputs": [
        {
          "internalType": "uint256",
          "name": "tokenIdReturn",
          "type": "uint256"
        }
      ],
      "stateMutability": "nonpayable",
      "type": "function"
    },
    {
      "inputs": [
        {
          "internalType": "address",
          "name": "operator",
          "type": "address"
        },
        {
          "internalType": "bool",
          "name": "approved",
          "type": "bool"
        }
      ],
      "name": "setApprovalForAll",
      "outputs": [],
      "stateMutability": "nonpayable",
      "type": "function"
    },
    {
      "inputs": [
        {
          "internalType": "address",
          "name": "_poolAddress",
          "type": "address"
        }
      ],
      "name": "setPoolAddress",
      "outputs": [],
      "stateMutability": "nonpayable",
      "type": "function"
    },
    {
      "inputs": [
        {
          "internalType": "bytes4",
          "name": "interfaceId",
          "type": "bytes4"
        }
      ],
      "name": "supportsInterface",
      "outputs": [
        {
          "internalType": "bool",
          "name": "",
          "type": "bool"
        }
      ],
      "stateMutability": "view",
      "type": "function"
    },
    {
      "inputs": [],
      "name": "symbol",
      "outputs": [
        {
          "internalType": "string",
          "name": "",
          "type": "string"
        }
      ],
      "stateMutability": "view",
      "type": "function"
    },
    {
      "inputs": [
        {
          "internalType": "uint256",
          "name": "index",
          "type": "uint256"
        }
      ],
      "name": "tokenByIndex",
      "outputs": [
        {
          "internalType": "uint256",
          "name": "",
          "type": "uint256"
        }
      ],
      "stateMutability": "view",
      "type": "function"
    },
    {
      "inputs": [
        {
          "internalType": "address",
          "name": "owner",
          "type": "address"
        },
        {
          "internalType": "uint256",
          "name": "index",
          "type": "uint256"
        }
      ],
      "name": "tokenOfOwnerByIndex",
      "outputs": [
        {
          "internalType": "uint256",
          "name": "",
          "type": "uint256"
        }
      ],
      "stateMutability": "view",
      "type": "function"
    },
    {
      "inputs": [
        {
          "internalType": "uint256",
          "name": "tokenId",
          "type": "uint256"
        }
      ],
      "name": "tokenURI",
      "outputs": [
        {
          "internalType": "string",
          "name": "",
          "type": "string"
        }
      ],
      "stateMutability": "view",
      "type": "function"
    },
    {
      "inputs": [
        {
          "internalType": "uint256",
          "name": "",
          "type": "uint256"
        }
      ],
      "name": "tokens",
      "outputs": [
        {
          "internalType": "address",
          "name": "pool",
          "type": "address"
        },
        {
          "internalType": "uint256",
          "name": "tranche",
          "type": "uint256"
        },
        {
          "internalType": "uint256",
          "name": "principalAmount",
          "type": "uint256"
        },
        {
          "internalType": "uint256",
          "name": "principalRedeemed",
          "type": "uint256"
        },
        {
          "internalType": "uint256",
          "name": "interestRedeemed",
          "type": "uint256"
        }
      ],
      "stateMutability": "view",
      "type": "function"
    },
    {
      "inputs": [],
      "name": "totalSupply",
      "outputs": [
        {
          "internalType": "uint256",
          "name": "",
          "type": "uint256"
        }
      ],
      "stateMutability": "view",
      "type": "function"
    },
    {
      "inputs": [
        {
          "internalType": "address",
          "name": "from",
          "type": "address"
        },
        {
          "internalType": "address",
          "name": "to",
          "type": "address"
        },
        {
          "internalType": "uint256",
          "name": "tokenId",
          "type": "uint256"
        }
      ],
      "name": "transferFrom",
      "outputs": [],
      "stateMutability": "nonpayable",
      "type": "function"
    },
    {
      "inputs": [
        {
          "internalType": "address",
          "name": "sender",
          "type": "address"
        }
      ],
      "name": "validPool",
      "outputs": [
        {
          "internalType": "bool",
          "name": "",
          "type": "bool"
        }
      ],
      "stateMutability": "view",
      "type": "function"
    }
  ],
  "transactionHash": "0xc6c6485009a672b2f8943f0a5b0a964ae0732db4e15e75198ae091100e242899",
  "args": [
    "0xB7E1e43Ed1703127560eE8Ab81458a4C7Dd7B784"
  ],
  "numDeployments": 3,
  "solcInputHash": "d07d32007b996b2c1be287970f2d99af",
  "bytecode": "0x60806040526000600a553480156200001657600080fd5b506040516200203a3803806200203a83398101604081905262000039916200016c565b604080518082018252600a815269506f6f6c546f6b656e7360b01b602080830191825283518085019094526003845262282a2760e91b9084015281519192916200008691600091620000c6565b5080516200009c906001906020840190620000c6565b5050600d80546001600160a01b0319166001600160a01b03939093169290921790915550620001db565b828054620000d4906200019e565b90600052602060002090601f016020900481019282620000f8576000855562000143565b82601f106200011357805160ff191683800117855562000143565b8280016001018555821562000143579182015b828111156200014357825182559160200191906001019062000126565b506200015192915062000155565b5090565b5b8082111562000151576000815560010162000156565b6000602082840312156200017f57600080fd5b81516001600160a01b03811681146200019757600080fd5b9392505050565b600181811c90821680620001b357607f821691505b60208210811415620001d557634e487b7160e01b600052602260045260246000fd5b50919050565b611e4f80620001eb6000396000f3fe608060405234801561001057600080fd5b50600436106101b95760003560e01c806357e340ce116100f9578063a4063dbc11610097578063b88d4fde11610071578063b88d4fde146104a6578063c87b56dd146104b9578063e985e9c5146104cc578063e9e15b4f1461050857600080fd5b8063a4063dbc14610430578063b5ada6d81461047f578063b81922051461049357600080fd5b806370a08231116100d357806370a08231146103a45780638c7a63ae146103b757806395d89b4114610415578063a22cb4651461041d57600080fd5b806357e340ce146103495780635be57b6a1461037e5780636352211e1461039157600080fd5b80632f745c591161016657806342966c681161014057806342966c6814610299578063430c2081146102aa5780634f64b2be146102bd5780634f6ccce71461033657600080fd5b80632f745c591461026057806337fdc8a11461027357806342842e0e1461028657600080fd5b8063095ea7b311610197578063095ea7b31461022657806318160ddd1461023b57806323b872dd1461024d57600080fd5b806301ffc9a7146101be57806306fdde03146101e6578063081812fc146101fb575b600080fd5b6101d16101cc366004611b31565b610538565b60405190151581526020015b60405180910390f35b6101ee61057c565b6040516101dd9190611caf565b61020e610209366004611bd3565b61060e565b6040516001600160a01b0390911681526020016101dd565b610239610234366004611b07565b6106a8565b005b6008545b6040519081526020016101dd565b61023961025b3660046119b3565b6107d5565b61023f61026e366004611b07565b61085c565b61023f610281366004611b96565b610904565b6102396102943660046119b3565b610995565b6102396102a7366004611bd3565b50565b6101d16102b8366004611b07565b6109b0565b6103046102cb366004611bd3565b600b60205260009081526040902080546001820154600283015460038401546004909401546001600160a01b0390931693919290919085565b604080516001600160a01b0390961686526020860194909452928401919091526060830152608082015260a0016101dd565b61023f610344366004611bd3565b6109c3565b610239610357366004611965565b6001600160a01b03166000908152600c60205260409020600201805460ff19166001179055565b61023f61038c366004611b6b565b610a67565b61020e61039f366004611bd3565b610a7d565b61023f6103b2366004611965565b610b08565b6103ca6103c5366004611bd3565b610ba2565b6040516101dd9190600060a0820190506001600160a01b0383511682526020830151602083015260408301516040830152606083015160608301526080830151608083015292915050565b6101ee610c35565b61023961042b366004611acb565b610c44565b61046261043e366004611965565b600c6020526000908152604090208054600182015460029092015490919060ff1683565b6040805193845260208401929092521515908201526060016101dd565b6101d161048d366004611965565b50600190565b6102396104a1366004611bec565b505050565b6102396104b43660046119ef565b610c53565b6101ee6104c7366004611bd3565b610ce1565b6101d16104da366004611980565b6001600160a01b03918216600090815260056020908152604080832093909416825291909152205460ff1690565b610239610516366004611965565b600d80546001600160a01b0319166001600160a01b0392909216919091179055565b60006001600160e01b031982167f780e9d63000000000000000000000000000000000000000000000000000000001480610576575061057682610dd6565b92915050565b60606000805461058b90611d31565b80601f01602080910402602001604051908101604052809291908181526020018280546105b790611d31565b80156106045780601f106105d957610100808354040283529160200191610604565b820191906000526020600020905b8154815290600101906020018083116105e757829003601f168201915b5050505050905090565b6000818152600260205260408120546001600160a01b031661068c5760405162461bcd60e51b815260206004820152602c60248201527f4552433732313a20617070726f76656420717565727920666f72206e6f6e657860448201526b34b9ba32b73a103a37b5b2b760a11b60648201526084015b60405180910390fd5b506000908152600460205260409020546001600160a01b031690565b60006106b382610a7d565b9050806001600160a01b0316836001600160a01b0316141561073d5760405162461bcd60e51b815260206004820152602160248201527f4552433732313a20617070726f76616c20746f2063757272656e74206f776e6560448201527f72000000000000000000000000000000000000000000000000000000000000006064820152608401610683565b336001600160a01b0382161480610759575061075981336104da565b6107cb5760405162461bcd60e51b815260206004820152603860248201527f4552433732313a20617070726f76652063616c6c6572206973206e6f74206f7760448201527f6e6572206e6f7220617070726f76656420666f7220616c6c00000000000000006064820152608401610683565b6104a18383610e71565b6107df3382610edf565b6108515760405162461bcd60e51b815260206004820152603160248201527f4552433732313a207472616e736665722063616c6c6572206973206e6f74206f60448201527f776e6572206e6f7220617070726f7665640000000000000000000000000000006064820152608401610683565b6104a1838383610fd6565b600061086783610b08565b82106108db5760405162461bcd60e51b815260206004820152602b60248201527f455243373231456e756d657261626c653a206f776e657220696e646578206f7560448201527f74206f6620626f756e64730000000000000000000000000000000000000000006064820152608401610683565b506001600160a01b03919091166000908152600660209081526040808320938352929052205490565b600d546040805160a0810182526001600160a01b039283168152602086810135818301908152873583850190815260006060850181815260808601828152898352600b909552958120945185546001600160a01b03191697169690961784559051600184015551600283015591516003820155905160049091015561098983836111ae565b50600a81905592915050565b6104a183838360405180602001604052806000815250610c53565b60006109bc8383610edf565b9392505050565b60006109ce60085490565b8210610a425760405162461bcd60e51b815260206004820152602c60248201527f455243373231456e756d657261626c653a20676c6f62616c20696e646578206f60448201527f7574206f6620626f756e647300000000000000000000000000000000000000006064820152608401610683565b60088281548110610a5557610a55611dd7565b90600052602060002001549050919050565b60006109bc8383600a5460016102819190611cc2565b6000818152600260205260408120546001600160a01b0316806105765760405162461bcd60e51b815260206004820152602960248201527f4552433732313a206f776e657220717565727920666f72206e6f6e657869737460448201527f656e7420746f6b656e00000000000000000000000000000000000000000000006064820152608401610683565b60006001600160a01b038216610b865760405162461bcd60e51b815260206004820152602a60248201527f4552433732313a2062616c616e636520717565727920666f7220746865207a6560448201527f726f2061646472657373000000000000000000000000000000000000000000006064820152608401610683565b506001600160a01b031660009081526003602052604090205490565b610bdd6040518060a0016040528060006001600160a01b03168152602001600081526020016000815260200160008152602001600081525090565b506000908152600b6020908152604091829020825160a08101845281546001600160a01b0316815260018201549281019290925260028101549282019290925260038201546060820152600490910154608082015290565b60606001805461058b90611d31565b610c4f3383836112fc565b5050565b610c5d3383610edf565b610ccf5760405162461bcd60e51b815260206004820152603160248201527f4552433732313a207472616e736665722063616c6c6572206973206e6f74206f60448201527f776e6572206e6f7220617070726f7665640000000000000000000000000000006064820152608401610683565b610cdb848484846113cb565b50505050565b6000818152600260205260409020546060906001600160a01b0316610d6e5760405162461bcd60e51b815260206004820152602f60248201527f4552433732314d657461646174613a2055524920717565727920666f72206e6f60448201527f6e6578697374656e7420746f6b656e00000000000000000000000000000000006064820152608401610683565b6000610d8560408051602081019091526000815290565b90506000815111610da557604051806020016040528060008152506109bc565b80610daf84611454565b604051602001610dc0929190611c44565b6040516020818303038152906040529392505050565b60006001600160e01b031982167f80ac58cd000000000000000000000000000000000000000000000000000000001480610e3957506001600160e01b031982167f5b5e139f00000000000000000000000000000000000000000000000000000000145b8061057657507f01ffc9a7000000000000000000000000000000000000000000000000000000006001600160e01b0319831614610576565b600081815260046020526040902080546001600160a01b0319166001600160a01b0384169081179091558190610ea682610a7d565b6001600160a01b03167f8c5be1e5ebec7d5bd14f71427d1e84f3dd0314c0f7b2291e5b200ac8c7c3b92560405160405180910390a45050565b6000818152600260205260408120546001600160a01b0316610f585760405162461bcd60e51b815260206004820152602c60248201527f4552433732313a206f70657261746f7220717565727920666f72206e6f6e657860448201526b34b9ba32b73a103a37b5b2b760a11b6064820152608401610683565b6000610f6383610a7d565b9050806001600160a01b0316846001600160a01b03161480610f9e5750836001600160a01b0316610f938461060e565b6001600160a01b0316145b80610fce57506001600160a01b0380821660009081526005602090815260408083209388168352929052205460ff165b949350505050565b826001600160a01b0316610fe982610a7d565b6001600160a01b0316146110655760405162461bcd60e51b815260206004820152602560248201527f4552433732313a207472616e736665722066726f6d20696e636f72726563742060448201527f6f776e65720000000000000000000000000000000000000000000000000000006064820152608401610683565b6001600160a01b0382166110e05760405162461bcd60e51b8152602060048201526024808201527f4552433732313a207472616e7366657220746f20746865207a65726f2061646460448201527f72657373000000000000000000000000000000000000000000000000000000006064820152608401610683565b6110eb838383611586565b6110f6600082610e71565b6001600160a01b038316600090815260036020526040812080546001929061111f908490611cee565b90915550506001600160a01b038216600090815260036020526040812080546001929061114d908490611cc2565b909155505060008181526002602052604080822080546001600160a01b0319166001600160a01b0386811691821790925591518493918716917fddf252ad1be2c89b69c2b068fc378daa952ba7f163c4a11628f55a4df523b3ef91a4505050565b6001600160a01b0382166112045760405162461bcd60e51b815260206004820181905260248201527f4552433732313a206d696e7420746f20746865207a65726f20616464726573736044820152606401610683565b6000818152600260205260409020546001600160a01b0316156112695760405162461bcd60e51b815260206004820152601c60248201527f4552433732313a20746f6b656e20616c7265616479206d696e746564000000006044820152606401610683565b61127560008383611586565b6001600160a01b038216600090815260036020526040812080546001929061129e908490611cc2565b909155505060008181526002602052604080822080546001600160a01b0319166001600160a01b03861690811790915590518392907fddf252ad1be2c89b69c2b068fc378daa952ba7f163c4a11628f55a4df523b3ef908290a45050565b816001600160a01b0316836001600160a01b0316141561135e5760405162461bcd60e51b815260206004820152601960248201527f4552433732313a20617070726f766520746f2063616c6c6572000000000000006044820152606401610683565b6001600160a01b03838116600081815260056020908152604080832094871680845294825291829020805460ff191686151590811790915591519182527f17307eab39ab6107e8899845ad3d59bd9653f200f220920489ca2b5937696c31910160405180910390a3505050565b6113d6848484610fd6565b6113e28484848461163e565b610cdb5760405162461bcd60e51b815260206004820152603260248201527f4552433732313a207472616e7366657220746f206e6f6e20455243373231526560448201527f63656976657220696d706c656d656e74657200000000000000000000000000006064820152608401610683565b60608161149457505060408051808201909152600181527f3000000000000000000000000000000000000000000000000000000000000000602082015290565b8160005b81156114be57806114a881611d66565b91506114b79050600a83611cda565b9150611498565b60008167ffffffffffffffff8111156114d9576114d9611ded565b6040519080825280601f01601f191660200182016040528015611503576020820181803683370190505b5090505b8415610fce57611518600183611cee565b9150611525600a86611d81565b611530906030611cc2565b60f81b81838151811061154557611545611dd7565b60200101907effffffffffffffffffffffffffffffffffffffffffffffffffffffffffffff1916908160001a90535061157f600a86611cda565b9450611507565b6001600160a01b0383166115e1576115dc81600880546000838152600960205260408120829055600182018355919091527ff3f7a9fe364faab93b216da50a3214154f22a0a2b415b23a84c8169e8b636ee30155565b611604565b816001600160a01b0316836001600160a01b0316146116045761160483826117a1565b6001600160a01b03821661161b576104a18161183e565b826001600160a01b0316826001600160a01b0316146104a1576104a182826118ed565b60006001600160a01b0384163b1561179657604051630a85bd0160e11b81526001600160a01b0385169063150b7a0290611682903390899088908890600401611c73565b602060405180830381600087803b15801561169c57600080fd5b505af19250505080156116cc575060408051601f3d908101601f191682019092526116c991810190611b4e565b60015b61177c573d8080156116fa576040519150601f19603f3d011682016040523d82523d6000602084013e6116ff565b606091505b5080516117745760405162461bcd60e51b815260206004820152603260248201527f4552433732313a207472616e7366657220746f206e6f6e20455243373231526560448201527f63656976657220696d706c656d656e74657200000000000000000000000000006064820152608401610683565b805181602001fd5b6001600160e01b031916630a85bd0160e11b149050610fce565b506001949350505050565b600060016117ae84610b08565b6117b89190611cee565b60008381526007602052604090205490915080821461180b576001600160a01b03841660009081526006602090815260408083208584528252808320548484528184208190558352600790915290208190555b5060009182526007602090815260408084208490556001600160a01b039094168352600681528383209183525290812055565b60085460009061185090600190611cee565b6000838152600960205260408120546008805493945090928490811061187857611878611dd7565b90600052602060002001549050806008838154811061189957611899611dd7565b60009182526020808320909101929092558281526009909152604080822084905585825281205560088054806118d1576118d1611dc1565b6001900381819060005260206000200160009055905550505050565b60006118f883610b08565b6001600160a01b039093166000908152600660209081526040808320868452825280832085905593825260079052919091209190915550565b80356001600160a01b038116811461194857600080fd5b919050565b60006040828403121561195f57600080fd5b50919050565b60006020828403121561197757600080fd5b6109bc82611931565b6000806040838503121561199357600080fd5b61199c83611931565b91506119aa60208401611931565b90509250929050565b6000806000606084860312156119c857600080fd5b6119d184611931565b92506119df60208501611931565b9150604084013590509250925092565b60008060008060808587031215611a0557600080fd5b611a0e85611931565b9350611a1c60208601611931565b925060408501359150606085013567ffffffffffffffff80821115611a4057600080fd5b818701915087601f830112611a5457600080fd5b813581811115611a6657611a66611ded565b604051601f8201601f19908116603f01168101908382118183101715611a8e57611a8e611ded565b816040528281528a6020848701011115611aa757600080fd5b82602086016020830137600060208483010152809550505050505092959194509250565b60008060408385031215611ade57600080fd5b611ae783611931565b915060208301358015158114611afc57600080fd5b809150509250929050565b60008060408385031215611b1a57600080fd5b611b2383611931565b946020939093013593505050565b600060208284031215611b4357600080fd5b81356109bc81611e03565b600060208284031215611b6057600080fd5b81516109bc81611e03565b60008060608385031215611b7e57600080fd5b611b88848461194d565b91506119aa60408401611931565b600080600060808486031215611bab57600080fd5b611bb5858561194d565b9250611bc360408501611931565b9150606084013590509250925092565b600060208284031215611be557600080fd5b5035919050565b600080600060608486031215611c0157600080fd5b505081359360208301359350604090920135919050565b60008151808452611c30816020860160208601611d05565b601f01601f19169290920160200192915050565b60008351611c56818460208801611d05565b835190830190611c6a818360208801611d05565b01949350505050565b60006001600160a01b03808716835280861660208401525083604083015260806060830152611ca56080830184611c18565b9695505050505050565b6020815260006109bc6020830184611c18565b60008219821115611cd557611cd5611d95565b500190565b600082611ce957611ce9611dab565b500490565b600082821015611d0057611d00611d95565b500390565b60005b83811015611d20578181015183820152602001611d08565b83811115610cdb5750506000910152565b600181811c90821680611d4557607f821691505b6020821081141561195f57634e487b7160e01b600052602260045260246000fd5b6000600019821415611d7a57611d7a611d95565b5060010190565b600082611d9057611d90611dab565b500690565b634e487b7160e01b600052601160045260246000fd5b634e487b7160e01b600052601260045260246000fd5b634e487b7160e01b600052603160045260246000fd5b634e487b7160e01b600052603260045260246000fd5b634e487b7160e01b600052604160045260246000fd5b6001600160e01b0319811681146102a757600080fdfea2646970667358221220d3e4236520275f3df081a21703c50f511a3d225b0ce593cebf57a73bc765a10b64736f6c63430008070033",
  "devdoc": {
    "author": "Goldfinch",
    "kind": "dev",
    "methods": {
      "approve(address,uint256)": {
        "details": "See {IERC721-approve}."
      },
      "balanceOf(address)": {
        "details": "See {IERC721-balanceOf}."
      },
      "burn(uint256)": {
        "details": "Burns a specific ERC721 token, and removes the data from our mappings",
        "params": {
          "tokenId": "uint256 id of the ERC721 token to be burned."
        }
      },
      "getApproved(uint256)": {
        "details": "See {IERC721-getApproved}."
      },
      "isApprovedForAll(address,address)": {
        "details": "See {IERC721-isApprovedForAll}."
      },
      "isApprovedOrOwner(address,uint256)": {
        "params": {
          "spender": "The address to check",
          "tokenId": "The token id to check for"
        },
        "returns": {
          "_0": "True if approved to redeem/transfer/burn the token, false if not"
        }
      },
      "mint((uint256,uint256),address)": {
        "params": {
          "params": "Struct containing the tranche and the amount",
          "to": "The address that should own the position"
        },
        "returns": {
          "tokenId": "The token ID (auto-incrementing integer across all pools)"
        }
      },
      "name()": {
        "details": "See {IERC721Metadata-name}."
      },
      "onPoolCreated(address)": {
        "params": {
          "newPool": "The address of the newly created pool"
        }
      },
      "ownerOf(uint256)": {
        "details": "See {IERC721-ownerOf}."
      },
      "redeem(uint256,uint256,uint256)": {
        "params": {
          "interestRedeemed": "The incremental amount of interest redeemed",
          "principalRedeemed": "The incremental amount of principal redeemed (cannot be more than principal deposited)",
          "tokenId": "The token id to update (must be owned by the pool calling this function)"
        }
      },
      "safeTransferFrom(address,address,uint256)": {
        "details": "See {IERC721-safeTransferFrom}."
      },
      "safeTransferFrom(address,address,uint256,bytes)": {
        "details": "See {IERC721-safeTransferFrom}."
      },
      "setApprovalForAll(address,bool)": {
        "details": "See {IERC721-setApprovalForAll}."
      },
      "supportsInterface(bytes4)": {
        "details": "See {IERC165-supportsInterface}."
      },
      "symbol()": {
        "details": "See {IERC721Metadata-symbol}."
      },
      "tokenByIndex(uint256)": {
        "details": "See {IERC721Enumerable-tokenByIndex}."
      },
      "tokenOfOwnerByIndex(address,uint256)": {
        "details": "See {IERC721Enumerable-tokenOfOwnerByIndex}."
      },
      "tokenURI(uint256)": {
        "details": "See {IERC721Metadata-tokenURI}."
      },
      "totalSupply()": {
        "details": "See {IERC721Enumerable-totalSupply}."
      },
      "transferFrom(address,address,uint256)": {
        "details": "See {IERC721-transferFrom}."
      }
    },
    "title": "PoolTokens",
    "version": 1
  },
  "userdoc": {
    "kind": "user",
    "methods": {
      "isApprovedOrOwner(address,uint256)": {
        "notice": "Returns a boolean representing whether the spender is the owner or the approved spender of the token"
      },
      "mint((uint256,uint256),address)": {
        "notice": "Called by pool to create a debt position in a particular tranche and amount"
      },
      "onPoolCreated(address)": {
        "notice": "Called by the GoldfinchFactory to register the pool as a valid pool. Only valid pools can mint/redeem tokens"
      },
      "redeem(uint256,uint256,uint256)": {
        "notice": "Updates a token to reflect the principal and interest amounts that have been redeemed."
      }
    },
    "notice": "PoolTokens is an ERC721 compliant contract, which can represent  junior tranche or senior tranche shares of any of the borrower pools.",
    "version": 1
  },
  "storageLayout": {
    "storage": [
      {
        "astId": 3313,
        "contract": "contracts/goldfinch/protocol/core/PoolTokens.sol:PoolTokens",
        "label": "_name",
        "offset": 0,
        "slot": "0",
        "type": "t_string_storage"
      },
      {
        "astId": 3315,
        "contract": "contracts/goldfinch/protocol/core/PoolTokens.sol:PoolTokens",
        "label": "_symbol",
        "offset": 0,
        "slot": "1",
        "type": "t_string_storage"
      },
      {
        "astId": 3319,
        "contract": "contracts/goldfinch/protocol/core/PoolTokens.sol:PoolTokens",
        "label": "_owners",
        "offset": 0,
        "slot": "2",
        "type": "t_mapping(t_uint256,t_address)"
      },
      {
        "astId": 3323,
        "contract": "contracts/goldfinch/protocol/core/PoolTokens.sol:PoolTokens",
        "label": "_balances",
        "offset": 0,
        "slot": "3",
        "type": "t_mapping(t_address,t_uint256)"
      },
      {
        "astId": 3327,
        "contract": "contracts/goldfinch/protocol/core/PoolTokens.sol:PoolTokens",
        "label": "_tokenApprovals",
        "offset": 0,
        "slot": "4",
        "type": "t_mapping(t_uint256,t_address)"
      },
      {
        "astId": 3333,
        "contract": "contracts/goldfinch/protocol/core/PoolTokens.sol:PoolTokens",
        "label": "_operatorApprovals",
        "offset": 0,
        "slot": "5",
        "type": "t_mapping(t_address,t_mapping(t_address,t_bool))"
      },
      {
        "astId": 4302,
        "contract": "contracts/goldfinch/protocol/core/PoolTokens.sol:PoolTokens",
        "label": "_ownedTokens",
        "offset": 0,
        "slot": "6",
        "type": "t_mapping(t_address,t_mapping(t_uint256,t_uint256))"
      },
      {
        "astId": 4306,
        "contract": "contracts/goldfinch/protocol/core/PoolTokens.sol:PoolTokens",
        "label": "_ownedTokensIndex",
        "offset": 0,
        "slot": "7",
        "type": "t_mapping(t_uint256,t_uint256)"
      },
      {
        "astId": 4309,
        "contract": "contracts/goldfinch/protocol/core/PoolTokens.sol:PoolTokens",
        "label": "_allTokens",
        "offset": 0,
        "slot": "8",
        "type": "t_array(t_uint256)dyn_storage"
      },
      {
        "astId": 4313,
        "contract": "contracts/goldfinch/protocol/core/PoolTokens.sol:PoolTokens",
        "label": "_allTokensIndex",
        "offset": 0,
        "slot": "9",
        "type": "t_mapping(t_uint256,t_uint256)"
      },
      {
        "astId": 8784,
        "contract": "contracts/goldfinch/protocol/core/PoolTokens.sol:PoolTokens",
        "label": "lastTokenId",
        "offset": 0,
        "slot": "10",
        "type": "t_uint256"
      },
      {
        "astId": 8789,
        "contract": "contracts/goldfinch/protocol/core/PoolTokens.sol:PoolTokens",
        "label": "tokens",
        "offset": 0,
        "slot": "11",
        "type": "t_mapping(t_uint256,t_struct(TokenInfo)8297_storage)"
      },
      {
        "astId": 8794,
        "contract": "contracts/goldfinch/protocol/core/PoolTokens.sol:PoolTokens",
        "label": "pools",
        "offset": 0,
        "slot": "12",
        "type": "t_mapping(t_address,t_struct(PoolInfo)8781_storage)"
      },
      {
        "astId": 8796,
        "contract": "contracts/goldfinch/protocol/core/PoolTokens.sol:PoolTokens",
        "label": "poolAddress",
        "offset": 0,
        "slot": "13",
        "type": "t_address"
      }
    ],
    "types": {
      "t_address": {
        "encoding": "inplace",
        "label": "address",
        "numberOfBytes": "20"
      },
      "t_array(t_uint256)dyn_storage": {
        "base": "t_uint256",
        "encoding": "dynamic_array",
        "label": "uint256[]",
        "numberOfBytes": "32"
      },
      "t_bool": {
        "encoding": "inplace",
        "label": "bool",
        "numberOfBytes": "1"
      },
      "t_mapping(t_address,t_bool)": {
        "encoding": "mapping",
        "key": "t_address",
        "label": "mapping(address => bool)",
        "numberOfBytes": "32",
        "value": "t_bool"
      },
      "t_mapping(t_address,t_mapping(t_address,t_bool))": {
        "encoding": "mapping",
        "key": "t_address",
        "label": "mapping(address => mapping(address => bool))",
        "numberOfBytes": "32",
        "value": "t_mapping(t_address,t_bool)"
      },
      "t_mapping(t_address,t_mapping(t_uint256,t_uint256))": {
        "encoding": "mapping",
        "key": "t_address",
        "label": "mapping(address => mapping(uint256 => uint256))",
        "numberOfBytes": "32",
        "value": "t_mapping(t_uint256,t_uint256)"
      },
      "t_mapping(t_address,t_struct(PoolInfo)8781_storage)": {
        "encoding": "mapping",
        "key": "t_address",
        "label": "mapping(address => struct PoolTokens.PoolInfo)",
        "numberOfBytes": "32",
        "value": "t_struct(PoolInfo)8781_storage"
      },
      "t_mapping(t_address,t_uint256)": {
        "encoding": "mapping",
        "key": "t_address",
        "label": "mapping(address => uint256)",
        "numberOfBytes": "32",
        "value": "t_uint256"
      },
      "t_mapping(t_uint256,t_address)": {
        "encoding": "mapping",
        "key": "t_uint256",
        "label": "mapping(uint256 => address)",
        "numberOfBytes": "32",
        "value": "t_address"
      },
      "t_mapping(t_uint256,t_struct(TokenInfo)8297_storage)": {
        "encoding": "mapping",
        "key": "t_uint256",
        "label": "mapping(uint256 => struct IPoolTokens.TokenInfo)",
        "numberOfBytes": "32",
        "value": "t_struct(TokenInfo)8297_storage"
      },
      "t_mapping(t_uint256,t_uint256)": {
        "encoding": "mapping",
        "key": "t_uint256",
        "label": "mapping(uint256 => uint256)",
        "numberOfBytes": "32",
        "value": "t_uint256"
      },
      "t_string_storage": {
        "encoding": "bytes",
        "label": "string",
        "numberOfBytes": "32"
      },
      "t_struct(PoolInfo)8781_storage": {
        "encoding": "inplace",
        "label": "struct PoolTokens.PoolInfo",
        "members": [
          {
            "astId": 8776,
            "contract": "contracts/goldfinch/protocol/core/PoolTokens.sol:PoolTokens",
            "label": "totalMinted",
            "offset": 0,
            "slot": "0",
            "type": "t_uint256"
          },
          {
            "astId": 8778,
            "contract": "contracts/goldfinch/protocol/core/PoolTokens.sol:PoolTokens",
            "label": "totalPrincipalRedeemed",
            "offset": 0,
            "slot": "1",
            "type": "t_uint256"
          },
          {
            "astId": 8780,
            "contract": "contracts/goldfinch/protocol/core/PoolTokens.sol:PoolTokens",
            "label": "created",
            "offset": 0,
            "slot": "2",
            "type": "t_bool"
          }
        ],
        "numberOfBytes": "96"
      },
      "t_struct(TokenInfo)8297_storage": {
        "encoding": "inplace",
        "label": "struct IPoolTokens.TokenInfo",
        "members": [
          {
            "astId": 8288,
            "contract": "contracts/goldfinch/protocol/core/PoolTokens.sol:PoolTokens",
            "label": "pool",
            "offset": 0,
            "slot": "0",
            "type": "t_address"
          },
          {
            "astId": 8290,
            "contract": "contracts/goldfinch/protocol/core/PoolTokens.sol:PoolTokens",
            "label": "tranche",
            "offset": 0,
            "slot": "1",
            "type": "t_uint256"
          },
          {
            "astId": 8292,
            "contract": "contracts/goldfinch/protocol/core/PoolTokens.sol:PoolTokens",
            "label": "principalAmount",
            "offset": 0,
            "slot": "2",
            "type": "t_uint256"
          },
          {
            "astId": 8294,
            "contract": "contracts/goldfinch/protocol/core/PoolTokens.sol:PoolTokens",
            "label": "principalRedeemed",
            "offset": 0,
            "slot": "3",
            "type": "t_uint256"
          },
          {
            "astId": 8296,
            "contract": "contracts/goldfinch/protocol/core/PoolTokens.sol:PoolTokens",
            "label": "interestRedeemed",
            "offset": 0,
            "slot": "4",
            "type": "t_uint256"
          }
        ],
        "numberOfBytes": "160"
      },
      "t_uint256": {
        "encoding": "inplace",
        "label": "uint256",
        "numberOfBytes": "32"
      }
    }
  }
}