{
  "address": "0x35e956c31d41A9Aaf2Ff6a2899E2Eb9f7aB771A2",
  "abi": [
    {
      "inputs": [
        {
          "internalType": "uint256",
          "name": "_sharePrice",
          "type": "uint256"
        },
        {
          "internalType": "address",
          "name": "_fiduCoinAddress",
          "type": "address"
        },
        {
          "internalType": "address",
          "name": "_usdcCoinAddress",
          "type": "address"
        }
      ],
      "stateMutability": "nonpayable",
      "type": "constructor"
    },
    {
      "anonymous": false,
      "inputs": [
        {
          "indexed": true,
          "internalType": "address",
          "name": "capitalProvider",
          "type": "address"
        },
        {
          "indexed": false,
          "internalType": "uint256",
          "name": "amount",
          "type": "uint256"
        },
        {
          "indexed": false,
          "internalType": "uint256",
          "name": "shares",
          "type": "uint256"
        }
      ],
      "name": "DepositMade",
      "type": "event"
    },
    {
      "inputs": [],
      "name": "assets",
      "outputs": [
        {
          "internalType": "uint256",
          "name": "",
          "type": "uint256"
        }
      ],
      "stateMutability": "view",
      "type": "function"
    },
    {
      "inputs": [
        {
          "internalType": "uint256",
          "name": "tokenId",
          "type": "uint256"
        }
      ],
      "name": "calculateWritedown",
      "outputs": [
        {
          "internalType": "uint256",
          "name": "writedownAmount",
          "type": "uint256"
        }
      ],
      "stateMutability": "view",
      "type": "function"
    },
    {
      "inputs": [
        {
          "internalType": "uint256",
          "name": "amount",
          "type": "uint256"
        }
      ],
      "name": "deposit",
      "outputs": [
        {
          "internalType": "uint256",
          "name": "depositShares",
          "type": "uint256"
        }
      ],
      "stateMutability": "nonpayable",
      "type": "function"
    },
    {
      "inputs": [
        {
          "internalType": "uint256",
          "name": "amount",
          "type": "uint256"
        },
        {
          "internalType": "uint256",
          "name": "deadline",
          "type": "uint256"
        },
        {
          "internalType": "uint8",
          "name": "v",
          "type": "uint8"
        },
        {
          "internalType": "bytes32",
          "name": "r",
          "type": "bytes32"
        },
        {
          "internalType": "bytes32",
          "name": "s",
          "type": "bytes32"
        }
      ],
      "name": "depositWithPermit",
      "outputs": [
        {
          "internalType": "uint256",
          "name": "depositShares",
          "type": "uint256"
        }
      ],
      "stateMutability": "nonpayable",
      "type": "function"
    },
    {
      "inputs": [
        {
          "internalType": "contract ITranchedPool",
          "name": "pool",
          "type": "address"
        }
      ],
      "name": "estimateInvestment",
      "outputs": [
        {
          "internalType": "uint256",
          "name": "",
          "type": "uint256"
        }
      ],
      "stateMutability": "view",
      "type": "function"
    },
    {
      "inputs": [
        {
          "internalType": "uint256",
          "name": "_amount",
          "type": "uint256"
        }
      ],
      "name": "getNumShares",
      "outputs": [
        {
          "internalType": "uint256",
          "name": "",
          "type": "uint256"
        }
      ],
      "stateMutability": "view",
      "type": "function"
    },
    {
      "inputs": [
        {
          "internalType": "contract ITranchedPool",
          "name": "pool",
          "type": "address"
        }
      ],
      "name": "invest",
      "outputs": [],
      "stateMutability": "nonpayable",
      "type": "function"
    },
    {
      "inputs": [
        {
          "internalType": "uint256",
          "name": "tokenId",
          "type": "uint256"
        }
      ],
      "name": "redeem",
      "outputs": [],
      "stateMutability": "nonpayable",
      "type": "function"
    },
    {
      "inputs": [
        {
          "internalType": "uint256",
          "name": "_sharePrice",
          "type": "uint256"
        }
      ],
      "name": "setSharePrice",
      "outputs": [],
      "stateMutability": "nonpayable",
      "type": "function"
    },
    {
      "inputs": [],
      "name": "sharePrice",
      "outputs": [
        {
          "internalType": "uint256",
          "name": "",
          "type": "uint256"
        }
      ],
      "stateMutability": "view",
      "type": "function"
    },
    {
      "inputs": [],
      "name": "sweepFromCompound",
      "outputs": [],
      "stateMutability": "nonpayable",
      "type": "function"
    },
    {
      "inputs": [],
      "name": "sweepToCompound",
      "outputs": [],
      "stateMutability": "nonpayable",
      "type": "function"
    },
    {
      "inputs": [],
      "name": "totalLoansOutstanding",
      "outputs": [
        {
          "internalType": "uint256",
          "name": "",
          "type": "uint256"
        }
      ],
      "stateMutability": "view",
      "type": "function"
    },
    {
      "inputs": [],
      "name": "totalWritedowns",
      "outputs": [
        {
          "internalType": "uint256",
          "name": "",
          "type": "uint256"
        }
      ],
      "stateMutability": "view",
      "type": "function"
    },
    {
      "inputs": [
        {
          "internalType": "uint256",
          "name": "usdcAmount",
          "type": "uint256"
        }
      ],
      "name": "withdraw",
      "outputs": [
        {
          "internalType": "uint256",
          "name": "amount",
          "type": "uint256"
        }
      ],
      "stateMutability": "nonpayable",
      "type": "function"
    },
    {
      "inputs": [
        {
          "internalType": "uint256",
          "name": "fiduAmount",
          "type": "uint256"
        }
      ],
      "name": "withdrawInFidu",
      "outputs": [
        {
          "internalType": "uint256",
          "name": "amount",
          "type": "uint256"
        }
      ],
      "stateMutability": "nonpayable",
      "type": "function"
    },
    {
      "inputs": [
        {
          "internalType": "uint256",
          "name": "tokenId",
          "type": "uint256"
        }
      ],
      "name": "writedown",
      "outputs": [],
      "stateMutability": "nonpayable",
      "type": "function"
    }
  ],
  "transactionHash": "0x72952bcab882f3caabbd4adb8a1875ca8999723d1255cbbb2796339bdbe97206",
  "args": [
    1000,
    "0xE16be3162a27F4f7dA4a2Aff570E1b70d0486F16",
    "0x7364d2eD612ba76Aa5de69948b652D8a1545660B"
  ],
  "numDeployments": 1,
  "solcInputHash": "38472ce1e4577c192ec978c81f70b057",
  "bytecode": "0x608060405234801561001057600080fd5b50604051610a99380380610a9983398101604081905261002f91610082565b600092909255600380546001600160a01b039283166001600160a01b031991821617909155600480549290931691161790556100be565b80516001600160a01b038116811461007d57600080fd5b919050565b60008060006060848603121561009757600080fd5b835192506100a760208501610066565b91506100b560408501610066565b90509250925092565b6109cc806100cd6000396000f3fe608060405234801561001057600080fd5b50600436106100db5760003560e01c806303f9c793146100e057806316b60249146100f35780632e1a7d4d146101065780634a970be71461012c57806358031d121461014557806371a9730514610158578063722eeec3146101065780637e30cdff1461015f578063855cb21b1461016d57806387269729146101805780638836d902146100f1578063945ed49a146101895780639e4a88e1146100f1578063a6f4487e14610197578063b6b55f25146101a0578063db006a7514610189578063ed80c850146101b3575b600080fd5b6100f16100ee366004610791565b50565b005b6100f16101013660046107ba565b600055565b61011a6101143660046107ba565b50600090565b60405190815260200160405180910390f35b61011a61013a3660046107ec565b600095945050505050565b61011a6101533660046107ba565b6101bc565b600061011a565b61011a610114366004610791565b61011a61017b3660046107ba565b610231565b61011a60005481565b6100f16100ee3660046107ba565b61011a60025481565b61011a6101ae3660046107ba565b61025f565b61011a60015481565b60008082116102115760405162461bcd60e51b815260206004820152601c60248201527b4d757374207769746864726177206d6f7265207468616e207a65726f60201b60448201526064015b60405180910390fd5b600061021c8361045f565b9050826102298282610482565b949350505050565b6000610259600054610253610244610610565b61024d86610623565b9061063e565b90610651565b92915050565b60008082116102ae5760405162461bcd60e51b815260206004820152601b60248201527a4d757374206465706f736974206d6f7265207468616e207a65726f60281b6044820152606401610208565b6102b782610231565b604080518481526020810183905291925033917f0b05f0d1cd0819f155b8a61f60baf7767c1ee49d04aeaab701df236140eb93f9910160405180910390a2600061030233308561065d565b6004805460405163095ea7b360e01b81529293506001600160a01b03169163095ea7b39161033491309188910161083b565b602060405180830381600087803b15801561034e57600080fd5b505af1158015610362573d6000803e3d6000fd5b505050506040513d601f19601f82011682018060405250810190610386919061076f565b50806103d45760405162461bcd60e51b815260206004820152601e60248201527f4661696c656420746f207472616e7366657220666f72206465706f73697400006044820152606401610208565b6003546040516340c10f1960e01b81526001600160a01b03909116906340c10f1990610406903390869060040161083b565b602060405180830381600087803b15801561042057600080fd5b505af1158015610434573d6000803e3d6000fd5b505050506040513d601f19601f82011682018060405250810190610458919061076f565b5050919050565b600061025961047d61046f610610565b60005461025390869061063e565b610742565b6003546040516370a0823160e01b815233600482015260009182916001600160a01b03909116906370a082319060240160206040518083038186803b1580156104ca57600080fd5b505afa1580156104de573d6000803e3d6000fd5b505050506040513d601f19601f8201168201806040525081019061050291906107d3565b9050808311156105745760405162461bcd60e51b815260206004820152603760248201527f416d6f756e74207265717565737465642069732067726561746572207468616e604482015276207768617420746869732061646472657373206f776e7360481b6064820152608401610208565b600061058130338761065d565b600354604051632770a7eb60e21b81529192506001600160a01b031690639dc29fac906105b4903390889060040161083b565b602060405180830381600087803b1580156105ce57600080fd5b505af11580156105e2573d6000803e3d6000fd5b505050506040513d601f19601f82011682018060405250810190610606919061076f565b5093949350505050565b600061061e6012600a6108b9565b905090565b6000610259610630610761565b61025361063b610610565b85905b600061064a8284610961565b9392505050565b600061064a8284610854565b60006001600160a01b0383166106b25760405162461bcd60e51b815260206004820152601a60248201527943616e27742073656e6420746f207a65726f206164647265737360301b6044820152606401610208565b600480546040516323b872dd60e01b81526001600160a01b03878116938201939093528583166024820152604481018590529116906323b872dd90606401602060405180830381600087803b15801561070a57600080fd5b505af115801561071e573d6000803e3d6000fd5b505050506040513d601f19601f82011682018060405250810190610229919061076f565b600061025961075a610752610761565b610253610610565b8390610651565b600061061e6006600a6108b9565b60006020828403121561078157600080fd5b8151801515811461064a57600080fd5b6000602082840312156107a357600080fd5b81356001600160a01b038116811461064a57600080fd5b6000602082840312156107cc57600080fd5b5035919050565b6000602082840312156107e557600080fd5b5051919050565b600080600080600060a0868803121561080457600080fd5b8535945060208601359350604086013560ff8116811461082357600080fd5b94979396509394606081013594506080013592915050565b6001600160a01b03929092168252602082015260400190565b60008261087157634e487b7160e01b600052601260045260246000fd5b500490565b600181815b808511156108b157816000190482111561089757610897610980565b808516156108a457918102915b93841c939080029061087b565b509250929050565b600061064a83836000826108cf57506001610259565b816108dc57506000610259565b81600181146108f257600281146108fc57610918565b6001915050610259565b60ff84111561090d5761090d610980565b50506001821b610259565b5060208310610133831016604e8410600b841016171561093b575081810a610259565b6109458383610876565b806000190482111561095957610959610980565b029392505050565b600081600019048311821515161561097b5761097b610980565b500290565b634e487b7160e01b600052601160045260246000fdfea26469706673582212205152c935faf5158a712c750153dd50029ae70b33d67737e99d639854bf4f240764736f6c63430008070033",
  "devdoc": {
    "author": "Goldfinch",
    "kind": "dev",
    "methods": {
      "deposit(uint256)": {
        "params": {
          "amount": "The amount of USDC to deposit"
        }
      },
      "getNumShares(uint256)": {
        "params": {
          "_amount": "USDC amount to convert to FIDU"
        }
      }
    },
    "title": "Goldfinch's SeniorPool contract",
    "version": 1
  },
  "userdoc": {
    "kind": "user",
    "methods": {
      "deposit(uint256)": {
        "notice": "Deposits `amount` USDC from msg.sender into the SeniorPool, and grants you the  equivalent value of FIDU tokens"
      },
      "getNumShares(uint256)": {
        "notice": "Converts and USDC amount to FIDU amount"
      }
    },
    "notice": "Main entry point for senior LPs (a.k.a. capital providers)  Automatically invests across borrower pools using an adjustable strategy.",
    "version": 1
  },
  "storageLayout": {
    "storage": [
      {
        "astId": 11807,
        "contract": "contracts/goldfinch/protocol/core/SeniorPool.sol:SeniorPool",
        "label": "sharePrice",
        "offset": 0,
        "slot": "0",
        "type": "t_uint256"
      },
      {
        "astId": 11809,
        "contract": "contracts/goldfinch/protocol/core/SeniorPool.sol:SeniorPool",
        "label": "totalLoansOutstanding",
        "offset": 0,
        "slot": "1",
        "type": "t_uint256"
      },
      {
        "astId": 11811,
        "contract": "contracts/goldfinch/protocol/core/SeniorPool.sol:SeniorPool",
        "label": "totalWritedowns",
        "offset": 0,
        "slot": "2",
        "type": "t_uint256"
      },
      {
        "astId": 12454,
        "contract": "contracts/goldfinch/protocol/core/SeniorPool.sol:SeniorPool",
        "label": "fiduCoin",
        "offset": 0,
        "slot": "3",
        "type": "t_contract(FIDU)9353"
      },
      {
        "astId": 12457,
        "contract": "contracts/goldfinch/protocol/core/SeniorPool.sol:SeniorPool",
        "label": "usdcCoin",
        "offset": 0,
        "slot": "4",
        "type": "t_contract(IERC20)3834"
      }
    ],
    "types": {
      "t_contract(FIDU)9353": {
        "encoding": "inplace",
        "label": "contract FIDU",
        "numberOfBytes": "20"
      },
      "t_contract(IERC20)3834": {
        "encoding": "inplace",
        "label": "contract IERC20",
        "numberOfBytes": "20"
      },
      "t_uint256": {
        "encoding": "inplace",
        "label": "uint256",
        "numberOfBytes": "32"
      }
    }
  }
}