{
  "address": "0xA2558eb346678BA279cCE0bF770C138e8fCa8342",
  "abi": [
    {
      "inputs": [
        {
          "internalType": "uint256",
          "name": "_sharePrice",
          "type": "uint256"
        },
        {
          "internalType": "address",
          "name": "_fiduCoinAddress",
          "type": "address"
        },
        {
          "internalType": "address",
          "name": "_usdcCoinAddress",
          "type": "address"
        }
      ],
      "stateMutability": "nonpayable",
      "type": "constructor"
    },
    {
      "anonymous": false,
      "inputs": [
        {
          "indexed": true,
          "internalType": "address",
          "name": "capitalProvider",
          "type": "address"
        },
        {
          "indexed": false,
          "internalType": "uint256",
          "name": "amount",
          "type": "uint256"
        },
        {
          "indexed": false,
          "internalType": "uint256",
          "name": "shares",
          "type": "uint256"
        }
      ],
      "name": "DepositMade",
      "type": "event"
    },
    {
      "inputs": [],
      "name": "assets",
      "outputs": [
        {
          "internalType": "uint256",
          "name": "",
          "type": "uint256"
        }
      ],
      "stateMutability": "view",
      "type": "function"
    },
    {
      "inputs": [
        {
          "internalType": "uint256",
          "name": "tokenId",
          "type": "uint256"
        }
      ],
      "name": "calculateWritedown",
      "outputs": [
        {
          "internalType": "uint256",
          "name": "writedownAmount",
          "type": "uint256"
        }
      ],
      "stateMutability": "view",
      "type": "function"
    },
    {
      "inputs": [
        {
          "internalType": "uint256",
          "name": "amount",
          "type": "uint256"
        }
      ],
      "name": "deposit",
      "outputs": [
        {
          "internalType": "uint256",
          "name": "depositShares",
          "type": "uint256"
        }
      ],
      "stateMutability": "nonpayable",
      "type": "function"
    },
    {
      "inputs": [
        {
          "internalType": "uint256",
          "name": "amount",
          "type": "uint256"
        },
        {
          "internalType": "uint256",
          "name": "deadline",
          "type": "uint256"
        },
        {
          "internalType": "uint8",
          "name": "v",
          "type": "uint8"
        },
        {
          "internalType": "bytes32",
          "name": "r",
          "type": "bytes32"
        },
        {
          "internalType": "bytes32",
          "name": "s",
          "type": "bytes32"
        }
      ],
      "name": "depositWithPermit",
      "outputs": [
        {
          "internalType": "uint256",
          "name": "depositShares",
          "type": "uint256"
        }
      ],
      "stateMutability": "nonpayable",
      "type": "function"
    },
    {
      "inputs": [
        {
          "internalType": "contract ITranchedPool",
          "name": "pool",
          "type": "address"
        }
      ],
      "name": "estimateInvestment",
      "outputs": [
        {
          "internalType": "uint256",
          "name": "",
          "type": "uint256"
        }
      ],
      "stateMutability": "view",
      "type": "function"
    },
    {
      "inputs": [
        {
          "internalType": "uint256",
          "name": "amount",
          "type": "uint256"
        }
      ],
      "name": "getNumShares",
      "outputs": [
        {
          "internalType": "uint256",
          "name": "",
          "type": "uint256"
        }
      ],
      "stateMutability": "view",
      "type": "function"
    },
    {
      "inputs": [
        {
          "internalType": "contract ITranchedPool",
          "name": "pool",
          "type": "address"
        }
      ],
      "name": "invest",
      "outputs": [],
      "stateMutability": "nonpayable",
      "type": "function"
    },
    {
      "inputs": [
        {
          "internalType": "uint256",
          "name": "tokenId",
          "type": "uint256"
        }
      ],
      "name": "redeem",
      "outputs": [],
      "stateMutability": "nonpayable",
      "type": "function"
    },
    {
      "inputs": [
        {
          "internalType": "uint256",
          "name": "_sharePrice",
          "type": "uint256"
        }
      ],
      "name": "setSharePrice",
      "outputs": [],
      "stateMutability": "nonpayable",
      "type": "function"
    },
    {
      "inputs": [],
      "name": "sharePrice",
      "outputs": [
        {
          "internalType": "uint256",
          "name": "",
          "type": "uint256"
        }
      ],
      "stateMutability": "view",
      "type": "function"
    },
    {
      "inputs": [],
      "name": "sweepFromCompound",
      "outputs": [],
      "stateMutability": "nonpayable",
      "type": "function"
    },
    {
      "inputs": [],
      "name": "sweepToCompound",
      "outputs": [],
      "stateMutability": "nonpayable",
      "type": "function"
    },
    {
      "inputs": [],
      "name": "totalLoansOutstanding",
      "outputs": [
        {
          "internalType": "uint256",
          "name": "",
          "type": "uint256"
        }
      ],
      "stateMutability": "view",
      "type": "function"
    },
    {
      "inputs": [],
      "name": "totalWritedowns",
      "outputs": [
        {
          "internalType": "uint256",
          "name": "",
          "type": "uint256"
        }
      ],
      "stateMutability": "view",
      "type": "function"
    },
    {
      "inputs": [
        {
          "internalType": "uint256",
          "name": "usdcAmount",
          "type": "uint256"
        }
      ],
      "name": "withdraw",
      "outputs": [
        {
          "internalType": "uint256",
          "name": "amount",
          "type": "uint256"
        }
      ],
      "stateMutability": "nonpayable",
      "type": "function"
    },
    {
      "inputs": [
        {
          "internalType": "uint256",
          "name": "fiduAmount",
          "type": "uint256"
        }
      ],
      "name": "withdrawInFidu",
      "outputs": [
        {
          "internalType": "uint256",
          "name": "amount",
          "type": "uint256"
        }
      ],
      "stateMutability": "nonpayable",
      "type": "function"
    },
    {
      "inputs": [
        {
          "internalType": "uint256",
          "name": "tokenId",
          "type": "uint256"
        }
      ],
      "name": "writedown",
      "outputs": [],
      "stateMutability": "nonpayable",
      "type": "function"
    }
  ],
  "transactionHash": "0x818ed998f538152e4528eed7aec7cdccf94dc0974490f6281ab3f53f4a18c267",
  "args": [
    1000,
    "0x3C580A8A18A3E4a9A7E1B3B12Edd82BD085Be395",
    "0xAB9a55329161Bb04bd43aA60D4CC2d697c685116"
  ],
  "numDeployments": 2,
  "solcInputHash": "5588f2b344c0447f45abfb994cb75151",
  "bytecode": "0x608060405234801561001057600080fd5b5060405161084438038061084483398101604081905261002f91610082565b600092909255600380546001600160a01b039283166001600160a01b031991821617909155600480549290931691161790556100be565b80516001600160a01b038116811461007d57600080fd5b919050565b60008060006060848603121561009757600080fd5b835192506100a760208501610066565b91506100b560408501610066565b90509250925092565b610777806100cd6000396000f3fe608060405234801561001057600080fd5b506004361061011b5760003560e01c8063855cb21b116100b25780639e4a88e111610081578063b6b55f2511610066578063b6b55f25146101cd578063db006a75146101b6578063ed80c850146101e057600080fd5b80639e4a88e114610131578063a6f4487e146101c457600080fd5b8063855cb21b1461019a57806387269729146101ad5780638836d90214610131578063945ed49a146101b657600080fd5b806358031d12116100ee57806358031d121461014657806371a9730514610185578063722eeec3146101465780637e30cdff1461018c57600080fd5b806303f9c7931461012057806316b60249146101335780632e1a7d4d146101465780634a970be71461016c575b600080fd5b61013161012e366004610561565b50565b005b610131610141366004610597565b600055565b61015a610154366004610597565b50600090565b60405190815260200160405180910390f35b61015a61017a3660046105b0565b600095945050505050565b600061015a565b61015a610154366004610561565b61015a6101a8366004610597565b6101e9565b61015a60005481565b61013161012e366004610597565b61015a60025481565b61015a6101db366004610597565b610217565b61015a60015481565b600061021160005461020b6101fc6103c1565b610205866103d4565b906103ef565b90610402565b92915050565b600080821161026d5760405162461bcd60e51b815260206004820152601b60248201527f4d757374206465706f736974206d6f7265207468616e207a65726f000000000060448201526064015b60405180910390fd5b610276826101e9565b604080518481526020810183905291925033917f0b05f0d1cd0819f155b8a61f60baf7767c1ee49d04aeaab701df236140eb93f9910160405180910390a260006102c133308561040e565b9050806103105760405162461bcd60e51b815260206004820152601e60248201527f4661696c656420746f207472616e7366657220666f72206465706f73697400006044820152606401610264565b6003546040517f40c10f190000000000000000000000000000000000000000000000000000000081523360048201526024810184905273ffffffffffffffffffffffffffffffffffffffff909116906340c10f1990604401602060405180830381600087803b15801561038257600080fd5b505af1158015610396573d6000803e3d6000fd5b505050506040513d601f19601f820116820180604052508101906103ba919061053f565b5050919050565b60006103cf6012600a610664565b905090565b60006102116103e1610531565b61020b6103ec6103c1565b85905b60006103fb828461070c565b9392505050565b60006103fb82846105ff565b600073ffffffffffffffffffffffffffffffffffffffff83166104735760405162461bcd60e51b815260206004820152601a60248201527f43616e27742073656e6420746f207a65726f20616464726573730000000000006044820152606401610264565b600480546040517f23b872dd00000000000000000000000000000000000000000000000000000000815273ffffffffffffffffffffffffffffffffffffffff878116938201939093528583166024820152604481018590529116906323b872dd90606401602060405180830381600087803b1580156104f157600080fd5b505af1158015610505573d6000803e3d6000fd5b505050506040513d601f19601f82011682018060405250810190610529919061053f565b949350505050565b60006103cf6006600a610664565b60006020828403121561055157600080fd5b815180151581146103fb57600080fd5b60006020828403121561057357600080fd5b813573ffffffffffffffffffffffffffffffffffffffff811681146103fb57600080fd5b6000602082840312156105a957600080fd5b5035919050565b600080600080600060a086880312156105c857600080fd5b8535945060208601359350604086013560ff811681146105e757600080fd5b94979396509394606081013594506080013592915050565b60008261061c57634e487b7160e01b600052601260045260246000fd5b500490565b600181815b8085111561065c5781600019048211156106425761064261072b565b8085161561064f57918102915b93841c9390800290610626565b509250929050565b60006103fb838360008261067a57506001610211565b8161068757506000610211565b816001811461069d57600281146106a7576106c3565b6001915050610211565b60ff8411156106b8576106b861072b565b50506001821b610211565b5060208310610133831016604e8410600b84101617156106e6575081810a610211565b6106f08383610621565b80600019048211156107045761070461072b565b029392505050565b60008160001904831182151516156107265761072661072b565b500290565b634e487b7160e01b600052601160045260246000fdfea2646970667358221220f24610958d4440133ffbf3e5e1c1f20cc07989bae478f7b4cfcea09b1c84b66064736f6c63430008070033",
  "devdoc": {
    "author": "Goldfinch",
    "kind": "dev",
    "methods": {
      "deposit(uint256)": {
        "params": {
          "amount": "The amount of USDC to deposit"
        }
      },
      "getNumShares(uint256)": {
        "params": {
          "amount": "USDC amount to convert to FIDU"
        }
      }
    },
    "title": "Goldfinch's SeniorPool contract",
    "version": 1
  },
  "userdoc": {
    "kind": "user",
    "methods": {
      "deposit(uint256)": {
        "notice": "Deposits `amount` USDC from msg.sender into the SeniorPool, and grants you the  equivalent value of FIDU tokens"
      },
      "getNumShares(uint256)": {
        "notice": "Converts and USDC amount to FIDU amount"
      }
    },
    "notice": "Main entry point for senior LPs (a.k.a. capital providers)  Automatically invests across borrower pools using an adjustable strategy.",
    "version": 1
  },
  "storageLayout": {
    "storage": [
      {
        "astId": 8375,
        "contract": "contracts/goldfinch/protocol/core/SeniorPool.sol:SeniorPool",
        "label": "sharePrice",
        "offset": 0,
        "slot": "0",
        "type": "t_uint256"
      },
      {
        "astId": 8377,
        "contract": "contracts/goldfinch/protocol/core/SeniorPool.sol:SeniorPool",
        "label": "totalLoansOutstanding",
        "offset": 0,
        "slot": "1",
        "type": "t_uint256"
      },
      {
        "astId": 8379,
        "contract": "contracts/goldfinch/protocol/core/SeniorPool.sol:SeniorPool",
        "label": "totalWritedowns",
        "offset": 0,
        "slot": "2",
        "type": "t_uint256"
      },
      {
        "astId": 9022,
        "contract": "contracts/goldfinch/protocol/core/SeniorPool.sol:SeniorPool",
        "label": "fiduCoin",
        "offset": 0,
        "slot": "3",
        "type": "t_contract(FIDU)5855"
      },
      {
        "astId": 9025,
        "contract": "contracts/goldfinch/protocol/core/SeniorPool.sol:SeniorPool",
        "label": "usdcCoin",
        "offset": 0,
        "slot": "4",
        "type": "t_contract(IERC20)3038"
      }
    ],
    "types": {
      "t_contract(FIDU)5855": {
        "encoding": "inplace",
        "label": "contract FIDU",
        "numberOfBytes": "20"
      },
      "t_contract(IERC20)3038": {
        "encoding": "inplace",
        "label": "contract IERC20",
        "numberOfBytes": "20"
      },
      "t_uint256": {
        "encoding": "inplace",
        "label": "uint256",
        "numberOfBytes": "32"
      }
    }
  }
}