{
  "address": "0x07549F96ec0F8e422E519Ed76eA809C0aC02BB1A",
  "abi": [
    {
      "inputs": [],
      "stateMutability": "nonpayable",
      "type": "constructor"
    },
    {
      "anonymous": false,
      "inputs": [
        {
          "indexed": true,
          "internalType": "address",
          "name": "previousOwner",
          "type": "address"
        },
        {
          "indexed": true,
          "internalType": "address",
          "name": "newOwner",
          "type": "address"
        }
      ],
      "name": "OwnershipTransferred",
      "type": "event"
    },
    {
      "inputs": [
        {
          "internalType": "address",
          "name": "tranch",
          "type": "address"
        },
        {
          "internalType": "uint256",
          "name": "score",
          "type": "uint256"
        }
      ],
      "name": "addTranch",
      "outputs": [],
      "stateMutability": "nonpayable",
      "type": "function"
    },
    {
      "inputs": [
        {
          "internalType": "uint256",
          "name": "k",
          "type": "uint256"
        }
      ],
      "name": "getTop",
      "outputs": [
        {
          "internalType": "address[]",
          "name": "",
          "type": "address[]"
        }
      ],
      "stateMutability": "view",
      "type": "function"
    },
    {
      "inputs": [
        {
          "internalType": "address",
          "name": "tranch",
          "type": "address"
        },
        {
          "internalType": "uint256",
          "name": "score",
          "type": "uint256"
        }
      ],
      "name": "increaseScore",
      "outputs": [],
      "stateMutability": "nonpayable",
      "type": "function"
    },
    {
      "inputs": [],
      "name": "listSize",
      "outputs": [
        {
          "internalType": "uint256",
          "name": "",
          "type": "uint256"
        }
      ],
      "stateMutability": "view",
      "type": "function"
    },
    {
      "inputs": [],
      "name": "owner",
      "outputs": [
        {
          "internalType": "address",
          "name": "",
          "type": "address"
        }
      ],
      "stateMutability": "view",
      "type": "function"
    },
    {
      "inputs": [
        {
          "internalType": "address",
          "name": "tranch",
          "type": "address"
        },
        {
          "internalType": "uint256",
          "name": "score",
          "type": "uint256"
        }
      ],
      "name": "reduceScore",
      "outputs": [],
      "stateMutability": "nonpayable",
      "type": "function"
    },
    {
      "inputs": [
        {
          "internalType": "address",
          "name": "tranch",
          "type": "address"
        }
      ],
      "name": "removeTranch",
      "outputs": [],
      "stateMutability": "nonpayable",
      "type": "function"
    },
    {
      "inputs": [],
      "name": "renounceOwnership",
      "outputs": [],
      "stateMutability": "nonpayable",
      "type": "function"
    },
    {
      "inputs": [
        {
          "internalType": "address",
          "name": "",
          "type": "address"
        }
      ],
      "name": "scores",
      "outputs": [
        {
          "internalType": "uint256",
          "name": "",
          "type": "uint256"
        }
      ],
      "stateMutability": "view",
      "type": "function"
    },
    {
      "inputs": [
        {
          "internalType": "address",
          "name": "newOwner",
          "type": "address"
        }
      ],
      "name": "transferOwnership",
      "outputs": [],
      "stateMutability": "nonpayable",
      "type": "function"
    },
    {
      "inputs": [
        {
          "internalType": "address",
          "name": "tranch",
          "type": "address"
        },
        {
          "internalType": "uint256",
          "name": "newScore",
          "type": "uint256"
        }
      ],
      "name": "updateScore",
      "outputs": [],
      "stateMutability": "nonpayable",
      "type": "function"
    }
  ],
  "transactionHash": "0x101766b06fec16032832f04140b1c78530d90ed6fc7033d70042ca6043af4996",
  "args": [],
  "numDeployments": 1,
  "solcInputHash": "5cd80f35e8068071923562ba800e9854",
  "bytecode": "0x608060405234801561001057600080fd5b5061001a3361005d565b6001600081905260026020527fe90b7bceb6e7df5418fb78d8ee546e97c83a08bbccc01a0644d599ccd2a7c2e080546001600160a01b03191690911790556100ad565b600080546001600160a01b038381166001600160a01b0319831681178455604051919092169283917f8be0079c531659141344cd1fd0a4f28419497f9722a3daafe3b4186f6b6457e09190a35050565b610997806100bc6000396000f3fe608060405234801561001057600080fd5b50600436106100c95760003560e01c8063972c535611610081578063d3ec35b71161005b578063d3ec35b71461018c578063dd23b8311461019f578063f2fde38b146101b257600080fd5b8063972c53561461015d578063a1895ae114610166578063cc7638291461017957600080fd5b8063715018a6116100b2578063715018a61461010c57806376dd110f146101145780638da5cb5b1461014257600080fd5b806337caa8b6146100ce57806365d97724146100f7575b600080fd5b6100e16100dc366004610858565b6101c5565b6040516100ee9190610871565b60405180910390f35b61010a61010536600461082e565b6102be565b005b61010a610354565b61013461012236600461080c565b60016020526000908152604090205481565b6040519081526020016100ee565b6000546040516001600160a01b0390911681526020016100ee565b61013460035481565b61010a61017436600461082e565b6103bf565b61010a61018736600461082e565b61046e565b61010a61019a36600461082e565b61049c565b61010a6101ad36600461080c565b6104c6565b61010a6101c036600461080c565b61056e565b60606003548211156101d657600080fd5b60008267ffffffffffffffff8111156101f1576101f161094b565b60405190808252806020026020018201604052801561021a578160200160208202803683370190505b506001600090815260026020527fe90b7bceb6e7df5418fb78d8ee546e97c83a08bbccc01a0644d599ccd2a7c2e0549192506001600160a01b03909116905b848110156102b5578183828151811061027457610274610935565b6001600160a01b0392831660209182029290920181019190915292811660009081526002909352604090922054909116906102ae81610904565b9050610259565b50909392505050565b6001600160a01b03828116600090815260026020526040902054166102e257600080fd5b60006102ed83610650565b6001600160a01b03808516600090815260026020526040902054919250166103168284836106cb565b1561033b576001600160a01b038416600090815260016020526040902083905561034e565b610344846104c6565b61034e84846103bf565b50505050565b6000546001600160a01b031633146103b35760405162461bcd60e51b815260206004820181905260248201527f4f776e61626c653a2063616c6c6572206973206e6f7420746865206f776e657260448201526064015b60405180910390fd5b6103bd600061073b565b565b6001600160a01b0382811660009081526002602052604090205416156103e457600080fd5b60006103ef82610798565b6001600160a01b0384811660008181526001602090815260408083208890558585168084526002909252808320805485855291842080549290961673ffffffffffffffffffffffffffffffffffffffff1992831617909555908252835416909117909155600380549293509061046483610904565b9190505550505050565b6001600160a01b0382166000908152600160205260409020546104989083906101059084906108d6565b5050565b6001600160a01b0382166000908152600160205260409020546104989083906101059084906108be565b6001600160a01b03818116600090815260026020526040902054166104ea57600080fd5b60006104f582610650565b6001600160a01b0383811660008181526002602090815260408083208054878716855282852080549190971673ffffffffffffffffffffffffffffffffffffffff1991821617909655938352835490941690925560019091529081208190556003805492935090610565836108ed565b91905055505050565b6000546001600160a01b031633146105c85760405162461bcd60e51b815260206004820181905260248201527f4f776e61626c653a2063616c6c6572206973206e6f7420746865206f776e657260448201526064016103aa565b6001600160a01b0381166106445760405162461bcd60e51b815260206004820152602660248201527f4f776e61626c653a206e6577206f776e657220697320746865207a65726f206160448201527f646472657373000000000000000000000000000000000000000000000000000060648201526084016103aa565b61064d8161073b565b50565b600060015b6001600160a01b03818116600090815260026020526040902054166001146106c2576001600160a01b03808216600090815260026020526040902054811690841614156106a25792915050565b6001600160a01b0390811660009081526002602052604090205416610655565b50600092915050565b60006001600160a01b038416600114806106fd57506001600160a01b0384166000908152600160205260409020548311155b801561073357506001600160a01b0382166001148061073357506001600160a01b03821660009081526001602052604090205483115b949350505050565b600080546001600160a01b0383811673ffffffffffffffffffffffffffffffffffffffff19831681178455604051919092169283917f8be0079c531659141344cd1fd0a4f28419497f9722a3daafe3b4186f6b6457e09190a35050565b600060015b6001600160a01b038082166000908152600260205260409020546107c59183918691166106cb565b156107d05792915050565b6001600160a01b039081166000908152600260205260409020541661079d565b80356001600160a01b038116811461080757600080fd5b919050565b60006020828403121561081e57600080fd5b610827826107f0565b9392505050565b6000806040838503121561084157600080fd5b61084a836107f0565b946020939093013593505050565b60006020828403121561086a57600080fd5b5035919050565b6020808252825182820181905260009190848201906040850190845b818110156108b25783516001600160a01b03168352928401929184019160010161088d565b50909695505050505050565b600082198211156108d1576108d161091f565b500190565b6000828210156108e8576108e861091f565b500390565b6000816108fc576108fc61091f565b506000190190565b60006000198214156109185761091861091f565b5060010190565b634e487b7160e01b600052601160045260246000fd5b634e487b7160e01b600052603260045260246000fd5b634e487b7160e01b600052604160045260246000fdfea2646970667358221220b4821dd5f16932e479430a59735a5a269813a65a61fc93615ab95abccc894dd664736f6c63430008070033",
  "devdoc": {
    "kind": "dev",
    "methods": {
      "owner()": {
        "details": "Returns the address of the current owner."
      },
      "renounceOwnership()": {
        "details": "Leaves the contract without owner. It will not be possible to call `onlyOwner` functions anymore. Can only be called by the current owner. NOTE: Renouncing ownership will leave the contract without an owner, thereby removing any functionality that is only available to the owner."
      },
      "transferOwnership(address)": {
        "details": "Transfers ownership of the contract to a new account (`newOwner`). Can only be called by the current owner."
      }
    },
    "version": 1
  },
  "userdoc": {
    "kind": "user",
    "methods": {},
    "version": 1
  },
  "storageLayout": {
    "storage": [
      {
        "astId": 7,
        "contract": "contracts/alloyx/SortedGoldfinchTranches.sol:SortedGoldfinchTranches",
        "label": "_owner",
        "offset": 0,
        "slot": "0",
        "type": "t_address"
      },
      {
        "astId": 9128,
        "contract": "contracts/alloyx/SortedGoldfinchTranches.sol:SortedGoldfinchTranches",
        "label": "scores",
        "offset": 0,
        "slot": "1",
        "type": "t_mapping(t_address,t_uint256)"
      },
      {
        "astId": 9132,
        "contract": "contracts/alloyx/SortedGoldfinchTranches.sol:SortedGoldfinchTranches",
        "label": "_nextTranches",
        "offset": 0,
        "slot": "2",
        "type": "t_mapping(t_address,t_address)"
      },
      {
        "astId": 9134,
        "contract": "contracts/alloyx/SortedGoldfinchTranches.sol:SortedGoldfinchTranches",
        "label": "listSize",
        "offset": 0,
        "slot": "3",
        "type": "t_uint256"
      }
    ],
    "types": {
      "t_address": {
        "encoding": "inplace",
        "label": "address",
        "numberOfBytes": "20"
      },
      "t_mapping(t_address,t_address)": {
        "encoding": "mapping",
        "key": "t_address",
        "label": "mapping(address => address)",
        "numberOfBytes": "32",
        "value": "t_address"
      },
      "t_mapping(t_address,t_uint256)": {
        "encoding": "mapping",
        "key": "t_address",
        "label": "mapping(address => uint256)",
        "numberOfBytes": "32",
        "value": "t_uint256"
      },
      "t_uint256": {
        "encoding": "inplace",
        "label": "uint256",
        "numberOfBytes": "32"
      }
    }
  }
}