{
  "address": "0x5D077E9D13B4e389F877dB43D107f006b1278827",
  "_format": "hh-sol-artifact-1",
  "contractName": "StableCoinDesk",
  "sourceName": "contracts/alloyx/StableCoinDesk.sol",
  "abi": [
    {
      "anonymous": false,
      "inputs": [
        {
          "indexed": true,
          "internalType": "address",
          "name": "who",
          "type": "address"
        },
        {
          "indexed": false,
          "internalType": "address",
          "name": "configAddress",
          "type": "address"
        }
      ],
      "name": "AlloyxConfigUpdated",
      "type": "event"
    },
    {
      "anonymous": false,
      "inputs": [
        {
          "indexed": false,
          "internalType": "address",
          "name": "_tokenReceiver",
          "type": "address"
        },
        {
          "indexed": false,
          "internalType": "uint256",
          "name": "_tokenAmount",
          "type": "uint256"
        }
      ],
      "name": "Burn",
      "type": "event"
    },
    {
      "anonymous": false,
      "inputs": [
        {
          "indexed": false,
          "internalType": "address",
          "name": "_tokenSender",
          "type": "address"
        },
        {
          "indexed": false,
          "internalType": "uint256",
          "name": "_tokenAmount",
          "type": "uint256"
        }
      ],
      "name": "DepositDURA",
      "type": "event"
    },
    {
      "anonymous": false,
      "inputs": [
        {
          "indexed": false,
          "internalType": "address",
          "name": "_tokenAddress",
          "type": "address"
        },
        {
          "indexed": false,
          "internalType": "address",
          "name": "_tokenSender",
          "type": "address"
        },
        {
          "indexed": false,
          "internalType": "uint256",
          "name": "_tokenAmount",
          "type": "uint256"
        }
      ],
      "name": "DepositStable",
      "type": "event"
    },
    {
      "anonymous": false,
      "inputs": [
        {
          "indexed": false,
          "internalType": "uint8",
          "name": "version",
          "type": "uint8"
        }
      ],
      "name": "Initialized",
      "type": "event"
    },
    {
      "anonymous": false,
      "inputs": [
        {
          "indexed": false,
          "internalType": "address",
          "name": "_tokenReceiver",
          "type": "address"
        },
        {
          "indexed": false,
          "internalType": "uint256",
          "name": "_tokenAmount",
          "type": "uint256"
        }
      ],
      "name": "Mint",
      "type": "event"
    },
    {
      "anonymous": false,
      "inputs": [
        {
          "indexed": true,
          "internalType": "bytes32",
          "name": "role",
          "type": "bytes32"
        },
        {
          "indexed": true,
          "internalType": "bytes32",
          "name": "previousAdminRole",
          "type": "bytes32"
        },
        {
          "indexed": true,
          "internalType": "bytes32",
          "name": "newAdminRole",
          "type": "bytes32"
        }
      ],
      "name": "RoleAdminChanged",
      "type": "event"
    },
    {
      "anonymous": false,
      "inputs": [
        {
          "indexed": true,
          "internalType": "bytes32",
          "name": "role",
          "type": "bytes32"
        },
        {
          "indexed": true,
          "internalType": "address",
          "name": "account",
          "type": "address"
        },
        {
          "indexed": true,
          "internalType": "address",
          "name": "sender",
          "type": "address"
        }
      ],
      "name": "RoleGranted",
      "type": "event"
    },
    {
      "anonymous": false,
      "inputs": [
        {
          "indexed": true,
          "internalType": "bytes32",
          "name": "role",
          "type": "bytes32"
        },
        {
          "indexed": true,
          "internalType": "address",
          "name": "account",
          "type": "address"
        },
        {
          "indexed": true,
          "internalType": "address",
          "name": "sender",
          "type": "address"
        }
      ],
      "name": "RoleRevoked",
      "type": "event"
    },
    {
      "anonymous": false,
      "inputs": [
        {
          "indexed": false,
          "internalType": "address",
          "name": "_staker",
          "type": "address"
        },
        {
          "indexed": false,
          "internalType": "uint256",
          "name": "_amount",
          "type": "uint256"
        }
      ],
      "name": "Stake",
      "type": "event"
    },
    {
      "inputs": [],
      "name": "DEFAULT_ADMIN_ROLE",
      "outputs": [
        {
          "internalType": "bytes32",
          "name": "",
          "type": "bytes32"
        }
      ],
      "stateMutability": "view",
      "type": "function"
    },
    {
      "inputs": [
        {
          "internalType": "address",
          "name": "account",
          "type": "address"
        }
      ],
      "name": "addAdmin",
      "outputs": [],
      "stateMutability": "nonpayable",
      "type": "function"
    },
    {
      "inputs": [],
      "name": "config",
      "outputs": [
        {
          "internalType": "contract AlloyxConfig",
          "name": "",
          "type": "address"
        }
      ],
      "stateMutability": "view",
      "type": "function"
    },
    {
      "inputs": [
        {
          "internalType": "uint256",
          "name": "_tokenAmount",
          "type": "uint256"
        }
      ],
      "name": "depositAlloyxDURATokens",
      "outputs": [],
      "stateMutability": "nonpayable",
      "type": "function"
    },
    {
      "inputs": [
        {
          "internalType": "uint256",
          "name": "_tokenAmount",
          "type": "uint256"
        },
        {
          "internalType": "bool",
          "name": "_toStake",
          "type": "bool"
        }
      ],
      "name": "depositUSDCCoin",
      "outputs": [],
      "stateMutability": "nonpayable",
      "type": "function"
    },
    {
      "inputs": [
        {
          "internalType": "bytes32",
          "name": "role",
          "type": "bytes32"
        }
      ],
      "name": "getRoleAdmin",
      "outputs": [
        {
          "internalType": "bytes32",
          "name": "",
          "type": "bytes32"
        }
      ],
      "stateMutability": "view",
      "type": "function"
    },
    {
      "inputs": [
        {
          "internalType": "bytes32",
          "name": "role",
          "type": "bytes32"
        },
        {
          "internalType": "address",
          "name": "account",
          "type": "address"
        }
      ],
      "name": "grantRole",
      "outputs": [],
      "stateMutability": "nonpayable",
      "type": "function"
    },
    {
      "inputs": [
        {
          "internalType": "bytes32",
          "name": "role",
          "type": "bytes32"
        },
        {
          "internalType": "address",
          "name": "account",
          "type": "address"
        }
      ],
      "name": "hasRole",
      "outputs": [
        {
          "internalType": "bool",
          "name": "",
          "type": "bool"
        }
      ],
      "stateMutability": "view",
      "type": "function"
    },
    {
      "inputs": [
        {
          "internalType": "address",
          "name": "_configAddress",
          "type": "address"
        }
      ],
      "name": "initialize",
      "outputs": [],
      "stateMutability": "nonpayable",
      "type": "function"
    },
    {
      "inputs": [
        {
          "internalType": "address",
          "name": "account",
          "type": "address"
        }
      ],
      "name": "isAdmin",
      "outputs": [
        {
          "internalType": "bool",
          "name": "",
          "type": "bool"
        }
      ],
      "stateMutability": "view",
      "type": "function"
    },
    {
      "inputs": [],
      "name": "renounceAdmin",
      "outputs": [],
      "stateMutability": "nonpayable",
      "type": "function"
    },
    {
      "inputs": [
        {
          "internalType": "bytes32",
          "name": "role",
          "type": "bytes32"
        },
        {
          "internalType": "address",
          "name": "account",
          "type": "address"
        }
      ],
      "name": "renounceRole",
      "outputs": [],
      "stateMutability": "nonpayable",
      "type": "function"
    },
    {
      "inputs": [
        {
          "internalType": "bytes32",
          "name": "role",
          "type": "bytes32"
        },
        {
          "internalType": "address",
          "name": "account",
          "type": "address"
        }
      ],
      "name": "revokeRole",
      "outputs": [],
      "stateMutability": "nonpayable",
      "type": "function"
    },
    {
      "inputs": [
        {
          "internalType": "bytes4",
          "name": "interfaceId",
          "type": "bytes4"
        }
      ],
      "name": "supportsInterface",
      "outputs": [
        {
          "internalType": "bool",
          "name": "",
          "type": "bool"
        }
      ],
      "stateMutability": "view",
      "type": "function"
    },
    {
      "inputs": [],
      "name": "updateConfig",
      "outputs": [],
      "stateMutability": "nonpayable",
      "type": "function"
    }
  ],
  "bytecode": "0x608060405234801561001057600080fd5b50611975806100206000396000f3fe608060405234801561001057600080fd5b50600436106100c55760003560e01c806301ffc9a7146100ca578063248a9ca3146100f257806324d7806c146101135780632f2ff15d1461012657806336568abe1461013b578063704802751461014e578063747fd44c1461016157806379502c55146101695780638bad0c0a1461018957806391d1485414610191578063a217fddf146101a4578063c4d66de8146101ac578063c8977e02146101bf578063d547741f146101d2578063df701aca146101e5575b600080fd5b6100dd6100d8366004611598565b6101f8565b60405190151581526020015b60405180910390f35b61010561010036600461154f565b61022f565b6040519081526020016100e9565b6100dd6101213660046114f8565b610244565b610139610134366004611568565b610250565b005b610139610149366004611568565b610271565b61013961015c3660046114f8565b6102f4565b610139610327565b60975461017c906001600160a01b031681565b6040516100e9919061168b565b6101396103bb565b6100dd61019f366004611568565b6103c8565b610105600081565b6101396101ba3660046114f8565b6103f3565b6101396101cd36600461154f565b610484565b6101396101e0366004611568565b61080e565b6101396101f33660046115db565b61082a565b60006001600160e01b03198216637965db0b60e01b148061022957506301ffc9a760e01b6001600160e01b03198316145b92915050565b60009081526065602052604090206001015490565b600061022981836103c8565b6102598261022f565b61026281610c51565b61026c8383610c5b565b505050565b6001600160a01b03811633146102e65760405162461bcd60e51b815260206004820152602f60248201527f416363657373436f6e74726f6c3a2063616e206f6e6c792072656e6f756e636560448201526e103937b632b9903337b91039b2b63360891b60648201526084015b60405180910390fd5b6102f08282610ce1565b5050565b6102fd33610244565b6103195760405162461bcd60e51b81526004016102dd9061175d565b610324600082610250565b50565b61033033610244565b61034c5760405162461bcd60e51b81526004016102dd9061175d565b609754610361906001600160a01b0316610d48565b609780546001600160a01b0319166001600160a01b0392909216918217905560405133917f2310d831a9db3a28092d0b5509a976cbeffda5294f3f321086036ed76ebd2594916103b1919061168b565b60405180910390a2565b6103c6600033610271565b565b60009182526065602090815260408084206001600160a01b0393909316845291905290205460ff1690565b60006103ff6001610dca565b90508015610417576000805461ff0019166101001790555b61042033610e59565b609780546001600160a01b0319166001600160a01b03841617905580156102f0576000805461ff0019169055604051600181527f7f26b83ff96e1f2b6a682f133852f6798a09c465da95921460cefb38474024989060200160405180910390a15050565b609754339061049b906001600160a01b0316610e93565b6001600160a01b031663fb237eb2826040518263ffffffff1660e01b81526004016104c6919061168b565b60206040518083038186803b1580156104de57600080fd5b505afa1580156104f2573d6000803e3d6000fd5b505050506040513d601f19601f820116820180604052508101906105169190611532565b6105325760405162461bcd60e51b81526004016102dd906117d6565b60975460009061054a906001600160a01b0316610e9e565b6001600160a01b031663f1017a16846040518263ffffffff1660e01b815260040161057791815260200190565b60206040518083038186803b15801561058f57600080fd5b505afa1580156105a3573d6000803e3d6000fd5b505050506040513d601f19601f820116820180604052508101906105c791906115c2565b6097549091506000906105fa906064906105f4906105ed906001600160a01b0316610ea9565b8590610f24565b90610f37565b609754909150610612906001600160a01b0316610f43565b6001600160a01b0316639dc29fac33866040518363ffffffff1660e01b815260040161063f9291906116c3565b602060405180830381600087803b15801561065957600080fd5b505af115801561066d573d6000803e3d6000fd5b505050506040513d601f19601f820116820180604052508101906106919190611532565b506097546106a7906001600160a01b0316610f4e565b6097546001600160a01b0391821691639db5dbe4916106c69116610f59565b336106d18686610f71565b6040518463ffffffff1660e01b81526004016106ef9392919061169f565b600060405180830381600087803b15801561070957600080fd5b505af115801561071d573d6000803e3d6000fd5b505060975461073792506001600160a01b03169050610f4e565b6001600160a01b031663b1c90b7d826040518263ffffffff1660e01b815260040161076491815260200190565b600060405180830381600087803b15801561077e57600080fd5b505af1158015610792573d6000803e3d6000fd5b505050507fa736b6e79f86ae8f61c99d18e6d008412bc4bca0fec68bd9010c12c3ea3d1d6633856040516107c79291906116c3565b60405180910390a17fcc16f5dbb4873280815c1ee09dbd06736cffcc184412cf7a71a0fdb75d397ca533856040516108009291906116c3565b60405180910390a150505050565b6108178261022f565b61082081610c51565b61026c8383610ce1565b6097543390610841906001600160a01b0316610e93565b6001600160a01b031663fb237eb2826040518263ffffffff1660e01b815260040161086c919061168b565b60206040518083038186803b15801561088457600080fd5b505afa158015610898573d6000803e3d6000fd5b505050506040513d601f19601f820116820180604052508101906108bc9190611532565b6108d85760405162461bcd60e51b81526004016102dd906117d6565b6097546000906108f0906001600160a01b0316610e9e565b6001600160a01b03166330c49700856040518263ffffffff1660e01b815260040161091d91815260200190565b60206040518083038186803b15801561093557600080fd5b505afa158015610949573d6000803e3d6000fd5b505050506040513d601f19601f8201168201806040525081019061096d91906115c2565b6097549091506109b390339061098b906001600160a01b0316610f7d565b60975487906109a2906001600160a01b0316610f94565b6001600160a01b0316929190610f9f565b8215610b4c576097546109ce906001600160a01b0316610f43565b6097546001600160a01b03918216916340c10f19916109ed9116610f7d565b836040518363ffffffff1660e01b8152600401610a0b9291906116c3565b602060405180830381600087803b158015610a2557600080fd5b505af1158015610a39573d6000803e3d6000fd5b505050506040513d601f19601f82011682018060405250810190610a5d9190611532565b50609754610a73906001600160a01b0316610ffd565b6001600160a01b0316636374299e33836040518363ffffffff1660e01b8152600401610aa09291906116c3565b600060405180830381600087803b158015610aba57600080fd5b505af1158015610ace573d6000803e3d6000fd5b50506097546000805160206119208339815191529250610af791506001600160a01b0316610f7d565b82604051610b069291906116c3565b60405180910390a17febedb8b3c678666e7f36970bc8f57abf6d8fa2e828c0da91ea5b75bf68ed101a3382604051610b3f9291906116c3565b60405180910390a1610c09565b609754610b61906001600160a01b0316610f43565b6001600160a01b03166340c10f1933836040518363ffffffff1660e01b8152600401610b8e9291906116c3565b602060405180830381600087803b158015610ba857600080fd5b505af1158015610bbc573d6000803e3d6000fd5b505050506040513d601f19601f82011682018060405250810190610be09190611532565b506000805160206119208339815191523382604051610c009291906116c3565b60405180910390a15b6097547fa4f358c78f73b2049a06e0436c6728292334862a6fc2114f2de13f9cff58491f90610c40906001600160a01b0316610f59565b33836040516108009392919061169f565b6103248133611008565b610c6582826103c8565b6102f05760008281526065602090815260408083206001600160a01b03851684529091529020805460ff19166001179055610c9d3390565b6001600160a01b0316816001600160a01b0316837f2f8788117e7eff1d82e926ec794901d17c78024a50270940304540a733656f0d60405160405180910390a45050565b610ceb82826103c8565b156102f05760008281526065602090815260408083206001600160a01b0385168085529252808320805460ff1916905551339285917ff6391f5c32d9c69d2a47ea670b442974b53935d1edc7fd64eb21e047a839171b9190a45050565b60006001600160a01b03821663b93f9b0a60025b6040518263ffffffff1660e01b8152600401610d7a91815260200190565b60206040518083038186803b158015610d9257600080fd5b505afa158015610da6573d6000803e3d6000fd5b505050506040513d601f19601f820116820180604052508101906102299190611515565b60008054610100900460ff1615610e18578160ff166001148015610df45750610df23061106c565b155b610e105760405162461bcd60e51b81526004016102dd9061170f565b506000919050565b60005460ff808416911610610e3f5760405162461bcd60e51b81526004016102dd9061170f565b506000805460ff191660ff92909216919091179055600190565b600054610100900460ff16610e805760405162461bcd60e51b81526004016102dd9061178b565b610e8861107b565b6103246000826110a2565b6000610229826110ac565b6000610229826110c4565b604051631f8ac6cb60e31b8152600060048201819052906001600160a01b0383169063fc5636589060240160206040518083038186803b158015610eec57600080fd5b505afa158015610f00573d6000803e3d6000fd5b505050506040513d601f19601f8201168201806040525081019061022991906115c2565b6000610f308284611841565b9392505050565b6000610f30828461181f565b6000610229826110dc565b600061022982610f7d565b60006001600160a01b03821663b93f9b0a600d610d5c565b6000610f308284611860565b60006001600160a01b03821663b93f9b0a82610d5c565b600061022982610f59565b610ff7846323b872dd60e01b858585604051602401610fc09392919061169f565b60408051601f198184030181529190526020810180516001600160e01b03166001600160e01b0319909316929092179091526110f4565b50505050565b6000610229826111c6565b61101282826103c8565b6102f05761102a816001600160a01b031660146111de565b6110358360206111de565b60405160200161104692919061161c565b60408051601f198184030181529082905262461bcd60e51b82526102dd916004016116dc565b6001600160a01b03163b151590565b600054610100900460ff166103c65760405162461bcd60e51b81526004016102dd9061178b565b6102f08282610c5b565b60006001600160a01b03821663b93f9b0a6006610d5c565b60006001600160a01b03821663b93f9b0a6001610d5c565b60006001600160a01b03821663b93f9b0a600e610d5c565b6000611149826040518060400160405280602081526020017f5361666545524332303a206c6f772d6c6576656c2063616c6c206661696c6564815250856001600160a01b03166113799092919063ffffffff16565b80519091501561026c57808060200190518101906111679190611532565b61026c5760405162461bcd60e51b815260206004820152602a60248201527f5361666545524332303a204552433230206f7065726174696f6e20646964206e6044820152691bdd081cdd58d8d9595960b21b60648201526084016102dd565b60006001600160a01b03821663b93f9b0a6007610d5c565b606060006111ed836002611841565b6111f8906002611807565b6001600160401b0381111561120f5761120f6118e6565b6040519080825280601f01601f191660200182016040528015611239576020820181803683370190505b509050600360fc1b81600081518110611254576112546118d0565b60200101906001600160f81b031916908160001a905350600f60fb1b81600181518110611283576112836118d0565b60200101906001600160f81b031916908160001a90535060006112a7846002611841565b6112b2906001611807565b90505b600181111561132a576f181899199a1a9b1b9c1cb0b131b232b360811b85600f16601081106112e6576112e66118d0565b1a60f81b8282815181106112fc576112fc6118d0565b60200101906001600160f81b031916908160001a90535060049490941c93611323816118a3565b90506112b5565b508315610f305760405162461bcd60e51b815260206004820181905260248201527f537472696e67733a20686578206c656e67746820696e73756666696369656e7460448201526064016102dd565b60606113888484600085611390565b949350505050565b6060824710156113f15760405162461bcd60e51b815260206004820152602660248201527f416464726573733a20696e73756666696369656e742062616c616e636520666f6044820152651c8818d85b1b60d21b60648201526084016102dd565b6113fa8561106c565b6114465760405162461bcd60e51b815260206004820152601d60248201527f416464726573733a2063616c6c20746f206e6f6e2d636f6e747261637400000060448201526064016102dd565b600080866001600160a01b031685876040516114629190611600565b60006040518083038185875af1925050503d806000811461149f576040519150601f19603f3d011682016040523d82523d6000602084013e6114a4565b606091505b50915091506114b48282866114bf565b979650505050505050565b606083156114ce575081610f30565b8251156114de5782518084602001fd5b8160405162461bcd60e51b81526004016102dd91906116dc565b60006020828403121561150a57600080fd5b8135610f30816118fc565b60006020828403121561152757600080fd5b8151610f30816118fc565b60006020828403121561154457600080fd5b8151610f3081611911565b60006020828403121561156157600080fd5b5035919050565b6000806040838503121561157b57600080fd5b82359150602083013561158d816118fc565b809150509250929050565b6000602082840312156115aa57600080fd5b81356001600160e01b031981168114610f3057600080fd5b6000602082840312156115d457600080fd5b5051919050565b600080604083850312156115ee57600080fd5b82359150602083013561158d81611911565b60008251611612818460208701611877565b9190910192915050565b76020b1b1b2b9b9a1b7b73a3937b61d1030b1b1b7bab73a1604d1b81526000835161164e816017850160208801611877565b7001034b99036b4b9b9b4b733903937b6329607d1b601791840191820152835161167f816028840160208801611877565b01602801949350505050565b6001600160a01b0391909116815260200190565b6001600160a01b039384168152919092166020820152604081019190915260600190565b6001600160a01b03929092168252602082015260400190565b60208152600082518060208401526116fb816040850160208701611877565b601f01601f19169190910160400192915050565b6020808252602e908201527f496e697469616c697a61626c653a20636f6e747261637420697320616c72656160408201526d191e481a5b9a5d1a585b1a5e995960921b606082015260800190565b6020808252601490820152735265737472696374656420746f2061646d696e7360601b604082015260600190565b6020808252602b908201527f496e697469616c697a61626c653a20636f6e7472616374206973206e6f74206960408201526a6e697469616c697a696e6760a81b606082015260800190565b6020808252601790820152761d5cd95c881a5cc81b9bdd081dda1a5d195b1a5cdd1959604a1b604082015260600190565b6000821982111561181a5761181a6118ba565b500190565b60008261183c57634e487b7160e01b600052601260045260246000fd5b500490565b600081600019048311821515161561185b5761185b6118ba565b500290565b600082821015611872576118726118ba565b500390565b60005b8381101561189257818101518382015260200161187a565b83811115610ff75750506000910152565b6000816118b2576118b26118ba565b506000190190565b634e487b7160e01b600052601160045260246000fd5b634e487b7160e01b600052603260045260246000fd5b634e487b7160e01b600052604160045260246000fd5b6001600160a01b038116811461032457600080fd5b801515811461032457600080fdfe0f6798a560793a54c3bcfe86a93cde1e73087d944c0ea20544137d4121396885a264697066735822122090332a9a77058aaf2b9935346fee619a644685253e65c49a4bb097e34c721a0f64736f6c63430008070033",
  "linkReferences": {},
  "deployedLinkReferences": {}
}