{
  "address": "0x64f072451BBec04CFbe05d6A377eC16032bdc981",
  "_format": "hh-sol-artifact-1",
  "contractName": "StakeDesk",
  "sourceName": "contracts/alloyx/StakeDesk.sol",
  "abi": [
    {
      "anonymous": false,
      "inputs": [
        {
          "indexed": true,
          "internalType": "address",
          "name": "who",
          "type": "address"
        },
        {
          "indexed": false,
          "internalType": "address",
          "name": "configAddress",
          "type": "address"
        }
      ],
      "name": "AlloyxConfigUpdated",
      "type": "event"
    },
    {
      "anonymous": false,
      "inputs": [
        {
          "indexed": false,
          "internalType": "address",
          "name": "_tokenReceiver",
          "type": "address"
        },
        {
          "indexed": false,
          "internalType": "uint256",
          "name": "_tokenAmount",
          "type": "uint256"
        }
      ],
      "name": "Claim",
      "type": "event"
    },
    {
      "anonymous": false,
      "inputs": [
        {
          "indexed": false,
          "internalType": "uint8",
          "name": "version",
          "type": "uint8"
        }
      ],
      "name": "Initialized",
      "type": "event"
    },
    {
      "anonymous": false,
      "inputs": [
        {
          "indexed": false,
          "internalType": "address",
          "name": "_tokenReceiver",
          "type": "address"
        },
        {
          "indexed": false,
          "internalType": "uint256",
          "name": "_tokenAmount",
          "type": "uint256"
        }
      ],
      "name": "Reward",
      "type": "event"
    },
    {
      "anonymous": false,
      "inputs": [
        {
          "indexed": true,
          "internalType": "bytes32",
          "name": "role",
          "type": "bytes32"
        },
        {
          "indexed": true,
          "internalType": "bytes32",
          "name": "previousAdminRole",
          "type": "bytes32"
        },
        {
          "indexed": true,
          "internalType": "bytes32",
          "name": "newAdminRole",
          "type": "bytes32"
        }
      ],
      "name": "RoleAdminChanged",
      "type": "event"
    },
    {
      "anonymous": false,
      "inputs": [
        {
          "indexed": true,
          "internalType": "bytes32",
          "name": "role",
          "type": "bytes32"
        },
        {
          "indexed": true,
          "internalType": "address",
          "name": "account",
          "type": "address"
        },
        {
          "indexed": true,
          "internalType": "address",
          "name": "sender",
          "type": "address"
        }
      ],
      "name": "RoleGranted",
      "type": "event"
    },
    {
      "anonymous": false,
      "inputs": [
        {
          "indexed": true,
          "internalType": "bytes32",
          "name": "role",
          "type": "bytes32"
        },
        {
          "indexed": true,
          "internalType": "address",
          "name": "account",
          "type": "address"
        },
        {
          "indexed": true,
          "internalType": "address",
          "name": "sender",
          "type": "address"
        }
      ],
      "name": "RoleRevoked",
      "type": "event"
    },
    {
      "anonymous": false,
      "inputs": [
        {
          "indexed": false,
          "internalType": "address",
          "name": "_staker",
          "type": "address"
        },
        {
          "indexed": false,
          "internalType": "uint256",
          "name": "_amount",
          "type": "uint256"
        }
      ],
      "name": "Stake",
      "type": "event"
    },
    {
      "anonymous": false,
      "inputs": [
        {
          "indexed": false,
          "internalType": "address",
          "name": "_unstaker",
          "type": "address"
        },
        {
          "indexed": false,
          "internalType": "uint256",
          "name": "_amount",
          "type": "uint256"
        }
      ],
      "name": "Unstake",
      "type": "event"
    },
    {
      "anonymous": false,
      "inputs": [
        {
          "indexed": false,
          "internalType": "uint256",
          "name": "_tokenID",
          "type": "uint256"
        }
      ],
      "name": "WithdrawGfiFromPoolTokens",
      "type": "event"
    },
    {
      "inputs": [],
      "name": "DEFAULT_ADMIN_ROLE",
      "outputs": [
        {
          "internalType": "bytes32",
          "name": "",
          "type": "bytes32"
        }
      ],
      "stateMutability": "view",
      "type": "function"
    },
    {
      "inputs": [
        {
          "internalType": "address",
          "name": "account",
          "type": "address"
        }
      ],
      "name": "addAdmin",
      "outputs": [],
      "stateMutability": "nonpayable",
      "type": "function"
    },
    {
      "inputs": [],
      "name": "claimAllAlloyxCRWN",
      "outputs": [
        {
          "internalType": "bool",
          "name": "",
          "type": "bool"
        }
      ],
      "stateMutability": "nonpayable",
      "type": "function"
    },
    {
      "inputs": [
        {
          "internalType": "uint256",
          "name": "_amount",
          "type": "uint256"
        }
      ],
      "name": "claimAlloyxCRWN",
      "outputs": [
        {
          "internalType": "bool",
          "name": "",
          "type": "bool"
        }
      ],
      "stateMutability": "nonpayable",
      "type": "function"
    },
    {
      "inputs": [
        {
          "internalType": "uint256",
          "name": "_amount",
          "type": "uint256"
        }
      ],
      "name": "claimReward",
      "outputs": [
        {
          "internalType": "bool",
          "name": "",
          "type": "bool"
        }
      ],
      "stateMutability": "nonpayable",
      "type": "function"
    },
    {
      "inputs": [],
      "name": "config",
      "outputs": [
        {
          "internalType": "contract AlloyxConfig",
          "name": "",
          "type": "address"
        }
      ],
      "stateMutability": "view",
      "type": "function"
    },
    {
      "inputs": [
        {
          "internalType": "uint256",
          "name": "_amount",
          "type": "uint256"
        }
      ],
      "name": "getRewardTokenCount",
      "outputs": [
        {
          "internalType": "uint256",
          "name": "",
          "type": "uint256"
        },
        {
          "internalType": "uint256",
          "name": "",
          "type": "uint256"
        }
      ],
      "stateMutability": "view",
      "type": "function"
    },
    {
      "inputs": [
        {
          "internalType": "bytes32",
          "name": "role",
          "type": "bytes32"
        }
      ],
      "name": "getRoleAdmin",
      "outputs": [
        {
          "internalType": "bytes32",
          "name": "",
          "type": "bytes32"
        }
      ],
      "stateMutability": "view",
      "type": "function"
    },
    {
      "inputs": [
        {
          "internalType": "bytes32",
          "name": "role",
          "type": "bytes32"
        },
        {
          "internalType": "address",
          "name": "account",
          "type": "address"
        }
      ],
      "name": "grantRole",
      "outputs": [],
      "stateMutability": "nonpayable",
      "type": "function"
    },
    {
      "inputs": [
        {
          "internalType": "bytes32",
          "name": "role",
          "type": "bytes32"
        },
        {
          "internalType": "address",
          "name": "account",
          "type": "address"
        }
      ],
      "name": "hasRole",
      "outputs": [
        {
          "internalType": "bool",
          "name": "",
          "type": "bool"
        }
      ],
      "stateMutability": "view",
      "type": "function"
    },
    {
      "inputs": [
        {
          "internalType": "address",
          "name": "_configAddress",
          "type": "address"
        }
      ],
      "name": "initialize",
      "outputs": [],
      "stateMutability": "nonpayable",
      "type": "function"
    },
    {
      "inputs": [
        {
          "internalType": "address",
          "name": "account",
          "type": "address"
        }
      ],
      "name": "isAdmin",
      "outputs": [
        {
          "internalType": "bool",
          "name": "",
          "type": "bool"
        }
      ],
      "stateMutability": "view",
      "type": "function"
    },
    {
      "inputs": [],
      "name": "renounceAdmin",
      "outputs": [],
      "stateMutability": "nonpayable",
      "type": "function"
    },
    {
      "inputs": [
        {
          "internalType": "bytes32",
          "name": "role",
          "type": "bytes32"
        },
        {
          "internalType": "address",
          "name": "account",
          "type": "address"
        }
      ],
      "name": "renounceRole",
      "outputs": [],
      "stateMutability": "nonpayable",
      "type": "function"
    },
    {
      "inputs": [
        {
          "internalType": "bytes32",
          "name": "role",
          "type": "bytes32"
        },
        {
          "internalType": "address",
          "name": "account",
          "type": "address"
        }
      ],
      "name": "revokeRole",
      "outputs": [],
      "stateMutability": "nonpayable",
      "type": "function"
    },
    {
      "inputs": [
        {
          "internalType": "uint256",
          "name": "_amount",
          "type": "uint256"
        }
      ],
      "name": "stake",
      "outputs": [],
      "stateMutability": "nonpayable",
      "type": "function"
    },
    {
      "inputs": [
        {
          "internalType": "bytes4",
          "name": "interfaceId",
          "type": "bytes4"
        }
      ],
      "name": "supportsInterface",
      "outputs": [
        {
          "internalType": "bool",
          "name": "",
          "type": "bool"
        }
      ],
      "stateMutability": "view",
      "type": "function"
    },
    {
      "inputs": [],
      "name": "totalClaimableAndClaimedCRWNToken",
      "outputs": [
        {
          "internalType": "uint256",
          "name": "",
          "type": "uint256"
        }
      ],
      "stateMutability": "view",
      "type": "function"
    },
    {
      "inputs": [
        {
          "internalType": "uint256",
          "name": "_amount",
          "type": "uint256"
        }
      ],
      "name": "unstake",
      "outputs": [],
      "stateMutability": "nonpayable",
      "type": "function"
    },
    {
      "inputs": [],
      "name": "updateConfig",
      "outputs": [],
      "stateMutability": "nonpayable",
      "type": "function"
    },
    {
      "inputs": [
        {
          "internalType": "uint256[]",
          "name": "_tokenIDs",
          "type": "uint256[]"
        }
      ],
      "name": "withdrawGfiFromMultiplePoolTokens",
      "outputs": [],
      "stateMutability": "nonpayable",
      "type": "function"
    },
    {
      "inputs": [
        {
          "internalType": "uint256",
          "name": "_tokenID",
          "type": "uint256"
        }
      ],
      "name": "withdrawGfiFromPoolTokens",
      "outputs": [],
      "stateMutability": "nonpayable",
      "type": "function"
    }
  ],
  "bytecode": "0x608060405234801561001057600080fd5b5061234b806100206000396000f3fe608060405234801561001057600080fd5b50600436106101125760003560e01c806301ffc9a7146101175780630d5180011461013f57806319859a6d14610147578063248a9ca31461016f57806324d7806c146101905780632e17de78146101a35780632f2ff15d146101b857806336568abe146101cb57806351ba9724146101de5780636f9e85e9146101f15780637048027514610204578063747fd44c1461021757806379502c551461021f5780638bad0c0a1461023f57806391d148541461024757806394575b561461025a578063a217fddf1461026d578063a694fc3a14610275578063ae169a5014610288578063c4d66de81461029b578063d547741f146102ae578063e93039cb146102c1575b600080fd5b61012a610125366004611f5b565b6102c9565b60405190151581526020015b60405180910390f35b61012a610300565b61015a610155366004611f12565b6104d1565b60408051928352602083019190915201610136565b61018261017d366004611f12565b61065a565b604051908152602001610136565b61012a61019e366004611e42565b61066f565b6101b66101b1366004611f12565b61067b565b005b6101b66101c6366004611f2b565b6107b2565b6101b66101d9366004611f2b565b6107d3565b61012a6101ec366004611f12565b610856565b6101b66101ff366004611e7c565b610a90565b6101b6610212366004611e42565b610dce565b6101b6610e01565b609754610232906001600160a01b031681565b6040516101369190612029565b6101b6610e95565b61012a610255366004611f2b565b610ea2565b6101b6610268366004611f12565b610ecd565b610182600081565b6101b6610283366004611f12565b6110ac565b61012a610296366004611f12565b611194565b6101b66102a9366004611e42565b611384565b6101b66102bc366004611f2b565b611415565b610182611431565b60006001600160e01b03198216637965db0b60e01b14806102fa57506301ffc9a760e01b6001600160e01b03198316145b92915050565b609754600090819061031a906001600160a01b031661154d565b6001600160a01b031663816c1acd336040518263ffffffff1660e01b81526004016103459190612029565b60206040518083038186803b15801561035d57600080fd5b505afa158015610371573d6000803e3d6000fd5b505050506040513d601f19601f820116820180604052508101906103959190611f85565b6097549091506103ad906001600160a01b0316611558565b6001600160a01b03166340c10f1933836040518363ffffffff1660e01b81526004016103da929190612061565b602060405180830381600087803b1580156103f457600080fd5b505af1158015610408573d6000803e3d6000fd5b505050506040513d601f19601f8201168201806040525081019061042c9190611ef0565b50609754610442906001600160a01b031661154d565b6001600160a01b0316634d8d595c3360006040518363ffffffff1660e01b8152600401610470929190612061565b600060405180830381600087803b15801561048a57600080fd5b505af115801561049e573d6000803e3d6000fd5b505050506000805160206122d683398151915233826040516104c1929190612061565b60405180910390a1600191505090565b60008060006106216104e1611431565b60975461061b90610614906104fe906001600160a01b0316611563565b6001600160a01b0316634dbbae736040518163ffffffff1660e01b815260040160206040518083038186803b15801561053657600080fd5b505afa15801561054a573d6000803e3d6000fd5b505050506040513d601f19601f8201168201806040525081019061056e9190611f85565b609754610583906001600160a01b031661156e565b6097546001600160a01b03918216916370a08231916105a29116611579565b6040518263ffffffff1660e01b81526004016105be9190612029565b60206040518083038186803b1580156105d657600080fd5b505afa1580156105ea573d6000803e3d6000fd5b505050506040513d601f19601f8201168201806040525081019061060e9190611f85565b906115fa565b879061160d565b90611619565b60975490915060009061064e9060649061061b90610647906001600160a01b0316611625565b859061160d565b91959194509092505050565b60009081526065602052604090206001015490565b60006102fa8183610ea2565b609754610690906001600160a01b031661154d565b6001600160a01b03166368ce7d8a33836040518363ffffffff1660e01b81526004016106bd929190612061565b600060405180830381600087803b1580156106d757600080fd5b505af11580156106eb573d6000803e3d6000fd5b505060975461070592506001600160a01b03169050611563565b6097546001600160a01b0391821691639db5dbe49161072491166116a0565b33846040518463ffffffff1660e01b81526004016107449392919061203d565b600060405180830381600087803b15801561075e57600080fd5b505af1158015610772573d6000803e3d6000fd5b505050507f85082129d87b2fe11527cb1b3b7a520aeb5aa6913f88a3d8757fe40d1db02fdd33826040516107a7929190612061565b60405180910390a150565b6107bb8261065a565b6107c4816116b8565b6107ce83836116c2565b505050565b6001600160a01b03811633146108485760405162461bcd60e51b815260206004820152602f60248201527f416363657373436f6e74726f6c3a2063616e206f6e6c792072656e6f756e636560448201526e103937b632b9903337b91039b2b63360891b60648201526084015b60405180910390fd5b6108528282611748565b5050565b6097546000908190610870906001600160a01b031661154d565b6001600160a01b031663816c1acd336040518263ffffffff1660e01b815260040161089b9190612029565b60206040518083038186803b1580156108b357600080fd5b505afa1580156108c7573d6000803e3d6000fd5b505050506040513d601f19601f820116820180604052508101906108eb9190611f85565b90508281101561094e5760405162461bcd60e51b815260206004820152602860248201527f557365722068617320636c61696d6564206d6f7265207468616e206865277320604482015267195b9d1a5d1b195960c21b606482015260840161083f565b609754610963906001600160a01b0316611558565b6001600160a01b03166340c10f1933856040518363ffffffff1660e01b8152600401610990929190612061565b602060405180830381600087803b1580156109aa57600080fd5b505af11580156109be573d6000803e3d6000fd5b505050506040513d601f19601f820116820180604052508101906109e29190611ef0565b506097546109f8906001600160a01b031661154d565b6001600160a01b0316634d8d595c33610a1184876115fa565b6040518363ffffffff1660e01b8152600401610a2e929190612061565b600060405180830381600087803b158015610a4857600080fd5b505af1158015610a5c573d6000803e3d6000fd5b505050506000805160206122d68339815191523384604051610a7f929190612061565b60405180910390a150600192915050565b610a993361066f565b610ab55760405162461bcd60e51b815260040161083f90612137565b60005b81811015610b7157609754610ad5906001600160a01b0316611563565b6097546001600160a01b0391821691631aca637691610af491166117af565b30868686818110610b0757610b07612294565b905060200201356040518463ffffffff1660e01b8152600401610b2c9392919061203d565b600060405180830381600087803b158015610b4657600080fd5b505af1158015610b5a573d6000803e3d6000fd5b505050508080610b6990612263565b915050610ab8565b50609754610b87906001600160a01b03166117c7565b6001600160a01b031663e5b7910683836040518363ffffffff1660e01b8152600401610bb492919061207a565b600060405180830381600087803b158015610bce57600080fd5b505af1158015610be2573d6000803e3d6000fd5b5050505060005b81811015610ca357609754610c06906001600160a01b03166117d2565b6097546001600160a01b03918216916342842e0e913091610c279116611579565b868686818110610c3957610c39612294565b905060200201356040518463ffffffff1660e01b8152600401610c5e9392919061203d565b600060405180830381600087803b158015610c7857600080fd5b505af1158015610c8c573d6000803e3d6000fd5b505050508080610c9b90612263565b915050610be9565b50609754610d7290610cbd906001600160a01b0316611579565b609754610cd2906001600160a01b031661156e565b6001600160a01b03166370a08231306040518263ffffffff1660e01b8152600401610cfd9190612029565b60206040518083038186803b158015610d1557600080fd5b505afa158015610d29573d6000803e3d6000fd5b505050506040513d601f19601f82011682018060405250810190610d4d9190611f85565b609754610d62906001600160a01b031661156e565b6001600160a01b031691906117dd565b60005b818110156107ce576000805160206122f6833981519152838383818110610d9e57610d9e612294565b90506020020135604051610db491815260200190565b60405180910390a180610dc681612263565b915050610d75565b610dd73361066f565b610df35760405162461bcd60e51b815260040161083f90612137565b610dfe6000826107b2565b50565b610e0a3361066f565b610e265760405162461bcd60e51b815260040161083f90612137565b609754610e3b906001600160a01b0316611833565b609780546001600160a01b0319166001600160a01b0392909216918217905560405133917f2310d831a9db3a28092d0b5509a976cbeffda5294f3f321086036ed76ebd259491610e8b9190612029565b60405180910390a2565b610ea06000336107d3565b565b60009182526065602090815260408084206001600160a01b0393909316845291905290205460ff1690565b610ed63361066f565b610ef25760405162461bcd60e51b815260040161083f90612137565b609754610f07906001600160a01b0316611563565b6097546001600160a01b0391821691631aca637691610f2691166117af565b30846040518463ffffffff1660e01b8152600401610f469392919061203d565b600060405180830381600087803b158015610f6057600080fd5b505af1158015610f74573d6000803e3d6000fd5b5050609754610f8e92506001600160a01b031690506117c7565b6001600160a01b0316632e1a7d4d826040518263ffffffff1660e01b8152600401610fbb91815260200190565b600060405180830381600087803b158015610fd557600080fd5b505af1158015610fe9573d6000803e3d6000fd5b505060975461100392506001600160a01b031690506117d2565b6097546001600160a01b03918216916342842e0e9130916110249116611579565b846040518463ffffffff1660e01b81526004016110439392919061203d565b600060405180830381600087803b15801561105d57600080fd5b505af1158015611071573d6000803e3d6000fd5b505060975461108e9250610cbd91506001600160a01b0316611579565b6040518181526000805160206122f6833981519152906020016107a7565b6097546110c1906001600160a01b031661154d565b6001600160a01b0316636374299e33836040518363ffffffff1660e01b81526004016110ee929190612061565b600060405180830381600087803b15801561110857600080fd5b505af115801561111c573d6000803e3d6000fd5b5050609754611163925033915061113b906001600160a01b0316611579565b6097548490611152906001600160a01b031661184b565b6001600160a01b0316929190611856565b7febedb8b3c678666e7f36970bc8f57abf6d8fa2e828c0da91ea5b75bf68ed101a33826040516107a7929190612061565b60008060006111a2846104d1565b60975491935091506111bc906001600160a01b0316611563565b6097546001600160a01b0391821691639db5dbe4916111db911661187d565b336111e686866115fa565b6040518463ffffffff1660e01b81526004016112049392919061203d565b600060405180830381600087803b15801561121e57600080fd5b505af1158015611232573d6000803e3d6000fd5b505060975461124c92506001600160a01b03169050611563565b6001600160a01b0316636098906a826040518263ffffffff1660e01b815260040161127991815260200190565b600060405180830381600087803b15801561129357600080fd5b505af11580156112a7573d6000803e3d6000fd5b50506097546112c192506001600160a01b03169050611558565b6001600160a01b0316639dc29fac33866040518363ffffffff1660e01b81526004016112ee929190612061565b602060405180830381600087803b15801561130857600080fd5b505af115801561131c573d6000803e3d6000fd5b505050506040513d601f19601f820116820180604052508101906113409190611ef0565b507f619caafabdd75649b302ba8419e48cccf64f37f1983ac4727cfb38b57703ffc93385604051611372929190612061565b60405180910390a15060019392505050565b60006113906001611895565b905080156113a8576000805461ff0019166101001790555b6113b133611924565b609780546001600160a01b0319166001600160a01b0384161790558015610852576000805461ff0019169055604051600181527f7f26b83ff96e1f2b6a682f133852f6798a09c465da95921460cefb38474024989060200160405180910390a15050565b61141e8261065a565b611427816116b8565b6107ce8383611748565b6097546000906115489061144d906001600160a01b0316611558565b6001600160a01b03166318160ddd6040518163ffffffff1660e01b815260040160206040518083038186803b15801561148557600080fd5b505afa158015611499573d6000803e3d6000fd5b505050506040513d601f19601f820116820180604052508101906114bd9190611f85565b6097546114d2906001600160a01b031661154d565b6001600160a01b03166364cdc99e6040518163ffffffff1660e01b815260040160206040518083038186803b15801561150a57600080fd5b505afa15801561151e573d6000803e3d6000fd5b505050506040513d601f19601f820116820180604052508101906115429190611f85565b9061195e565b905090565b60006102fa8261196a565b60006102fa82611982565b60006102fa82611579565b60006102fa8261187d565b60006001600160a01b03821663b93f9b0a825b6040518263ffffffff1660e01b81526004016115aa91815260200190565b60206040518083038186803b1580156115c257600080fd5b505afa1580156115d6573d6000803e3d6000fd5b505050506040513d601f19601f820116820180604052508101906102fa9190611e5f565b60006116068284612209565b9392505050565b600061160682846121ea565b600061160682846121c8565b604051631f8ac6cb60e31b8152600360048201526000906001600160a01b0383169063fc5636589060240160206040518083038186803b15801561166857600080fd5b505afa15801561167c573d6000803e3d6000fd5b505050506040513d601f19601f820116820180604052508101906102fa9190611f85565b60006001600160a01b03821663b93f9b0a600e61158c565b610dfe813361199a565b6116cc8282610ea2565b6108525760008281526065602090815260408083206001600160a01b03851684529091529020805460ff191660011790556117043390565b6001600160a01b0316816001600160a01b0316837f2f8788117e7eff1d82e926ec794901d17c78024a50270940304540a733656f0d60405160405180910390a45050565b6117528282610ea2565b156108525760008281526065602090815260408083206001600160a01b0385168085529252808320805460ff1916905551339285917ff6391f5c32d9c69d2a47ea670b442974b53935d1edc7fd64eb21e047a839171b9190a45050565b60006001600160a01b03821663b93f9b0a600861158c565b60006102fa826119fe565b60006102fa826117af565b6107ce8363a9059cbb60e01b84846040516024016117fc929190612061565b60408051601f198184030181529190526020810180516001600160e01b03166001600160e01b031990931692909217909152611a16565b60006001600160a01b03821663b93f9b0a600261158c565b60006102fa826116a0565b611877846323b872dd60e01b8585856040516024016117fc9392919061203d565b50505050565b60006001600160a01b03821663b93f9b0a600c61158c565b60008054610100900460ff16156118e3578160ff1660011480156118bf57506118bd30611ae8565b155b6118db5760405162461bcd60e51b815260040161083f906120e9565b506000919050565b60005460ff80841691161061190a5760405162461bcd60e51b815260040161083f906120e9565b506000805460ff191660ff92909216919091179055600190565b600054610100900460ff1661194b5760405162461bcd60e51b815260040161083f90612165565b611953611af7565b610dfe600082611b1e565b600061160682846121b0565b60006001600160a01b03821663b93f9b0a600761158c565b60006001600160a01b03821663b93f9b0a600f61158c565b6119a48282610ea2565b610852576119bc816001600160a01b03166014611b28565b6119c7836020611b28565b6040516020016119d8929190611fba565b60408051601f198184030181529082905262461bcd60e51b825261083f916004016120b6565b60006001600160a01b03821663b93f9b0a601061158c565b6000611a6b826040518060400160405280602081526020017f5361666545524332303a206c6f772d6c6576656c2063616c6c206661696c6564815250856001600160a01b0316611cc39092919063ffffffff16565b8051909150156107ce5780806020019051810190611a899190611ef0565b6107ce5760405162461bcd60e51b815260206004820152602a60248201527f5361666545524332303a204552433230206f7065726174696f6e20646964206e6044820152691bdd081cdd58d8d9595960b21b606482015260840161083f565b6001600160a01b03163b151590565b600054610100900460ff16610ea05760405162461bcd60e51b815260040161083f90612165565b61085282826116c2565b60606000611b378360026121ea565b611b429060026121b0565b6001600160401b03811115611b5957611b596122aa565b6040519080825280601f01601f191660200182016040528015611b83576020820181803683370190505b509050600360fc1b81600081518110611b9e57611b9e612294565b60200101906001600160f81b031916908160001a905350600f60fb1b81600181518110611bcd57611bcd612294565b60200101906001600160f81b031916908160001a9053506000611bf18460026121ea565b611bfc9060016121b0565b90505b6001811115611c74576f181899199a1a9b1b9c1cb0b131b232b360811b85600f1660108110611c3057611c30612294565b1a60f81b828281518110611c4657611c46612294565b60200101906001600160f81b031916908160001a90535060049490941c93611c6d8161224c565b9050611bff565b5083156116065760405162461bcd60e51b815260206004820181905260248201527f537472696e67733a20686578206c656e67746820696e73756666696369656e74604482015260640161083f565b6060611cd28484600085611cda565b949350505050565b606082471015611d3b5760405162461bcd60e51b815260206004820152602660248201527f416464726573733a20696e73756666696369656e742062616c616e636520666f6044820152651c8818d85b1b60d21b606482015260840161083f565b611d4485611ae8565b611d905760405162461bcd60e51b815260206004820152601d60248201527f416464726573733a2063616c6c20746f206e6f6e2d636f6e7472616374000000604482015260640161083f565b600080866001600160a01b03168587604051611dac9190611f9e565b60006040518083038185875af1925050503d8060008114611de9576040519150601f19603f3d011682016040523d82523d6000602084013e611dee565b606091505b5091509150611dfe828286611e09565b979650505050505050565b60608315611e18575081611606565b825115611e285782518084602001fd5b8160405162461bcd60e51b815260040161083f91906120b6565b600060208284031215611e5457600080fd5b8135611606816122c0565b600060208284031215611e7157600080fd5b8151611606816122c0565b60008060208385031215611e8f57600080fd5b82356001600160401b0380821115611ea657600080fd5b818501915085601f830112611eba57600080fd5b813581811115611ec957600080fd5b8660208260051b8501011115611ede57600080fd5b60209290920196919550909350505050565b600060208284031215611f0257600080fd5b8151801515811461160657600080fd5b600060208284031215611f2457600080fd5b5035919050565b60008060408385031215611f3e57600080fd5b823591506020830135611f50816122c0565b809150509250929050565b600060208284031215611f6d57600080fd5b81356001600160e01b03198116811461160657600080fd5b600060208284031215611f9757600080fd5b5051919050565b60008251611fb0818460208701612220565b9190910192915050565b76020b1b1b2b9b9a1b7b73a3937b61d1030b1b1b7bab73a1604d1b815260008351611fec816017850160208801612220565b7001034b99036b4b9b9b4b733903937b6329607d1b601791840191820152835161201d816028840160208801612220565b01602801949350505050565b6001600160a01b0391909116815260200190565b6001600160a01b039384168152919092166020820152604081019190915260600190565b6001600160a01b03929092168252602082015260400190565b6020808252810182905260006001600160fb1b0383111561209a57600080fd5b8260051b80856040850137600092016040019182525092915050565b60208152600082518060208401526120d5816040850160208701612220565b601f01601f19169190910160400192915050565b6020808252602e908201527f496e697469616c697a61626c653a20636f6e747261637420697320616c72656160408201526d191e481a5b9a5d1a585b1a5e995960921b606082015260800190565b6020808252601490820152735265737472696374656420746f2061646d696e7360601b604082015260600190565b6020808252602b908201527f496e697469616c697a61626c653a20636f6e7472616374206973206e6f74206960408201526a6e697469616c697a696e6760a81b606082015260800190565b600082198211156121c3576121c361227e565b500190565b6000826121e557634e487b7160e01b600052601260045260246000fd5b500490565b60008160001904831182151516156122045761220461227e565b500290565b60008282101561221b5761221b61227e565b500390565b60005b8381101561223b578181015183820152602001612223565b838111156118775750506000910152565b60008161225b5761225b61227e565b506000190190565b60006000198214156122775761227761227e565b5060010190565b634e487b7160e01b600052601160045260246000fd5b634e487b7160e01b600052603260045260246000fd5b634e487b7160e01b600052604160045260246000fd5b6001600160a01b0381168114610dfe57600080fdfe47cee97cb7acd717b3c0aa1435d004cd5b3c8c57d70dbceb4e4458bbd60e39d4cc44f1780fa558fbcf0a29a29019d3364a9c4209f1ccb0a6e5deffa2ea8ad160a264697066735822122052fa4a036fab4b7937f9c6585d511377b7382da18506d32102f9acf82c0cb3ba64736f6c63430008070033",
  "linkReferences": {},
  "deployedLinkReferences": {}
}