{
  "address": "0xB7E1e43Ed1703127560eE8Ab81458a4C7Dd7B784",
  "abi": [
    {
      "inputs": [
        {
          "internalType": "address",
          "name": "_poolTokenAddress",
          "type": "address"
        },
        {
          "internalType": "address",
          "name": "_usdcCoinAddress",
          "type": "address"
        }
      ],
      "stateMutability": "nonpayable",
      "type": "constructor"
    },
    {
      "anonymous": false,
      "inputs": [
        {
          "indexed": true,
          "internalType": "address",
          "name": "owner",
          "type": "address"
        },
        {
          "indexed": true,
          "internalType": "uint256",
          "name": "tranche",
          "type": "uint256"
        },
        {
          "indexed": true,
          "internalType": "uint256",
          "name": "tokenId",
          "type": "uint256"
        },
        {
          "indexed": false,
          "internalType": "uint256",
          "name": "amount",
          "type": "uint256"
        }
      ],
      "name": "DepositMade",
      "type": "event"
    },
    {
      "inputs": [],
      "name": "assess",
      "outputs": [],
      "stateMutability": "nonpayable",
      "type": "function"
    },
    {
      "inputs": [
        {
          "internalType": "uint256",
          "name": "tokenId",
          "type": "uint256"
        }
      ],
      "name": "availableToWithdraw",
      "outputs": [
        {
          "internalType": "uint256",
          "name": "interestRedeemable",
          "type": "uint256"
        },
        {
          "internalType": "uint256",
          "name": "principalRedeemable",
          "type": "uint256"
        }
      ],
      "stateMutability": "view",
      "type": "function"
    },
    {
      "inputs": [],
      "name": "createdAt",
      "outputs": [
        {
          "internalType": "uint256",
          "name": "",
          "type": "uint256"
        }
      ],
      "stateMutability": "view",
      "type": "function"
    },
    {
      "inputs": [],
      "name": "creditLine",
      "outputs": [
        {
          "internalType": "contract IV2CreditLine",
          "name": "",
          "type": "address"
        }
      ],
      "stateMutability": "view",
      "type": "function"
    },
    {
      "inputs": [
        {
          "internalType": "uint256",
          "name": "tranche",
          "type": "uint256"
        },
        {
          "internalType": "uint256",
          "name": "amount",
          "type": "uint256"
        }
      ],
      "name": "deposit",
      "outputs": [
        {
          "internalType": "uint256",
          "name": "tokenId",
          "type": "uint256"
        }
      ],
      "stateMutability": "nonpayable",
      "type": "function"
    },
    {
      "inputs": [
        {
          "internalType": "uint256",
          "name": "tranche",
          "type": "uint256"
        },
        {
          "internalType": "uint256",
          "name": "amount",
          "type": "uint256"
        },
        {
          "internalType": "uint256",
          "name": "deadline",
          "type": "uint256"
        },
        {
          "internalType": "uint8",
          "name": "v",
          "type": "uint8"
        },
        {
          "internalType": "bytes32",
          "name": "r",
          "type": "bytes32"
        },
        {
          "internalType": "bytes32",
          "name": "s",
          "type": "bytes32"
        }
      ],
      "name": "depositWithPermit",
      "outputs": [
        {
          "internalType": "uint256",
          "name": "tokenId",
          "type": "uint256"
        }
      ],
      "stateMutability": "nonpayable",
      "type": "function"
    },
    {
      "inputs": [
        {
          "internalType": "uint256",
          "name": "amount",
          "type": "uint256"
        }
      ],
      "name": "drawdown",
      "outputs": [],
      "stateMutability": "nonpayable",
      "type": "function"
    },
    {
      "inputs": [
        {
          "internalType": "uint256",
          "name": "tranche",
          "type": "uint256"
        }
      ],
      "name": "getTranche",
      "outputs": [
        {
          "components": [
            {
              "internalType": "uint256",
              "name": "id",
              "type": "uint256"
            },
            {
              "internalType": "uint256",
              "name": "principalDeposited",
              "type": "uint256"
            },
            {
              "internalType": "uint256",
              "name": "principalSharePrice",
              "type": "uint256"
            },
            {
              "internalType": "uint256",
              "name": "interestSharePrice",
              "type": "uint256"
            },
            {
              "internalType": "uint256",
              "name": "lockedUntil",
              "type": "uint256"
            }
          ],
          "internalType": "struct ITranchedPool.TrancheInfo",
          "name": "",
          "type": "tuple"
        }
      ],
      "stateMutability": "view",
      "type": "function"
    },
    {
      "inputs": [
        {
          "internalType": "address",
          "name": "_config",
          "type": "address"
        },
        {
          "internalType": "address",
          "name": "_borrower",
          "type": "address"
        },
        {
          "internalType": "uint256",
          "name": "_juniorFeePercent",
          "type": "uint256"
        },
        {
          "internalType": "uint256",
          "name": "_limit",
          "type": "uint256"
        },
        {
          "internalType": "uint256",
          "name": "_interestApr",
          "type": "uint256"
        },
        {
          "internalType": "uint256",
          "name": "_paymentPeriodInDays",
          "type": "uint256"
        },
        {
          "internalType": "uint256",
          "name": "_termInDays",
          "type": "uint256"
        },
        {
          "internalType": "uint256",
          "name": "_lateFeeApr",
          "type": "uint256"
        },
        {
          "internalType": "uint256",
          "name": "_principalGracePeriodInDays",
          "type": "uint256"
        },
        {
          "internalType": "uint256",
          "name": "_fundableAt",
          "type": "uint256"
        },
        {
          "internalType": "uint256[]",
          "name": "_allowedUIDTypes",
          "type": "uint256[]"
        }
      ],
      "name": "initialize",
      "outputs": [],
      "stateMutability": "nonpayable",
      "type": "function"
    },
    {
      "inputs": [
        {
          "internalType": "uint256",
          "name": "_fundableAt",
          "type": "uint256"
        }
      ],
      "name": "initializeNextSlice",
      "outputs": [],
      "stateMutability": "nonpayable",
      "type": "function"
    },
    {
      "inputs": [],
      "name": "lockJuniorCapital",
      "outputs": [],
      "stateMutability": "nonpayable",
      "type": "function"
    },
    {
      "inputs": [],
      "name": "lockPool",
      "outputs": [],
      "stateMutability": "nonpayable",
      "type": "function"
    },
    {
      "inputs": [
        {
          "internalType": "uint256",
          "name": "amount",
          "type": "uint256"
        }
      ],
      "name": "pay",
      "outputs": [],
      "stateMutability": "nonpayable",
      "type": "function"
    },
    {
      "inputs": [
        {
          "internalType": "uint256",
          "name": "timestamp",
          "type": "uint256"
        }
      ],
      "name": "setFundableAt",
      "outputs": [],
      "stateMutability": "nonpayable",
      "type": "function"
    },
    {
      "inputs": [
        {
          "internalType": "address",
          "name": "_poolTokens",
          "type": "address"
        }
      ],
      "name": "setPoolTokens",
      "outputs": [],
      "stateMutability": "nonpayable",
      "type": "function"
    },
    {
      "inputs": [],
      "name": "totalJuniorDeposits",
      "outputs": [
        {
          "internalType": "uint256",
          "name": "",
          "type": "uint256"
        }
      ],
      "stateMutability": "view",
      "type": "function"
    },
    {
      "inputs": [
        {
          "internalType": "uint256",
          "name": "tokenId",
          "type": "uint256"
        },
        {
          "internalType": "uint256",
          "name": "amount",
          "type": "uint256"
        }
      ],
      "name": "withdraw",
      "outputs": [
        {
          "internalType": "uint256",
          "name": "interestWithdrawn",
          "type": "uint256"
        },
        {
          "internalType": "uint256",
          "name": "principalWithdrawn",
          "type": "uint256"
        }
      ],
      "stateMutability": "nonpayable",
      "type": "function"
    },
    {
      "inputs": [
        {
          "internalType": "uint256",
          "name": "tokenId",
          "type": "uint256"
        }
      ],
      "name": "withdrawMax",
      "outputs": [
        {
          "internalType": "uint256",
          "name": "interestWithdrawn",
          "type": "uint256"
        },
        {
          "internalType": "uint256",
          "name": "principalWithdrawn",
          "type": "uint256"
        }
      ],
      "stateMutability": "nonpayable",
      "type": "function"
    },
    {
      "inputs": [
        {
          "internalType": "uint256[]",
          "name": "tokenIds",
          "type": "uint256[]"
        },
        {
          "internalType": "uint256[]",
          "name": "amounts",
          "type": "uint256[]"
        }
      ],
      "name": "withdrawMultiple",
      "outputs": [],
      "stateMutability": "nonpayable",
      "type": "function"
    }
  ],
  "transactionHash": "0x41bc844cddab757640a754f2debc850a83a47f8f521701898b88237726dc3587",
  "args": [
    "0x0000000000000000000000000000000000000000",
    "0x8E7093Ad9720E606bF617FD465e9dCa5b1Ef0Ea7"
  ],
  "numDeployments": 3,
  "solcInputHash": "d07d32007b996b2c1be287970f2d99af",
  "bytecode": "0x608060405234801561001057600080fd5b5060405161097638038061097683398101604081905261002f9161007c565b600280546001600160a01b039384166001600160a01b031991821617909155600380549290931691161790556100af565b80516001600160a01b038116811461007757600080fd5b919050565b6000806040838503121561008f57600080fd5b61009883610060565b91506100a660208401610060565b90509250929050565b6108b8806100be6000396000f3fe608060405234801561001057600080fd5b50600436106101515760003560e01c8063a079a4dd116100cd578063c290d69111610081578063d972e8ad11610066578063d972e8ad14610293578063dd0ec241146102e8578063e2bbb158146102ef57600080fd5b8063c290d69114610233578063cf09e0d01461028a57600080fd5b8063a8deac0e116100b2578063a8deac0e14610258578063aa2a7c4c14610274578063ae6c857a1461023357600080fd5b8063a079a4dd14610233578063a6a25e881461015657600080fd5b80634d02fe6f1161012457806366e6f56c1161010957806366e6f56c146101eb57806378bcd604146102335780639d1105301461024457600080fd5b80634d02fe6f146101b0578063515bc323146101c357600080fd5b80630881806c146101565780634026478e14610156578063441a3e701461015857806347195e1314610185575b600080fd5b005b61016b6101663660046107c1565b610302565b604080519283526020830191909152015b60405180910390f35b600054610198906001600160a01b031681565b6040516001600160a01b03909116815260200161017c565b61016b6101be36600461078f565b61030d565b6101dd6101d13660046107e3565b60009695505050505050565b60405190815260200161017c565b6101566101f9366004610626565b600280547fffffffffffffffffffffffff0000000000000000000000000000000000000000166001600160a01b0392909216919091179055565b61015661024136600461078f565b50565b610156610252366004610701565b50505050565b610156610266366004610648565b505050505050505050505050565b61016b61028236600461078f565b506000908190565b6101dd60015481565b6102a66102a136600461078f565b610331565b60405161017c9190600060a082019050825182526020830151602083015260408301516040830152606083015160608301526080830151608083015292915050565b60006101dd565b6101dd6102fd3660046107c1565b610396565b6000805b9250929050565b60008061031c836103e861083c565b6103288461271061083c565b91509150915091565b6103636040518060a0016040528060008152602001600081526020016000815260200160008152602001600081525090565b6040518060a001604052806000815260200160008152602001600081526020016000815260200160008152509050919050565b6000808211610405576040517f08c379a000000000000000000000000000000000000000000000000000000000815260206004820152601360248201527f4d757374206465706f736974203e207a65726f00000000000000000000000000604482015260640160405180910390fd5b6000604051806040016040528084620186a0610421919061083c565b815260209081018690526002546040517f5be57b6a000000000000000000000000000000000000000000000000000000008152835160048201529183015160248301523360448301529192506001600160a01b0390911690635be57b6a90606401602060405180830381600087803b15801561049c57600080fd5b505af11580156104b0573d6000803e3d6000fd5b505050506040513d601f19601f820116820180604052508101906104d491906107a8565b6003546040517f23b872dd000000000000000000000000000000000000000000000000000000008152336004820152306024820152604481018690529193506001600160a01b0316906323b872dd90606401602060405180830381600087803b15801561054057600080fd5b505af1158015610554573d6000803e3d6000fd5b505050506040513d601f19601f82011682018060405250810190610578919061076d565b508184336001600160a01b03167fcb3ef4109dcd006671348924f00aac8398190a5ff283d6e470d74581513e1036866040516105b691815260200190565b60405180910390a45092915050565b80356001600160a01b03811681146105dc57600080fd5b919050565b60008083601f8401126105f357600080fd5b50813567ffffffffffffffff81111561060b57600080fd5b6020830191508360208260051b850101111561030657600080fd5b60006020828403121561063857600080fd5b610641826105c5565b9392505050565b6000806000806000806000806000806000806101608d8f03121561066b57600080fd5b6106748d6105c5565b9b5061068260208e016105c5565b9a5060408d0135995060608d0135985060808d0135975060a08d0135965060c08d0135955060e08d013594506101008d013593506101208d0135925067ffffffffffffffff6101408e013511156106d857600080fd5b6106e98e6101408f01358f016105e1565b81935080925050509295989b509295989b509295989b565b6000806000806040858703121561071757600080fd5b843567ffffffffffffffff8082111561072f57600080fd5b61073b888389016105e1565b9096509450602087013591508082111561075457600080fd5b50610761878288016105e1565b95989497509550505050565b60006020828403121561077f57600080fd5b8151801515811461064157600080fd5b6000602082840312156107a157600080fd5b5035919050565b6000602082840312156107ba57600080fd5b5051919050565b600080604083850312156107d457600080fd5b50508035926020909101359150565b60008060008060008060c087890312156107fc57600080fd5b863595506020870135945060408701359350606087013560ff8116811461082257600080fd5b9598949750929560808101359460a0909101359350915050565b600081600019048311821515161561087d577f4e487b7100000000000000000000000000000000000000000000000000000000600052601160045260246000fd5b50029056fea2646970667358221220bfd1051bacc96cf85d8b3aa222601f905e745492f22dfd1d155178548fc15e7064736f6c63430008070033",
  "devdoc": {
    "kind": "dev",
    "methods": {
      "availableToWithdraw(uint256)": {
        "params": {
          "tokenId": "The token representing the position"
        },
        "returns": {
          "interestRedeemable": "The interest available to redeem",
          "principalRedeemable": "The principal available to redeem"
        }
      }
    },
    "version": 1
  },
  "userdoc": {
    "kind": "user",
    "methods": {
      "availableToWithdraw(uint256)": {
        "notice": "Determines the amount of interest and principal redeemable by a particular tokenId"
      }
    },
    "version": 1
  },
  "storageLayout": {
    "storage": [
      {
        "astId": 8459,
        "contract": "contracts/goldfinch/protocol/core/TranchedPool.sol:TranchedPool",
        "label": "creditLine",
        "offset": 0,
        "slot": "0",
        "type": "t_contract(IV2CreditLine)8763"
      },
      {
        "astId": 8461,
        "contract": "contracts/goldfinch/protocol/core/TranchedPool.sol:TranchedPool",
        "label": "createdAt",
        "offset": 0,
        "slot": "1",
        "type": "t_uint256"
      },
      {
        "astId": 9339,
        "contract": "contracts/goldfinch/protocol/core/TranchedPool.sol:TranchedPool",
        "label": "poolToken",
        "offset": 0,
        "slot": "2",
        "type": "t_contract(IPoolTokens)8356"
      },
      {
        "astId": 9342,
        "contract": "contracts/goldfinch/protocol/core/TranchedPool.sol:TranchedPool",
        "label": "usdcCoin",
        "offset": 0,
        "slot": "3",
        "type": "t_contract(IERC20)3038"
      }
    ],
    "types": {
      "t_contract(IERC20)3038": {
        "encoding": "inplace",
        "label": "contract IERC20",
        "numberOfBytes": "20"
      },
      "t_contract(IPoolTokens)8356": {
        "encoding": "inplace",
        "label": "contract IPoolTokens",
        "numberOfBytes": "20"
      },
      "t_contract(IV2CreditLine)8763": {
        "encoding": "inplace",
        "label": "contract IV2CreditLine",
        "numberOfBytes": "20"
      },
      "t_uint256": {
        "encoding": "inplace",
        "label": "uint256",
        "numberOfBytes": "32"
      }
    }
  }
}