{
  "address": "0xeF0dBA7A92e134ecD810C16ACdF1d7d9F1B48a16",
  "abi": [
    {
      "inputs": [
        {
          "internalType": "address",
          "name": "_poolTokenAddress",
          "type": "address"
        },
        {
          "internalType": "address",
          "name": "_usdcCoinAddress",
          "type": "address"
        }
      ],
      "stateMutability": "nonpayable",
      "type": "constructor"
    },
    {
      "anonymous": false,
      "inputs": [
        {
          "indexed": true,
          "internalType": "address",
          "name": "owner",
          "type": "address"
        },
        {
          "indexed": true,
          "internalType": "uint256",
          "name": "tranche",
          "type": "uint256"
        },
        {
          "indexed": true,
          "internalType": "uint256",
          "name": "tokenId",
          "type": "uint256"
        },
        {
          "indexed": false,
          "internalType": "uint256",
          "name": "amount",
          "type": "uint256"
        }
      ],
      "name": "DepositMade",
      "type": "event"
    },
    {
      "inputs": [],
      "name": "assess",
      "outputs": [],
      "stateMutability": "nonpayable",
      "type": "function"
    },
    {
      "inputs": [
        {
          "internalType": "uint256",
          "name": "tokenId",
          "type": "uint256"
        }
      ],
      "name": "availableToWithdraw",
      "outputs": [
        {
          "internalType": "uint256",
          "name": "interestRedeemable",
          "type": "uint256"
        },
        {
          "internalType": "uint256",
          "name": "principalRedeemable",
          "type": "uint256"
        }
      ],
      "stateMutability": "view",
      "type": "function"
    },
    {
      "inputs": [],
      "name": "createdAt",
      "outputs": [
        {
          "internalType": "uint256",
          "name": "",
          "type": "uint256"
        }
      ],
      "stateMutability": "view",
      "type": "function"
    },
    {
      "inputs": [],
      "name": "creditLine",
      "outputs": [
        {
          "internalType": "contract IV2CreditLine",
          "name": "",
          "type": "address"
        }
      ],
      "stateMutability": "view",
      "type": "function"
    },
    {
      "inputs": [
        {
          "internalType": "uint256",
          "name": "tranche",
          "type": "uint256"
        },
        {
          "internalType": "uint256",
          "name": "amount",
          "type": "uint256"
        }
      ],
      "name": "deposit",
      "outputs": [
        {
          "internalType": "uint256",
          "name": "tokenId",
          "type": "uint256"
        }
      ],
      "stateMutability": "nonpayable",
      "type": "function"
    },
    {
      "inputs": [
        {
          "internalType": "uint256",
          "name": "tranche",
          "type": "uint256"
        },
        {
          "internalType": "uint256",
          "name": "amount",
          "type": "uint256"
        },
        {
          "internalType": "uint256",
          "name": "deadline",
          "type": "uint256"
        },
        {
          "internalType": "uint8",
          "name": "v",
          "type": "uint8"
        },
        {
          "internalType": "bytes32",
          "name": "r",
          "type": "bytes32"
        },
        {
          "internalType": "bytes32",
          "name": "s",
          "type": "bytes32"
        }
      ],
      "name": "depositWithPermit",
      "outputs": [
        {
          "internalType": "uint256",
          "name": "tokenId",
          "type": "uint256"
        }
      ],
      "stateMutability": "nonpayable",
      "type": "function"
    },
    {
      "inputs": [
        {
          "internalType": "uint256",
          "name": "amount",
          "type": "uint256"
        }
      ],
      "name": "drawdown",
      "outputs": [],
      "stateMutability": "nonpayable",
      "type": "function"
    },
    {
      "inputs": [
        {
          "internalType": "uint256",
          "name": "tranche",
          "type": "uint256"
        }
      ],
      "name": "getTranche",
      "outputs": [
        {
          "components": [
            {
              "internalType": "uint256",
              "name": "id",
              "type": "uint256"
            },
            {
              "internalType": "uint256",
              "name": "principalDeposited",
              "type": "uint256"
            },
            {
              "internalType": "uint256",
              "name": "principalSharePrice",
              "type": "uint256"
            },
            {
              "internalType": "uint256",
              "name": "interestSharePrice",
              "type": "uint256"
            },
            {
              "internalType": "uint256",
              "name": "lockedUntil",
              "type": "uint256"
            }
          ],
          "internalType": "struct ITranchedPool.TrancheInfo",
          "name": "",
          "type": "tuple"
        }
      ],
      "stateMutability": "view",
      "type": "function"
    },
    {
      "inputs": [
        {
          "internalType": "address",
          "name": "_config",
          "type": "address"
        },
        {
          "internalType": "address",
          "name": "_borrower",
          "type": "address"
        },
        {
          "internalType": "uint256",
          "name": "_juniorFeePercent",
          "type": "uint256"
        },
        {
          "internalType": "uint256",
          "name": "_limit",
          "type": "uint256"
        },
        {
          "internalType": "uint256",
          "name": "_interestApr",
          "type": "uint256"
        },
        {
          "internalType": "uint256",
          "name": "_paymentPeriodInDays",
          "type": "uint256"
        },
        {
          "internalType": "uint256",
          "name": "_termInDays",
          "type": "uint256"
        },
        {
          "internalType": "uint256",
          "name": "_lateFeeApr",
          "type": "uint256"
        },
        {
          "internalType": "uint256",
          "name": "_principalGracePeriodInDays",
          "type": "uint256"
        },
        {
          "internalType": "uint256",
          "name": "_fundableAt",
          "type": "uint256"
        },
        {
          "internalType": "uint256[]",
          "name": "_allowedUIDTypes",
          "type": "uint256[]"
        }
      ],
      "name": "initialize",
      "outputs": [],
      "stateMutability": "nonpayable",
      "type": "function"
    },
    {
      "inputs": [
        {
          "internalType": "uint256",
          "name": "_fundableAt",
          "type": "uint256"
        }
      ],
      "name": "initializeNextSlice",
      "outputs": [],
      "stateMutability": "nonpayable",
      "type": "function"
    },
    {
      "inputs": [],
      "name": "lockJuniorCapital",
      "outputs": [],
      "stateMutability": "nonpayable",
      "type": "function"
    },
    {
      "inputs": [],
      "name": "lockPool",
      "outputs": [],
      "stateMutability": "nonpayable",
      "type": "function"
    },
    {
      "inputs": [
        {
          "internalType": "uint256",
          "name": "amount",
          "type": "uint256"
        }
      ],
      "name": "pay",
      "outputs": [],
      "stateMutability": "nonpayable",
      "type": "function"
    },
    {
      "inputs": [
        {
          "internalType": "uint256",
          "name": "timestamp",
          "type": "uint256"
        }
      ],
      "name": "setFundableAt",
      "outputs": [],
      "stateMutability": "nonpayable",
      "type": "function"
    },
    {
      "inputs": [
        {
          "internalType": "address",
          "name": "_poolTokens",
          "type": "address"
        }
      ],
      "name": "setPoolTokens",
      "outputs": [],
      "stateMutability": "nonpayable",
      "type": "function"
    },
    {
      "inputs": [],
      "name": "totalJuniorDeposits",
      "outputs": [
        {
          "internalType": "uint256",
          "name": "",
          "type": "uint256"
        }
      ],
      "stateMutability": "view",
      "type": "function"
    },
    {
      "inputs": [
        {
          "internalType": "uint256",
          "name": "tokenId",
          "type": "uint256"
        },
        {
          "internalType": "uint256",
          "name": "amount",
          "type": "uint256"
        }
      ],
      "name": "withdraw",
      "outputs": [
        {
          "internalType": "uint256",
          "name": "interestWithdrawn",
          "type": "uint256"
        },
        {
          "internalType": "uint256",
          "name": "principalWithdrawn",
          "type": "uint256"
        }
      ],
      "stateMutability": "nonpayable",
      "type": "function"
    },
    {
      "inputs": [
        {
          "internalType": "uint256",
          "name": "tokenId",
          "type": "uint256"
        }
      ],
      "name": "withdrawMax",
      "outputs": [
        {
          "internalType": "uint256",
          "name": "interestWithdrawn",
          "type": "uint256"
        },
        {
          "internalType": "uint256",
          "name": "principalWithdrawn",
          "type": "uint256"
        }
      ],
      "stateMutability": "nonpayable",
      "type": "function"
    },
    {
      "inputs": [
        {
          "internalType": "uint256[]",
          "name": "tokenIds",
          "type": "uint256[]"
        },
        {
          "internalType": "uint256[]",
          "name": "amounts",
          "type": "uint256[]"
        }
      ],
      "name": "withdrawMultiple",
      "outputs": [],
      "stateMutability": "nonpayable",
      "type": "function"
    }
  ],
  "transactionHash": "0x7cf55df927f2a76de40bb832d46643c2a2d0f370f10a7f2a457cd2f8ba10f77e",
  "args": [
    "0x0000000000000000000000000000000000000000",
    "0x1CFDF560D2A79AA845496881292ef75fef6F81b9"
  ],
  "numDeployments": 1,
  "solcInputHash": "545c5eeecc90f7daca69c734fa7c998f",
  "bytecode": "0x608060405234801561001057600080fd5b506040516109b83803806109b883398101604081905261002f9161007c565b600280546001600160a01b039384166001600160a01b031991821617909155600380549290931691161790556100af565b80516001600160a01b038116811461007757600080fd5b919050565b6000806040838503121561008f57600080fd5b61009883610060565b91506100a660208401610060565b90509250929050565b6108fa806100be6000396000f3fe608060405234801561001057600080fd5b50600436106100f15760003560e01c80630881806c146100f65780634026478e146100f6578063441a3e70146100f857806347195e13146101255780634d02fe6f14610150578063515bc3231461016357806366e6f56c1461018b57806378bcd604146101bb5780639d110530146101cc578063a079a4dd146101bb578063a6a25e88146100f6578063a8deac0e146101e0578063aa2a7c4c146101fc578063ae6c857a146101bb578063c290d691146101bb578063cf09e0d014610212578063d972e8ad1461021b578063dd0ec24114610270578063e2bbb15814610277575b600080fd5b005b61010b610106366004610803565b61028a565b604080519283526020830191909152015b60405180910390f35b600054610138906001600160a01b031681565b6040516001600160a01b03909116815260200161011c565b61010b61015e3660046107d1565b610323565b61017d610171366004610825565b60009695505050505050565b60405190815260200161011c565b6100f661019936600461066a565b600280546001600160a01b0319166001600160a01b0392909216919091179055565b6100f66101c93660046107d1565b50565b6100f66101da366004610744565b50505050565b6100f66101ee36600461068c565b505050505050505050505050565b61010b61020a3660046107d1565b506000908190565b61017d60015481565b61022e6102293660046107d1565b610347565b60405161011c9190600060a082019050825182526020830151602083015260408301516040830152606083015160608301526080830151608083015292915050565b600061017d565b61017d610285366004610803565b6103ac565b60035460405163a9059cbb60e01b815260009182916001600160a01b039091169063a9059cbb906102c1903390879060040161087e565b602060405180830381600087803b1580156102db57600080fd5b505af11580156102ef573d6000803e3d6000fd5b505050506040513d601f19601f8201168201806040525081019061031391906107af565b50826000915091505b9250929050565b600080610332836103e8610897565b61033e84612710610897565b91509150915091565b6103796040518060a0016040528060008152602001600081526020016000815260200160008152602001600081525090565b6040518060a001604052806000815260200160008152602001600081526020016000815260200160008152509050919050565b60008082116103f75760405162461bcd60e51b81526020600482015260136024820152724d757374206465706f736974203e207a65726f60681b604482015260640160405180910390fd5b6000604051806040016040528084620186a06104139190610897565b81526020908101869052600254604051632df2bdb560e11b8152835160048201529183015160248301523360448301529192506001600160a01b0390911690635be57b6a90606401602060405180830381600087803b15801561047557600080fd5b505af1158015610489573d6000803e3d6000fd5b505050506040513d601f19601f820116820180604052508101906104ad91906107ea565b6003546040516323b872dd60e01b8152336004820152306024820152604481018690529193506001600160a01b0316906323b872dd90606401602060405180830381600087803b15801561050057600080fd5b505af1158015610514573d6000803e3d6000fd5b505050506040513d601f19601f8201168201806040525081019061053891906107af565b5060035460405163095ea7b360e01b81526001600160a01b039091169063095ea7b39061056b903090879060040161087e565b602060405180830381600087803b15801561058557600080fd5b505af1158015610599573d6000803e3d6000fd5b505050506040513d601f19601f820116820180604052508101906105bd91906107af565b508184336001600160a01b03167fcb3ef4109dcd006671348924f00aac8398190a5ff283d6e470d74581513e1036866040516105fb91815260200190565b60405180910390a45092915050565b80356001600160a01b038116811461062157600080fd5b919050565b60008083601f84011261063857600080fd5b5081356001600160401b0381111561064f57600080fd5b6020830191508360208260051b850101111561031c57600080fd5b60006020828403121561067c57600080fd5b6106858261060a565b9392505050565b6000806000806000806000806000806000806101608d8f0312156106af57600080fd5b6106b88d61060a565b9b506106c660208e0161060a565b9a5060408d0135995060608d0135985060808d0135975060a08d0135965060c08d0135955060e08d013594506101008d013593506101208d013592506001600160401b036101408e0135111561071b57600080fd5b61072c8e6101408f01358f01610626565b81935080925050509295989b509295989b509295989b565b6000806000806040858703121561075a57600080fd5b84356001600160401b038082111561077157600080fd5b61077d88838901610626565b9096509450602087013591508082111561079657600080fd5b506107a387828801610626565b95989497509550505050565b6000602082840312156107c157600080fd5b8151801515811461068557600080fd5b6000602082840312156107e357600080fd5b5035919050565b6000602082840312156107fc57600080fd5b5051919050565b6000806040838503121561081657600080fd5b50508035926020909101359150565b60008060008060008060c0878903121561083e57600080fd5b863595506020870135945060408701359350606087013560ff8116811461086457600080fd5b9598949750929560808101359460a0909101359350915050565b6001600160a01b03929092168252602082015260400190565b60008160001904831182151516156108bf57634e487b7160e01b600052601160045260246000fd5b50029056fea264697066735822122047f259b8d56b344dc4ebdb39b0784100a8ba2503ab15f11eafea839f1d248d9e64736f6c63430008070033",
  "devdoc": {
    "kind": "dev",
    "methods": {
      "availableToWithdraw(uint256)": {
        "params": {
          "tokenId": "The token representing the position"
        },
        "returns": {
          "interestRedeemable": "The interest available to redeem",
          "principalRedeemable": "The principal available to redeem"
        }
      }
    },
    "version": 1
  },
  "userdoc": {
    "kind": "user",
    "methods": {
      "availableToWithdraw(uint256)": {
        "notice": "Determines the amount of interest and principal redeemable by a particular tokenId"
      }
    },
    "version": 1
  },
  "storageLayout": {
    "storage": [
      {
        "astId": 13116,
        "contract": "contracts/goldfinch/protocol/core/TranchedPool.sol:TranchedPool",
        "label": "creditLine",
        "offset": 0,
        "slot": "0",
        "type": "t_contract(IV2CreditLine)13420"
      },
      {
        "astId": 13118,
        "contract": "contracts/goldfinch/protocol/core/TranchedPool.sol:TranchedPool",
        "label": "createdAt",
        "offset": 0,
        "slot": "1",
        "type": "t_uint256"
      },
      {
        "astId": 14110,
        "contract": "contracts/goldfinch/protocol/core/TranchedPool.sol:TranchedPool",
        "label": "poolToken",
        "offset": 0,
        "slot": "2",
        "type": "t_contract(IPoolTokens)13013"
      },
      {
        "astId": 14113,
        "contract": "contracts/goldfinch/protocol/core/TranchedPool.sol:TranchedPool",
        "label": "usdcCoin",
        "offset": 0,
        "slot": "3",
        "type": "t_contract(IERC20)4271"
      }
    ],
    "types": {
      "t_contract(IERC20)4271": {
        "encoding": "inplace",
        "label": "contract IERC20",
        "numberOfBytes": "20"
      },
      "t_contract(IPoolTokens)13013": {
        "encoding": "inplace",
        "label": "contract IPoolTokens",
        "numberOfBytes": "20"
      },
      "t_contract(IV2CreditLine)13420": {
        "encoding": "inplace",
        "label": "contract IV2CreditLine",
        "numberOfBytes": "20"
      },
      "t_uint256": {
        "encoding": "inplace",
        "label": "uint256",
        "numberOfBytes": "32"
      }
    }
  }
}