{
  "address": "0x4e646535b25f93863E93D38673972FEa2CC3e643",
  "abi": [
    {
      "inputs": [],
      "stateMutability": "nonpayable",
      "type": "constructor"
    },
    {
      "anonymous": false,
      "inputs": [
        {
          "indexed": true,
          "internalType": "address",
          "name": "account",
          "type": "address"
        },
        {
          "indexed": true,
          "internalType": "address",
          "name": "operator",
          "type": "address"
        },
        {
          "indexed": false,
          "internalType": "bool",
          "name": "approved",
          "type": "bool"
        }
      ],
      "name": "ApprovalForAll",
      "type": "event"
    },
    {
      "anonymous": false,
      "inputs": [
        {
          "indexed": true,
          "internalType": "address",
          "name": "previousOwner",
          "type": "address"
        },
        {
          "indexed": true,
          "internalType": "address",
          "name": "newOwner",
          "type": "address"
        }
      ],
      "name": "OwnershipTransferred",
      "type": "event"
    },
    {
      "anonymous": false,
      "inputs": [
        {
          "indexed": true,
          "internalType": "address",
          "name": "operator",
          "type": "address"
        },
        {
          "indexed": true,
          "internalType": "address",
          "name": "from",
          "type": "address"
        },
        {
          "indexed": true,
          "internalType": "address",
          "name": "to",
          "type": "address"
        },
        {
          "indexed": false,
          "internalType": "uint256[]",
          "name": "ids",
          "type": "uint256[]"
        },
        {
          "indexed": false,
          "internalType": "uint256[]",
          "name": "values",
          "type": "uint256[]"
        }
      ],
      "name": "TransferBatch",
      "type": "event"
    },
    {
      "anonymous": false,
      "inputs": [
        {
          "indexed": true,
          "internalType": "address",
          "name": "operator",
          "type": "address"
        },
        {
          "indexed": true,
          "internalType": "address",
          "name": "from",
          "type": "address"
        },
        {
          "indexed": true,
          "internalType": "address",
          "name": "to",
          "type": "address"
        },
        {
          "indexed": false,
          "internalType": "uint256",
          "name": "id",
          "type": "uint256"
        },
        {
          "indexed": false,
          "internalType": "uint256",
          "name": "value",
          "type": "uint256"
        }
      ],
      "name": "TransferSingle",
      "type": "event"
    },
    {
      "anonymous": false,
      "inputs": [
        {
          "indexed": false,
          "internalType": "string",
          "name": "value",
          "type": "string"
        },
        {
          "indexed": true,
          "internalType": "uint256",
          "name": "id",
          "type": "uint256"
        }
      ],
      "name": "URI",
      "type": "event"
    },
    {
      "inputs": [
        {
          "internalType": "address",
          "name": "account",
          "type": "address"
        },
        {
          "internalType": "uint256",
          "name": "id",
          "type": "uint256"
        }
      ],
      "name": "balanceOf",
      "outputs": [
        {
          "internalType": "uint256",
          "name": "",
          "type": "uint256"
        }
      ],
      "stateMutability": "view",
      "type": "function"
    },
    {
      "inputs": [
        {
          "internalType": "address[]",
          "name": "accounts",
          "type": "address[]"
        },
        {
          "internalType": "uint256[]",
          "name": "ids",
          "type": "uint256[]"
        }
      ],
      "name": "balanceOfBatch",
      "outputs": [
        {
          "internalType": "uint256[]",
          "name": "",
          "type": "uint256[]"
        }
      ],
      "stateMutability": "view",
      "type": "function"
    },
    {
      "inputs": [
        {
          "internalType": "address",
          "name": "account",
          "type": "address"
        },
        {
          "internalType": "address",
          "name": "operator",
          "type": "address"
        }
      ],
      "name": "isApprovedForAll",
      "outputs": [
        {
          "internalType": "bool",
          "name": "",
          "type": "bool"
        }
      ],
      "stateMutability": "view",
      "type": "function"
    },
    {
      "inputs": [],
      "name": "owner",
      "outputs": [
        {
          "internalType": "address",
          "name": "",
          "type": "address"
        }
      ],
      "stateMutability": "view",
      "type": "function"
    },
    {
      "inputs": [],
      "name": "renounceOwnership",
      "outputs": [],
      "stateMutability": "nonpayable",
      "type": "function"
    },
    {
      "inputs": [
        {
          "internalType": "address",
          "name": "from",
          "type": "address"
        },
        {
          "internalType": "address",
          "name": "to",
          "type": "address"
        },
        {
          "internalType": "uint256[]",
          "name": "ids",
          "type": "uint256[]"
        },
        {
          "internalType": "uint256[]",
          "name": "amounts",
          "type": "uint256[]"
        },
        {
          "internalType": "bytes",
          "name": "data",
          "type": "bytes"
        }
      ],
      "name": "safeBatchTransferFrom",
      "outputs": [],
      "stateMutability": "nonpayable",
      "type": "function"
    },
    {
      "inputs": [
        {
          "internalType": "address",
          "name": "from",
          "type": "address"
        },
        {
          "internalType": "address",
          "name": "to",
          "type": "address"
        },
        {
          "internalType": "uint256",
          "name": "id",
          "type": "uint256"
        },
        {
          "internalType": "uint256",
          "name": "amount",
          "type": "uint256"
        },
        {
          "internalType": "bytes",
          "name": "data",
          "type": "bytes"
        }
      ],
      "name": "safeTransferFrom",
      "outputs": [],
      "stateMutability": "nonpayable",
      "type": "function"
    },
    {
      "inputs": [
        {
          "internalType": "address",
          "name": "operator",
          "type": "address"
        },
        {
          "internalType": "bool",
          "name": "approved",
          "type": "bool"
        }
      ],
      "name": "setApprovalForAll",
      "outputs": [],
      "stateMutability": "nonpayable",
      "type": "function"
    },
    {
      "inputs": [
        {
          "internalType": "bytes4",
          "name": "interfaceId",
          "type": "bytes4"
        }
      ],
      "name": "supportsInterface",
      "outputs": [
        {
          "internalType": "bool",
          "name": "",
          "type": "bool"
        }
      ],
      "stateMutability": "view",
      "type": "function"
    },
    {
      "inputs": [
        {
          "internalType": "address",
          "name": "newOwner",
          "type": "address"
        }
      ],
      "name": "transferOwnership",
      "outputs": [],
      "stateMutability": "nonpayable",
      "type": "function"
    },
    {
      "inputs": [
        {
          "internalType": "uint256",
          "name": "",
          "type": "uint256"
        }
      ],
      "name": "uri",
      "outputs": [
        {
          "internalType": "string",
          "name": "",
          "type": "string"
        }
      ],
      "stateMutability": "view",
      "type": "function"
    }
  ],
  "transactionHash": "0x05fb92f9c893a3e709868e8e79723cd41e1bbc9cb128e8fe9fd4c0ab149ba3b2",
  "args": [],
  "numDeployments": 1,
  "solcInputHash": "08a92db6992249edcf68c87dc376958b",
  "bytecode": "0x60806040523480156200001157600080fd5b5060408051808201909152600381526215525160ea1b6020820152620000378162000049565b50620000433362000062565b62000197565b80516200005e906002906020840190620000b4565b5050565b600380546001600160a01b038381166001600160a01b0319831681179093556040519116919082907f8be0079c531659141344cd1fd0a4f28419497f9722a3daafe3b4186f6b6457e090600090a35050565b828054620000c2906200015a565b90600052602060002090601f016020900481019282620000e6576000855562000131565b82601f106200010157805160ff191683800117855562000131565b8280016001018555821562000131579182015b828111156200013157825182559160200191906001019062000114565b506200013f92915062000143565b5090565b5b808211156200013f576000815560010162000144565b600181811c908216806200016f57607f821691505b602082108114156200019157634e487b7160e01b600052602260045260246000fd5b50919050565b61179880620001a76000396000f3fe608060405234801561001057600080fd5b50600436106100c85760003560e01c8063715018a611610081578063e985e9c51161005b578063e985e9c5146101a1578063f242432a146101dd578063f2fde38b146101f057600080fd5b8063715018a61461016b5780638da5cb5b14610173578063a22cb4651461018e57600080fd5b80630e89341c116100b25780630e89341c146101165780632eb2c2d6146101365780634e1273f41461014b57600080fd5b8062fdd58e146100cd57806301ffc9a7146100f3575b600080fd5b6100e06100db3660046112da565b610203565b6040519081526020015b60405180910390f35b6101066101013660046113d5565b6102ac565b60405190151581526020016100ea565b61012961012436600461140f565b610349565b6040516100ea9190611592565b61014961014436600461118f565b6103dd565b005b61015e610159366004611304565b61047f565b6040516100ea9190611551565b6101496105bd565b6003546040516001600160a01b0390911681526020016100ea565b61014961019c36600461129e565b610623565b6101066101af36600461115c565b6001600160a01b03918216600090815260016020908152604080832093909416825291909152205460ff1690565b6101496101eb366004611239565b610632565b6101496101fe36600461113a565b6106cd565b60006001600160a01b0383166102865760405162461bcd60e51b815260206004820152602b60248201527f455243313135353a2062616c616e636520717565727920666f7220746865207a60448201527f65726f206164647265737300000000000000000000000000000000000000000060648201526084015b60405180910390fd5b506000908152602081815260408083206001600160a01b03949094168352929052205490565b60006001600160e01b031982167fd9b67a2600000000000000000000000000000000000000000000000000000000148061030f57506001600160e01b031982167f0e89341c00000000000000000000000000000000000000000000000000000000145b8061034357507f01ffc9a7000000000000000000000000000000000000000000000000000000006001600160e01b03198316145b92915050565b606060028054610358906115e1565b80601f0160208091040260200160405190810160405280929190818152602001828054610384906115e1565b80156103d15780601f106103a6576101008083540402835291602001916103d1565b820191906000526020600020905b8154815290600101906020018083116103b457829003601f168201915b50505050509050919050565b6001600160a01b0385163314806103f957506103f985336101af565b61046b5760405162461bcd60e51b815260206004820152603260248201527f455243313135353a207472616e736665722063616c6c6572206973206e6f742060448201527f6f776e6572206e6f7220617070726f7665640000000000000000000000000000606482015260840161027d565b61047885858585856107af565b5050505050565b606081518351146104f85760405162461bcd60e51b815260206004820152602960248201527f455243313135353a206163636f756e747320616e6420696473206c656e67746860448201527f206d69736d617463680000000000000000000000000000000000000000000000606482015260840161027d565b6000835167ffffffffffffffff81111561051457610514611690565b60405190808252806020026020018201604052801561053d578160200160208202803683370190505b50905060005b84518110156105b5576105888582815181106105615761056161167a565b602002602001015185838151811061057b5761057b61167a565b6020026020010151610203565b82828151811061059a5761059a61167a565b60209081029190910101526105ae81611649565b9050610543565b509392505050565b6003546001600160a01b031633146106175760405162461bcd60e51b815260206004820181905260248201527f4f776e61626c653a2063616c6c6572206973206e6f7420746865206f776e6572604482015260640161027d565b6106216000610a22565b565b61062e338383610a8c565b5050565b6001600160a01b03851633148061064e575061064e85336101af565b6106c05760405162461bcd60e51b815260206004820152602960248201527f455243313135353a2063616c6c6572206973206e6f74206f776e6572206e6f7260448201527f20617070726f7665640000000000000000000000000000000000000000000000606482015260840161027d565b6104788585858585610b81565b6003546001600160a01b031633146107275760405162461bcd60e51b815260206004820181905260248201527f4f776e61626c653a2063616c6c6572206973206e6f7420746865206f776e6572604482015260640161027d565b6001600160a01b0381166107a35760405162461bcd60e51b815260206004820152602660248201527f4f776e61626c653a206e6577206f776e657220697320746865207a65726f206160448201527f6464726573730000000000000000000000000000000000000000000000000000606482015260840161027d565b6107ac81610a22565b50565b81518351146108265760405162461bcd60e51b815260206004820152602860248201527f455243313135353a2069647320616e6420616d6f756e7473206c656e6774682060448201527f6d69736d61746368000000000000000000000000000000000000000000000000606482015260840161027d565b6001600160a01b03841661088a5760405162461bcd60e51b815260206004820152602560248201527f455243313135353a207472616e7366657220746f20746865207a65726f206164604482015264647265737360d81b606482015260840161027d565b3360005b84518110156109b45760008582815181106108ab576108ab61167a565b6020026020010151905060008583815181106108c9576108c961167a565b602090810291909101810151600084815280835260408082206001600160a01b038e16835290935291909120549091508181101561095c5760405162461bcd60e51b815260206004820152602a60248201527f455243313135353a20696e73756666696369656e742062616c616e636520666f60448201526939103a3930b739b332b960b11b606482015260840161027d565b6000838152602081815260408083206001600160a01b038e8116855292528083208585039055908b168252812080548492906109999084906115c9565b92505081905550505050806109ad90611649565b905061088e565b50846001600160a01b0316866001600160a01b0316826001600160a01b03167f4a39dc06d4c0dbc64b70af90fd698a233a518aa5d07e595d983b8c0526c8f7fb8787604051610a04929190611564565b60405180910390a4610a1a818787878787610d28565b505050505050565b600380546001600160a01b038381167fffffffffffffffffffffffff0000000000000000000000000000000000000000831681179093556040519116919082907f8be0079c531659141344cd1fd0a4f28419497f9722a3daafe3b4186f6b6457e090600090a35050565b816001600160a01b0316836001600160a01b03161415610b145760405162461bcd60e51b815260206004820152602960248201527f455243313135353a2073657474696e6720617070726f76616c2073746174757360448201527f20666f722073656c660000000000000000000000000000000000000000000000606482015260840161027d565b6001600160a01b03838116600081815260016020908152604080832094871680845294825291829020805460ff191686151590811790915591519182527f17307eab39ab6107e8899845ad3d59bd9653f200f220920489ca2b5937696c31910160405180910390a3505050565b6001600160a01b038416610be55760405162461bcd60e51b815260206004820152602560248201527f455243313135353a207472616e7366657220746f20746865207a65726f206164604482015264647265737360d81b606482015260840161027d565b33610bfe818787610bf588610edd565b61047888610edd565b6000848152602081815260408083206001600160a01b038a16845290915290205483811015610c825760405162461bcd60e51b815260206004820152602a60248201527f455243313135353a20696e73756666696369656e742062616c616e636520666f60448201526939103a3930b739b332b960b11b606482015260840161027d565b6000858152602081815260408083206001600160a01b038b8116855292528083208785039055908816825281208054869290610cbf9084906115c9565b909155505060408051868152602081018690526001600160a01b03808916928a821692918616917fc3d58168c5ae7397731d063d5bbf3d657854427343f4c083240f7aacaa2d0f62910160405180910390a4610d1f828888888888610f28565b50505050505050565b6001600160a01b0384163b15610a1a5760405163bc197c8160e01b81526001600160a01b0385169063bc197c8190610d6c90899089908890889088906004016114b0565b602060405180830381600087803b158015610d8657600080fd5b505af1925050508015610db6575060408051601f3d908101601f19168201909252610db3918101906113f2565b60015b610e6c57610dc26116a6565b806308c379a01415610dfc5750610dd76116c2565b80610de25750610dfe565b8060405162461bcd60e51b815260040161027d9190611592565b505b60405162461bcd60e51b815260206004820152603460248201527f455243313135353a207472616e7366657220746f206e6f6e204552433131353560448201527f526563656976657220696d706c656d656e746572000000000000000000000000606482015260840161027d565b6001600160e01b0319811663bc197c8160e01b14610d1f5760405162461bcd60e51b815260206004820152602860248201527f455243313135353a204552433131353552656365697665722072656a656374656044820152676420746f6b656e7360c01b606482015260840161027d565b60408051600180825281830190925260609160009190602080830190803683370190505090508281600081518110610f1757610f1761167a565b602090810291909101015292915050565b6001600160a01b0384163b15610a1a5760405163f23a6e6160e01b81526001600160a01b0385169063f23a6e6190610f6c908990899088908890889060040161150e565b602060405180830381600087803b158015610f8657600080fd5b505af1925050508015610fb6575060408051601f3d908101601f19168201909252610fb3918101906113f2565b60015b610fc257610dc26116a6565b6001600160e01b0319811663f23a6e6160e01b14610d1f5760405162461bcd60e51b815260206004820152602860248201527f455243313135353a204552433131353552656365697665722072656a656374656044820152676420746f6b656e7360c01b606482015260840161027d565b80356001600160a01b038116811461104a57600080fd5b919050565b600082601f83011261106057600080fd5b8135602061106d826115a5565b60405161107a828261161c565b8381528281019150858301600585901b8701840188101561109a57600080fd5b60005b858110156110b95781358452928401929084019060010161109d565b5090979650505050505050565b600082601f8301126110d757600080fd5b813567ffffffffffffffff8111156110f1576110f1611690565b604051611108601f8301601f19166020018261161c565b81815284602083860101111561111d57600080fd5b816020850160208301376000918101602001919091529392505050565b60006020828403121561114c57600080fd5b61115582611033565b9392505050565b6000806040838503121561116f57600080fd5b61117883611033565b915061118660208401611033565b90509250929050565b600080600080600060a086880312156111a757600080fd5b6111b086611033565b94506111be60208701611033565b9350604086013567ffffffffffffffff808211156111db57600080fd5b6111e789838a0161104f565b945060608801359150808211156111fd57600080fd5b61120989838a0161104f565b9350608088013591508082111561121f57600080fd5b5061122c888289016110c6565b9150509295509295909350565b600080600080600060a0868803121561125157600080fd5b61125a86611033565b945061126860208701611033565b93506040860135925060608601359150608086013567ffffffffffffffff81111561129257600080fd5b61122c888289016110c6565b600080604083850312156112b157600080fd5b6112ba83611033565b9150602083013580151581146112cf57600080fd5b809150509250929050565b600080604083850312156112ed57600080fd5b6112f683611033565b946020939093013593505050565b6000806040838503121561131757600080fd5b823567ffffffffffffffff8082111561132f57600080fd5b818501915085601f83011261134357600080fd5b81356020611350826115a5565b60405161135d828261161c565b8381528281019150858301600585901b870184018b101561137d57600080fd5b600096505b848710156113a75761139381611033565b835260019690960195918301918301611382565b50965050860135925050808211156113be57600080fd5b506113cb8582860161104f565b9150509250929050565b6000602082840312156113e757600080fd5b81356111558161174c565b60006020828403121561140457600080fd5b81516111558161174c565b60006020828403121561142157600080fd5b5035919050565b600081518084526020808501945080840160005b838110156114585781518752958201959082019060010161143c565b509495945050505050565b6000815180845260005b818110156114895760208185018101518683018201520161146d565b8181111561149b576000602083870101525b50601f01601f19169290920160200192915050565b60006001600160a01b03808816835280871660208401525060a060408301526114dc60a0830186611428565b82810360608401526114ee8186611428565b905082810360808401526115028185611463565b98975050505050505050565b60006001600160a01b03808816835280871660208401525084604083015283606083015260a0608083015261154660a0830184611463565b979650505050505050565b6020815260006111556020830184611428565b6040815260006115776040830185611428565b82810360208401526115898185611428565b95945050505050565b6020815260006111556020830184611463565b600067ffffffffffffffff8211156115bf576115bf611690565b5060051b60200190565b600082198211156115dc576115dc611664565b500190565b600181811c908216806115f557607f821691505b6020821081141561161657634e487b7160e01b600052602260045260246000fd5b50919050565b601f8201601f1916810167ffffffffffffffff8111828210171561164257611642611690565b6040525050565b600060001982141561165d5761165d611664565b5060010190565b634e487b7160e01b600052601160045260246000fd5b634e487b7160e01b600052603260045260246000fd5b634e487b7160e01b600052604160045260246000fd5b600060033d11156116bf5760046000803e5060005160e01c5b90565b600060443d10156116d05790565b6040516003193d81016004833e81513d67ffffffffffffffff816024840111818411171561170057505050505090565b82850191508151818111156117185750505050505090565b843d87010160208285010111156117325750505050505090565b6117416020828601018761161c565b509095945050505050565b6001600160e01b0319811681146107ac57600080fdfea26469706673582212206ff56694be2d1940c8c18cc7fecf84ef6e3f4d3e2887ea5791ac401573fcb8db64736f6c63430008070033",
  "devdoc": {
    "kind": "dev",
    "methods": {
      "balanceOf(address,uint256)": {
        "details": "See {IERC1155-balanceOf}. Requirements: - `account` cannot be the zero address."
      },
      "balanceOfBatch(address[],uint256[])": {
        "details": "See {IERC1155-balanceOfBatch}. Requirements: - `accounts` and `ids` must have the same length."
      },
      "isApprovedForAll(address,address)": {
        "details": "See {IERC1155-isApprovedForAll}."
      },
      "owner()": {
        "details": "Returns the address of the current owner."
      },
      "renounceOwnership()": {
        "details": "Leaves the contract without owner. It will not be possible to call `onlyOwner` functions anymore. Can only be called by the current owner. NOTE: Renouncing ownership will leave the contract without an owner, thereby removing any functionality that is only available to the owner."
      },
      "safeBatchTransferFrom(address,address,uint256[],uint256[],bytes)": {
        "details": "See {IERC1155-safeBatchTransferFrom}."
      },
      "safeTransferFrom(address,address,uint256,uint256,bytes)": {
        "details": "See {IERC1155-safeTransferFrom}."
      },
      "setApprovalForAll(address,bool)": {
        "details": "See {IERC1155-setApprovalForAll}."
      },
      "supportsInterface(bytes4)": {
        "details": "See {IERC165-supportsInterface}."
      },
      "transferOwnership(address)": {
        "details": "Transfers ownership of the contract to a new account (`newOwner`). Can only be called by the current owner."
      },
      "uri(uint256)": {
        "details": "See {IERC1155MetadataURI-uri}. This implementation returns the same URI for *all* token types. It relies on the token type ID substitution mechanism https://eips.ethereum.org/EIPS/eip-1155#metadata[defined in the EIP]. Clients calling this function must replace the `\\{id\\}` substring with the actual token type ID."
      }
    },
    "version": 1
  },
  "userdoc": {
    "kind": "user",
    "methods": {},
    "version": 1
  },
  "storageLayout": {
    "storage": [
      {
        "astId": 222,
        "contract": "contracts/alloyx/UID.sol:UID",
        "label": "_balances",
        "offset": 0,
        "slot": "0",
        "type": "t_mapping(t_uint256,t_mapping(t_address,t_uint256))"
      },
      {
        "astId": 228,
        "contract": "contracts/alloyx/UID.sol:UID",
        "label": "_operatorApprovals",
        "offset": 0,
        "slot": "1",
        "type": "t_mapping(t_address,t_mapping(t_address,t_bool))"
      },
      {
        "astId": 230,
        "contract": "contracts/alloyx/UID.sol:UID",
        "label": "_uri",
        "offset": 0,
        "slot": "2",
        "type": "t_string_storage"
      },
      {
        "astId": 7,
        "contract": "contracts/alloyx/UID.sol:UID",
        "label": "_owner",
        "offset": 0,
        "slot": "3",
        "type": "t_address"
      }
    ],
    "types": {
      "t_address": {
        "encoding": "inplace",
        "label": "address",
        "numberOfBytes": "20"
      },
      "t_bool": {
        "encoding": "inplace",
        "label": "bool",
        "numberOfBytes": "1"
      },
      "t_mapping(t_address,t_bool)": {
        "encoding": "mapping",
        "key": "t_address",
        "label": "mapping(address => bool)",
        "numberOfBytes": "32",
        "value": "t_bool"
      },
      "t_mapping(t_address,t_mapping(t_address,t_bool))": {
        "encoding": "mapping",
        "key": "t_address",
        "label": "mapping(address => mapping(address => bool))",
        "numberOfBytes": "32",
        "value": "t_mapping(t_address,t_bool)"
      },
      "t_mapping(t_address,t_uint256)": {
        "encoding": "mapping",
        "key": "t_address",
        "label": "mapping(address => uint256)",
        "numberOfBytes": "32",
        "value": "t_uint256"
      },
      "t_mapping(t_uint256,t_mapping(t_address,t_uint256))": {
        "encoding": "mapping",
        "key": "t_uint256",
        "label": "mapping(uint256 => mapping(address => uint256))",
        "numberOfBytes": "32",
        "value": "t_mapping(t_address,t_uint256)"
      },
      "t_string_storage": {
        "encoding": "bytes",
        "label": "string",
        "numberOfBytes": "32"
      },
      "t_uint256": {
        "encoding": "inplace",
        "label": "uint256",
        "numberOfBytes": "32"
      }
    }
  }
}