{
  "address": "0x436A534e9EA9c6DCf8F9b376edf70b195B2ACaB0",
  "abi": [
    {
      "inputs": [],
      "stateMutability": "nonpayable",
      "type": "constructor"
    },
    {
      "anonymous": false,
      "inputs": [
        {
          "indexed": true,
          "internalType": "address",
          "name": "account",
          "type": "address"
        },
        {
          "indexed": true,
          "internalType": "address",
          "name": "operator",
          "type": "address"
        },
        {
          "indexed": false,
          "internalType": "bool",
          "name": "approved",
          "type": "bool"
        }
      ],
      "name": "ApprovalForAll",
      "type": "event"
    },
    {
      "anonymous": false,
      "inputs": [
        {
          "indexed": true,
          "internalType": "address",
          "name": "previousOwner",
          "type": "address"
        },
        {
          "indexed": true,
          "internalType": "address",
          "name": "newOwner",
          "type": "address"
        }
      ],
      "name": "OwnershipTransferred",
      "type": "event"
    },
    {
      "anonymous": false,
      "inputs": [
        {
          "indexed": true,
          "internalType": "address",
          "name": "operator",
          "type": "address"
        },
        {
          "indexed": true,
          "internalType": "address",
          "name": "from",
          "type": "address"
        },
        {
          "indexed": true,
          "internalType": "address",
          "name": "to",
          "type": "address"
        },
        {
          "indexed": false,
          "internalType": "uint256[]",
          "name": "ids",
          "type": "uint256[]"
        },
        {
          "indexed": false,
          "internalType": "uint256[]",
          "name": "values",
          "type": "uint256[]"
        }
      ],
      "name": "TransferBatch",
      "type": "event"
    },
    {
      "anonymous": false,
      "inputs": [
        {
          "indexed": true,
          "internalType": "address",
          "name": "operator",
          "type": "address"
        },
        {
          "indexed": true,
          "internalType": "address",
          "name": "from",
          "type": "address"
        },
        {
          "indexed": true,
          "internalType": "address",
          "name": "to",
          "type": "address"
        },
        {
          "indexed": false,
          "internalType": "uint256",
          "name": "id",
          "type": "uint256"
        },
        {
          "indexed": false,
          "internalType": "uint256",
          "name": "value",
          "type": "uint256"
        }
      ],
      "name": "TransferSingle",
      "type": "event"
    },
    {
      "anonymous": false,
      "inputs": [
        {
          "indexed": false,
          "internalType": "string",
          "name": "value",
          "type": "string"
        },
        {
          "indexed": true,
          "internalType": "uint256",
          "name": "id",
          "type": "uint256"
        }
      ],
      "name": "URI",
      "type": "event"
    },
    {
      "inputs": [
        {
          "internalType": "address",
          "name": "account",
          "type": "address"
        },
        {
          "internalType": "uint256",
          "name": "id",
          "type": "uint256"
        }
      ],
      "name": "balanceOf",
      "outputs": [
        {
          "internalType": "uint256",
          "name": "",
          "type": "uint256"
        }
      ],
      "stateMutability": "view",
      "type": "function"
    },
    {
      "inputs": [
        {
          "internalType": "address[]",
          "name": "accounts",
          "type": "address[]"
        },
        {
          "internalType": "uint256[]",
          "name": "ids",
          "type": "uint256[]"
        }
      ],
      "name": "balanceOfBatch",
      "outputs": [
        {
          "internalType": "uint256[]",
          "name": "",
          "type": "uint256[]"
        }
      ],
      "stateMutability": "view",
      "type": "function"
    },
    {
      "inputs": [
        {
          "internalType": "address",
          "name": "account",
          "type": "address"
        },
        {
          "internalType": "address",
          "name": "operator",
          "type": "address"
        }
      ],
      "name": "isApprovedForAll",
      "outputs": [
        {
          "internalType": "bool",
          "name": "",
          "type": "bool"
        }
      ],
      "stateMutability": "view",
      "type": "function"
    },
    {
      "inputs": [],
      "name": "owner",
      "outputs": [
        {
          "internalType": "address",
          "name": "",
          "type": "address"
        }
      ],
      "stateMutability": "view",
      "type": "function"
    },
    {
      "inputs": [],
      "name": "renounceOwnership",
      "outputs": [],
      "stateMutability": "nonpayable",
      "type": "function"
    },
    {
      "inputs": [
        {
          "internalType": "address",
          "name": "from",
          "type": "address"
        },
        {
          "internalType": "address",
          "name": "to",
          "type": "address"
        },
        {
          "internalType": "uint256[]",
          "name": "ids",
          "type": "uint256[]"
        },
        {
          "internalType": "uint256[]",
          "name": "amounts",
          "type": "uint256[]"
        },
        {
          "internalType": "bytes",
          "name": "data",
          "type": "bytes"
        }
      ],
      "name": "safeBatchTransferFrom",
      "outputs": [],
      "stateMutability": "nonpayable",
      "type": "function"
    },
    {
      "inputs": [
        {
          "internalType": "address",
          "name": "from",
          "type": "address"
        },
        {
          "internalType": "address",
          "name": "to",
          "type": "address"
        },
        {
          "internalType": "uint256",
          "name": "id",
          "type": "uint256"
        },
        {
          "internalType": "uint256",
          "name": "amount",
          "type": "uint256"
        },
        {
          "internalType": "bytes",
          "name": "data",
          "type": "bytes"
        }
      ],
      "name": "safeTransferFrom",
      "outputs": [],
      "stateMutability": "nonpayable",
      "type": "function"
    },
    {
      "inputs": [
        {
          "internalType": "address",
          "name": "operator",
          "type": "address"
        },
        {
          "internalType": "bool",
          "name": "approved",
          "type": "bool"
        }
      ],
      "name": "setApprovalForAll",
      "outputs": [],
      "stateMutability": "nonpayable",
      "type": "function"
    },
    {
      "inputs": [
        {
          "internalType": "bytes4",
          "name": "interfaceId",
          "type": "bytes4"
        }
      ],
      "name": "supportsInterface",
      "outputs": [
        {
          "internalType": "bool",
          "name": "",
          "type": "bool"
        }
      ],
      "stateMutability": "view",
      "type": "function"
    },
    {
      "inputs": [
        {
          "internalType": "address",
          "name": "newOwner",
          "type": "address"
        }
      ],
      "name": "transferOwnership",
      "outputs": [],
      "stateMutability": "nonpayable",
      "type": "function"
    },
    {
      "inputs": [
        {
          "internalType": "uint256",
          "name": "",
          "type": "uint256"
        }
      ],
      "name": "uri",
      "outputs": [
        {
          "internalType": "string",
          "name": "",
          "type": "string"
        }
      ],
      "stateMutability": "view",
      "type": "function"
    }
  ],
  "transactionHash": "0x07f4f19445d67d29eda3992fe60a2b51814fc8d650c294568d88d6d604ae2e8d",
  "args": [],
  "numDeployments": 1,
  "solcInputHash": "38472ce1e4577c192ec978c81f70b057",
  "bytecode": "0x60806040523480156200001157600080fd5b5060408051808201909152600381526215525160ea1b6020820152620000378162000049565b50620000433362000062565b62000197565b80516200005e906002906020840190620000b4565b5050565b600380546001600160a01b038381166001600160a01b0319831681179093556040519116919082907f8be0079c531659141344cd1fd0a4f28419497f9722a3daafe3b4186f6b6457e090600090a35050565b828054620000c2906200015a565b90600052602060002090601f016020900481019282620000e6576000855562000131565b82601f106200010157805160ff191683800117855562000131565b8280016001018555821562000131579182015b828111156200013157825182559160200191906001019062000114565b506200013f92915062000143565b5090565b5b808211156200013f576000815560010162000144565b600181811c908216806200016f57607f821691505b602082108114156200019157634e487b7160e01b600052602260045260246000fd5b50919050565b6115e180620001a76000396000f3fe608060405234801561001057600080fd5b50600436106100985760003560e01c8062fdd58e1461009d57806301ffc9a7146100c35780630e89341c146100e65780632eb2c2d6146101065780634e1273f41461011b578063715018a61461013b5780638da5cb5b14610143578063a22cb46514610163578063e985e9c514610176578063f242432a146101b2578063f2fde38b146101c5575b600080fd5b6100b06100ab366004611019565b6101d8565b6040519081526020015b60405180910390f35b6100d66100d1366004611113565b61026f565b60405190151581526020016100ba565b6100f96100f436600461114d565b6102c1565b6040516100ba91906112d2565b610119610114366004610ed0565b610355565b005b61012e610129366004611043565b6103ec565b6040516100ba9190611291565b610119610515565b61014b610550565b6040516001600160a01b0390911681526020016100ba565b610119610171366004610fdd565b61055f565b6100d6610184366004610e9d565b6001600160a01b03918216600090815260016020908152604080832093909416825291909152205460ff1690565b6101196101c0366004610f79565b61056e565b6101196101d3366004610e7b565b6105f5565b60006001600160a01b0383166102495760405162461bcd60e51b815260206004820152602b60248201527f455243313135353a2062616c616e636520717565727920666f7220746865207a60448201526a65726f206164647265737360a81b60648201526084015b60405180910390fd5b506000908152602081815260408083206001600160a01b03949094168352929052205490565b60006001600160e01b03198216636cdb3d1360e11b14806102a057506001600160e01b031982166303a24d0760e21b145b806102bb57506301ffc9a760e01b6001600160e01b03198316145b92915050565b6060600280546102d09061142c565b80601f01602080910402602001604051908101604052809291908181526020018280546102fc9061142c565b80156103495780601f1061031e57610100808354040283529160200191610349565b820191906000526020600020905b81548152906001019060200180831161032c57829003601f168201915b50505050509050919050565b6001600160a01b03851633148061037157506103718533610184565b6103d85760405162461bcd60e51b815260206004820152603260248201527f455243313135353a207472616e736665722063616c6c6572206973206e6f74206044820152711bdddb995c881b9bdc88185c1c1c9bdd995960721b6064820152608401610240565b6103e58585858585610695565b5050505050565b606081518351146104515760405162461bcd60e51b815260206004820152602960248201527f455243313135353a206163636f756e747320616e6420696473206c656e677468604482015268040dad2e6dac2e8c6d60bb1b6064820152608401610240565b600083516001600160401b0381111561046c5761046c6114da565b604051908082528060200260200182016040528015610495578160200160208202803683370190505b50905060005b845181101561050d576104e08582815181106104b9576104b96114c4565b60200260200101518583815181106104d3576104d36114c4565b60200260200101516101d8565b8282815181106104f2576104f26114c4565b602090810291909101015261050681611493565b905061049b565b509392505050565b3361051e610550565b6001600160a01b0316146105445760405162461bcd60e51b8152600401610240906113bc565b61054e6000610872565b565b6003546001600160a01b031690565b61056a3383836108c4565b5050565b6001600160a01b03851633148061058a575061058a8533610184565b6105e85760405162461bcd60e51b815260206004820152602960248201527f455243313135353a2063616c6c6572206973206e6f74206f776e6572206e6f7260448201526808185c1c1c9bdd995960ba1b6064820152608401610240565b6103e585858585856109a5565b336105fe610550565b6001600160a01b0316146106245760405162461bcd60e51b8152600401610240906113bc565b6001600160a01b0381166106895760405162461bcd60e51b815260206004820152602660248201527f4f776e61626c653a206e6577206f776e657220697320746865207a65726f206160448201526564647265737360d01b6064820152608401610240565b61069281610872565b50565b81518351146106f75760405162461bcd60e51b815260206004820152602860248201527f455243313135353a2069647320616e6420616d6f756e7473206c656e677468206044820152670dad2e6dac2e8c6d60c31b6064820152608401610240565b6001600160a01b03841661071d5760405162461bcd60e51b81526004016102409061132d565b3360005b845181101561080457600085828151811061073e5761073e6114c4565b60200260200101519050600085838151811061075c5761075c6114c4565b602090810291909101810151600084815280835260408082206001600160a01b038e1683529093529190912054909150818110156107ac5760405162461bcd60e51b815260040161024090611372565b6000838152602081815260408083206001600160a01b038e8116855292528083208585039055908b168252812080548492906107e9908490611414565b92505081905550505050806107fd90611493565b9050610721565b50846001600160a01b0316866001600160a01b0316826001600160a01b03167f4a39dc06d4c0dbc64b70af90fd698a233a518aa5d07e595d983b8c0526c8f7fb87876040516108549291906112a4565b60405180910390a461086a818787878787610acf565b505050505050565b600380546001600160a01b038381166001600160a01b0319831681179093556040519116919082907f8be0079c531659141344cd1fd0a4f28419497f9722a3daafe3b4186f6b6457e090600090a35050565b816001600160a01b0316836001600160a01b031614156109385760405162461bcd60e51b815260206004820152602960248201527f455243313135353a2073657474696e6720617070726f76616c20737461747573604482015268103337b91039b2b63360b91b6064820152608401610240565b6001600160a01b03838116600081815260016020908152604080832094871680845294825291829020805460ff191686151590811790915591519182527f17307eab39ab6107e8899845ad3d59bd9653f200f220920489ca2b5937696c31910160405180910390a3505050565b6001600160a01b0384166109cb5760405162461bcd60e51b81526004016102409061132d565b3360006109d785610c4a565b905060006109e485610c4a565b90506000868152602081815260408083206001600160a01b038c16845290915290205485811015610a275760405162461bcd60e51b815260040161024090611372565b6000878152602081815260408083206001600160a01b038d8116855292528083208985039055908a16825281208054889290610a64908490611414565b909155505060408051888152602081018890526001600160a01b03808b16928c821692918816917fc3d58168c5ae7397731d063d5bbf3d657854427343f4c083240f7aacaa2d0f62910160405180910390a4610ac4848a8a8a8a8a610c95565b505050505050505050565b610ae1846001600160a01b0316610d66565b1561086a5760405163bc197c8160e01b81526001600160a01b0385169063bc197c8190610b1a90899089908890889088906004016111ee565b602060405180830381600087803b158015610b3457600080fd5b505af1925050508015610b64575060408051601f3d908101601f19168201909252610b6191810190611130565b60015b610c1157610b706114f0565b806308c379a01415610baa5750610b8561150c565b80610b905750610bac565b8060405162461bcd60e51b815260040161024091906112d2565b505b60405162461bcd60e51b815260206004820152603460248201527f455243313135353a207472616e7366657220746f206e6f6e20455243313135356044820152732932b1b2b4bb32b91034b6b83632b6b2b73a32b960611b6064820152608401610240565b6001600160e01b0319811663bc197c8160e01b14610c415760405162461bcd60e51b8152600401610240906112e5565b50505050505050565b60408051600180825281830190925260609160009190602080830190803683370190505090508281600081518110610c8457610c846114c4565b602090810291909101015292915050565b610ca7846001600160a01b0316610d66565b1561086a5760405163f23a6e6160e01b81526001600160a01b0385169063f23a6e6190610ce0908990899088908890889060040161124c565b602060405180830381600087803b158015610cfa57600080fd5b505af1925050508015610d2a575060408051601f3d908101601f19168201909252610d2791810190611130565b60015b610d3657610b706114f0565b6001600160e01b0319811663f23a6e6160e01b14610c415760405162461bcd60e51b8152600401610240906112e5565b6001600160a01b03163b151590565b80356001600160a01b0381168114610d8c57600080fd5b919050565b600082601f830112610da257600080fd5b81356020610daf826113f1565b604051610dbc8282611467565b8381528281019150858301600585901b87018401881015610ddc57600080fd5b60005b85811015610dfb57813584529284019290840190600101610ddf565b5090979650505050505050565b600082601f830112610e1957600080fd5b81356001600160401b03811115610e3257610e326114da565b604051610e49601f8301601f191660200182611467565b818152846020838601011115610e5e57600080fd5b816020850160208301376000918101602001919091529392505050565b600060208284031215610e8d57600080fd5b610e9682610d75565b9392505050565b60008060408385031215610eb057600080fd5b610eb983610d75565b9150610ec760208401610d75565b90509250929050565b600080600080600060a08688031215610ee857600080fd5b610ef186610d75565b9450610eff60208701610d75565b935060408601356001600160401b0380821115610f1b57600080fd5b610f2789838a01610d91565b94506060880135915080821115610f3d57600080fd5b610f4989838a01610d91565b93506080880135915080821115610f5f57600080fd5b50610f6c88828901610e08565b9150509295509295909350565b600080600080600060a08688031215610f9157600080fd5b610f9a86610d75565b9450610fa860208701610d75565b9350604086013592506060860135915060808601356001600160401b03811115610fd157600080fd5b610f6c88828901610e08565b60008060408385031215610ff057600080fd5b610ff983610d75565b91506020830135801515811461100e57600080fd5b809150509250929050565b6000806040838503121561102c57600080fd5b61103583610d75565b946020939093013593505050565b6000806040838503121561105657600080fd5b82356001600160401b038082111561106d57600080fd5b818501915085601f83011261108157600080fd5b8135602061108e826113f1565b60405161109b8282611467565b8381528281019150858301600585901b870184018b10156110bb57600080fd5b600096505b848710156110e5576110d181610d75565b8352600196909601959183019183016110c0565b50965050860135925050808211156110fc57600080fd5b5061110985828601610d91565b9150509250929050565b60006020828403121561112557600080fd5b8135610e9681611595565b60006020828403121561114257600080fd5b8151610e9681611595565b60006020828403121561115f57600080fd5b5035919050565b600081518084526020808501945080840160005b838110156111965781518752958201959082019060010161117a565b509495945050505050565b6000815180845260005b818110156111c7576020818501810151868301820152016111ab565b818111156111d9576000602083870101525b50601f01601f19169290920160200192915050565b6001600160a01b0386811682528516602082015260a06040820181905260009061121a90830186611166565b828103606084015261122c8186611166565b9050828103608084015261124081856111a1565b98975050505050505050565b6001600160a01b03868116825285166020820152604081018490526060810183905260a060808201819052600090611286908301846111a1565b979650505050505050565b602081526000610e966020830184611166565b6040815260006112b76040830185611166565b82810360208401526112c98185611166565b95945050505050565b602081526000610e9660208301846111a1565b60208082526028908201527f455243313135353a204552433131353552656365697665722072656a656374656040820152676420746f6b656e7360c01b606082015260800190565b60208082526025908201527f455243313135353a207472616e7366657220746f20746865207a65726f206164604082015264647265737360d81b606082015260800190565b6020808252602a908201527f455243313135353a20696e73756666696369656e742062616c616e636520666f60408201526939103a3930b739b332b960b11b606082015260800190565b6020808252818101527f4f776e61626c653a2063616c6c6572206973206e6f7420746865206f776e6572604082015260600190565b60006001600160401b0382111561140a5761140a6114da565b5060051b60200190565b60008219821115611427576114276114ae565b500190565b600181811c9082168061144057607f821691505b6020821081141561146157634e487b7160e01b600052602260045260246000fd5b50919050565b601f8201601f191681016001600160401b038111828210171561148c5761148c6114da565b6040525050565b60006000198214156114a7576114a76114ae565b5060010190565b634e487b7160e01b600052601160045260246000fd5b634e487b7160e01b600052603260045260246000fd5b634e487b7160e01b600052604160045260246000fd5b600060033d11156115095760046000803e5060005160e01c5b90565b600060443d101561151a5790565b6040516003193d81016004833e81513d6001600160401b03808311602484018310171561154957505050505090565b82850191508151818111156115615750505050505090565b843d870101602082850101111561157b5750505050505090565b61158a60208286010187611467565b509095945050505050565b6001600160e01b03198116811461069257600080fdfea2646970667358221220dba327e82c6f63746b135df4b8bad20100572bc2fdb4ceea448f767aab704f0c64736f6c63430008070033",
  "devdoc": {
    "kind": "dev",
    "methods": {
      "balanceOf(address,uint256)": {
        "details": "See {IERC1155-balanceOf}. Requirements: - `account` cannot be the zero address."
      },
      "balanceOfBatch(address[],uint256[])": {
        "details": "See {IERC1155-balanceOfBatch}. Requirements: - `accounts` and `ids` must have the same length."
      },
      "isApprovedForAll(address,address)": {
        "details": "See {IERC1155-isApprovedForAll}."
      },
      "owner()": {
        "details": "Returns the address of the current owner."
      },
      "renounceOwnership()": {
        "details": "Leaves the contract without owner. It will not be possible to call `onlyOwner` functions anymore. Can only be called by the current owner. NOTE: Renouncing ownership will leave the contract without an owner, thereby removing any functionality that is only available to the owner."
      },
      "safeBatchTransferFrom(address,address,uint256[],uint256[],bytes)": {
        "details": "See {IERC1155-safeBatchTransferFrom}."
      },
      "safeTransferFrom(address,address,uint256,uint256,bytes)": {
        "details": "See {IERC1155-safeTransferFrom}."
      },
      "setApprovalForAll(address,bool)": {
        "details": "See {IERC1155-setApprovalForAll}."
      },
      "supportsInterface(bytes4)": {
        "details": "See {IERC165-supportsInterface}."
      },
      "transferOwnership(address)": {
        "details": "Transfers ownership of the contract to a new account (`newOwner`). Can only be called by the current owner."
      },
      "uri(uint256)": {
        "details": "See {IERC1155MetadataURI-uri}. This implementation returns the same URI for *all* token types. It relies on the token type ID substitution mechanism https://eips.ethereum.org/EIPS/eip-1155#metadata[defined in the EIP]. Clients calling this function must replace the `\\{id\\}` substring with the actual token type ID."
      }
    },
    "version": 1
  },
  "userdoc": {
    "kind": "user",
    "methods": {},
    "version": 1
  },
  "storageLayout": {
    "storage": [
      {
        "astId": 1795,
        "contract": "contracts/alloyx/UID.sol:UID",
        "label": "_balances",
        "offset": 0,
        "slot": "0",
        "type": "t_mapping(t_uint256,t_mapping(t_address,t_uint256))"
      },
      {
        "astId": 1801,
        "contract": "contracts/alloyx/UID.sol:UID",
        "label": "_operatorApprovals",
        "offset": 0,
        "slot": "1",
        "type": "t_mapping(t_address,t_mapping(t_address,t_bool))"
      },
      {
        "astId": 1803,
        "contract": "contracts/alloyx/UID.sol:UID",
        "label": "_uri",
        "offset": 0,
        "slot": "2",
        "type": "t_string_storage"
      },
      {
        "astId": 1672,
        "contract": "contracts/alloyx/UID.sol:UID",
        "label": "_owner",
        "offset": 0,
        "slot": "3",
        "type": "t_address"
      }
    ],
    "types": {
      "t_address": {
        "encoding": "inplace",
        "label": "address",
        "numberOfBytes": "20"
      },
      "t_bool": {
        "encoding": "inplace",
        "label": "bool",
        "numberOfBytes": "1"
      },
      "t_mapping(t_address,t_bool)": {
        "encoding": "mapping",
        "key": "t_address",
        "label": "mapping(address => bool)",
        "numberOfBytes": "32",
        "value": "t_bool"
      },
      "t_mapping(t_address,t_mapping(t_address,t_bool))": {
        "encoding": "mapping",
        "key": "t_address",
        "label": "mapping(address => mapping(address => bool))",
        "numberOfBytes": "32",
        "value": "t_mapping(t_address,t_bool)"
      },
      "t_mapping(t_address,t_uint256)": {
        "encoding": "mapping",
        "key": "t_address",
        "label": "mapping(address => uint256)",
        "numberOfBytes": "32",
        "value": "t_uint256"
      },
      "t_mapping(t_uint256,t_mapping(t_address,t_uint256))": {
        "encoding": "mapping",
        "key": "t_uint256",
        "label": "mapping(uint256 => mapping(address => uint256))",
        "numberOfBytes": "32",
        "value": "t_mapping(t_address,t_uint256)"
      },
      "t_string_storage": {
        "encoding": "bytes",
        "label": "string",
        "numberOfBytes": "32"
      },
      "t_uint256": {
        "encoding": "inplace",
        "label": "uint256",
        "numberOfBytes": "32"
      }
    }
  }
}